{
	"ToDoApp.sol": {
		"ToDoApp": {
			"abi": [
				{
					"inputs": [],
					"stateMutability": "nonpayable",
					"type": "constructor"
				},
				{
					"inputs": [
						{
							"internalType": "string",
							"name": "name",
							"type": "string"
						},
						{
							"internalType": "string",
							"name": "content",
							"type": "string"
						}
					],
					"name": "addTodo",
					"outputs": [],
					"stateMutability": "nonpayable",
					"type": "function"
				},
				{
					"inputs": [],
					"name": "counter",
					"outputs": [
						{
							"internalType": "uint256",
							"name": "",
							"type": "uint256"
						}
					],
					"stateMutability": "view",
					"type": "function"
				},
				{
					"inputs": [],
					"name": "getAmount",
					"outputs": [
						{
							"internalType": "uint256",
							"name": "",
							"type": "uint256"
						}
					],
					"stateMutability": "view",
					"type": "function"
				},
				{
					"inputs": [
						{
							"internalType": "uint256",
							"name": "id",
							"type": "uint256"
						}
					],
					"name": "getTodo",
					"outputs": [
						{
							"components": [
								{
									"internalType": "uint256",
									"name": "id",
									"type": "uint256"
								},
								{
									"internalType": "string",
									"name": "name",
									"type": "string"
								},
								{
									"internalType": "string",
									"name": "content",
									"type": "string"
								},
								{
									"internalType": "bool",
									"name": "status",
									"type": "bool"
								}
							],
							"internalType": "struct ToDoApp.ToDo",
							"name": "",
							"type": "tuple"
						}
					],
					"stateMutability": "view",
					"type": "function"
				},
				{
					"inputs": [
						{
							"internalType": "uint256",
							"name": "id",
							"type": "uint256"
						}
					],
					"name": "setAsDone",
					"outputs": [],
					"stateMutability": "nonpayable",
					"type": "function"
				},
				{
					"inputs": [
						{
							"internalType": "uint256",
							"name": "id",
							"type": "uint256"
						}
					],
					"name": "setAsUndone",
					"outputs": [],
					"stateMutability": "nonpayable",
					"type": "function"
				},
				{
					"inputs": [
						{
							"internalType": "uint256",
							"name": "",
							"type": "uint256"
						}
					],
					"name": "todos",
					"outputs": [
						{
							"internalType": "uint256",
							"name": "id",
							"type": "uint256"
						},
						{
							"internalType": "string",
							"name": "name",
							"type": "string"
						},
						{
							"internalType": "string",
							"name": "content",
							"type": "string"
						},
						{
							"internalType": "bool",
							"name": "status",
							"type": "bool"
						}
					],
					"stateMutability": "view",
					"type": "function"
				}
			],
			"devdoc": {
				"kind": "dev",
				"methods": {},
				"version": 1
			},
			"evm": {
				"assembly": "    /* \"ToDoApp.sol\":120:1356  contract ToDoApp {... */\n  mstore(0x40, 0x80)\n    /* \"ToDoApp.sol\":476:525  constructor() {... */\n  callvalue\n  dup1\n  iszero\n  tag_1\n  jumpi\n  0x00\n  dup1\n  revert\ntag_1:\n  pop\n    /* \"ToDoApp.sol\":508:518  msg.sender */\n  caller\n    /* \"ToDoApp.sol\":500:505  owner */\n  0x00\n  dup1\n    /* \"ToDoApp.sol\":500:518  owner = msg.sender */\n  0x0100\n  exp\n  dup2\n  sload\n  dup2\n  0xffffffffffffffffffffffffffffffffffffffff\n  mul\n  not\n  and\n  swap1\n  dup4\n  0xffffffffffffffffffffffffffffffffffffffff\n  and\n  mul\n  or\n  swap1\n  sstore\n  pop\n    /* \"ToDoApp.sol\":120:1356  contract ToDoApp {... */\n  dataSize(sub_0)\n  dup1\n  dataOffset(sub_0)\n  0x00\n  codecopy\n  0x00\n  return\nstop\n\nsub_0: assembly {\n        /* \"ToDoApp.sol\":120:1356  contract ToDoApp {... */\n      mstore(0x40, 0x80)\n      callvalue\n      dup1\n      iszero\n      tag_1\n      jumpi\n      0x00\n      dup1\n      revert\n    tag_1:\n      pop\n      jumpi(tag_2, lt(calldatasize, 0x04))\n      shr(0xe0, calldataload(0x00))\n      dup1\n      0xbc8bc2b4\n      gt\n      tag_10\n      jumpi\n      dup1\n      0xbc8bc2b4\n      eq\n      tag_6\n      jumpi\n      dup1\n      0xd321fe29\n      eq\n      tag_7\n      jumpi\n      dup1\n      0xdd68afb6\n      eq\n      tag_8\n      jumpi\n      dup1\n      0xfc5049f1\n      eq\n      tag_9\n      jumpi\n      jump(tag_2)\n    tag_10:\n      dup1\n      0x1b7fb260\n      eq\n      tag_3\n      jumpi\n      dup1\n      0x61bc221a\n      eq\n      tag_4\n      jumpi\n      dup1\n      0x62969ff7\n      eq\n      tag_5\n      jumpi\n    tag_2:\n      0x00\n      dup1\n      revert\n        /* \"ToDoApp.sol\":636:850  function addTodo(... */\n    tag_3:\n      tag_11\n      0x04\n      dup1\n      calldatasize\n      sub\n      dup2\n      add\n      swap1\n      tag_12\n      swap2\n      swap1\n      tag_13\n      jump\t// in\n    tag_12:\n      tag_14\n      jump\t// in\n    tag_11:\n      stop\n        /* \"ToDoApp.sol\":196:215  uint public counter */\n    tag_4:\n      tag_15\n      tag_16\n      jump\t// in\n    tag_15:\n      mload(0x40)\n      tag_17\n      swap2\n      swap1\n      tag_18\n      jump\t// in\n    tag_17:\n      mload(0x40)\n      dup1\n      swap2\n      sub\n      swap1\n      return\n        /* \"ToDoApp.sol\":1276:1354  function setAsUndone(uint id) public {... */\n    tag_5:\n      tag_19\n      0x04\n      dup1\n      calldatasize\n      sub\n      dup2\n      add\n      swap1\n      tag_20\n      swap2\n      swap1\n      tag_21\n      jump\t// in\n    tag_20:\n      tag_22\n      jump\t// in\n    tag_19:\n      stop\n        /* \"ToDoApp.sol\":397:434  mapping(uint256 => ToDo) public todos */\n    tag_6:\n      tag_23\n      0x04\n      dup1\n      calldatasize\n      sub\n      dup2\n      add\n      swap1\n      tag_24\n      swap2\n      swap1\n      tag_21\n      jump\t// in\n    tag_24:\n      tag_25\n      jump\t// in\n    tag_23:\n      mload(0x40)\n      tag_26\n      swap5\n      swap4\n      swap3\n      swap2\n      swap1\n      tag_27\n      jump\t// in\n    tag_26:\n      mload(0x40)\n      dup1\n      swap2\n      sub\n      swap1\n      return\n        /* \"ToDoApp.sol\":1030:1107  function getAmount() public view returns(uint){... */\n    tag_7:\n      tag_28\n      tag_29\n      jump\t// in\n    tag_28:\n      mload(0x40)\n      tag_30\n      swap2\n      swap1\n      tag_18\n      jump\t// in\n    tag_30:\n      mload(0x40)\n      dup1\n      swap2\n      sub\n      swap1\n      return\n        /* \"ToDoApp.sol\":888:980  function getTodo(uint id) public view returns(ToDo memory) {... */\n    tag_8:\n      tag_31\n      0x04\n      dup1\n      calldatasize\n      sub\n      dup2\n      add\n      swap1\n      tag_32\n      swap2\n      swap1\n      tag_21\n      jump\t// in\n    tag_32:\n      tag_33\n      jump\t// in\n    tag_31:\n      mload(0x40)\n      tag_34\n      swap2\n      swap1\n      tag_35\n      jump\t// in\n    tag_34:\n      mload(0x40)\n      dup1\n      swap2\n      sub\n      swap1\n      return\n        /* \"ToDoApp.sol\":1153:1228  function setAsDone(uint id) public {... */\n    tag_9:\n      tag_36\n      0x04\n      dup1\n      calldatasize\n      sub\n      dup2\n      add\n      swap1\n      tag_37\n      swap2\n      swap1\n      tag_21\n      jump\t// in\n    tag_37:\n      tag_38\n      jump\t// in\n    tag_36:\n      stop\n        /* \"ToDoApp.sol\":636:850  function addTodo(... */\n    tag_14:\n        /* \"ToDoApp.sol\":752:787  ToDo(counter, name, content, false) */\n      mload(0x40)\n      dup1\n      0x80\n      add\n      0x40\n      mstore\n      dup1\n        /* \"ToDoApp.sol\":757:764  counter */\n      sload(0x01)\n        /* \"ToDoApp.sol\":752:787  ToDo(counter, name, content, false) */\n      dup2\n      mstore\n      0x20\n      add\n        /* \"ToDoApp.sol\":766:770  name */\n      dup4\n        /* \"ToDoApp.sol\":752:787  ToDo(counter, name, content, false) */\n      dup2\n      mstore\n      0x20\n      add\n        /* \"ToDoApp.sol\":772:779  content */\n      dup3\n        /* \"ToDoApp.sol\":752:787  ToDo(counter, name, content, false) */\n      dup2\n      mstore\n      0x20\n      add\n        /* \"ToDoApp.sol\":781:786  false */\n      0x00\n        /* \"ToDoApp.sol\":752:787  ToDo(counter, name, content, false) */\n      iszero\n      iszero\n      dup2\n      mstore\n      pop\n        /* \"ToDoApp.sol\":735:740  todos */\n      0x02\n        /* \"ToDoApp.sol\":735:749  todos[counter] */\n      0x00\n        /* \"ToDoApp.sol\":741:748  counter */\n      sload(0x01)\n        /* \"ToDoApp.sol\":735:749  todos[counter] */\n      dup2\n      mstore\n      0x20\n      add\n      swap1\n      dup2\n      mstore\n      0x20\n      add\n      0x00\n      keccak256\n        /* \"ToDoApp.sol\":735:787  todos[counter] = ToDo(counter, name, content, false) */\n      0x00\n      dup3\n      add\n      mload\n      dup2\n      0x00\n      add\n      sstore\n      0x20\n      dup3\n      add\n      mload\n      dup2\n      0x01\n      add\n      swap1\n      dup1\n      mload\n      swap1\n      0x20\n      add\n      swap1\n      tag_40\n      swap3\n      swap2\n      swap1\n      tag_41\n      jump\t// in\n    tag_40:\n      pop\n      0x40\n      dup3\n      add\n      mload\n      dup2\n      0x02\n      add\n      swap1\n      dup1\n      mload\n      swap1\n      0x20\n      add\n      swap1\n      tag_42\n      swap3\n      swap2\n      swap1\n      tag_41\n      jump\t// in\n    tag_42:\n      pop\n      0x60\n      dup3\n      add\n      mload\n      dup2\n      0x03\n      add\n      exp(0x0100, 0x00)\n      dup2\n      sload\n      dup2\n      0xff\n      mul\n      not\n      and\n      swap1\n      dup4\n      iszero\n      iszero\n      mul\n      or\n      swap1\n      sstore\n      pop\n      swap1\n      pop\n      pop\n        /* \"ToDoApp.sol\":834:841  counter */\n      0x01\n      0x00\n        /* \"ToDoApp.sol\":834:843  counter++ */\n      dup2\n      sload\n      dup1\n      swap3\n      swap2\n      swap1\n      tag_43\n      swap1\n      tag_44\n      jump\t// in\n    tag_43:\n      swap2\n      swap1\n      pop\n      sstore\n      pop\n        /* \"ToDoApp.sol\":636:850  function addTodo(... */\n      pop\n      pop\n      jump\t// out\n        /* \"ToDoApp.sol\":196:215  uint public counter */\n    tag_16:\n      sload(0x01)\n      dup2\n      jump\t// out\n        /* \"ToDoApp.sol\":1276:1354  function setAsUndone(uint id) public {... */\n    tag_22:\n        /* \"ToDoApp.sol\":1342:1347  false */\n      0x00\n        /* \"ToDoApp.sol\":1323:1328  todos */\n      0x02\n        /* \"ToDoApp.sol\":1323:1332  todos[id] */\n      0x00\n        /* \"ToDoApp.sol\":1329:1331  id */\n      dup4\n        /* \"ToDoApp.sol\":1323:1332  todos[id] */\n      dup2\n      mstore\n      0x20\n      add\n      swap1\n      dup2\n      mstore\n      0x20\n      add\n      0x00\n      keccak256\n        /* \"ToDoApp.sol\":1323:1339  todos[id].status */\n      0x03\n      add\n      0x00\n        /* \"ToDoApp.sol\":1323:1347  todos[id].status = false */\n      0x0100\n      exp\n      dup2\n      sload\n      dup2\n      0xff\n      mul\n      not\n      and\n      swap1\n      dup4\n      iszero\n      iszero\n      mul\n      or\n      swap1\n      sstore\n      pop\n        /* \"ToDoApp.sol\":1276:1354  function setAsUndone(uint id) public {... */\n      pop\n      jump\t// out\n        /* \"ToDoApp.sol\":397:434  mapping(uint256 => ToDo) public todos */\n    tag_25:\n      mstore(0x20, 0x02)\n      dup1\n      0x00\n      mstore\n      keccak256(0x00, 0x40)\n      0x00\n      swap2\n      pop\n      swap1\n      pop\n      dup1\n      0x00\n      add\n      sload\n      swap1\n      dup1\n      0x01\n      add\n      dup1\n      sload\n      tag_46\n      swap1\n      tag_47\n      jump\t// in\n    tag_46:\n      dup1\n      0x1f\n      add\n      0x20\n      dup1\n      swap2\n      div\n      mul\n      0x20\n      add\n      mload(0x40)\n      swap1\n      dup2\n      add\n      0x40\n      mstore\n      dup1\n      swap3\n      swap2\n      swap1\n      dup2\n      dup2\n      mstore\n      0x20\n      add\n      dup3\n      dup1\n      sload\n      tag_48\n      swap1\n      tag_47\n      jump\t// in\n    tag_48:\n      dup1\n      iszero\n      tag_49\n      jumpi\n      dup1\n      0x1f\n      lt\n      tag_50\n      jumpi\n      0x0100\n      dup1\n      dup4\n      sload\n      div\n      mul\n      dup4\n      mstore\n      swap2\n      0x20\n      add\n      swap2\n      jump(tag_49)\n    tag_50:\n      dup3\n      add\n      swap2\n      swap1\n      0x00\n      mstore\n      keccak256(0x00, 0x20)\n      swap1\n    tag_51:\n      dup2\n      sload\n      dup2\n      mstore\n      swap1\n      0x01\n      add\n      swap1\n      0x20\n      add\n      dup1\n      dup4\n      gt\n      tag_51\n      jumpi\n      dup3\n      swap1\n      sub\n      0x1f\n      and\n      dup3\n      add\n      swap2\n    tag_49:\n      pop\n      pop\n      pop\n      pop\n      pop\n      swap1\n      dup1\n      0x02\n      add\n      dup1\n      sload\n      tag_52\n      swap1\n      tag_47\n      jump\t// in\n    tag_52:\n      dup1\n      0x1f\n      add\n      0x20\n      dup1\n      swap2\n      div\n      mul\n      0x20\n      add\n      mload(0x40)\n      swap1\n      dup2\n      add\n      0x40\n      mstore\n      dup1\n      swap3\n      swap2\n      swap1\n      dup2\n      dup2\n      mstore\n      0x20\n      add\n      dup3\n      dup1\n      sload\n      tag_53\n      swap1\n      tag_47\n      jump\t// in\n    tag_53:\n      dup1\n      iszero\n      tag_54\n      jumpi\n      dup1\n      0x1f\n      lt\n      tag_55\n      jumpi\n      0x0100\n      dup1\n      dup4\n      sload\n      div\n      mul\n      dup4\n      mstore\n      swap2\n      0x20\n      add\n      swap2\n      jump(tag_54)\n    tag_55:\n      dup3\n      add\n      swap2\n      swap1\n      0x00\n      mstore\n      keccak256(0x00, 0x20)\n      swap1\n    tag_56:\n      dup2\n      sload\n      dup2\n      mstore\n      swap1\n      0x01\n      add\n      swap1\n      0x20\n      add\n      dup1\n      dup4\n      gt\n      tag_56\n      jumpi\n      dup3\n      swap1\n      sub\n      0x1f\n      and\n      dup3\n      add\n      swap2\n    tag_54:\n      pop\n      pop\n      pop\n      pop\n      pop\n      swap1\n      dup1\n      0x03\n      add\n      0x00\n      swap1\n      sload\n      swap1\n      0x0100\n      exp\n      swap1\n      div\n      0xff\n      and\n      swap1\n      pop\n      dup5\n      jump\t// out\n        /* \"ToDoApp.sol\":1030:1107  function getAmount() public view returns(uint){... */\n    tag_29:\n        /* \"ToDoApp.sol\":1071:1075  uint */\n      0x00\n        /* \"ToDoApp.sol\":1093:1100  counter */\n      sload(0x01)\n        /* \"ToDoApp.sol\":1086:1100  return counter */\n      swap1\n      pop\n        /* \"ToDoApp.sol\":1030:1107  function getAmount() public view returns(uint){... */\n      swap1\n      jump\t// out\n        /* \"ToDoApp.sol\":888:980  function getTodo(uint id) public view returns(ToDo memory) {... */\n    tag_33:\n        /* \"ToDoApp.sol\":934:945  ToDo memory */\n      tag_58\n      tag_59\n      jump\t// in\n    tag_58:\n        /* \"ToDoApp.sol\":964:969  todos */\n      0x02\n        /* \"ToDoApp.sol\":964:973  todos[id] */\n      0x00\n        /* \"ToDoApp.sol\":970:972  id */\n      dup4\n        /* \"ToDoApp.sol\":964:973  todos[id] */\n      dup2\n      mstore\n      0x20\n      add\n      swap1\n      dup2\n      mstore\n      0x20\n      add\n      0x00\n      keccak256\n        /* \"ToDoApp.sol\":957:973  return todos[id] */\n      mload(0x40)\n      dup1\n      0x80\n      add\n      0x40\n      mstore\n      swap1\n      dup2\n      0x00\n      dup3\n      add\n      sload\n      dup2\n      mstore\n      0x20\n      add\n      0x01\n      dup3\n      add\n      dup1\n      sload\n      tag_61\n      swap1\n      tag_47\n      jump\t// in\n    tag_61:\n      dup1\n      0x1f\n      add\n      0x20\n      dup1\n      swap2\n      div\n      mul\n      0x20\n      add\n      mload(0x40)\n      swap1\n      dup2\n      add\n      0x40\n      mstore\n      dup1\n      swap3\n      swap2\n      swap1\n      dup2\n      dup2\n      mstore\n      0x20\n      add\n      dup3\n      dup1\n      sload\n      tag_62\n      swap1\n      tag_47\n      jump\t// in\n    tag_62:\n      dup1\n      iszero\n      tag_63\n      jumpi\n      dup1\n      0x1f\n      lt\n      tag_64\n      jumpi\n      0x0100\n      dup1\n      dup4\n      sload\n      div\n      mul\n      dup4\n      mstore\n      swap2\n      0x20\n      add\n      swap2\n      jump(tag_63)\n    tag_64:\n      dup3\n      add\n      swap2\n      swap1\n      0x00\n      mstore\n      keccak256(0x00, 0x20)\n      swap1\n    tag_65:\n      dup2\n      sload\n      dup2\n      mstore\n      swap1\n      0x01\n      add\n      swap1\n      0x20\n      add\n      dup1\n      dup4\n      gt\n      tag_65\n      jumpi\n      dup3\n      swap1\n      sub\n      0x1f\n      and\n      dup3\n      add\n      swap2\n    tag_63:\n      pop\n      pop\n      pop\n      pop\n      pop\n      dup2\n      mstore\n      0x20\n      add\n      0x02\n      dup3\n      add\n      dup1\n      sload\n      tag_66\n      swap1\n      tag_47\n      jump\t// in\n    tag_66:\n      dup1\n      0x1f\n      add\n      0x20\n      dup1\n      swap2\n      div\n      mul\n      0x20\n      add\n      mload(0x40)\n      swap1\n      dup2\n      add\n      0x40\n      mstore\n      dup1\n      swap3\n      swap2\n      swap1\n      dup2\n      dup2\n      mstore\n      0x20\n      add\n      dup3\n      dup1\n      sload\n      tag_67\n      swap1\n      tag_47\n      jump\t// in\n    tag_67:\n      dup1\n      iszero\n      tag_68\n      jumpi\n      dup1\n      0x1f\n      lt\n      tag_69\n      jumpi\n      0x0100\n      dup1\n      dup4\n      sload\n      div\n      mul\n      dup4\n      mstore\n      swap2\n      0x20\n      add\n      swap2\n      jump(tag_68)\n    tag_69:\n      dup3\n      add\n      swap2\n      swap1\n      0x00\n      mstore\n      keccak256(0x00, 0x20)\n      swap1\n    tag_70:\n      dup2\n      sload\n      dup2\n      mstore\n      swap1\n      0x01\n      add\n      swap1\n      0x20\n      add\n      dup1\n      dup4\n      gt\n      tag_70\n      jumpi\n      dup3\n      swap1\n      sub\n      0x1f\n      and\n      dup3\n      add\n      swap2\n    tag_68:\n      pop\n      pop\n      pop\n      pop\n      pop\n      dup2\n      mstore\n      0x20\n      add\n      0x03\n      dup3\n      add\n      0x00\n      swap1\n      sload\n      swap1\n      0x0100\n      exp\n      swap1\n      div\n      0xff\n      and\n      iszero\n      iszero\n      iszero\n      iszero\n      dup2\n      mstore\n      pop\n      pop\n      swap1\n      pop\n        /* \"ToDoApp.sol\":888:980  function getTodo(uint id) public view returns(ToDo memory) {... */\n      swap2\n      swap1\n      pop\n      jump\t// out\n        /* \"ToDoApp.sol\":1153:1228  function setAsDone(uint id) public {... */\n    tag_38:\n        /* \"ToDoApp.sol\":1217:1221  true */\n      0x01\n        /* \"ToDoApp.sol\":1198:1203  todos */\n      0x02\n        /* \"ToDoApp.sol\":1198:1207  todos[id] */\n      0x00\n        /* \"ToDoApp.sol\":1204:1206  id */\n      dup4\n        /* \"ToDoApp.sol\":1198:1207  todos[id] */\n      dup2\n      mstore\n      0x20\n      add\n      swap1\n      dup2\n      mstore\n      0x20\n      add\n      0x00\n      keccak256\n        /* \"ToDoApp.sol\":1198:1214  todos[id].status */\n      0x03\n      add\n      0x00\n        /* \"ToDoApp.sol\":1198:1221  todos[id].status = true */\n      0x0100\n      exp\n      dup2\n      sload\n      dup2\n      0xff\n      mul\n      not\n      and\n      swap1\n      dup4\n      iszero\n      iszero\n      mul\n      or\n      swap1\n      sstore\n      pop\n        /* \"ToDoApp.sol\":1153:1228  function setAsDone(uint id) public {... */\n      pop\n      jump\t// out\n    tag_41:\n      dup3\n      dup1\n      sload\n      tag_72\n      swap1\n      tag_47\n      jump\t// in\n    tag_72:\n      swap1\n      0x00\n      mstore\n      keccak256(0x00, 0x20)\n      swap1\n      0x1f\n      add\n      0x20\n      swap1\n      div\n      dup2\n      add\n      swap3\n      dup3\n      tag_74\n      jumpi\n      0x00\n      dup6\n      sstore\n      jump(tag_73)\n    tag_74:\n      dup3\n      0x1f\n      lt\n      tag_75\n      jumpi\n      dup1\n      mload\n      not(0xff)\n      and\n      dup4\n      dup1\n      add\n      or\n      dup6\n      sstore\n      jump(tag_73)\n    tag_75:\n      dup3\n      dup1\n      add\n      0x01\n      add\n      dup6\n      sstore\n      dup3\n      iszero\n      tag_73\n      jumpi\n      swap2\n      dup3\n      add\n    tag_76:\n      dup3\n      dup2\n      gt\n      iszero\n      tag_77\n      jumpi\n      dup3\n      mload\n      dup3\n      sstore\n      swap2\n      0x20\n      add\n      swap2\n      swap1\n      0x01\n      add\n      swap1\n      jump(tag_76)\n    tag_77:\n    tag_73:\n      pop\n      swap1\n      pop\n      tag_78\n      swap2\n      swap1\n      tag_79\n      jump\t// in\n    tag_78:\n      pop\n      swap1\n      jump\t// out\n    tag_59:\n      mload(0x40)\n      dup1\n      0x80\n      add\n      0x40\n      mstore\n      dup1\n      0x00\n      dup2\n      mstore\n      0x20\n      add\n      0x60\n      dup2\n      mstore\n      0x20\n      add\n      0x60\n      dup2\n      mstore\n      0x20\n      add\n      iszero(iszero(0x00))\n      dup2\n      mstore\n      pop\n      swap1\n      jump\t// out\n    tag_79:\n    tag_80:\n      dup1\n      dup3\n      gt\n      iszero\n      tag_81\n      jumpi\n      0x00\n      dup2\n      0x00\n      swap1\n      sstore\n      pop\n      0x01\n      add\n      jump(tag_80)\n    tag_81:\n      pop\n      swap1\n      jump\t// out\n        /* \"#utility.yul\":7:419   */\n    tag_83:\n        /* \"#utility.yul\":85:90   */\n      0x00\n        /* \"#utility.yul\":110:176   */\n      tag_85\n        /* \"#utility.yul\":126:175   */\n      tag_86\n        /* \"#utility.yul\":168:174   */\n      dup5\n        /* \"#utility.yul\":126:175   */\n      tag_87\n      jump\t// in\n    tag_86:\n        /* \"#utility.yul\":110:176   */\n      tag_88\n      jump\t// in\n    tag_85:\n        /* \"#utility.yul\":101:176   */\n      swap1\n      pop\n        /* \"#utility.yul\":199:205   */\n      dup3\n        /* \"#utility.yul\":192:197   */\n      dup2\n        /* \"#utility.yul\":185:206   */\n      mstore\n        /* \"#utility.yul\":237:241   */\n      0x20\n        /* \"#utility.yul\":230:235   */\n      dup2\n        /* \"#utility.yul\":226:242   */\n      add\n        /* \"#utility.yul\":275:278   */\n      dup5\n        /* \"#utility.yul\":266:272   */\n      dup5\n        /* \"#utility.yul\":261:264   */\n      dup5\n        /* \"#utility.yul\":257:273   */\n      add\n        /* \"#utility.yul\":254:279   */\n      gt\n        /* \"#utility.yul\":251:363   */\n      iszero\n      tag_89\n      jumpi\n        /* \"#utility.yul\":282:361   */\n      tag_90\n      tag_91\n      jump\t// in\n    tag_90:\n        /* \"#utility.yul\":251:363   */\n    tag_89:\n        /* \"#utility.yul\":372:413   */\n      tag_92\n        /* \"#utility.yul\":406:412   */\n      dup5\n        /* \"#utility.yul\":401:404   */\n      dup3\n        /* \"#utility.yul\":396:399   */\n      dup6\n        /* \"#utility.yul\":372:413   */\n      tag_93\n      jump\t// in\n    tag_92:\n        /* \"#utility.yul\":91:419   */\n      pop\n        /* \"#utility.yul\":7:419   */\n      swap4\n      swap3\n      pop\n      pop\n      pop\n      jump\t// out\n        /* \"#utility.yul\":439:779   */\n    tag_94:\n        /* \"#utility.yul\":495:500   */\n      0x00\n        /* \"#utility.yul\":544:547   */\n      dup3\n        /* \"#utility.yul\":537:541   */\n      0x1f\n        /* \"#utility.yul\":529:535   */\n      dup4\n        /* \"#utility.yul\":525:542   */\n      add\n        /* \"#utility.yul\":521:548   */\n      slt\n        /* \"#utility.yul\":511:633   */\n      tag_96\n      jumpi\n        /* \"#utility.yul\":552:631   */\n      tag_97\n      tag_98\n      jump\t// in\n    tag_97:\n        /* \"#utility.yul\":511:633   */\n    tag_96:\n        /* \"#utility.yul\":669:675   */\n      dup2\n        /* \"#utility.yul\":656:676   */\n      calldataload\n        /* \"#utility.yul\":694:773   */\n      tag_99\n        /* \"#utility.yul\":769:772   */\n      dup5\n        /* \"#utility.yul\":761:767   */\n      dup3\n        /* \"#utility.yul\":754:758   */\n      0x20\n        /* \"#utility.yul\":746:752   */\n      dup7\n        /* \"#utility.yul\":742:759   */\n      add\n        /* \"#utility.yul\":694:773   */\n      tag_83\n      jump\t// in\n    tag_99:\n        /* \"#utility.yul\":685:773   */\n      swap2\n      pop\n        /* \"#utility.yul\":501:779   */\n      pop\n        /* \"#utility.yul\":439:779   */\n      swap3\n      swap2\n      pop\n      pop\n      jump\t// out\n        /* \"#utility.yul\":785:924   */\n    tag_100:\n        /* \"#utility.yul\":831:836   */\n      0x00\n        /* \"#utility.yul\":869:875   */\n      dup2\n        /* \"#utility.yul\":856:876   */\n      calldataload\n        /* \"#utility.yul\":847:876   */\n      swap1\n      pop\n        /* \"#utility.yul\":885:918   */\n      tag_102\n        /* \"#utility.yul\":912:917   */\n      dup2\n        /* \"#utility.yul\":885:918   */\n      tag_103\n      jump\t// in\n    tag_102:\n        /* \"#utility.yul\":785:924   */\n      swap3\n      swap2\n      pop\n      pop\n      jump\t// out\n        /* \"#utility.yul\":930:1764   */\n    tag_13:\n        /* \"#utility.yul\":1018:1024   */\n      0x00\n        /* \"#utility.yul\":1026:1032   */\n      dup1\n        /* \"#utility.yul\":1075:1077   */\n      0x40\n        /* \"#utility.yul\":1063:1072   */\n      dup4\n        /* \"#utility.yul\":1054:1061   */\n      dup6\n        /* \"#utility.yul\":1050:1073   */\n      sub\n        /* \"#utility.yul\":1046:1078   */\n      slt\n        /* \"#utility.yul\":1043:1162   */\n      iszero\n      tag_105\n      jumpi\n        /* \"#utility.yul\":1081:1160   */\n      tag_106\n      tag_107\n      jump\t// in\n    tag_106:\n        /* \"#utility.yul\":1043:1162   */\n    tag_105:\n        /* \"#utility.yul\":1229:1230   */\n      0x00\n        /* \"#utility.yul\":1218:1227   */\n      dup4\n        /* \"#utility.yul\":1214:1231   */\n      add\n        /* \"#utility.yul\":1201:1232   */\n      calldataload\n        /* \"#utility.yul\":1259:1277   */\n      0xffffffffffffffff\n        /* \"#utility.yul\":1251:1257   */\n      dup2\n        /* \"#utility.yul\":1248:1278   */\n      gt\n        /* \"#utility.yul\":1245:1362   */\n      iszero\n      tag_108\n      jumpi\n        /* \"#utility.yul\":1281:1360   */\n      tag_109\n      tag_110\n      jump\t// in\n    tag_109:\n        /* \"#utility.yul\":1245:1362   */\n    tag_108:\n        /* \"#utility.yul\":1386:1449   */\n      tag_111\n        /* \"#utility.yul\":1441:1448   */\n      dup6\n        /* \"#utility.yul\":1432:1438   */\n      dup3\n        /* \"#utility.yul\":1421:1430   */\n      dup7\n        /* \"#utility.yul\":1417:1439   */\n      add\n        /* \"#utility.yul\":1386:1449   */\n      tag_94\n      jump\t// in\n    tag_111:\n        /* \"#utility.yul\":1376:1449   */\n      swap3\n      pop\n        /* \"#utility.yul\":1172:1459   */\n      pop\n        /* \"#utility.yul\":1526:1528   */\n      0x20\n        /* \"#utility.yul\":1515:1524   */\n      dup4\n        /* \"#utility.yul\":1511:1529   */\n      add\n        /* \"#utility.yul\":1498:1530   */\n      calldataload\n        /* \"#utility.yul\":1557:1575   */\n      0xffffffffffffffff\n        /* \"#utility.yul\":1549:1555   */\n      dup2\n        /* \"#utility.yul\":1546:1576   */\n      gt\n        /* \"#utility.yul\":1543:1660   */\n      iszero\n      tag_112\n      jumpi\n        /* \"#utility.yul\":1579:1658   */\n      tag_113\n      tag_110\n      jump\t// in\n    tag_113:\n        /* \"#utility.yul\":1543:1660   */\n    tag_112:\n        /* \"#utility.yul\":1684:1747   */\n      tag_114\n        /* \"#utility.yul\":1739:1746   */\n      dup6\n        /* \"#utility.yul\":1730:1736   */\n      dup3\n        /* \"#utility.yul\":1719:1728   */\n      dup7\n        /* \"#utility.yul\":1715:1737   */\n      add\n        /* \"#utility.yul\":1684:1747   */\n      tag_94\n      jump\t// in\n    tag_114:\n        /* \"#utility.yul\":1674:1747   */\n      swap2\n      pop\n        /* \"#utility.yul\":1469:1757   */\n      pop\n        /* \"#utility.yul\":930:1764   */\n      swap3\n      pop\n      swap3\n      swap1\n      pop\n      jump\t// out\n        /* \"#utility.yul\":1770:2099   */\n    tag_21:\n        /* \"#utility.yul\":1829:1835   */\n      0x00\n        /* \"#utility.yul\":1878:1880   */\n      0x20\n        /* \"#utility.yul\":1866:1875   */\n      dup3\n        /* \"#utility.yul\":1857:1864   */\n      dup5\n        /* \"#utility.yul\":1853:1876   */\n      sub\n        /* \"#utility.yul\":1849:1881   */\n      slt\n        /* \"#utility.yul\":1846:1965   */\n      iszero\n      tag_116\n      jumpi\n        /* \"#utility.yul\":1884:1963   */\n      tag_117\n      tag_107\n      jump\t// in\n    tag_117:\n        /* \"#utility.yul\":1846:1965   */\n    tag_116:\n        /* \"#utility.yul\":2004:2005   */\n      0x00\n        /* \"#utility.yul\":2029:2082   */\n      tag_118\n        /* \"#utility.yul\":2074:2081   */\n      dup5\n        /* \"#utility.yul\":2065:2071   */\n      dup3\n        /* \"#utility.yul\":2054:2063   */\n      dup6\n        /* \"#utility.yul\":2050:2072   */\n      add\n        /* \"#utility.yul\":2029:2082   */\n      tag_100\n      jump\t// in\n    tag_118:\n        /* \"#utility.yul\":2019:2082   */\n      swap2\n      pop\n        /* \"#utility.yul\":1975:2092   */\n      pop\n        /* \"#utility.yul\":1770:2099   */\n      swap3\n      swap2\n      pop\n      pop\n      jump\t// out\n        /* \"#utility.yul\":2105:2204   */\n    tag_119:\n        /* \"#utility.yul\":2176:2197   */\n      tag_121\n        /* \"#utility.yul\":2191:2196   */\n      dup2\n        /* \"#utility.yul\":2176:2197   */\n      tag_122\n      jump\t// in\n    tag_121:\n        /* \"#utility.yul\":2171:2174   */\n      dup3\n        /* \"#utility.yul\":2164:2198   */\n      mstore\n        /* \"#utility.yul\":2105:2204   */\n      pop\n      pop\n      jump\t// out\n        /* \"#utility.yul\":2210:2319   */\n    tag_123:\n        /* \"#utility.yul\":2291:2312   */\n      tag_125\n        /* \"#utility.yul\":2306:2311   */\n      dup2\n        /* \"#utility.yul\":2291:2312   */\n      tag_122\n      jump\t// in\n    tag_125:\n        /* \"#utility.yul\":2286:2289   */\n      dup3\n        /* \"#utility.yul\":2279:2313   */\n      mstore\n        /* \"#utility.yul\":2210:2319   */\n      pop\n      pop\n      jump\t// out\n        /* \"#utility.yul\":2325:2669   */\n    tag_126:\n        /* \"#utility.yul\":2403:2406   */\n      0x00\n        /* \"#utility.yul\":2431:2470   */\n      tag_128\n        /* \"#utility.yul\":2464:2469   */\n      dup3\n        /* \"#utility.yul\":2431:2470   */\n      tag_129\n      jump\t// in\n    tag_128:\n        /* \"#utility.yul\":2486:2547   */\n      tag_130\n        /* \"#utility.yul\":2540:2546   */\n      dup2\n        /* \"#utility.yul\":2535:2538   */\n      dup6\n        /* \"#utility.yul\":2486:2547   */\n      tag_131\n      jump\t// in\n    tag_130:\n        /* \"#utility.yul\":2479:2547   */\n      swap4\n      pop\n        /* \"#utility.yul\":2556:2608   */\n      tag_132\n        /* \"#utility.yul\":2601:2607   */\n      dup2\n        /* \"#utility.yul\":2596:2599   */\n      dup6\n        /* \"#utility.yul\":2589:2593   */\n      0x20\n        /* \"#utility.yul\":2582:2587   */\n      dup7\n        /* \"#utility.yul\":2578:2594   */\n      add\n        /* \"#utility.yul\":2556:2608   */\n      tag_133\n      jump\t// in\n    tag_132:\n        /* \"#utility.yul\":2633:2662   */\n      tag_134\n        /* \"#utility.yul\":2655:2661   */\n      dup2\n        /* \"#utility.yul\":2633:2662   */\n      tag_135\n      jump\t// in\n    tag_134:\n        /* \"#utility.yul\":2628:2631   */\n      dup5\n        /* \"#utility.yul\":2624:2663   */\n      add\n        /* \"#utility.yul\":2617:2663   */\n      swap2\n      pop\n        /* \"#utility.yul\":2407:2669   */\n      pop\n        /* \"#utility.yul\":2325:2669   */\n      swap3\n      swap2\n      pop\n      pop\n      jump\t// out\n        /* \"#utility.yul\":2675:3039   */\n    tag_136:\n        /* \"#utility.yul\":2763:2766   */\n      0x00\n        /* \"#utility.yul\":2791:2830   */\n      tag_138\n        /* \"#utility.yul\":2824:2829   */\n      dup3\n        /* \"#utility.yul\":2791:2830   */\n      tag_129\n      jump\t// in\n    tag_138:\n        /* \"#utility.yul\":2846:2917   */\n      tag_139\n        /* \"#utility.yul\":2910:2916   */\n      dup2\n        /* \"#utility.yul\":2905:2908   */\n      dup6\n        /* \"#utility.yul\":2846:2917   */\n      tag_140\n      jump\t// in\n    tag_139:\n        /* \"#utility.yul\":2839:2917   */\n      swap4\n      pop\n        /* \"#utility.yul\":2926:2978   */\n      tag_141\n        /* \"#utility.yul\":2971:2977   */\n      dup2\n        /* \"#utility.yul\":2966:2969   */\n      dup6\n        /* \"#utility.yul\":2959:2963   */\n      0x20\n        /* \"#utility.yul\":2952:2957   */\n      dup7\n        /* \"#utility.yul\":2948:2964   */\n      add\n        /* \"#utility.yul\":2926:2978   */\n      tag_133\n      jump\t// in\n    tag_141:\n        /* \"#utility.yul\":3003:3032   */\n      tag_142\n        /* \"#utility.yul\":3025:3031   */\n      dup2\n        /* \"#utility.yul\":3003:3032   */\n      tag_135\n      jump\t// in\n    tag_142:\n        /* \"#utility.yul\":2998:3001   */\n      dup5\n        /* \"#utility.yul\":2994:3033   */\n      add\n        /* \"#utility.yul\":2987:3033   */\n      swap2\n      pop\n        /* \"#utility.yul\":2767:3039   */\n      pop\n        /* \"#utility.yul\":2675:3039   */\n      swap3\n      swap2\n      pop\n      pop\n      jump\t// out\n        /* \"#utility.yul\":3095:4107   */\n    tag_143:\n        /* \"#utility.yul\":3204:3207   */\n      0x00\n        /* \"#utility.yul\":3240:3244   */\n      0x80\n        /* \"#utility.yul\":3235:3238   */\n      dup4\n        /* \"#utility.yul\":3231:3245   */\n      add\n        /* \"#utility.yul\":3325:3329   */\n      0x00\n        /* \"#utility.yul\":3318:3323   */\n      dup4\n        /* \"#utility.yul\":3314:3330   */\n      add\n        /* \"#utility.yul\":3308:3331   */\n      mload\n        /* \"#utility.yul\":3344:3407   */\n      tag_145\n        /* \"#utility.yul\":3401:3405   */\n      0x00\n        /* \"#utility.yul\":3396:3399   */\n      dup7\n        /* \"#utility.yul\":3392:3406   */\n      add\n        /* \"#utility.yul\":3378:3390   */\n      dup3\n        /* \"#utility.yul\":3344:3407   */\n      tag_146\n      jump\t// in\n    tag_145:\n        /* \"#utility.yul\":3255:3417   */\n      pop\n        /* \"#utility.yul\":3499:3503   */\n      0x20\n        /* \"#utility.yul\":3492:3497   */\n      dup4\n        /* \"#utility.yul\":3488:3504   */\n      add\n        /* \"#utility.yul\":3482:3505   */\n      mload\n        /* \"#utility.yul\":3552:3555   */\n      dup5\n        /* \"#utility.yul\":3546:3550   */\n      dup3\n        /* \"#utility.yul\":3542:3556   */\n      sub\n        /* \"#utility.yul\":3535:3539   */\n      0x20\n        /* \"#utility.yul\":3530:3533   */\n      dup7\n        /* \"#utility.yul\":3526:3540   */\n      add\n        /* \"#utility.yul\":3519:3557   */\n      mstore\n        /* \"#utility.yul\":3578:3651   */\n      tag_147\n        /* \"#utility.yul\":3646:3650   */\n      dup3\n        /* \"#utility.yul\":3632:3644   */\n      dup3\n        /* \"#utility.yul\":3578:3651   */\n      tag_126\n      jump\t// in\n    tag_147:\n        /* \"#utility.yul\":3570:3651   */\n      swap2\n      pop\n        /* \"#utility.yul\":3427:3662   */\n      pop\n        /* \"#utility.yul\":3747:3751   */\n      0x40\n        /* \"#utility.yul\":3740:3745   */\n      dup4\n        /* \"#utility.yul\":3736:3752   */\n      add\n        /* \"#utility.yul\":3730:3753   */\n      mload\n        /* \"#utility.yul\":3800:3803   */\n      dup5\n        /* \"#utility.yul\":3794:3798   */\n      dup3\n        /* \"#utility.yul\":3790:3804   */\n      sub\n        /* \"#utility.yul\":3783:3787   */\n      0x40\n        /* \"#utility.yul\":3778:3781   */\n      dup7\n        /* \"#utility.yul\":3774:3788   */\n      add\n        /* \"#utility.yul\":3767:3805   */\n      mstore\n        /* \"#utility.yul\":3826:3899   */\n      tag_148\n        /* \"#utility.yul\":3894:3898   */\n      dup3\n        /* \"#utility.yul\":3880:3892   */\n      dup3\n        /* \"#utility.yul\":3826:3899   */\n      tag_126\n      jump\t// in\n    tag_148:\n        /* \"#utility.yul\":3818:3899   */\n      swap2\n      pop\n        /* \"#utility.yul\":3672:3910   */\n      pop\n        /* \"#utility.yul\":3994:3998   */\n      0x60\n        /* \"#utility.yul\":3987:3992   */\n      dup4\n        /* \"#utility.yul\":3983:3999   */\n      add\n        /* \"#utility.yul\":3977:4000   */\n      mload\n        /* \"#utility.yul\":4013:4070   */\n      tag_149\n        /* \"#utility.yul\":4064:4068   */\n      0x60\n        /* \"#utility.yul\":4059:4062   */\n      dup7\n        /* \"#utility.yul\":4055:4069   */\n      add\n        /* \"#utility.yul\":4041:4053   */\n      dup3\n        /* \"#utility.yul\":4013:4070   */\n      tag_119\n      jump\t// in\n    tag_149:\n        /* \"#utility.yul\":3920:4080   */\n      pop\n        /* \"#utility.yul\":4097:4101   */\n      dup1\n        /* \"#utility.yul\":4090:4101   */\n      swap2\n      pop\n        /* \"#utility.yul\":3209:4107   */\n      pop\n        /* \"#utility.yul\":3095:4107   */\n      swap3\n      swap2\n      pop\n      pop\n      jump\t// out\n        /* \"#utility.yul\":4113:4221   */\n    tag_146:\n        /* \"#utility.yul\":4190:4214   */\n      tag_151\n        /* \"#utility.yul\":4208:4213   */\n      dup2\n        /* \"#utility.yul\":4190:4214   */\n      tag_152\n      jump\t// in\n    tag_151:\n        /* \"#utility.yul\":4185:4188   */\n      dup3\n        /* \"#utility.yul\":4178:4215   */\n      mstore\n        /* \"#utility.yul\":4113:4221   */\n      pop\n      pop\n      jump\t// out\n        /* \"#utility.yul\":4227:4345   */\n    tag_153:\n        /* \"#utility.yul\":4314:4338   */\n      tag_155\n        /* \"#utility.yul\":4332:4337   */\n      dup2\n        /* \"#utility.yul\":4314:4338   */\n      tag_152\n      jump\t// in\n    tag_155:\n        /* \"#utility.yul\":4309:4312   */\n      dup3\n        /* \"#utility.yul\":4302:4339   */\n      mstore\n        /* \"#utility.yul\":4227:4345   */\n      pop\n      pop\n      jump\t// out\n        /* \"#utility.yul\":4351:4704   */\n    tag_35:\n        /* \"#utility.yul\":4484:4488   */\n      0x00\n        /* \"#utility.yul\":4522:4524   */\n      0x20\n        /* \"#utility.yul\":4511:4520   */\n      dup3\n        /* \"#utility.yul\":4507:4525   */\n      add\n        /* \"#utility.yul\":4499:4525   */\n      swap1\n      pop\n        /* \"#utility.yul\":4571:4580   */\n      dup2\n        /* \"#utility.yul\":4565:4569   */\n      dup2\n        /* \"#utility.yul\":4561:4581   */\n      sub\n        /* \"#utility.yul\":4557:4558   */\n      0x00\n        /* \"#utility.yul\":4546:4555   */\n      dup4\n        /* \"#utility.yul\":4542:4559   */\n      add\n        /* \"#utility.yul\":4535:4582   */\n      mstore\n        /* \"#utility.yul\":4599:4697   */\n      tag_157\n        /* \"#utility.yul\":4692:4696   */\n      dup2\n        /* \"#utility.yul\":4683:4689   */\n      dup5\n        /* \"#utility.yul\":4599:4697   */\n      tag_143\n      jump\t// in\n    tag_157:\n        /* \"#utility.yul\":4591:4697   */\n      swap1\n      pop\n        /* \"#utility.yul\":4351:4704   */\n      swap3\n      swap2\n      pop\n      pop\n      jump\t// out\n        /* \"#utility.yul\":4710:4932   */\n    tag_18:\n        /* \"#utility.yul\":4803:4807   */\n      0x00\n        /* \"#utility.yul\":4841:4843   */\n      0x20\n        /* \"#utility.yul\":4830:4839   */\n      dup3\n        /* \"#utility.yul\":4826:4844   */\n      add\n        /* \"#utility.yul\":4818:4844   */\n      swap1\n      pop\n        /* \"#utility.yul\":4854:4925   */\n      tag_159\n        /* \"#utility.yul\":4922:4923   */\n      0x00\n        /* \"#utility.yul\":4911:4920   */\n      dup4\n        /* \"#utility.yul\":4907:4924   */\n      add\n        /* \"#utility.yul\":4898:4904   */\n      dup5\n        /* \"#utility.yul\":4854:4925   */\n      tag_153\n      jump\t// in\n    tag_159:\n        /* \"#utility.yul\":4710:4932   */\n      swap3\n      swap2\n      pop\n      pop\n      jump\t// out\n        /* \"#utility.yul\":4938:5661   */\n    tag_27:\n        /* \"#utility.yul\":5149:5153   */\n      0x00\n        /* \"#utility.yul\":5187:5190   */\n      0x80\n        /* \"#utility.yul\":5176:5185   */\n      dup3\n        /* \"#utility.yul\":5172:5191   */\n      add\n        /* \"#utility.yul\":5164:5191   */\n      swap1\n      pop\n        /* \"#utility.yul\":5201:5272   */\n      tag_161\n        /* \"#utility.yul\":5269:5270   */\n      0x00\n        /* \"#utility.yul\":5258:5267   */\n      dup4\n        /* \"#utility.yul\":5254:5271   */\n      add\n        /* \"#utility.yul\":5245:5251   */\n      dup8\n        /* \"#utility.yul\":5201:5272   */\n      tag_153\n      jump\t// in\n    tag_161:\n        /* \"#utility.yul\":5319:5328   */\n      dup2\n        /* \"#utility.yul\":5313:5317   */\n      dup2\n        /* \"#utility.yul\":5309:5329   */\n      sub\n        /* \"#utility.yul\":5304:5306   */\n      0x20\n        /* \"#utility.yul\":5293:5302   */\n      dup4\n        /* \"#utility.yul\":5289:5307   */\n      add\n        /* \"#utility.yul\":5282:5330   */\n      mstore\n        /* \"#utility.yul\":5347:5425   */\n      tag_162\n        /* \"#utility.yul\":5420:5424   */\n      dup2\n        /* \"#utility.yul\":5411:5417   */\n      dup7\n        /* \"#utility.yul\":5347:5425   */\n      tag_136\n      jump\t// in\n    tag_162:\n        /* \"#utility.yul\":5339:5425   */\n      swap1\n      pop\n        /* \"#utility.yul\":5472:5481   */\n      dup2\n        /* \"#utility.yul\":5466:5470   */\n      dup2\n        /* \"#utility.yul\":5462:5482   */\n      sub\n        /* \"#utility.yul\":5457:5459   */\n      0x40\n        /* \"#utility.yul\":5446:5455   */\n      dup4\n        /* \"#utility.yul\":5442:5460   */\n      add\n        /* \"#utility.yul\":5435:5483   */\n      mstore\n        /* \"#utility.yul\":5500:5578   */\n      tag_163\n        /* \"#utility.yul\":5573:5577   */\n      dup2\n        /* \"#utility.yul\":5564:5570   */\n      dup6\n        /* \"#utility.yul\":5500:5578   */\n      tag_136\n      jump\t// in\n    tag_163:\n        /* \"#utility.yul\":5492:5578   */\n      swap1\n      pop\n        /* \"#utility.yul\":5588:5654   */\n      tag_164\n        /* \"#utility.yul\":5650:5652   */\n      0x60\n        /* \"#utility.yul\":5639:5648   */\n      dup4\n        /* \"#utility.yul\":5635:5653   */\n      add\n        /* \"#utility.yul\":5626:5632   */\n      dup5\n        /* \"#utility.yul\":5588:5654   */\n      tag_123\n      jump\t// in\n    tag_164:\n        /* \"#utility.yul\":4938:5661   */\n      swap6\n      swap5\n      pop\n      pop\n      pop\n      pop\n      pop\n      jump\t// out\n        /* \"#utility.yul\":5667:5796   */\n    tag_88:\n        /* \"#utility.yul\":5701:5707   */\n      0x00\n        /* \"#utility.yul\":5728:5748   */\n      tag_166\n      tag_167\n      jump\t// in\n    tag_166:\n        /* \"#utility.yul\":5718:5748   */\n      swap1\n      pop\n        /* \"#utility.yul\":5757:5790   */\n      tag_168\n        /* \"#utility.yul\":5785:5789   */\n      dup3\n        /* \"#utility.yul\":5777:5783   */\n      dup3\n        /* \"#utility.yul\":5757:5790   */\n      tag_169\n      jump\t// in\n    tag_168:\n        /* \"#utility.yul\":5667:5796   */\n      swap2\n      swap1\n      pop\n      jump\t// out\n        /* \"#utility.yul\":5802:5877   */\n    tag_167:\n        /* \"#utility.yul\":5835:5841   */\n      0x00\n        /* \"#utility.yul\":5868:5870   */\n      0x40\n        /* \"#utility.yul\":5862:5871   */\n      mload\n        /* \"#utility.yul\":5852:5871   */\n      swap1\n      pop\n        /* \"#utility.yul\":5802:5877   */\n      swap1\n      jump\t// out\n        /* \"#utility.yul\":5883:6191   */\n    tag_87:\n        /* \"#utility.yul\":5945:5949   */\n      0x00\n        /* \"#utility.yul\":6035:6053   */\n      0xffffffffffffffff\n        /* \"#utility.yul\":6027:6033   */\n      dup3\n        /* \"#utility.yul\":6024:6054   */\n      gt\n        /* \"#utility.yul\":6021:6077   */\n      iszero\n      tag_172\n      jumpi\n        /* \"#utility.yul\":6057:6075   */\n      tag_173\n      tag_174\n      jump\t// in\n    tag_173:\n        /* \"#utility.yul\":6021:6077   */\n    tag_172:\n        /* \"#utility.yul\":6095:6124   */\n      tag_175\n        /* \"#utility.yul\":6117:6123   */\n      dup3\n        /* \"#utility.yul\":6095:6124   */\n      tag_135\n      jump\t// in\n    tag_175:\n        /* \"#utility.yul\":6087:6124   */\n      swap1\n      pop\n        /* \"#utility.yul\":6179:6183   */\n      0x20\n        /* \"#utility.yul\":6173:6177   */\n      dup2\n        /* \"#utility.yul\":6169:6184   */\n      add\n        /* \"#utility.yul\":6161:6184   */\n      swap1\n      pop\n        /* \"#utility.yul\":5883:6191   */\n      swap2\n      swap1\n      pop\n      jump\t// out\n        /* \"#utility.yul\":6197:6296   */\n    tag_129:\n        /* \"#utility.yul\":6249:6255   */\n      0x00\n        /* \"#utility.yul\":6283:6288   */\n      dup2\n        /* \"#utility.yul\":6277:6289   */\n      mload\n        /* \"#utility.yul\":6267:6289   */\n      swap1\n      pop\n        /* \"#utility.yul\":6197:6296   */\n      swap2\n      swap1\n      pop\n      jump\t// out\n        /* \"#utility.yul\":6302:6461   */\n    tag_131:\n        /* \"#utility.yul\":6376:6387   */\n      0x00\n        /* \"#utility.yul\":6410:6416   */\n      dup3\n        /* \"#utility.yul\":6405:6408   */\n      dup3\n        /* \"#utility.yul\":6398:6417   */\n      mstore\n        /* \"#utility.yul\":6450:6454   */\n      0x20\n        /* \"#utility.yul\":6445:6448   */\n      dup3\n        /* \"#utility.yul\":6441:6455   */\n      add\n        /* \"#utility.yul\":6426:6455   */\n      swap1\n      pop\n        /* \"#utility.yul\":6302:6461   */\n      swap3\n      swap2\n      pop\n      pop\n      jump\t// out\n        /* \"#utility.yul\":6467:6636   */\n    tag_140:\n        /* \"#utility.yul\":6551:6562   */\n      0x00\n        /* \"#utility.yul\":6585:6591   */\n      dup3\n        /* \"#utility.yul\":6580:6583   */\n      dup3\n        /* \"#utility.yul\":6573:6592   */\n      mstore\n        /* \"#utility.yul\":6625:6629   */\n      0x20\n        /* \"#utility.yul\":6620:6623   */\n      dup3\n        /* \"#utility.yul\":6616:6630   */\n      add\n        /* \"#utility.yul\":6601:6630   */\n      swap1\n      pop\n        /* \"#utility.yul\":6467:6636   */\n      swap3\n      swap2\n      pop\n      pop\n      jump\t// out\n        /* \"#utility.yul\":6642:6732   */\n    tag_122:\n        /* \"#utility.yul\":6676:6683   */\n      0x00\n        /* \"#utility.yul\":6719:6724   */\n      dup2\n        /* \"#utility.yul\":6712:6725   */\n      iszero\n        /* \"#utility.yul\":6705:6726   */\n      iszero\n        /* \"#utility.yul\":6694:6726   */\n      swap1\n      pop\n        /* \"#utility.yul\":6642:6732   */\n      swap2\n      swap1\n      pop\n      jump\t// out\n        /* \"#utility.yul\":6738:6815   */\n    tag_152:\n        /* \"#utility.yul\":6775:6782   */\n      0x00\n        /* \"#utility.yul\":6804:6809   */\n      dup2\n        /* \"#utility.yul\":6793:6809   */\n      swap1\n      pop\n        /* \"#utility.yul\":6738:6815   */\n      swap2\n      swap1\n      pop\n      jump\t// out\n        /* \"#utility.yul\":6821:6975   */\n    tag_93:\n        /* \"#utility.yul\":6905:6911   */\n      dup3\n        /* \"#utility.yul\":6900:6903   */\n      dup2\n        /* \"#utility.yul\":6895:6898   */\n      dup4\n        /* \"#utility.yul\":6882:6912   */\n      calldatacopy\n        /* \"#utility.yul\":6967:6968   */\n      0x00\n        /* \"#utility.yul\":6958:6964   */\n      dup4\n        /* \"#utility.yul\":6953:6956   */\n      dup4\n        /* \"#utility.yul\":6949:6965   */\n      add\n        /* \"#utility.yul\":6942:6969   */\n      mstore\n        /* \"#utility.yul\":6821:6975   */\n      pop\n      pop\n      pop\n      jump\t// out\n        /* \"#utility.yul\":6981:7288   */\n    tag_133:\n        /* \"#utility.yul\":7049:7050   */\n      0x00\n        /* \"#utility.yul\":7059:7172   */\n    tag_183:\n        /* \"#utility.yul\":7073:7079   */\n      dup4\n        /* \"#utility.yul\":7070:7071   */\n      dup2\n        /* \"#utility.yul\":7067:7080   */\n      lt\n        /* \"#utility.yul\":7059:7172   */\n      iszero\n      tag_185\n      jumpi\n        /* \"#utility.yul\":7158:7159   */\n      dup1\n        /* \"#utility.yul\":7153:7156   */\n      dup3\n        /* \"#utility.yul\":7149:7160   */\n      add\n        /* \"#utility.yul\":7143:7161   */\n      mload\n        /* \"#utility.yul\":7139:7140   */\n      dup2\n        /* \"#utility.yul\":7134:7137   */\n      dup5\n        /* \"#utility.yul\":7130:7141   */\n      add\n        /* \"#utility.yul\":7123:7162   */\n      mstore\n        /* \"#utility.yul\":7095:7097   */\n      0x20\n        /* \"#utility.yul\":7092:7093   */\n      dup2\n        /* \"#utility.yul\":7088:7098   */\n      add\n        /* \"#utility.yul\":7083:7098   */\n      swap1\n      pop\n        /* \"#utility.yul\":7059:7172   */\n      jump(tag_183)\n    tag_185:\n        /* \"#utility.yul\":7190:7196   */\n      dup4\n        /* \"#utility.yul\":7187:7188   */\n      dup2\n        /* \"#utility.yul\":7184:7197   */\n      gt\n        /* \"#utility.yul\":7181:7282   */\n      iszero\n      tag_186\n      jumpi\n        /* \"#utility.yul\":7270:7271   */\n      0x00\n        /* \"#utility.yul\":7261:7267   */\n      dup5\n        /* \"#utility.yul\":7256:7259   */\n      dup5\n        /* \"#utility.yul\":7252:7268   */\n      add\n        /* \"#utility.yul\":7245:7272   */\n      mstore\n        /* \"#utility.yul\":7181:7282   */\n    tag_186:\n        /* \"#utility.yul\":7030:7288   */\n      pop\n        /* \"#utility.yul\":6981:7288   */\n      pop\n      pop\n      pop\n      jump\t// out\n        /* \"#utility.yul\":7294:7614   */\n    tag_47:\n        /* \"#utility.yul\":7338:7344   */\n      0x00\n        /* \"#utility.yul\":7375:7376   */\n      0x02\n        /* \"#utility.yul\":7369:7373   */\n      dup3\n        /* \"#utility.yul\":7365:7377   */\n      div\n        /* \"#utility.yul\":7355:7377   */\n      swap1\n      pop\n        /* \"#utility.yul\":7422:7423   */\n      0x01\n        /* \"#utility.yul\":7416:7420   */\n      dup3\n        /* \"#utility.yul\":7412:7424   */\n      and\n        /* \"#utility.yul\":7443:7461   */\n      dup1\n        /* \"#utility.yul\":7433:7514   */\n      tag_188\n      jumpi\n        /* \"#utility.yul\":7499:7503   */\n      0x7f\n        /* \"#utility.yul\":7491:7497   */\n      dup3\n        /* \"#utility.yul\":7487:7504   */\n      and\n        /* \"#utility.yul\":7477:7504   */\n      swap2\n      pop\n        /* \"#utility.yul\":7433:7514   */\n    tag_188:\n        /* \"#utility.yul\":7561:7563   */\n      0x20\n        /* \"#utility.yul\":7553:7559   */\n      dup3\n        /* \"#utility.yul\":7550:7564   */\n      lt\n        /* \"#utility.yul\":7530:7548   */\n      dup2\n        /* \"#utility.yul\":7527:7565   */\n      eq\n        /* \"#utility.yul\":7524:7608   */\n      iszero\n      tag_189\n      jumpi\n        /* \"#utility.yul\":7580:7598   */\n      tag_190\n      tag_191\n      jump\t// in\n    tag_190:\n        /* \"#utility.yul\":7524:7608   */\n    tag_189:\n        /* \"#utility.yul\":7345:7614   */\n      pop\n        /* \"#utility.yul\":7294:7614   */\n      swap2\n      swap1\n      pop\n      jump\t// out\n        /* \"#utility.yul\":7620:7901   */\n    tag_169:\n        /* \"#utility.yul\":7703:7730   */\n      tag_193\n        /* \"#utility.yul\":7725:7729   */\n      dup3\n        /* \"#utility.yul\":7703:7730   */\n      tag_135\n      jump\t// in\n    tag_193:\n        /* \"#utility.yul\":7695:7701   */\n      dup2\n        /* \"#utility.yul\":7691:7731   */\n      add\n        /* \"#utility.yul\":7833:7839   */\n      dup2\n        /* \"#utility.yul\":7821:7831   */\n      dup2\n        /* \"#utility.yul\":7818:7840   */\n      lt\n        /* \"#utility.yul\":7797:7815   */\n      0xffffffffffffffff\n        /* \"#utility.yul\":7785:7795   */\n      dup3\n        /* \"#utility.yul\":7782:7816   */\n      gt\n        /* \"#utility.yul\":7779:7841   */\n      or\n        /* \"#utility.yul\":7776:7864   */\n      iszero\n      tag_194\n      jumpi\n        /* \"#utility.yul\":7844:7862   */\n      tag_195\n      tag_174\n      jump\t// in\n    tag_195:\n        /* \"#utility.yul\":7776:7864   */\n    tag_194:\n        /* \"#utility.yul\":7884:7894   */\n      dup1\n        /* \"#utility.yul\":7880:7882   */\n      0x40\n        /* \"#utility.yul\":7873:7895   */\n      mstore\n        /* \"#utility.yul\":7663:7901   */\n      pop\n        /* \"#utility.yul\":7620:7901   */\n      pop\n      pop\n      jump\t// out\n        /* \"#utility.yul\":7907:8140   */\n    tag_44:\n        /* \"#utility.yul\":7946:7949   */\n      0x00\n        /* \"#utility.yul\":7969:7993   */\n      tag_197\n        /* \"#utility.yul\":7987:7992   */\n      dup3\n        /* \"#utility.yul\":7969:7993   */\n      tag_152\n      jump\t// in\n    tag_197:\n        /* \"#utility.yul\":7960:7993   */\n      swap2\n      pop\n        /* \"#utility.yul\":8015:8081   */\n      0xffffffffffffffffffffffffffffffffffffffffffffffffffffffffffffffff\n        /* \"#utility.yul\":8008:8013   */\n      dup3\n        /* \"#utility.yul\":8005:8082   */\n      eq\n        /* \"#utility.yul\":8002:8105   */\n      iszero\n      tag_198\n      jumpi\n        /* \"#utility.yul\":8085:8103   */\n      tag_199\n      tag_200\n      jump\t// in\n    tag_199:\n        /* \"#utility.yul\":8002:8105   */\n    tag_198:\n        /* \"#utility.yul\":8132:8133   */\n      0x01\n        /* \"#utility.yul\":8125:8130   */\n      dup3\n        /* \"#utility.yul\":8121:8134   */\n      add\n        /* \"#utility.yul\":8114:8134   */\n      swap1\n      pop\n        /* \"#utility.yul\":7907:8140   */\n      swap2\n      swap1\n      pop\n      jump\t// out\n        /* \"#utility.yul\":8146:8326   */\n    tag_200:\n        /* \"#utility.yul\":8194:8271   */\n      0x4e487b7100000000000000000000000000000000000000000000000000000000\n        /* \"#utility.yul\":8191:8192   */\n      0x00\n        /* \"#utility.yul\":8184:8272   */\n      mstore\n        /* \"#utility.yul\":8291:8295   */\n      0x11\n        /* \"#utility.yul\":8288:8289   */\n      0x04\n        /* \"#utility.yul\":8281:8296   */\n      mstore\n        /* \"#utility.yul\":8315:8319   */\n      0x24\n        /* \"#utility.yul\":8312:8313   */\n      0x00\n        /* \"#utility.yul\":8305:8320   */\n      revert\n        /* \"#utility.yul\":8332:8512   */\n    tag_191:\n        /* \"#utility.yul\":8380:8457   */\n      0x4e487b7100000000000000000000000000000000000000000000000000000000\n        /* \"#utility.yul\":8377:8378   */\n      0x00\n        /* \"#utility.yul\":8370:8458   */\n      mstore\n        /* \"#utility.yul\":8477:8481   */\n      0x22\n        /* \"#utility.yul\":8474:8475   */\n      0x04\n        /* \"#utility.yul\":8467:8482   */\n      mstore\n        /* \"#utility.yul\":8501:8505   */\n      0x24\n        /* \"#utility.yul\":8498:8499   */\n      0x00\n        /* \"#utility.yul\":8491:8506   */\n      revert\n        /* \"#utility.yul\":8518:8698   */\n    tag_174:\n        /* \"#utility.yul\":8566:8643   */\n      0x4e487b7100000000000000000000000000000000000000000000000000000000\n        /* \"#utility.yul\":8563:8564   */\n      0x00\n        /* \"#utility.yul\":8556:8644   */\n      mstore\n        /* \"#utility.yul\":8663:8667   */\n      0x41\n        /* \"#utility.yul\":8660:8661   */\n      0x04\n        /* \"#utility.yul\":8653:8668   */\n      mstore\n        /* \"#utility.yul\":8687:8691   */\n      0x24\n        /* \"#utility.yul\":8684:8685   */\n      0x00\n        /* \"#utility.yul\":8677:8692   */\n      revert\n        /* \"#utility.yul\":8704:8821   */\n    tag_98:\n        /* \"#utility.yul\":8813:8814   */\n      0x00\n        /* \"#utility.yul\":8810:8811   */\n      dup1\n        /* \"#utility.yul\":8803:8815   */\n      revert\n        /* \"#utility.yul\":8827:8944   */\n    tag_91:\n        /* \"#utility.yul\":8936:8937   */\n      0x00\n        /* \"#utility.yul\":8933:8934   */\n      dup1\n        /* \"#utility.yul\":8926:8938   */\n      revert\n        /* \"#utility.yul\":8950:9067   */\n    tag_110:\n        /* \"#utility.yul\":9059:9060   */\n      0x00\n        /* \"#utility.yul\":9056:9057   */\n      dup1\n        /* \"#utility.yul\":9049:9061   */\n      revert\n        /* \"#utility.yul\":9073:9190   */\n    tag_107:\n        /* \"#utility.yul\":9182:9183   */\n      0x00\n        /* \"#utility.yul\":9179:9180   */\n      dup1\n        /* \"#utility.yul\":9172:9184   */\n      revert\n        /* \"#utility.yul\":9196:9298   */\n    tag_135:\n        /* \"#utility.yul\":9237:9243   */\n      0x00\n        /* \"#utility.yul\":9288:9290   */\n      0x1f\n        /* \"#utility.yul\":9284:9291   */\n      not\n        /* \"#utility.yul\":9279:9281   */\n      0x1f\n        /* \"#utility.yul\":9272:9277   */\n      dup4\n        /* \"#utility.yul\":9268:9282   */\n      add\n        /* \"#utility.yul\":9264:9292   */\n      and\n        /* \"#utility.yul\":9254:9292   */\n      swap1\n      pop\n        /* \"#utility.yul\":9196:9298   */\n      swap2\n      swap1\n      pop\n      jump\t// out\n        /* \"#utility.yul\":9304:9426   */\n    tag_103:\n        /* \"#utility.yul\":9377:9401   */\n      tag_210\n        /* \"#utility.yul\":9395:9400   */\n      dup2\n        /* \"#utility.yul\":9377:9401   */\n      tag_152\n      jump\t// in\n    tag_210:\n        /* \"#utility.yul\":9370:9375   */\n      dup2\n        /* \"#utility.yul\":9367:9402   */\n      eq\n        /* \"#utility.yul\":9357:9420   */\n      tag_211\n      jumpi\n        /* \"#utility.yul\":9416:9417   */\n      0x00\n        /* \"#utility.yul\":9413:9414   */\n      dup1\n        /* \"#utility.yul\":9406:9418   */\n      revert\n        /* \"#utility.yul\":9357:9420   */\n    tag_211:\n        /* \"#utility.yul\":9304:9426   */\n      pop\n      jump\t// out\n\n    auxdata: 0xa2646970667358221220b2c8252d05228769b8a6a3e7c14a949e856899b53f62fe3055ae519f2dd788ec64736f6c63430008070033\n}\n",
				"bytecode": {
					"linkReferences": {},
					"object": "608060405234801561001057600080fd5b50336000806101000a81548173ffffffffffffffffffffffffffffffffffffffff021916908373ffffffffffffffffffffffffffffffffffffffff160217905550610b8f806100606000396000f3fe608060405234801561001057600080fd5b506004361061007d5760003560e01c8063bc8bc2b41161005b578063bc8bc2b4146100d8578063d321fe291461010b578063dd68afb614610129578063fc5049f1146101595761007d565b80631b7fb2601461008257806361bc221a1461009e57806362969ff7146100bc575b600080fd5b61009c600480360381019061009791906106bc565b610175565b005b6100a6610233565b6040516100b3919061089b565b60405180910390f35b6100d660048036038101906100d19190610734565b610239565b005b6100f260048036038101906100ed9190610734565b61026b565b60405161010294939291906108b6565b60405180910390f35b6101136103b8565b604051610120919061089b565b60405180910390f35b610143600480360381019061013e9190610734565b6103c2565b6040516101509190610879565b60405180910390f35b610173600480360381019061016e9190610734565b610538565b005b60405180608001604052806001548152602001838152602001828152602001600015158152506002600060015481526020019081526020016000206000820151816000015560208201518160010190805190602001906101d692919061056a565b5060408201518160020190805190602001906101f392919061056a565b5060608201518160030160006101000a81548160ff0219169083151502179055509050506001600081548092919061022a90610a47565b91905055505050565b60015481565b60006002600083815260200190815260200160002060030160006101000a81548160ff02191690831515021790555050565b6002602052806000526040600020600091509050806000015490806001018054610294906109e4565b80601f01602080910402602001604051908101604052809291908181526020018280546102c0906109e4565b801561030d5780601f106102e25761010080835404028352916020019161030d565b820191906000526020600020905b8154815290600101906020018083116102f057829003601f168201915b505050505090806002018054610322906109e4565b80601f016020809104026020016040519081016040528092919081815260200182805461034e906109e4565b801561039b5780601f106103705761010080835404028352916020019161039b565b820191906000526020600020905b81548152906001019060200180831161037e57829003601f168201915b5050505050908060030160009054906101000a900460ff16905084565b6000600154905090565b6103ca6105f0565b6002600083815260200190815260200160002060405180608001604052908160008201548152602001600182018054610402906109e4565b80601f016020809104026020016040519081016040528092919081815260200182805461042e906109e4565b801561047b5780601f106104505761010080835404028352916020019161047b565b820191906000526020600020905b81548152906001019060200180831161045e57829003601f168201915b50505050508152602001600282018054610494906109e4565b80601f01602080910402602001604051908101604052809291908181526020018280546104c0906109e4565b801561050d5780601f106104e25761010080835404028352916020019161050d565b820191906000526020600020905b8154815290600101906020018083116104f057829003601f168201915b505050505081526020016003820160009054906101000a900460ff1615151515815250509050919050565b60016002600083815260200190815260200160002060030160006101000a81548160ff02191690831515021790555050565b828054610576906109e4565b90600052602060002090601f01602090048101928261059857600085556105df565b82601f106105b157805160ff19168380011785556105df565b828001600101855582156105df579182015b828111156105de5782518255916020019190600101906105c3565b5b5090506105ec919061061a565b5090565b60405180608001604052806000815260200160608152602001606081526020016000151581525090565b5b8082111561063357600081600090555060010161061b565b5090565b600061064a6106458461092e565b610909565b90508281526020810184848401111561066657610665610b22565b5b6106718482856109a2565b509392505050565b600082601f83011261068e5761068d610b1d565b5b813561069e848260208601610637565b91505092915050565b6000813590506106b681610b42565b92915050565b600080604083850312156106d3576106d2610b2c565b5b600083013567ffffffffffffffff8111156106f1576106f0610b27565b5b6106fd85828601610679565b925050602083013567ffffffffffffffff81111561071e5761071d610b27565b5b61072a85828601610679565b9150509250929050565b60006020828403121561074a57610749610b2c565b5b6000610758848285016106a7565b91505092915050565b61076a8161098c565b82525050565b6107798161098c565b82525050565b600061078a8261095f565b610794818561096a565b93506107a48185602086016109b1565b6107ad81610b31565b840191505092915050565b60006107c38261095f565b6107cd818561097b565b93506107dd8185602086016109b1565b6107e681610b31565b840191505092915050565b6000608083016000830151610809600086018261085b565b5060208301518482036020860152610821828261077f565b9150506040830151848203604086015261083b828261077f565b91505060608301516108506060860182610761565b508091505092915050565b61086481610998565b82525050565b61087381610998565b82525050565b6000602082019050818103600083015261089381846107f1565b905092915050565b60006020820190506108b0600083018461086a565b92915050565b60006080820190506108cb600083018761086a565b81810360208301526108dd81866107b8565b905081810360408301526108f181856107b8565b90506109006060830184610770565b95945050505050565b6000610913610924565b905061091f8282610a16565b919050565b6000604051905090565b600067ffffffffffffffff82111561094957610948610aee565b5b61095282610b31565b9050602081019050919050565b600081519050919050565b600082825260208201905092915050565b600082825260208201905092915050565b60008115159050919050565b6000819050919050565b82818337600083830152505050565b60005b838110156109cf5780820151818401526020810190506109b4565b838111156109de576000848401525b50505050565b600060028204905060018216806109fc57607f821691505b60208210811415610a1057610a0f610abf565b5b50919050565b610a1f82610b31565b810181811067ffffffffffffffff82111715610a3e57610a3d610aee565b5b80604052505050565b6000610a5282610998565b91507fffffffffffffffffffffffffffffffffffffffffffffffffffffffffffffffff821415610a8557610a84610a90565b5b600182019050919050565b7f4e487b7100000000000000000000000000000000000000000000000000000000600052601160045260246000fd5b7f4e487b7100000000000000000000000000000000000000000000000000000000600052602260045260246000fd5b7f4e487b7100000000000000000000000000000000000000000000000000000000600052604160045260246000fd5b600080fd5b600080fd5b600080fd5b600080fd5b6000601f19601f8301169050919050565b610b4b81610998565b8114610b5657600080fd5b5056fea2646970667358221220b2c8252d05228769b8a6a3e7c14a949e856899b53f62fe3055ae519f2dd788ec64736f6c63430008070033",
					"opcodes": "PUSH1 0x80 PUSH1 0x40 MSTORE CALLVALUE DUP1 ISZERO PUSH2 0x10 JUMPI PUSH1 0x0 DUP1 REVERT JUMPDEST POP CALLER PUSH1 0x0 DUP1 PUSH2 0x100 EXP DUP2 SLOAD DUP2 PUSH20 0xFFFFFFFFFFFFFFFFFFFFFFFFFFFFFFFFFFFFFFFF MUL NOT AND SWAP1 DUP4 PUSH20 0xFFFFFFFFFFFFFFFFFFFFFFFFFFFFFFFFFFFFFFFF AND MUL OR SWAP1 SSTORE POP PUSH2 0xB8F DUP1 PUSH2 0x60 PUSH1 0x0 CODECOPY PUSH1 0x0 RETURN INVALID PUSH1 0x80 PUSH1 0x40 MSTORE CALLVALUE DUP1 ISZERO PUSH2 0x10 JUMPI PUSH1 0x0 DUP1 REVERT JUMPDEST POP PUSH1 0x4 CALLDATASIZE LT PUSH2 0x7D JUMPI PUSH1 0x0 CALLDATALOAD PUSH1 0xE0 SHR DUP1 PUSH4 0xBC8BC2B4 GT PUSH2 0x5B JUMPI DUP1 PUSH4 0xBC8BC2B4 EQ PUSH2 0xD8 JUMPI DUP1 PUSH4 0xD321FE29 EQ PUSH2 0x10B JUMPI DUP1 PUSH4 0xDD68AFB6 EQ PUSH2 0x129 JUMPI DUP1 PUSH4 0xFC5049F1 EQ PUSH2 0x159 JUMPI PUSH2 0x7D JUMP JUMPDEST DUP1 PUSH4 0x1B7FB260 EQ PUSH2 0x82 JUMPI DUP1 PUSH4 0x61BC221A EQ PUSH2 0x9E JUMPI DUP1 PUSH4 0x62969FF7 EQ PUSH2 0xBC JUMPI JUMPDEST PUSH1 0x0 DUP1 REVERT JUMPDEST PUSH2 0x9C PUSH1 0x4 DUP1 CALLDATASIZE SUB DUP2 ADD SWAP1 PUSH2 0x97 SWAP2 SWAP1 PUSH2 0x6BC JUMP JUMPDEST PUSH2 0x175 JUMP JUMPDEST STOP JUMPDEST PUSH2 0xA6 PUSH2 0x233 JUMP JUMPDEST PUSH1 0x40 MLOAD PUSH2 0xB3 SWAP2 SWAP1 PUSH2 0x89B JUMP JUMPDEST PUSH1 0x40 MLOAD DUP1 SWAP2 SUB SWAP1 RETURN JUMPDEST PUSH2 0xD6 PUSH1 0x4 DUP1 CALLDATASIZE SUB DUP2 ADD SWAP1 PUSH2 0xD1 SWAP2 SWAP1 PUSH2 0x734 JUMP JUMPDEST PUSH2 0x239 JUMP JUMPDEST STOP JUMPDEST PUSH2 0xF2 PUSH1 0x4 DUP1 CALLDATASIZE SUB DUP2 ADD SWAP1 PUSH2 0xED SWAP2 SWAP1 PUSH2 0x734 JUMP JUMPDEST PUSH2 0x26B JUMP JUMPDEST PUSH1 0x40 MLOAD PUSH2 0x102 SWAP5 SWAP4 SWAP3 SWAP2 SWAP1 PUSH2 0x8B6 JUMP JUMPDEST PUSH1 0x40 MLOAD DUP1 SWAP2 SUB SWAP1 RETURN JUMPDEST PUSH2 0x113 PUSH2 0x3B8 JUMP JUMPDEST PUSH1 0x40 MLOAD PUSH2 0x120 SWAP2 SWAP1 PUSH2 0x89B JUMP JUMPDEST PUSH1 0x40 MLOAD DUP1 SWAP2 SUB SWAP1 RETURN JUMPDEST PUSH2 0x143 PUSH1 0x4 DUP1 CALLDATASIZE SUB DUP2 ADD SWAP1 PUSH2 0x13E SWAP2 SWAP1 PUSH2 0x734 JUMP JUMPDEST PUSH2 0x3C2 JUMP JUMPDEST PUSH1 0x40 MLOAD PUSH2 0x150 SWAP2 SWAP1 PUSH2 0x879 JUMP JUMPDEST PUSH1 0x40 MLOAD DUP1 SWAP2 SUB SWAP1 RETURN JUMPDEST PUSH2 0x173 PUSH1 0x4 DUP1 CALLDATASIZE SUB DUP2 ADD SWAP1 PUSH2 0x16E SWAP2 SWAP1 PUSH2 0x734 JUMP JUMPDEST PUSH2 0x538 JUMP JUMPDEST STOP JUMPDEST PUSH1 0x40 MLOAD DUP1 PUSH1 0x80 ADD PUSH1 0x40 MSTORE DUP1 PUSH1 0x1 SLOAD DUP2 MSTORE PUSH1 0x20 ADD DUP4 DUP2 MSTORE PUSH1 0x20 ADD DUP3 DUP2 MSTORE PUSH1 0x20 ADD PUSH1 0x0 ISZERO ISZERO DUP2 MSTORE POP PUSH1 0x2 PUSH1 0x0 PUSH1 0x1 SLOAD DUP2 MSTORE PUSH1 0x20 ADD SWAP1 DUP2 MSTORE PUSH1 0x20 ADD PUSH1 0x0 KECCAK256 PUSH1 0x0 DUP3 ADD MLOAD DUP2 PUSH1 0x0 ADD SSTORE PUSH1 0x20 DUP3 ADD MLOAD DUP2 PUSH1 0x1 ADD SWAP1 DUP1 MLOAD SWAP1 PUSH1 0x20 ADD SWAP1 PUSH2 0x1D6 SWAP3 SWAP2 SWAP1 PUSH2 0x56A JUMP JUMPDEST POP PUSH1 0x40 DUP3 ADD MLOAD DUP2 PUSH1 0x2 ADD SWAP1 DUP1 MLOAD SWAP1 PUSH1 0x20 ADD SWAP1 PUSH2 0x1F3 SWAP3 SWAP2 SWAP1 PUSH2 0x56A JUMP JUMPDEST POP PUSH1 0x60 DUP3 ADD MLOAD DUP2 PUSH1 0x3 ADD PUSH1 0x0 PUSH2 0x100 EXP DUP2 SLOAD DUP2 PUSH1 0xFF MUL NOT AND SWAP1 DUP4 ISZERO ISZERO MUL OR SWAP1 SSTORE POP SWAP1 POP POP PUSH1 0x1 PUSH1 0x0 DUP2 SLOAD DUP1 SWAP3 SWAP2 SWAP1 PUSH2 0x22A SWAP1 PUSH2 0xA47 JUMP JUMPDEST SWAP2 SWAP1 POP SSTORE POP POP POP JUMP JUMPDEST PUSH1 0x1 SLOAD DUP2 JUMP JUMPDEST PUSH1 0x0 PUSH1 0x2 PUSH1 0x0 DUP4 DUP2 MSTORE PUSH1 0x20 ADD SWAP1 DUP2 MSTORE PUSH1 0x20 ADD PUSH1 0x0 KECCAK256 PUSH1 0x3 ADD PUSH1 0x0 PUSH2 0x100 EXP DUP2 SLOAD DUP2 PUSH1 0xFF MUL NOT AND SWAP1 DUP4 ISZERO ISZERO MUL OR SWAP1 SSTORE POP POP JUMP JUMPDEST PUSH1 0x2 PUSH1 0x20 MSTORE DUP1 PUSH1 0x0 MSTORE PUSH1 0x40 PUSH1 0x0 KECCAK256 PUSH1 0x0 SWAP2 POP SWAP1 POP DUP1 PUSH1 0x0 ADD SLOAD SWAP1 DUP1 PUSH1 0x1 ADD DUP1 SLOAD PUSH2 0x294 SWAP1 PUSH2 0x9E4 JUMP JUMPDEST DUP1 PUSH1 0x1F ADD PUSH1 0x20 DUP1 SWAP2 DIV MUL PUSH1 0x20 ADD PUSH1 0x40 MLOAD SWAP1 DUP2 ADD PUSH1 0x40 MSTORE DUP1 SWAP3 SWAP2 SWAP1 DUP2 DUP2 MSTORE PUSH1 0x20 ADD DUP3 DUP1 SLOAD PUSH2 0x2C0 SWAP1 PUSH2 0x9E4 JUMP JUMPDEST DUP1 ISZERO PUSH2 0x30D JUMPI DUP1 PUSH1 0x1F LT PUSH2 0x2E2 JUMPI PUSH2 0x100 DUP1 DUP4 SLOAD DIV MUL DUP4 MSTORE SWAP2 PUSH1 0x20 ADD SWAP2 PUSH2 0x30D JUMP JUMPDEST DUP3 ADD SWAP2 SWAP1 PUSH1 0x0 MSTORE PUSH1 0x20 PUSH1 0x0 KECCAK256 SWAP1 JUMPDEST DUP2 SLOAD DUP2 MSTORE SWAP1 PUSH1 0x1 ADD SWAP1 PUSH1 0x20 ADD DUP1 DUP4 GT PUSH2 0x2F0 JUMPI DUP3 SWAP1 SUB PUSH1 0x1F AND DUP3 ADD SWAP2 JUMPDEST POP POP POP POP POP SWAP1 DUP1 PUSH1 0x2 ADD DUP1 SLOAD PUSH2 0x322 SWAP1 PUSH2 0x9E4 JUMP JUMPDEST DUP1 PUSH1 0x1F ADD PUSH1 0x20 DUP1 SWAP2 DIV MUL PUSH1 0x20 ADD PUSH1 0x40 MLOAD SWAP1 DUP2 ADD PUSH1 0x40 MSTORE DUP1 SWAP3 SWAP2 SWAP1 DUP2 DUP2 MSTORE PUSH1 0x20 ADD DUP3 DUP1 SLOAD PUSH2 0x34E SWAP1 PUSH2 0x9E4 JUMP JUMPDEST DUP1 ISZERO PUSH2 0x39B JUMPI DUP1 PUSH1 0x1F LT PUSH2 0x370 JUMPI PUSH2 0x100 DUP1 DUP4 SLOAD DIV MUL DUP4 MSTORE SWAP2 PUSH1 0x20 ADD SWAP2 PUSH2 0x39B JUMP JUMPDEST DUP3 ADD SWAP2 SWAP1 PUSH1 0x0 MSTORE PUSH1 0x20 PUSH1 0x0 KECCAK256 SWAP1 JUMPDEST DUP2 SLOAD DUP2 MSTORE SWAP1 PUSH1 0x1 ADD SWAP1 PUSH1 0x20 ADD DUP1 DUP4 GT PUSH2 0x37E JUMPI DUP3 SWAP1 SUB PUSH1 0x1F AND DUP3 ADD SWAP2 JUMPDEST POP POP POP POP POP SWAP1 DUP1 PUSH1 0x3 ADD PUSH1 0x0 SWAP1 SLOAD SWAP1 PUSH2 0x100 EXP SWAP1 DIV PUSH1 0xFF AND SWAP1 POP DUP5 JUMP JUMPDEST PUSH1 0x0 PUSH1 0x1 SLOAD SWAP1 POP SWAP1 JUMP JUMPDEST PUSH2 0x3CA PUSH2 0x5F0 JUMP JUMPDEST PUSH1 0x2 PUSH1 0x0 DUP4 DUP2 MSTORE PUSH1 0x20 ADD SWAP1 DUP2 MSTORE PUSH1 0x20 ADD PUSH1 0x0 KECCAK256 PUSH1 0x40 MLOAD DUP1 PUSH1 0x80 ADD PUSH1 0x40 MSTORE SWAP1 DUP2 PUSH1 0x0 DUP3 ADD SLOAD DUP2 MSTORE PUSH1 0x20 ADD PUSH1 0x1 DUP3 ADD DUP1 SLOAD PUSH2 0x402 SWAP1 PUSH2 0x9E4 JUMP JUMPDEST DUP1 PUSH1 0x1F ADD PUSH1 0x20 DUP1 SWAP2 DIV MUL PUSH1 0x20 ADD PUSH1 0x40 MLOAD SWAP1 DUP2 ADD PUSH1 0x40 MSTORE DUP1 SWAP3 SWAP2 SWAP1 DUP2 DUP2 MSTORE PUSH1 0x20 ADD DUP3 DUP1 SLOAD PUSH2 0x42E SWAP1 PUSH2 0x9E4 JUMP JUMPDEST DUP1 ISZERO PUSH2 0x47B JUMPI DUP1 PUSH1 0x1F LT PUSH2 0x450 JUMPI PUSH2 0x100 DUP1 DUP4 SLOAD DIV MUL DUP4 MSTORE SWAP2 PUSH1 0x20 ADD SWAP2 PUSH2 0x47B JUMP JUMPDEST DUP3 ADD SWAP2 SWAP1 PUSH1 0x0 MSTORE PUSH1 0x20 PUSH1 0x0 KECCAK256 SWAP1 JUMPDEST DUP2 SLOAD DUP2 MSTORE SWAP1 PUSH1 0x1 ADD SWAP1 PUSH1 0x20 ADD DUP1 DUP4 GT PUSH2 0x45E JUMPI DUP3 SWAP1 SUB PUSH1 0x1F AND DUP3 ADD SWAP2 JUMPDEST POP POP POP POP POP DUP2 MSTORE PUSH1 0x20 ADD PUSH1 0x2 DUP3 ADD DUP1 SLOAD PUSH2 0x494 SWAP1 PUSH2 0x9E4 JUMP JUMPDEST DUP1 PUSH1 0x1F ADD PUSH1 0x20 DUP1 SWAP2 DIV MUL PUSH1 0x20 ADD PUSH1 0x40 MLOAD SWAP1 DUP2 ADD PUSH1 0x40 MSTORE DUP1 SWAP3 SWAP2 SWAP1 DUP2 DUP2 MSTORE PUSH1 0x20 ADD DUP3 DUP1 SLOAD PUSH2 0x4C0 SWAP1 PUSH2 0x9E4 JUMP JUMPDEST DUP1 ISZERO PUSH2 0x50D JUMPI DUP1 PUSH1 0x1F LT PUSH2 0x4E2 JUMPI PUSH2 0x100 DUP1 DUP4 SLOAD DIV MUL DUP4 MSTORE SWAP2 PUSH1 0x20 ADD SWAP2 PUSH2 0x50D JUMP JUMPDEST DUP3 ADD SWAP2 SWAP1 PUSH1 0x0 MSTORE PUSH1 0x20 PUSH1 0x0 KECCAK256 SWAP1 JUMPDEST DUP2 SLOAD DUP2 MSTORE SWAP1 PUSH1 0x1 ADD SWAP1 PUSH1 0x20 ADD DUP1 DUP4 GT PUSH2 0x4F0 JUMPI DUP3 SWAP1 SUB PUSH1 0x1F AND DUP3 ADD SWAP2 JUMPDEST POP POP POP POP POP DUP2 MSTORE PUSH1 0x20 ADD PUSH1 0x3 DUP3 ADD PUSH1 0x0 SWAP1 SLOAD SWAP1 PUSH2 0x100 EXP SWAP1 DIV PUSH1 0xFF AND ISZERO ISZERO ISZERO ISZERO DUP2 MSTORE POP POP SWAP1 POP SWAP2 SWAP1 POP JUMP JUMPDEST PUSH1 0x1 PUSH1 0x2 PUSH1 0x0 DUP4 DUP2 MSTORE PUSH1 0x20 ADD SWAP1 DUP2 MSTORE PUSH1 0x20 ADD PUSH1 0x0 KECCAK256 PUSH1 0x3 ADD PUSH1 0x0 PUSH2 0x100 EXP DUP2 SLOAD DUP2 PUSH1 0xFF MUL NOT AND SWAP1 DUP4 ISZERO ISZERO MUL OR SWAP1 SSTORE POP POP JUMP JUMPDEST DUP3 DUP1 SLOAD PUSH2 0x576 SWAP1 PUSH2 0x9E4 JUMP JUMPDEST SWAP1 PUSH1 0x0 MSTORE PUSH1 0x20 PUSH1 0x0 KECCAK256 SWAP1 PUSH1 0x1F ADD PUSH1 0x20 SWAP1 DIV DUP2 ADD SWAP3 DUP3 PUSH2 0x598 JUMPI PUSH1 0x0 DUP6 SSTORE PUSH2 0x5DF JUMP JUMPDEST DUP3 PUSH1 0x1F LT PUSH2 0x5B1 JUMPI DUP1 MLOAD PUSH1 0xFF NOT AND DUP4 DUP1 ADD OR DUP6 SSTORE PUSH2 0x5DF JUMP JUMPDEST DUP3 DUP1 ADD PUSH1 0x1 ADD DUP6 SSTORE DUP3 ISZERO PUSH2 0x5DF JUMPI SWAP2 DUP3 ADD JUMPDEST DUP3 DUP2 GT ISZERO PUSH2 0x5DE JUMPI DUP3 MLOAD DUP3 SSTORE SWAP2 PUSH1 0x20 ADD SWAP2 SWAP1 PUSH1 0x1 ADD SWAP1 PUSH2 0x5C3 JUMP JUMPDEST JUMPDEST POP SWAP1 POP PUSH2 0x5EC SWAP2 SWAP1 PUSH2 0x61A JUMP JUMPDEST POP SWAP1 JUMP JUMPDEST PUSH1 0x40 MLOAD DUP1 PUSH1 0x80 ADD PUSH1 0x40 MSTORE DUP1 PUSH1 0x0 DUP2 MSTORE PUSH1 0x20 ADD PUSH1 0x60 DUP2 MSTORE PUSH1 0x20 ADD PUSH1 0x60 DUP2 MSTORE PUSH1 0x20 ADD PUSH1 0x0 ISZERO ISZERO DUP2 MSTORE POP SWAP1 JUMP JUMPDEST JUMPDEST DUP1 DUP3 GT ISZERO PUSH2 0x633 JUMPI PUSH1 0x0 DUP2 PUSH1 0x0 SWAP1 SSTORE POP PUSH1 0x1 ADD PUSH2 0x61B JUMP JUMPDEST POP SWAP1 JUMP JUMPDEST PUSH1 0x0 PUSH2 0x64A PUSH2 0x645 DUP5 PUSH2 0x92E JUMP JUMPDEST PUSH2 0x909 JUMP JUMPDEST SWAP1 POP DUP3 DUP2 MSTORE PUSH1 0x20 DUP2 ADD DUP5 DUP5 DUP5 ADD GT ISZERO PUSH2 0x666 JUMPI PUSH2 0x665 PUSH2 0xB22 JUMP JUMPDEST JUMPDEST PUSH2 0x671 DUP5 DUP3 DUP6 PUSH2 0x9A2 JUMP JUMPDEST POP SWAP4 SWAP3 POP POP POP JUMP JUMPDEST PUSH1 0x0 DUP3 PUSH1 0x1F DUP4 ADD SLT PUSH2 0x68E JUMPI PUSH2 0x68D PUSH2 0xB1D JUMP JUMPDEST JUMPDEST DUP2 CALLDATALOAD PUSH2 0x69E DUP5 DUP3 PUSH1 0x20 DUP7 ADD PUSH2 0x637 JUMP JUMPDEST SWAP2 POP POP SWAP3 SWAP2 POP POP JUMP JUMPDEST PUSH1 0x0 DUP2 CALLDATALOAD SWAP1 POP PUSH2 0x6B6 DUP2 PUSH2 0xB42 JUMP JUMPDEST SWAP3 SWAP2 POP POP JUMP JUMPDEST PUSH1 0x0 DUP1 PUSH1 0x40 DUP4 DUP6 SUB SLT ISZERO PUSH2 0x6D3 JUMPI PUSH2 0x6D2 PUSH2 0xB2C JUMP JUMPDEST JUMPDEST PUSH1 0x0 DUP4 ADD CALLDATALOAD PUSH8 0xFFFFFFFFFFFFFFFF DUP2 GT ISZERO PUSH2 0x6F1 JUMPI PUSH2 0x6F0 PUSH2 0xB27 JUMP JUMPDEST JUMPDEST PUSH2 0x6FD DUP6 DUP3 DUP7 ADD PUSH2 0x679 JUMP JUMPDEST SWAP3 POP POP PUSH1 0x20 DUP4 ADD CALLDATALOAD PUSH8 0xFFFFFFFFFFFFFFFF DUP2 GT ISZERO PUSH2 0x71E JUMPI PUSH2 0x71D PUSH2 0xB27 JUMP JUMPDEST JUMPDEST PUSH2 0x72A DUP6 DUP3 DUP7 ADD PUSH2 0x679 JUMP JUMPDEST SWAP2 POP POP SWAP3 POP SWAP3 SWAP1 POP JUMP JUMPDEST PUSH1 0x0 PUSH1 0x20 DUP3 DUP5 SUB SLT ISZERO PUSH2 0x74A JUMPI PUSH2 0x749 PUSH2 0xB2C JUMP JUMPDEST JUMPDEST PUSH1 0x0 PUSH2 0x758 DUP5 DUP3 DUP6 ADD PUSH2 0x6A7 JUMP JUMPDEST SWAP2 POP POP SWAP3 SWAP2 POP POP JUMP JUMPDEST PUSH2 0x76A DUP2 PUSH2 0x98C JUMP JUMPDEST DUP3 MSTORE POP POP JUMP JUMPDEST PUSH2 0x779 DUP2 PUSH2 0x98C JUMP JUMPDEST DUP3 MSTORE POP POP JUMP JUMPDEST PUSH1 0x0 PUSH2 0x78A DUP3 PUSH2 0x95F JUMP JUMPDEST PUSH2 0x794 DUP2 DUP6 PUSH2 0x96A JUMP JUMPDEST SWAP4 POP PUSH2 0x7A4 DUP2 DUP6 PUSH1 0x20 DUP7 ADD PUSH2 0x9B1 JUMP JUMPDEST PUSH2 0x7AD DUP2 PUSH2 0xB31 JUMP JUMPDEST DUP5 ADD SWAP2 POP POP SWAP3 SWAP2 POP POP JUMP JUMPDEST PUSH1 0x0 PUSH2 0x7C3 DUP3 PUSH2 0x95F JUMP JUMPDEST PUSH2 0x7CD DUP2 DUP6 PUSH2 0x97B JUMP JUMPDEST SWAP4 POP PUSH2 0x7DD DUP2 DUP6 PUSH1 0x20 DUP7 ADD PUSH2 0x9B1 JUMP JUMPDEST PUSH2 0x7E6 DUP2 PUSH2 0xB31 JUMP JUMPDEST DUP5 ADD SWAP2 POP POP SWAP3 SWAP2 POP POP JUMP JUMPDEST PUSH1 0x0 PUSH1 0x80 DUP4 ADD PUSH1 0x0 DUP4 ADD MLOAD PUSH2 0x809 PUSH1 0x0 DUP7 ADD DUP3 PUSH2 0x85B JUMP JUMPDEST POP PUSH1 0x20 DUP4 ADD MLOAD DUP5 DUP3 SUB PUSH1 0x20 DUP7 ADD MSTORE PUSH2 0x821 DUP3 DUP3 PUSH2 0x77F JUMP JUMPDEST SWAP2 POP POP PUSH1 0x40 DUP4 ADD MLOAD DUP5 DUP3 SUB PUSH1 0x40 DUP7 ADD MSTORE PUSH2 0x83B DUP3 DUP3 PUSH2 0x77F JUMP JUMPDEST SWAP2 POP POP PUSH1 0x60 DUP4 ADD MLOAD PUSH2 0x850 PUSH1 0x60 DUP7 ADD DUP3 PUSH2 0x761 JUMP JUMPDEST POP DUP1 SWAP2 POP POP SWAP3 SWAP2 POP POP JUMP JUMPDEST PUSH2 0x864 DUP2 PUSH2 0x998 JUMP JUMPDEST DUP3 MSTORE POP POP JUMP JUMPDEST PUSH2 0x873 DUP2 PUSH2 0x998 JUMP JUMPDEST DUP3 MSTORE POP POP JUMP JUMPDEST PUSH1 0x0 PUSH1 0x20 DUP3 ADD SWAP1 POP DUP2 DUP2 SUB PUSH1 0x0 DUP4 ADD MSTORE PUSH2 0x893 DUP2 DUP5 PUSH2 0x7F1 JUMP JUMPDEST SWAP1 POP SWAP3 SWAP2 POP POP JUMP JUMPDEST PUSH1 0x0 PUSH1 0x20 DUP3 ADD SWAP1 POP PUSH2 0x8B0 PUSH1 0x0 DUP4 ADD DUP5 PUSH2 0x86A JUMP JUMPDEST SWAP3 SWAP2 POP POP JUMP JUMPDEST PUSH1 0x0 PUSH1 0x80 DUP3 ADD SWAP1 POP PUSH2 0x8CB PUSH1 0x0 DUP4 ADD DUP8 PUSH2 0x86A JUMP JUMPDEST DUP2 DUP2 SUB PUSH1 0x20 DUP4 ADD MSTORE PUSH2 0x8DD DUP2 DUP7 PUSH2 0x7B8 JUMP JUMPDEST SWAP1 POP DUP2 DUP2 SUB PUSH1 0x40 DUP4 ADD MSTORE PUSH2 0x8F1 DUP2 DUP6 PUSH2 0x7B8 JUMP JUMPDEST SWAP1 POP PUSH2 0x900 PUSH1 0x60 DUP4 ADD DUP5 PUSH2 0x770 JUMP JUMPDEST SWAP6 SWAP5 POP POP POP POP POP JUMP JUMPDEST PUSH1 0x0 PUSH2 0x913 PUSH2 0x924 JUMP JUMPDEST SWAP1 POP PUSH2 0x91F DUP3 DUP3 PUSH2 0xA16 JUMP JUMPDEST SWAP2 SWAP1 POP JUMP JUMPDEST PUSH1 0x0 PUSH1 0x40 MLOAD SWAP1 POP SWAP1 JUMP JUMPDEST PUSH1 0x0 PUSH8 0xFFFFFFFFFFFFFFFF DUP3 GT ISZERO PUSH2 0x949 JUMPI PUSH2 0x948 PUSH2 0xAEE JUMP JUMPDEST JUMPDEST PUSH2 0x952 DUP3 PUSH2 0xB31 JUMP JUMPDEST SWAP1 POP PUSH1 0x20 DUP2 ADD SWAP1 POP SWAP2 SWAP1 POP JUMP JUMPDEST PUSH1 0x0 DUP2 MLOAD SWAP1 POP SWAP2 SWAP1 POP JUMP JUMPDEST PUSH1 0x0 DUP3 DUP3 MSTORE PUSH1 0x20 DUP3 ADD SWAP1 POP SWAP3 SWAP2 POP POP JUMP JUMPDEST PUSH1 0x0 DUP3 DUP3 MSTORE PUSH1 0x20 DUP3 ADD SWAP1 POP SWAP3 SWAP2 POP POP JUMP JUMPDEST PUSH1 0x0 DUP2 ISZERO ISZERO SWAP1 POP SWAP2 SWAP1 POP JUMP JUMPDEST PUSH1 0x0 DUP2 SWAP1 POP SWAP2 SWAP1 POP JUMP JUMPDEST DUP3 DUP2 DUP4 CALLDATACOPY PUSH1 0x0 DUP4 DUP4 ADD MSTORE POP POP POP JUMP JUMPDEST PUSH1 0x0 JUMPDEST DUP4 DUP2 LT ISZERO PUSH2 0x9CF JUMPI DUP1 DUP3 ADD MLOAD DUP2 DUP5 ADD MSTORE PUSH1 0x20 DUP2 ADD SWAP1 POP PUSH2 0x9B4 JUMP JUMPDEST DUP4 DUP2 GT ISZERO PUSH2 0x9DE JUMPI PUSH1 0x0 DUP5 DUP5 ADD MSTORE JUMPDEST POP POP POP POP JUMP JUMPDEST PUSH1 0x0 PUSH1 0x2 DUP3 DIV SWAP1 POP PUSH1 0x1 DUP3 AND DUP1 PUSH2 0x9FC JUMPI PUSH1 0x7F DUP3 AND SWAP2 POP JUMPDEST PUSH1 0x20 DUP3 LT DUP2 EQ ISZERO PUSH2 0xA10 JUMPI PUSH2 0xA0F PUSH2 0xABF JUMP JUMPDEST JUMPDEST POP SWAP2 SWAP1 POP JUMP JUMPDEST PUSH2 0xA1F DUP3 PUSH2 0xB31 JUMP JUMPDEST DUP2 ADD DUP2 DUP2 LT PUSH8 0xFFFFFFFFFFFFFFFF DUP3 GT OR ISZERO PUSH2 0xA3E JUMPI PUSH2 0xA3D PUSH2 0xAEE JUMP JUMPDEST JUMPDEST DUP1 PUSH1 0x40 MSTORE POP POP POP JUMP JUMPDEST PUSH1 0x0 PUSH2 0xA52 DUP3 PUSH2 0x998 JUMP JUMPDEST SWAP2 POP PUSH32 0xFFFFFFFFFFFFFFFFFFFFFFFFFFFFFFFFFFFFFFFFFFFFFFFFFFFFFFFFFFFFFFFF DUP3 EQ ISZERO PUSH2 0xA85 JUMPI PUSH2 0xA84 PUSH2 0xA90 JUMP JUMPDEST JUMPDEST PUSH1 0x1 DUP3 ADD SWAP1 POP SWAP2 SWAP1 POP JUMP JUMPDEST PUSH32 0x4E487B7100000000000000000000000000000000000000000000000000000000 PUSH1 0x0 MSTORE PUSH1 0x11 PUSH1 0x4 MSTORE PUSH1 0x24 PUSH1 0x0 REVERT JUMPDEST PUSH32 0x4E487B7100000000000000000000000000000000000000000000000000000000 PUSH1 0x0 MSTORE PUSH1 0x22 PUSH1 0x4 MSTORE PUSH1 0x24 PUSH1 0x0 REVERT JUMPDEST PUSH32 0x4E487B7100000000000000000000000000000000000000000000000000000000 PUSH1 0x0 MSTORE PUSH1 0x41 PUSH1 0x4 MSTORE PUSH1 0x24 PUSH1 0x0 REVERT JUMPDEST PUSH1 0x0 DUP1 REVERT JUMPDEST PUSH1 0x0 DUP1 REVERT JUMPDEST PUSH1 0x0 DUP1 REVERT JUMPDEST PUSH1 0x0 DUP1 REVERT JUMPDEST PUSH1 0x0 PUSH1 0x1F NOT PUSH1 0x1F DUP4 ADD AND SWAP1 POP SWAP2 SWAP1 POP JUMP JUMPDEST PUSH2 0xB4B DUP2 PUSH2 0x998 JUMP JUMPDEST DUP2 EQ PUSH2 0xB56 JUMPI PUSH1 0x0 DUP1 REVERT JUMPDEST POP JUMP INVALID LOG2 PUSH5 0x6970667358 0x22 SLT KECCAK256 0xB2 0xC8 0x25 0x2D SDIV 0x22 DUP8 PUSH10 0xB8A6A3E7C14A949E8568 SWAP10 0xB5 EXTCODEHASH PUSH3 0xFE3055 0xAE MLOAD SWAP16 0x2D 0xD7 DUP9 0xEC PUSH5 0x736F6C6343 STOP ADDMOD SMOD STOP CALLER "
				},
				"gasEstimates": {
					"creation": {
						"codeDepositCost": "591800",
						"executionCost": "24891",
						"totalCost": "616691"
					},
					"external": {
						"addTodo(string,string)": "infinite",
						"counter()": "2452",
						"getAmount()": "2459",
						"getTodo(uint256)": "infinite",
						"setAsDone(uint256)": "24823",
						"setAsUndone(uint256)": "24802",
						"todos(uint256)": "infinite"
					}
				},
				"methodIdentifiers": {
					"addTodo(string,string)": "1b7fb260",
					"counter()": "61bc221a",
					"getAmount()": "d321fe29",
					"getTodo(uint256)": "dd68afb6",
					"setAsDone(uint256)": "fc5049f1",
					"setAsUndone(uint256)": "62969ff7",
					"todos(uint256)": "bc8bc2b4"
				}
			},
			"storageLayout": {
				"storage": [
					{
						"astId": 5,
						"contract": "ToDoApp.sol:ToDoApp",
						"label": "owner",
						"offset": 0,
						"slot": "0",
						"type": "t_address"
					},
					{
						"astId": 7,
						"contract": "ToDoApp.sol:ToDoApp",
						"label": "counter",
						"offset": 0,
						"slot": "1",
						"type": "t_uint256"
					},
					{
						"astId": 22,
						"contract": "ToDoApp.sol:ToDoApp",
						"label": "todos",
						"offset": 0,
						"slot": "2",
						"type": "t_mapping(t_uint256,t_struct(ToDo)16_storage)"
					}
				],
				"types": {
					"t_address": {
						"encoding": "inplace",
						"label": "address",
						"numberOfBytes": "20"
					},
					"t_bool": {
						"encoding": "inplace",
						"label": "bool",
						"numberOfBytes": "1"
					},
					"t_mapping(t_uint256,t_struct(ToDo)16_storage)": {
						"encoding": "mapping",
						"key": "t_uint256",
						"label": "mapping(uint256 => struct ToDoApp.ToDo)",
						"numberOfBytes": "32",
						"value": "t_struct(ToDo)16_storage"
					},
					"t_string_storage": {
						"encoding": "bytes",
						"label": "string",
						"numberOfBytes": "32"
					},
					"t_struct(ToDo)16_storage": {
						"encoding": "inplace",
						"label": "struct ToDoApp.ToDo",
						"members": [
							{
								"astId": 9,
								"contract": "ToDoApp.sol:ToDoApp",
								"label": "id",
								"offset": 0,
								"slot": "0",
								"type": "t_uint256"
							},
							{
								"astId": 11,
								"contract": "ToDoApp.sol:ToDoApp",
								"label": "name",
								"offset": 0,
								"slot": "1",
								"type": "t_string_storage"
							},
							{
								"astId": 13,
								"contract": "ToDoApp.sol:ToDoApp",
								"label": "content",
								"offset": 0,
								"slot": "2",
								"type": "t_string_storage"
							},
							{
								"astId": 15,
								"contract": "ToDoApp.sol:ToDoApp",
								"label": "status",
								"offset": 0,
								"slot": "3",
								"type": "t_bool"
							}
						],
						"numberOfBytes": "128"
					},
					"t_uint256": {
						"encoding": "inplace",
						"label": "uint256",
						"numberOfBytes": "32"
					}
				}
			},
			"userdoc": {
				"kind": "user",
				"methods": {
					"addTodo(string,string)": {
						"notice": "Add new todo to memory. ID defaults to counter index and status defaults to false"
					},
					"constructor": {
						"notice": "Constructor"
					},
					"getAmount()": {
						"notice": "Get amount of todos"
					},
					"getTodo(uint256)": {
						"notice": "Get todo"
					},
					"setAsDone(uint256)": {
						"notice": "Set todo as done"
					},
					"setAsUndone(uint256)": {
						"notice": "Set todo as undone"
					},
					"todos(uint256)": {
						"notice": "Mappings"
					}
				},
				"notice": "A simple ToDo smart contract app",
				"version": 1
			}
		}
	}
}