{
	"ToDoApp.sol": {
		"ToDoApp": {
			"abi": [
				{
					"inputs": [],
					"stateMutability": "nonpayable",
					"type": "constructor"
				},
				{
					"inputs": [
						{
							"internalType": "string",
							"name": "name",
							"type": "string"
						},
						{
							"internalType": "string",
							"name": "content",
							"type": "string"
						}
					],
					"name": "addTodo",
					"outputs": [],
					"stateMutability": "nonpayable",
					"type": "function"
				},
				{
					"inputs": [
						{
							"internalType": "address",
							"name": "",
							"type": "address"
						}
					],
					"name": "counter",
					"outputs": [
						{
							"internalType": "uint256",
							"name": "",
							"type": "uint256"
						}
					],
					"stateMutability": "view",
					"type": "function"
				},
				{
					"inputs": [],
					"name": "getAmount",
					"outputs": [
						{
							"internalType": "uint256",
							"name": "",
							"type": "uint256"
						}
					],
					"stateMutability": "view",
					"type": "function"
				},
				{
					"inputs": [
						{
							"internalType": "uint256",
							"name": "id",
							"type": "uint256"
						}
					],
					"name": "getTodo",
					"outputs": [
						{
							"components": [
								{
									"internalType": "uint256",
									"name": "id",
									"type": "uint256"
								},
								{
									"internalType": "string",
									"name": "name",
									"type": "string"
								},
								{
									"internalType": "string",
									"name": "content",
									"type": "string"
								},
								{
									"internalType": "bool",
									"name": "status",
									"type": "bool"
								}
							],
							"internalType": "struct ToDoApp.ToDo",
							"name": "",
							"type": "tuple"
						}
					],
					"stateMutability": "view",
					"type": "function"
				},
				{
					"inputs": [
						{
							"internalType": "uint256",
							"name": "id",
							"type": "uint256"
						}
					],
					"name": "setAsDone",
					"outputs": [],
					"stateMutability": "nonpayable",
					"type": "function"
				},
				{
					"inputs": [
						{
							"internalType": "uint256",
							"name": "id",
							"type": "uint256"
						}
					],
					"name": "setAsUndone",
					"outputs": [],
					"stateMutability": "nonpayable",
					"type": "function"
				},
				{
					"inputs": [
						{
							"internalType": "address",
							"name": "",
							"type": "address"
						},
						{
							"internalType": "uint256",
							"name": "",
							"type": "uint256"
						}
					],
					"name": "todos",
					"outputs": [
						{
							"internalType": "uint256",
							"name": "id",
							"type": "uint256"
						},
						{
							"internalType": "string",
							"name": "name",
							"type": "string"
						},
						{
							"internalType": "string",
							"name": "content",
							"type": "string"
						},
						{
							"internalType": "bool",
							"name": "status",
							"type": "bool"
						}
					],
					"stateMutability": "view",
					"type": "function"
				}
			],
			"devdoc": {
				"kind": "dev",
				"methods": {},
				"version": 1
			},
			"evm": {
				"assembly": "    /* \"ToDoApp.sol\":120:2214  contract ToDoApp {... */\n  mstore(0x40, 0x80)\n    /* \"ToDoApp.sol\":617:633  constructor() {} */\n  callvalue\n  dup1\n  iszero\n  tag_1\n  jumpi\n  0x00\n  dup1\n  revert\ntag_1:\n  pop\n    /* \"ToDoApp.sol\":120:2214  contract ToDoApp {... */\n  dataSize(sub_0)\n  dup1\n  dataOffset(sub_0)\n  0x00\n  codecopy\n  0x00\n  return\nstop\n\nsub_0: assembly {\n        /* \"ToDoApp.sol\":120:2214  contract ToDoApp {... */\n      mstore(0x40, 0x80)\n      callvalue\n      dup1\n      iszero\n      tag_1\n      jumpi\n      0x00\n      dup1\n      revert\n    tag_1:\n      pop\n      jumpi(tag_2, lt(calldatasize, 0x04))\n      shr(0xe0, calldataload(0x00))\n      dup1\n      0xc12327b8\n      gt\n      tag_10\n      jumpi\n      dup1\n      0xc12327b8\n      eq\n      tag_6\n      jumpi\n      dup1\n      0xd321fe29\n      eq\n      tag_7\n      jumpi\n      dup1\n      0xdd68afb6\n      eq\n      tag_8\n      jumpi\n      dup1\n      0xfc5049f1\n      eq\n      tag_9\n      jumpi\n      jump(tag_2)\n    tag_10:\n      dup1\n      0x1b7fb260\n      eq\n      tag_3\n      jumpi\n      dup1\n      0x428c1889\n      eq\n      tag_4\n      jumpi\n      dup1\n      0x62969ff7\n      eq\n      tag_5\n      jumpi\n    tag_2:\n      0x00\n      dup1\n      revert\n        /* \"ToDoApp.sol\":935:1332  function addTodo(string memory name, string memory content) public {... */\n    tag_3:\n      tag_11\n      0x04\n      dup1\n      calldatasize\n      sub\n      dup2\n      add\n      swap1\n      tag_12\n      swap2\n      swap1\n      tag_13\n      jump\t// in\n    tag_12:\n      tag_14\n      jump\t// in\n    tag_11:\n      stop\n        /* \"ToDoApp.sol\":487:526  mapping(address => ToDo[]) public todos */\n    tag_4:\n      tag_15\n      0x04\n      dup1\n      calldatasize\n      sub\n      dup2\n      add\n      swap1\n      tag_16\n      swap2\n      swap1\n      tag_17\n      jump\t// in\n    tag_16:\n      tag_18\n      jump\t// in\n    tag_15:\n      mload(0x40)\n      tag_19\n      swap5\n      swap4\n      swap3\n      swap2\n      swap1\n      tag_20\n      jump\t// in\n    tag_19:\n      mload(0x40)\n      dup1\n      swap2\n      sub\n      swap1\n      return\n        /* \"ToDoApp.sol\":2108:2212  function setAsUndone(uint id) public todoCount {... */\n    tag_5:\n      tag_21\n      0x04\n      dup1\n      calldatasize\n      sub\n      dup2\n      add\n      swap1\n      tag_22\n      swap2\n      swap1\n      tag_23\n      jump\t// in\n    tag_22:\n      tag_24\n      jump\t// in\n    tag_21:\n      stop\n        /* \"ToDoApp.sol\":532:574  mapping(address => uint256) public counter */\n    tag_6:\n      tag_25\n      0x04\n      dup1\n      calldatasize\n      sub\n      dup2\n      add\n      swap1\n      tag_26\n      swap2\n      swap1\n      tag_27\n      jump\t// in\n    tag_26:\n      tag_28\n      jump\t// in\n    tag_25:\n      mload(0x40)\n      tag_29\n      swap2\n      swap1\n      tag_30\n      jump\t// in\n    tag_29:\n      mload(0x40)\n      dup1\n      swap2\n      sub\n      swap1\n      return\n        /* \"ToDoApp.sol\":1652:1741  function getAmount() view public returns(uint){... */\n    tag_7:\n      tag_31\n      tag_32\n      jump\t// in\n    tag_31:\n      mload(0x40)\n      tag_33\n      swap2\n      swap1\n      tag_30\n      jump\t// in\n    tag_33:\n      mload(0x40)\n      dup1\n      swap2\n      sub\n      swap1\n      return\n        /* \"ToDoApp.sol\":1406:1602  function getTodo(uint id) view public todoCount returns(ToDo memory) {... */\n    tag_8:\n      tag_34\n      0x04\n      dup1\n      calldatasize\n      sub\n      dup2\n      add\n      swap1\n      tag_35\n      swap2\n      swap1\n      tag_23\n      jump\t// in\n    tag_35:\n      tag_36\n      jump\t// in\n    tag_34:\n      mload(0x40)\n      tag_37\n      swap2\n      swap1\n      tag_38\n      jump\t// in\n    tag_37:\n      mload(0x40)\n      dup1\n      swap2\n      sub\n      swap1\n      return\n        /* \"ToDoApp.sol\":1873:1974  function setAsDone(uint id) public todoCount {... */\n    tag_9:\n      tag_39\n      0x04\n      dup1\n      calldatasize\n      sub\n      dup2\n      add\n      swap1\n      tag_40\n      swap2\n      swap1\n      tag_23\n      jump\t// in\n    tag_40:\n      tag_41\n      jump\t// in\n    tag_39:\n      stop\n        /* \"ToDoApp.sol\":935:1332  function addTodo(string memory name, string memory content) public {... */\n    tag_14:\n        /* \"ToDoApp.sol\":1048:1055  counter */\n      0x01\n        /* \"ToDoApp.sol\":1048:1067  counter[msg.sender] */\n      0x00\n        /* \"ToDoApp.sol\":1056:1066  msg.sender */\n      caller\n        /* \"ToDoApp.sol\":1048:1067  counter[msg.sender] */\n      0xffffffffffffffffffffffffffffffffffffffff\n      and\n      0xffffffffffffffffffffffffffffffffffffffff\n      and\n      dup2\n      mstore\n      0x20\n      add\n      swap1\n      dup2\n      mstore\n      0x20\n      add\n      0x00\n      keccak256\n      0x00\n        /* \"ToDoApp.sol\":1048:1069  counter[msg.sender]++ */\n      dup2\n      sload\n      dup1\n      swap3\n      swap2\n      swap1\n      tag_43\n      swap1\n      tag_44\n      jump\t// in\n    tag_43:\n      swap2\n      swap1\n      pop\n      sstore\n      pop\n        /* \"ToDoApp.sol\":1122:1127  todos */\n      0x00\n        /* \"ToDoApp.sol\":1122:1139  todos[msg.sender] */\n      dup1\n        /* \"ToDoApp.sol\":1128:1138  msg.sender */\n      caller\n        /* \"ToDoApp.sol\":1122:1139  todos[msg.sender] */\n      0xffffffffffffffffffffffffffffffffffffffff\n      and\n      0xffffffffffffffffffffffffffffffffffffffff\n      and\n      dup2\n      mstore\n      0x20\n      add\n      swap1\n      dup2\n      mstore\n      0x20\n      add\n      0x00\n      keccak256\n        /* \"ToDoApp.sol\":1158:1315  ToDo({... */\n      mload(0x40)\n      dup1\n      0x80\n      add\n      0x40\n      mstore\n      dup1\n        /* \"ToDoApp.sol\":1185:1192  counter */\n      0x01\n        /* \"ToDoApp.sol\":1185:1204  counter[msg.sender] */\n      0x00\n        /* \"ToDoApp.sol\":1193:1203  msg.sender */\n      caller\n        /* \"ToDoApp.sol\":1185:1204  counter[msg.sender] */\n      0xffffffffffffffffffffffffffffffffffffffff\n      and\n      0xffffffffffffffffffffffffffffffffffffffff\n      and\n      dup2\n      mstore\n      0x20\n      add\n      swap1\n      dup2\n      mstore\n      0x20\n      add\n      0x00\n      keccak256\n      sload\n        /* \"ToDoApp.sol\":1158:1315  ToDo({... */\n      dup2\n      mstore\n      0x20\n      add\n        /* \"ToDoApp.sol\":1229:1233  name */\n      dup5\n        /* \"ToDoApp.sol\":1158:1315  ToDo({... */\n      dup2\n      mstore\n      0x20\n      add\n        /* \"ToDoApp.sol\":1261:1268  content */\n      dup4\n        /* \"ToDoApp.sol\":1158:1315  ToDo({... */\n      dup2\n      mstore\n      0x20\n      add\n        /* \"ToDoApp.sol\":1295:1300  false */\n      0x00\n        /* \"ToDoApp.sol\":1158:1315  ToDo({... */\n      iszero\n      iszero\n      dup2\n      mstore\n      pop\n        /* \"ToDoApp.sol\":1122:1325  todos[msg.sender].push(... */\n      swap1\n      dup1\n      0x01\n      dup2\n      sload\n      add\n      dup1\n      dup3\n      sstore\n      dup1\n      swap2\n      pop\n      pop\n      0x01\n      swap1\n      sub\n      swap1\n      0x00\n      mstore\n      keccak256(0x00, 0x20)\n      swap1\n      0x04\n      mul\n      add\n      0x00\n      swap1\n      swap2\n      swap1\n      swap2\n      swap1\n      swap2\n      pop\n      0x00\n      dup3\n      add\n      mload\n      dup2\n      0x00\n      add\n      sstore\n      0x20\n      dup3\n      add\n      mload\n      dup2\n      0x01\n      add\n      swap1\n      dup1\n      mload\n      swap1\n      0x20\n      add\n      swap1\n      tag_46\n      swap3\n      swap2\n      swap1\n      tag_47\n      jump\t// in\n    tag_46:\n      pop\n      0x40\n      dup3\n      add\n      mload\n      dup2\n      0x02\n      add\n      swap1\n      dup1\n      mload\n      swap1\n      0x20\n      add\n      swap1\n      tag_48\n      swap3\n      swap2\n      swap1\n      tag_47\n      jump\t// in\n    tag_48:\n      pop\n      0x60\n      dup3\n      add\n      mload\n      dup2\n      0x03\n      add\n      exp(0x0100, 0x00)\n      dup2\n      sload\n      dup2\n      0xff\n      mul\n      not\n      and\n      swap1\n      dup4\n      iszero\n      iszero\n      mul\n      or\n      swap1\n      sstore\n      pop\n      pop\n      pop\n        /* \"ToDoApp.sol\":935:1332  function addTodo(string memory name, string memory content) public {... */\n      pop\n      pop\n      jump\t// out\n        /* \"ToDoApp.sol\":487:526  mapping(address => ToDo[]) public todos */\n    tag_18:\n      mstore(0x20, 0x00)\n      dup2\n      0x00\n      mstore\n      keccak256(0x00, 0x40)\n      dup2\n      dup2\n      sload\n      dup2\n      lt\n      tag_49\n      jumpi\n      0x00\n      dup1\n      revert\n    tag_49:\n      swap1\n      0x00\n      mstore\n      keccak256(0x00, 0x20)\n      swap1\n      0x04\n      mul\n      add\n      0x00\n      swap2\n      pop\n      swap2\n      pop\n      pop\n      dup1\n      0x00\n      add\n      sload\n      swap1\n      dup1\n      0x01\n      add\n      dup1\n      sload\n      tag_51\n      swap1\n      tag_52\n      jump\t// in\n    tag_51:\n      dup1\n      0x1f\n      add\n      0x20\n      dup1\n      swap2\n      div\n      mul\n      0x20\n      add\n      mload(0x40)\n      swap1\n      dup2\n      add\n      0x40\n      mstore\n      dup1\n      swap3\n      swap2\n      swap1\n      dup2\n      dup2\n      mstore\n      0x20\n      add\n      dup3\n      dup1\n      sload\n      tag_53\n      swap1\n      tag_52\n      jump\t// in\n    tag_53:\n      dup1\n      iszero\n      tag_54\n      jumpi\n      dup1\n      0x1f\n      lt\n      tag_55\n      jumpi\n      0x0100\n      dup1\n      dup4\n      sload\n      div\n      mul\n      dup4\n      mstore\n      swap2\n      0x20\n      add\n      swap2\n      jump(tag_54)\n    tag_55:\n      dup3\n      add\n      swap2\n      swap1\n      0x00\n      mstore\n      keccak256(0x00, 0x20)\n      swap1\n    tag_56:\n      dup2\n      sload\n      dup2\n      mstore\n      swap1\n      0x01\n      add\n      swap1\n      0x20\n      add\n      dup1\n      dup4\n      gt\n      tag_56\n      jumpi\n      dup3\n      swap1\n      sub\n      0x1f\n      and\n      dup3\n      add\n      swap2\n    tag_54:\n      pop\n      pop\n      pop\n      pop\n      pop\n      swap1\n      dup1\n      0x02\n      add\n      dup1\n      sload\n      tag_57\n      swap1\n      tag_52\n      jump\t// in\n    tag_57:\n      dup1\n      0x1f\n      add\n      0x20\n      dup1\n      swap2\n      div\n      mul\n      0x20\n      add\n      mload(0x40)\n      swap1\n      dup2\n      add\n      0x40\n      mstore\n      dup1\n      swap3\n      swap2\n      swap1\n      dup2\n      dup2\n      mstore\n      0x20\n      add\n      dup3\n      dup1\n      sload\n      tag_58\n      swap1\n      tag_52\n      jump\t// in\n    tag_58:\n      dup1\n      iszero\n      tag_59\n      jumpi\n      dup1\n      0x1f\n      lt\n      tag_60\n      jumpi\n      0x0100\n      dup1\n      dup4\n      sload\n      div\n      mul\n      dup4\n      mstore\n      swap2\n      0x20\n      add\n      swap2\n      jump(tag_59)\n    tag_60:\n      dup3\n      add\n      swap2\n      swap1\n      0x00\n      mstore\n      keccak256(0x00, 0x20)\n      swap1\n    tag_61:\n      dup2\n      sload\n      dup2\n      mstore\n      swap1\n      0x01\n      add\n      swap1\n      0x20\n      add\n      dup1\n      dup4\n      gt\n      tag_61\n      jumpi\n      dup3\n      swap1\n      sub\n      0x1f\n      and\n      dup3\n      add\n      swap2\n    tag_59:\n      pop\n      pop\n      pop\n      pop\n      pop\n      swap1\n      dup1\n      0x03\n      add\n      0x00\n      swap1\n      sload\n      swap1\n      0x0100\n      exp\n      swap1\n      div\n      0xff\n      and\n      swap1\n      pop\n      dup5\n      jump\t// out\n        /* \"ToDoApp.sol\":2108:2212  function setAsUndone(uint id) public todoCount {... */\n    tag_24:\n        /* \"ToDoApp.sol\":780:781  0 */\n      0x00\n        /* \"ToDoApp.sol\":758:765  counter */\n      0x01\n        /* \"ToDoApp.sol\":758:777  counter[msg.sender] */\n      0x00\n        /* \"ToDoApp.sol\":766:776  msg.sender */\n      caller\n        /* \"ToDoApp.sol\":758:777  counter[msg.sender] */\n      0xffffffffffffffffffffffffffffffffffffffff\n      and\n      0xffffffffffffffffffffffffffffffffffffffff\n      and\n      dup2\n      mstore\n      0x20\n      add\n      swap1\n      dup2\n      mstore\n      0x20\n      add\n      0x00\n      keccak256\n      sload\n        /* \"ToDoApp.sol\":758:781  counter[msg.sender] > 0 */\n      gt\n        /* \"ToDoApp.sol\":750:801  require(counter[msg.sender] > 0, \"No todos found.\") */\n      tag_63\n      jumpi\n      mload(0x40)\n      0x08c379a000000000000000000000000000000000000000000000000000000000\n      dup2\n      mstore\n      0x04\n      add\n      tag_64\n      swap1\n      tag_65\n      jump\t// in\n    tag_64:\n      mload(0x40)\n      dup1\n      swap2\n      sub\n      swap1\n      revert\n    tag_63:\n        /* \"ToDoApp.sol\":2200:2205  false */\n      0x00\n        /* \"ToDoApp.sol\":2165:2170  todos */\n      dup1\n        /* \"ToDoApp.sol\":2165:2182  todos[msg.sender] */\n      0x00\n        /* \"ToDoApp.sol\":2171:2181  msg.sender */\n      caller\n        /* \"ToDoApp.sol\":2165:2182  todos[msg.sender] */\n      0xffffffffffffffffffffffffffffffffffffffff\n      and\n      0xffffffffffffffffffffffffffffffffffffffff\n      and\n      dup2\n      mstore\n      0x20\n      add\n      swap1\n      dup2\n      mstore\n      0x20\n      add\n      0x00\n      keccak256\n        /* \"ToDoApp.sol\":2188:2189  1 */\n      0x01\n        /* \"ToDoApp.sol\":2183:2185  id */\n      dup4\n        /* \"ToDoApp.sol\":2183:2189  id - 1 */\n      tag_67\n      swap2\n      swap1\n      tag_68\n      jump\t// in\n    tag_67:\n        /* \"ToDoApp.sol\":2165:2190  todos[msg.sender][id - 1] */\n      dup2\n      sload\n      dup2\n      lt\n      tag_69\n      jumpi\n      tag_70\n      tag_71\n      jump\t// in\n    tag_70:\n    tag_69:\n      swap1\n      0x00\n      mstore\n      keccak256(0x00, 0x20)\n      swap1\n      0x04\n      mul\n      add\n        /* \"ToDoApp.sol\":2165:2197  todos[msg.sender][id - 1].status */\n      0x03\n      add\n      0x00\n        /* \"ToDoApp.sol\":2165:2205  todos[msg.sender][id - 1].status = false */\n      0x0100\n      exp\n      dup2\n      sload\n      dup2\n      0xff\n      mul\n      not\n      and\n      swap1\n      dup4\n      iszero\n      iszero\n      mul\n      or\n      swap1\n      sstore\n      pop\n        /* \"ToDoApp.sol\":2108:2212  function setAsUndone(uint id) public todoCount {... */\n      pop\n      jump\t// out\n        /* \"ToDoApp.sol\":532:574  mapping(address => uint256) public counter */\n    tag_28:\n      mstore(0x20, 0x01)\n      dup1\n      0x00\n      mstore\n      keccak256(0x00, 0x40)\n      0x00\n      swap2\n      pop\n      swap1\n      pop\n      sload\n      dup2\n      jump\t// out\n        /* \"ToDoApp.sol\":1652:1741  function getAmount() view public returns(uint){... */\n    tag_32:\n        /* \"ToDoApp.sol\":1693:1697  uint */\n      0x00\n        /* \"ToDoApp.sol\":1715:1722  counter */\n      0x01\n        /* \"ToDoApp.sol\":1715:1734  counter[msg.sender] */\n      0x00\n        /* \"ToDoApp.sol\":1723:1733  msg.sender */\n      caller\n        /* \"ToDoApp.sol\":1715:1734  counter[msg.sender] */\n      0xffffffffffffffffffffffffffffffffffffffff\n      and\n      0xffffffffffffffffffffffffffffffffffffffff\n      and\n      dup2\n      mstore\n      0x20\n      add\n      swap1\n      dup2\n      mstore\n      0x20\n      add\n      0x00\n      keccak256\n      sload\n        /* \"ToDoApp.sol\":1708:1734  return counter[msg.sender] */\n      swap1\n      pop\n        /* \"ToDoApp.sol\":1652:1741  function getAmount() view public returns(uint){... */\n      swap1\n      jump\t// out\n        /* \"ToDoApp.sol\":1406:1602  function getTodo(uint id) view public todoCount returns(ToDo memory) {... */\n    tag_36:\n        /* \"ToDoApp.sol\":1462:1473  ToDo memory */\n      tag_74\n      tag_75\n      jump\t// in\n    tag_74:\n        /* \"ToDoApp.sol\":780:781  0 */\n      0x00\n        /* \"ToDoApp.sol\":758:765  counter */\n      0x01\n        /* \"ToDoApp.sol\":758:777  counter[msg.sender] */\n      0x00\n        /* \"ToDoApp.sol\":766:776  msg.sender */\n      caller\n        /* \"ToDoApp.sol\":758:777  counter[msg.sender] */\n      0xffffffffffffffffffffffffffffffffffffffff\n      and\n      0xffffffffffffffffffffffffffffffffffffffff\n      and\n      dup2\n      mstore\n      0x20\n      add\n      swap1\n      dup2\n      mstore\n      0x20\n      add\n      0x00\n      keccak256\n      sload\n        /* \"ToDoApp.sol\":758:781  counter[msg.sender] > 0 */\n      gt\n        /* \"ToDoApp.sol\":750:801  require(counter[msg.sender] > 0, \"No todos found.\") */\n      tag_77\n      jumpi\n      mload(0x40)\n      0x08c379a000000000000000000000000000000000000000000000000000000000\n      dup2\n      mstore\n      0x04\n      add\n      tag_78\n      swap1\n      tag_65\n      jump\t// in\n    tag_78:\n      mload(0x40)\n      dup1\n      swap2\n      sub\n      swap1\n      revert\n    tag_77:\n        /* \"ToDoApp.sol\":1499:1506  counter */\n      0x01\n        /* \"ToDoApp.sol\":1499:1518  counter[msg.sender] */\n      0x00\n        /* \"ToDoApp.sol\":1507:1517  msg.sender */\n      caller\n        /* \"ToDoApp.sol\":1499:1518  counter[msg.sender] */\n      0xffffffffffffffffffffffffffffffffffffffff\n      and\n      0xffffffffffffffffffffffffffffffffffffffff\n      and\n      dup2\n      mstore\n      0x20\n      add\n      swap1\n      dup2\n      mstore\n      0x20\n      add\n      0x00\n      keccak256\n      sload\n        /* \"ToDoApp.sol\":1493:1495  id */\n      dup3\n        /* \"ToDoApp.sol\":1493:1518  id <= counter[msg.sender] */\n      gt\n      iszero\n        /* \"ToDoApp.sol\":1485:1553  require(id <= counter[msg.sender], \"Todo with current ID not found\") */\n      tag_80\n      jumpi\n      mload(0x40)\n      0x08c379a000000000000000000000000000000000000000000000000000000000\n      dup2\n      mstore\n      0x04\n      add\n      tag_81\n      swap1\n      tag_82\n      jump\t// in\n    tag_81:\n      mload(0x40)\n      dup1\n      swap2\n      sub\n      swap1\n      revert\n    tag_80:\n        /* \"ToDoApp.sol\":1570:1575  todos */\n      0x00\n        /* \"ToDoApp.sol\":1570:1587  todos[msg.sender] */\n      dup1\n        /* \"ToDoApp.sol\":1576:1586  msg.sender */\n      caller\n        /* \"ToDoApp.sol\":1570:1587  todos[msg.sender] */\n      0xffffffffffffffffffffffffffffffffffffffff\n      and\n      0xffffffffffffffffffffffffffffffffffffffff\n      and\n      dup2\n      mstore\n      0x20\n      add\n      swap1\n      dup2\n      mstore\n      0x20\n      add\n      0x00\n      keccak256\n        /* \"ToDoApp.sol\":1593:1594  1 */\n      0x01\n        /* \"ToDoApp.sol\":1588:1590  id */\n      dup4\n        /* \"ToDoApp.sol\":1588:1594  id - 1 */\n      tag_83\n      swap2\n      swap1\n      tag_68\n      jump\t// in\n    tag_83:\n        /* \"ToDoApp.sol\":1570:1595  todos[msg.sender][id - 1] */\n      dup2\n      sload\n      dup2\n      lt\n      tag_84\n      jumpi\n      tag_85\n      tag_71\n      jump\t// in\n    tag_85:\n    tag_84:\n      swap1\n      0x00\n      mstore\n      keccak256(0x00, 0x20)\n      swap1\n      0x04\n      mul\n      add\n        /* \"ToDoApp.sol\":1563:1595  return todos[msg.sender][id - 1] */\n      mload(0x40)\n      dup1\n      0x80\n      add\n      0x40\n      mstore\n      swap1\n      dup2\n      0x00\n      dup3\n      add\n      sload\n      dup2\n      mstore\n      0x20\n      add\n      0x01\n      dup3\n      add\n      dup1\n      sload\n      tag_87\n      swap1\n      tag_52\n      jump\t// in\n    tag_87:\n      dup1\n      0x1f\n      add\n      0x20\n      dup1\n      swap2\n      div\n      mul\n      0x20\n      add\n      mload(0x40)\n      swap1\n      dup2\n      add\n      0x40\n      mstore\n      dup1\n      swap3\n      swap2\n      swap1\n      dup2\n      dup2\n      mstore\n      0x20\n      add\n      dup3\n      dup1\n      sload\n      tag_88\n      swap1\n      tag_52\n      jump\t// in\n    tag_88:\n      dup1\n      iszero\n      tag_89\n      jumpi\n      dup1\n      0x1f\n      lt\n      tag_90\n      jumpi\n      0x0100\n      dup1\n      dup4\n      sload\n      div\n      mul\n      dup4\n      mstore\n      swap2\n      0x20\n      add\n      swap2\n      jump(tag_89)\n    tag_90:\n      dup3\n      add\n      swap2\n      swap1\n      0x00\n      mstore\n      keccak256(0x00, 0x20)\n      swap1\n    tag_91:\n      dup2\n      sload\n      dup2\n      mstore\n      swap1\n      0x01\n      add\n      swap1\n      0x20\n      add\n      dup1\n      dup4\n      gt\n      tag_91\n      jumpi\n      dup3\n      swap1\n      sub\n      0x1f\n      and\n      dup3\n      add\n      swap2\n    tag_89:\n      pop\n      pop\n      pop\n      pop\n      pop\n      dup2\n      mstore\n      0x20\n      add\n      0x02\n      dup3\n      add\n      dup1\n      sload\n      tag_92\n      swap1\n      tag_52\n      jump\t// in\n    tag_92:\n      dup1\n      0x1f\n      add\n      0x20\n      dup1\n      swap2\n      div\n      mul\n      0x20\n      add\n      mload(0x40)\n      swap1\n      dup2\n      add\n      0x40\n      mstore\n      dup1\n      swap3\n      swap2\n      swap1\n      dup2\n      dup2\n      mstore\n      0x20\n      add\n      dup3\n      dup1\n      sload\n      tag_93\n      swap1\n      tag_52\n      jump\t// in\n    tag_93:\n      dup1\n      iszero\n      tag_94\n      jumpi\n      dup1\n      0x1f\n      lt\n      tag_95\n      jumpi\n      0x0100\n      dup1\n      dup4\n      sload\n      div\n      mul\n      dup4\n      mstore\n      swap2\n      0x20\n      add\n      swap2\n      jump(tag_94)\n    tag_95:\n      dup3\n      add\n      swap2\n      swap1\n      0x00\n      mstore\n      keccak256(0x00, 0x20)\n      swap1\n    tag_96:\n      dup2\n      sload\n      dup2\n      mstore\n      swap1\n      0x01\n      add\n      swap1\n      0x20\n      add\n      dup1\n      dup4\n      gt\n      tag_96\n      jumpi\n      dup3\n      swap1\n      sub\n      0x1f\n      and\n      dup3\n      add\n      swap2\n    tag_94:\n      pop\n      pop\n      pop\n      pop\n      pop\n      dup2\n      mstore\n      0x20\n      add\n      0x03\n      dup3\n      add\n      0x00\n      swap1\n      sload\n      swap1\n      0x0100\n      exp\n      swap1\n      div\n      0xff\n      and\n      iszero\n      iszero\n      iszero\n      iszero\n      dup2\n      mstore\n      pop\n      pop\n      swap1\n      pop\n        /* \"ToDoApp.sol\":1406:1602  function getTodo(uint id) view public todoCount returns(ToDo memory) {... */\n      swap2\n      swap1\n      pop\n      jump\t// out\n        /* \"ToDoApp.sol\":1873:1974  function setAsDone(uint id) public todoCount {... */\n    tag_41:\n        /* \"ToDoApp.sol\":780:781  0 */\n      0x00\n        /* \"ToDoApp.sol\":758:765  counter */\n      0x01\n        /* \"ToDoApp.sol\":758:777  counter[msg.sender] */\n      0x00\n        /* \"ToDoApp.sol\":766:776  msg.sender */\n      caller\n        /* \"ToDoApp.sol\":758:777  counter[msg.sender] */\n      0xffffffffffffffffffffffffffffffffffffffff\n      and\n      0xffffffffffffffffffffffffffffffffffffffff\n      and\n      dup2\n      mstore\n      0x20\n      add\n      swap1\n      dup2\n      mstore\n      0x20\n      add\n      0x00\n      keccak256\n      sload\n        /* \"ToDoApp.sol\":758:781  counter[msg.sender] > 0 */\n      gt\n        /* \"ToDoApp.sol\":750:801  require(counter[msg.sender] > 0, \"No todos found.\") */\n      tag_98\n      jumpi\n      mload(0x40)\n      0x08c379a000000000000000000000000000000000000000000000000000000000\n      dup2\n      mstore\n      0x04\n      add\n      tag_99\n      swap1\n      tag_65\n      jump\t// in\n    tag_99:\n      mload(0x40)\n      dup1\n      swap2\n      sub\n      swap1\n      revert\n    tag_98:\n        /* \"ToDoApp.sol\":1963:1967  true */\n      0x01\n        /* \"ToDoApp.sol\":1928:1933  todos */\n      0x00\n        /* \"ToDoApp.sol\":1928:1945  todos[msg.sender] */\n      dup1\n        /* \"ToDoApp.sol\":1934:1944  msg.sender */\n      caller\n        /* \"ToDoApp.sol\":1928:1945  todos[msg.sender] */\n      0xffffffffffffffffffffffffffffffffffffffff\n      and\n      0xffffffffffffffffffffffffffffffffffffffff\n      and\n      dup2\n      mstore\n      0x20\n      add\n      swap1\n      dup2\n      mstore\n      0x20\n      add\n      0x00\n      keccak256\n        /* \"ToDoApp.sol\":1951:1952  1 */\n      0x01\n        /* \"ToDoApp.sol\":1946:1948  id */\n      dup4\n        /* \"ToDoApp.sol\":1946:1952  id - 1 */\n      tag_101\n      swap2\n      swap1\n      tag_68\n      jump\t// in\n    tag_101:\n        /* \"ToDoApp.sol\":1928:1953  todos[msg.sender][id - 1] */\n      dup2\n      sload\n      dup2\n      lt\n      tag_102\n      jumpi\n      tag_103\n      tag_71\n      jump\t// in\n    tag_103:\n    tag_102:\n      swap1\n      0x00\n      mstore\n      keccak256(0x00, 0x20)\n      swap1\n      0x04\n      mul\n      add\n        /* \"ToDoApp.sol\":1928:1960  todos[msg.sender][id - 1].status */\n      0x03\n      add\n      0x00\n        /* \"ToDoApp.sol\":1928:1967  todos[msg.sender][id - 1].status = true */\n      0x0100\n      exp\n      dup2\n      sload\n      dup2\n      0xff\n      mul\n      not\n      and\n      swap1\n      dup4\n      iszero\n      iszero\n      mul\n      or\n      swap1\n      sstore\n      pop\n        /* \"ToDoApp.sol\":1873:1974  function setAsDone(uint id) public todoCount {... */\n      pop\n      jump\t// out\n    tag_47:\n      dup3\n      dup1\n      sload\n      tag_105\n      swap1\n      tag_52\n      jump\t// in\n    tag_105:\n      swap1\n      0x00\n      mstore\n      keccak256(0x00, 0x20)\n      swap1\n      0x1f\n      add\n      0x20\n      swap1\n      div\n      dup2\n      add\n      swap3\n      dup3\n      tag_107\n      jumpi\n      0x00\n      dup6\n      sstore\n      jump(tag_106)\n    tag_107:\n      dup3\n      0x1f\n      lt\n      tag_108\n      jumpi\n      dup1\n      mload\n      not(0xff)\n      and\n      dup4\n      dup1\n      add\n      or\n      dup6\n      sstore\n      jump(tag_106)\n    tag_108:\n      dup3\n      dup1\n      add\n      0x01\n      add\n      dup6\n      sstore\n      dup3\n      iszero\n      tag_106\n      jumpi\n      swap2\n      dup3\n      add\n    tag_109:\n      dup3\n      dup2\n      gt\n      iszero\n      tag_110\n      jumpi\n      dup3\n      mload\n      dup3\n      sstore\n      swap2\n      0x20\n      add\n      swap2\n      swap1\n      0x01\n      add\n      swap1\n      jump(tag_109)\n    tag_110:\n    tag_106:\n      pop\n      swap1\n      pop\n      tag_111\n      swap2\n      swap1\n      tag_112\n      jump\t// in\n    tag_111:\n      pop\n      swap1\n      jump\t// out\n    tag_75:\n      mload(0x40)\n      dup1\n      0x80\n      add\n      0x40\n      mstore\n      dup1\n      0x00\n      dup2\n      mstore\n      0x20\n      add\n      0x60\n      dup2\n      mstore\n      0x20\n      add\n      0x60\n      dup2\n      mstore\n      0x20\n      add\n      iszero(iszero(0x00))\n      dup2\n      mstore\n      pop\n      swap1\n      jump\t// out\n    tag_112:\n    tag_113:\n      dup1\n      dup3\n      gt\n      iszero\n      tag_114\n      jumpi\n      0x00\n      dup2\n      0x00\n      swap1\n      sstore\n      pop\n      0x01\n      add\n      jump(tag_113)\n    tag_114:\n      pop\n      swap1\n      jump\t// out\n        /* \"#utility.yul\":7:419   */\n    tag_116:\n        /* \"#utility.yul\":85:90   */\n      0x00\n        /* \"#utility.yul\":110:176   */\n      tag_118\n        /* \"#utility.yul\":126:175   */\n      tag_119\n        /* \"#utility.yul\":168:174   */\n      dup5\n        /* \"#utility.yul\":126:175   */\n      tag_120\n      jump\t// in\n    tag_119:\n        /* \"#utility.yul\":110:176   */\n      tag_121\n      jump\t// in\n    tag_118:\n        /* \"#utility.yul\":101:176   */\n      swap1\n      pop\n        /* \"#utility.yul\":199:205   */\n      dup3\n        /* \"#utility.yul\":192:197   */\n      dup2\n        /* \"#utility.yul\":185:206   */\n      mstore\n        /* \"#utility.yul\":237:241   */\n      0x20\n        /* \"#utility.yul\":230:235   */\n      dup2\n        /* \"#utility.yul\":226:242   */\n      add\n        /* \"#utility.yul\":275:278   */\n      dup5\n        /* \"#utility.yul\":266:272   */\n      dup5\n        /* \"#utility.yul\":261:264   */\n      dup5\n        /* \"#utility.yul\":257:273   */\n      add\n        /* \"#utility.yul\":254:279   */\n      gt\n        /* \"#utility.yul\":251:363   */\n      iszero\n      tag_122\n      jumpi\n        /* \"#utility.yul\":282:361   */\n      tag_123\n      tag_124\n      jump\t// in\n    tag_123:\n        /* \"#utility.yul\":251:363   */\n    tag_122:\n        /* \"#utility.yul\":372:413   */\n      tag_125\n        /* \"#utility.yul\":406:412   */\n      dup5\n        /* \"#utility.yul\":401:404   */\n      dup3\n        /* \"#utility.yul\":396:399   */\n      dup6\n        /* \"#utility.yul\":372:413   */\n      tag_126\n      jump\t// in\n    tag_125:\n        /* \"#utility.yul\":91:419   */\n      pop\n        /* \"#utility.yul\":7:419   */\n      swap4\n      swap3\n      pop\n      pop\n      pop\n      jump\t// out\n        /* \"#utility.yul\":425:564   */\n    tag_127:\n        /* \"#utility.yul\":471:476   */\n      0x00\n        /* \"#utility.yul\":509:515   */\n      dup2\n        /* \"#utility.yul\":496:516   */\n      calldataload\n        /* \"#utility.yul\":487:516   */\n      swap1\n      pop\n        /* \"#utility.yul\":525:558   */\n      tag_129\n        /* \"#utility.yul\":552:557   */\n      dup2\n        /* \"#utility.yul\":525:558   */\n      tag_130\n      jump\t// in\n    tag_129:\n        /* \"#utility.yul\":425:564   */\n      swap3\n      swap2\n      pop\n      pop\n      jump\t// out\n        /* \"#utility.yul\":584:924   */\n    tag_131:\n        /* \"#utility.yul\":640:645   */\n      0x00\n        /* \"#utility.yul\":689:692   */\n      dup3\n        /* \"#utility.yul\":682:686   */\n      0x1f\n        /* \"#utility.yul\":674:680   */\n      dup4\n        /* \"#utility.yul\":670:687   */\n      add\n        /* \"#utility.yul\":666:693   */\n      slt\n        /* \"#utility.yul\":656:778   */\n      tag_133\n      jumpi\n        /* \"#utility.yul\":697:776   */\n      tag_134\n      tag_135\n      jump\t// in\n    tag_134:\n        /* \"#utility.yul\":656:778   */\n    tag_133:\n        /* \"#utility.yul\":814:820   */\n      dup2\n        /* \"#utility.yul\":801:821   */\n      calldataload\n        /* \"#utility.yul\":839:918   */\n      tag_136\n        /* \"#utility.yul\":914:917   */\n      dup5\n        /* \"#utility.yul\":906:912   */\n      dup3\n        /* \"#utility.yul\":899:903   */\n      0x20\n        /* \"#utility.yul\":891:897   */\n      dup7\n        /* \"#utility.yul\":887:904   */\n      add\n        /* \"#utility.yul\":839:918   */\n      tag_116\n      jump\t// in\n    tag_136:\n        /* \"#utility.yul\":830:918   */\n      swap2\n      pop\n        /* \"#utility.yul\":646:924   */\n      pop\n        /* \"#utility.yul\":584:924   */\n      swap3\n      swap2\n      pop\n      pop\n      jump\t// out\n        /* \"#utility.yul\":930:1069   */\n    tag_137:\n        /* \"#utility.yul\":976:981   */\n      0x00\n        /* \"#utility.yul\":1014:1020   */\n      dup2\n        /* \"#utility.yul\":1001:1021   */\n      calldataload\n        /* \"#utility.yul\":992:1021   */\n      swap1\n      pop\n        /* \"#utility.yul\":1030:1063   */\n      tag_139\n        /* \"#utility.yul\":1057:1062   */\n      dup2\n        /* \"#utility.yul\":1030:1063   */\n      tag_140\n      jump\t// in\n    tag_139:\n        /* \"#utility.yul\":930:1069   */\n      swap3\n      swap2\n      pop\n      pop\n      jump\t// out\n        /* \"#utility.yul\":1075:1404   */\n    tag_27:\n        /* \"#utility.yul\":1134:1140   */\n      0x00\n        /* \"#utility.yul\":1183:1185   */\n      0x20\n        /* \"#utility.yul\":1171:1180   */\n      dup3\n        /* \"#utility.yul\":1162:1169   */\n      dup5\n        /* \"#utility.yul\":1158:1181   */\n      sub\n        /* \"#utility.yul\":1154:1186   */\n      slt\n        /* \"#utility.yul\":1151:1270   */\n      iszero\n      tag_142\n      jumpi\n        /* \"#utility.yul\":1189:1268   */\n      tag_143\n      tag_144\n      jump\t// in\n    tag_143:\n        /* \"#utility.yul\":1151:1270   */\n    tag_142:\n        /* \"#utility.yul\":1309:1310   */\n      0x00\n        /* \"#utility.yul\":1334:1387   */\n      tag_145\n        /* \"#utility.yul\":1379:1386   */\n      dup5\n        /* \"#utility.yul\":1370:1376   */\n      dup3\n        /* \"#utility.yul\":1359:1368   */\n      dup6\n        /* \"#utility.yul\":1355:1377   */\n      add\n        /* \"#utility.yul\":1334:1387   */\n      tag_127\n      jump\t// in\n    tag_145:\n        /* \"#utility.yul\":1324:1387   */\n      swap2\n      pop\n        /* \"#utility.yul\":1280:1397   */\n      pop\n        /* \"#utility.yul\":1075:1404   */\n      swap3\n      swap2\n      pop\n      pop\n      jump\t// out\n        /* \"#utility.yul\":1410:1884   */\n    tag_17:\n        /* \"#utility.yul\":1478:1484   */\n      0x00\n        /* \"#utility.yul\":1486:1492   */\n      dup1\n        /* \"#utility.yul\":1535:1537   */\n      0x40\n        /* \"#utility.yul\":1523:1532   */\n      dup4\n        /* \"#utility.yul\":1514:1521   */\n      dup6\n        /* \"#utility.yul\":1510:1533   */\n      sub\n        /* \"#utility.yul\":1506:1538   */\n      slt\n        /* \"#utility.yul\":1503:1622   */\n      iszero\n      tag_147\n      jumpi\n        /* \"#utility.yul\":1541:1620   */\n      tag_148\n      tag_144\n      jump\t// in\n    tag_148:\n        /* \"#utility.yul\":1503:1622   */\n    tag_147:\n        /* \"#utility.yul\":1661:1662   */\n      0x00\n        /* \"#utility.yul\":1686:1739   */\n      tag_149\n        /* \"#utility.yul\":1731:1738   */\n      dup6\n        /* \"#utility.yul\":1722:1728   */\n      dup3\n        /* \"#utility.yul\":1711:1720   */\n      dup7\n        /* \"#utility.yul\":1707:1729   */\n      add\n        /* \"#utility.yul\":1686:1739   */\n      tag_127\n      jump\t// in\n    tag_149:\n        /* \"#utility.yul\":1676:1739   */\n      swap3\n      pop\n        /* \"#utility.yul\":1632:1749   */\n      pop\n        /* \"#utility.yul\":1788:1790   */\n      0x20\n        /* \"#utility.yul\":1814:1867   */\n      tag_150\n        /* \"#utility.yul\":1859:1866   */\n      dup6\n        /* \"#utility.yul\":1850:1856   */\n      dup3\n        /* \"#utility.yul\":1839:1848   */\n      dup7\n        /* \"#utility.yul\":1835:1857   */\n      add\n        /* \"#utility.yul\":1814:1867   */\n      tag_137\n      jump\t// in\n    tag_150:\n        /* \"#utility.yul\":1804:1867   */\n      swap2\n      pop\n        /* \"#utility.yul\":1759:1877   */\n      pop\n        /* \"#utility.yul\":1410:1884   */\n      swap3\n      pop\n      swap3\n      swap1\n      pop\n      jump\t// out\n        /* \"#utility.yul\":1890:2724   */\n    tag_13:\n        /* \"#utility.yul\":1978:1984   */\n      0x00\n        /* \"#utility.yul\":1986:1992   */\n      dup1\n        /* \"#utility.yul\":2035:2037   */\n      0x40\n        /* \"#utility.yul\":2023:2032   */\n      dup4\n        /* \"#utility.yul\":2014:2021   */\n      dup6\n        /* \"#utility.yul\":2010:2033   */\n      sub\n        /* \"#utility.yul\":2006:2038   */\n      slt\n        /* \"#utility.yul\":2003:2122   */\n      iszero\n      tag_152\n      jumpi\n        /* \"#utility.yul\":2041:2120   */\n      tag_153\n      tag_144\n      jump\t// in\n    tag_153:\n        /* \"#utility.yul\":2003:2122   */\n    tag_152:\n        /* \"#utility.yul\":2189:2190   */\n      0x00\n        /* \"#utility.yul\":2178:2187   */\n      dup4\n        /* \"#utility.yul\":2174:2191   */\n      add\n        /* \"#utility.yul\":2161:2192   */\n      calldataload\n        /* \"#utility.yul\":2219:2237   */\n      0xffffffffffffffff\n        /* \"#utility.yul\":2211:2217   */\n      dup2\n        /* \"#utility.yul\":2208:2238   */\n      gt\n        /* \"#utility.yul\":2205:2322   */\n      iszero\n      tag_154\n      jumpi\n        /* \"#utility.yul\":2241:2320   */\n      tag_155\n      tag_156\n      jump\t// in\n    tag_155:\n        /* \"#utility.yul\":2205:2322   */\n    tag_154:\n        /* \"#utility.yul\":2346:2409   */\n      tag_157\n        /* \"#utility.yul\":2401:2408   */\n      dup6\n        /* \"#utility.yul\":2392:2398   */\n      dup3\n        /* \"#utility.yul\":2381:2390   */\n      dup7\n        /* \"#utility.yul\":2377:2399   */\n      add\n        /* \"#utility.yul\":2346:2409   */\n      tag_131\n      jump\t// in\n    tag_157:\n        /* \"#utility.yul\":2336:2409   */\n      swap3\n      pop\n        /* \"#utility.yul\":2132:2419   */\n      pop\n        /* \"#utility.yul\":2486:2488   */\n      0x20\n        /* \"#utility.yul\":2475:2484   */\n      dup4\n        /* \"#utility.yul\":2471:2489   */\n      add\n        /* \"#utility.yul\":2458:2490   */\n      calldataload\n        /* \"#utility.yul\":2517:2535   */\n      0xffffffffffffffff\n        /* \"#utility.yul\":2509:2515   */\n      dup2\n        /* \"#utility.yul\":2506:2536   */\n      gt\n        /* \"#utility.yul\":2503:2620   */\n      iszero\n      tag_158\n      jumpi\n        /* \"#utility.yul\":2539:2618   */\n      tag_159\n      tag_156\n      jump\t// in\n    tag_159:\n        /* \"#utility.yul\":2503:2620   */\n    tag_158:\n        /* \"#utility.yul\":2644:2707   */\n      tag_160\n        /* \"#utility.yul\":2699:2706   */\n      dup6\n        /* \"#utility.yul\":2690:2696   */\n      dup3\n        /* \"#utility.yul\":2679:2688   */\n      dup7\n        /* \"#utility.yul\":2675:2697   */\n      add\n        /* \"#utility.yul\":2644:2707   */\n      tag_131\n      jump\t// in\n    tag_160:\n        /* \"#utility.yul\":2634:2707   */\n      swap2\n      pop\n        /* \"#utility.yul\":2429:2717   */\n      pop\n        /* \"#utility.yul\":1890:2724   */\n      swap3\n      pop\n      swap3\n      swap1\n      pop\n      jump\t// out\n        /* \"#utility.yul\":2730:3059   */\n    tag_23:\n        /* \"#utility.yul\":2789:2795   */\n      0x00\n        /* \"#utility.yul\":2838:2840   */\n      0x20\n        /* \"#utility.yul\":2826:2835   */\n      dup3\n        /* \"#utility.yul\":2817:2824   */\n      dup5\n        /* \"#utility.yul\":2813:2836   */\n      sub\n        /* \"#utility.yul\":2809:2841   */\n      slt\n        /* \"#utility.yul\":2806:2925   */\n      iszero\n      tag_162\n      jumpi\n        /* \"#utility.yul\":2844:2923   */\n      tag_163\n      tag_144\n      jump\t// in\n    tag_163:\n        /* \"#utility.yul\":2806:2925   */\n    tag_162:\n        /* \"#utility.yul\":2964:2965   */\n      0x00\n        /* \"#utility.yul\":2989:3042   */\n      tag_164\n        /* \"#utility.yul\":3034:3041   */\n      dup5\n        /* \"#utility.yul\":3025:3031   */\n      dup3\n        /* \"#utility.yul\":3014:3023   */\n      dup6\n        /* \"#utility.yul\":3010:3032   */\n      add\n        /* \"#utility.yul\":2989:3042   */\n      tag_137\n      jump\t// in\n    tag_164:\n        /* \"#utility.yul\":2979:3042   */\n      swap2\n      pop\n        /* \"#utility.yul\":2935:3052   */\n      pop\n        /* \"#utility.yul\":2730:3059   */\n      swap3\n      swap2\n      pop\n      pop\n      jump\t// out\n        /* \"#utility.yul\":3065:3164   */\n    tag_165:\n        /* \"#utility.yul\":3136:3157   */\n      tag_167\n        /* \"#utility.yul\":3151:3156   */\n      dup2\n        /* \"#utility.yul\":3136:3157   */\n      tag_168\n      jump\t// in\n    tag_167:\n        /* \"#utility.yul\":3131:3134   */\n      dup3\n        /* \"#utility.yul\":3124:3158   */\n      mstore\n        /* \"#utility.yul\":3065:3164   */\n      pop\n      pop\n      jump\t// out\n        /* \"#utility.yul\":3170:3279   */\n    tag_169:\n        /* \"#utility.yul\":3251:3272   */\n      tag_171\n        /* \"#utility.yul\":3266:3271   */\n      dup2\n        /* \"#utility.yul\":3251:3272   */\n      tag_168\n      jump\t// in\n    tag_171:\n        /* \"#utility.yul\":3246:3249   */\n      dup3\n        /* \"#utility.yul\":3239:3273   */\n      mstore\n        /* \"#utility.yul\":3170:3279   */\n      pop\n      pop\n      jump\t// out\n        /* \"#utility.yul\":3285:3629   */\n    tag_172:\n        /* \"#utility.yul\":3363:3366   */\n      0x00\n        /* \"#utility.yul\":3391:3430   */\n      tag_174\n        /* \"#utility.yul\":3424:3429   */\n      dup3\n        /* \"#utility.yul\":3391:3430   */\n      tag_175\n      jump\t// in\n    tag_174:\n        /* \"#utility.yul\":3446:3507   */\n      tag_176\n        /* \"#utility.yul\":3500:3506   */\n      dup2\n        /* \"#utility.yul\":3495:3498   */\n      dup6\n        /* \"#utility.yul\":3446:3507   */\n      tag_177\n      jump\t// in\n    tag_176:\n        /* \"#utility.yul\":3439:3507   */\n      swap4\n      pop\n        /* \"#utility.yul\":3516:3568   */\n      tag_178\n        /* \"#utility.yul\":3561:3567   */\n      dup2\n        /* \"#utility.yul\":3556:3559   */\n      dup6\n        /* \"#utility.yul\":3549:3553   */\n      0x20\n        /* \"#utility.yul\":3542:3547   */\n      dup7\n        /* \"#utility.yul\":3538:3554   */\n      add\n        /* \"#utility.yul\":3516:3568   */\n      tag_179\n      jump\t// in\n    tag_178:\n        /* \"#utility.yul\":3593:3622   */\n      tag_180\n        /* \"#utility.yul\":3615:3621   */\n      dup2\n        /* \"#utility.yul\":3593:3622   */\n      tag_181\n      jump\t// in\n    tag_180:\n        /* \"#utility.yul\":3588:3591   */\n      dup5\n        /* \"#utility.yul\":3584:3623   */\n      add\n        /* \"#utility.yul\":3577:3623   */\n      swap2\n      pop\n        /* \"#utility.yul\":3367:3629   */\n      pop\n        /* \"#utility.yul\":3285:3629   */\n      swap3\n      swap2\n      pop\n      pop\n      jump\t// out\n        /* \"#utility.yul\":3635:3999   */\n    tag_182:\n        /* \"#utility.yul\":3723:3726   */\n      0x00\n        /* \"#utility.yul\":3751:3790   */\n      tag_184\n        /* \"#utility.yul\":3784:3789   */\n      dup3\n        /* \"#utility.yul\":3751:3790   */\n      tag_175\n      jump\t// in\n    tag_184:\n        /* \"#utility.yul\":3806:3877   */\n      tag_185\n        /* \"#utility.yul\":3870:3876   */\n      dup2\n        /* \"#utility.yul\":3865:3868   */\n      dup6\n        /* \"#utility.yul\":3806:3877   */\n      tag_186\n      jump\t// in\n    tag_185:\n        /* \"#utility.yul\":3799:3877   */\n      swap4\n      pop\n        /* \"#utility.yul\":3886:3938   */\n      tag_187\n        /* \"#utility.yul\":3931:3937   */\n      dup2\n        /* \"#utility.yul\":3926:3929   */\n      dup6\n        /* \"#utility.yul\":3919:3923   */\n      0x20\n        /* \"#utility.yul\":3912:3917   */\n      dup7\n        /* \"#utility.yul\":3908:3924   */\n      add\n        /* \"#utility.yul\":3886:3938   */\n      tag_179\n      jump\t// in\n    tag_187:\n        /* \"#utility.yul\":3963:3992   */\n      tag_188\n        /* \"#utility.yul\":3985:3991   */\n      dup2\n        /* \"#utility.yul\":3963:3992   */\n      tag_181\n      jump\t// in\n    tag_188:\n        /* \"#utility.yul\":3958:3961   */\n      dup5\n        /* \"#utility.yul\":3954:3993   */\n      add\n        /* \"#utility.yul\":3947:3993   */\n      swap2\n      pop\n        /* \"#utility.yul\":3727:3999   */\n      pop\n        /* \"#utility.yul\":3635:3999   */\n      swap3\n      swap2\n      pop\n      pop\n      jump\t// out\n        /* \"#utility.yul\":4005:4371   */\n    tag_189:\n        /* \"#utility.yul\":4147:4150   */\n      0x00\n        /* \"#utility.yul\":4168:4235   */\n      tag_191\n        /* \"#utility.yul\":4232:4234   */\n      0x1e\n        /* \"#utility.yul\":4227:4230   */\n      dup4\n        /* \"#utility.yul\":4168:4235   */\n      tag_186\n      jump\t// in\n    tag_191:\n        /* \"#utility.yul\":4161:4235   */\n      swap2\n      pop\n        /* \"#utility.yul\":4244:4337   */\n      tag_192\n        /* \"#utility.yul\":4333:4336   */\n      dup3\n        /* \"#utility.yul\":4244:4337   */\n      tag_193\n      jump\t// in\n    tag_192:\n        /* \"#utility.yul\":4362:4364   */\n      0x20\n        /* \"#utility.yul\":4357:4360   */\n      dup3\n        /* \"#utility.yul\":4353:4365   */\n      add\n        /* \"#utility.yul\":4346:4365   */\n      swap1\n      pop\n        /* \"#utility.yul\":4005:4371   */\n      swap2\n      swap1\n      pop\n      jump\t// out\n        /* \"#utility.yul\":4377:4743   */\n    tag_194:\n        /* \"#utility.yul\":4519:4522   */\n      0x00\n        /* \"#utility.yul\":4540:4607   */\n      tag_196\n        /* \"#utility.yul\":4604:4606   */\n      0x0f\n        /* \"#utility.yul\":4599:4602   */\n      dup4\n        /* \"#utility.yul\":4540:4607   */\n      tag_186\n      jump\t// in\n    tag_196:\n        /* \"#utility.yul\":4533:4607   */\n      swap2\n      pop\n        /* \"#utility.yul\":4616:4709   */\n      tag_197\n        /* \"#utility.yul\":4705:4708   */\n      dup3\n        /* \"#utility.yul\":4616:4709   */\n      tag_198\n      jump\t// in\n    tag_197:\n        /* \"#utility.yul\":4734:4736   */\n      0x20\n        /* \"#utility.yul\":4729:4732   */\n      dup3\n        /* \"#utility.yul\":4725:4737   */\n      add\n        /* \"#utility.yul\":4718:4737   */\n      swap1\n      pop\n        /* \"#utility.yul\":4377:4743   */\n      swap2\n      swap1\n      pop\n      jump\t// out\n        /* \"#utility.yul\":4799:5811   */\n    tag_199:\n        /* \"#utility.yul\":4908:4911   */\n      0x00\n        /* \"#utility.yul\":4944:4948   */\n      0x80\n        /* \"#utility.yul\":4939:4942   */\n      dup4\n        /* \"#utility.yul\":4935:4949   */\n      add\n        /* \"#utility.yul\":5029:5033   */\n      0x00\n        /* \"#utility.yul\":5022:5027   */\n      dup4\n        /* \"#utility.yul\":5018:5034   */\n      add\n        /* \"#utility.yul\":5012:5035   */\n      mload\n        /* \"#utility.yul\":5048:5111   */\n      tag_201\n        /* \"#utility.yul\":5105:5109   */\n      0x00\n        /* \"#utility.yul\":5100:5103   */\n      dup7\n        /* \"#utility.yul\":5096:5110   */\n      add\n        /* \"#utility.yul\":5082:5094   */\n      dup3\n        /* \"#utility.yul\":5048:5111   */\n      tag_202\n      jump\t// in\n    tag_201:\n        /* \"#utility.yul\":4959:5121   */\n      pop\n        /* \"#utility.yul\":5203:5207   */\n      0x20\n        /* \"#utility.yul\":5196:5201   */\n      dup4\n        /* \"#utility.yul\":5192:5208   */\n      add\n        /* \"#utility.yul\":5186:5209   */\n      mload\n        /* \"#utility.yul\":5256:5259   */\n      dup5\n        /* \"#utility.yul\":5250:5254   */\n      dup3\n        /* \"#utility.yul\":5246:5260   */\n      sub\n        /* \"#utility.yul\":5239:5243   */\n      0x20\n        /* \"#utility.yul\":5234:5237   */\n      dup7\n        /* \"#utility.yul\":5230:5244   */\n      add\n        /* \"#utility.yul\":5223:5261   */\n      mstore\n        /* \"#utility.yul\":5282:5355   */\n      tag_203\n        /* \"#utility.yul\":5350:5354   */\n      dup3\n        /* \"#utility.yul\":5336:5348   */\n      dup3\n        /* \"#utility.yul\":5282:5355   */\n      tag_172\n      jump\t// in\n    tag_203:\n        /* \"#utility.yul\":5274:5355   */\n      swap2\n      pop\n        /* \"#utility.yul\":5131:5366   */\n      pop\n        /* \"#utility.yul\":5451:5455   */\n      0x40\n        /* \"#utility.yul\":5444:5449   */\n      dup4\n        /* \"#utility.yul\":5440:5456   */\n      add\n        /* \"#utility.yul\":5434:5457   */\n      mload\n        /* \"#utility.yul\":5504:5507   */\n      dup5\n        /* \"#utility.yul\":5498:5502   */\n      dup3\n        /* \"#utility.yul\":5494:5508   */\n      sub\n        /* \"#utility.yul\":5487:5491   */\n      0x40\n        /* \"#utility.yul\":5482:5485   */\n      dup7\n        /* \"#utility.yul\":5478:5492   */\n      add\n        /* \"#utility.yul\":5471:5509   */\n      mstore\n        /* \"#utility.yul\":5530:5603   */\n      tag_204\n        /* \"#utility.yul\":5598:5602   */\n      dup3\n        /* \"#utility.yul\":5584:5596   */\n      dup3\n        /* \"#utility.yul\":5530:5603   */\n      tag_172\n      jump\t// in\n    tag_204:\n        /* \"#utility.yul\":5522:5603   */\n      swap2\n      pop\n        /* \"#utility.yul\":5376:5614   */\n      pop\n        /* \"#utility.yul\":5698:5702   */\n      0x60\n        /* \"#utility.yul\":5691:5696   */\n      dup4\n        /* \"#utility.yul\":5687:5703   */\n      add\n        /* \"#utility.yul\":5681:5704   */\n      mload\n        /* \"#utility.yul\":5717:5774   */\n      tag_205\n        /* \"#utility.yul\":5768:5772   */\n      0x60\n        /* \"#utility.yul\":5763:5766   */\n      dup7\n        /* \"#utility.yul\":5759:5773   */\n      add\n        /* \"#utility.yul\":5745:5757   */\n      dup3\n        /* \"#utility.yul\":5717:5774   */\n      tag_165\n      jump\t// in\n    tag_205:\n        /* \"#utility.yul\":5624:5784   */\n      pop\n        /* \"#utility.yul\":5801:5805   */\n      dup1\n        /* \"#utility.yul\":5794:5805   */\n      swap2\n      pop\n        /* \"#utility.yul\":4913:5811   */\n      pop\n        /* \"#utility.yul\":4799:5811   */\n      swap3\n      swap2\n      pop\n      pop\n      jump\t// out\n        /* \"#utility.yul\":5817:5925   */\n    tag_202:\n        /* \"#utility.yul\":5894:5918   */\n      tag_207\n        /* \"#utility.yul\":5912:5917   */\n      dup2\n        /* \"#utility.yul\":5894:5918   */\n      tag_208\n      jump\t// in\n    tag_207:\n        /* \"#utility.yul\":5889:5892   */\n      dup3\n        /* \"#utility.yul\":5882:5919   */\n      mstore\n        /* \"#utility.yul\":5817:5925   */\n      pop\n      pop\n      jump\t// out\n        /* \"#utility.yul\":5931:6049   */\n    tag_209:\n        /* \"#utility.yul\":6018:6042   */\n      tag_211\n        /* \"#utility.yul\":6036:6041   */\n      dup2\n        /* \"#utility.yul\":6018:6042   */\n      tag_208\n      jump\t// in\n    tag_211:\n        /* \"#utility.yul\":6013:6016   */\n      dup3\n        /* \"#utility.yul\":6006:6043   */\n      mstore\n        /* \"#utility.yul\":5931:6049   */\n      pop\n      pop\n      jump\t// out\n        /* \"#utility.yul\":6055:6474   */\n    tag_82:\n        /* \"#utility.yul\":6221:6225   */\n      0x00\n        /* \"#utility.yul\":6259:6261   */\n      0x20\n        /* \"#utility.yul\":6248:6257   */\n      dup3\n        /* \"#utility.yul\":6244:6262   */\n      add\n        /* \"#utility.yul\":6236:6262   */\n      swap1\n      pop\n        /* \"#utility.yul\":6308:6317   */\n      dup2\n        /* \"#utility.yul\":6302:6306   */\n      dup2\n        /* \"#utility.yul\":6298:6318   */\n      sub\n        /* \"#utility.yul\":6294:6295   */\n      0x00\n        /* \"#utility.yul\":6283:6292   */\n      dup4\n        /* \"#utility.yul\":6279:6296   */\n      add\n        /* \"#utility.yul\":6272:6319   */\n      mstore\n        /* \"#utility.yul\":6336:6467   */\n      tag_213\n        /* \"#utility.yul\":6462:6466   */\n      dup2\n        /* \"#utility.yul\":6336:6467   */\n      tag_189\n      jump\t// in\n    tag_213:\n        /* \"#utility.yul\":6328:6467   */\n      swap1\n      pop\n        /* \"#utility.yul\":6055:6474   */\n      swap2\n      swap1\n      pop\n      jump\t// out\n        /* \"#utility.yul\":6480:6899   */\n    tag_65:\n        /* \"#utility.yul\":6646:6650   */\n      0x00\n        /* \"#utility.yul\":6684:6686   */\n      0x20\n        /* \"#utility.yul\":6673:6682   */\n      dup3\n        /* \"#utility.yul\":6669:6687   */\n      add\n        /* \"#utility.yul\":6661:6687   */\n      swap1\n      pop\n        /* \"#utility.yul\":6733:6742   */\n      dup2\n        /* \"#utility.yul\":6727:6731   */\n      dup2\n        /* \"#utility.yul\":6723:6743   */\n      sub\n        /* \"#utility.yul\":6719:6720   */\n      0x00\n        /* \"#utility.yul\":6708:6717   */\n      dup4\n        /* \"#utility.yul\":6704:6721   */\n      add\n        /* \"#utility.yul\":6697:6744   */\n      mstore\n        /* \"#utility.yul\":6761:6892   */\n      tag_215\n        /* \"#utility.yul\":6887:6891   */\n      dup2\n        /* \"#utility.yul\":6761:6892   */\n      tag_194\n      jump\t// in\n    tag_215:\n        /* \"#utility.yul\":6753:6892   */\n      swap1\n      pop\n        /* \"#utility.yul\":6480:6899   */\n      swap2\n      swap1\n      pop\n      jump\t// out\n        /* \"#utility.yul\":6905:7258   */\n    tag_38:\n        /* \"#utility.yul\":7038:7042   */\n      0x00\n        /* \"#utility.yul\":7076:7078   */\n      0x20\n        /* \"#utility.yul\":7065:7074   */\n      dup3\n        /* \"#utility.yul\":7061:7079   */\n      add\n        /* \"#utility.yul\":7053:7079   */\n      swap1\n      pop\n        /* \"#utility.yul\":7125:7134   */\n      dup2\n        /* \"#utility.yul\":7119:7123   */\n      dup2\n        /* \"#utility.yul\":7115:7135   */\n      sub\n        /* \"#utility.yul\":7111:7112   */\n      0x00\n        /* \"#utility.yul\":7100:7109   */\n      dup4\n        /* \"#utility.yul\":7096:7113   */\n      add\n        /* \"#utility.yul\":7089:7136   */\n      mstore\n        /* \"#utility.yul\":7153:7251   */\n      tag_217\n        /* \"#utility.yul\":7246:7250   */\n      dup2\n        /* \"#utility.yul\":7237:7243   */\n      dup5\n        /* \"#utility.yul\":7153:7251   */\n      tag_199\n      jump\t// in\n    tag_217:\n        /* \"#utility.yul\":7145:7251   */\n      swap1\n      pop\n        /* \"#utility.yul\":6905:7258   */\n      swap3\n      swap2\n      pop\n      pop\n      jump\t// out\n        /* \"#utility.yul\":7264:7486   */\n    tag_30:\n        /* \"#utility.yul\":7357:7361   */\n      0x00\n        /* \"#utility.yul\":7395:7397   */\n      0x20\n        /* \"#utility.yul\":7384:7393   */\n      dup3\n        /* \"#utility.yul\":7380:7398   */\n      add\n        /* \"#utility.yul\":7372:7398   */\n      swap1\n      pop\n        /* \"#utility.yul\":7408:7479   */\n      tag_219\n        /* \"#utility.yul\":7476:7477   */\n      0x00\n        /* \"#utility.yul\":7465:7474   */\n      dup4\n        /* \"#utility.yul\":7461:7478   */\n      add\n        /* \"#utility.yul\":7452:7458   */\n      dup5\n        /* \"#utility.yul\":7408:7479   */\n      tag_209\n      jump\t// in\n    tag_219:\n        /* \"#utility.yul\":7264:7486   */\n      swap3\n      swap2\n      pop\n      pop\n      jump\t// out\n        /* \"#utility.yul\":7492:8215   */\n    tag_20:\n        /* \"#utility.yul\":7703:7707   */\n      0x00\n        /* \"#utility.yul\":7741:7744   */\n      0x80\n        /* \"#utility.yul\":7730:7739   */\n      dup3\n        /* \"#utility.yul\":7726:7745   */\n      add\n        /* \"#utility.yul\":7718:7745   */\n      swap1\n      pop\n        /* \"#utility.yul\":7755:7826   */\n      tag_221\n        /* \"#utility.yul\":7823:7824   */\n      0x00\n        /* \"#utility.yul\":7812:7821   */\n      dup4\n        /* \"#utility.yul\":7808:7825   */\n      add\n        /* \"#utility.yul\":7799:7805   */\n      dup8\n        /* \"#utility.yul\":7755:7826   */\n      tag_209\n      jump\t// in\n    tag_221:\n        /* \"#utility.yul\":7873:7882   */\n      dup2\n        /* \"#utility.yul\":7867:7871   */\n      dup2\n        /* \"#utility.yul\":7863:7883   */\n      sub\n        /* \"#utility.yul\":7858:7860   */\n      0x20\n        /* \"#utility.yul\":7847:7856   */\n      dup4\n        /* \"#utility.yul\":7843:7861   */\n      add\n        /* \"#utility.yul\":7836:7884   */\n      mstore\n        /* \"#utility.yul\":7901:7979   */\n      tag_222\n        /* \"#utility.yul\":7974:7978   */\n      dup2\n        /* \"#utility.yul\":7965:7971   */\n      dup7\n        /* \"#utility.yul\":7901:7979   */\n      tag_182\n      jump\t// in\n    tag_222:\n        /* \"#utility.yul\":7893:7979   */\n      swap1\n      pop\n        /* \"#utility.yul\":8026:8035   */\n      dup2\n        /* \"#utility.yul\":8020:8024   */\n      dup2\n        /* \"#utility.yul\":8016:8036   */\n      sub\n        /* \"#utility.yul\":8011:8013   */\n      0x40\n        /* \"#utility.yul\":8000:8009   */\n      dup4\n        /* \"#utility.yul\":7996:8014   */\n      add\n        /* \"#utility.yul\":7989:8037   */\n      mstore\n        /* \"#utility.yul\":8054:8132   */\n      tag_223\n        /* \"#utility.yul\":8127:8131   */\n      dup2\n        /* \"#utility.yul\":8118:8124   */\n      dup6\n        /* \"#utility.yul\":8054:8132   */\n      tag_182\n      jump\t// in\n    tag_223:\n        /* \"#utility.yul\":8046:8132   */\n      swap1\n      pop\n        /* \"#utility.yul\":8142:8208   */\n      tag_224\n        /* \"#utility.yul\":8204:8206   */\n      0x60\n        /* \"#utility.yul\":8193:8202   */\n      dup4\n        /* \"#utility.yul\":8189:8207   */\n      add\n        /* \"#utility.yul\":8180:8186   */\n      dup5\n        /* \"#utility.yul\":8142:8208   */\n      tag_169\n      jump\t// in\n    tag_224:\n        /* \"#utility.yul\":7492:8215   */\n      swap6\n      swap5\n      pop\n      pop\n      pop\n      pop\n      pop\n      jump\t// out\n        /* \"#utility.yul\":8221:8350   */\n    tag_121:\n        /* \"#utility.yul\":8255:8261   */\n      0x00\n        /* \"#utility.yul\":8282:8302   */\n      tag_226\n      tag_227\n      jump\t// in\n    tag_226:\n        /* \"#utility.yul\":8272:8302   */\n      swap1\n      pop\n        /* \"#utility.yul\":8311:8344   */\n      tag_228\n        /* \"#utility.yul\":8339:8343   */\n      dup3\n        /* \"#utility.yul\":8331:8337   */\n      dup3\n        /* \"#utility.yul\":8311:8344   */\n      tag_229\n      jump\t// in\n    tag_228:\n        /* \"#utility.yul\":8221:8350   */\n      swap2\n      swap1\n      pop\n      jump\t// out\n        /* \"#utility.yul\":8356:8431   */\n    tag_227:\n        /* \"#utility.yul\":8389:8395   */\n      0x00\n        /* \"#utility.yul\":8422:8424   */\n      0x40\n        /* \"#utility.yul\":8416:8425   */\n      mload\n        /* \"#utility.yul\":8406:8425   */\n      swap1\n      pop\n        /* \"#utility.yul\":8356:8431   */\n      swap1\n      jump\t// out\n        /* \"#utility.yul\":8437:8745   */\n    tag_120:\n        /* \"#utility.yul\":8499:8503   */\n      0x00\n        /* \"#utility.yul\":8589:8607   */\n      0xffffffffffffffff\n        /* \"#utility.yul\":8581:8587   */\n      dup3\n        /* \"#utility.yul\":8578:8608   */\n      gt\n        /* \"#utility.yul\":8575:8631   */\n      iszero\n      tag_232\n      jumpi\n        /* \"#utility.yul\":8611:8629   */\n      tag_233\n      tag_234\n      jump\t// in\n    tag_233:\n        /* \"#utility.yul\":8575:8631   */\n    tag_232:\n        /* \"#utility.yul\":8649:8678   */\n      tag_235\n        /* \"#utility.yul\":8671:8677   */\n      dup3\n        /* \"#utility.yul\":8649:8678   */\n      tag_181\n      jump\t// in\n    tag_235:\n        /* \"#utility.yul\":8641:8678   */\n      swap1\n      pop\n        /* \"#utility.yul\":8733:8737   */\n      0x20\n        /* \"#utility.yul\":8727:8731   */\n      dup2\n        /* \"#utility.yul\":8723:8738   */\n      add\n        /* \"#utility.yul\":8715:8738   */\n      swap1\n      pop\n        /* \"#utility.yul\":8437:8745   */\n      swap2\n      swap1\n      pop\n      jump\t// out\n        /* \"#utility.yul\":8751:8850   */\n    tag_175:\n        /* \"#utility.yul\":8803:8809   */\n      0x00\n        /* \"#utility.yul\":8837:8842   */\n      dup2\n        /* \"#utility.yul\":8831:8843   */\n      mload\n        /* \"#utility.yul\":8821:8843   */\n      swap1\n      pop\n        /* \"#utility.yul\":8751:8850   */\n      swap2\n      swap1\n      pop\n      jump\t// out\n        /* \"#utility.yul\":8856:9015   */\n    tag_177:\n        /* \"#utility.yul\":8930:8941   */\n      0x00\n        /* \"#utility.yul\":8964:8970   */\n      dup3\n        /* \"#utility.yul\":8959:8962   */\n      dup3\n        /* \"#utility.yul\":8952:8971   */\n      mstore\n        /* \"#utility.yul\":9004:9008   */\n      0x20\n        /* \"#utility.yul\":8999:9002   */\n      dup3\n        /* \"#utility.yul\":8995:9009   */\n      add\n        /* \"#utility.yul\":8980:9009   */\n      swap1\n      pop\n        /* \"#utility.yul\":8856:9015   */\n      swap3\n      swap2\n      pop\n      pop\n      jump\t// out\n        /* \"#utility.yul\":9021:9190   */\n    tag_186:\n        /* \"#utility.yul\":9105:9116   */\n      0x00\n        /* \"#utility.yul\":9139:9145   */\n      dup3\n        /* \"#utility.yul\":9134:9137   */\n      dup3\n        /* \"#utility.yul\":9127:9146   */\n      mstore\n        /* \"#utility.yul\":9179:9183   */\n      0x20\n        /* \"#utility.yul\":9174:9177   */\n      dup3\n        /* \"#utility.yul\":9170:9184   */\n      add\n        /* \"#utility.yul\":9155:9184   */\n      swap1\n      pop\n        /* \"#utility.yul\":9021:9190   */\n      swap3\n      swap2\n      pop\n      pop\n      jump\t// out\n        /* \"#utility.yul\":9196:9387   */\n    tag_68:\n        /* \"#utility.yul\":9236:9240   */\n      0x00\n        /* \"#utility.yul\":9256:9276   */\n      tag_240\n        /* \"#utility.yul\":9274:9275   */\n      dup3\n        /* \"#utility.yul\":9256:9276   */\n      tag_208\n      jump\t// in\n    tag_240:\n        /* \"#utility.yul\":9251:9276   */\n      swap2\n      pop\n        /* \"#utility.yul\":9290:9310   */\n      tag_241\n        /* \"#utility.yul\":9308:9309   */\n      dup4\n        /* \"#utility.yul\":9290:9310   */\n      tag_208\n      jump\t// in\n    tag_241:\n        /* \"#utility.yul\":9285:9310   */\n      swap3\n      pop\n        /* \"#utility.yul\":9329:9330   */\n      dup3\n        /* \"#utility.yul\":9326:9327   */\n      dup3\n        /* \"#utility.yul\":9323:9331   */\n      lt\n        /* \"#utility.yul\":9320:9354   */\n      iszero\n      tag_242\n      jumpi\n        /* \"#utility.yul\":9334:9352   */\n      tag_243\n      tag_244\n      jump\t// in\n    tag_243:\n        /* \"#utility.yul\":9320:9354   */\n    tag_242:\n        /* \"#utility.yul\":9379:9380   */\n      dup3\n        /* \"#utility.yul\":9376:9377   */\n      dup3\n        /* \"#utility.yul\":9372:9381   */\n      sub\n        /* \"#utility.yul\":9364:9381   */\n      swap1\n      pop\n        /* \"#utility.yul\":9196:9387   */\n      swap3\n      swap2\n      pop\n      pop\n      jump\t// out\n        /* \"#utility.yul\":9393:9489   */\n    tag_245:\n        /* \"#utility.yul\":9430:9437   */\n      0x00\n        /* \"#utility.yul\":9459:9483   */\n      tag_247\n        /* \"#utility.yul\":9477:9482   */\n      dup3\n        /* \"#utility.yul\":9459:9483   */\n      tag_248\n      jump\t// in\n    tag_247:\n        /* \"#utility.yul\":9448:9483   */\n      swap1\n      pop\n        /* \"#utility.yul\":9393:9489   */\n      swap2\n      swap1\n      pop\n      jump\t// out\n        /* \"#utility.yul\":9495:9585   */\n    tag_168:\n        /* \"#utility.yul\":9529:9536   */\n      0x00\n        /* \"#utility.yul\":9572:9577   */\n      dup2\n        /* \"#utility.yul\":9565:9578   */\n      iszero\n        /* \"#utility.yul\":9558:9579   */\n      iszero\n        /* \"#utility.yul\":9547:9579   */\n      swap1\n      pop\n        /* \"#utility.yul\":9495:9585   */\n      swap2\n      swap1\n      pop\n      jump\t// out\n        /* \"#utility.yul\":9591:9717   */\n    tag_248:\n        /* \"#utility.yul\":9628:9635   */\n      0x00\n        /* \"#utility.yul\":9668:9710   */\n      0xffffffffffffffffffffffffffffffffffffffff\n        /* \"#utility.yul\":9661:9666   */\n      dup3\n        /* \"#utility.yul\":9657:9711   */\n      and\n        /* \"#utility.yul\":9646:9711   */\n      swap1\n      pop\n        /* \"#utility.yul\":9591:9717   */\n      swap2\n      swap1\n      pop\n      jump\t// out\n        /* \"#utility.yul\":9723:9800   */\n    tag_208:\n        /* \"#utility.yul\":9760:9767   */\n      0x00\n        /* \"#utility.yul\":9789:9794   */\n      dup2\n        /* \"#utility.yul\":9778:9794   */\n      swap1\n      pop\n        /* \"#utility.yul\":9723:9800   */\n      swap2\n      swap1\n      pop\n      jump\t// out\n        /* \"#utility.yul\":9806:9960   */\n    tag_126:\n        /* \"#utility.yul\":9890:9896   */\n      dup3\n        /* \"#utility.yul\":9885:9888   */\n      dup2\n        /* \"#utility.yul\":9880:9883   */\n      dup4\n        /* \"#utility.yul\":9867:9897   */\n      calldatacopy\n        /* \"#utility.yul\":9952:9953   */\n      0x00\n        /* \"#utility.yul\":9943:9949   */\n      dup4\n        /* \"#utility.yul\":9938:9941   */\n      dup4\n        /* \"#utility.yul\":9934:9950   */\n      add\n        /* \"#utility.yul\":9927:9954   */\n      mstore\n        /* \"#utility.yul\":9806:9960   */\n      pop\n      pop\n      pop\n      jump\t// out\n        /* \"#utility.yul\":9966:10273   */\n    tag_179:\n        /* \"#utility.yul\":10034:10035   */\n      0x00\n        /* \"#utility.yul\":10044:10157   */\n    tag_254:\n        /* \"#utility.yul\":10058:10064   */\n      dup4\n        /* \"#utility.yul\":10055:10056   */\n      dup2\n        /* \"#utility.yul\":10052:10065   */\n      lt\n        /* \"#utility.yul\":10044:10157   */\n      iszero\n      tag_256\n      jumpi\n        /* \"#utility.yul\":10143:10144   */\n      dup1\n        /* \"#utility.yul\":10138:10141   */\n      dup3\n        /* \"#utility.yul\":10134:10145   */\n      add\n        /* \"#utility.yul\":10128:10146   */\n      mload\n        /* \"#utility.yul\":10124:10125   */\n      dup2\n        /* \"#utility.yul\":10119:10122   */\n      dup5\n        /* \"#utility.yul\":10115:10126   */\n      add\n        /* \"#utility.yul\":10108:10147   */\n      mstore\n        /* \"#utility.yul\":10080:10082   */\n      0x20\n        /* \"#utility.yul\":10077:10078   */\n      dup2\n        /* \"#utility.yul\":10073:10083   */\n      add\n        /* \"#utility.yul\":10068:10083   */\n      swap1\n      pop\n        /* \"#utility.yul\":10044:10157   */\n      jump(tag_254)\n    tag_256:\n        /* \"#utility.yul\":10175:10181   */\n      dup4\n        /* \"#utility.yul\":10172:10173   */\n      dup2\n        /* \"#utility.yul\":10169:10182   */\n      gt\n        /* \"#utility.yul\":10166:10267   */\n      iszero\n      tag_257\n      jumpi\n        /* \"#utility.yul\":10255:10256   */\n      0x00\n        /* \"#utility.yul\":10246:10252   */\n      dup5\n        /* \"#utility.yul\":10241:10244   */\n      dup5\n        /* \"#utility.yul\":10237:10253   */\n      add\n        /* \"#utility.yul\":10230:10257   */\n      mstore\n        /* \"#utility.yul\":10166:10267   */\n    tag_257:\n        /* \"#utility.yul\":10015:10273   */\n      pop\n        /* \"#utility.yul\":9966:10273   */\n      pop\n      pop\n      pop\n      jump\t// out\n        /* \"#utility.yul\":10279:10599   */\n    tag_52:\n        /* \"#utility.yul\":10323:10329   */\n      0x00\n        /* \"#utility.yul\":10360:10361   */\n      0x02\n        /* \"#utility.yul\":10354:10358   */\n      dup3\n        /* \"#utility.yul\":10350:10362   */\n      div\n        /* \"#utility.yul\":10340:10362   */\n      swap1\n      pop\n        /* \"#utility.yul\":10407:10408   */\n      0x01\n        /* \"#utility.yul\":10401:10405   */\n      dup3\n        /* \"#utility.yul\":10397:10409   */\n      and\n        /* \"#utility.yul\":10428:10446   */\n      dup1\n        /* \"#utility.yul\":10418:10499   */\n      tag_259\n      jumpi\n        /* \"#utility.yul\":10484:10488   */\n      0x7f\n        /* \"#utility.yul\":10476:10482   */\n      dup3\n        /* \"#utility.yul\":10472:10489   */\n      and\n        /* \"#utility.yul\":10462:10489   */\n      swap2\n      pop\n        /* \"#utility.yul\":10418:10499   */\n    tag_259:\n        /* \"#utility.yul\":10546:10548   */\n      0x20\n        /* \"#utility.yul\":10538:10544   */\n      dup3\n        /* \"#utility.yul\":10535:10549   */\n      lt\n        /* \"#utility.yul\":10515:10533   */\n      dup2\n        /* \"#utility.yul\":10512:10550   */\n      eq\n        /* \"#utility.yul\":10509:10593   */\n      iszero\n      tag_260\n      jumpi\n        /* \"#utility.yul\":10565:10583   */\n      tag_261\n      tag_262\n      jump\t// in\n    tag_261:\n        /* \"#utility.yul\":10509:10593   */\n    tag_260:\n        /* \"#utility.yul\":10330:10599   */\n      pop\n        /* \"#utility.yul\":10279:10599   */\n      swap2\n      swap1\n      pop\n      jump\t// out\n        /* \"#utility.yul\":10605:10886   */\n    tag_229:\n        /* \"#utility.yul\":10688:10715   */\n      tag_264\n        /* \"#utility.yul\":10710:10714   */\n      dup3\n        /* \"#utility.yul\":10688:10715   */\n      tag_181\n      jump\t// in\n    tag_264:\n        /* \"#utility.yul\":10680:10686   */\n      dup2\n        /* \"#utility.yul\":10676:10716   */\n      add\n        /* \"#utility.yul\":10818:10824   */\n      dup2\n        /* \"#utility.yul\":10806:10816   */\n      dup2\n        /* \"#utility.yul\":10803:10825   */\n      lt\n        /* \"#utility.yul\":10782:10800   */\n      0xffffffffffffffff\n        /* \"#utility.yul\":10770:10780   */\n      dup3\n        /* \"#utility.yul\":10767:10801   */\n      gt\n        /* \"#utility.yul\":10764:10826   */\n      or\n        /* \"#utility.yul\":10761:10849   */\n      iszero\n      tag_265\n      jumpi\n        /* \"#utility.yul\":10829:10847   */\n      tag_266\n      tag_234\n      jump\t// in\n    tag_266:\n        /* \"#utility.yul\":10761:10849   */\n    tag_265:\n        /* \"#utility.yul\":10869:10879   */\n      dup1\n        /* \"#utility.yul\":10865:10867   */\n      0x40\n        /* \"#utility.yul\":10858:10880   */\n      mstore\n        /* \"#utility.yul\":10648:10886   */\n      pop\n        /* \"#utility.yul\":10605:10886   */\n      pop\n      pop\n      jump\t// out\n        /* \"#utility.yul\":10892:11125   */\n    tag_44:\n        /* \"#utility.yul\":10931:10934   */\n      0x00\n        /* \"#utility.yul\":10954:10978   */\n      tag_268\n        /* \"#utility.yul\":10972:10977   */\n      dup3\n        /* \"#utility.yul\":10954:10978   */\n      tag_208\n      jump\t// in\n    tag_268:\n        /* \"#utility.yul\":10945:10978   */\n      swap2\n      pop\n        /* \"#utility.yul\":11000:11066   */\n      0xffffffffffffffffffffffffffffffffffffffffffffffffffffffffffffffff\n        /* \"#utility.yul\":10993:10998   */\n      dup3\n        /* \"#utility.yul\":10990:11067   */\n      eq\n        /* \"#utility.yul\":10987:11090   */\n      iszero\n      tag_269\n      jumpi\n        /* \"#utility.yul\":11070:11088   */\n      tag_270\n      tag_244\n      jump\t// in\n    tag_270:\n        /* \"#utility.yul\":10987:11090   */\n    tag_269:\n        /* \"#utility.yul\":11117:11118   */\n      0x01\n        /* \"#utility.yul\":11110:11115   */\n      dup3\n        /* \"#utility.yul\":11106:11119   */\n      add\n        /* \"#utility.yul\":11099:11119   */\n      swap1\n      pop\n        /* \"#utility.yul\":10892:11125   */\n      swap2\n      swap1\n      pop\n      jump\t// out\n        /* \"#utility.yul\":11131:11311   */\n    tag_244:\n        /* \"#utility.yul\":11179:11256   */\n      0x4e487b7100000000000000000000000000000000000000000000000000000000\n        /* \"#utility.yul\":11176:11177   */\n      0x00\n        /* \"#utility.yul\":11169:11257   */\n      mstore\n        /* \"#utility.yul\":11276:11280   */\n      0x11\n        /* \"#utility.yul\":11273:11274   */\n      0x04\n        /* \"#utility.yul\":11266:11281   */\n      mstore\n        /* \"#utility.yul\":11300:11304   */\n      0x24\n        /* \"#utility.yul\":11297:11298   */\n      0x00\n        /* \"#utility.yul\":11290:11305   */\n      revert\n        /* \"#utility.yul\":11317:11497   */\n    tag_262:\n        /* \"#utility.yul\":11365:11442   */\n      0x4e487b7100000000000000000000000000000000000000000000000000000000\n        /* \"#utility.yul\":11362:11363   */\n      0x00\n        /* \"#utility.yul\":11355:11443   */\n      mstore\n        /* \"#utility.yul\":11462:11466   */\n      0x22\n        /* \"#utility.yul\":11459:11460   */\n      0x04\n        /* \"#utility.yul\":11452:11467   */\n      mstore\n        /* \"#utility.yul\":11486:11490   */\n      0x24\n        /* \"#utility.yul\":11483:11484   */\n      0x00\n        /* \"#utility.yul\":11476:11491   */\n      revert\n        /* \"#utility.yul\":11503:11683   */\n    tag_71:\n        /* \"#utility.yul\":11551:11628   */\n      0x4e487b7100000000000000000000000000000000000000000000000000000000\n        /* \"#utility.yul\":11548:11549   */\n      0x00\n        /* \"#utility.yul\":11541:11629   */\n      mstore\n        /* \"#utility.yul\":11648:11652   */\n      0x32\n        /* \"#utility.yul\":11645:11646   */\n      0x04\n        /* \"#utility.yul\":11638:11653   */\n      mstore\n        /* \"#utility.yul\":11672:11676   */\n      0x24\n        /* \"#utility.yul\":11669:11670   */\n      0x00\n        /* \"#utility.yul\":11662:11677   */\n      revert\n        /* \"#utility.yul\":11689:11869   */\n    tag_234:\n        /* \"#utility.yul\":11737:11814   */\n      0x4e487b7100000000000000000000000000000000000000000000000000000000\n        /* \"#utility.yul\":11734:11735   */\n      0x00\n        /* \"#utility.yul\":11727:11815   */\n      mstore\n        /* \"#utility.yul\":11834:11838   */\n      0x41\n        /* \"#utility.yul\":11831:11832   */\n      0x04\n        /* \"#utility.yul\":11824:11839   */\n      mstore\n        /* \"#utility.yul\":11858:11862   */\n      0x24\n        /* \"#utility.yul\":11855:11856   */\n      0x00\n        /* \"#utility.yul\":11848:11863   */\n      revert\n        /* \"#utility.yul\":11875:11992   */\n    tag_135:\n        /* \"#utility.yul\":11984:11985   */\n      0x00\n        /* \"#utility.yul\":11981:11982   */\n      dup1\n        /* \"#utility.yul\":11974:11986   */\n      revert\n        /* \"#utility.yul\":11998:12115   */\n    tag_124:\n        /* \"#utility.yul\":12107:12108   */\n      0x00\n        /* \"#utility.yul\":12104:12105   */\n      dup1\n        /* \"#utility.yul\":12097:12109   */\n      revert\n        /* \"#utility.yul\":12121:12238   */\n    tag_156:\n        /* \"#utility.yul\":12230:12231   */\n      0x00\n        /* \"#utility.yul\":12227:12228   */\n      dup1\n        /* \"#utility.yul\":12220:12232   */\n      revert\n        /* \"#utility.yul\":12244:12361   */\n    tag_144:\n        /* \"#utility.yul\":12353:12354   */\n      0x00\n        /* \"#utility.yul\":12350:12351   */\n      dup1\n        /* \"#utility.yul\":12343:12355   */\n      revert\n        /* \"#utility.yul\":12367:12469   */\n    tag_181:\n        /* \"#utility.yul\":12408:12414   */\n      0x00\n        /* \"#utility.yul\":12459:12461   */\n      0x1f\n        /* \"#utility.yul\":12455:12462   */\n      not\n        /* \"#utility.yul\":12450:12452   */\n      0x1f\n        /* \"#utility.yul\":12443:12448   */\n      dup4\n        /* \"#utility.yul\":12439:12453   */\n      add\n        /* \"#utility.yul\":12435:12463   */\n      and\n        /* \"#utility.yul\":12425:12463   */\n      swap1\n      pop\n        /* \"#utility.yul\":12367:12469   */\n      swap2\n      swap1\n      pop\n      jump\t// out\n        /* \"#utility.yul\":12475:12655   */\n    tag_193:\n        /* \"#utility.yul\":12615:12647   */\n      0x546f646f20776974682063757272656e74204944206e6f7420666f756e640000\n        /* \"#utility.yul\":12611:12612   */\n      0x00\n        /* \"#utility.yul\":12603:12609   */\n      dup3\n        /* \"#utility.yul\":12599:12613   */\n      add\n        /* \"#utility.yul\":12592:12648   */\n      mstore\n        /* \"#utility.yul\":12475:12655   */\n      pop\n      jump\t// out\n        /* \"#utility.yul\":12661:12826   */\n    tag_198:\n        /* \"#utility.yul\":12801:12818   */\n      0x4e6f20746f646f7320666f756e642e0000000000000000000000000000000000\n        /* \"#utility.yul\":12797:12798   */\n      0x00\n        /* \"#utility.yul\":12789:12795   */\n      dup3\n        /* \"#utility.yul\":12785:12799   */\n      add\n        /* \"#utility.yul\":12778:12819   */\n      mstore\n        /* \"#utility.yul\":12661:12826   */\n      pop\n      jump\t// out\n        /* \"#utility.yul\":12832:12954   */\n    tag_130:\n        /* \"#utility.yul\":12905:12929   */\n      tag_283\n        /* \"#utility.yul\":12923:12928   */\n      dup2\n        /* \"#utility.yul\":12905:12929   */\n      tag_245\n      jump\t// in\n    tag_283:\n        /* \"#utility.yul\":12898:12903   */\n      dup2\n        /* \"#utility.yul\":12895:12930   */\n      eq\n        /* \"#utility.yul\":12885:12948   */\n      tag_284\n      jumpi\n        /* \"#utility.yul\":12944:12945   */\n      0x00\n        /* \"#utility.yul\":12941:12942   */\n      dup1\n        /* \"#utility.yul\":12934:12946   */\n      revert\n        /* \"#utility.yul\":12885:12948   */\n    tag_284:\n        /* \"#utility.yul\":12832:12954   */\n      pop\n      jump\t// out\n        /* \"#utility.yul\":12960:13082   */\n    tag_140:\n        /* \"#utility.yul\":13033:13057   */\n      tag_286\n        /* \"#utility.yul\":13051:13056   */\n      dup2\n        /* \"#utility.yul\":13033:13057   */\n      tag_208\n      jump\t// in\n    tag_286:\n        /* \"#utility.yul\":13026:13031   */\n      dup2\n        /* \"#utility.yul\":13023:13058   */\n      eq\n        /* \"#utility.yul\":13013:13076   */\n      tag_287\n      jumpi\n        /* \"#utility.yul\":13072:13073   */\n      0x00\n        /* \"#utility.yul\":13069:13070   */\n      dup1\n        /* \"#utility.yul\":13062:13074   */\n      revert\n        /* \"#utility.yul\":13013:13076   */\n    tag_287:\n        /* \"#utility.yul\":12960:13082   */\n      pop\n      jump\t// out\n\n    auxdata: 0xa2646970667358221220db460a895b7855bb0fb9ab2359008711738ea2cd81316fb5e66db3962b29187364736f6c63430008070033\n}\n",
				"bytecode": {
					"linkReferences": {},
					"object": "608060405234801561001057600080fd5b506111eb806100206000396000f3fe608060405234801561001057600080fd5b506004361061007d5760003560e01c8063c12327b81161005b578063c12327b8146100ed578063d321fe291461011d578063dd68afb61461013b578063fc5049f11461016b5761007d565b80631b7fb26014610082578063428c18891461009e57806362969ff7146100d1575b600080fd5b61009c60048036038101906100979190610b94565b610187565b005b6100b860048036038101906100b39190610b54565b610310565b6040516100c89493929190610e14565b60405180910390f35b6100eb60048036038101906100e69190610c0c565b61047a565b005b61010760048036038101906101029190610b27565b610585565b6040516101149190610df9565b60405180910390f35b61012561059d565b6040516101329190610df9565b60405180910390f35b61015560048036038101906101509190610c0c565b6105e4565b6040516101629190610dd7565b60405180910390f35b61018560048036038101906101809190610c0c565b6108b5565b005b600160003373ffffffffffffffffffffffffffffffffffffffff1673ffffffffffffffffffffffffffffffffffffffff16815260200190815260200160002060008154809291906101d79061100b565b91905055506000803373ffffffffffffffffffffffffffffffffffffffff1673ffffffffffffffffffffffffffffffffffffffff1681526020019081526020016000206040518060800160405280600160003373ffffffffffffffffffffffffffffffffffffffff1673ffffffffffffffffffffffffffffffffffffffff1681526020019081526020016000205481526020018481526020018381526020016000151581525090806001815401808255809150506001900390600052602060002090600402016000909190919091506000820151816000015560208201518160010190805190602001906102cc9291906109c0565b5060408201518160020190805190602001906102e99291906109c0565b5060608201518160030160006101000a81548160ff02191690831515021790555050505050565b6000602052816000526040600020818154811061032c57600080fd5b90600052602060002090600402016000915091505080600001549080600101805461035690610fa8565b80601f016020809104026020016040519081016040528092919081815260200182805461038290610fa8565b80156103cf5780601f106103a4576101008083540402835291602001916103cf565b820191906000526020600020905b8154815290600101906020018083116103b257829003601f168201915b5050505050908060020180546103e490610fa8565b80601f016020809104026020016040519081016040528092919081815260200182805461041090610fa8565b801561045d5780601f106104325761010080835404028352916020019161045d565b820191906000526020600020905b81548152906001019060200180831161044057829003601f168201915b5050505050908060030160009054906101000a900460ff16905084565b6000600160003373ffffffffffffffffffffffffffffffffffffffff1673ffffffffffffffffffffffffffffffffffffffff16815260200190815260200160002054116104fc576040517f08c379a00000000000000000000000000000000000000000000000000000000081526004016104f390610db7565b60405180910390fd5b60008060003373ffffffffffffffffffffffffffffffffffffffff1673ffffffffffffffffffffffffffffffffffffffff1681526020019081526020016000206001836105499190610eea565b8154811061055a576105596110b2565b5b906000526020600020906004020160030160006101000a81548160ff02191690831515021790555050565b60016020528060005260406000206000915090505481565b6000600160003373ffffffffffffffffffffffffffffffffffffffff1673ffffffffffffffffffffffffffffffffffffffff16815260200190815260200160002054905090565b6105ec610a46565b6000600160003373ffffffffffffffffffffffffffffffffffffffff1673ffffffffffffffffffffffffffffffffffffffff168152602001908152602001600020541161066e576040517f08c379a000000000000000000000000000000000000000000000000000000000815260040161066590610db7565b60405180910390fd5b600160003373ffffffffffffffffffffffffffffffffffffffff1673ffffffffffffffffffffffffffffffffffffffff168152602001908152602001600020548211156106f0576040517f08c379a00000000000000000000000000000000000000000000000000000000081526004016106e790610d97565b60405180910390fd5b6000803373ffffffffffffffffffffffffffffffffffffffff1673ffffffffffffffffffffffffffffffffffffffff16815260200190815260200160002060018361073b9190610eea565b8154811061074c5761074b6110b2565b5b90600052602060002090600402016040518060800160405290816000820154815260200160018201805461077f90610fa8565b80601f01602080910402602001604051908101604052809291908181526020018280546107ab90610fa8565b80156107f85780601f106107cd576101008083540402835291602001916107f8565b820191906000526020600020905b8154815290600101906020018083116107db57829003601f168201915b5050505050815260200160028201805461081190610fa8565b80601f016020809104026020016040519081016040528092919081815260200182805461083d90610fa8565b801561088a5780601f1061085f5761010080835404028352916020019161088a565b820191906000526020600020905b81548152906001019060200180831161086d57829003601f168201915b505050505081526020016003820160009054906101000a900460ff1615151515815250509050919050565b6000600160003373ffffffffffffffffffffffffffffffffffffffff1673ffffffffffffffffffffffffffffffffffffffff1681526020019081526020016000205411610937576040517f08c379a000000000000000000000000000000000000000000000000000000000815260040161092e90610db7565b60405180910390fd5b60016000803373ffffffffffffffffffffffffffffffffffffffff1673ffffffffffffffffffffffffffffffffffffffff1681526020019081526020016000206001836109849190610eea565b81548110610995576109946110b2565b5b906000526020600020906004020160030160006101000a81548160ff02191690831515021790555050565b8280546109cc90610fa8565b90600052602060002090601f0160209004810192826109ee5760008555610a35565b82601f10610a0757805160ff1916838001178555610a35565b82800160010185558215610a35579182015b82811115610a34578251825591602001919060010190610a19565b5b509050610a429190610a70565b5090565b60405180608001604052806000815260200160608152602001606081526020016000151581525090565b5b80821115610a89576000816000905550600101610a71565b5090565b6000610aa0610a9b84610e8c565b610e67565b905082815260208101848484011115610abc57610abb611115565b5b610ac7848285610f66565b509392505050565b600081359050610ade81611187565b92915050565b600082601f830112610af957610af8611110565b5b8135610b09848260208601610a8d565b91505092915050565b600081359050610b218161119e565b92915050565b600060208284031215610b3d57610b3c61111f565b5b6000610b4b84828501610acf565b91505092915050565b60008060408385031215610b6b57610b6a61111f565b5b6000610b7985828601610acf565b9250506020610b8a85828601610b12565b9150509250929050565b60008060408385031215610bab57610baa61111f565b5b600083013567ffffffffffffffff811115610bc957610bc861111a565b5b610bd585828601610ae4565b925050602083013567ffffffffffffffff811115610bf657610bf561111a565b5b610c0285828601610ae4565b9150509250929050565b600060208284031215610c2257610c2161111f565b5b6000610c3084828501610b12565b91505092915050565b610c4281610f30565b82525050565b610c5181610f30565b82525050565b6000610c6282610ebd565b610c6c8185610ec8565b9350610c7c818560208601610f75565b610c8581611124565b840191505092915050565b6000610c9b82610ebd565b610ca58185610ed9565b9350610cb5818560208601610f75565b610cbe81611124565b840191505092915050565b6000610cd6601e83610ed9565b9150610ce182611135565b602082019050919050565b6000610cf9600f83610ed9565b9150610d048261115e565b602082019050919050565b6000608083016000830151610d276000860182610d79565b5060208301518482036020860152610d3f8282610c57565b91505060408301518482036040860152610d598282610c57565b9150506060830151610d6e6060860182610c39565b508091505092915050565b610d8281610f5c565b82525050565b610d9181610f5c565b82525050565b60006020820190508181036000830152610db081610cc9565b9050919050565b60006020820190508181036000830152610dd081610cec565b9050919050565b60006020820190508181036000830152610df18184610d0f565b905092915050565b6000602082019050610e0e6000830184610d88565b92915050565b6000608082019050610e296000830187610d88565b8181036020830152610e3b8186610c90565b90508181036040830152610e4f8185610c90565b9050610e5e6060830184610c48565b95945050505050565b6000610e71610e82565b9050610e7d8282610fda565b919050565b6000604051905090565b600067ffffffffffffffff821115610ea757610ea66110e1565b5b610eb082611124565b9050602081019050919050565b600081519050919050565b600082825260208201905092915050565b600082825260208201905092915050565b6000610ef582610f5c565b9150610f0083610f5c565b925082821015610f1357610f12611054565b5b828203905092915050565b6000610f2982610f3c565b9050919050565b60008115159050919050565b600073ffffffffffffffffffffffffffffffffffffffff82169050919050565b6000819050919050565b82818337600083830152505050565b60005b83811015610f93578082015181840152602081019050610f78565b83811115610fa2576000848401525b50505050565b60006002820490506001821680610fc057607f821691505b60208210811415610fd457610fd3611083565b5b50919050565b610fe382611124565b810181811067ffffffffffffffff82111715611002576110016110e1565b5b80604052505050565b600061101682610f5c565b91507fffffffffffffffffffffffffffffffffffffffffffffffffffffffffffffffff82141561104957611048611054565b5b600182019050919050565b7f4e487b7100000000000000000000000000000000000000000000000000000000600052601160045260246000fd5b7f4e487b7100000000000000000000000000000000000000000000000000000000600052602260045260246000fd5b7f4e487b7100000000000000000000000000000000000000000000000000000000600052603260045260246000fd5b7f4e487b7100000000000000000000000000000000000000000000000000000000600052604160045260246000fd5b600080fd5b600080fd5b600080fd5b600080fd5b6000601f19601f8301169050919050565b7f546f646f20776974682063757272656e74204944206e6f7420666f756e640000600082015250565b7f4e6f20746f646f7320666f756e642e0000000000000000000000000000000000600082015250565b61119081610f1e565b811461119b57600080fd5b50565b6111a781610f5c565b81146111b257600080fd5b5056fea2646970667358221220db460a895b7855bb0fb9ab2359008711738ea2cd81316fb5e66db3962b29187364736f6c63430008070033",
					"opcodes": "PUSH1 0x80 PUSH1 0x40 MSTORE CALLVALUE DUP1 ISZERO PUSH2 0x10 JUMPI PUSH1 0x0 DUP1 REVERT JUMPDEST POP PUSH2 0x11EB DUP1 PUSH2 0x20 PUSH1 0x0 CODECOPY PUSH1 0x0 RETURN INVALID PUSH1 0x80 PUSH1 0x40 MSTORE CALLVALUE DUP1 ISZERO PUSH2 0x10 JUMPI PUSH1 0x0 DUP1 REVERT JUMPDEST POP PUSH1 0x4 CALLDATASIZE LT PUSH2 0x7D JUMPI PUSH1 0x0 CALLDATALOAD PUSH1 0xE0 SHR DUP1 PUSH4 0xC12327B8 GT PUSH2 0x5B JUMPI DUP1 PUSH4 0xC12327B8 EQ PUSH2 0xED JUMPI DUP1 PUSH4 0xD321FE29 EQ PUSH2 0x11D JUMPI DUP1 PUSH4 0xDD68AFB6 EQ PUSH2 0x13B JUMPI DUP1 PUSH4 0xFC5049F1 EQ PUSH2 0x16B JUMPI PUSH2 0x7D JUMP JUMPDEST DUP1 PUSH4 0x1B7FB260 EQ PUSH2 0x82 JUMPI DUP1 PUSH4 0x428C1889 EQ PUSH2 0x9E JUMPI DUP1 PUSH4 0x62969FF7 EQ PUSH2 0xD1 JUMPI JUMPDEST PUSH1 0x0 DUP1 REVERT JUMPDEST PUSH2 0x9C PUSH1 0x4 DUP1 CALLDATASIZE SUB DUP2 ADD SWAP1 PUSH2 0x97 SWAP2 SWAP1 PUSH2 0xB94 JUMP JUMPDEST PUSH2 0x187 JUMP JUMPDEST STOP JUMPDEST PUSH2 0xB8 PUSH1 0x4 DUP1 CALLDATASIZE SUB DUP2 ADD SWAP1 PUSH2 0xB3 SWAP2 SWAP1 PUSH2 0xB54 JUMP JUMPDEST PUSH2 0x310 JUMP JUMPDEST PUSH1 0x40 MLOAD PUSH2 0xC8 SWAP5 SWAP4 SWAP3 SWAP2 SWAP1 PUSH2 0xE14 JUMP JUMPDEST PUSH1 0x40 MLOAD DUP1 SWAP2 SUB SWAP1 RETURN JUMPDEST PUSH2 0xEB PUSH1 0x4 DUP1 CALLDATASIZE SUB DUP2 ADD SWAP1 PUSH2 0xE6 SWAP2 SWAP1 PUSH2 0xC0C JUMP JUMPDEST PUSH2 0x47A JUMP JUMPDEST STOP JUMPDEST PUSH2 0x107 PUSH1 0x4 DUP1 CALLDATASIZE SUB DUP2 ADD SWAP1 PUSH2 0x102 SWAP2 SWAP1 PUSH2 0xB27 JUMP JUMPDEST PUSH2 0x585 JUMP JUMPDEST PUSH1 0x40 MLOAD PUSH2 0x114 SWAP2 SWAP1 PUSH2 0xDF9 JUMP JUMPDEST PUSH1 0x40 MLOAD DUP1 SWAP2 SUB SWAP1 RETURN JUMPDEST PUSH2 0x125 PUSH2 0x59D JUMP JUMPDEST PUSH1 0x40 MLOAD PUSH2 0x132 SWAP2 SWAP1 PUSH2 0xDF9 JUMP JUMPDEST PUSH1 0x40 MLOAD DUP1 SWAP2 SUB SWAP1 RETURN JUMPDEST PUSH2 0x155 PUSH1 0x4 DUP1 CALLDATASIZE SUB DUP2 ADD SWAP1 PUSH2 0x150 SWAP2 SWAP1 PUSH2 0xC0C JUMP JUMPDEST PUSH2 0x5E4 JUMP JUMPDEST PUSH1 0x40 MLOAD PUSH2 0x162 SWAP2 SWAP1 PUSH2 0xDD7 JUMP JUMPDEST PUSH1 0x40 MLOAD DUP1 SWAP2 SUB SWAP1 RETURN JUMPDEST PUSH2 0x185 PUSH1 0x4 DUP1 CALLDATASIZE SUB DUP2 ADD SWAP1 PUSH2 0x180 SWAP2 SWAP1 PUSH2 0xC0C JUMP JUMPDEST PUSH2 0x8B5 JUMP JUMPDEST STOP JUMPDEST PUSH1 0x1 PUSH1 0x0 CALLER PUSH20 0xFFFFFFFFFFFFFFFFFFFFFFFFFFFFFFFFFFFFFFFF AND PUSH20 0xFFFFFFFFFFFFFFFFFFFFFFFFFFFFFFFFFFFFFFFF AND DUP2 MSTORE PUSH1 0x20 ADD SWAP1 DUP2 MSTORE PUSH1 0x20 ADD PUSH1 0x0 KECCAK256 PUSH1 0x0 DUP2 SLOAD DUP1 SWAP3 SWAP2 SWAP1 PUSH2 0x1D7 SWAP1 PUSH2 0x100B JUMP JUMPDEST SWAP2 SWAP1 POP SSTORE POP PUSH1 0x0 DUP1 CALLER PUSH20 0xFFFFFFFFFFFFFFFFFFFFFFFFFFFFFFFFFFFFFFFF AND PUSH20 0xFFFFFFFFFFFFFFFFFFFFFFFFFFFFFFFFFFFFFFFF AND DUP2 MSTORE PUSH1 0x20 ADD SWAP1 DUP2 MSTORE PUSH1 0x20 ADD PUSH1 0x0 KECCAK256 PUSH1 0x40 MLOAD DUP1 PUSH1 0x80 ADD PUSH1 0x40 MSTORE DUP1 PUSH1 0x1 PUSH1 0x0 CALLER PUSH20 0xFFFFFFFFFFFFFFFFFFFFFFFFFFFFFFFFFFFFFFFF AND PUSH20 0xFFFFFFFFFFFFFFFFFFFFFFFFFFFFFFFFFFFFFFFF AND DUP2 MSTORE PUSH1 0x20 ADD SWAP1 DUP2 MSTORE PUSH1 0x20 ADD PUSH1 0x0 KECCAK256 SLOAD DUP2 MSTORE PUSH1 0x20 ADD DUP5 DUP2 MSTORE PUSH1 0x20 ADD DUP4 DUP2 MSTORE PUSH1 0x20 ADD PUSH1 0x0 ISZERO ISZERO DUP2 MSTORE POP SWAP1 DUP1 PUSH1 0x1 DUP2 SLOAD ADD DUP1 DUP3 SSTORE DUP1 SWAP2 POP POP PUSH1 0x1 SWAP1 SUB SWAP1 PUSH1 0x0 MSTORE PUSH1 0x20 PUSH1 0x0 KECCAK256 SWAP1 PUSH1 0x4 MUL ADD PUSH1 0x0 SWAP1 SWAP2 SWAP1 SWAP2 SWAP1 SWAP2 POP PUSH1 0x0 DUP3 ADD MLOAD DUP2 PUSH1 0x0 ADD SSTORE PUSH1 0x20 DUP3 ADD MLOAD DUP2 PUSH1 0x1 ADD SWAP1 DUP1 MLOAD SWAP1 PUSH1 0x20 ADD SWAP1 PUSH2 0x2CC SWAP3 SWAP2 SWAP1 PUSH2 0x9C0 JUMP JUMPDEST POP PUSH1 0x40 DUP3 ADD MLOAD DUP2 PUSH1 0x2 ADD SWAP1 DUP1 MLOAD SWAP1 PUSH1 0x20 ADD SWAP1 PUSH2 0x2E9 SWAP3 SWAP2 SWAP1 PUSH2 0x9C0 JUMP JUMPDEST POP PUSH1 0x60 DUP3 ADD MLOAD DUP2 PUSH1 0x3 ADD PUSH1 0x0 PUSH2 0x100 EXP DUP2 SLOAD DUP2 PUSH1 0xFF MUL NOT AND SWAP1 DUP4 ISZERO ISZERO MUL OR SWAP1 SSTORE POP POP POP POP POP JUMP JUMPDEST PUSH1 0x0 PUSH1 0x20 MSTORE DUP2 PUSH1 0x0 MSTORE PUSH1 0x40 PUSH1 0x0 KECCAK256 DUP2 DUP2 SLOAD DUP2 LT PUSH2 0x32C JUMPI PUSH1 0x0 DUP1 REVERT JUMPDEST SWAP1 PUSH1 0x0 MSTORE PUSH1 0x20 PUSH1 0x0 KECCAK256 SWAP1 PUSH1 0x4 MUL ADD PUSH1 0x0 SWAP2 POP SWAP2 POP POP DUP1 PUSH1 0x0 ADD SLOAD SWAP1 DUP1 PUSH1 0x1 ADD DUP1 SLOAD PUSH2 0x356 SWAP1 PUSH2 0xFA8 JUMP JUMPDEST DUP1 PUSH1 0x1F ADD PUSH1 0x20 DUP1 SWAP2 DIV MUL PUSH1 0x20 ADD PUSH1 0x40 MLOAD SWAP1 DUP2 ADD PUSH1 0x40 MSTORE DUP1 SWAP3 SWAP2 SWAP1 DUP2 DUP2 MSTORE PUSH1 0x20 ADD DUP3 DUP1 SLOAD PUSH2 0x382 SWAP1 PUSH2 0xFA8 JUMP JUMPDEST DUP1 ISZERO PUSH2 0x3CF JUMPI DUP1 PUSH1 0x1F LT PUSH2 0x3A4 JUMPI PUSH2 0x100 DUP1 DUP4 SLOAD DIV MUL DUP4 MSTORE SWAP2 PUSH1 0x20 ADD SWAP2 PUSH2 0x3CF JUMP JUMPDEST DUP3 ADD SWAP2 SWAP1 PUSH1 0x0 MSTORE PUSH1 0x20 PUSH1 0x0 KECCAK256 SWAP1 JUMPDEST DUP2 SLOAD DUP2 MSTORE SWAP1 PUSH1 0x1 ADD SWAP1 PUSH1 0x20 ADD DUP1 DUP4 GT PUSH2 0x3B2 JUMPI DUP3 SWAP1 SUB PUSH1 0x1F AND DUP3 ADD SWAP2 JUMPDEST POP POP POP POP POP SWAP1 DUP1 PUSH1 0x2 ADD DUP1 SLOAD PUSH2 0x3E4 SWAP1 PUSH2 0xFA8 JUMP JUMPDEST DUP1 PUSH1 0x1F ADD PUSH1 0x20 DUP1 SWAP2 DIV MUL PUSH1 0x20 ADD PUSH1 0x40 MLOAD SWAP1 DUP2 ADD PUSH1 0x40 MSTORE DUP1 SWAP3 SWAP2 SWAP1 DUP2 DUP2 MSTORE PUSH1 0x20 ADD DUP3 DUP1 SLOAD PUSH2 0x410 SWAP1 PUSH2 0xFA8 JUMP JUMPDEST DUP1 ISZERO PUSH2 0x45D JUMPI DUP1 PUSH1 0x1F LT PUSH2 0x432 JUMPI PUSH2 0x100 DUP1 DUP4 SLOAD DIV MUL DUP4 MSTORE SWAP2 PUSH1 0x20 ADD SWAP2 PUSH2 0x45D JUMP JUMPDEST DUP3 ADD SWAP2 SWAP1 PUSH1 0x0 MSTORE PUSH1 0x20 PUSH1 0x0 KECCAK256 SWAP1 JUMPDEST DUP2 SLOAD DUP2 MSTORE SWAP1 PUSH1 0x1 ADD SWAP1 PUSH1 0x20 ADD DUP1 DUP4 GT PUSH2 0x440 JUMPI DUP3 SWAP1 SUB PUSH1 0x1F AND DUP3 ADD SWAP2 JUMPDEST POP POP POP POP POP SWAP1 DUP1 PUSH1 0x3 ADD PUSH1 0x0 SWAP1 SLOAD SWAP1 PUSH2 0x100 EXP SWAP1 DIV PUSH1 0xFF AND SWAP1 POP DUP5 JUMP JUMPDEST PUSH1 0x0 PUSH1 0x1 PUSH1 0x0 CALLER PUSH20 0xFFFFFFFFFFFFFFFFFFFFFFFFFFFFFFFFFFFFFFFF AND PUSH20 0xFFFFFFFFFFFFFFFFFFFFFFFFFFFFFFFFFFFFFFFF AND DUP2 MSTORE PUSH1 0x20 ADD SWAP1 DUP2 MSTORE PUSH1 0x20 ADD PUSH1 0x0 KECCAK256 SLOAD GT PUSH2 0x4FC JUMPI PUSH1 0x40 MLOAD PUSH32 0x8C379A000000000000000000000000000000000000000000000000000000000 DUP2 MSTORE PUSH1 0x4 ADD PUSH2 0x4F3 SWAP1 PUSH2 0xDB7 JUMP JUMPDEST PUSH1 0x40 MLOAD DUP1 SWAP2 SUB SWAP1 REVERT JUMPDEST PUSH1 0x0 DUP1 PUSH1 0x0 CALLER PUSH20 0xFFFFFFFFFFFFFFFFFFFFFFFFFFFFFFFFFFFFFFFF AND PUSH20 0xFFFFFFFFFFFFFFFFFFFFFFFFFFFFFFFFFFFFFFFF AND DUP2 MSTORE PUSH1 0x20 ADD SWAP1 DUP2 MSTORE PUSH1 0x20 ADD PUSH1 0x0 KECCAK256 PUSH1 0x1 DUP4 PUSH2 0x549 SWAP2 SWAP1 PUSH2 0xEEA JUMP JUMPDEST DUP2 SLOAD DUP2 LT PUSH2 0x55A JUMPI PUSH2 0x559 PUSH2 0x10B2 JUMP JUMPDEST JUMPDEST SWAP1 PUSH1 0x0 MSTORE PUSH1 0x20 PUSH1 0x0 KECCAK256 SWAP1 PUSH1 0x4 MUL ADD PUSH1 0x3 ADD PUSH1 0x0 PUSH2 0x100 EXP DUP2 SLOAD DUP2 PUSH1 0xFF MUL NOT AND SWAP1 DUP4 ISZERO ISZERO MUL OR SWAP1 SSTORE POP POP JUMP JUMPDEST PUSH1 0x1 PUSH1 0x20 MSTORE DUP1 PUSH1 0x0 MSTORE PUSH1 0x40 PUSH1 0x0 KECCAK256 PUSH1 0x0 SWAP2 POP SWAP1 POP SLOAD DUP2 JUMP JUMPDEST PUSH1 0x0 PUSH1 0x1 PUSH1 0x0 CALLER PUSH20 0xFFFFFFFFFFFFFFFFFFFFFFFFFFFFFFFFFFFFFFFF AND PUSH20 0xFFFFFFFFFFFFFFFFFFFFFFFFFFFFFFFFFFFFFFFF AND DUP2 MSTORE PUSH1 0x20 ADD SWAP1 DUP2 MSTORE PUSH1 0x20 ADD PUSH1 0x0 KECCAK256 SLOAD SWAP1 POP SWAP1 JUMP JUMPDEST PUSH2 0x5EC PUSH2 0xA46 JUMP JUMPDEST PUSH1 0x0 PUSH1 0x1 PUSH1 0x0 CALLER PUSH20 0xFFFFFFFFFFFFFFFFFFFFFFFFFFFFFFFFFFFFFFFF AND PUSH20 0xFFFFFFFFFFFFFFFFFFFFFFFFFFFFFFFFFFFFFFFF AND DUP2 MSTORE PUSH1 0x20 ADD SWAP1 DUP2 MSTORE PUSH1 0x20 ADD PUSH1 0x0 KECCAK256 SLOAD GT PUSH2 0x66E JUMPI PUSH1 0x40 MLOAD PUSH32 0x8C379A000000000000000000000000000000000000000000000000000000000 DUP2 MSTORE PUSH1 0x4 ADD PUSH2 0x665 SWAP1 PUSH2 0xDB7 JUMP JUMPDEST PUSH1 0x40 MLOAD DUP1 SWAP2 SUB SWAP1 REVERT JUMPDEST PUSH1 0x1 PUSH1 0x0 CALLER PUSH20 0xFFFFFFFFFFFFFFFFFFFFFFFFFFFFFFFFFFFFFFFF AND PUSH20 0xFFFFFFFFFFFFFFFFFFFFFFFFFFFFFFFFFFFFFFFF AND DUP2 MSTORE PUSH1 0x20 ADD SWAP1 DUP2 MSTORE PUSH1 0x20 ADD PUSH1 0x0 KECCAK256 SLOAD DUP3 GT ISZERO PUSH2 0x6F0 JUMPI PUSH1 0x40 MLOAD PUSH32 0x8C379A000000000000000000000000000000000000000000000000000000000 DUP2 MSTORE PUSH1 0x4 ADD PUSH2 0x6E7 SWAP1 PUSH2 0xD97 JUMP JUMPDEST PUSH1 0x40 MLOAD DUP1 SWAP2 SUB SWAP1 REVERT JUMPDEST PUSH1 0x0 DUP1 CALLER PUSH20 0xFFFFFFFFFFFFFFFFFFFFFFFFFFFFFFFFFFFFFFFF AND PUSH20 0xFFFFFFFFFFFFFFFFFFFFFFFFFFFFFFFFFFFFFFFF AND DUP2 MSTORE PUSH1 0x20 ADD SWAP1 DUP2 MSTORE PUSH1 0x20 ADD PUSH1 0x0 KECCAK256 PUSH1 0x1 DUP4 PUSH2 0x73B SWAP2 SWAP1 PUSH2 0xEEA JUMP JUMPDEST DUP2 SLOAD DUP2 LT PUSH2 0x74C JUMPI PUSH2 0x74B PUSH2 0x10B2 JUMP JUMPDEST JUMPDEST SWAP1 PUSH1 0x0 MSTORE PUSH1 0x20 PUSH1 0x0 KECCAK256 SWAP1 PUSH1 0x4 MUL ADD PUSH1 0x40 MLOAD DUP1 PUSH1 0x80 ADD PUSH1 0x40 MSTORE SWAP1 DUP2 PUSH1 0x0 DUP3 ADD SLOAD DUP2 MSTORE PUSH1 0x20 ADD PUSH1 0x1 DUP3 ADD DUP1 SLOAD PUSH2 0x77F SWAP1 PUSH2 0xFA8 JUMP JUMPDEST DUP1 PUSH1 0x1F ADD PUSH1 0x20 DUP1 SWAP2 DIV MUL PUSH1 0x20 ADD PUSH1 0x40 MLOAD SWAP1 DUP2 ADD PUSH1 0x40 MSTORE DUP1 SWAP3 SWAP2 SWAP1 DUP2 DUP2 MSTORE PUSH1 0x20 ADD DUP3 DUP1 SLOAD PUSH2 0x7AB SWAP1 PUSH2 0xFA8 JUMP JUMPDEST DUP1 ISZERO PUSH2 0x7F8 JUMPI DUP1 PUSH1 0x1F LT PUSH2 0x7CD JUMPI PUSH2 0x100 DUP1 DUP4 SLOAD DIV MUL DUP4 MSTORE SWAP2 PUSH1 0x20 ADD SWAP2 PUSH2 0x7F8 JUMP JUMPDEST DUP3 ADD SWAP2 SWAP1 PUSH1 0x0 MSTORE PUSH1 0x20 PUSH1 0x0 KECCAK256 SWAP1 JUMPDEST DUP2 SLOAD DUP2 MSTORE SWAP1 PUSH1 0x1 ADD SWAP1 PUSH1 0x20 ADD DUP1 DUP4 GT PUSH2 0x7DB JUMPI DUP3 SWAP1 SUB PUSH1 0x1F AND DUP3 ADD SWAP2 JUMPDEST POP POP POP POP POP DUP2 MSTORE PUSH1 0x20 ADD PUSH1 0x2 DUP3 ADD DUP1 SLOAD PUSH2 0x811 SWAP1 PUSH2 0xFA8 JUMP JUMPDEST DUP1 PUSH1 0x1F ADD PUSH1 0x20 DUP1 SWAP2 DIV MUL PUSH1 0x20 ADD PUSH1 0x40 MLOAD SWAP1 DUP2 ADD PUSH1 0x40 MSTORE DUP1 SWAP3 SWAP2 SWAP1 DUP2 DUP2 MSTORE PUSH1 0x20 ADD DUP3 DUP1 SLOAD PUSH2 0x83D SWAP1 PUSH2 0xFA8 JUMP JUMPDEST DUP1 ISZERO PUSH2 0x88A JUMPI DUP1 PUSH1 0x1F LT PUSH2 0x85F JUMPI PUSH2 0x100 DUP1 DUP4 SLOAD DIV MUL DUP4 MSTORE SWAP2 PUSH1 0x20 ADD SWAP2 PUSH2 0x88A JUMP JUMPDEST DUP3 ADD SWAP2 SWAP1 PUSH1 0x0 MSTORE PUSH1 0x20 PUSH1 0x0 KECCAK256 SWAP1 JUMPDEST DUP2 SLOAD DUP2 MSTORE SWAP1 PUSH1 0x1 ADD SWAP1 PUSH1 0x20 ADD DUP1 DUP4 GT PUSH2 0x86D JUMPI DUP3 SWAP1 SUB PUSH1 0x1F AND DUP3 ADD SWAP2 JUMPDEST POP POP POP POP POP DUP2 MSTORE PUSH1 0x20 ADD PUSH1 0x3 DUP3 ADD PUSH1 0x0 SWAP1 SLOAD SWAP1 PUSH2 0x100 EXP SWAP1 DIV PUSH1 0xFF AND ISZERO ISZERO ISZERO ISZERO DUP2 MSTORE POP POP SWAP1 POP SWAP2 SWAP1 POP JUMP JUMPDEST PUSH1 0x0 PUSH1 0x1 PUSH1 0x0 CALLER PUSH20 0xFFFFFFFFFFFFFFFFFFFFFFFFFFFFFFFFFFFFFFFF AND PUSH20 0xFFFFFFFFFFFFFFFFFFFFFFFFFFFFFFFFFFFFFFFF AND DUP2 MSTORE PUSH1 0x20 ADD SWAP1 DUP2 MSTORE PUSH1 0x20 ADD PUSH1 0x0 KECCAK256 SLOAD GT PUSH2 0x937 JUMPI PUSH1 0x40 MLOAD PUSH32 0x8C379A000000000000000000000000000000000000000000000000000000000 DUP2 MSTORE PUSH1 0x4 ADD PUSH2 0x92E SWAP1 PUSH2 0xDB7 JUMP JUMPDEST PUSH1 0x40 MLOAD DUP1 SWAP2 SUB SWAP1 REVERT JUMPDEST PUSH1 0x1 PUSH1 0x0 DUP1 CALLER PUSH20 0xFFFFFFFFFFFFFFFFFFFFFFFFFFFFFFFFFFFFFFFF AND PUSH20 0xFFFFFFFFFFFFFFFFFFFFFFFFFFFFFFFFFFFFFFFF AND DUP2 MSTORE PUSH1 0x20 ADD SWAP1 DUP2 MSTORE PUSH1 0x20 ADD PUSH1 0x0 KECCAK256 PUSH1 0x1 DUP4 PUSH2 0x984 SWAP2 SWAP1 PUSH2 0xEEA JUMP JUMPDEST DUP2 SLOAD DUP2 LT PUSH2 0x995 JUMPI PUSH2 0x994 PUSH2 0x10B2 JUMP JUMPDEST JUMPDEST SWAP1 PUSH1 0x0 MSTORE PUSH1 0x20 PUSH1 0x0 KECCAK256 SWAP1 PUSH1 0x4 MUL ADD PUSH1 0x3 ADD PUSH1 0x0 PUSH2 0x100 EXP DUP2 SLOAD DUP2 PUSH1 0xFF MUL NOT AND SWAP1 DUP4 ISZERO ISZERO MUL OR SWAP1 SSTORE POP POP JUMP JUMPDEST DUP3 DUP1 SLOAD PUSH2 0x9CC SWAP1 PUSH2 0xFA8 JUMP JUMPDEST SWAP1 PUSH1 0x0 MSTORE PUSH1 0x20 PUSH1 0x0 KECCAK256 SWAP1 PUSH1 0x1F ADD PUSH1 0x20 SWAP1 DIV DUP2 ADD SWAP3 DUP3 PUSH2 0x9EE JUMPI PUSH1 0x0 DUP6 SSTORE PUSH2 0xA35 JUMP JUMPDEST DUP3 PUSH1 0x1F LT PUSH2 0xA07 JUMPI DUP1 MLOAD PUSH1 0xFF NOT AND DUP4 DUP1 ADD OR DUP6 SSTORE PUSH2 0xA35 JUMP JUMPDEST DUP3 DUP1 ADD PUSH1 0x1 ADD DUP6 SSTORE DUP3 ISZERO PUSH2 0xA35 JUMPI SWAP2 DUP3 ADD JUMPDEST DUP3 DUP2 GT ISZERO PUSH2 0xA34 JUMPI DUP3 MLOAD DUP3 SSTORE SWAP2 PUSH1 0x20 ADD SWAP2 SWAP1 PUSH1 0x1 ADD SWAP1 PUSH2 0xA19 JUMP JUMPDEST JUMPDEST POP SWAP1 POP PUSH2 0xA42 SWAP2 SWAP1 PUSH2 0xA70 JUMP JUMPDEST POP SWAP1 JUMP JUMPDEST PUSH1 0x40 MLOAD DUP1 PUSH1 0x80 ADD PUSH1 0x40 MSTORE DUP1 PUSH1 0x0 DUP2 MSTORE PUSH1 0x20 ADD PUSH1 0x60 DUP2 MSTORE PUSH1 0x20 ADD PUSH1 0x60 DUP2 MSTORE PUSH1 0x20 ADD PUSH1 0x0 ISZERO ISZERO DUP2 MSTORE POP SWAP1 JUMP JUMPDEST JUMPDEST DUP1 DUP3 GT ISZERO PUSH2 0xA89 JUMPI PUSH1 0x0 DUP2 PUSH1 0x0 SWAP1 SSTORE POP PUSH1 0x1 ADD PUSH2 0xA71 JUMP JUMPDEST POP SWAP1 JUMP JUMPDEST PUSH1 0x0 PUSH2 0xAA0 PUSH2 0xA9B DUP5 PUSH2 0xE8C JUMP JUMPDEST PUSH2 0xE67 JUMP JUMPDEST SWAP1 POP DUP3 DUP2 MSTORE PUSH1 0x20 DUP2 ADD DUP5 DUP5 DUP5 ADD GT ISZERO PUSH2 0xABC JUMPI PUSH2 0xABB PUSH2 0x1115 JUMP JUMPDEST JUMPDEST PUSH2 0xAC7 DUP5 DUP3 DUP6 PUSH2 0xF66 JUMP JUMPDEST POP SWAP4 SWAP3 POP POP POP JUMP JUMPDEST PUSH1 0x0 DUP2 CALLDATALOAD SWAP1 POP PUSH2 0xADE DUP2 PUSH2 0x1187 JUMP JUMPDEST SWAP3 SWAP2 POP POP JUMP JUMPDEST PUSH1 0x0 DUP3 PUSH1 0x1F DUP4 ADD SLT PUSH2 0xAF9 JUMPI PUSH2 0xAF8 PUSH2 0x1110 JUMP JUMPDEST JUMPDEST DUP2 CALLDATALOAD PUSH2 0xB09 DUP5 DUP3 PUSH1 0x20 DUP7 ADD PUSH2 0xA8D JUMP JUMPDEST SWAP2 POP POP SWAP3 SWAP2 POP POP JUMP JUMPDEST PUSH1 0x0 DUP2 CALLDATALOAD SWAP1 POP PUSH2 0xB21 DUP2 PUSH2 0x119E JUMP JUMPDEST SWAP3 SWAP2 POP POP JUMP JUMPDEST PUSH1 0x0 PUSH1 0x20 DUP3 DUP5 SUB SLT ISZERO PUSH2 0xB3D JUMPI PUSH2 0xB3C PUSH2 0x111F JUMP JUMPDEST JUMPDEST PUSH1 0x0 PUSH2 0xB4B DUP5 DUP3 DUP6 ADD PUSH2 0xACF JUMP JUMPDEST SWAP2 POP POP SWAP3 SWAP2 POP POP JUMP JUMPDEST PUSH1 0x0 DUP1 PUSH1 0x40 DUP4 DUP6 SUB SLT ISZERO PUSH2 0xB6B JUMPI PUSH2 0xB6A PUSH2 0x111F JUMP JUMPDEST JUMPDEST PUSH1 0x0 PUSH2 0xB79 DUP6 DUP3 DUP7 ADD PUSH2 0xACF JUMP JUMPDEST SWAP3 POP POP PUSH1 0x20 PUSH2 0xB8A DUP6 DUP3 DUP7 ADD PUSH2 0xB12 JUMP JUMPDEST SWAP2 POP POP SWAP3 POP SWAP3 SWAP1 POP JUMP JUMPDEST PUSH1 0x0 DUP1 PUSH1 0x40 DUP4 DUP6 SUB SLT ISZERO PUSH2 0xBAB JUMPI PUSH2 0xBAA PUSH2 0x111F JUMP JUMPDEST JUMPDEST PUSH1 0x0 DUP4 ADD CALLDATALOAD PUSH8 0xFFFFFFFFFFFFFFFF DUP2 GT ISZERO PUSH2 0xBC9 JUMPI PUSH2 0xBC8 PUSH2 0x111A JUMP JUMPDEST JUMPDEST PUSH2 0xBD5 DUP6 DUP3 DUP7 ADD PUSH2 0xAE4 JUMP JUMPDEST SWAP3 POP POP PUSH1 0x20 DUP4 ADD CALLDATALOAD PUSH8 0xFFFFFFFFFFFFFFFF DUP2 GT ISZERO PUSH2 0xBF6 JUMPI PUSH2 0xBF5 PUSH2 0x111A JUMP JUMPDEST JUMPDEST PUSH2 0xC02 DUP6 DUP3 DUP7 ADD PUSH2 0xAE4 JUMP JUMPDEST SWAP2 POP POP SWAP3 POP SWAP3 SWAP1 POP JUMP JUMPDEST PUSH1 0x0 PUSH1 0x20 DUP3 DUP5 SUB SLT ISZERO PUSH2 0xC22 JUMPI PUSH2 0xC21 PUSH2 0x111F JUMP JUMPDEST JUMPDEST PUSH1 0x0 PUSH2 0xC30 DUP5 DUP3 DUP6 ADD PUSH2 0xB12 JUMP JUMPDEST SWAP2 POP POP SWAP3 SWAP2 POP POP JUMP JUMPDEST PUSH2 0xC42 DUP2 PUSH2 0xF30 JUMP JUMPDEST DUP3 MSTORE POP POP JUMP JUMPDEST PUSH2 0xC51 DUP2 PUSH2 0xF30 JUMP JUMPDEST DUP3 MSTORE POP POP JUMP JUMPDEST PUSH1 0x0 PUSH2 0xC62 DUP3 PUSH2 0xEBD JUMP JUMPDEST PUSH2 0xC6C DUP2 DUP6 PUSH2 0xEC8 JUMP JUMPDEST SWAP4 POP PUSH2 0xC7C DUP2 DUP6 PUSH1 0x20 DUP7 ADD PUSH2 0xF75 JUMP JUMPDEST PUSH2 0xC85 DUP2 PUSH2 0x1124 JUMP JUMPDEST DUP5 ADD SWAP2 POP POP SWAP3 SWAP2 POP POP JUMP JUMPDEST PUSH1 0x0 PUSH2 0xC9B DUP3 PUSH2 0xEBD JUMP JUMPDEST PUSH2 0xCA5 DUP2 DUP6 PUSH2 0xED9 JUMP JUMPDEST SWAP4 POP PUSH2 0xCB5 DUP2 DUP6 PUSH1 0x20 DUP7 ADD PUSH2 0xF75 JUMP JUMPDEST PUSH2 0xCBE DUP2 PUSH2 0x1124 JUMP JUMPDEST DUP5 ADD SWAP2 POP POP SWAP3 SWAP2 POP POP JUMP JUMPDEST PUSH1 0x0 PUSH2 0xCD6 PUSH1 0x1E DUP4 PUSH2 0xED9 JUMP JUMPDEST SWAP2 POP PUSH2 0xCE1 DUP3 PUSH2 0x1135 JUMP JUMPDEST PUSH1 0x20 DUP3 ADD SWAP1 POP SWAP2 SWAP1 POP JUMP JUMPDEST PUSH1 0x0 PUSH2 0xCF9 PUSH1 0xF DUP4 PUSH2 0xED9 JUMP JUMPDEST SWAP2 POP PUSH2 0xD04 DUP3 PUSH2 0x115E JUMP JUMPDEST PUSH1 0x20 DUP3 ADD SWAP1 POP SWAP2 SWAP1 POP JUMP JUMPDEST PUSH1 0x0 PUSH1 0x80 DUP4 ADD PUSH1 0x0 DUP4 ADD MLOAD PUSH2 0xD27 PUSH1 0x0 DUP7 ADD DUP3 PUSH2 0xD79 JUMP JUMPDEST POP PUSH1 0x20 DUP4 ADD MLOAD DUP5 DUP3 SUB PUSH1 0x20 DUP7 ADD MSTORE PUSH2 0xD3F DUP3 DUP3 PUSH2 0xC57 JUMP JUMPDEST SWAP2 POP POP PUSH1 0x40 DUP4 ADD MLOAD DUP5 DUP3 SUB PUSH1 0x40 DUP7 ADD MSTORE PUSH2 0xD59 DUP3 DUP3 PUSH2 0xC57 JUMP JUMPDEST SWAP2 POP POP PUSH1 0x60 DUP4 ADD MLOAD PUSH2 0xD6E PUSH1 0x60 DUP7 ADD DUP3 PUSH2 0xC39 JUMP JUMPDEST POP DUP1 SWAP2 POP POP SWAP3 SWAP2 POP POP JUMP JUMPDEST PUSH2 0xD82 DUP2 PUSH2 0xF5C JUMP JUMPDEST DUP3 MSTORE POP POP JUMP JUMPDEST PUSH2 0xD91 DUP2 PUSH2 0xF5C JUMP JUMPDEST DUP3 MSTORE POP POP JUMP JUMPDEST PUSH1 0x0 PUSH1 0x20 DUP3 ADD SWAP1 POP DUP2 DUP2 SUB PUSH1 0x0 DUP4 ADD MSTORE PUSH2 0xDB0 DUP2 PUSH2 0xCC9 JUMP JUMPDEST SWAP1 POP SWAP2 SWAP1 POP JUMP JUMPDEST PUSH1 0x0 PUSH1 0x20 DUP3 ADD SWAP1 POP DUP2 DUP2 SUB PUSH1 0x0 DUP4 ADD MSTORE PUSH2 0xDD0 DUP2 PUSH2 0xCEC JUMP JUMPDEST SWAP1 POP SWAP2 SWAP1 POP JUMP JUMPDEST PUSH1 0x0 PUSH1 0x20 DUP3 ADD SWAP1 POP DUP2 DUP2 SUB PUSH1 0x0 DUP4 ADD MSTORE PUSH2 0xDF1 DUP2 DUP5 PUSH2 0xD0F JUMP JUMPDEST SWAP1 POP SWAP3 SWAP2 POP POP JUMP JUMPDEST PUSH1 0x0 PUSH1 0x20 DUP3 ADD SWAP1 POP PUSH2 0xE0E PUSH1 0x0 DUP4 ADD DUP5 PUSH2 0xD88 JUMP JUMPDEST SWAP3 SWAP2 POP POP JUMP JUMPDEST PUSH1 0x0 PUSH1 0x80 DUP3 ADD SWAP1 POP PUSH2 0xE29 PUSH1 0x0 DUP4 ADD DUP8 PUSH2 0xD88 JUMP JUMPDEST DUP2 DUP2 SUB PUSH1 0x20 DUP4 ADD MSTORE PUSH2 0xE3B DUP2 DUP7 PUSH2 0xC90 JUMP JUMPDEST SWAP1 POP DUP2 DUP2 SUB PUSH1 0x40 DUP4 ADD MSTORE PUSH2 0xE4F DUP2 DUP6 PUSH2 0xC90 JUMP JUMPDEST SWAP1 POP PUSH2 0xE5E PUSH1 0x60 DUP4 ADD DUP5 PUSH2 0xC48 JUMP JUMPDEST SWAP6 SWAP5 POP POP POP POP POP JUMP JUMPDEST PUSH1 0x0 PUSH2 0xE71 PUSH2 0xE82 JUMP JUMPDEST SWAP1 POP PUSH2 0xE7D DUP3 DUP3 PUSH2 0xFDA JUMP JUMPDEST SWAP2 SWAP1 POP JUMP JUMPDEST PUSH1 0x0 PUSH1 0x40 MLOAD SWAP1 POP SWAP1 JUMP JUMPDEST PUSH1 0x0 PUSH8 0xFFFFFFFFFFFFFFFF DUP3 GT ISZERO PUSH2 0xEA7 JUMPI PUSH2 0xEA6 PUSH2 0x10E1 JUMP JUMPDEST JUMPDEST PUSH2 0xEB0 DUP3 PUSH2 0x1124 JUMP JUMPDEST SWAP1 POP PUSH1 0x20 DUP2 ADD SWAP1 POP SWAP2 SWAP1 POP JUMP JUMPDEST PUSH1 0x0 DUP2 MLOAD SWAP1 POP SWAP2 SWAP1 POP JUMP JUMPDEST PUSH1 0x0 DUP3 DUP3 MSTORE PUSH1 0x20 DUP3 ADD SWAP1 POP SWAP3 SWAP2 POP POP JUMP JUMPDEST PUSH1 0x0 DUP3 DUP3 MSTORE PUSH1 0x20 DUP3 ADD SWAP1 POP SWAP3 SWAP2 POP POP JUMP JUMPDEST PUSH1 0x0 PUSH2 0xEF5 DUP3 PUSH2 0xF5C JUMP JUMPDEST SWAP2 POP PUSH2 0xF00 DUP4 PUSH2 0xF5C JUMP JUMPDEST SWAP3 POP DUP3 DUP3 LT ISZERO PUSH2 0xF13 JUMPI PUSH2 0xF12 PUSH2 0x1054 JUMP JUMPDEST JUMPDEST DUP3 DUP3 SUB SWAP1 POP SWAP3 SWAP2 POP POP JUMP JUMPDEST PUSH1 0x0 PUSH2 0xF29 DUP3 PUSH2 0xF3C JUMP JUMPDEST SWAP1 POP SWAP2 SWAP1 POP JUMP JUMPDEST PUSH1 0x0 DUP2 ISZERO ISZERO SWAP1 POP SWAP2 SWAP1 POP JUMP JUMPDEST PUSH1 0x0 PUSH20 0xFFFFFFFFFFFFFFFFFFFFFFFFFFFFFFFFFFFFFFFF DUP3 AND SWAP1 POP SWAP2 SWAP1 POP JUMP JUMPDEST PUSH1 0x0 DUP2 SWAP1 POP SWAP2 SWAP1 POP JUMP JUMPDEST DUP3 DUP2 DUP4 CALLDATACOPY PUSH1 0x0 DUP4 DUP4 ADD MSTORE POP POP POP JUMP JUMPDEST PUSH1 0x0 JUMPDEST DUP4 DUP2 LT ISZERO PUSH2 0xF93 JUMPI DUP1 DUP3 ADD MLOAD DUP2 DUP5 ADD MSTORE PUSH1 0x20 DUP2 ADD SWAP1 POP PUSH2 0xF78 JUMP JUMPDEST DUP4 DUP2 GT ISZERO PUSH2 0xFA2 JUMPI PUSH1 0x0 DUP5 DUP5 ADD MSTORE JUMPDEST POP POP POP POP JUMP JUMPDEST PUSH1 0x0 PUSH1 0x2 DUP3 DIV SWAP1 POP PUSH1 0x1 DUP3 AND DUP1 PUSH2 0xFC0 JUMPI PUSH1 0x7F DUP3 AND SWAP2 POP JUMPDEST PUSH1 0x20 DUP3 LT DUP2 EQ ISZERO PUSH2 0xFD4 JUMPI PUSH2 0xFD3 PUSH2 0x1083 JUMP JUMPDEST JUMPDEST POP SWAP2 SWAP1 POP JUMP JUMPDEST PUSH2 0xFE3 DUP3 PUSH2 0x1124 JUMP JUMPDEST DUP2 ADD DUP2 DUP2 LT PUSH8 0xFFFFFFFFFFFFFFFF DUP3 GT OR ISZERO PUSH2 0x1002 JUMPI PUSH2 0x1001 PUSH2 0x10E1 JUMP JUMPDEST JUMPDEST DUP1 PUSH1 0x40 MSTORE POP POP POP JUMP JUMPDEST PUSH1 0x0 PUSH2 0x1016 DUP3 PUSH2 0xF5C JUMP JUMPDEST SWAP2 POP PUSH32 0xFFFFFFFFFFFFFFFFFFFFFFFFFFFFFFFFFFFFFFFFFFFFFFFFFFFFFFFFFFFFFFFF DUP3 EQ ISZERO PUSH2 0x1049 JUMPI PUSH2 0x1048 PUSH2 0x1054 JUMP JUMPDEST JUMPDEST PUSH1 0x1 DUP3 ADD SWAP1 POP SWAP2 SWAP1 POP JUMP JUMPDEST PUSH32 0x4E487B7100000000000000000000000000000000000000000000000000000000 PUSH1 0x0 MSTORE PUSH1 0x11 PUSH1 0x4 MSTORE PUSH1 0x24 PUSH1 0x0 REVERT JUMPDEST PUSH32 0x4E487B7100000000000000000000000000000000000000000000000000000000 PUSH1 0x0 MSTORE PUSH1 0x22 PUSH1 0x4 MSTORE PUSH1 0x24 PUSH1 0x0 REVERT JUMPDEST PUSH32 0x4E487B7100000000000000000000000000000000000000000000000000000000 PUSH1 0x0 MSTORE PUSH1 0x32 PUSH1 0x4 MSTORE PUSH1 0x24 PUSH1 0x0 REVERT JUMPDEST PUSH32 0x4E487B7100000000000000000000000000000000000000000000000000000000 PUSH1 0x0 MSTORE PUSH1 0x41 PUSH1 0x4 MSTORE PUSH1 0x24 PUSH1 0x0 REVERT JUMPDEST PUSH1 0x0 DUP1 REVERT JUMPDEST PUSH1 0x0 DUP1 REVERT JUMPDEST PUSH1 0x0 DUP1 REVERT JUMPDEST PUSH1 0x0 DUP1 REVERT JUMPDEST PUSH1 0x0 PUSH1 0x1F NOT PUSH1 0x1F DUP4 ADD AND SWAP1 POP SWAP2 SWAP1 POP JUMP JUMPDEST PUSH32 0x546F646F20776974682063757272656E74204944206E6F7420666F756E640000 PUSH1 0x0 DUP3 ADD MSTORE POP JUMP JUMPDEST PUSH32 0x4E6F20746F646F7320666F756E642E0000000000000000000000000000000000 PUSH1 0x0 DUP3 ADD MSTORE POP JUMP JUMPDEST PUSH2 0x1190 DUP2 PUSH2 0xF1E JUMP JUMPDEST DUP2 EQ PUSH2 0x119B JUMPI PUSH1 0x0 DUP1 REVERT JUMPDEST POP JUMP JUMPDEST PUSH2 0x11A7 DUP2 PUSH2 0xF5C JUMP JUMPDEST DUP2 EQ PUSH2 0x11B2 JUMPI PUSH1 0x0 DUP1 REVERT JUMPDEST POP JUMP INVALID LOG2 PUSH5 0x6970667358 0x22 SLT KECCAK256 0xDB CHAINID EXP DUP10 JUMPDEST PUSH25 0x55BB0FB9AB2359008711738EA2CD81316FB5E66DB3962B2918 PUSH20 0x64736F6C63430008070033000000000000000000 "
				},
				"gasEstimates": {
					"creation": {
						"codeDepositCost": "917400",
						"executionCost": "955",
						"totalCost": "918355"
					},
					"external": {
						"addTodo(string,string)": "infinite",
						"counter(address)": "2814",
						"getAmount()": "2548",
						"getTodo(uint256)": "infinite",
						"setAsDone(uint256)": "infinite",
						"setAsUndone(uint256)": "infinite",
						"todos(address,uint256)": "infinite"
					}
				},
				"methodIdentifiers": {
					"addTodo(string,string)": "1b7fb260",
					"counter(address)": "c12327b8",
					"getAmount()": "d321fe29",
					"getTodo(uint256)": "dd68afb6",
					"setAsDone(uint256)": "fc5049f1",
					"setAsUndone(uint256)": "62969ff7",
					"todos(address,uint256)": "428c1889"
				}
			},
			"storageLayout": {
				"storage": [
					{
						"astId": 18,
						"contract": "ToDoApp.sol:ToDoApp",
						"label": "todos",
						"offset": 0,
						"slot": "0",
						"type": "t_mapping(t_address,t_array(t_struct(ToDo)11_storage)dyn_storage)"
					},
					{
						"astId": 22,
						"contract": "ToDoApp.sol:ToDoApp",
						"label": "counter",
						"offset": 0,
						"slot": "1",
						"type": "t_mapping(t_address,t_uint256)"
					}
				],
				"types": {
					"t_address": {
						"encoding": "inplace",
						"label": "address",
						"numberOfBytes": "20"
					},
					"t_array(t_struct(ToDo)11_storage)dyn_storage": {
						"base": "t_struct(ToDo)11_storage",
						"encoding": "dynamic_array",
						"label": "struct ToDoApp.ToDo[]",
						"numberOfBytes": "32"
					},
					"t_bool": {
						"encoding": "inplace",
						"label": "bool",
						"numberOfBytes": "1"
					},
					"t_mapping(t_address,t_array(t_struct(ToDo)11_storage)dyn_storage)": {
						"encoding": "mapping",
						"key": "t_address",
						"label": "mapping(address => struct ToDoApp.ToDo[])",
						"numberOfBytes": "32",
						"value": "t_array(t_struct(ToDo)11_storage)dyn_storage"
					},
					"t_mapping(t_address,t_uint256)": {
						"encoding": "mapping",
						"key": "t_address",
						"label": "mapping(address => uint256)",
						"numberOfBytes": "32",
						"value": "t_uint256"
					},
					"t_string_storage": {
						"encoding": "bytes",
						"label": "string",
						"numberOfBytes": "32"
					},
					"t_struct(ToDo)11_storage": {
						"encoding": "inplace",
						"label": "struct ToDoApp.ToDo",
						"members": [
							{
								"astId": 4,
								"contract": "ToDoApp.sol:ToDoApp",
								"label": "id",
								"offset": 0,
								"slot": "0",
								"type": "t_uint256"
							},
							{
								"astId": 6,
								"contract": "ToDoApp.sol:ToDoApp",
								"label": "name",
								"offset": 0,
								"slot": "1",
								"type": "t_string_storage"
							},
							{
								"astId": 8,
								"contract": "ToDoApp.sol:ToDoApp",
								"label": "content",
								"offset": 0,
								"slot": "2",
								"type": "t_string_storage"
							},
							{
								"astId": 10,
								"contract": "ToDoApp.sol:ToDoApp",
								"label": "status",
								"offset": 0,
								"slot": "3",
								"type": "t_bool"
							}
						],
						"numberOfBytes": "128"
					},
					"t_uint256": {
						"encoding": "inplace",
						"label": "uint256",
						"numberOfBytes": "32"
					}
				}
			},
			"userdoc": {
				"kind": "user",
				"methods": {
					"addTodo(string,string)": {
						"notice": "Add new todo to todos -list. ID defaults to counter index and status defaults to false"
					},
					"constructor": {
						"notice": "Constructor"
					},
					"getAmount()": {
						"notice": "Get amount of todos"
					},
					"getTodo(uint256)": {
						"notice": "Get todo. Give error code if id is not valid"
					},
					"setAsDone(uint256)": {
						"notice": "Set todo as done. If no todos are found send error. Takes the ID of the todo (starting from 1)."
					},
					"setAsUndone(uint256)": {
						"notice": "Set todo as undone. If no todos are found send error. Takes the ID of the todo (starting from 1)."
					},
					"todos(address,uint256)": {
						"notice": "Mappings - \"todos\" -mapping is used to store content of the todo - \"counter -mapping list is used as an index of the todos -list"
					}
				},
				"notice": "A simple ToDo smart contract app",
				"version": 1
			}
		}
	}
}