{
	"ToDoApp.sol": {
		"ToDoApp": {
			"abi": [
				{
					"inputs": [],
					"stateMutability": "nonpayable",
					"type": "constructor"
				},
				{
					"inputs": [
						{
							"internalType": "uint256",
							"name": "id",
							"type": "uint256"
						},
						{
							"internalType": "string",
							"name": "name",
							"type": "string"
						},
						{
							"internalType": "string",
							"name": "content",
							"type": "string"
						},
						{
							"internalType": "bool",
							"name": "status",
							"type": "bool"
						}
					],
					"name": "addTodo",
					"outputs": [],
					"stateMutability": "nonpayable",
					"type": "function"
				},
				{
					"inputs": [],
					"name": "counter",
					"outputs": [
						{
							"internalType": "uint256",
							"name": "",
							"type": "uint256"
						}
					],
					"stateMutability": "view",
					"type": "function"
				},
				{
					"inputs": [],
					"name": "getAmount",
					"outputs": [
						{
							"internalType": "uint256",
							"name": "",
							"type": "uint256"
						}
					],
					"stateMutability": "view",
					"type": "function"
				},
				{
					"inputs": [],
					"name": "getTodo",
					"outputs": [
						{
							"components": [
								{
									"internalType": "uint256",
									"name": "id",
									"type": "uint256"
								},
								{
									"internalType": "string",
									"name": "name",
									"type": "string"
								},
								{
									"internalType": "string",
									"name": "content",
									"type": "string"
								},
								{
									"internalType": "bool",
									"name": "status",
									"type": "bool"
								}
							],
							"internalType": "struct ToDoApp.ToDo[]",
							"name": "",
							"type": "tuple[]"
						}
					],
					"stateMutability": "view",
					"type": "function"
				},
				{
					"inputs": [
						{
							"internalType": "uint256",
							"name": "",
							"type": "uint256"
						}
					],
					"name": "todos",
					"outputs": [
						{
							"internalType": "uint256",
							"name": "id",
							"type": "uint256"
						},
						{
							"internalType": "string",
							"name": "name",
							"type": "string"
						},
						{
							"internalType": "string",
							"name": "content",
							"type": "string"
						},
						{
							"internalType": "bool",
							"name": "status",
							"type": "bool"
						}
					],
					"stateMutability": "view",
					"type": "function"
				}
			],
			"devdoc": {
				"kind": "dev",
				"methods": {},
				"version": 1
			},
			"evm": {
				"assembly": "    /* \"ToDoApp.sol\":120:1325  contract ToDoApp {... */\n  mstore(0x40, 0x80)\n    /* \"ToDoApp.sol\":476:525  constructor() {... */\n  callvalue\n  dup1\n  iszero\n  tag_1\n  jumpi\n  0x00\n  dup1\n  revert\ntag_1:\n  pop\n    /* \"ToDoApp.sol\":508:518  msg.sender */\n  caller\n    /* \"ToDoApp.sol\":500:505  owner */\n  0x00\n  dup1\n    /* \"ToDoApp.sol\":500:518  owner = msg.sender */\n  0x0100\n  exp\n  dup2\n  sload\n  dup2\n  0xffffffffffffffffffffffffffffffffffffffff\n  mul\n  not\n  and\n  swap1\n  dup4\n  0xffffffffffffffffffffffffffffffffffffffff\n  and\n  mul\n  or\n  swap1\n  sstore\n  pop\n    /* \"ToDoApp.sol\":120:1325  contract ToDoApp {... */\n  dataSize(sub_0)\n  dup1\n  dataOffset(sub_0)\n  0x00\n  codecopy\n  0x00\n  return\nstop\n\nsub_0: assembly {\n        /* \"ToDoApp.sol\":120:1325  contract ToDoApp {... */\n      mstore(0x40, 0x80)\n      callvalue\n      dup1\n      iszero\n      tag_1\n      jumpi\n      0x00\n      dup1\n      revert\n    tag_1:\n      pop\n      jumpi(tag_2, lt(calldatasize, 0x04))\n      shr(0xe0, calldataload(0x00))\n      dup1\n      0x3b04d05b\n      eq\n      tag_3\n      jumpi\n      dup1\n      0x61bc221a\n      eq\n      tag_4\n      jumpi\n      dup1\n      0x7fa1680a\n      eq\n      tag_5\n      jumpi\n      dup1\n      0xbc8bc2b4\n      eq\n      tag_6\n      jumpi\n      dup1\n      0xd321fe29\n      eq\n      tag_7\n      jumpi\n    tag_2:\n      0x00\n      dup1\n      revert\n        /* \"ToDoApp.sol\":567:855  function addTodo(... */\n    tag_3:\n      tag_8\n      0x04\n      dup1\n      calldatasize\n      sub\n      dup2\n      add\n      swap1\n      tag_9\n      swap2\n      swap1\n      tag_10\n      jump\t// in\n    tag_9:\n      tag_11\n      jump\t// in\n    tag_8:\n      stop\n        /* \"ToDoApp.sol\":196:215  uint public counter */\n    tag_4:\n      tag_12\n      tag_13\n      jump\t// in\n    tag_12:\n      mload(0x40)\n      tag_14\n      swap2\n      swap1\n      tag_15\n      jump\t// in\n    tag_14:\n      mload(0x40)\n      dup1\n      swap2\n      sub\n      swap1\n      return\n        /* \"ToDoApp.sol\":919:1145  function getTodo() public view returns(ToDo[] memory) {... */\n    tag_5:\n      tag_16\n      tag_17\n      jump\t// in\n    tag_16:\n      mload(0x40)\n      tag_18\n      swap2\n      swap1\n      tag_19\n      jump\t// in\n    tag_18:\n      mload(0x40)\n      dup1\n      swap2\n      sub\n      swap1\n      return\n        /* \"ToDoApp.sol\":397:434  mapping(uint256 => ToDo) public todos */\n    tag_6:\n      tag_20\n      0x04\n      dup1\n      calldatasize\n      sub\n      dup2\n      add\n      swap1\n      tag_21\n      swap2\n      swap1\n      tag_22\n      jump\t// in\n    tag_21:\n      tag_23\n      jump\t// in\n    tag_20:\n      mload(0x40)\n      tag_24\n      swap5\n      swap4\n      swap3\n      swap2\n      swap1\n      tag_25\n      jump\t// in\n    tag_24:\n      mload(0x40)\n      dup1\n      swap2\n      sub\n      swap1\n      return\n        /* \"ToDoApp.sol\":1194:1271  function getAmount() public view returns(uint){... */\n    tag_7:\n      tag_26\n      tag_27\n      jump\t// in\n    tag_26:\n      mload(0x40)\n      tag_28\n      swap2\n      swap1\n      tag_15\n      jump\t// in\n    tag_28:\n      mload(0x40)\n      dup1\n      swap2\n      sub\n      swap1\n      return\n        /* \"ToDoApp.sol\":567:855  function addTodo(... */\n    tag_11:\n        /* \"ToDoApp.sol\":761:792  ToDo(id, name, content, status) */\n      mload(0x40)\n      dup1\n      0x80\n      add\n      0x40\n      mstore\n      dup1\n        /* \"ToDoApp.sol\":766:768  id */\n      dup6\n        /* \"ToDoApp.sol\":761:792  ToDo(id, name, content, status) */\n      dup2\n      mstore\n      0x20\n      add\n        /* \"ToDoApp.sol\":770:774  name */\n      dup5\n        /* \"ToDoApp.sol\":761:792  ToDo(id, name, content, status) */\n      dup2\n      mstore\n      0x20\n      add\n        /* \"ToDoApp.sol\":776:783  content */\n      dup4\n        /* \"ToDoApp.sol\":761:792  ToDo(id, name, content, status) */\n      dup2\n      mstore\n      0x20\n      add\n        /* \"ToDoApp.sol\":785:791  status */\n      dup3\n        /* \"ToDoApp.sol\":761:792  ToDo(id, name, content, status) */\n      iszero\n      iszero\n      dup2\n      mstore\n      pop\n        /* \"ToDoApp.sol\":744:749  todos */\n      0x02\n        /* \"ToDoApp.sol\":744:758  todos[counter] */\n      0x00\n        /* \"ToDoApp.sol\":750:757  counter */\n      sload(0x01)\n        /* \"ToDoApp.sol\":744:758  todos[counter] */\n      dup2\n      mstore\n      0x20\n      add\n      swap1\n      dup2\n      mstore\n      0x20\n      add\n      0x00\n      keccak256\n        /* \"ToDoApp.sol\":744:792  todos[counter] = ToDo(id, name, content, status) */\n      0x00\n      dup3\n      add\n      mload\n      dup2\n      0x00\n      add\n      sstore\n      0x20\n      dup3\n      add\n      mload\n      dup2\n      0x01\n      add\n      swap1\n      dup1\n      mload\n      swap1\n      0x20\n      add\n      swap1\n      tag_30\n      swap3\n      swap2\n      swap1\n      tag_31\n      jump\t// in\n    tag_30:\n      pop\n      0x40\n      dup3\n      add\n      mload\n      dup2\n      0x02\n      add\n      swap1\n      dup1\n      mload\n      swap1\n      0x20\n      add\n      swap1\n      tag_32\n      swap3\n      swap2\n      swap1\n      tag_31\n      jump\t// in\n    tag_32:\n      pop\n      0x60\n      dup3\n      add\n      mload\n      dup2\n      0x03\n      add\n      exp(0x0100, 0x00)\n      dup2\n      sload\n      dup2\n      0xff\n      mul\n      not\n      and\n      swap1\n      dup4\n      iszero\n      iszero\n      mul\n      or\n      swap1\n      sstore\n      pop\n      swap1\n      pop\n      pop\n        /* \"ToDoApp.sol\":839:846  counter */\n      0x01\n      0x00\n        /* \"ToDoApp.sol\":839:848  counter++ */\n      dup2\n      sload\n      dup1\n      swap3\n      swap2\n      swap1\n      tag_33\n      swap1\n      tag_34\n      jump\t// in\n    tag_33:\n      swap2\n      swap1\n      pop\n      sstore\n      pop\n        /* \"ToDoApp.sol\":567:855  function addTodo(... */\n      pop\n      pop\n      pop\n      pop\n      jump\t// out\n        /* \"ToDoApp.sol\":196:215  uint public counter */\n    tag_13:\n      sload(0x01)\n      dup2\n      jump\t// out\n        /* \"ToDoApp.sol\":919:1145  function getTodo() public view returns(ToDo[] memory) {... */\n    tag_17:\n        /* \"ToDoApp.sol\":958:971  ToDo[] memory */\n      0x60\n        /* \"ToDoApp.sol\":983:1003  ToDo[] memory mTodos */\n      0x00\n        /* \"ToDoApp.sol\":1017:1024  counter */\n      sload(0x01)\n        /* \"ToDoApp.sol\":1006:1025  new ToDo[](counter) */\n      0xffffffffffffffff\n      dup2\n      gt\n      iszero\n      tag_36\n      jumpi\n      tag_37\n      tag_38\n      jump\t// in\n    tag_37:\n    tag_36:\n      mload(0x40)\n      swap1\n      dup1\n      dup3\n      mstore\n      dup1\n      0x20\n      mul\n      0x20\n      add\n      dup3\n      add\n      0x40\n      mstore\n      dup1\n      iszero\n      tag_39\n      jumpi\n      dup2\n      0x20\n      add\n    tag_40:\n      tag_41\n      tag_42\n      jump\t// in\n    tag_41:\n      dup2\n      mstore\n      0x20\n      add\n      swap1\n      0x01\n      swap1\n      sub\n      swap1\n      dup2\n      tag_40\n      jumpi\n      swap1\n      pop\n    tag_39:\n      pop\n        /* \"ToDoApp.sol\":983:1025  ToDo[] memory mTodos = new ToDo[](counter) */\n      swap1\n      pop\n        /* \"ToDoApp.sol\":1040:1046  uint i */\n      0x00\n        /* \"ToDoApp.sol\":1036:1115  for(uint i = 0; i < counter; i++) {... */\n    tag_43:\n        /* \"ToDoApp.sol\":1056:1063  counter */\n      sload(0x01)\n        /* \"ToDoApp.sol\":1052:1053  i */\n      dup2\n        /* \"ToDoApp.sol\":1052:1063  i < counter */\n      lt\n        /* \"ToDoApp.sol\":1036:1115  for(uint i = 0; i < counter; i++) {... */\n      iszero\n      tag_44\n      jumpi\n        /* \"ToDoApp.sol\":1096:1101  todos */\n      0x02\n        /* \"ToDoApp.sol\":1096:1104  todos[i] */\n      0x00\n        /* \"ToDoApp.sol\":1102:1103  i */\n      dup3\n        /* \"ToDoApp.sol\":1096:1104  todos[i] */\n      dup2\n      mstore\n      0x20\n      add\n      swap1\n      dup2\n      mstore\n      0x20\n      add\n      0x00\n      keccak256\n        /* \"ToDoApp.sol\":1084:1104  mTodos[i] = todos[i] */\n      mload(0x40)\n      dup1\n      0x80\n      add\n      0x40\n      mstore\n      swap1\n      dup2\n      0x00\n      dup3\n      add\n      sload\n      dup2\n      mstore\n      0x20\n      add\n      0x01\n      dup3\n      add\n      dup1\n      sload\n      tag_46\n      swap1\n      tag_47\n      jump\t// in\n    tag_46:\n      dup1\n      0x1f\n      add\n      0x20\n      dup1\n      swap2\n      div\n      mul\n      0x20\n      add\n      mload(0x40)\n      swap1\n      dup2\n      add\n      0x40\n      mstore\n      dup1\n      swap3\n      swap2\n      swap1\n      dup2\n      dup2\n      mstore\n      0x20\n      add\n      dup3\n      dup1\n      sload\n      tag_48\n      swap1\n      tag_47\n      jump\t// in\n    tag_48:\n      dup1\n      iszero\n      tag_49\n      jumpi\n      dup1\n      0x1f\n      lt\n      tag_50\n      jumpi\n      0x0100\n      dup1\n      dup4\n      sload\n      div\n      mul\n      dup4\n      mstore\n      swap2\n      0x20\n      add\n      swap2\n      jump(tag_49)\n    tag_50:\n      dup3\n      add\n      swap2\n      swap1\n      0x00\n      mstore\n      keccak256(0x00, 0x20)\n      swap1\n    tag_51:\n      dup2\n      sload\n      dup2\n      mstore\n      swap1\n      0x01\n      add\n      swap1\n      0x20\n      add\n      dup1\n      dup4\n      gt\n      tag_51\n      jumpi\n      dup3\n      swap1\n      sub\n      0x1f\n      and\n      dup3\n      add\n      swap2\n    tag_49:\n      pop\n      pop\n      pop\n      pop\n      pop\n      dup2\n      mstore\n      0x20\n      add\n      0x02\n      dup3\n      add\n      dup1\n      sload\n      tag_52\n      swap1\n      tag_47\n      jump\t// in\n    tag_52:\n      dup1\n      0x1f\n      add\n      0x20\n      dup1\n      swap2\n      div\n      mul\n      0x20\n      add\n      mload(0x40)\n      swap1\n      dup2\n      add\n      0x40\n      mstore\n      dup1\n      swap3\n      swap2\n      swap1\n      dup2\n      dup2\n      mstore\n      0x20\n      add\n      dup3\n      dup1\n      sload\n      tag_53\n      swap1\n      tag_47\n      jump\t// in\n    tag_53:\n      dup1\n      iszero\n      tag_54\n      jumpi\n      dup1\n      0x1f\n      lt\n      tag_55\n      jumpi\n      0x0100\n      dup1\n      dup4\n      sload\n      div\n      mul\n      dup4\n      mstore\n      swap2\n      0x20\n      add\n      swap2\n      jump(tag_54)\n    tag_55:\n      dup3\n      add\n      swap2\n      swap1\n      0x00\n      mstore\n      keccak256(0x00, 0x20)\n      swap1\n    tag_56:\n      dup2\n      sload\n      dup2\n      mstore\n      swap1\n      0x01\n      add\n      swap1\n      0x20\n      add\n      dup1\n      dup4\n      gt\n      tag_56\n      jumpi\n      dup3\n      swap1\n      sub\n      0x1f\n      and\n      dup3\n      add\n      swap2\n    tag_54:\n      pop\n      pop\n      pop\n      pop\n      pop\n      dup2\n      mstore\n      0x20\n      add\n      0x03\n      dup3\n      add\n      0x00\n      swap1\n      sload\n      swap1\n      0x0100\n      exp\n      swap1\n      div\n      0xff\n      and\n      iszero\n      iszero\n      iszero\n      iszero\n      dup2\n      mstore\n      pop\n      pop\n        /* \"ToDoApp.sol\":1084:1090  mTodos */\n      dup3\n        /* \"ToDoApp.sol\":1091:1092  i */\n      dup3\n        /* \"ToDoApp.sol\":1084:1093  mTodos[i] */\n      dup2\n      mload\n      dup2\n      lt\n      tag_57\n      jumpi\n      tag_58\n      tag_59\n      jump\t// in\n    tag_58:\n    tag_57:\n      0x20\n      mul\n      0x20\n      add\n      add\n        /* \"ToDoApp.sol\":1084:1104  mTodos[i] = todos[i] */\n      dup2\n      swap1\n      mstore\n      pop\n        /* \"ToDoApp.sol\":1065:1068  i++ */\n      dup1\n      dup1\n      tag_60\n      swap1\n      tag_34\n      jump\t// in\n    tag_60:\n      swap2\n      pop\n      pop\n        /* \"ToDoApp.sol\":1036:1115  for(uint i = 0; i < counter; i++) {... */\n      jump(tag_43)\n    tag_44:\n      pop\n        /* \"ToDoApp.sol\":1132:1138  mTodos */\n      dup1\n        /* \"ToDoApp.sol\":1125:1138  return mTodos */\n      swap2\n      pop\n      pop\n        /* \"ToDoApp.sol\":919:1145  function getTodo() public view returns(ToDo[] memory) {... */\n      swap1\n      jump\t// out\n        /* \"ToDoApp.sol\":397:434  mapping(uint256 => ToDo) public todos */\n    tag_23:\n      mstore(0x20, 0x02)\n      dup1\n      0x00\n      mstore\n      keccak256(0x00, 0x40)\n      0x00\n      swap2\n      pop\n      swap1\n      pop\n      dup1\n      0x00\n      add\n      sload\n      swap1\n      dup1\n      0x01\n      add\n      dup1\n      sload\n      tag_61\n      swap1\n      tag_47\n      jump\t// in\n    tag_61:\n      dup1\n      0x1f\n      add\n      0x20\n      dup1\n      swap2\n      div\n      mul\n      0x20\n      add\n      mload(0x40)\n      swap1\n      dup2\n      add\n      0x40\n      mstore\n      dup1\n      swap3\n      swap2\n      swap1\n      dup2\n      dup2\n      mstore\n      0x20\n      add\n      dup3\n      dup1\n      sload\n      tag_62\n      swap1\n      tag_47\n      jump\t// in\n    tag_62:\n      dup1\n      iszero\n      tag_63\n      jumpi\n      dup1\n      0x1f\n      lt\n      tag_64\n      jumpi\n      0x0100\n      dup1\n      dup4\n      sload\n      div\n      mul\n      dup4\n      mstore\n      swap2\n      0x20\n      add\n      swap2\n      jump(tag_63)\n    tag_64:\n      dup3\n      add\n      swap2\n      swap1\n      0x00\n      mstore\n      keccak256(0x00, 0x20)\n      swap1\n    tag_65:\n      dup2\n      sload\n      dup2\n      mstore\n      swap1\n      0x01\n      add\n      swap1\n      0x20\n      add\n      dup1\n      dup4\n      gt\n      tag_65\n      jumpi\n      dup3\n      swap1\n      sub\n      0x1f\n      and\n      dup3\n      add\n      swap2\n    tag_63:\n      pop\n      pop\n      pop\n      pop\n      pop\n      swap1\n      dup1\n      0x02\n      add\n      dup1\n      sload\n      tag_66\n      swap1\n      tag_47\n      jump\t// in\n    tag_66:\n      dup1\n      0x1f\n      add\n      0x20\n      dup1\n      swap2\n      div\n      mul\n      0x20\n      add\n      mload(0x40)\n      swap1\n      dup2\n      add\n      0x40\n      mstore\n      dup1\n      swap3\n      swap2\n      swap1\n      dup2\n      dup2\n      mstore\n      0x20\n      add\n      dup3\n      dup1\n      sload\n      tag_67\n      swap1\n      tag_47\n      jump\t// in\n    tag_67:\n      dup1\n      iszero\n      tag_68\n      jumpi\n      dup1\n      0x1f\n      lt\n      tag_69\n      jumpi\n      0x0100\n      dup1\n      dup4\n      sload\n      div\n      mul\n      dup4\n      mstore\n      swap2\n      0x20\n      add\n      swap2\n      jump(tag_68)\n    tag_69:\n      dup3\n      add\n      swap2\n      swap1\n      0x00\n      mstore\n      keccak256(0x00, 0x20)\n      swap1\n    tag_70:\n      dup2\n      sload\n      dup2\n      mstore\n      swap1\n      0x01\n      add\n      swap1\n      0x20\n      add\n      dup1\n      dup4\n      gt\n      tag_70\n      jumpi\n      dup3\n      swap1\n      sub\n      0x1f\n      and\n      dup3\n      add\n      swap2\n    tag_68:\n      pop\n      pop\n      pop\n      pop\n      pop\n      swap1\n      dup1\n      0x03\n      add\n      0x00\n      swap1\n      sload\n      swap1\n      0x0100\n      exp\n      swap1\n      div\n      0xff\n      and\n      swap1\n      pop\n      dup5\n      jump\t// out\n        /* \"ToDoApp.sol\":1194:1271  function getAmount() public view returns(uint){... */\n    tag_27:\n        /* \"ToDoApp.sol\":1235:1239  uint */\n      0x00\n        /* \"ToDoApp.sol\":1257:1264  counter */\n      sload(0x01)\n        /* \"ToDoApp.sol\":1250:1264  return counter */\n      swap1\n      pop\n        /* \"ToDoApp.sol\":1194:1271  function getAmount() public view returns(uint){... */\n      swap1\n      jump\t// out\n    tag_31:\n      dup3\n      dup1\n      sload\n      tag_72\n      swap1\n      tag_47\n      jump\t// in\n    tag_72:\n      swap1\n      0x00\n      mstore\n      keccak256(0x00, 0x20)\n      swap1\n      0x1f\n      add\n      0x20\n      swap1\n      div\n      dup2\n      add\n      swap3\n      dup3\n      tag_74\n      jumpi\n      0x00\n      dup6\n      sstore\n      jump(tag_73)\n    tag_74:\n      dup3\n      0x1f\n      lt\n      tag_75\n      jumpi\n      dup1\n      mload\n      not(0xff)\n      and\n      dup4\n      dup1\n      add\n      or\n      dup6\n      sstore\n      jump(tag_73)\n    tag_75:\n      dup3\n      dup1\n      add\n      0x01\n      add\n      dup6\n      sstore\n      dup3\n      iszero\n      tag_73\n      jumpi\n      swap2\n      dup3\n      add\n    tag_76:\n      dup3\n      dup2\n      gt\n      iszero\n      tag_77\n      jumpi\n      dup3\n      mload\n      dup3\n      sstore\n      swap2\n      0x20\n      add\n      swap2\n      swap1\n      0x01\n      add\n      swap1\n      jump(tag_76)\n    tag_77:\n    tag_73:\n      pop\n      swap1\n      pop\n      tag_78\n      swap2\n      swap1\n      tag_79\n      jump\t// in\n    tag_78:\n      pop\n      swap1\n      jump\t// out\n    tag_42:\n      mload(0x40)\n      dup1\n      0x80\n      add\n      0x40\n      mstore\n      dup1\n      0x00\n      dup2\n      mstore\n      0x20\n      add\n      0x60\n      dup2\n      mstore\n      0x20\n      add\n      0x60\n      dup2\n      mstore\n      0x20\n      add\n      iszero(iszero(0x00))\n      dup2\n      mstore\n      pop\n      swap1\n      jump\t// out\n    tag_79:\n    tag_80:\n      dup1\n      dup3\n      gt\n      iszero\n      tag_81\n      jumpi\n      0x00\n      dup2\n      0x00\n      swap1\n      sstore\n      pop\n      0x01\n      add\n      jump(tag_80)\n    tag_81:\n      pop\n      swap1\n      jump\t// out\n        /* \"#utility.yul\":7:419   */\n    tag_83:\n        /* \"#utility.yul\":85:90   */\n      0x00\n        /* \"#utility.yul\":110:176   */\n      tag_85\n        /* \"#utility.yul\":126:175   */\n      tag_86\n        /* \"#utility.yul\":168:174   */\n      dup5\n        /* \"#utility.yul\":126:175   */\n      tag_87\n      jump\t// in\n    tag_86:\n        /* \"#utility.yul\":110:176   */\n      tag_88\n      jump\t// in\n    tag_85:\n        /* \"#utility.yul\":101:176   */\n      swap1\n      pop\n        /* \"#utility.yul\":199:205   */\n      dup3\n        /* \"#utility.yul\":192:197   */\n      dup2\n        /* \"#utility.yul\":185:206   */\n      mstore\n        /* \"#utility.yul\":237:241   */\n      0x20\n        /* \"#utility.yul\":230:235   */\n      dup2\n        /* \"#utility.yul\":226:242   */\n      add\n        /* \"#utility.yul\":275:278   */\n      dup5\n        /* \"#utility.yul\":266:272   */\n      dup5\n        /* \"#utility.yul\":261:264   */\n      dup5\n        /* \"#utility.yul\":257:273   */\n      add\n        /* \"#utility.yul\":254:279   */\n      gt\n        /* \"#utility.yul\":251:363   */\n      iszero\n      tag_89\n      jumpi\n        /* \"#utility.yul\":282:361   */\n      tag_90\n      tag_91\n      jump\t// in\n    tag_90:\n        /* \"#utility.yul\":251:363   */\n    tag_89:\n        /* \"#utility.yul\":372:413   */\n      tag_92\n        /* \"#utility.yul\":406:412   */\n      dup5\n        /* \"#utility.yul\":401:404   */\n      dup3\n        /* \"#utility.yul\":396:399   */\n      dup6\n        /* \"#utility.yul\":372:413   */\n      tag_93\n      jump\t// in\n    tag_92:\n        /* \"#utility.yul\":91:419   */\n      pop\n        /* \"#utility.yul\":7:419   */\n      swap4\n      swap3\n      pop\n      pop\n      pop\n      jump\t// out\n        /* \"#utility.yul\":425:558   */\n    tag_94:\n        /* \"#utility.yul\":468:473   */\n      0x00\n        /* \"#utility.yul\":506:512   */\n      dup2\n        /* \"#utility.yul\":493:513   */\n      calldataload\n        /* \"#utility.yul\":484:513   */\n      swap1\n      pop\n        /* \"#utility.yul\":522:552   */\n      tag_96\n        /* \"#utility.yul\":546:551   */\n      dup2\n        /* \"#utility.yul\":522:552   */\n      tag_97\n      jump\t// in\n    tag_96:\n        /* \"#utility.yul\":425:558   */\n      swap3\n      swap2\n      pop\n      pop\n      jump\t// out\n        /* \"#utility.yul\":578:918   */\n    tag_98:\n        /* \"#utility.yul\":634:639   */\n      0x00\n        /* \"#utility.yul\":683:686   */\n      dup3\n        /* \"#utility.yul\":676:680   */\n      0x1f\n        /* \"#utility.yul\":668:674   */\n      dup4\n        /* \"#utility.yul\":664:681   */\n      add\n        /* \"#utility.yul\":660:687   */\n      slt\n        /* \"#utility.yul\":650:772   */\n      tag_100\n      jumpi\n        /* \"#utility.yul\":691:770   */\n      tag_101\n      tag_102\n      jump\t// in\n    tag_101:\n        /* \"#utility.yul\":650:772   */\n    tag_100:\n        /* \"#utility.yul\":808:814   */\n      dup2\n        /* \"#utility.yul\":795:815   */\n      calldataload\n        /* \"#utility.yul\":833:912   */\n      tag_103\n        /* \"#utility.yul\":908:911   */\n      dup5\n        /* \"#utility.yul\":900:906   */\n      dup3\n        /* \"#utility.yul\":893:897   */\n      0x20\n        /* \"#utility.yul\":885:891   */\n      dup7\n        /* \"#utility.yul\":881:898   */\n      add\n        /* \"#utility.yul\":833:912   */\n      tag_83\n      jump\t// in\n    tag_103:\n        /* \"#utility.yul\":824:912   */\n      swap2\n      pop\n        /* \"#utility.yul\":640:918   */\n      pop\n        /* \"#utility.yul\":578:918   */\n      swap3\n      swap2\n      pop\n      pop\n      jump\t// out\n        /* \"#utility.yul\":924:1063   */\n    tag_104:\n        /* \"#utility.yul\":970:975   */\n      0x00\n        /* \"#utility.yul\":1008:1014   */\n      dup2\n        /* \"#utility.yul\":995:1015   */\n      calldataload\n        /* \"#utility.yul\":986:1015   */\n      swap1\n      pop\n        /* \"#utility.yul\":1024:1057   */\n      tag_106\n        /* \"#utility.yul\":1051:1056   */\n      dup2\n        /* \"#utility.yul\":1024:1057   */\n      tag_107\n      jump\t// in\n    tag_106:\n        /* \"#utility.yul\":924:1063   */\n      swap3\n      swap2\n      pop\n      pop\n      jump\t// out\n        /* \"#utility.yul\":1069:1398   */\n    tag_22:\n        /* \"#utility.yul\":1128:1134   */\n      0x00\n        /* \"#utility.yul\":1177:1179   */\n      0x20\n        /* \"#utility.yul\":1165:1174   */\n      dup3\n        /* \"#utility.yul\":1156:1163   */\n      dup5\n        /* \"#utility.yul\":1152:1175   */\n      sub\n        /* \"#utility.yul\":1148:1180   */\n      slt\n        /* \"#utility.yul\":1145:1264   */\n      iszero\n      tag_109\n      jumpi\n        /* \"#utility.yul\":1183:1262   */\n      tag_110\n      tag_111\n      jump\t// in\n    tag_110:\n        /* \"#utility.yul\":1145:1264   */\n    tag_109:\n        /* \"#utility.yul\":1303:1304   */\n      0x00\n        /* \"#utility.yul\":1328:1381   */\n      tag_112\n        /* \"#utility.yul\":1373:1380   */\n      dup5\n        /* \"#utility.yul\":1364:1370   */\n      dup3\n        /* \"#utility.yul\":1353:1362   */\n      dup6\n        /* \"#utility.yul\":1349:1371   */\n      add\n        /* \"#utility.yul\":1328:1381   */\n      tag_104\n      jump\t// in\n    tag_112:\n        /* \"#utility.yul\":1318:1381   */\n      swap2\n      pop\n        /* \"#utility.yul\":1274:1391   */\n      pop\n        /* \"#utility.yul\":1069:1398   */\n      swap3\n      swap2\n      pop\n      pop\n      jump\t// out\n        /* \"#utility.yul\":1404:2523   */\n    tag_10:\n        /* \"#utility.yul\":1507:1513   */\n      0x00\n        /* \"#utility.yul\":1515:1521   */\n      dup1\n        /* \"#utility.yul\":1523:1529   */\n      0x00\n        /* \"#utility.yul\":1531:1537   */\n      dup1\n        /* \"#utility.yul\":1580:1583   */\n      0x80\n        /* \"#utility.yul\":1568:1577   */\n      dup6\n        /* \"#utility.yul\":1559:1566   */\n      dup8\n        /* \"#utility.yul\":1555:1578   */\n      sub\n        /* \"#utility.yul\":1551:1584   */\n      slt\n        /* \"#utility.yul\":1548:1668   */\n      iszero\n      tag_114\n      jumpi\n        /* \"#utility.yul\":1587:1666   */\n      tag_115\n      tag_111\n      jump\t// in\n    tag_115:\n        /* \"#utility.yul\":1548:1668   */\n    tag_114:\n        /* \"#utility.yul\":1707:1708   */\n      0x00\n        /* \"#utility.yul\":1732:1785   */\n      tag_116\n        /* \"#utility.yul\":1777:1784   */\n      dup8\n        /* \"#utility.yul\":1768:1774   */\n      dup3\n        /* \"#utility.yul\":1757:1766   */\n      dup9\n        /* \"#utility.yul\":1753:1775   */\n      add\n        /* \"#utility.yul\":1732:1785   */\n      tag_104\n      jump\t// in\n    tag_116:\n        /* \"#utility.yul\":1722:1785   */\n      swap5\n      pop\n        /* \"#utility.yul\":1678:1795   */\n      pop\n        /* \"#utility.yul\":1862:1864   */\n      0x20\n        /* \"#utility.yul\":1851:1860   */\n      dup6\n        /* \"#utility.yul\":1847:1865   */\n      add\n        /* \"#utility.yul\":1834:1866   */\n      calldataload\n        /* \"#utility.yul\":1893:1911   */\n      0xffffffffffffffff\n        /* \"#utility.yul\":1885:1891   */\n      dup2\n        /* \"#utility.yul\":1882:1912   */\n      gt\n        /* \"#utility.yul\":1879:1996   */\n      iszero\n      tag_117\n      jumpi\n        /* \"#utility.yul\":1915:1994   */\n      tag_118\n      tag_119\n      jump\t// in\n    tag_118:\n        /* \"#utility.yul\":1879:1996   */\n    tag_117:\n        /* \"#utility.yul\":2020:2083   */\n      tag_120\n        /* \"#utility.yul\":2075:2082   */\n      dup8\n        /* \"#utility.yul\":2066:2072   */\n      dup3\n        /* \"#utility.yul\":2055:2064   */\n      dup9\n        /* \"#utility.yul\":2051:2073   */\n      add\n        /* \"#utility.yul\":2020:2083   */\n      tag_98\n      jump\t// in\n    tag_120:\n        /* \"#utility.yul\":2010:2083   */\n      swap4\n      pop\n        /* \"#utility.yul\":1805:2093   */\n      pop\n        /* \"#utility.yul\":2160:2162   */\n      0x40\n        /* \"#utility.yul\":2149:2158   */\n      dup6\n        /* \"#utility.yul\":2145:2163   */\n      add\n        /* \"#utility.yul\":2132:2164   */\n      calldataload\n        /* \"#utility.yul\":2191:2209   */\n      0xffffffffffffffff\n        /* \"#utility.yul\":2183:2189   */\n      dup2\n        /* \"#utility.yul\":2180:2210   */\n      gt\n        /* \"#utility.yul\":2177:2294   */\n      iszero\n      tag_121\n      jumpi\n        /* \"#utility.yul\":2213:2292   */\n      tag_122\n      tag_119\n      jump\t// in\n    tag_122:\n        /* \"#utility.yul\":2177:2294   */\n    tag_121:\n        /* \"#utility.yul\":2318:2381   */\n      tag_123\n        /* \"#utility.yul\":2373:2380   */\n      dup8\n        /* \"#utility.yul\":2364:2370   */\n      dup3\n        /* \"#utility.yul\":2353:2362   */\n      dup9\n        /* \"#utility.yul\":2349:2371   */\n      add\n        /* \"#utility.yul\":2318:2381   */\n      tag_98\n      jump\t// in\n    tag_123:\n        /* \"#utility.yul\":2308:2381   */\n      swap3\n      pop\n        /* \"#utility.yul\":2103:2391   */\n      pop\n        /* \"#utility.yul\":2430:2432   */\n      0x60\n        /* \"#utility.yul\":2456:2506   */\n      tag_124\n        /* \"#utility.yul\":2498:2505   */\n      dup8\n        /* \"#utility.yul\":2489:2495   */\n      dup3\n        /* \"#utility.yul\":2478:2487   */\n      dup9\n        /* \"#utility.yul\":2474:2496   */\n      add\n        /* \"#utility.yul\":2456:2506   */\n      tag_94\n      jump\t// in\n    tag_124:\n        /* \"#utility.yul\":2446:2506   */\n      swap2\n      pop\n        /* \"#utility.yul\":2401:2516   */\n      pop\n        /* \"#utility.yul\":1404:2523   */\n      swap3\n      swap6\n      swap2\n      swap5\n      pop\n      swap3\n      pop\n      jump\t// out\n        /* \"#utility.yul\":2529:2765   */\n    tag_125:\n        /* \"#utility.yul\":2638:2648   */\n      0x00\n        /* \"#utility.yul\":2673:2759   */\n      tag_127\n        /* \"#utility.yul\":2755:2758   */\n      dup4\n        /* \"#utility.yul\":2747:2753   */\n      dup4\n        /* \"#utility.yul\":2673:2759   */\n      tag_128\n      jump\t// in\n    tag_127:\n        /* \"#utility.yul\":2659:2759   */\n      swap1\n      pop\n        /* \"#utility.yul\":2529:2765   */\n      swap3\n      swap2\n      pop\n      pop\n      jump\t// out\n        /* \"#utility.yul\":2825:3896   */\n    tag_129:\n        /* \"#utility.yul\":2984:2987   */\n      0x00\n        /* \"#utility.yul\":3013:3087   */\n      tag_131\n        /* \"#utility.yul\":3081:3086   */\n      dup3\n        /* \"#utility.yul\":3013:3087   */\n      tag_132\n      jump\t// in\n    tag_131:\n        /* \"#utility.yul\":3103:3209   */\n      tag_133\n        /* \"#utility.yul\":3202:3208   */\n      dup2\n        /* \"#utility.yul\":3197:3200   */\n      dup6\n        /* \"#utility.yul\":3103:3209   */\n      tag_134\n      jump\t// in\n    tag_133:\n        /* \"#utility.yul\":3096:3209   */\n      swap4\n      pop\n        /* \"#utility.yul\":3235:3238   */\n      dup4\n        /* \"#utility.yul\":3280:3284   */\n      0x20\n        /* \"#utility.yul\":3272:3278   */\n      dup3\n        /* \"#utility.yul\":3268:3285   */\n      mul\n        /* \"#utility.yul\":3263:3266   */\n      dup6\n        /* \"#utility.yul\":3259:3286   */\n      add\n        /* \"#utility.yul\":3310:3386   */\n      tag_135\n        /* \"#utility.yul\":3380:3385   */\n      dup6\n        /* \"#utility.yul\":3310:3386   */\n      tag_136\n      jump\t// in\n    tag_135:\n        /* \"#utility.yul\":3409:3416   */\n      dup1\n        /* \"#utility.yul\":3440:3441   */\n      0x00\n        /* \"#utility.yul\":3425:3851   */\n    tag_137:\n        /* \"#utility.yul\":3450:3456   */\n      dup6\n        /* \"#utility.yul\":3447:3448   */\n      dup2\n        /* \"#utility.yul\":3444:3457   */\n      lt\n        /* \"#utility.yul\":3425:3851   */\n      iszero\n      tag_139\n      jumpi\n        /* \"#utility.yul\":3521:3530   */\n      dup5\n        /* \"#utility.yul\":3515:3519   */\n      dup5\n        /* \"#utility.yul\":3511:3531   */\n      sub\n        /* \"#utility.yul\":3506:3509   */\n      dup10\n        /* \"#utility.yul\":3499:3532   */\n      mstore\n        /* \"#utility.yul\":3572:3578   */\n      dup2\n        /* \"#utility.yul\":3566:3579   */\n      mload\n        /* \"#utility.yul\":3600:3704   */\n      tag_140\n        /* \"#utility.yul\":3699:3703   */\n      dup6\n        /* \"#utility.yul\":3684:3697   */\n      dup3\n        /* \"#utility.yul\":3600:3704   */\n      tag_125\n      jump\t// in\n    tag_140:\n        /* \"#utility.yul\":3592:3704   */\n      swap5\n      pop\n        /* \"#utility.yul\":3727:3807   */\n      tag_141\n        /* \"#utility.yul\":3800:3806   */\n      dup4\n        /* \"#utility.yul\":3727:3807   */\n      tag_142\n      jump\t// in\n    tag_141:\n        /* \"#utility.yul\":3717:3807   */\n      swap3\n      pop\n        /* \"#utility.yul\":3836:3840   */\n      0x20\n        /* \"#utility.yul\":3831:3834   */\n      dup11\n        /* \"#utility.yul\":3827:3841   */\n      add\n        /* \"#utility.yul\":3820:3841   */\n      swap10\n      pop\n        /* \"#utility.yul\":3485:3851   */\n      pop\n        /* \"#utility.yul\":3472:3473   */\n      0x01\n        /* \"#utility.yul\":3469:3470   */\n      dup2\n        /* \"#utility.yul\":3465:3474   */\n      add\n        /* \"#utility.yul\":3460:3474   */\n      swap1\n      pop\n        /* \"#utility.yul\":3425:3851   */\n      jump(tag_137)\n    tag_139:\n        /* \"#utility.yul\":3429:3443   */\n      pop\n        /* \"#utility.yul\":3867:3871   */\n      dup3\n        /* \"#utility.yul\":3860:3871   */\n      swap8\n      pop\n        /* \"#utility.yul\":3887:3890   */\n      dup8\n        /* \"#utility.yul\":3880:3890   */\n      swap6\n      pop\n        /* \"#utility.yul\":2989:3896   */\n      pop\n      pop\n      pop\n      pop\n      pop\n        /* \"#utility.yul\":2825:3896   */\n      swap3\n      swap2\n      pop\n      pop\n      jump\t// out\n        /* \"#utility.yul\":3902:4001   */\n    tag_143:\n        /* \"#utility.yul\":3973:3994   */\n      tag_145\n        /* \"#utility.yul\":3988:3993   */\n      dup2\n        /* \"#utility.yul\":3973:3994   */\n      tag_146\n      jump\t// in\n    tag_145:\n        /* \"#utility.yul\":3968:3971   */\n      dup3\n        /* \"#utility.yul\":3961:3995   */\n      mstore\n        /* \"#utility.yul\":3902:4001   */\n      pop\n      pop\n      jump\t// out\n        /* \"#utility.yul\":4007:4116   */\n    tag_147:\n        /* \"#utility.yul\":4088:4109   */\n      tag_149\n        /* \"#utility.yul\":4103:4108   */\n      dup2\n        /* \"#utility.yul\":4088:4109   */\n      tag_146\n      jump\t// in\n    tag_149:\n        /* \"#utility.yul\":4083:4086   */\n      dup3\n        /* \"#utility.yul\":4076:4110   */\n      mstore\n        /* \"#utility.yul\":4007:4116   */\n      pop\n      pop\n      jump\t// out\n        /* \"#utility.yul\":4122:4466   */\n    tag_150:\n        /* \"#utility.yul\":4200:4203   */\n      0x00\n        /* \"#utility.yul\":4228:4267   */\n      tag_152\n        /* \"#utility.yul\":4261:4266   */\n      dup3\n        /* \"#utility.yul\":4228:4267   */\n      tag_153\n      jump\t// in\n    tag_152:\n        /* \"#utility.yul\":4283:4344   */\n      tag_154\n        /* \"#utility.yul\":4337:4343   */\n      dup2\n        /* \"#utility.yul\":4332:4335   */\n      dup6\n        /* \"#utility.yul\":4283:4344   */\n      tag_155\n      jump\t// in\n    tag_154:\n        /* \"#utility.yul\":4276:4344   */\n      swap4\n      pop\n        /* \"#utility.yul\":4353:4405   */\n      tag_156\n        /* \"#utility.yul\":4398:4404   */\n      dup2\n        /* \"#utility.yul\":4393:4396   */\n      dup6\n        /* \"#utility.yul\":4386:4390   */\n      0x20\n        /* \"#utility.yul\":4379:4384   */\n      dup7\n        /* \"#utility.yul\":4375:4391   */\n      add\n        /* \"#utility.yul\":4353:4405   */\n      tag_157\n      jump\t// in\n    tag_156:\n        /* \"#utility.yul\":4430:4459   */\n      tag_158\n        /* \"#utility.yul\":4452:4458   */\n      dup2\n        /* \"#utility.yul\":4430:4459   */\n      tag_159\n      jump\t// in\n    tag_158:\n        /* \"#utility.yul\":4425:4428   */\n      dup5\n        /* \"#utility.yul\":4421:4460   */\n      add\n        /* \"#utility.yul\":4414:4460   */\n      swap2\n      pop\n        /* \"#utility.yul\":4204:4466   */\n      pop\n        /* \"#utility.yul\":4122:4466   */\n      swap3\n      swap2\n      pop\n      pop\n      jump\t// out\n        /* \"#utility.yul\":4472:4836   */\n    tag_160:\n        /* \"#utility.yul\":4560:4563   */\n      0x00\n        /* \"#utility.yul\":4588:4627   */\n      tag_162\n        /* \"#utility.yul\":4621:4626   */\n      dup3\n        /* \"#utility.yul\":4588:4627   */\n      tag_153\n      jump\t// in\n    tag_162:\n        /* \"#utility.yul\":4643:4714   */\n      tag_163\n        /* \"#utility.yul\":4707:4713   */\n      dup2\n        /* \"#utility.yul\":4702:4705   */\n      dup6\n        /* \"#utility.yul\":4643:4714   */\n      tag_164\n      jump\t// in\n    tag_163:\n        /* \"#utility.yul\":4636:4714   */\n      swap4\n      pop\n        /* \"#utility.yul\":4723:4775   */\n      tag_165\n        /* \"#utility.yul\":4768:4774   */\n      dup2\n        /* \"#utility.yul\":4763:4766   */\n      dup6\n        /* \"#utility.yul\":4756:4760   */\n      0x20\n        /* \"#utility.yul\":4749:4754   */\n      dup7\n        /* \"#utility.yul\":4745:4761   */\n      add\n        /* \"#utility.yul\":4723:4775   */\n      tag_157\n      jump\t// in\n    tag_165:\n        /* \"#utility.yul\":4800:4829   */\n      tag_166\n        /* \"#utility.yul\":4822:4828   */\n      dup2\n        /* \"#utility.yul\":4800:4829   */\n      tag_159\n      jump\t// in\n    tag_166:\n        /* \"#utility.yul\":4795:4798   */\n      dup5\n        /* \"#utility.yul\":4791:4830   */\n      add\n        /* \"#utility.yul\":4784:4830   */\n      swap2\n      pop\n        /* \"#utility.yul\":4564:4836   */\n      pop\n        /* \"#utility.yul\":4472:4836   */\n      swap3\n      swap2\n      pop\n      pop\n      jump\t// out\n        /* \"#utility.yul\":4892:5894   */\n    tag_128:\n        /* \"#utility.yul\":4991:4994   */\n      0x00\n        /* \"#utility.yul\":5027:5031   */\n      0x80\n        /* \"#utility.yul\":5022:5025   */\n      dup4\n        /* \"#utility.yul\":5018:5032   */\n      add\n        /* \"#utility.yul\":5112:5116   */\n      0x00\n        /* \"#utility.yul\":5105:5110   */\n      dup4\n        /* \"#utility.yul\":5101:5117   */\n      add\n        /* \"#utility.yul\":5095:5118   */\n      mload\n        /* \"#utility.yul\":5131:5194   */\n      tag_168\n        /* \"#utility.yul\":5188:5192   */\n      0x00\n        /* \"#utility.yul\":5183:5186   */\n      dup7\n        /* \"#utility.yul\":5179:5193   */\n      add\n        /* \"#utility.yul\":5165:5177   */\n      dup3\n        /* \"#utility.yul\":5131:5194   */\n      tag_169\n      jump\t// in\n    tag_168:\n        /* \"#utility.yul\":5042:5204   */\n      pop\n        /* \"#utility.yul\":5286:5290   */\n      0x20\n        /* \"#utility.yul\":5279:5284   */\n      dup4\n        /* \"#utility.yul\":5275:5291   */\n      add\n        /* \"#utility.yul\":5269:5292   */\n      mload\n        /* \"#utility.yul\":5339:5342   */\n      dup5\n        /* \"#utility.yul\":5333:5337   */\n      dup3\n        /* \"#utility.yul\":5329:5343   */\n      sub\n        /* \"#utility.yul\":5322:5326   */\n      0x20\n        /* \"#utility.yul\":5317:5320   */\n      dup7\n        /* \"#utility.yul\":5313:5327   */\n      add\n        /* \"#utility.yul\":5306:5344   */\n      mstore\n        /* \"#utility.yul\":5365:5438   */\n      tag_170\n        /* \"#utility.yul\":5433:5437   */\n      dup3\n        /* \"#utility.yul\":5419:5431   */\n      dup3\n        /* \"#utility.yul\":5365:5438   */\n      tag_150\n      jump\t// in\n    tag_170:\n        /* \"#utility.yul\":5357:5438   */\n      swap2\n      pop\n        /* \"#utility.yul\":5214:5449   */\n      pop\n        /* \"#utility.yul\":5534:5538   */\n      0x40\n        /* \"#utility.yul\":5527:5532   */\n      dup4\n        /* \"#utility.yul\":5523:5539   */\n      add\n        /* \"#utility.yul\":5517:5540   */\n      mload\n        /* \"#utility.yul\":5587:5590   */\n      dup5\n        /* \"#utility.yul\":5581:5585   */\n      dup3\n        /* \"#utility.yul\":5577:5591   */\n      sub\n        /* \"#utility.yul\":5570:5574   */\n      0x40\n        /* \"#utility.yul\":5565:5568   */\n      dup7\n        /* \"#utility.yul\":5561:5575   */\n      add\n        /* \"#utility.yul\":5554:5592   */\n      mstore\n        /* \"#utility.yul\":5613:5686   */\n      tag_171\n        /* \"#utility.yul\":5681:5685   */\n      dup3\n        /* \"#utility.yul\":5667:5679   */\n      dup3\n        /* \"#utility.yul\":5613:5686   */\n      tag_150\n      jump\t// in\n    tag_171:\n        /* \"#utility.yul\":5605:5686   */\n      swap2\n      pop\n        /* \"#utility.yul\":5459:5697   */\n      pop\n        /* \"#utility.yul\":5781:5785   */\n      0x60\n        /* \"#utility.yul\":5774:5779   */\n      dup4\n        /* \"#utility.yul\":5770:5786   */\n      add\n        /* \"#utility.yul\":5764:5787   */\n      mload\n        /* \"#utility.yul\":5800:5857   */\n      tag_172\n        /* \"#utility.yul\":5851:5855   */\n      0x60\n        /* \"#utility.yul\":5846:5849   */\n      dup7\n        /* \"#utility.yul\":5842:5856   */\n      add\n        /* \"#utility.yul\":5828:5840   */\n      dup3\n        /* \"#utility.yul\":5800:5857   */\n      tag_143\n      jump\t// in\n    tag_172:\n        /* \"#utility.yul\":5707:5867   */\n      pop\n        /* \"#utility.yul\":5884:5888   */\n      dup1\n        /* \"#utility.yul\":5877:5888   */\n      swap2\n      pop\n        /* \"#utility.yul\":4996:5894   */\n      pop\n        /* \"#utility.yul\":4892:5894   */\n      swap3\n      swap2\n      pop\n      pop\n      jump\t// out\n        /* \"#utility.yul\":5900:6008   */\n    tag_169:\n        /* \"#utility.yul\":5977:6001   */\n      tag_174\n        /* \"#utility.yul\":5995:6000   */\n      dup2\n        /* \"#utility.yul\":5977:6001   */\n      tag_175\n      jump\t// in\n    tag_174:\n        /* \"#utility.yul\":5972:5975   */\n      dup3\n        /* \"#utility.yul\":5965:6002   */\n      mstore\n        /* \"#utility.yul\":5900:6008   */\n      pop\n      pop\n      jump\t// out\n        /* \"#utility.yul\":6014:6132   */\n    tag_176:\n        /* \"#utility.yul\":6101:6125   */\n      tag_178\n        /* \"#utility.yul\":6119:6124   */\n      dup2\n        /* \"#utility.yul\":6101:6125   */\n      tag_175\n      jump\t// in\n    tag_178:\n        /* \"#utility.yul\":6096:6099   */\n      dup3\n        /* \"#utility.yul\":6089:6126   */\n      mstore\n        /* \"#utility.yul\":6014:6132   */\n      pop\n      pop\n      jump\t// out\n        /* \"#utility.yul\":6138:6591   */\n    tag_19:\n        /* \"#utility.yul\":6321:6325   */\n      0x00\n        /* \"#utility.yul\":6359:6361   */\n      0x20\n        /* \"#utility.yul\":6348:6357   */\n      dup3\n        /* \"#utility.yul\":6344:6362   */\n      add\n        /* \"#utility.yul\":6336:6362   */\n      swap1\n      pop\n        /* \"#utility.yul\":6408:6417   */\n      dup2\n        /* \"#utility.yul\":6402:6406   */\n      dup2\n        /* \"#utility.yul\":6398:6418   */\n      sub\n        /* \"#utility.yul\":6394:6395   */\n      0x00\n        /* \"#utility.yul\":6383:6392   */\n      dup4\n        /* \"#utility.yul\":6379:6396   */\n      add\n        /* \"#utility.yul\":6372:6419   */\n      mstore\n        /* \"#utility.yul\":6436:6584   */\n      tag_180\n        /* \"#utility.yul\":6579:6583   */\n      dup2\n        /* \"#utility.yul\":6570:6576   */\n      dup5\n        /* \"#utility.yul\":6436:6584   */\n      tag_129\n      jump\t// in\n    tag_180:\n        /* \"#utility.yul\":6428:6584   */\n      swap1\n      pop\n        /* \"#utility.yul\":6138:6591   */\n      swap3\n      swap2\n      pop\n      pop\n      jump\t// out\n        /* \"#utility.yul\":6597:6819   */\n    tag_15:\n        /* \"#utility.yul\":6690:6694   */\n      0x00\n        /* \"#utility.yul\":6728:6730   */\n      0x20\n        /* \"#utility.yul\":6717:6726   */\n      dup3\n        /* \"#utility.yul\":6713:6731   */\n      add\n        /* \"#utility.yul\":6705:6731   */\n      swap1\n      pop\n        /* \"#utility.yul\":6741:6812   */\n      tag_182\n        /* \"#utility.yul\":6809:6810   */\n      0x00\n        /* \"#utility.yul\":6798:6807   */\n      dup4\n        /* \"#utility.yul\":6794:6811   */\n      add\n        /* \"#utility.yul\":6785:6791   */\n      dup5\n        /* \"#utility.yul\":6741:6812   */\n      tag_176\n      jump\t// in\n    tag_182:\n        /* \"#utility.yul\":6597:6819   */\n      swap3\n      swap2\n      pop\n      pop\n      jump\t// out\n        /* \"#utility.yul\":6825:7548   */\n    tag_25:\n        /* \"#utility.yul\":7036:7040   */\n      0x00\n        /* \"#utility.yul\":7074:7077   */\n      0x80\n        /* \"#utility.yul\":7063:7072   */\n      dup3\n        /* \"#utility.yul\":7059:7078   */\n      add\n        /* \"#utility.yul\":7051:7078   */\n      swap1\n      pop\n        /* \"#utility.yul\":7088:7159   */\n      tag_184\n        /* \"#utility.yul\":7156:7157   */\n      0x00\n        /* \"#utility.yul\":7145:7154   */\n      dup4\n        /* \"#utility.yul\":7141:7158   */\n      add\n        /* \"#utility.yul\":7132:7138   */\n      dup8\n        /* \"#utility.yul\":7088:7159   */\n      tag_176\n      jump\t// in\n    tag_184:\n        /* \"#utility.yul\":7206:7215   */\n      dup2\n        /* \"#utility.yul\":7200:7204   */\n      dup2\n        /* \"#utility.yul\":7196:7216   */\n      sub\n        /* \"#utility.yul\":7191:7193   */\n      0x20\n        /* \"#utility.yul\":7180:7189   */\n      dup4\n        /* \"#utility.yul\":7176:7194   */\n      add\n        /* \"#utility.yul\":7169:7217   */\n      mstore\n        /* \"#utility.yul\":7234:7312   */\n      tag_185\n        /* \"#utility.yul\":7307:7311   */\n      dup2\n        /* \"#utility.yul\":7298:7304   */\n      dup7\n        /* \"#utility.yul\":7234:7312   */\n      tag_160\n      jump\t// in\n    tag_185:\n        /* \"#utility.yul\":7226:7312   */\n      swap1\n      pop\n        /* \"#utility.yul\":7359:7368   */\n      dup2\n        /* \"#utility.yul\":7353:7357   */\n      dup2\n        /* \"#utility.yul\":7349:7369   */\n      sub\n        /* \"#utility.yul\":7344:7346   */\n      0x40\n        /* \"#utility.yul\":7333:7342   */\n      dup4\n        /* \"#utility.yul\":7329:7347   */\n      add\n        /* \"#utility.yul\":7322:7370   */\n      mstore\n        /* \"#utility.yul\":7387:7465   */\n      tag_186\n        /* \"#utility.yul\":7460:7464   */\n      dup2\n        /* \"#utility.yul\":7451:7457   */\n      dup6\n        /* \"#utility.yul\":7387:7465   */\n      tag_160\n      jump\t// in\n    tag_186:\n        /* \"#utility.yul\":7379:7465   */\n      swap1\n      pop\n        /* \"#utility.yul\":7475:7541   */\n      tag_187\n        /* \"#utility.yul\":7537:7539   */\n      0x60\n        /* \"#utility.yul\":7526:7535   */\n      dup4\n        /* \"#utility.yul\":7522:7540   */\n      add\n        /* \"#utility.yul\":7513:7519   */\n      dup5\n        /* \"#utility.yul\":7475:7541   */\n      tag_147\n      jump\t// in\n    tag_187:\n        /* \"#utility.yul\":6825:7548   */\n      swap6\n      swap5\n      pop\n      pop\n      pop\n      pop\n      pop\n      jump\t// out\n        /* \"#utility.yul\":7554:7683   */\n    tag_88:\n        /* \"#utility.yul\":7588:7594   */\n      0x00\n        /* \"#utility.yul\":7615:7635   */\n      tag_189\n      tag_190\n      jump\t// in\n    tag_189:\n        /* \"#utility.yul\":7605:7635   */\n      swap1\n      pop\n        /* \"#utility.yul\":7644:7677   */\n      tag_191\n        /* \"#utility.yul\":7672:7676   */\n      dup3\n        /* \"#utility.yul\":7664:7670   */\n      dup3\n        /* \"#utility.yul\":7644:7677   */\n      tag_192\n      jump\t// in\n    tag_191:\n        /* \"#utility.yul\":7554:7683   */\n      swap2\n      swap1\n      pop\n      jump\t// out\n        /* \"#utility.yul\":7689:7764   */\n    tag_190:\n        /* \"#utility.yul\":7722:7728   */\n      0x00\n        /* \"#utility.yul\":7755:7757   */\n      0x40\n        /* \"#utility.yul\":7749:7758   */\n      mload\n        /* \"#utility.yul\":7739:7758   */\n      swap1\n      pop\n        /* \"#utility.yul\":7689:7764   */\n      swap1\n      jump\t// out\n        /* \"#utility.yul\":7770:8078   */\n    tag_87:\n        /* \"#utility.yul\":7832:7836   */\n      0x00\n        /* \"#utility.yul\":7922:7940   */\n      0xffffffffffffffff\n        /* \"#utility.yul\":7914:7920   */\n      dup3\n        /* \"#utility.yul\":7911:7941   */\n      gt\n        /* \"#utility.yul\":7908:7964   */\n      iszero\n      tag_195\n      jumpi\n        /* \"#utility.yul\":7944:7962   */\n      tag_196\n      tag_38\n      jump\t// in\n    tag_196:\n        /* \"#utility.yul\":7908:7964   */\n    tag_195:\n        /* \"#utility.yul\":7982:8011   */\n      tag_197\n        /* \"#utility.yul\":8004:8010   */\n      dup3\n        /* \"#utility.yul\":7982:8011   */\n      tag_159\n      jump\t// in\n    tag_197:\n        /* \"#utility.yul\":7974:8011   */\n      swap1\n      pop\n        /* \"#utility.yul\":8066:8070   */\n      0x20\n        /* \"#utility.yul\":8060:8064   */\n      dup2\n        /* \"#utility.yul\":8056:8071   */\n      add\n        /* \"#utility.yul\":8048:8071   */\n      swap1\n      pop\n        /* \"#utility.yul\":7770:8078   */\n      swap2\n      swap1\n      pop\n      jump\t// out\n        /* \"#utility.yul\":8084:8236   */\n    tag_136:\n        /* \"#utility.yul\":8171:8175   */\n      0x00\n        /* \"#utility.yul\":8194:8197   */\n      dup2\n        /* \"#utility.yul\":8186:8197   */\n      swap1\n      pop\n        /* \"#utility.yul\":8224:8228   */\n      0x20\n        /* \"#utility.yul\":8219:8222   */\n      dup3\n        /* \"#utility.yul\":8215:8229   */\n      add\n        /* \"#utility.yul\":8207:8229   */\n      swap1\n      pop\n        /* \"#utility.yul\":8084:8236   */\n      swap2\n      swap1\n      pop\n      jump\t// out\n        /* \"#utility.yul\":8242:8376   */\n    tag_132:\n        /* \"#utility.yul\":8329:8335   */\n      0x00\n        /* \"#utility.yul\":8363:8368   */\n      dup2\n        /* \"#utility.yul\":8357:8369   */\n      mload\n        /* \"#utility.yul\":8347:8369   */\n      swap1\n      pop\n        /* \"#utility.yul\":8242:8376   */\n      swap2\n      swap1\n      pop\n      jump\t// out\n        /* \"#utility.yul\":8382:8481   */\n    tag_153:\n        /* \"#utility.yul\":8434:8440   */\n      0x00\n        /* \"#utility.yul\":8468:8473   */\n      dup2\n        /* \"#utility.yul\":8462:8474   */\n      mload\n        /* \"#utility.yul\":8452:8474   */\n      swap1\n      pop\n        /* \"#utility.yul\":8382:8481   */\n      swap2\n      swap1\n      pop\n      jump\t// out\n        /* \"#utility.yul\":8487:8620   */\n    tag_142:\n        /* \"#utility.yul\":8577:8581   */\n      0x00\n        /* \"#utility.yul\":8609:8613   */\n      0x20\n        /* \"#utility.yul\":8604:8607   */\n      dup3\n        /* \"#utility.yul\":8600:8614   */\n      add\n        /* \"#utility.yul\":8592:8614   */\n      swap1\n      pop\n        /* \"#utility.yul\":8487:8620   */\n      swap2\n      swap1\n      pop\n      jump\t// out\n        /* \"#utility.yul\":8626:8830   */\n    tag_134:\n        /* \"#utility.yul\":8745:8756   */\n      0x00\n        /* \"#utility.yul\":8779:8785   */\n      dup3\n        /* \"#utility.yul\":8774:8777   */\n      dup3\n        /* \"#utility.yul\":8767:8786   */\n      mstore\n        /* \"#utility.yul\":8819:8823   */\n      0x20\n        /* \"#utility.yul\":8814:8817   */\n      dup3\n        /* \"#utility.yul\":8810:8824   */\n      add\n        /* \"#utility.yul\":8795:8824   */\n      swap1\n      pop\n        /* \"#utility.yul\":8626:8830   */\n      swap3\n      swap2\n      pop\n      pop\n      jump\t// out\n        /* \"#utility.yul\":8836:8995   */\n    tag_155:\n        /* \"#utility.yul\":8910:8921   */\n      0x00\n        /* \"#utility.yul\":8944:8950   */\n      dup3\n        /* \"#utility.yul\":8939:8942   */\n      dup3\n        /* \"#utility.yul\":8932:8951   */\n      mstore\n        /* \"#utility.yul\":8984:8988   */\n      0x20\n        /* \"#utility.yul\":8979:8982   */\n      dup3\n        /* \"#utility.yul\":8975:8989   */\n      add\n        /* \"#utility.yul\":8960:8989   */\n      swap1\n      pop\n        /* \"#utility.yul\":8836:8995   */\n      swap3\n      swap2\n      pop\n      pop\n      jump\t// out\n        /* \"#utility.yul\":9001:9170   */\n    tag_164:\n        /* \"#utility.yul\":9085:9096   */\n      0x00\n        /* \"#utility.yul\":9119:9125   */\n      dup3\n        /* \"#utility.yul\":9114:9117   */\n      dup3\n        /* \"#utility.yul\":9107:9126   */\n      mstore\n        /* \"#utility.yul\":9159:9163   */\n      0x20\n        /* \"#utility.yul\":9154:9157   */\n      dup3\n        /* \"#utility.yul\":9150:9164   */\n      add\n        /* \"#utility.yul\":9135:9164   */\n      swap1\n      pop\n        /* \"#utility.yul\":9001:9170   */\n      swap3\n      swap2\n      pop\n      pop\n      jump\t// out\n        /* \"#utility.yul\":9176:9266   */\n    tag_146:\n        /* \"#utility.yul\":9210:9217   */\n      0x00\n        /* \"#utility.yul\":9253:9258   */\n      dup2\n        /* \"#utility.yul\":9246:9259   */\n      iszero\n        /* \"#utility.yul\":9239:9260   */\n      iszero\n        /* \"#utility.yul\":9228:9260   */\n      swap1\n      pop\n        /* \"#utility.yul\":9176:9266   */\n      swap2\n      swap1\n      pop\n      jump\t// out\n        /* \"#utility.yul\":9272:9349   */\n    tag_175:\n        /* \"#utility.yul\":9309:9316   */\n      0x00\n        /* \"#utility.yul\":9338:9343   */\n      dup2\n        /* \"#utility.yul\":9327:9343   */\n      swap1\n      pop\n        /* \"#utility.yul\":9272:9349   */\n      swap2\n      swap1\n      pop\n      jump\t// out\n        /* \"#utility.yul\":9355:9509   */\n    tag_93:\n        /* \"#utility.yul\":9439:9445   */\n      dup3\n        /* \"#utility.yul\":9434:9437   */\n      dup2\n        /* \"#utility.yul\":9429:9432   */\n      dup4\n        /* \"#utility.yul\":9416:9446   */\n      calldatacopy\n        /* \"#utility.yul\":9501:9502   */\n      0x00\n        /* \"#utility.yul\":9492:9498   */\n      dup4\n        /* \"#utility.yul\":9487:9490   */\n      dup4\n        /* \"#utility.yul\":9483:9499   */\n      add\n        /* \"#utility.yul\":9476:9503   */\n      mstore\n        /* \"#utility.yul\":9355:9509   */\n      pop\n      pop\n      pop\n      jump\t// out\n        /* \"#utility.yul\":9515:9822   */\n    tag_157:\n        /* \"#utility.yul\":9583:9584   */\n      0x00\n        /* \"#utility.yul\":9593:9706   */\n    tag_209:\n        /* \"#utility.yul\":9607:9613   */\n      dup4\n        /* \"#utility.yul\":9604:9605   */\n      dup2\n        /* \"#utility.yul\":9601:9614   */\n      lt\n        /* \"#utility.yul\":9593:9706   */\n      iszero\n      tag_211\n      jumpi\n        /* \"#utility.yul\":9692:9693   */\n      dup1\n        /* \"#utility.yul\":9687:9690   */\n      dup3\n        /* \"#utility.yul\":9683:9694   */\n      add\n        /* \"#utility.yul\":9677:9695   */\n      mload\n        /* \"#utility.yul\":9673:9674   */\n      dup2\n        /* \"#utility.yul\":9668:9671   */\n      dup5\n        /* \"#utility.yul\":9664:9675   */\n      add\n        /* \"#utility.yul\":9657:9696   */\n      mstore\n        /* \"#utility.yul\":9629:9631   */\n      0x20\n        /* \"#utility.yul\":9626:9627   */\n      dup2\n        /* \"#utility.yul\":9622:9632   */\n      add\n        /* \"#utility.yul\":9617:9632   */\n      swap1\n      pop\n        /* \"#utility.yul\":9593:9706   */\n      jump(tag_209)\n    tag_211:\n        /* \"#utility.yul\":9724:9730   */\n      dup4\n        /* \"#utility.yul\":9721:9722   */\n      dup2\n        /* \"#utility.yul\":9718:9731   */\n      gt\n        /* \"#utility.yul\":9715:9816   */\n      iszero\n      tag_212\n      jumpi\n        /* \"#utility.yul\":9804:9805   */\n      0x00\n        /* \"#utility.yul\":9795:9801   */\n      dup5\n        /* \"#utility.yul\":9790:9793   */\n      dup5\n        /* \"#utility.yul\":9786:9802   */\n      add\n        /* \"#utility.yul\":9779:9806   */\n      mstore\n        /* \"#utility.yul\":9715:9816   */\n    tag_212:\n        /* \"#utility.yul\":9564:9822   */\n      pop\n        /* \"#utility.yul\":9515:9822   */\n      pop\n      pop\n      pop\n      jump\t// out\n        /* \"#utility.yul\":9828:10148   */\n    tag_47:\n        /* \"#utility.yul\":9872:9878   */\n      0x00\n        /* \"#utility.yul\":9909:9910   */\n      0x02\n        /* \"#utility.yul\":9903:9907   */\n      dup3\n        /* \"#utility.yul\":9899:9911   */\n      div\n        /* \"#utility.yul\":9889:9911   */\n      swap1\n      pop\n        /* \"#utility.yul\":9956:9957   */\n      0x01\n        /* \"#utility.yul\":9950:9954   */\n      dup3\n        /* \"#utility.yul\":9946:9958   */\n      and\n        /* \"#utility.yul\":9977:9995   */\n      dup1\n        /* \"#utility.yul\":9967:10048   */\n      tag_214\n      jumpi\n        /* \"#utility.yul\":10033:10037   */\n      0x7f\n        /* \"#utility.yul\":10025:10031   */\n      dup3\n        /* \"#utility.yul\":10021:10038   */\n      and\n        /* \"#utility.yul\":10011:10038   */\n      swap2\n      pop\n        /* \"#utility.yul\":9967:10048   */\n    tag_214:\n        /* \"#utility.yul\":10095:10097   */\n      0x20\n        /* \"#utility.yul\":10087:10093   */\n      dup3\n        /* \"#utility.yul\":10084:10098   */\n      lt\n        /* \"#utility.yul\":10064:10082   */\n      dup2\n        /* \"#utility.yul\":10061:10099   */\n      eq\n        /* \"#utility.yul\":10058:10142   */\n      iszero\n      tag_215\n      jumpi\n        /* \"#utility.yul\":10114:10132   */\n      tag_216\n      tag_217\n      jump\t// in\n    tag_216:\n        /* \"#utility.yul\":10058:10142   */\n    tag_215:\n        /* \"#utility.yul\":9879:10148   */\n      pop\n        /* \"#utility.yul\":9828:10148   */\n      swap2\n      swap1\n      pop\n      jump\t// out\n        /* \"#utility.yul\":10154:10435   */\n    tag_192:\n        /* \"#utility.yul\":10237:10264   */\n      tag_219\n        /* \"#utility.yul\":10259:10263   */\n      dup3\n        /* \"#utility.yul\":10237:10264   */\n      tag_159\n      jump\t// in\n    tag_219:\n        /* \"#utility.yul\":10229:10235   */\n      dup2\n        /* \"#utility.yul\":10225:10265   */\n      add\n        /* \"#utility.yul\":10367:10373   */\n      dup2\n        /* \"#utility.yul\":10355:10365   */\n      dup2\n        /* \"#utility.yul\":10352:10374   */\n      lt\n        /* \"#utility.yul\":10331:10349   */\n      0xffffffffffffffff\n        /* \"#utility.yul\":10319:10329   */\n      dup3\n        /* \"#utility.yul\":10316:10350   */\n      gt\n        /* \"#utility.yul\":10313:10375   */\n      or\n        /* \"#utility.yul\":10310:10398   */\n      iszero\n      tag_220\n      jumpi\n        /* \"#utility.yul\":10378:10396   */\n      tag_221\n      tag_38\n      jump\t// in\n    tag_221:\n        /* \"#utility.yul\":10310:10398   */\n    tag_220:\n        /* \"#utility.yul\":10418:10428   */\n      dup1\n        /* \"#utility.yul\":10414:10416   */\n      0x40\n        /* \"#utility.yul\":10407:10429   */\n      mstore\n        /* \"#utility.yul\":10197:10435   */\n      pop\n        /* \"#utility.yul\":10154:10435   */\n      pop\n      pop\n      jump\t// out\n        /* \"#utility.yul\":10441:10674   */\n    tag_34:\n        /* \"#utility.yul\":10480:10483   */\n      0x00\n        /* \"#utility.yul\":10503:10527   */\n      tag_223\n        /* \"#utility.yul\":10521:10526   */\n      dup3\n        /* \"#utility.yul\":10503:10527   */\n      tag_175\n      jump\t// in\n    tag_223:\n        /* \"#utility.yul\":10494:10527   */\n      swap2\n      pop\n        /* \"#utility.yul\":10549:10615   */\n      0xffffffffffffffffffffffffffffffffffffffffffffffffffffffffffffffff\n        /* \"#utility.yul\":10542:10547   */\n      dup3\n        /* \"#utility.yul\":10539:10616   */\n      eq\n        /* \"#utility.yul\":10536:10639   */\n      iszero\n      tag_224\n      jumpi\n        /* \"#utility.yul\":10619:10637   */\n      tag_225\n      tag_226\n      jump\t// in\n    tag_225:\n        /* \"#utility.yul\":10536:10639   */\n    tag_224:\n        /* \"#utility.yul\":10666:10667   */\n      0x01\n        /* \"#utility.yul\":10659:10664   */\n      dup3\n        /* \"#utility.yul\":10655:10668   */\n      add\n        /* \"#utility.yul\":10648:10668   */\n      swap1\n      pop\n        /* \"#utility.yul\":10441:10674   */\n      swap2\n      swap1\n      pop\n      jump\t// out\n        /* \"#utility.yul\":10680:10860   */\n    tag_226:\n        /* \"#utility.yul\":10728:10805   */\n      0x4e487b7100000000000000000000000000000000000000000000000000000000\n        /* \"#utility.yul\":10725:10726   */\n      0x00\n        /* \"#utility.yul\":10718:10806   */\n      mstore\n        /* \"#utility.yul\":10825:10829   */\n      0x11\n        /* \"#utility.yul\":10822:10823   */\n      0x04\n        /* \"#utility.yul\":10815:10830   */\n      mstore\n        /* \"#utility.yul\":10849:10853   */\n      0x24\n        /* \"#utility.yul\":10846:10847   */\n      0x00\n        /* \"#utility.yul\":10839:10854   */\n      revert\n        /* \"#utility.yul\":10866:11046   */\n    tag_217:\n        /* \"#utility.yul\":10914:10991   */\n      0x4e487b7100000000000000000000000000000000000000000000000000000000\n        /* \"#utility.yul\":10911:10912   */\n      0x00\n        /* \"#utility.yul\":10904:10992   */\n      mstore\n        /* \"#utility.yul\":11011:11015   */\n      0x22\n        /* \"#utility.yul\":11008:11009   */\n      0x04\n        /* \"#utility.yul\":11001:11016   */\n      mstore\n        /* \"#utility.yul\":11035:11039   */\n      0x24\n        /* \"#utility.yul\":11032:11033   */\n      0x00\n        /* \"#utility.yul\":11025:11040   */\n      revert\n        /* \"#utility.yul\":11052:11232   */\n    tag_59:\n        /* \"#utility.yul\":11100:11177   */\n      0x4e487b7100000000000000000000000000000000000000000000000000000000\n        /* \"#utility.yul\":11097:11098   */\n      0x00\n        /* \"#utility.yul\":11090:11178   */\n      mstore\n        /* \"#utility.yul\":11197:11201   */\n      0x32\n        /* \"#utility.yul\":11194:11195   */\n      0x04\n        /* \"#utility.yul\":11187:11202   */\n      mstore\n        /* \"#utility.yul\":11221:11225   */\n      0x24\n        /* \"#utility.yul\":11218:11219   */\n      0x00\n        /* \"#utility.yul\":11211:11226   */\n      revert\n        /* \"#utility.yul\":11238:11418   */\n    tag_38:\n        /* \"#utility.yul\":11286:11363   */\n      0x4e487b7100000000000000000000000000000000000000000000000000000000\n        /* \"#utility.yul\":11283:11284   */\n      0x00\n        /* \"#utility.yul\":11276:11364   */\n      mstore\n        /* \"#utility.yul\":11383:11387   */\n      0x41\n        /* \"#utility.yul\":11380:11381   */\n      0x04\n        /* \"#utility.yul\":11373:11388   */\n      mstore\n        /* \"#utility.yul\":11407:11411   */\n      0x24\n        /* \"#utility.yul\":11404:11405   */\n      0x00\n        /* \"#utility.yul\":11397:11412   */\n      revert\n        /* \"#utility.yul\":11424:11541   */\n    tag_102:\n        /* \"#utility.yul\":11533:11534   */\n      0x00\n        /* \"#utility.yul\":11530:11531   */\n      dup1\n        /* \"#utility.yul\":11523:11535   */\n      revert\n        /* \"#utility.yul\":11547:11664   */\n    tag_91:\n        /* \"#utility.yul\":11656:11657   */\n      0x00\n        /* \"#utility.yul\":11653:11654   */\n      dup1\n        /* \"#utility.yul\":11646:11658   */\n      revert\n        /* \"#utility.yul\":11670:11787   */\n    tag_119:\n        /* \"#utility.yul\":11779:11780   */\n      0x00\n        /* \"#utility.yul\":11776:11777   */\n      dup1\n        /* \"#utility.yul\":11769:11781   */\n      revert\n        /* \"#utility.yul\":11793:11910   */\n    tag_111:\n        /* \"#utility.yul\":11902:11903   */\n      0x00\n        /* \"#utility.yul\":11899:11900   */\n      dup1\n        /* \"#utility.yul\":11892:11904   */\n      revert\n        /* \"#utility.yul\":11916:12018   */\n    tag_159:\n        /* \"#utility.yul\":11957:11963   */\n      0x00\n        /* \"#utility.yul\":12008:12010   */\n      0x1f\n        /* \"#utility.yul\":12004:12011   */\n      not\n        /* \"#utility.yul\":11999:12001   */\n      0x1f\n        /* \"#utility.yul\":11992:11997   */\n      dup4\n        /* \"#utility.yul\":11988:12002   */\n      add\n        /* \"#utility.yul\":11984:12012   */\n      and\n        /* \"#utility.yul\":11974:12012   */\n      swap1\n      pop\n        /* \"#utility.yul\":11916:12018   */\n      swap2\n      swap1\n      pop\n      jump\t// out\n        /* \"#utility.yul\":12024:12140   */\n    tag_97:\n        /* \"#utility.yul\":12094:12115   */\n      tag_237\n        /* \"#utility.yul\":12109:12114   */\n      dup2\n        /* \"#utility.yul\":12094:12115   */\n      tag_146\n      jump\t// in\n    tag_237:\n        /* \"#utility.yul\":12087:12092   */\n      dup2\n        /* \"#utility.yul\":12084:12116   */\n      eq\n        /* \"#utility.yul\":12074:12134   */\n      tag_238\n      jumpi\n        /* \"#utility.yul\":12130:12131   */\n      0x00\n        /* \"#utility.yul\":12127:12128   */\n      dup1\n        /* \"#utility.yul\":12120:12132   */\n      revert\n        /* \"#utility.yul\":12074:12134   */\n    tag_238:\n        /* \"#utility.yul\":12024:12140   */\n      pop\n      jump\t// out\n        /* \"#utility.yul\":12146:12268   */\n    tag_107:\n        /* \"#utility.yul\":12219:12243   */\n      tag_240\n        /* \"#utility.yul\":12237:12242   */\n      dup2\n        /* \"#utility.yul\":12219:12243   */\n      tag_175\n      jump\t// in\n    tag_240:\n        /* \"#utility.yul\":12212:12217   */\n      dup2\n        /* \"#utility.yul\":12209:12244   */\n      eq\n        /* \"#utility.yul\":12199:12262   */\n      tag_241\n      jumpi\n        /* \"#utility.yul\":12258:12259   */\n      0x00\n        /* \"#utility.yul\":12255:12256   */\n      dup1\n        /* \"#utility.yul\":12248:12260   */\n      revert\n        /* \"#utility.yul\":12199:12262   */\n    tag_241:\n        /* \"#utility.yul\":12146:12268   */\n      pop\n      jump\t// out\n\n    auxdata: 0xa26469706673582212206c7bd983501556d80a3f18e566055e20752d48fab18c6eae54b3dfd2707ae57664736f6c63430008070033\n}\n",
				"bytecode": {
					"linkReferences": {},
					"object": "608060405234801561001057600080fd5b50336000806101000a81548173ffffffffffffffffffffffffffffffffffffffff021916908373ffffffffffffffffffffffffffffffffffffffff160217905550610c91806100606000396000f3fe608060405234801561001057600080fd5b50600436106100575760003560e01c80633b04d05b1461005c57806361bc221a146100785780637fa1680a14610096578063bc8bc2b4146100b4578063d321fe29146100e7575b600080fd5b610076600480360381019061007191906106bc565b610105565b005b6100806101c2565b60405161008d919061091e565b60405180910390f35b61009e6101c8565b6040516100ab91906108fc565b60405180910390f35b6100ce60048036038101906100c9919061068f565b6103d1565b6040516100de9493929190610939565b60405180910390f35b6100ef61051e565b6040516100fc919061091e565b60405180910390f35b6040518060800160405280858152602001848152602001838152602001821515815250600260006001548152602001908152602001600020600082015181600001556020820151816001019080519060200190610163929190610528565b506040820151816002019080519060200190610180929190610528565b5060608201518160030160006101000a81548160ff021916908315150217905550905050600160008154809291906101b790610b03565b919050555050505050565b60015481565b6060600060015467ffffffffffffffff8111156101e8576101e7610bd9565b5b60405190808252806020026020018201604052801561022157816020015b61020e6105ae565b8152602001906001900390816102065790505b50905060005b6001548110156103c957600260008281526020019081526020016000206040518060800160405290816000820154815260200160018201805461026990610aa0565b80601f016020809104026020016040519081016040528092919081815260200182805461029590610aa0565b80156102e25780601f106102b7576101008083540402835291602001916102e2565b820191906000526020600020905b8154815290600101906020018083116102c557829003601f168201915b505050505081526020016002820180546102fb90610aa0565b80601f016020809104026020016040519081016040528092919081815260200182805461032790610aa0565b80156103745780601f1061034957610100808354040283529160200191610374565b820191906000526020600020905b81548152906001019060200180831161035757829003601f168201915b505050505081526020016003820160009054906101000a900460ff1615151515815250508282815181106103ab576103aa610baa565b5b602002602001018190525080806103c190610b03565b915050610227565b508091505090565b60026020528060005260406000206000915090508060000154908060010180546103fa90610aa0565b80601f016020809104026020016040519081016040528092919081815260200182805461042690610aa0565b80156104735780601f1061044857610100808354040283529160200191610473565b820191906000526020600020905b81548152906001019060200180831161045657829003601f168201915b50505050509080600201805461048890610aa0565b80601f01602080910402602001604051908101604052809291908181526020018280546104b490610aa0565b80156105015780601f106104d657610100808354040283529160200191610501565b820191906000526020600020905b8154815290600101906020018083116104e457829003601f168201915b5050505050908060030160009054906101000a900460ff16905084565b6000600154905090565b82805461053490610aa0565b90600052602060002090601f016020900481019282610556576000855561059d565b82601f1061056f57805160ff191683800117855561059d565b8280016001018555821561059d579182015b8281111561059c578251825591602001919060010190610581565b5b5090506105aa91906105d8565b5090565b60405180608001604052806000815260200160608152602001606081526020016000151581525090565b5b808211156105f15760008160009055506001016105d9565b5090565b6000610608610603846109b1565b61098c565b90508281526020810184848401111561062457610623610c0d565b5b61062f848285610a5e565b509392505050565b60008135905061064681610c2d565b92915050565b600082601f83011261066157610660610c08565b5b81356106718482602086016105f5565b91505092915050565b60008135905061068981610c44565b92915050565b6000602082840312156106a5576106a4610c17565b5b60006106b38482850161067a565b91505092915050565b600080600080608085870312156106d6576106d5610c17565b5b60006106e48782880161067a565b945050602085013567ffffffffffffffff81111561070557610704610c12565b5b6107118782880161064c565b935050604085013567ffffffffffffffff81111561073257610731610c12565b5b61073e8782880161064c565b925050606061074f87828801610637565b91505092959194509250565b60006107678383610874565b905092915050565b600061077a826109f2565b6107848185610a15565b935083602082028501610796856109e2565b8060005b858110156107d257848403895281516107b3858261075b565b94506107be83610a08565b925060208a0199505060018101905061079a565b50829750879550505050505092915050565b6107ed81610a48565b82525050565b6107fc81610a48565b82525050565b600061080d826109fd565b6108178185610a26565b9350610827818560208601610a6d565b61083081610c1c565b840191505092915050565b6000610846826109fd565b6108508185610a37565b9350610860818560208601610a6d565b61086981610c1c565b840191505092915050565b600060808301600083015161088c60008601826108de565b50602083015184820360208601526108a48282610802565b915050604083015184820360408601526108be8282610802565b91505060608301516108d360608601826107e4565b508091505092915050565b6108e781610a54565b82525050565b6108f681610a54565b82525050565b60006020820190508181036000830152610916818461076f565b905092915050565b600060208201905061093360008301846108ed565b92915050565b600060808201905061094e60008301876108ed565b8181036020830152610960818661083b565b90508181036040830152610974818561083b565b905061098360608301846107f3565b95945050505050565b60006109966109a7565b90506109a28282610ad2565b919050565b6000604051905090565b600067ffffffffffffffff8211156109cc576109cb610bd9565b5b6109d582610c1c565b9050602081019050919050565b6000819050602082019050919050565b600081519050919050565b600081519050919050565b6000602082019050919050565b600082825260208201905092915050565b600082825260208201905092915050565b600082825260208201905092915050565b60008115159050919050565b6000819050919050565b82818337600083830152505050565b60005b83811015610a8b578082015181840152602081019050610a70565b83811115610a9a576000848401525b50505050565b60006002820490506001821680610ab857607f821691505b60208210811415610acc57610acb610b7b565b5b50919050565b610adb82610c1c565b810181811067ffffffffffffffff82111715610afa57610af9610bd9565b5b80604052505050565b6000610b0e82610a54565b91507fffffffffffffffffffffffffffffffffffffffffffffffffffffffffffffffff821415610b4157610b40610b4c565b5b600182019050919050565b7f4e487b7100000000000000000000000000000000000000000000000000000000600052601160045260246000fd5b7f4e487b7100000000000000000000000000000000000000000000000000000000600052602260045260246000fd5b7f4e487b7100000000000000000000000000000000000000000000000000000000600052603260045260246000fd5b7f4e487b7100000000000000000000000000000000000000000000000000000000600052604160045260246000fd5b600080fd5b600080fd5b600080fd5b600080fd5b6000601f19601f8301169050919050565b610c3681610a48565b8114610c4157600080fd5b50565b610c4d81610a54565b8114610c5857600080fd5b5056fea26469706673582212206c7bd983501556d80a3f18e566055e20752d48fab18c6eae54b3dfd2707ae57664736f6c63430008070033",
					"opcodes": "PUSH1 0x80 PUSH1 0x40 MSTORE CALLVALUE DUP1 ISZERO PUSH2 0x10 JUMPI PUSH1 0x0 DUP1 REVERT JUMPDEST POP CALLER PUSH1 0x0 DUP1 PUSH2 0x100 EXP DUP2 SLOAD DUP2 PUSH20 0xFFFFFFFFFFFFFFFFFFFFFFFFFFFFFFFFFFFFFFFF MUL NOT AND SWAP1 DUP4 PUSH20 0xFFFFFFFFFFFFFFFFFFFFFFFFFFFFFFFFFFFFFFFF AND MUL OR SWAP1 SSTORE POP PUSH2 0xC91 DUP1 PUSH2 0x60 PUSH1 0x0 CODECOPY PUSH1 0x0 RETURN INVALID PUSH1 0x80 PUSH1 0x40 MSTORE CALLVALUE DUP1 ISZERO PUSH2 0x10 JUMPI PUSH1 0x0 DUP1 REVERT JUMPDEST POP PUSH1 0x4 CALLDATASIZE LT PUSH2 0x57 JUMPI PUSH1 0x0 CALLDATALOAD PUSH1 0xE0 SHR DUP1 PUSH4 0x3B04D05B EQ PUSH2 0x5C JUMPI DUP1 PUSH4 0x61BC221A EQ PUSH2 0x78 JUMPI DUP1 PUSH4 0x7FA1680A EQ PUSH2 0x96 JUMPI DUP1 PUSH4 0xBC8BC2B4 EQ PUSH2 0xB4 JUMPI DUP1 PUSH4 0xD321FE29 EQ PUSH2 0xE7 JUMPI JUMPDEST PUSH1 0x0 DUP1 REVERT JUMPDEST PUSH2 0x76 PUSH1 0x4 DUP1 CALLDATASIZE SUB DUP2 ADD SWAP1 PUSH2 0x71 SWAP2 SWAP1 PUSH2 0x6BC JUMP JUMPDEST PUSH2 0x105 JUMP JUMPDEST STOP JUMPDEST PUSH2 0x80 PUSH2 0x1C2 JUMP JUMPDEST PUSH1 0x40 MLOAD PUSH2 0x8D SWAP2 SWAP1 PUSH2 0x91E JUMP JUMPDEST PUSH1 0x40 MLOAD DUP1 SWAP2 SUB SWAP1 RETURN JUMPDEST PUSH2 0x9E PUSH2 0x1C8 JUMP JUMPDEST PUSH1 0x40 MLOAD PUSH2 0xAB SWAP2 SWAP1 PUSH2 0x8FC JUMP JUMPDEST PUSH1 0x40 MLOAD DUP1 SWAP2 SUB SWAP1 RETURN JUMPDEST PUSH2 0xCE PUSH1 0x4 DUP1 CALLDATASIZE SUB DUP2 ADD SWAP1 PUSH2 0xC9 SWAP2 SWAP1 PUSH2 0x68F JUMP JUMPDEST PUSH2 0x3D1 JUMP JUMPDEST PUSH1 0x40 MLOAD PUSH2 0xDE SWAP5 SWAP4 SWAP3 SWAP2 SWAP1 PUSH2 0x939 JUMP JUMPDEST PUSH1 0x40 MLOAD DUP1 SWAP2 SUB SWAP1 RETURN JUMPDEST PUSH2 0xEF PUSH2 0x51E JUMP JUMPDEST PUSH1 0x40 MLOAD PUSH2 0xFC SWAP2 SWAP1 PUSH2 0x91E JUMP JUMPDEST PUSH1 0x40 MLOAD DUP1 SWAP2 SUB SWAP1 RETURN JUMPDEST PUSH1 0x40 MLOAD DUP1 PUSH1 0x80 ADD PUSH1 0x40 MSTORE DUP1 DUP6 DUP2 MSTORE PUSH1 0x20 ADD DUP5 DUP2 MSTORE PUSH1 0x20 ADD DUP4 DUP2 MSTORE PUSH1 0x20 ADD DUP3 ISZERO ISZERO DUP2 MSTORE POP PUSH1 0x2 PUSH1 0x0 PUSH1 0x1 SLOAD DUP2 MSTORE PUSH1 0x20 ADD SWAP1 DUP2 MSTORE PUSH1 0x20 ADD PUSH1 0x0 KECCAK256 PUSH1 0x0 DUP3 ADD MLOAD DUP2 PUSH1 0x0 ADD SSTORE PUSH1 0x20 DUP3 ADD MLOAD DUP2 PUSH1 0x1 ADD SWAP1 DUP1 MLOAD SWAP1 PUSH1 0x20 ADD SWAP1 PUSH2 0x163 SWAP3 SWAP2 SWAP1 PUSH2 0x528 JUMP JUMPDEST POP PUSH1 0x40 DUP3 ADD MLOAD DUP2 PUSH1 0x2 ADD SWAP1 DUP1 MLOAD SWAP1 PUSH1 0x20 ADD SWAP1 PUSH2 0x180 SWAP3 SWAP2 SWAP1 PUSH2 0x528 JUMP JUMPDEST POP PUSH1 0x60 DUP3 ADD MLOAD DUP2 PUSH1 0x3 ADD PUSH1 0x0 PUSH2 0x100 EXP DUP2 SLOAD DUP2 PUSH1 0xFF MUL NOT AND SWAP1 DUP4 ISZERO ISZERO MUL OR SWAP1 SSTORE POP SWAP1 POP POP PUSH1 0x1 PUSH1 0x0 DUP2 SLOAD DUP1 SWAP3 SWAP2 SWAP1 PUSH2 0x1B7 SWAP1 PUSH2 0xB03 JUMP JUMPDEST SWAP2 SWAP1 POP SSTORE POP POP POP POP POP JUMP JUMPDEST PUSH1 0x1 SLOAD DUP2 JUMP JUMPDEST PUSH1 0x60 PUSH1 0x0 PUSH1 0x1 SLOAD PUSH8 0xFFFFFFFFFFFFFFFF DUP2 GT ISZERO PUSH2 0x1E8 JUMPI PUSH2 0x1E7 PUSH2 0xBD9 JUMP JUMPDEST JUMPDEST PUSH1 0x40 MLOAD SWAP1 DUP1 DUP3 MSTORE DUP1 PUSH1 0x20 MUL PUSH1 0x20 ADD DUP3 ADD PUSH1 0x40 MSTORE DUP1 ISZERO PUSH2 0x221 JUMPI DUP2 PUSH1 0x20 ADD JUMPDEST PUSH2 0x20E PUSH2 0x5AE JUMP JUMPDEST DUP2 MSTORE PUSH1 0x20 ADD SWAP1 PUSH1 0x1 SWAP1 SUB SWAP1 DUP2 PUSH2 0x206 JUMPI SWAP1 POP JUMPDEST POP SWAP1 POP PUSH1 0x0 JUMPDEST PUSH1 0x1 SLOAD DUP2 LT ISZERO PUSH2 0x3C9 JUMPI PUSH1 0x2 PUSH1 0x0 DUP3 DUP2 MSTORE PUSH1 0x20 ADD SWAP1 DUP2 MSTORE PUSH1 0x20 ADD PUSH1 0x0 KECCAK256 PUSH1 0x40 MLOAD DUP1 PUSH1 0x80 ADD PUSH1 0x40 MSTORE SWAP1 DUP2 PUSH1 0x0 DUP3 ADD SLOAD DUP2 MSTORE PUSH1 0x20 ADD PUSH1 0x1 DUP3 ADD DUP1 SLOAD PUSH2 0x269 SWAP1 PUSH2 0xAA0 JUMP JUMPDEST DUP1 PUSH1 0x1F ADD PUSH1 0x20 DUP1 SWAP2 DIV MUL PUSH1 0x20 ADD PUSH1 0x40 MLOAD SWAP1 DUP2 ADD PUSH1 0x40 MSTORE DUP1 SWAP3 SWAP2 SWAP1 DUP2 DUP2 MSTORE PUSH1 0x20 ADD DUP3 DUP1 SLOAD PUSH2 0x295 SWAP1 PUSH2 0xAA0 JUMP JUMPDEST DUP1 ISZERO PUSH2 0x2E2 JUMPI DUP1 PUSH1 0x1F LT PUSH2 0x2B7 JUMPI PUSH2 0x100 DUP1 DUP4 SLOAD DIV MUL DUP4 MSTORE SWAP2 PUSH1 0x20 ADD SWAP2 PUSH2 0x2E2 JUMP JUMPDEST DUP3 ADD SWAP2 SWAP1 PUSH1 0x0 MSTORE PUSH1 0x20 PUSH1 0x0 KECCAK256 SWAP1 JUMPDEST DUP2 SLOAD DUP2 MSTORE SWAP1 PUSH1 0x1 ADD SWAP1 PUSH1 0x20 ADD DUP1 DUP4 GT PUSH2 0x2C5 JUMPI DUP3 SWAP1 SUB PUSH1 0x1F AND DUP3 ADD SWAP2 JUMPDEST POP POP POP POP POP DUP2 MSTORE PUSH1 0x20 ADD PUSH1 0x2 DUP3 ADD DUP1 SLOAD PUSH2 0x2FB SWAP1 PUSH2 0xAA0 JUMP JUMPDEST DUP1 PUSH1 0x1F ADD PUSH1 0x20 DUP1 SWAP2 DIV MUL PUSH1 0x20 ADD PUSH1 0x40 MLOAD SWAP1 DUP2 ADD PUSH1 0x40 MSTORE DUP1 SWAP3 SWAP2 SWAP1 DUP2 DUP2 MSTORE PUSH1 0x20 ADD DUP3 DUP1 SLOAD PUSH2 0x327 SWAP1 PUSH2 0xAA0 JUMP JUMPDEST DUP1 ISZERO PUSH2 0x374 JUMPI DUP1 PUSH1 0x1F LT PUSH2 0x349 JUMPI PUSH2 0x100 DUP1 DUP4 SLOAD DIV MUL DUP4 MSTORE SWAP2 PUSH1 0x20 ADD SWAP2 PUSH2 0x374 JUMP JUMPDEST DUP3 ADD SWAP2 SWAP1 PUSH1 0x0 MSTORE PUSH1 0x20 PUSH1 0x0 KECCAK256 SWAP1 JUMPDEST DUP2 SLOAD DUP2 MSTORE SWAP1 PUSH1 0x1 ADD SWAP1 PUSH1 0x20 ADD DUP1 DUP4 GT PUSH2 0x357 JUMPI DUP3 SWAP1 SUB PUSH1 0x1F AND DUP3 ADD SWAP2 JUMPDEST POP POP POP POP POP DUP2 MSTORE PUSH1 0x20 ADD PUSH1 0x3 DUP3 ADD PUSH1 0x0 SWAP1 SLOAD SWAP1 PUSH2 0x100 EXP SWAP1 DIV PUSH1 0xFF AND ISZERO ISZERO ISZERO ISZERO DUP2 MSTORE POP POP DUP3 DUP3 DUP2 MLOAD DUP2 LT PUSH2 0x3AB JUMPI PUSH2 0x3AA PUSH2 0xBAA JUMP JUMPDEST JUMPDEST PUSH1 0x20 MUL PUSH1 0x20 ADD ADD DUP2 SWAP1 MSTORE POP DUP1 DUP1 PUSH2 0x3C1 SWAP1 PUSH2 0xB03 JUMP JUMPDEST SWAP2 POP POP PUSH2 0x227 JUMP JUMPDEST POP DUP1 SWAP2 POP POP SWAP1 JUMP JUMPDEST PUSH1 0x2 PUSH1 0x20 MSTORE DUP1 PUSH1 0x0 MSTORE PUSH1 0x40 PUSH1 0x0 KECCAK256 PUSH1 0x0 SWAP2 POP SWAP1 POP DUP1 PUSH1 0x0 ADD SLOAD SWAP1 DUP1 PUSH1 0x1 ADD DUP1 SLOAD PUSH2 0x3FA SWAP1 PUSH2 0xAA0 JUMP JUMPDEST DUP1 PUSH1 0x1F ADD PUSH1 0x20 DUP1 SWAP2 DIV MUL PUSH1 0x20 ADD PUSH1 0x40 MLOAD SWAP1 DUP2 ADD PUSH1 0x40 MSTORE DUP1 SWAP3 SWAP2 SWAP1 DUP2 DUP2 MSTORE PUSH1 0x20 ADD DUP3 DUP1 SLOAD PUSH2 0x426 SWAP1 PUSH2 0xAA0 JUMP JUMPDEST DUP1 ISZERO PUSH2 0x473 JUMPI DUP1 PUSH1 0x1F LT PUSH2 0x448 JUMPI PUSH2 0x100 DUP1 DUP4 SLOAD DIV MUL DUP4 MSTORE SWAP2 PUSH1 0x20 ADD SWAP2 PUSH2 0x473 JUMP JUMPDEST DUP3 ADD SWAP2 SWAP1 PUSH1 0x0 MSTORE PUSH1 0x20 PUSH1 0x0 KECCAK256 SWAP1 JUMPDEST DUP2 SLOAD DUP2 MSTORE SWAP1 PUSH1 0x1 ADD SWAP1 PUSH1 0x20 ADD DUP1 DUP4 GT PUSH2 0x456 JUMPI DUP3 SWAP1 SUB PUSH1 0x1F AND DUP3 ADD SWAP2 JUMPDEST POP POP POP POP POP SWAP1 DUP1 PUSH1 0x2 ADD DUP1 SLOAD PUSH2 0x488 SWAP1 PUSH2 0xAA0 JUMP JUMPDEST DUP1 PUSH1 0x1F ADD PUSH1 0x20 DUP1 SWAP2 DIV MUL PUSH1 0x20 ADD PUSH1 0x40 MLOAD SWAP1 DUP2 ADD PUSH1 0x40 MSTORE DUP1 SWAP3 SWAP2 SWAP1 DUP2 DUP2 MSTORE PUSH1 0x20 ADD DUP3 DUP1 SLOAD PUSH2 0x4B4 SWAP1 PUSH2 0xAA0 JUMP JUMPDEST DUP1 ISZERO PUSH2 0x501 JUMPI DUP1 PUSH1 0x1F LT PUSH2 0x4D6 JUMPI PUSH2 0x100 DUP1 DUP4 SLOAD DIV MUL DUP4 MSTORE SWAP2 PUSH1 0x20 ADD SWAP2 PUSH2 0x501 JUMP JUMPDEST DUP3 ADD SWAP2 SWAP1 PUSH1 0x0 MSTORE PUSH1 0x20 PUSH1 0x0 KECCAK256 SWAP1 JUMPDEST DUP2 SLOAD DUP2 MSTORE SWAP1 PUSH1 0x1 ADD SWAP1 PUSH1 0x20 ADD DUP1 DUP4 GT PUSH2 0x4E4 JUMPI DUP3 SWAP1 SUB PUSH1 0x1F AND DUP3 ADD SWAP2 JUMPDEST POP POP POP POP POP SWAP1 DUP1 PUSH1 0x3 ADD PUSH1 0x0 SWAP1 SLOAD SWAP1 PUSH2 0x100 EXP SWAP1 DIV PUSH1 0xFF AND SWAP1 POP DUP5 JUMP JUMPDEST PUSH1 0x0 PUSH1 0x1 SLOAD SWAP1 POP SWAP1 JUMP JUMPDEST DUP3 DUP1 SLOAD PUSH2 0x534 SWAP1 PUSH2 0xAA0 JUMP JUMPDEST SWAP1 PUSH1 0x0 MSTORE PUSH1 0x20 PUSH1 0x0 KECCAK256 SWAP1 PUSH1 0x1F ADD PUSH1 0x20 SWAP1 DIV DUP2 ADD SWAP3 DUP3 PUSH2 0x556 JUMPI PUSH1 0x0 DUP6 SSTORE PUSH2 0x59D JUMP JUMPDEST DUP3 PUSH1 0x1F LT PUSH2 0x56F JUMPI DUP1 MLOAD PUSH1 0xFF NOT AND DUP4 DUP1 ADD OR DUP6 SSTORE PUSH2 0x59D JUMP JUMPDEST DUP3 DUP1 ADD PUSH1 0x1 ADD DUP6 SSTORE DUP3 ISZERO PUSH2 0x59D JUMPI SWAP2 DUP3 ADD JUMPDEST DUP3 DUP2 GT ISZERO PUSH2 0x59C JUMPI DUP3 MLOAD DUP3 SSTORE SWAP2 PUSH1 0x20 ADD SWAP2 SWAP1 PUSH1 0x1 ADD SWAP1 PUSH2 0x581 JUMP JUMPDEST JUMPDEST POP SWAP1 POP PUSH2 0x5AA SWAP2 SWAP1 PUSH2 0x5D8 JUMP JUMPDEST POP SWAP1 JUMP JUMPDEST PUSH1 0x40 MLOAD DUP1 PUSH1 0x80 ADD PUSH1 0x40 MSTORE DUP1 PUSH1 0x0 DUP2 MSTORE PUSH1 0x20 ADD PUSH1 0x60 DUP2 MSTORE PUSH1 0x20 ADD PUSH1 0x60 DUP2 MSTORE PUSH1 0x20 ADD PUSH1 0x0 ISZERO ISZERO DUP2 MSTORE POP SWAP1 JUMP JUMPDEST JUMPDEST DUP1 DUP3 GT ISZERO PUSH2 0x5F1 JUMPI PUSH1 0x0 DUP2 PUSH1 0x0 SWAP1 SSTORE POP PUSH1 0x1 ADD PUSH2 0x5D9 JUMP JUMPDEST POP SWAP1 JUMP JUMPDEST PUSH1 0x0 PUSH2 0x608 PUSH2 0x603 DUP5 PUSH2 0x9B1 JUMP JUMPDEST PUSH2 0x98C JUMP JUMPDEST SWAP1 POP DUP3 DUP2 MSTORE PUSH1 0x20 DUP2 ADD DUP5 DUP5 DUP5 ADD GT ISZERO PUSH2 0x624 JUMPI PUSH2 0x623 PUSH2 0xC0D JUMP JUMPDEST JUMPDEST PUSH2 0x62F DUP5 DUP3 DUP6 PUSH2 0xA5E JUMP JUMPDEST POP SWAP4 SWAP3 POP POP POP JUMP JUMPDEST PUSH1 0x0 DUP2 CALLDATALOAD SWAP1 POP PUSH2 0x646 DUP2 PUSH2 0xC2D JUMP JUMPDEST SWAP3 SWAP2 POP POP JUMP JUMPDEST PUSH1 0x0 DUP3 PUSH1 0x1F DUP4 ADD SLT PUSH2 0x661 JUMPI PUSH2 0x660 PUSH2 0xC08 JUMP JUMPDEST JUMPDEST DUP2 CALLDATALOAD PUSH2 0x671 DUP5 DUP3 PUSH1 0x20 DUP7 ADD PUSH2 0x5F5 JUMP JUMPDEST SWAP2 POP POP SWAP3 SWAP2 POP POP JUMP JUMPDEST PUSH1 0x0 DUP2 CALLDATALOAD SWAP1 POP PUSH2 0x689 DUP2 PUSH2 0xC44 JUMP JUMPDEST SWAP3 SWAP2 POP POP JUMP JUMPDEST PUSH1 0x0 PUSH1 0x20 DUP3 DUP5 SUB SLT ISZERO PUSH2 0x6A5 JUMPI PUSH2 0x6A4 PUSH2 0xC17 JUMP JUMPDEST JUMPDEST PUSH1 0x0 PUSH2 0x6B3 DUP5 DUP3 DUP6 ADD PUSH2 0x67A JUMP JUMPDEST SWAP2 POP POP SWAP3 SWAP2 POP POP JUMP JUMPDEST PUSH1 0x0 DUP1 PUSH1 0x0 DUP1 PUSH1 0x80 DUP6 DUP8 SUB SLT ISZERO PUSH2 0x6D6 JUMPI PUSH2 0x6D5 PUSH2 0xC17 JUMP JUMPDEST JUMPDEST PUSH1 0x0 PUSH2 0x6E4 DUP8 DUP3 DUP9 ADD PUSH2 0x67A JUMP JUMPDEST SWAP5 POP POP PUSH1 0x20 DUP6 ADD CALLDATALOAD PUSH8 0xFFFFFFFFFFFFFFFF DUP2 GT ISZERO PUSH2 0x705 JUMPI PUSH2 0x704 PUSH2 0xC12 JUMP JUMPDEST JUMPDEST PUSH2 0x711 DUP8 DUP3 DUP9 ADD PUSH2 0x64C JUMP JUMPDEST SWAP4 POP POP PUSH1 0x40 DUP6 ADD CALLDATALOAD PUSH8 0xFFFFFFFFFFFFFFFF DUP2 GT ISZERO PUSH2 0x732 JUMPI PUSH2 0x731 PUSH2 0xC12 JUMP JUMPDEST JUMPDEST PUSH2 0x73E DUP8 DUP3 DUP9 ADD PUSH2 0x64C JUMP JUMPDEST SWAP3 POP POP PUSH1 0x60 PUSH2 0x74F DUP8 DUP3 DUP9 ADD PUSH2 0x637 JUMP JUMPDEST SWAP2 POP POP SWAP3 SWAP6 SWAP2 SWAP5 POP SWAP3 POP JUMP JUMPDEST PUSH1 0x0 PUSH2 0x767 DUP4 DUP4 PUSH2 0x874 JUMP JUMPDEST SWAP1 POP SWAP3 SWAP2 POP POP JUMP JUMPDEST PUSH1 0x0 PUSH2 0x77A DUP3 PUSH2 0x9F2 JUMP JUMPDEST PUSH2 0x784 DUP2 DUP6 PUSH2 0xA15 JUMP JUMPDEST SWAP4 POP DUP4 PUSH1 0x20 DUP3 MUL DUP6 ADD PUSH2 0x796 DUP6 PUSH2 0x9E2 JUMP JUMPDEST DUP1 PUSH1 0x0 JUMPDEST DUP6 DUP2 LT ISZERO PUSH2 0x7D2 JUMPI DUP5 DUP5 SUB DUP10 MSTORE DUP2 MLOAD PUSH2 0x7B3 DUP6 DUP3 PUSH2 0x75B JUMP JUMPDEST SWAP5 POP PUSH2 0x7BE DUP4 PUSH2 0xA08 JUMP JUMPDEST SWAP3 POP PUSH1 0x20 DUP11 ADD SWAP10 POP POP PUSH1 0x1 DUP2 ADD SWAP1 POP PUSH2 0x79A JUMP JUMPDEST POP DUP3 SWAP8 POP DUP8 SWAP6 POP POP POP POP POP POP SWAP3 SWAP2 POP POP JUMP JUMPDEST PUSH2 0x7ED DUP2 PUSH2 0xA48 JUMP JUMPDEST DUP3 MSTORE POP POP JUMP JUMPDEST PUSH2 0x7FC DUP2 PUSH2 0xA48 JUMP JUMPDEST DUP3 MSTORE POP POP JUMP JUMPDEST PUSH1 0x0 PUSH2 0x80D DUP3 PUSH2 0x9FD JUMP JUMPDEST PUSH2 0x817 DUP2 DUP6 PUSH2 0xA26 JUMP JUMPDEST SWAP4 POP PUSH2 0x827 DUP2 DUP6 PUSH1 0x20 DUP7 ADD PUSH2 0xA6D JUMP JUMPDEST PUSH2 0x830 DUP2 PUSH2 0xC1C JUMP JUMPDEST DUP5 ADD SWAP2 POP POP SWAP3 SWAP2 POP POP JUMP JUMPDEST PUSH1 0x0 PUSH2 0x846 DUP3 PUSH2 0x9FD JUMP JUMPDEST PUSH2 0x850 DUP2 DUP6 PUSH2 0xA37 JUMP JUMPDEST SWAP4 POP PUSH2 0x860 DUP2 DUP6 PUSH1 0x20 DUP7 ADD PUSH2 0xA6D JUMP JUMPDEST PUSH2 0x869 DUP2 PUSH2 0xC1C JUMP JUMPDEST DUP5 ADD SWAP2 POP POP SWAP3 SWAP2 POP POP JUMP JUMPDEST PUSH1 0x0 PUSH1 0x80 DUP4 ADD PUSH1 0x0 DUP4 ADD MLOAD PUSH2 0x88C PUSH1 0x0 DUP7 ADD DUP3 PUSH2 0x8DE JUMP JUMPDEST POP PUSH1 0x20 DUP4 ADD MLOAD DUP5 DUP3 SUB PUSH1 0x20 DUP7 ADD MSTORE PUSH2 0x8A4 DUP3 DUP3 PUSH2 0x802 JUMP JUMPDEST SWAP2 POP POP PUSH1 0x40 DUP4 ADD MLOAD DUP5 DUP3 SUB PUSH1 0x40 DUP7 ADD MSTORE PUSH2 0x8BE DUP3 DUP3 PUSH2 0x802 JUMP JUMPDEST SWAP2 POP POP PUSH1 0x60 DUP4 ADD MLOAD PUSH2 0x8D3 PUSH1 0x60 DUP7 ADD DUP3 PUSH2 0x7E4 JUMP JUMPDEST POP DUP1 SWAP2 POP POP SWAP3 SWAP2 POP POP JUMP JUMPDEST PUSH2 0x8E7 DUP2 PUSH2 0xA54 JUMP JUMPDEST DUP3 MSTORE POP POP JUMP JUMPDEST PUSH2 0x8F6 DUP2 PUSH2 0xA54 JUMP JUMPDEST DUP3 MSTORE POP POP JUMP JUMPDEST PUSH1 0x0 PUSH1 0x20 DUP3 ADD SWAP1 POP DUP2 DUP2 SUB PUSH1 0x0 DUP4 ADD MSTORE PUSH2 0x916 DUP2 DUP5 PUSH2 0x76F JUMP JUMPDEST SWAP1 POP SWAP3 SWAP2 POP POP JUMP JUMPDEST PUSH1 0x0 PUSH1 0x20 DUP3 ADD SWAP1 POP PUSH2 0x933 PUSH1 0x0 DUP4 ADD DUP5 PUSH2 0x8ED JUMP JUMPDEST SWAP3 SWAP2 POP POP JUMP JUMPDEST PUSH1 0x0 PUSH1 0x80 DUP3 ADD SWAP1 POP PUSH2 0x94E PUSH1 0x0 DUP4 ADD DUP8 PUSH2 0x8ED JUMP JUMPDEST DUP2 DUP2 SUB PUSH1 0x20 DUP4 ADD MSTORE PUSH2 0x960 DUP2 DUP7 PUSH2 0x83B JUMP JUMPDEST SWAP1 POP DUP2 DUP2 SUB PUSH1 0x40 DUP4 ADD MSTORE PUSH2 0x974 DUP2 DUP6 PUSH2 0x83B JUMP JUMPDEST SWAP1 POP PUSH2 0x983 PUSH1 0x60 DUP4 ADD DUP5 PUSH2 0x7F3 JUMP JUMPDEST SWAP6 SWAP5 POP POP POP POP POP JUMP JUMPDEST PUSH1 0x0 PUSH2 0x996 PUSH2 0x9A7 JUMP JUMPDEST SWAP1 POP PUSH2 0x9A2 DUP3 DUP3 PUSH2 0xAD2 JUMP JUMPDEST SWAP2 SWAP1 POP JUMP JUMPDEST PUSH1 0x0 PUSH1 0x40 MLOAD SWAP1 POP SWAP1 JUMP JUMPDEST PUSH1 0x0 PUSH8 0xFFFFFFFFFFFFFFFF DUP3 GT ISZERO PUSH2 0x9CC JUMPI PUSH2 0x9CB PUSH2 0xBD9 JUMP JUMPDEST JUMPDEST PUSH2 0x9D5 DUP3 PUSH2 0xC1C JUMP JUMPDEST SWAP1 POP PUSH1 0x20 DUP2 ADD SWAP1 POP SWAP2 SWAP1 POP JUMP JUMPDEST PUSH1 0x0 DUP2 SWAP1 POP PUSH1 0x20 DUP3 ADD SWAP1 POP SWAP2 SWAP1 POP JUMP JUMPDEST PUSH1 0x0 DUP2 MLOAD SWAP1 POP SWAP2 SWAP1 POP JUMP JUMPDEST PUSH1 0x0 DUP2 MLOAD SWAP1 POP SWAP2 SWAP1 POP JUMP JUMPDEST PUSH1 0x0 PUSH1 0x20 DUP3 ADD SWAP1 POP SWAP2 SWAP1 POP JUMP JUMPDEST PUSH1 0x0 DUP3 DUP3 MSTORE PUSH1 0x20 DUP3 ADD SWAP1 POP SWAP3 SWAP2 POP POP JUMP JUMPDEST PUSH1 0x0 DUP3 DUP3 MSTORE PUSH1 0x20 DUP3 ADD SWAP1 POP SWAP3 SWAP2 POP POP JUMP JUMPDEST PUSH1 0x0 DUP3 DUP3 MSTORE PUSH1 0x20 DUP3 ADD SWAP1 POP SWAP3 SWAP2 POP POP JUMP JUMPDEST PUSH1 0x0 DUP2 ISZERO ISZERO SWAP1 POP SWAP2 SWAP1 POP JUMP JUMPDEST PUSH1 0x0 DUP2 SWAP1 POP SWAP2 SWAP1 POP JUMP JUMPDEST DUP3 DUP2 DUP4 CALLDATACOPY PUSH1 0x0 DUP4 DUP4 ADD MSTORE POP POP POP JUMP JUMPDEST PUSH1 0x0 JUMPDEST DUP4 DUP2 LT ISZERO PUSH2 0xA8B JUMPI DUP1 DUP3 ADD MLOAD DUP2 DUP5 ADD MSTORE PUSH1 0x20 DUP2 ADD SWAP1 POP PUSH2 0xA70 JUMP JUMPDEST DUP4 DUP2 GT ISZERO PUSH2 0xA9A JUMPI PUSH1 0x0 DUP5 DUP5 ADD MSTORE JUMPDEST POP POP POP POP JUMP JUMPDEST PUSH1 0x0 PUSH1 0x2 DUP3 DIV SWAP1 POP PUSH1 0x1 DUP3 AND DUP1 PUSH2 0xAB8 JUMPI PUSH1 0x7F DUP3 AND SWAP2 POP JUMPDEST PUSH1 0x20 DUP3 LT DUP2 EQ ISZERO PUSH2 0xACC JUMPI PUSH2 0xACB PUSH2 0xB7B JUMP JUMPDEST JUMPDEST POP SWAP2 SWAP1 POP JUMP JUMPDEST PUSH2 0xADB DUP3 PUSH2 0xC1C JUMP JUMPDEST DUP2 ADD DUP2 DUP2 LT PUSH8 0xFFFFFFFFFFFFFFFF DUP3 GT OR ISZERO PUSH2 0xAFA JUMPI PUSH2 0xAF9 PUSH2 0xBD9 JUMP JUMPDEST JUMPDEST DUP1 PUSH1 0x40 MSTORE POP POP POP JUMP JUMPDEST PUSH1 0x0 PUSH2 0xB0E DUP3 PUSH2 0xA54 JUMP JUMPDEST SWAP2 POP PUSH32 0xFFFFFFFFFFFFFFFFFFFFFFFFFFFFFFFFFFFFFFFFFFFFFFFFFFFFFFFFFFFFFFFF DUP3 EQ ISZERO PUSH2 0xB41 JUMPI PUSH2 0xB40 PUSH2 0xB4C JUMP JUMPDEST JUMPDEST PUSH1 0x1 DUP3 ADD SWAP1 POP SWAP2 SWAP1 POP JUMP JUMPDEST PUSH32 0x4E487B7100000000000000000000000000000000000000000000000000000000 PUSH1 0x0 MSTORE PUSH1 0x11 PUSH1 0x4 MSTORE PUSH1 0x24 PUSH1 0x0 REVERT JUMPDEST PUSH32 0x4E487B7100000000000000000000000000000000000000000000000000000000 PUSH1 0x0 MSTORE PUSH1 0x22 PUSH1 0x4 MSTORE PUSH1 0x24 PUSH1 0x0 REVERT JUMPDEST PUSH32 0x4E487B7100000000000000000000000000000000000000000000000000000000 PUSH1 0x0 MSTORE PUSH1 0x32 PUSH1 0x4 MSTORE PUSH1 0x24 PUSH1 0x0 REVERT JUMPDEST PUSH32 0x4E487B7100000000000000000000000000000000000000000000000000000000 PUSH1 0x0 MSTORE PUSH1 0x41 PUSH1 0x4 MSTORE PUSH1 0x24 PUSH1 0x0 REVERT JUMPDEST PUSH1 0x0 DUP1 REVERT JUMPDEST PUSH1 0x0 DUP1 REVERT JUMPDEST PUSH1 0x0 DUP1 REVERT JUMPDEST PUSH1 0x0 DUP1 REVERT JUMPDEST PUSH1 0x0 PUSH1 0x1F NOT PUSH1 0x1F DUP4 ADD AND SWAP1 POP SWAP2 SWAP1 POP JUMP JUMPDEST PUSH2 0xC36 DUP2 PUSH2 0xA48 JUMP JUMPDEST DUP2 EQ PUSH2 0xC41 JUMPI PUSH1 0x0 DUP1 REVERT JUMPDEST POP JUMP JUMPDEST PUSH2 0xC4D DUP2 PUSH2 0xA54 JUMP JUMPDEST DUP2 EQ PUSH2 0xC58 JUMPI PUSH1 0x0 DUP1 REVERT JUMPDEST POP JUMP INVALID LOG2 PUSH5 0x6970667358 0x22 SLT KECCAK256 PUSH13 0x7BD983501556D80A3F18E56605 0x5E KECCAK256 PUSH22 0x2D48FAB18C6EAE54B3DFD2707AE57664736F6C634300 ADDMOD SMOD STOP CALLER "
				},
				"gasEstimates": {
					"creation": {
						"codeDepositCost": "643400",
						"executionCost": "24942",
						"totalCost": "668342"
					},
					"external": {
						"addTodo(uint256,string,string,bool)": "infinite",
						"counter()": "2429",
						"getAmount()": "2503",
						"getTodo()": "infinite",
						"todos(uint256)": "infinite"
					}
				},
				"methodIdentifiers": {
					"addTodo(uint256,string,string,bool)": "3b04d05b",
					"counter()": "61bc221a",
					"getAmount()": "d321fe29",
					"getTodo()": "7fa1680a",
					"todos(uint256)": "bc8bc2b4"
				}
			},
			"storageLayout": {
				"storage": [
					{
						"astId": 5,
						"contract": "ToDoApp.sol:ToDoApp",
						"label": "owner",
						"offset": 0,
						"slot": "0",
						"type": "t_address"
					},
					{
						"astId": 7,
						"contract": "ToDoApp.sol:ToDoApp",
						"label": "counter",
						"offset": 0,
						"slot": "1",
						"type": "t_uint256"
					},
					{
						"astId": 22,
						"contract": "ToDoApp.sol:ToDoApp",
						"label": "todos",
						"offset": 0,
						"slot": "2",
						"type": "t_mapping(t_uint256,t_struct(ToDo)16_storage)"
					}
				],
				"types": {
					"t_address": {
						"encoding": "inplace",
						"label": "address",
						"numberOfBytes": "20"
					},
					"t_bool": {
						"encoding": "inplace",
						"label": "bool",
						"numberOfBytes": "1"
					},
					"t_mapping(t_uint256,t_struct(ToDo)16_storage)": {
						"encoding": "mapping",
						"key": "t_uint256",
						"label": "mapping(uint256 => struct ToDoApp.ToDo)",
						"numberOfBytes": "32",
						"value": "t_struct(ToDo)16_storage"
					},
					"t_string_storage": {
						"encoding": "bytes",
						"label": "string",
						"numberOfBytes": "32"
					},
					"t_struct(ToDo)16_storage": {
						"encoding": "inplace",
						"label": "struct ToDoApp.ToDo",
						"members": [
							{
								"astId": 9,
								"contract": "ToDoApp.sol:ToDoApp",
								"label": "id",
								"offset": 0,
								"slot": "0",
								"type": "t_uint256"
							},
							{
								"astId": 11,
								"contract": "ToDoApp.sol:ToDoApp",
								"label": "name",
								"offset": 0,
								"slot": "1",
								"type": "t_string_storage"
							},
							{
								"astId": 13,
								"contract": "ToDoApp.sol:ToDoApp",
								"label": "content",
								"offset": 0,
								"slot": "2",
								"type": "t_string_storage"
							},
							{
								"astId": 15,
								"contract": "ToDoApp.sol:ToDoApp",
								"label": "status",
								"offset": 0,
								"slot": "3",
								"type": "t_bool"
							}
						],
						"numberOfBytes": "128"
					},
					"t_uint256": {
						"encoding": "inplace",
						"label": "uint256",
						"numberOfBytes": "32"
					}
				}
			},
			"userdoc": {
				"kind": "user",
				"methods": {
					"addTodo(uint256,string,string,bool)": {
						"notice": "Add new todo"
					},
					"constructor": {
						"notice": "Constructor"
					},
					"getAmount()": {
						"notice": "Get amount of todos"
					},
					"getTodo()": {
						"notice": "Get all todos"
					},
					"todos(uint256)": {
						"notice": "Mappings"
					}
				},
				"notice": "A simple ToDo smart contract app",
				"version": 1
			}
		}
	}
}