{
	"ToDoApp.sol": {
		"ToDoApp": {
			"abi": [
				{
					"inputs": [],
					"stateMutability": "nonpayable",
					"type": "constructor"
				},
				{
					"inputs": [
						{
							"internalType": "uint256",
							"name": "id",
							"type": "uint256"
						},
						{
							"internalType": "string",
							"name": "name",
							"type": "string"
						},
						{
							"internalType": "string",
							"name": "content",
							"type": "string"
						},
						{
							"internalType": "bool",
							"name": "status",
							"type": "bool"
						}
					],
					"name": "addTodo",
					"outputs": [],
					"stateMutability": "nonpayable",
					"type": "function"
				},
				{
					"inputs": [],
					"name": "counter",
					"outputs": [
						{
							"internalType": "uint256",
							"name": "",
							"type": "uint256"
						}
					],
					"stateMutability": "view",
					"type": "function"
				},
				{
					"inputs": [],
					"name": "getAmount",
					"outputs": [
						{
							"internalType": "uint256",
							"name": "",
							"type": "uint256"
						}
					],
					"stateMutability": "view",
					"type": "function"
				},
				{
					"inputs": [
						{
							"internalType": "uint256",
							"name": "id",
							"type": "uint256"
						}
					],
					"name": "getTodo",
					"outputs": [
						{
							"components": [
								{
									"internalType": "uint256",
									"name": "id",
									"type": "uint256"
								},
								{
									"internalType": "string",
									"name": "name",
									"type": "string"
								},
								{
									"internalType": "string",
									"name": "content",
									"type": "string"
								},
								{
									"internalType": "bool",
									"name": "status",
									"type": "bool"
								}
							],
							"internalType": "struct ToDoApp.ToDo",
							"name": "",
							"type": "tuple"
						}
					],
					"stateMutability": "view",
					"type": "function"
				},
				{
					"inputs": [
						{
							"internalType": "uint256",
							"name": "",
							"type": "uint256"
						}
					],
					"name": "todos",
					"outputs": [
						{
							"internalType": "uint256",
							"name": "id",
							"type": "uint256"
						},
						{
							"internalType": "string",
							"name": "name",
							"type": "string"
						},
						{
							"internalType": "string",
							"name": "content",
							"type": "string"
						},
						{
							"internalType": "bool",
							"name": "status",
							"type": "bool"
						}
					],
					"stateMutability": "view",
					"type": "function"
				}
			],
			"devdoc": {
				"kind": "dev",
				"methods": {},
				"version": 1
			},
			"evm": {
				"assembly": "    /* \"ToDoApp.sol\":120:1185  contract ToDoApp {... */\n  mstore(0x40, 0x80)\n    /* \"ToDoApp.sol\":476:525  constructor() {... */\n  callvalue\n  dup1\n  iszero\n  tag_1\n  jumpi\n  0x00\n  dup1\n  revert\ntag_1:\n  pop\n    /* \"ToDoApp.sol\":508:518  msg.sender */\n  caller\n    /* \"ToDoApp.sol\":500:505  owner */\n  0x00\n  dup1\n    /* \"ToDoApp.sol\":500:518  owner = msg.sender */\n  0x0100\n  exp\n  dup2\n  sload\n  dup2\n  0xffffffffffffffffffffffffffffffffffffffff\n  mul\n  not\n  and\n  swap1\n  dup4\n  0xffffffffffffffffffffffffffffffffffffffff\n  and\n  mul\n  or\n  swap1\n  sstore\n  pop\n    /* \"ToDoApp.sol\":120:1185  contract ToDoApp {... */\n  dataSize(sub_0)\n  dup1\n  dataOffset(sub_0)\n  0x00\n  codecopy\n  0x00\n  return\nstop\n\nsub_0: assembly {\n        /* \"ToDoApp.sol\":120:1185  contract ToDoApp {... */\n      mstore(0x40, 0x80)\n      callvalue\n      dup1\n      iszero\n      tag_1\n      jumpi\n      0x00\n      dup1\n      revert\n    tag_1:\n      pop\n      jumpi(tag_2, lt(calldatasize, 0x04))\n      shr(0xe0, calldataload(0x00))\n      dup1\n      0x3b04d05b\n      eq\n      tag_3\n      jumpi\n      dup1\n      0x61bc221a\n      eq\n      tag_4\n      jumpi\n      dup1\n      0xbc8bc2b4\n      eq\n      tag_5\n      jumpi\n      dup1\n      0xd321fe29\n      eq\n      tag_6\n      jumpi\n      dup1\n      0xdd68afb6\n      eq\n      tag_7\n      jumpi\n    tag_2:\n      0x00\n      dup1\n      revert\n        /* \"ToDoApp.sol\":567:855  function addTodo(... */\n    tag_3:\n      tag_8\n      0x04\n      dup1\n      calldatasize\n      sub\n      dup2\n      add\n      swap1\n      tag_9\n      swap2\n      swap1\n      tag_10\n      jump\t// in\n    tag_9:\n      tag_11\n      jump\t// in\n    tag_8:\n      stop\n        /* \"ToDoApp.sol\":196:215  uint public counter */\n    tag_4:\n      tag_12\n      tag_13\n      jump\t// in\n    tag_12:\n      mload(0x40)\n      tag_14\n      swap2\n      swap1\n      tag_15\n      jump\t// in\n    tag_14:\n      mload(0x40)\n      dup1\n      swap2\n      sub\n      swap1\n      return\n        /* \"ToDoApp.sol\":397:434  mapping(uint256 => ToDo) public todos */\n    tag_5:\n      tag_16\n      0x04\n      dup1\n      calldatasize\n      sub\n      dup2\n      add\n      swap1\n      tag_17\n      swap2\n      swap1\n      tag_18\n      jump\t// in\n    tag_17:\n      tag_19\n      jump\t// in\n    tag_16:\n      mload(0x40)\n      tag_20\n      swap5\n      swap4\n      swap3\n      swap2\n      swap1\n      tag_21\n      jump\t// in\n    tag_20:\n      mload(0x40)\n      dup1\n      swap2\n      sub\n      swap1\n      return\n        /* \"ToDoApp.sol\":1054:1131  function getAmount() public view returns(uint){... */\n    tag_6:\n      tag_22\n      tag_23\n      jump\t// in\n    tag_22:\n      mload(0x40)\n      tag_24\n      swap2\n      swap1\n      tag_15\n      jump\t// in\n    tag_24:\n      mload(0x40)\n      dup1\n      swap2\n      sub\n      swap1\n      return\n        /* \"ToDoApp.sol\":913:1005  function getTodo(uint id) public view returns(ToDo memory) {... */\n    tag_7:\n      tag_25\n      0x04\n      dup1\n      calldatasize\n      sub\n      dup2\n      add\n      swap1\n      tag_26\n      swap2\n      swap1\n      tag_18\n      jump\t// in\n    tag_26:\n      tag_27\n      jump\t// in\n    tag_25:\n      mload(0x40)\n      tag_28\n      swap2\n      swap1\n      tag_29\n      jump\t// in\n    tag_28:\n      mload(0x40)\n      dup1\n      swap2\n      sub\n      swap1\n      return\n        /* \"ToDoApp.sol\":567:855  function addTodo(... */\n    tag_11:\n        /* \"ToDoApp.sol\":761:792  ToDo(id, name, content, status) */\n      mload(0x40)\n      dup1\n      0x80\n      add\n      0x40\n      mstore\n      dup1\n        /* \"ToDoApp.sol\":766:768  id */\n      dup6\n        /* \"ToDoApp.sol\":761:792  ToDo(id, name, content, status) */\n      dup2\n      mstore\n      0x20\n      add\n        /* \"ToDoApp.sol\":770:774  name */\n      dup5\n        /* \"ToDoApp.sol\":761:792  ToDo(id, name, content, status) */\n      dup2\n      mstore\n      0x20\n      add\n        /* \"ToDoApp.sol\":776:783  content */\n      dup4\n        /* \"ToDoApp.sol\":761:792  ToDo(id, name, content, status) */\n      dup2\n      mstore\n      0x20\n      add\n        /* \"ToDoApp.sol\":785:791  status */\n      dup3\n        /* \"ToDoApp.sol\":761:792  ToDo(id, name, content, status) */\n      iszero\n      iszero\n      dup2\n      mstore\n      pop\n        /* \"ToDoApp.sol\":744:749  todos */\n      0x02\n        /* \"ToDoApp.sol\":744:758  todos[counter] */\n      0x00\n        /* \"ToDoApp.sol\":750:757  counter */\n      sload(0x01)\n        /* \"ToDoApp.sol\":744:758  todos[counter] */\n      dup2\n      mstore\n      0x20\n      add\n      swap1\n      dup2\n      mstore\n      0x20\n      add\n      0x00\n      keccak256\n        /* \"ToDoApp.sol\":744:792  todos[counter] = ToDo(id, name, content, status) */\n      0x00\n      dup3\n      add\n      mload\n      dup2\n      0x00\n      add\n      sstore\n      0x20\n      dup3\n      add\n      mload\n      dup2\n      0x01\n      add\n      swap1\n      dup1\n      mload\n      swap1\n      0x20\n      add\n      swap1\n      tag_31\n      swap3\n      swap2\n      swap1\n      tag_32\n      jump\t// in\n    tag_31:\n      pop\n      0x40\n      dup3\n      add\n      mload\n      dup2\n      0x02\n      add\n      swap1\n      dup1\n      mload\n      swap1\n      0x20\n      add\n      swap1\n      tag_33\n      swap3\n      swap2\n      swap1\n      tag_32\n      jump\t// in\n    tag_33:\n      pop\n      0x60\n      dup3\n      add\n      mload\n      dup2\n      0x03\n      add\n      exp(0x0100, 0x00)\n      dup2\n      sload\n      dup2\n      0xff\n      mul\n      not\n      and\n      swap1\n      dup4\n      iszero\n      iszero\n      mul\n      or\n      swap1\n      sstore\n      pop\n      swap1\n      pop\n      pop\n        /* \"ToDoApp.sol\":839:846  counter */\n      0x01\n      0x00\n        /* \"ToDoApp.sol\":839:848  counter++ */\n      dup2\n      sload\n      dup1\n      swap3\n      swap2\n      swap1\n      tag_34\n      swap1\n      tag_35\n      jump\t// in\n    tag_34:\n      swap2\n      swap1\n      pop\n      sstore\n      pop\n        /* \"ToDoApp.sol\":567:855  function addTodo(... */\n      pop\n      pop\n      pop\n      pop\n      jump\t// out\n        /* \"ToDoApp.sol\":196:215  uint public counter */\n    tag_13:\n      sload(0x01)\n      dup2\n      jump\t// out\n        /* \"ToDoApp.sol\":397:434  mapping(uint256 => ToDo) public todos */\n    tag_19:\n      mstore(0x20, 0x02)\n      dup1\n      0x00\n      mstore\n      keccak256(0x00, 0x40)\n      0x00\n      swap2\n      pop\n      swap1\n      pop\n      dup1\n      0x00\n      add\n      sload\n      swap1\n      dup1\n      0x01\n      add\n      dup1\n      sload\n      tag_36\n      swap1\n      tag_37\n      jump\t// in\n    tag_36:\n      dup1\n      0x1f\n      add\n      0x20\n      dup1\n      swap2\n      div\n      mul\n      0x20\n      add\n      mload(0x40)\n      swap1\n      dup2\n      add\n      0x40\n      mstore\n      dup1\n      swap3\n      swap2\n      swap1\n      dup2\n      dup2\n      mstore\n      0x20\n      add\n      dup3\n      dup1\n      sload\n      tag_38\n      swap1\n      tag_37\n      jump\t// in\n    tag_38:\n      dup1\n      iszero\n      tag_39\n      jumpi\n      dup1\n      0x1f\n      lt\n      tag_40\n      jumpi\n      0x0100\n      dup1\n      dup4\n      sload\n      div\n      mul\n      dup4\n      mstore\n      swap2\n      0x20\n      add\n      swap2\n      jump(tag_39)\n    tag_40:\n      dup3\n      add\n      swap2\n      swap1\n      0x00\n      mstore\n      keccak256(0x00, 0x20)\n      swap1\n    tag_41:\n      dup2\n      sload\n      dup2\n      mstore\n      swap1\n      0x01\n      add\n      swap1\n      0x20\n      add\n      dup1\n      dup4\n      gt\n      tag_41\n      jumpi\n      dup3\n      swap1\n      sub\n      0x1f\n      and\n      dup3\n      add\n      swap2\n    tag_39:\n      pop\n      pop\n      pop\n      pop\n      pop\n      swap1\n      dup1\n      0x02\n      add\n      dup1\n      sload\n      tag_42\n      swap1\n      tag_37\n      jump\t// in\n    tag_42:\n      dup1\n      0x1f\n      add\n      0x20\n      dup1\n      swap2\n      div\n      mul\n      0x20\n      add\n      mload(0x40)\n      swap1\n      dup2\n      add\n      0x40\n      mstore\n      dup1\n      swap3\n      swap2\n      swap1\n      dup2\n      dup2\n      mstore\n      0x20\n      add\n      dup3\n      dup1\n      sload\n      tag_43\n      swap1\n      tag_37\n      jump\t// in\n    tag_43:\n      dup1\n      iszero\n      tag_44\n      jumpi\n      dup1\n      0x1f\n      lt\n      tag_45\n      jumpi\n      0x0100\n      dup1\n      dup4\n      sload\n      div\n      mul\n      dup4\n      mstore\n      swap2\n      0x20\n      add\n      swap2\n      jump(tag_44)\n    tag_45:\n      dup3\n      add\n      swap2\n      swap1\n      0x00\n      mstore\n      keccak256(0x00, 0x20)\n      swap1\n    tag_46:\n      dup2\n      sload\n      dup2\n      mstore\n      swap1\n      0x01\n      add\n      swap1\n      0x20\n      add\n      dup1\n      dup4\n      gt\n      tag_46\n      jumpi\n      dup3\n      swap1\n      sub\n      0x1f\n      and\n      dup3\n      add\n      swap2\n    tag_44:\n      pop\n      pop\n      pop\n      pop\n      pop\n      swap1\n      dup1\n      0x03\n      add\n      0x00\n      swap1\n      sload\n      swap1\n      0x0100\n      exp\n      swap1\n      div\n      0xff\n      and\n      swap1\n      pop\n      dup5\n      jump\t// out\n        /* \"ToDoApp.sol\":1054:1131  function getAmount() public view returns(uint){... */\n    tag_23:\n        /* \"ToDoApp.sol\":1095:1099  uint */\n      0x00\n        /* \"ToDoApp.sol\":1117:1124  counter */\n      sload(0x01)\n        /* \"ToDoApp.sol\":1110:1124  return counter */\n      swap1\n      pop\n        /* \"ToDoApp.sol\":1054:1131  function getAmount() public view returns(uint){... */\n      swap1\n      jump\t// out\n        /* \"ToDoApp.sol\":913:1005  function getTodo(uint id) public view returns(ToDo memory) {... */\n    tag_27:\n        /* \"ToDoApp.sol\":959:970  ToDo memory */\n      tag_48\n      tag_49\n      jump\t// in\n    tag_48:\n        /* \"ToDoApp.sol\":989:994  todos */\n      0x02\n        /* \"ToDoApp.sol\":989:998  todos[id] */\n      0x00\n        /* \"ToDoApp.sol\":995:997  id */\n      dup4\n        /* \"ToDoApp.sol\":989:998  todos[id] */\n      dup2\n      mstore\n      0x20\n      add\n      swap1\n      dup2\n      mstore\n      0x20\n      add\n      0x00\n      keccak256\n        /* \"ToDoApp.sol\":982:998  return todos[id] */\n      mload(0x40)\n      dup1\n      0x80\n      add\n      0x40\n      mstore\n      swap1\n      dup2\n      0x00\n      dup3\n      add\n      sload\n      dup2\n      mstore\n      0x20\n      add\n      0x01\n      dup3\n      add\n      dup1\n      sload\n      tag_51\n      swap1\n      tag_37\n      jump\t// in\n    tag_51:\n      dup1\n      0x1f\n      add\n      0x20\n      dup1\n      swap2\n      div\n      mul\n      0x20\n      add\n      mload(0x40)\n      swap1\n      dup2\n      add\n      0x40\n      mstore\n      dup1\n      swap3\n      swap2\n      swap1\n      dup2\n      dup2\n      mstore\n      0x20\n      add\n      dup3\n      dup1\n      sload\n      tag_52\n      swap1\n      tag_37\n      jump\t// in\n    tag_52:\n      dup1\n      iszero\n      tag_53\n      jumpi\n      dup1\n      0x1f\n      lt\n      tag_54\n      jumpi\n      0x0100\n      dup1\n      dup4\n      sload\n      div\n      mul\n      dup4\n      mstore\n      swap2\n      0x20\n      add\n      swap2\n      jump(tag_53)\n    tag_54:\n      dup3\n      add\n      swap2\n      swap1\n      0x00\n      mstore\n      keccak256(0x00, 0x20)\n      swap1\n    tag_55:\n      dup2\n      sload\n      dup2\n      mstore\n      swap1\n      0x01\n      add\n      swap1\n      0x20\n      add\n      dup1\n      dup4\n      gt\n      tag_55\n      jumpi\n      dup3\n      swap1\n      sub\n      0x1f\n      and\n      dup3\n      add\n      swap2\n    tag_53:\n      pop\n      pop\n      pop\n      pop\n      pop\n      dup2\n      mstore\n      0x20\n      add\n      0x02\n      dup3\n      add\n      dup1\n      sload\n      tag_56\n      swap1\n      tag_37\n      jump\t// in\n    tag_56:\n      dup1\n      0x1f\n      add\n      0x20\n      dup1\n      swap2\n      div\n      mul\n      0x20\n      add\n      mload(0x40)\n      swap1\n      dup2\n      add\n      0x40\n      mstore\n      dup1\n      swap3\n      swap2\n      swap1\n      dup2\n      dup2\n      mstore\n      0x20\n      add\n      dup3\n      dup1\n      sload\n      tag_57\n      swap1\n      tag_37\n      jump\t// in\n    tag_57:\n      dup1\n      iszero\n      tag_58\n      jumpi\n      dup1\n      0x1f\n      lt\n      tag_59\n      jumpi\n      0x0100\n      dup1\n      dup4\n      sload\n      div\n      mul\n      dup4\n      mstore\n      swap2\n      0x20\n      add\n      swap2\n      jump(tag_58)\n    tag_59:\n      dup3\n      add\n      swap2\n      swap1\n      0x00\n      mstore\n      keccak256(0x00, 0x20)\n      swap1\n    tag_60:\n      dup2\n      sload\n      dup2\n      mstore\n      swap1\n      0x01\n      add\n      swap1\n      0x20\n      add\n      dup1\n      dup4\n      gt\n      tag_60\n      jumpi\n      dup3\n      swap1\n      sub\n      0x1f\n      and\n      dup3\n      add\n      swap2\n    tag_58:\n      pop\n      pop\n      pop\n      pop\n      pop\n      dup2\n      mstore\n      0x20\n      add\n      0x03\n      dup3\n      add\n      0x00\n      swap1\n      sload\n      swap1\n      0x0100\n      exp\n      swap1\n      div\n      0xff\n      and\n      iszero\n      iszero\n      iszero\n      iszero\n      dup2\n      mstore\n      pop\n      pop\n      swap1\n      pop\n        /* \"ToDoApp.sol\":913:1005  function getTodo(uint id) public view returns(ToDo memory) {... */\n      swap2\n      swap1\n      pop\n      jump\t// out\n    tag_32:\n      dup3\n      dup1\n      sload\n      tag_61\n      swap1\n      tag_37\n      jump\t// in\n    tag_61:\n      swap1\n      0x00\n      mstore\n      keccak256(0x00, 0x20)\n      swap1\n      0x1f\n      add\n      0x20\n      swap1\n      div\n      dup2\n      add\n      swap3\n      dup3\n      tag_63\n      jumpi\n      0x00\n      dup6\n      sstore\n      jump(tag_62)\n    tag_63:\n      dup3\n      0x1f\n      lt\n      tag_64\n      jumpi\n      dup1\n      mload\n      not(0xff)\n      and\n      dup4\n      dup1\n      add\n      or\n      dup6\n      sstore\n      jump(tag_62)\n    tag_64:\n      dup3\n      dup1\n      add\n      0x01\n      add\n      dup6\n      sstore\n      dup3\n      iszero\n      tag_62\n      jumpi\n      swap2\n      dup3\n      add\n    tag_65:\n      dup3\n      dup2\n      gt\n      iszero\n      tag_66\n      jumpi\n      dup3\n      mload\n      dup3\n      sstore\n      swap2\n      0x20\n      add\n      swap2\n      swap1\n      0x01\n      add\n      swap1\n      jump(tag_65)\n    tag_66:\n    tag_62:\n      pop\n      swap1\n      pop\n      tag_67\n      swap2\n      swap1\n      tag_68\n      jump\t// in\n    tag_67:\n      pop\n      swap1\n      jump\t// out\n    tag_49:\n      mload(0x40)\n      dup1\n      0x80\n      add\n      0x40\n      mstore\n      dup1\n      0x00\n      dup2\n      mstore\n      0x20\n      add\n      0x60\n      dup2\n      mstore\n      0x20\n      add\n      0x60\n      dup2\n      mstore\n      0x20\n      add\n      iszero(iszero(0x00))\n      dup2\n      mstore\n      pop\n      swap1\n      jump\t// out\n    tag_68:\n    tag_69:\n      dup1\n      dup3\n      gt\n      iszero\n      tag_70\n      jumpi\n      0x00\n      dup2\n      0x00\n      swap1\n      sstore\n      pop\n      0x01\n      add\n      jump(tag_69)\n    tag_70:\n      pop\n      swap1\n      jump\t// out\n        /* \"#utility.yul\":7:419   */\n    tag_72:\n        /* \"#utility.yul\":85:90   */\n      0x00\n        /* \"#utility.yul\":110:176   */\n      tag_74\n        /* \"#utility.yul\":126:175   */\n      tag_75\n        /* \"#utility.yul\":168:174   */\n      dup5\n        /* \"#utility.yul\":126:175   */\n      tag_76\n      jump\t// in\n    tag_75:\n        /* \"#utility.yul\":110:176   */\n      tag_77\n      jump\t// in\n    tag_74:\n        /* \"#utility.yul\":101:176   */\n      swap1\n      pop\n        /* \"#utility.yul\":199:205   */\n      dup3\n        /* \"#utility.yul\":192:197   */\n      dup2\n        /* \"#utility.yul\":185:206   */\n      mstore\n        /* \"#utility.yul\":237:241   */\n      0x20\n        /* \"#utility.yul\":230:235   */\n      dup2\n        /* \"#utility.yul\":226:242   */\n      add\n        /* \"#utility.yul\":275:278   */\n      dup5\n        /* \"#utility.yul\":266:272   */\n      dup5\n        /* \"#utility.yul\":261:264   */\n      dup5\n        /* \"#utility.yul\":257:273   */\n      add\n        /* \"#utility.yul\":254:279   */\n      gt\n        /* \"#utility.yul\":251:363   */\n      iszero\n      tag_78\n      jumpi\n        /* \"#utility.yul\":282:361   */\n      tag_79\n      tag_80\n      jump\t// in\n    tag_79:\n        /* \"#utility.yul\":251:363   */\n    tag_78:\n        /* \"#utility.yul\":372:413   */\n      tag_81\n        /* \"#utility.yul\":406:412   */\n      dup5\n        /* \"#utility.yul\":401:404   */\n      dup3\n        /* \"#utility.yul\":396:399   */\n      dup6\n        /* \"#utility.yul\":372:413   */\n      tag_82\n      jump\t// in\n    tag_81:\n        /* \"#utility.yul\":91:419   */\n      pop\n        /* \"#utility.yul\":7:419   */\n      swap4\n      swap3\n      pop\n      pop\n      pop\n      jump\t// out\n        /* \"#utility.yul\":425:558   */\n    tag_83:\n        /* \"#utility.yul\":468:473   */\n      0x00\n        /* \"#utility.yul\":506:512   */\n      dup2\n        /* \"#utility.yul\":493:513   */\n      calldataload\n        /* \"#utility.yul\":484:513   */\n      swap1\n      pop\n        /* \"#utility.yul\":522:552   */\n      tag_85\n        /* \"#utility.yul\":546:551   */\n      dup2\n        /* \"#utility.yul\":522:552   */\n      tag_86\n      jump\t// in\n    tag_85:\n        /* \"#utility.yul\":425:558   */\n      swap3\n      swap2\n      pop\n      pop\n      jump\t// out\n        /* \"#utility.yul\":578:918   */\n    tag_87:\n        /* \"#utility.yul\":634:639   */\n      0x00\n        /* \"#utility.yul\":683:686   */\n      dup3\n        /* \"#utility.yul\":676:680   */\n      0x1f\n        /* \"#utility.yul\":668:674   */\n      dup4\n        /* \"#utility.yul\":664:681   */\n      add\n        /* \"#utility.yul\":660:687   */\n      slt\n        /* \"#utility.yul\":650:772   */\n      tag_89\n      jumpi\n        /* \"#utility.yul\":691:770   */\n      tag_90\n      tag_91\n      jump\t// in\n    tag_90:\n        /* \"#utility.yul\":650:772   */\n    tag_89:\n        /* \"#utility.yul\":808:814   */\n      dup2\n        /* \"#utility.yul\":795:815   */\n      calldataload\n        /* \"#utility.yul\":833:912   */\n      tag_92\n        /* \"#utility.yul\":908:911   */\n      dup5\n        /* \"#utility.yul\":900:906   */\n      dup3\n        /* \"#utility.yul\":893:897   */\n      0x20\n        /* \"#utility.yul\":885:891   */\n      dup7\n        /* \"#utility.yul\":881:898   */\n      add\n        /* \"#utility.yul\":833:912   */\n      tag_72\n      jump\t// in\n    tag_92:\n        /* \"#utility.yul\":824:912   */\n      swap2\n      pop\n        /* \"#utility.yul\":640:918   */\n      pop\n        /* \"#utility.yul\":578:918   */\n      swap3\n      swap2\n      pop\n      pop\n      jump\t// out\n        /* \"#utility.yul\":924:1063   */\n    tag_93:\n        /* \"#utility.yul\":970:975   */\n      0x00\n        /* \"#utility.yul\":1008:1014   */\n      dup2\n        /* \"#utility.yul\":995:1015   */\n      calldataload\n        /* \"#utility.yul\":986:1015   */\n      swap1\n      pop\n        /* \"#utility.yul\":1024:1057   */\n      tag_95\n        /* \"#utility.yul\":1051:1056   */\n      dup2\n        /* \"#utility.yul\":1024:1057   */\n      tag_96\n      jump\t// in\n    tag_95:\n        /* \"#utility.yul\":924:1063   */\n      swap3\n      swap2\n      pop\n      pop\n      jump\t// out\n        /* \"#utility.yul\":1069:1398   */\n    tag_18:\n        /* \"#utility.yul\":1128:1134   */\n      0x00\n        /* \"#utility.yul\":1177:1179   */\n      0x20\n        /* \"#utility.yul\":1165:1174   */\n      dup3\n        /* \"#utility.yul\":1156:1163   */\n      dup5\n        /* \"#utility.yul\":1152:1175   */\n      sub\n        /* \"#utility.yul\":1148:1180   */\n      slt\n        /* \"#utility.yul\":1145:1264   */\n      iszero\n      tag_98\n      jumpi\n        /* \"#utility.yul\":1183:1262   */\n      tag_99\n      tag_100\n      jump\t// in\n    tag_99:\n        /* \"#utility.yul\":1145:1264   */\n    tag_98:\n        /* \"#utility.yul\":1303:1304   */\n      0x00\n        /* \"#utility.yul\":1328:1381   */\n      tag_101\n        /* \"#utility.yul\":1373:1380   */\n      dup5\n        /* \"#utility.yul\":1364:1370   */\n      dup3\n        /* \"#utility.yul\":1353:1362   */\n      dup6\n        /* \"#utility.yul\":1349:1371   */\n      add\n        /* \"#utility.yul\":1328:1381   */\n      tag_93\n      jump\t// in\n    tag_101:\n        /* \"#utility.yul\":1318:1381   */\n      swap2\n      pop\n        /* \"#utility.yul\":1274:1391   */\n      pop\n        /* \"#utility.yul\":1069:1398   */\n      swap3\n      swap2\n      pop\n      pop\n      jump\t// out\n        /* \"#utility.yul\":1404:2523   */\n    tag_10:\n        /* \"#utility.yul\":1507:1513   */\n      0x00\n        /* \"#utility.yul\":1515:1521   */\n      dup1\n        /* \"#utility.yul\":1523:1529   */\n      0x00\n        /* \"#utility.yul\":1531:1537   */\n      dup1\n        /* \"#utility.yul\":1580:1583   */\n      0x80\n        /* \"#utility.yul\":1568:1577   */\n      dup6\n        /* \"#utility.yul\":1559:1566   */\n      dup8\n        /* \"#utility.yul\":1555:1578   */\n      sub\n        /* \"#utility.yul\":1551:1584   */\n      slt\n        /* \"#utility.yul\":1548:1668   */\n      iszero\n      tag_103\n      jumpi\n        /* \"#utility.yul\":1587:1666   */\n      tag_104\n      tag_100\n      jump\t// in\n    tag_104:\n        /* \"#utility.yul\":1548:1668   */\n    tag_103:\n        /* \"#utility.yul\":1707:1708   */\n      0x00\n        /* \"#utility.yul\":1732:1785   */\n      tag_105\n        /* \"#utility.yul\":1777:1784   */\n      dup8\n        /* \"#utility.yul\":1768:1774   */\n      dup3\n        /* \"#utility.yul\":1757:1766   */\n      dup9\n        /* \"#utility.yul\":1753:1775   */\n      add\n        /* \"#utility.yul\":1732:1785   */\n      tag_93\n      jump\t// in\n    tag_105:\n        /* \"#utility.yul\":1722:1785   */\n      swap5\n      pop\n        /* \"#utility.yul\":1678:1795   */\n      pop\n        /* \"#utility.yul\":1862:1864   */\n      0x20\n        /* \"#utility.yul\":1851:1860   */\n      dup6\n        /* \"#utility.yul\":1847:1865   */\n      add\n        /* \"#utility.yul\":1834:1866   */\n      calldataload\n        /* \"#utility.yul\":1893:1911   */\n      0xffffffffffffffff\n        /* \"#utility.yul\":1885:1891   */\n      dup2\n        /* \"#utility.yul\":1882:1912   */\n      gt\n        /* \"#utility.yul\":1879:1996   */\n      iszero\n      tag_106\n      jumpi\n        /* \"#utility.yul\":1915:1994   */\n      tag_107\n      tag_108\n      jump\t// in\n    tag_107:\n        /* \"#utility.yul\":1879:1996   */\n    tag_106:\n        /* \"#utility.yul\":2020:2083   */\n      tag_109\n        /* \"#utility.yul\":2075:2082   */\n      dup8\n        /* \"#utility.yul\":2066:2072   */\n      dup3\n        /* \"#utility.yul\":2055:2064   */\n      dup9\n        /* \"#utility.yul\":2051:2073   */\n      add\n        /* \"#utility.yul\":2020:2083   */\n      tag_87\n      jump\t// in\n    tag_109:\n        /* \"#utility.yul\":2010:2083   */\n      swap4\n      pop\n        /* \"#utility.yul\":1805:2093   */\n      pop\n        /* \"#utility.yul\":2160:2162   */\n      0x40\n        /* \"#utility.yul\":2149:2158   */\n      dup6\n        /* \"#utility.yul\":2145:2163   */\n      add\n        /* \"#utility.yul\":2132:2164   */\n      calldataload\n        /* \"#utility.yul\":2191:2209   */\n      0xffffffffffffffff\n        /* \"#utility.yul\":2183:2189   */\n      dup2\n        /* \"#utility.yul\":2180:2210   */\n      gt\n        /* \"#utility.yul\":2177:2294   */\n      iszero\n      tag_110\n      jumpi\n        /* \"#utility.yul\":2213:2292   */\n      tag_111\n      tag_108\n      jump\t// in\n    tag_111:\n        /* \"#utility.yul\":2177:2294   */\n    tag_110:\n        /* \"#utility.yul\":2318:2381   */\n      tag_112\n        /* \"#utility.yul\":2373:2380   */\n      dup8\n        /* \"#utility.yul\":2364:2370   */\n      dup3\n        /* \"#utility.yul\":2353:2362   */\n      dup9\n        /* \"#utility.yul\":2349:2371   */\n      add\n        /* \"#utility.yul\":2318:2381   */\n      tag_87\n      jump\t// in\n    tag_112:\n        /* \"#utility.yul\":2308:2381   */\n      swap3\n      pop\n        /* \"#utility.yul\":2103:2391   */\n      pop\n        /* \"#utility.yul\":2430:2432   */\n      0x60\n        /* \"#utility.yul\":2456:2506   */\n      tag_113\n        /* \"#utility.yul\":2498:2505   */\n      dup8\n        /* \"#utility.yul\":2489:2495   */\n      dup3\n        /* \"#utility.yul\":2478:2487   */\n      dup9\n        /* \"#utility.yul\":2474:2496   */\n      add\n        /* \"#utility.yul\":2456:2506   */\n      tag_83\n      jump\t// in\n    tag_113:\n        /* \"#utility.yul\":2446:2506   */\n      swap2\n      pop\n        /* \"#utility.yul\":2401:2516   */\n      pop\n        /* \"#utility.yul\":1404:2523   */\n      swap3\n      swap6\n      swap2\n      swap5\n      pop\n      swap3\n      pop\n      jump\t// out\n        /* \"#utility.yul\":2529:2628   */\n    tag_114:\n        /* \"#utility.yul\":2600:2621   */\n      tag_116\n        /* \"#utility.yul\":2615:2620   */\n      dup2\n        /* \"#utility.yul\":2600:2621   */\n      tag_117\n      jump\t// in\n    tag_116:\n        /* \"#utility.yul\":2595:2598   */\n      dup3\n        /* \"#utility.yul\":2588:2622   */\n      mstore\n        /* \"#utility.yul\":2529:2628   */\n      pop\n      pop\n      jump\t// out\n        /* \"#utility.yul\":2634:2743   */\n    tag_118:\n        /* \"#utility.yul\":2715:2736   */\n      tag_120\n        /* \"#utility.yul\":2730:2735   */\n      dup2\n        /* \"#utility.yul\":2715:2736   */\n      tag_117\n      jump\t// in\n    tag_120:\n        /* \"#utility.yul\":2710:2713   */\n      dup3\n        /* \"#utility.yul\":2703:2737   */\n      mstore\n        /* \"#utility.yul\":2634:2743   */\n      pop\n      pop\n      jump\t// out\n        /* \"#utility.yul\":2749:3093   */\n    tag_121:\n        /* \"#utility.yul\":2827:2830   */\n      0x00\n        /* \"#utility.yul\":2855:2894   */\n      tag_123\n        /* \"#utility.yul\":2888:2893   */\n      dup3\n        /* \"#utility.yul\":2855:2894   */\n      tag_124\n      jump\t// in\n    tag_123:\n        /* \"#utility.yul\":2910:2971   */\n      tag_125\n        /* \"#utility.yul\":2964:2970   */\n      dup2\n        /* \"#utility.yul\":2959:2962   */\n      dup6\n        /* \"#utility.yul\":2910:2971   */\n      tag_126\n      jump\t// in\n    tag_125:\n        /* \"#utility.yul\":2903:2971   */\n      swap4\n      pop\n        /* \"#utility.yul\":2980:3032   */\n      tag_127\n        /* \"#utility.yul\":3025:3031   */\n      dup2\n        /* \"#utility.yul\":3020:3023   */\n      dup6\n        /* \"#utility.yul\":3013:3017   */\n      0x20\n        /* \"#utility.yul\":3006:3011   */\n      dup7\n        /* \"#utility.yul\":3002:3018   */\n      add\n        /* \"#utility.yul\":2980:3032   */\n      tag_128\n      jump\t// in\n    tag_127:\n        /* \"#utility.yul\":3057:3086   */\n      tag_129\n        /* \"#utility.yul\":3079:3085   */\n      dup2\n        /* \"#utility.yul\":3057:3086   */\n      tag_130\n      jump\t// in\n    tag_129:\n        /* \"#utility.yul\":3052:3055   */\n      dup5\n        /* \"#utility.yul\":3048:3087   */\n      add\n        /* \"#utility.yul\":3041:3087   */\n      swap2\n      pop\n        /* \"#utility.yul\":2831:3093   */\n      pop\n        /* \"#utility.yul\":2749:3093   */\n      swap3\n      swap2\n      pop\n      pop\n      jump\t// out\n        /* \"#utility.yul\":3099:3463   */\n    tag_131:\n        /* \"#utility.yul\":3187:3190   */\n      0x00\n        /* \"#utility.yul\":3215:3254   */\n      tag_133\n        /* \"#utility.yul\":3248:3253   */\n      dup3\n        /* \"#utility.yul\":3215:3254   */\n      tag_124\n      jump\t// in\n    tag_133:\n        /* \"#utility.yul\":3270:3341   */\n      tag_134\n        /* \"#utility.yul\":3334:3340   */\n      dup2\n        /* \"#utility.yul\":3329:3332   */\n      dup6\n        /* \"#utility.yul\":3270:3341   */\n      tag_135\n      jump\t// in\n    tag_134:\n        /* \"#utility.yul\":3263:3341   */\n      swap4\n      pop\n        /* \"#utility.yul\":3350:3402   */\n      tag_136\n        /* \"#utility.yul\":3395:3401   */\n      dup2\n        /* \"#utility.yul\":3390:3393   */\n      dup6\n        /* \"#utility.yul\":3383:3387   */\n      0x20\n        /* \"#utility.yul\":3376:3381   */\n      dup7\n        /* \"#utility.yul\":3372:3388   */\n      add\n        /* \"#utility.yul\":3350:3402   */\n      tag_128\n      jump\t// in\n    tag_136:\n        /* \"#utility.yul\":3427:3456   */\n      tag_137\n        /* \"#utility.yul\":3449:3455   */\n      dup2\n        /* \"#utility.yul\":3427:3456   */\n      tag_130\n      jump\t// in\n    tag_137:\n        /* \"#utility.yul\":3422:3425   */\n      dup5\n        /* \"#utility.yul\":3418:3457   */\n      add\n        /* \"#utility.yul\":3411:3457   */\n      swap2\n      pop\n        /* \"#utility.yul\":3191:3463   */\n      pop\n        /* \"#utility.yul\":3099:3463   */\n      swap3\n      swap2\n      pop\n      pop\n      jump\t// out\n        /* \"#utility.yul\":3519:4531   */\n    tag_138:\n        /* \"#utility.yul\":3628:3631   */\n      0x00\n        /* \"#utility.yul\":3664:3668   */\n      0x80\n        /* \"#utility.yul\":3659:3662   */\n      dup4\n        /* \"#utility.yul\":3655:3669   */\n      add\n        /* \"#utility.yul\":3749:3753   */\n      0x00\n        /* \"#utility.yul\":3742:3747   */\n      dup4\n        /* \"#utility.yul\":3738:3754   */\n      add\n        /* \"#utility.yul\":3732:3755   */\n      mload\n        /* \"#utility.yul\":3768:3831   */\n      tag_140\n        /* \"#utility.yul\":3825:3829   */\n      0x00\n        /* \"#utility.yul\":3820:3823   */\n      dup7\n        /* \"#utility.yul\":3816:3830   */\n      add\n        /* \"#utility.yul\":3802:3814   */\n      dup3\n        /* \"#utility.yul\":3768:3831   */\n      tag_141\n      jump\t// in\n    tag_140:\n        /* \"#utility.yul\":3679:3841   */\n      pop\n        /* \"#utility.yul\":3923:3927   */\n      0x20\n        /* \"#utility.yul\":3916:3921   */\n      dup4\n        /* \"#utility.yul\":3912:3928   */\n      add\n        /* \"#utility.yul\":3906:3929   */\n      mload\n        /* \"#utility.yul\":3976:3979   */\n      dup5\n        /* \"#utility.yul\":3970:3974   */\n      dup3\n        /* \"#utility.yul\":3966:3980   */\n      sub\n        /* \"#utility.yul\":3959:3963   */\n      0x20\n        /* \"#utility.yul\":3954:3957   */\n      dup7\n        /* \"#utility.yul\":3950:3964   */\n      add\n        /* \"#utility.yul\":3943:3981   */\n      mstore\n        /* \"#utility.yul\":4002:4075   */\n      tag_142\n        /* \"#utility.yul\":4070:4074   */\n      dup3\n        /* \"#utility.yul\":4056:4068   */\n      dup3\n        /* \"#utility.yul\":4002:4075   */\n      tag_121\n      jump\t// in\n    tag_142:\n        /* \"#utility.yul\":3994:4075   */\n      swap2\n      pop\n        /* \"#utility.yul\":3851:4086   */\n      pop\n        /* \"#utility.yul\":4171:4175   */\n      0x40\n        /* \"#utility.yul\":4164:4169   */\n      dup4\n        /* \"#utility.yul\":4160:4176   */\n      add\n        /* \"#utility.yul\":4154:4177   */\n      mload\n        /* \"#utility.yul\":4224:4227   */\n      dup5\n        /* \"#utility.yul\":4218:4222   */\n      dup3\n        /* \"#utility.yul\":4214:4228   */\n      sub\n        /* \"#utility.yul\":4207:4211   */\n      0x40\n        /* \"#utility.yul\":4202:4205   */\n      dup7\n        /* \"#utility.yul\":4198:4212   */\n      add\n        /* \"#utility.yul\":4191:4229   */\n      mstore\n        /* \"#utility.yul\":4250:4323   */\n      tag_143\n        /* \"#utility.yul\":4318:4322   */\n      dup3\n        /* \"#utility.yul\":4304:4316   */\n      dup3\n        /* \"#utility.yul\":4250:4323   */\n      tag_121\n      jump\t// in\n    tag_143:\n        /* \"#utility.yul\":4242:4323   */\n      swap2\n      pop\n        /* \"#utility.yul\":4096:4334   */\n      pop\n        /* \"#utility.yul\":4418:4422   */\n      0x60\n        /* \"#utility.yul\":4411:4416   */\n      dup4\n        /* \"#utility.yul\":4407:4423   */\n      add\n        /* \"#utility.yul\":4401:4424   */\n      mload\n        /* \"#utility.yul\":4437:4494   */\n      tag_144\n        /* \"#utility.yul\":4488:4492   */\n      0x60\n        /* \"#utility.yul\":4483:4486   */\n      dup7\n        /* \"#utility.yul\":4479:4493   */\n      add\n        /* \"#utility.yul\":4465:4477   */\n      dup3\n        /* \"#utility.yul\":4437:4494   */\n      tag_114\n      jump\t// in\n    tag_144:\n        /* \"#utility.yul\":4344:4504   */\n      pop\n        /* \"#utility.yul\":4521:4525   */\n      dup1\n        /* \"#utility.yul\":4514:4525   */\n      swap2\n      pop\n        /* \"#utility.yul\":3633:4531   */\n      pop\n        /* \"#utility.yul\":3519:4531   */\n      swap3\n      swap2\n      pop\n      pop\n      jump\t// out\n        /* \"#utility.yul\":4537:4645   */\n    tag_141:\n        /* \"#utility.yul\":4614:4638   */\n      tag_146\n        /* \"#utility.yul\":4632:4637   */\n      dup2\n        /* \"#utility.yul\":4614:4638   */\n      tag_147\n      jump\t// in\n    tag_146:\n        /* \"#utility.yul\":4609:4612   */\n      dup3\n        /* \"#utility.yul\":4602:4639   */\n      mstore\n        /* \"#utility.yul\":4537:4645   */\n      pop\n      pop\n      jump\t// out\n        /* \"#utility.yul\":4651:4769   */\n    tag_148:\n        /* \"#utility.yul\":4738:4762   */\n      tag_150\n        /* \"#utility.yul\":4756:4761   */\n      dup2\n        /* \"#utility.yul\":4738:4762   */\n      tag_147\n      jump\t// in\n    tag_150:\n        /* \"#utility.yul\":4733:4736   */\n      dup3\n        /* \"#utility.yul\":4726:4763   */\n      mstore\n        /* \"#utility.yul\":4651:4769   */\n      pop\n      pop\n      jump\t// out\n        /* \"#utility.yul\":4775:5128   */\n    tag_29:\n        /* \"#utility.yul\":4908:4912   */\n      0x00\n        /* \"#utility.yul\":4946:4948   */\n      0x20\n        /* \"#utility.yul\":4935:4944   */\n      dup3\n        /* \"#utility.yul\":4931:4949   */\n      add\n        /* \"#utility.yul\":4923:4949   */\n      swap1\n      pop\n        /* \"#utility.yul\":4995:5004   */\n      dup2\n        /* \"#utility.yul\":4989:4993   */\n      dup2\n        /* \"#utility.yul\":4985:5005   */\n      sub\n        /* \"#utility.yul\":4981:4982   */\n      0x00\n        /* \"#utility.yul\":4970:4979   */\n      dup4\n        /* \"#utility.yul\":4966:4983   */\n      add\n        /* \"#utility.yul\":4959:5006   */\n      mstore\n        /* \"#utility.yul\":5023:5121   */\n      tag_152\n        /* \"#utility.yul\":5116:5120   */\n      dup2\n        /* \"#utility.yul\":5107:5113   */\n      dup5\n        /* \"#utility.yul\":5023:5121   */\n      tag_138\n      jump\t// in\n    tag_152:\n        /* \"#utility.yul\":5015:5121   */\n      swap1\n      pop\n        /* \"#utility.yul\":4775:5128   */\n      swap3\n      swap2\n      pop\n      pop\n      jump\t// out\n        /* \"#utility.yul\":5134:5356   */\n    tag_15:\n        /* \"#utility.yul\":5227:5231   */\n      0x00\n        /* \"#utility.yul\":5265:5267   */\n      0x20\n        /* \"#utility.yul\":5254:5263   */\n      dup3\n        /* \"#utility.yul\":5250:5268   */\n      add\n        /* \"#utility.yul\":5242:5268   */\n      swap1\n      pop\n        /* \"#utility.yul\":5278:5349   */\n      tag_154\n        /* \"#utility.yul\":5346:5347   */\n      0x00\n        /* \"#utility.yul\":5335:5344   */\n      dup4\n        /* \"#utility.yul\":5331:5348   */\n      add\n        /* \"#utility.yul\":5322:5328   */\n      dup5\n        /* \"#utility.yul\":5278:5349   */\n      tag_148\n      jump\t// in\n    tag_154:\n        /* \"#utility.yul\":5134:5356   */\n      swap3\n      swap2\n      pop\n      pop\n      jump\t// out\n        /* \"#utility.yul\":5362:6085   */\n    tag_21:\n        /* \"#utility.yul\":5573:5577   */\n      0x00\n        /* \"#utility.yul\":5611:5614   */\n      0x80\n        /* \"#utility.yul\":5600:5609   */\n      dup3\n        /* \"#utility.yul\":5596:5615   */\n      add\n        /* \"#utility.yul\":5588:5615   */\n      swap1\n      pop\n        /* \"#utility.yul\":5625:5696   */\n      tag_156\n        /* \"#utility.yul\":5693:5694   */\n      0x00\n        /* \"#utility.yul\":5682:5691   */\n      dup4\n        /* \"#utility.yul\":5678:5695   */\n      add\n        /* \"#utility.yul\":5669:5675   */\n      dup8\n        /* \"#utility.yul\":5625:5696   */\n      tag_148\n      jump\t// in\n    tag_156:\n        /* \"#utility.yul\":5743:5752   */\n      dup2\n        /* \"#utility.yul\":5737:5741   */\n      dup2\n        /* \"#utility.yul\":5733:5753   */\n      sub\n        /* \"#utility.yul\":5728:5730   */\n      0x20\n        /* \"#utility.yul\":5717:5726   */\n      dup4\n        /* \"#utility.yul\":5713:5731   */\n      add\n        /* \"#utility.yul\":5706:5754   */\n      mstore\n        /* \"#utility.yul\":5771:5849   */\n      tag_157\n        /* \"#utility.yul\":5844:5848   */\n      dup2\n        /* \"#utility.yul\":5835:5841   */\n      dup7\n        /* \"#utility.yul\":5771:5849   */\n      tag_131\n      jump\t// in\n    tag_157:\n        /* \"#utility.yul\":5763:5849   */\n      swap1\n      pop\n        /* \"#utility.yul\":5896:5905   */\n      dup2\n        /* \"#utility.yul\":5890:5894   */\n      dup2\n        /* \"#utility.yul\":5886:5906   */\n      sub\n        /* \"#utility.yul\":5881:5883   */\n      0x40\n        /* \"#utility.yul\":5870:5879   */\n      dup4\n        /* \"#utility.yul\":5866:5884   */\n      add\n        /* \"#utility.yul\":5859:5907   */\n      mstore\n        /* \"#utility.yul\":5924:6002   */\n      tag_158\n        /* \"#utility.yul\":5997:6001   */\n      dup2\n        /* \"#utility.yul\":5988:5994   */\n      dup6\n        /* \"#utility.yul\":5924:6002   */\n      tag_131\n      jump\t// in\n    tag_158:\n        /* \"#utility.yul\":5916:6002   */\n      swap1\n      pop\n        /* \"#utility.yul\":6012:6078   */\n      tag_159\n        /* \"#utility.yul\":6074:6076   */\n      0x60\n        /* \"#utility.yul\":6063:6072   */\n      dup4\n        /* \"#utility.yul\":6059:6077   */\n      add\n        /* \"#utility.yul\":6050:6056   */\n      dup5\n        /* \"#utility.yul\":6012:6078   */\n      tag_118\n      jump\t// in\n    tag_159:\n        /* \"#utility.yul\":5362:6085   */\n      swap6\n      swap5\n      pop\n      pop\n      pop\n      pop\n      pop\n      jump\t// out\n        /* \"#utility.yul\":6091:6220   */\n    tag_77:\n        /* \"#utility.yul\":6125:6131   */\n      0x00\n        /* \"#utility.yul\":6152:6172   */\n      tag_161\n      tag_162\n      jump\t// in\n    tag_161:\n        /* \"#utility.yul\":6142:6172   */\n      swap1\n      pop\n        /* \"#utility.yul\":6181:6214   */\n      tag_163\n        /* \"#utility.yul\":6209:6213   */\n      dup3\n        /* \"#utility.yul\":6201:6207   */\n      dup3\n        /* \"#utility.yul\":6181:6214   */\n      tag_164\n      jump\t// in\n    tag_163:\n        /* \"#utility.yul\":6091:6220   */\n      swap2\n      swap1\n      pop\n      jump\t// out\n        /* \"#utility.yul\":6226:6301   */\n    tag_162:\n        /* \"#utility.yul\":6259:6265   */\n      0x00\n        /* \"#utility.yul\":6292:6294   */\n      0x40\n        /* \"#utility.yul\":6286:6295   */\n      mload\n        /* \"#utility.yul\":6276:6295   */\n      swap1\n      pop\n        /* \"#utility.yul\":6226:6301   */\n      swap1\n      jump\t// out\n        /* \"#utility.yul\":6307:6615   */\n    tag_76:\n        /* \"#utility.yul\":6369:6373   */\n      0x00\n        /* \"#utility.yul\":6459:6477   */\n      0xffffffffffffffff\n        /* \"#utility.yul\":6451:6457   */\n      dup3\n        /* \"#utility.yul\":6448:6478   */\n      gt\n        /* \"#utility.yul\":6445:6501   */\n      iszero\n      tag_167\n      jumpi\n        /* \"#utility.yul\":6481:6499   */\n      tag_168\n      tag_169\n      jump\t// in\n    tag_168:\n        /* \"#utility.yul\":6445:6501   */\n    tag_167:\n        /* \"#utility.yul\":6519:6548   */\n      tag_170\n        /* \"#utility.yul\":6541:6547   */\n      dup3\n        /* \"#utility.yul\":6519:6548   */\n      tag_130\n      jump\t// in\n    tag_170:\n        /* \"#utility.yul\":6511:6548   */\n      swap1\n      pop\n        /* \"#utility.yul\":6603:6607   */\n      0x20\n        /* \"#utility.yul\":6597:6601   */\n      dup2\n        /* \"#utility.yul\":6593:6608   */\n      add\n        /* \"#utility.yul\":6585:6608   */\n      swap1\n      pop\n        /* \"#utility.yul\":6307:6615   */\n      swap2\n      swap1\n      pop\n      jump\t// out\n        /* \"#utility.yul\":6621:6720   */\n    tag_124:\n        /* \"#utility.yul\":6673:6679   */\n      0x00\n        /* \"#utility.yul\":6707:6712   */\n      dup2\n        /* \"#utility.yul\":6701:6713   */\n      mload\n        /* \"#utility.yul\":6691:6713   */\n      swap1\n      pop\n        /* \"#utility.yul\":6621:6720   */\n      swap2\n      swap1\n      pop\n      jump\t// out\n        /* \"#utility.yul\":6726:6885   */\n    tag_126:\n        /* \"#utility.yul\":6800:6811   */\n      0x00\n        /* \"#utility.yul\":6834:6840   */\n      dup3\n        /* \"#utility.yul\":6829:6832   */\n      dup3\n        /* \"#utility.yul\":6822:6841   */\n      mstore\n        /* \"#utility.yul\":6874:6878   */\n      0x20\n        /* \"#utility.yul\":6869:6872   */\n      dup3\n        /* \"#utility.yul\":6865:6879   */\n      add\n        /* \"#utility.yul\":6850:6879   */\n      swap1\n      pop\n        /* \"#utility.yul\":6726:6885   */\n      swap3\n      swap2\n      pop\n      pop\n      jump\t// out\n        /* \"#utility.yul\":6891:7060   */\n    tag_135:\n        /* \"#utility.yul\":6975:6986   */\n      0x00\n        /* \"#utility.yul\":7009:7015   */\n      dup3\n        /* \"#utility.yul\":7004:7007   */\n      dup3\n        /* \"#utility.yul\":6997:7016   */\n      mstore\n        /* \"#utility.yul\":7049:7053   */\n      0x20\n        /* \"#utility.yul\":7044:7047   */\n      dup3\n        /* \"#utility.yul\":7040:7054   */\n      add\n        /* \"#utility.yul\":7025:7054   */\n      swap1\n      pop\n        /* \"#utility.yul\":6891:7060   */\n      swap3\n      swap2\n      pop\n      pop\n      jump\t// out\n        /* \"#utility.yul\":7066:7156   */\n    tag_117:\n        /* \"#utility.yul\":7100:7107   */\n      0x00\n        /* \"#utility.yul\":7143:7148   */\n      dup2\n        /* \"#utility.yul\":7136:7149   */\n      iszero\n        /* \"#utility.yul\":7129:7150   */\n      iszero\n        /* \"#utility.yul\":7118:7150   */\n      swap1\n      pop\n        /* \"#utility.yul\":7066:7156   */\n      swap2\n      swap1\n      pop\n      jump\t// out\n        /* \"#utility.yul\":7162:7239   */\n    tag_147:\n        /* \"#utility.yul\":7199:7206   */\n      0x00\n        /* \"#utility.yul\":7228:7233   */\n      dup2\n        /* \"#utility.yul\":7217:7233   */\n      swap1\n      pop\n        /* \"#utility.yul\":7162:7239   */\n      swap2\n      swap1\n      pop\n      jump\t// out\n        /* \"#utility.yul\":7245:7399   */\n    tag_82:\n        /* \"#utility.yul\":7329:7335   */\n      dup3\n        /* \"#utility.yul\":7324:7327   */\n      dup2\n        /* \"#utility.yul\":7319:7322   */\n      dup4\n        /* \"#utility.yul\":7306:7336   */\n      calldatacopy\n        /* \"#utility.yul\":7391:7392   */\n      0x00\n        /* \"#utility.yul\":7382:7388   */\n      dup4\n        /* \"#utility.yul\":7377:7380   */\n      dup4\n        /* \"#utility.yul\":7373:7389   */\n      add\n        /* \"#utility.yul\":7366:7393   */\n      mstore\n        /* \"#utility.yul\":7245:7399   */\n      pop\n      pop\n      pop\n      jump\t// out\n        /* \"#utility.yul\":7405:7712   */\n    tag_128:\n        /* \"#utility.yul\":7473:7474   */\n      0x00\n        /* \"#utility.yul\":7483:7596   */\n    tag_178:\n        /* \"#utility.yul\":7497:7503   */\n      dup4\n        /* \"#utility.yul\":7494:7495   */\n      dup2\n        /* \"#utility.yul\":7491:7504   */\n      lt\n        /* \"#utility.yul\":7483:7596   */\n      iszero\n      tag_180\n      jumpi\n        /* \"#utility.yul\":7582:7583   */\n      dup1\n        /* \"#utility.yul\":7577:7580   */\n      dup3\n        /* \"#utility.yul\":7573:7584   */\n      add\n        /* \"#utility.yul\":7567:7585   */\n      mload\n        /* \"#utility.yul\":7563:7564   */\n      dup2\n        /* \"#utility.yul\":7558:7561   */\n      dup5\n        /* \"#utility.yul\":7554:7565   */\n      add\n        /* \"#utility.yul\":7547:7586   */\n      mstore\n        /* \"#utility.yul\":7519:7521   */\n      0x20\n        /* \"#utility.yul\":7516:7517   */\n      dup2\n        /* \"#utility.yul\":7512:7522   */\n      add\n        /* \"#utility.yul\":7507:7522   */\n      swap1\n      pop\n        /* \"#utility.yul\":7483:7596   */\n      jump(tag_178)\n    tag_180:\n        /* \"#utility.yul\":7614:7620   */\n      dup4\n        /* \"#utility.yul\":7611:7612   */\n      dup2\n        /* \"#utility.yul\":7608:7621   */\n      gt\n        /* \"#utility.yul\":7605:7706   */\n      iszero\n      tag_181\n      jumpi\n        /* \"#utility.yul\":7694:7695   */\n      0x00\n        /* \"#utility.yul\":7685:7691   */\n      dup5\n        /* \"#utility.yul\":7680:7683   */\n      dup5\n        /* \"#utility.yul\":7676:7692   */\n      add\n        /* \"#utility.yul\":7669:7696   */\n      mstore\n        /* \"#utility.yul\":7605:7706   */\n    tag_181:\n        /* \"#utility.yul\":7454:7712   */\n      pop\n        /* \"#utility.yul\":7405:7712   */\n      pop\n      pop\n      pop\n      jump\t// out\n        /* \"#utility.yul\":7718:8038   */\n    tag_37:\n        /* \"#utility.yul\":7762:7768   */\n      0x00\n        /* \"#utility.yul\":7799:7800   */\n      0x02\n        /* \"#utility.yul\":7793:7797   */\n      dup3\n        /* \"#utility.yul\":7789:7801   */\n      div\n        /* \"#utility.yul\":7779:7801   */\n      swap1\n      pop\n        /* \"#utility.yul\":7846:7847   */\n      0x01\n        /* \"#utility.yul\":7840:7844   */\n      dup3\n        /* \"#utility.yul\":7836:7848   */\n      and\n        /* \"#utility.yul\":7867:7885   */\n      dup1\n        /* \"#utility.yul\":7857:7938   */\n      tag_183\n      jumpi\n        /* \"#utility.yul\":7923:7927   */\n      0x7f\n        /* \"#utility.yul\":7915:7921   */\n      dup3\n        /* \"#utility.yul\":7911:7928   */\n      and\n        /* \"#utility.yul\":7901:7928   */\n      swap2\n      pop\n        /* \"#utility.yul\":7857:7938   */\n    tag_183:\n        /* \"#utility.yul\":7985:7987   */\n      0x20\n        /* \"#utility.yul\":7977:7983   */\n      dup3\n        /* \"#utility.yul\":7974:7988   */\n      lt\n        /* \"#utility.yul\":7954:7972   */\n      dup2\n        /* \"#utility.yul\":7951:7989   */\n      eq\n        /* \"#utility.yul\":7948:8032   */\n      iszero\n      tag_184\n      jumpi\n        /* \"#utility.yul\":8004:8022   */\n      tag_185\n      tag_186\n      jump\t// in\n    tag_185:\n        /* \"#utility.yul\":7948:8032   */\n    tag_184:\n        /* \"#utility.yul\":7769:8038   */\n      pop\n        /* \"#utility.yul\":7718:8038   */\n      swap2\n      swap1\n      pop\n      jump\t// out\n        /* \"#utility.yul\":8044:8325   */\n    tag_164:\n        /* \"#utility.yul\":8127:8154   */\n      tag_188\n        /* \"#utility.yul\":8149:8153   */\n      dup3\n        /* \"#utility.yul\":8127:8154   */\n      tag_130\n      jump\t// in\n    tag_188:\n        /* \"#utility.yul\":8119:8125   */\n      dup2\n        /* \"#utility.yul\":8115:8155   */\n      add\n        /* \"#utility.yul\":8257:8263   */\n      dup2\n        /* \"#utility.yul\":8245:8255   */\n      dup2\n        /* \"#utility.yul\":8242:8264   */\n      lt\n        /* \"#utility.yul\":8221:8239   */\n      0xffffffffffffffff\n        /* \"#utility.yul\":8209:8219   */\n      dup3\n        /* \"#utility.yul\":8206:8240   */\n      gt\n        /* \"#utility.yul\":8203:8265   */\n      or\n        /* \"#utility.yul\":8200:8288   */\n      iszero\n      tag_189\n      jumpi\n        /* \"#utility.yul\":8268:8286   */\n      tag_190\n      tag_169\n      jump\t// in\n    tag_190:\n        /* \"#utility.yul\":8200:8288   */\n    tag_189:\n        /* \"#utility.yul\":8308:8318   */\n      dup1\n        /* \"#utility.yul\":8304:8306   */\n      0x40\n        /* \"#utility.yul\":8297:8319   */\n      mstore\n        /* \"#utility.yul\":8087:8325   */\n      pop\n        /* \"#utility.yul\":8044:8325   */\n      pop\n      pop\n      jump\t// out\n        /* \"#utility.yul\":8331:8564   */\n    tag_35:\n        /* \"#utility.yul\":8370:8373   */\n      0x00\n        /* \"#utility.yul\":8393:8417   */\n      tag_192\n        /* \"#utility.yul\":8411:8416   */\n      dup3\n        /* \"#utility.yul\":8393:8417   */\n      tag_147\n      jump\t// in\n    tag_192:\n        /* \"#utility.yul\":8384:8417   */\n      swap2\n      pop\n        /* \"#utility.yul\":8439:8505   */\n      0xffffffffffffffffffffffffffffffffffffffffffffffffffffffffffffffff\n        /* \"#utility.yul\":8432:8437   */\n      dup3\n        /* \"#utility.yul\":8429:8506   */\n      eq\n        /* \"#utility.yul\":8426:8529   */\n      iszero\n      tag_193\n      jumpi\n        /* \"#utility.yul\":8509:8527   */\n      tag_194\n      tag_195\n      jump\t// in\n    tag_194:\n        /* \"#utility.yul\":8426:8529   */\n    tag_193:\n        /* \"#utility.yul\":8556:8557   */\n      0x01\n        /* \"#utility.yul\":8549:8554   */\n      dup3\n        /* \"#utility.yul\":8545:8558   */\n      add\n        /* \"#utility.yul\":8538:8558   */\n      swap1\n      pop\n        /* \"#utility.yul\":8331:8564   */\n      swap2\n      swap1\n      pop\n      jump\t// out\n        /* \"#utility.yul\":8570:8750   */\n    tag_195:\n        /* \"#utility.yul\":8618:8695   */\n      0x4e487b7100000000000000000000000000000000000000000000000000000000\n        /* \"#utility.yul\":8615:8616   */\n      0x00\n        /* \"#utility.yul\":8608:8696   */\n      mstore\n        /* \"#utility.yul\":8715:8719   */\n      0x11\n        /* \"#utility.yul\":8712:8713   */\n      0x04\n        /* \"#utility.yul\":8705:8720   */\n      mstore\n        /* \"#utility.yul\":8739:8743   */\n      0x24\n        /* \"#utility.yul\":8736:8737   */\n      0x00\n        /* \"#utility.yul\":8729:8744   */\n      revert\n        /* \"#utility.yul\":8756:8936   */\n    tag_186:\n        /* \"#utility.yul\":8804:8881   */\n      0x4e487b7100000000000000000000000000000000000000000000000000000000\n        /* \"#utility.yul\":8801:8802   */\n      0x00\n        /* \"#utility.yul\":8794:8882   */\n      mstore\n        /* \"#utility.yul\":8901:8905   */\n      0x22\n        /* \"#utility.yul\":8898:8899   */\n      0x04\n        /* \"#utility.yul\":8891:8906   */\n      mstore\n        /* \"#utility.yul\":8925:8929   */\n      0x24\n        /* \"#utility.yul\":8922:8923   */\n      0x00\n        /* \"#utility.yul\":8915:8930   */\n      revert\n        /* \"#utility.yul\":8942:9122   */\n    tag_169:\n        /* \"#utility.yul\":8990:9067   */\n      0x4e487b7100000000000000000000000000000000000000000000000000000000\n        /* \"#utility.yul\":8987:8988   */\n      0x00\n        /* \"#utility.yul\":8980:9068   */\n      mstore\n        /* \"#utility.yul\":9087:9091   */\n      0x41\n        /* \"#utility.yul\":9084:9085   */\n      0x04\n        /* \"#utility.yul\":9077:9092   */\n      mstore\n        /* \"#utility.yul\":9111:9115   */\n      0x24\n        /* \"#utility.yul\":9108:9109   */\n      0x00\n        /* \"#utility.yul\":9101:9116   */\n      revert\n        /* \"#utility.yul\":9128:9245   */\n    tag_91:\n        /* \"#utility.yul\":9237:9238   */\n      0x00\n        /* \"#utility.yul\":9234:9235   */\n      dup1\n        /* \"#utility.yul\":9227:9239   */\n      revert\n        /* \"#utility.yul\":9251:9368   */\n    tag_80:\n        /* \"#utility.yul\":9360:9361   */\n      0x00\n        /* \"#utility.yul\":9357:9358   */\n      dup1\n        /* \"#utility.yul\":9350:9362   */\n      revert\n        /* \"#utility.yul\":9374:9491   */\n    tag_108:\n        /* \"#utility.yul\":9483:9484   */\n      0x00\n        /* \"#utility.yul\":9480:9481   */\n      dup1\n        /* \"#utility.yul\":9473:9485   */\n      revert\n        /* \"#utility.yul\":9497:9614   */\n    tag_100:\n        /* \"#utility.yul\":9606:9607   */\n      0x00\n        /* \"#utility.yul\":9603:9604   */\n      dup1\n        /* \"#utility.yul\":9596:9608   */\n      revert\n        /* \"#utility.yul\":9620:9722   */\n    tag_130:\n        /* \"#utility.yul\":9661:9667   */\n      0x00\n        /* \"#utility.yul\":9712:9714   */\n      0x1f\n        /* \"#utility.yul\":9708:9715   */\n      not\n        /* \"#utility.yul\":9703:9705   */\n      0x1f\n        /* \"#utility.yul\":9696:9701   */\n      dup4\n        /* \"#utility.yul\":9692:9706   */\n      add\n        /* \"#utility.yul\":9688:9716   */\n      and\n        /* \"#utility.yul\":9678:9716   */\n      swap1\n      pop\n        /* \"#utility.yul\":9620:9722   */\n      swap2\n      swap1\n      pop\n      jump\t// out\n        /* \"#utility.yul\":9728:9844   */\n    tag_86:\n        /* \"#utility.yul\":9798:9819   */\n      tag_205\n        /* \"#utility.yul\":9813:9818   */\n      dup2\n        /* \"#utility.yul\":9798:9819   */\n      tag_117\n      jump\t// in\n    tag_205:\n        /* \"#utility.yul\":9791:9796   */\n      dup2\n        /* \"#utility.yul\":9788:9820   */\n      eq\n        /* \"#utility.yul\":9778:9838   */\n      tag_206\n      jumpi\n        /* \"#utility.yul\":9834:9835   */\n      0x00\n        /* \"#utility.yul\":9831:9832   */\n      dup1\n        /* \"#utility.yul\":9824:9836   */\n      revert\n        /* \"#utility.yul\":9778:9838   */\n    tag_206:\n        /* \"#utility.yul\":9728:9844   */\n      pop\n      jump\t// out\n        /* \"#utility.yul\":9850:9972   */\n    tag_96:\n        /* \"#utility.yul\":9923:9947   */\n      tag_208\n        /* \"#utility.yul\":9941:9946   */\n      dup2\n        /* \"#utility.yul\":9923:9947   */\n      tag_147\n      jump\t// in\n    tag_208:\n        /* \"#utility.yul\":9916:9921   */\n      dup2\n        /* \"#utility.yul\":9913:9948   */\n      eq\n        /* \"#utility.yul\":9903:9966   */\n      tag_209\n      jumpi\n        /* \"#utility.yul\":9962:9963   */\n      0x00\n        /* \"#utility.yul\":9959:9960   */\n      dup1\n        /* \"#utility.yul\":9952:9964   */\n      revert\n        /* \"#utility.yul\":9903:9966   */\n    tag_209:\n        /* \"#utility.yul\":9850:9972   */\n      pop\n      jump\t// out\n\n    auxdata: 0xa2646970667358221220c66fe5761fac3682ec67756e9e63ea7bb8cce0486dfee4571410093044dcaf2964736f6c63430008070033\n}\n",
				"bytecode": {
					"linkReferences": {},
					"object": "608060405234801561001057600080fd5b50336000806101000a81548173ffffffffffffffffffffffffffffffffffffffff021916908373ffffffffffffffffffffffffffffffffffffffff160217905550610b1f806100606000396000f3fe608060405234801561001057600080fd5b50600436106100575760003560e01c80633b04d05b1461005c57806361bc221a14610078578063bc8bc2b414610096578063d321fe29146100c9578063dd68afb6146100e7575b600080fd5b6100766004803603810190610071919061063b565b610117565b005b6100806101d4565b60405161008d9190610814565b60405180910390f35b6100b060048036038101906100ab919061060e565b6101da565b6040516100c0949392919061082f565b60405180910390f35b6100d1610327565b6040516100de9190610814565b60405180910390f35b61010160048036038101906100fc919061060e565b610331565b60405161010e91906107f2565b60405180910390f35b60405180608001604052808581526020018481526020018381526020018215158152506002600060015481526020019081526020016000206000820151816000015560208201518160010190805190602001906101759291906104a7565b5060408201518160020190805190602001906101929291906104a7565b5060608201518160030160006101000a81548160ff021916908315150217905550905050600160008154809291906101c9906109c0565b919050555050505050565b60015481565b60026020528060005260406000206000915090508060000154908060010180546102039061095d565b80601f016020809104026020016040519081016040528092919081815260200182805461022f9061095d565b801561027c5780601f106102515761010080835404028352916020019161027c565b820191906000526020600020905b81548152906001019060200180831161025f57829003601f168201915b5050505050908060020180546102919061095d565b80601f01602080910402602001604051908101604052809291908181526020018280546102bd9061095d565b801561030a5780601f106102df5761010080835404028352916020019161030a565b820191906000526020600020905b8154815290600101906020018083116102ed57829003601f168201915b5050505050908060030160009054906101000a900460ff16905084565b6000600154905090565b61033961052d565b60026000838152602001908152602001600020604051806080016040529081600082015481526020016001820180546103719061095d565b80601f016020809104026020016040519081016040528092919081815260200182805461039d9061095d565b80156103ea5780601f106103bf576101008083540402835291602001916103ea565b820191906000526020600020905b8154815290600101906020018083116103cd57829003601f168201915b505050505081526020016002820180546104039061095d565b80601f016020809104026020016040519081016040528092919081815260200182805461042f9061095d565b801561047c5780601f106104515761010080835404028352916020019161047c565b820191906000526020600020905b81548152906001019060200180831161045f57829003601f168201915b505050505081526020016003820160009054906101000a900460ff1615151515815250509050919050565b8280546104b39061095d565b90600052602060002090601f0160209004810192826104d5576000855561051c565b82601f106104ee57805160ff191683800117855561051c565b8280016001018555821561051c579182015b8281111561051b578251825591602001919060010190610500565b5b5090506105299190610557565b5090565b60405180608001604052806000815260200160608152602001606081526020016000151581525090565b5b80821115610570576000816000905550600101610558565b5090565b6000610587610582846108a7565b610882565b9050828152602081018484840111156105a3576105a2610a9b565b5b6105ae84828561091b565b509392505050565b6000813590506105c581610abb565b92915050565b600082601f8301126105e0576105df610a96565b5b81356105f0848260208601610574565b91505092915050565b60008135905061060881610ad2565b92915050565b60006020828403121561062457610623610aa5565b5b6000610632848285016105f9565b91505092915050565b6000806000806080858703121561065557610654610aa5565b5b6000610663878288016105f9565b945050602085013567ffffffffffffffff81111561068457610683610aa0565b5b610690878288016105cb565b935050604085013567ffffffffffffffff8111156106b1576106b0610aa0565b5b6106bd878288016105cb565b92505060606106ce878288016105b6565b91505092959194509250565b6106e381610905565b82525050565b6106f281610905565b82525050565b6000610703826108d8565b61070d81856108e3565b935061071d81856020860161092a565b61072681610aaa565b840191505092915050565b600061073c826108d8565b61074681856108f4565b935061075681856020860161092a565b61075f81610aaa565b840191505092915050565b600060808301600083015161078260008601826107d4565b506020830151848203602086015261079a82826106f8565b915050604083015184820360408601526107b482826106f8565b91505060608301516107c960608601826106da565b508091505092915050565b6107dd81610911565b82525050565b6107ec81610911565b82525050565b6000602082019050818103600083015261080c818461076a565b905092915050565b600060208201905061082960008301846107e3565b92915050565b600060808201905061084460008301876107e3565b81810360208301526108568186610731565b9050818103604083015261086a8185610731565b905061087960608301846106e9565b95945050505050565b600061088c61089d565b9050610898828261098f565b919050565b6000604051905090565b600067ffffffffffffffff8211156108c2576108c1610a67565b5b6108cb82610aaa565b9050602081019050919050565b600081519050919050565b600082825260208201905092915050565b600082825260208201905092915050565b60008115159050919050565b6000819050919050565b82818337600083830152505050565b60005b8381101561094857808201518184015260208101905061092d565b83811115610957576000848401525b50505050565b6000600282049050600182168061097557607f821691505b6020821081141561098957610988610a38565b5b50919050565b61099882610aaa565b810181811067ffffffffffffffff821117156109b7576109b6610a67565b5b80604052505050565b60006109cb82610911565b91507fffffffffffffffffffffffffffffffffffffffffffffffffffffffffffffffff8214156109fe576109fd610a09565b5b600182019050919050565b7f4e487b7100000000000000000000000000000000000000000000000000000000600052601160045260246000fd5b7f4e487b7100000000000000000000000000000000000000000000000000000000600052602260045260246000fd5b7f4e487b7100000000000000000000000000000000000000000000000000000000600052604160045260246000fd5b600080fd5b600080fd5b600080fd5b600080fd5b6000601f19601f8301169050919050565b610ac481610905565b8114610acf57600080fd5b50565b610adb81610911565b8114610ae657600080fd5b5056fea2646970667358221220c66fe5761fac3682ec67756e9e63ea7bb8cce0486dfee4571410093044dcaf2964736f6c63430008070033",
					"opcodes": "PUSH1 0x80 PUSH1 0x40 MSTORE CALLVALUE DUP1 ISZERO PUSH2 0x10 JUMPI PUSH1 0x0 DUP1 REVERT JUMPDEST POP CALLER PUSH1 0x0 DUP1 PUSH2 0x100 EXP DUP2 SLOAD DUP2 PUSH20 0xFFFFFFFFFFFFFFFFFFFFFFFFFFFFFFFFFFFFFFFF MUL NOT AND SWAP1 DUP4 PUSH20 0xFFFFFFFFFFFFFFFFFFFFFFFFFFFFFFFFFFFFFFFF AND MUL OR SWAP1 SSTORE POP PUSH2 0xB1F DUP1 PUSH2 0x60 PUSH1 0x0 CODECOPY PUSH1 0x0 RETURN INVALID PUSH1 0x80 PUSH1 0x40 MSTORE CALLVALUE DUP1 ISZERO PUSH2 0x10 JUMPI PUSH1 0x0 DUP1 REVERT JUMPDEST POP PUSH1 0x4 CALLDATASIZE LT PUSH2 0x57 JUMPI PUSH1 0x0 CALLDATALOAD PUSH1 0xE0 SHR DUP1 PUSH4 0x3B04D05B EQ PUSH2 0x5C JUMPI DUP1 PUSH4 0x61BC221A EQ PUSH2 0x78 JUMPI DUP1 PUSH4 0xBC8BC2B4 EQ PUSH2 0x96 JUMPI DUP1 PUSH4 0xD321FE29 EQ PUSH2 0xC9 JUMPI DUP1 PUSH4 0xDD68AFB6 EQ PUSH2 0xE7 JUMPI JUMPDEST PUSH1 0x0 DUP1 REVERT JUMPDEST PUSH2 0x76 PUSH1 0x4 DUP1 CALLDATASIZE SUB DUP2 ADD SWAP1 PUSH2 0x71 SWAP2 SWAP1 PUSH2 0x63B JUMP JUMPDEST PUSH2 0x117 JUMP JUMPDEST STOP JUMPDEST PUSH2 0x80 PUSH2 0x1D4 JUMP JUMPDEST PUSH1 0x40 MLOAD PUSH2 0x8D SWAP2 SWAP1 PUSH2 0x814 JUMP JUMPDEST PUSH1 0x40 MLOAD DUP1 SWAP2 SUB SWAP1 RETURN JUMPDEST PUSH2 0xB0 PUSH1 0x4 DUP1 CALLDATASIZE SUB DUP2 ADD SWAP1 PUSH2 0xAB SWAP2 SWAP1 PUSH2 0x60E JUMP JUMPDEST PUSH2 0x1DA JUMP JUMPDEST PUSH1 0x40 MLOAD PUSH2 0xC0 SWAP5 SWAP4 SWAP3 SWAP2 SWAP1 PUSH2 0x82F JUMP JUMPDEST PUSH1 0x40 MLOAD DUP1 SWAP2 SUB SWAP1 RETURN JUMPDEST PUSH2 0xD1 PUSH2 0x327 JUMP JUMPDEST PUSH1 0x40 MLOAD PUSH2 0xDE SWAP2 SWAP1 PUSH2 0x814 JUMP JUMPDEST PUSH1 0x40 MLOAD DUP1 SWAP2 SUB SWAP1 RETURN JUMPDEST PUSH2 0x101 PUSH1 0x4 DUP1 CALLDATASIZE SUB DUP2 ADD SWAP1 PUSH2 0xFC SWAP2 SWAP1 PUSH2 0x60E JUMP JUMPDEST PUSH2 0x331 JUMP JUMPDEST PUSH1 0x40 MLOAD PUSH2 0x10E SWAP2 SWAP1 PUSH2 0x7F2 JUMP JUMPDEST PUSH1 0x40 MLOAD DUP1 SWAP2 SUB SWAP1 RETURN JUMPDEST PUSH1 0x40 MLOAD DUP1 PUSH1 0x80 ADD PUSH1 0x40 MSTORE DUP1 DUP6 DUP2 MSTORE PUSH1 0x20 ADD DUP5 DUP2 MSTORE PUSH1 0x20 ADD DUP4 DUP2 MSTORE PUSH1 0x20 ADD DUP3 ISZERO ISZERO DUP2 MSTORE POP PUSH1 0x2 PUSH1 0x0 PUSH1 0x1 SLOAD DUP2 MSTORE PUSH1 0x20 ADD SWAP1 DUP2 MSTORE PUSH1 0x20 ADD PUSH1 0x0 KECCAK256 PUSH1 0x0 DUP3 ADD MLOAD DUP2 PUSH1 0x0 ADD SSTORE PUSH1 0x20 DUP3 ADD MLOAD DUP2 PUSH1 0x1 ADD SWAP1 DUP1 MLOAD SWAP1 PUSH1 0x20 ADD SWAP1 PUSH2 0x175 SWAP3 SWAP2 SWAP1 PUSH2 0x4A7 JUMP JUMPDEST POP PUSH1 0x40 DUP3 ADD MLOAD DUP2 PUSH1 0x2 ADD SWAP1 DUP1 MLOAD SWAP1 PUSH1 0x20 ADD SWAP1 PUSH2 0x192 SWAP3 SWAP2 SWAP1 PUSH2 0x4A7 JUMP JUMPDEST POP PUSH1 0x60 DUP3 ADD MLOAD DUP2 PUSH1 0x3 ADD PUSH1 0x0 PUSH2 0x100 EXP DUP2 SLOAD DUP2 PUSH1 0xFF MUL NOT AND SWAP1 DUP4 ISZERO ISZERO MUL OR SWAP1 SSTORE POP SWAP1 POP POP PUSH1 0x1 PUSH1 0x0 DUP2 SLOAD DUP1 SWAP3 SWAP2 SWAP1 PUSH2 0x1C9 SWAP1 PUSH2 0x9C0 JUMP JUMPDEST SWAP2 SWAP1 POP SSTORE POP POP POP POP POP JUMP JUMPDEST PUSH1 0x1 SLOAD DUP2 JUMP JUMPDEST PUSH1 0x2 PUSH1 0x20 MSTORE DUP1 PUSH1 0x0 MSTORE PUSH1 0x40 PUSH1 0x0 KECCAK256 PUSH1 0x0 SWAP2 POP SWAP1 POP DUP1 PUSH1 0x0 ADD SLOAD SWAP1 DUP1 PUSH1 0x1 ADD DUP1 SLOAD PUSH2 0x203 SWAP1 PUSH2 0x95D JUMP JUMPDEST DUP1 PUSH1 0x1F ADD PUSH1 0x20 DUP1 SWAP2 DIV MUL PUSH1 0x20 ADD PUSH1 0x40 MLOAD SWAP1 DUP2 ADD PUSH1 0x40 MSTORE DUP1 SWAP3 SWAP2 SWAP1 DUP2 DUP2 MSTORE PUSH1 0x20 ADD DUP3 DUP1 SLOAD PUSH2 0x22F SWAP1 PUSH2 0x95D JUMP JUMPDEST DUP1 ISZERO PUSH2 0x27C JUMPI DUP1 PUSH1 0x1F LT PUSH2 0x251 JUMPI PUSH2 0x100 DUP1 DUP4 SLOAD DIV MUL DUP4 MSTORE SWAP2 PUSH1 0x20 ADD SWAP2 PUSH2 0x27C JUMP JUMPDEST DUP3 ADD SWAP2 SWAP1 PUSH1 0x0 MSTORE PUSH1 0x20 PUSH1 0x0 KECCAK256 SWAP1 JUMPDEST DUP2 SLOAD DUP2 MSTORE SWAP1 PUSH1 0x1 ADD SWAP1 PUSH1 0x20 ADD DUP1 DUP4 GT PUSH2 0x25F JUMPI DUP3 SWAP1 SUB PUSH1 0x1F AND DUP3 ADD SWAP2 JUMPDEST POP POP POP POP POP SWAP1 DUP1 PUSH1 0x2 ADD DUP1 SLOAD PUSH2 0x291 SWAP1 PUSH2 0x95D JUMP JUMPDEST DUP1 PUSH1 0x1F ADD PUSH1 0x20 DUP1 SWAP2 DIV MUL PUSH1 0x20 ADD PUSH1 0x40 MLOAD SWAP1 DUP2 ADD PUSH1 0x40 MSTORE DUP1 SWAP3 SWAP2 SWAP1 DUP2 DUP2 MSTORE PUSH1 0x20 ADD DUP3 DUP1 SLOAD PUSH2 0x2BD SWAP1 PUSH2 0x95D JUMP JUMPDEST DUP1 ISZERO PUSH2 0x30A JUMPI DUP1 PUSH1 0x1F LT PUSH2 0x2DF JUMPI PUSH2 0x100 DUP1 DUP4 SLOAD DIV MUL DUP4 MSTORE SWAP2 PUSH1 0x20 ADD SWAP2 PUSH2 0x30A JUMP JUMPDEST DUP3 ADD SWAP2 SWAP1 PUSH1 0x0 MSTORE PUSH1 0x20 PUSH1 0x0 KECCAK256 SWAP1 JUMPDEST DUP2 SLOAD DUP2 MSTORE SWAP1 PUSH1 0x1 ADD SWAP1 PUSH1 0x20 ADD DUP1 DUP4 GT PUSH2 0x2ED JUMPI DUP3 SWAP1 SUB PUSH1 0x1F AND DUP3 ADD SWAP2 JUMPDEST POP POP POP POP POP SWAP1 DUP1 PUSH1 0x3 ADD PUSH1 0x0 SWAP1 SLOAD SWAP1 PUSH2 0x100 EXP SWAP1 DIV PUSH1 0xFF AND SWAP1 POP DUP5 JUMP JUMPDEST PUSH1 0x0 PUSH1 0x1 SLOAD SWAP1 POP SWAP1 JUMP JUMPDEST PUSH2 0x339 PUSH2 0x52D JUMP JUMPDEST PUSH1 0x2 PUSH1 0x0 DUP4 DUP2 MSTORE PUSH1 0x20 ADD SWAP1 DUP2 MSTORE PUSH1 0x20 ADD PUSH1 0x0 KECCAK256 PUSH1 0x40 MLOAD DUP1 PUSH1 0x80 ADD PUSH1 0x40 MSTORE SWAP1 DUP2 PUSH1 0x0 DUP3 ADD SLOAD DUP2 MSTORE PUSH1 0x20 ADD PUSH1 0x1 DUP3 ADD DUP1 SLOAD PUSH2 0x371 SWAP1 PUSH2 0x95D JUMP JUMPDEST DUP1 PUSH1 0x1F ADD PUSH1 0x20 DUP1 SWAP2 DIV MUL PUSH1 0x20 ADD PUSH1 0x40 MLOAD SWAP1 DUP2 ADD PUSH1 0x40 MSTORE DUP1 SWAP3 SWAP2 SWAP1 DUP2 DUP2 MSTORE PUSH1 0x20 ADD DUP3 DUP1 SLOAD PUSH2 0x39D SWAP1 PUSH2 0x95D JUMP JUMPDEST DUP1 ISZERO PUSH2 0x3EA JUMPI DUP1 PUSH1 0x1F LT PUSH2 0x3BF JUMPI PUSH2 0x100 DUP1 DUP4 SLOAD DIV MUL DUP4 MSTORE SWAP2 PUSH1 0x20 ADD SWAP2 PUSH2 0x3EA JUMP JUMPDEST DUP3 ADD SWAP2 SWAP1 PUSH1 0x0 MSTORE PUSH1 0x20 PUSH1 0x0 KECCAK256 SWAP1 JUMPDEST DUP2 SLOAD DUP2 MSTORE SWAP1 PUSH1 0x1 ADD SWAP1 PUSH1 0x20 ADD DUP1 DUP4 GT PUSH2 0x3CD JUMPI DUP3 SWAP1 SUB PUSH1 0x1F AND DUP3 ADD SWAP2 JUMPDEST POP POP POP POP POP DUP2 MSTORE PUSH1 0x20 ADD PUSH1 0x2 DUP3 ADD DUP1 SLOAD PUSH2 0x403 SWAP1 PUSH2 0x95D JUMP JUMPDEST DUP1 PUSH1 0x1F ADD PUSH1 0x20 DUP1 SWAP2 DIV MUL PUSH1 0x20 ADD PUSH1 0x40 MLOAD SWAP1 DUP2 ADD PUSH1 0x40 MSTORE DUP1 SWAP3 SWAP2 SWAP1 DUP2 DUP2 MSTORE PUSH1 0x20 ADD DUP3 DUP1 SLOAD PUSH2 0x42F SWAP1 PUSH2 0x95D JUMP JUMPDEST DUP1 ISZERO PUSH2 0x47C JUMPI DUP1 PUSH1 0x1F LT PUSH2 0x451 JUMPI PUSH2 0x100 DUP1 DUP4 SLOAD DIV MUL DUP4 MSTORE SWAP2 PUSH1 0x20 ADD SWAP2 PUSH2 0x47C JUMP JUMPDEST DUP3 ADD SWAP2 SWAP1 PUSH1 0x0 MSTORE PUSH1 0x20 PUSH1 0x0 KECCAK256 SWAP1 JUMPDEST DUP2 SLOAD DUP2 MSTORE SWAP1 PUSH1 0x1 ADD SWAP1 PUSH1 0x20 ADD DUP1 DUP4 GT PUSH2 0x45F JUMPI DUP3 SWAP1 SUB PUSH1 0x1F AND DUP3 ADD SWAP2 JUMPDEST POP POP POP POP POP DUP2 MSTORE PUSH1 0x20 ADD PUSH1 0x3 DUP3 ADD PUSH1 0x0 SWAP1 SLOAD SWAP1 PUSH2 0x100 EXP SWAP1 DIV PUSH1 0xFF AND ISZERO ISZERO ISZERO ISZERO DUP2 MSTORE POP POP SWAP1 POP SWAP2 SWAP1 POP JUMP JUMPDEST DUP3 DUP1 SLOAD PUSH2 0x4B3 SWAP1 PUSH2 0x95D JUMP JUMPDEST SWAP1 PUSH1 0x0 MSTORE PUSH1 0x20 PUSH1 0x0 KECCAK256 SWAP1 PUSH1 0x1F ADD PUSH1 0x20 SWAP1 DIV DUP2 ADD SWAP3 DUP3 PUSH2 0x4D5 JUMPI PUSH1 0x0 DUP6 SSTORE PUSH2 0x51C JUMP JUMPDEST DUP3 PUSH1 0x1F LT PUSH2 0x4EE JUMPI DUP1 MLOAD PUSH1 0xFF NOT AND DUP4 DUP1 ADD OR DUP6 SSTORE PUSH2 0x51C JUMP JUMPDEST DUP3 DUP1 ADD PUSH1 0x1 ADD DUP6 SSTORE DUP3 ISZERO PUSH2 0x51C JUMPI SWAP2 DUP3 ADD JUMPDEST DUP3 DUP2 GT ISZERO PUSH2 0x51B JUMPI DUP3 MLOAD DUP3 SSTORE SWAP2 PUSH1 0x20 ADD SWAP2 SWAP1 PUSH1 0x1 ADD SWAP1 PUSH2 0x500 JUMP JUMPDEST JUMPDEST POP SWAP1 POP PUSH2 0x529 SWAP2 SWAP1 PUSH2 0x557 JUMP JUMPDEST POP SWAP1 JUMP JUMPDEST PUSH1 0x40 MLOAD DUP1 PUSH1 0x80 ADD PUSH1 0x40 MSTORE DUP1 PUSH1 0x0 DUP2 MSTORE PUSH1 0x20 ADD PUSH1 0x60 DUP2 MSTORE PUSH1 0x20 ADD PUSH1 0x60 DUP2 MSTORE PUSH1 0x20 ADD PUSH1 0x0 ISZERO ISZERO DUP2 MSTORE POP SWAP1 JUMP JUMPDEST JUMPDEST DUP1 DUP3 GT ISZERO PUSH2 0x570 JUMPI PUSH1 0x0 DUP2 PUSH1 0x0 SWAP1 SSTORE POP PUSH1 0x1 ADD PUSH2 0x558 JUMP JUMPDEST POP SWAP1 JUMP JUMPDEST PUSH1 0x0 PUSH2 0x587 PUSH2 0x582 DUP5 PUSH2 0x8A7 JUMP JUMPDEST PUSH2 0x882 JUMP JUMPDEST SWAP1 POP DUP3 DUP2 MSTORE PUSH1 0x20 DUP2 ADD DUP5 DUP5 DUP5 ADD GT ISZERO PUSH2 0x5A3 JUMPI PUSH2 0x5A2 PUSH2 0xA9B JUMP JUMPDEST JUMPDEST PUSH2 0x5AE DUP5 DUP3 DUP6 PUSH2 0x91B JUMP JUMPDEST POP SWAP4 SWAP3 POP POP POP JUMP JUMPDEST PUSH1 0x0 DUP2 CALLDATALOAD SWAP1 POP PUSH2 0x5C5 DUP2 PUSH2 0xABB JUMP JUMPDEST SWAP3 SWAP2 POP POP JUMP JUMPDEST PUSH1 0x0 DUP3 PUSH1 0x1F DUP4 ADD SLT PUSH2 0x5E0 JUMPI PUSH2 0x5DF PUSH2 0xA96 JUMP JUMPDEST JUMPDEST DUP2 CALLDATALOAD PUSH2 0x5F0 DUP5 DUP3 PUSH1 0x20 DUP7 ADD PUSH2 0x574 JUMP JUMPDEST SWAP2 POP POP SWAP3 SWAP2 POP POP JUMP JUMPDEST PUSH1 0x0 DUP2 CALLDATALOAD SWAP1 POP PUSH2 0x608 DUP2 PUSH2 0xAD2 JUMP JUMPDEST SWAP3 SWAP2 POP POP JUMP JUMPDEST PUSH1 0x0 PUSH1 0x20 DUP3 DUP5 SUB SLT ISZERO PUSH2 0x624 JUMPI PUSH2 0x623 PUSH2 0xAA5 JUMP JUMPDEST JUMPDEST PUSH1 0x0 PUSH2 0x632 DUP5 DUP3 DUP6 ADD PUSH2 0x5F9 JUMP JUMPDEST SWAP2 POP POP SWAP3 SWAP2 POP POP JUMP JUMPDEST PUSH1 0x0 DUP1 PUSH1 0x0 DUP1 PUSH1 0x80 DUP6 DUP8 SUB SLT ISZERO PUSH2 0x655 JUMPI PUSH2 0x654 PUSH2 0xAA5 JUMP JUMPDEST JUMPDEST PUSH1 0x0 PUSH2 0x663 DUP8 DUP3 DUP9 ADD PUSH2 0x5F9 JUMP JUMPDEST SWAP5 POP POP PUSH1 0x20 DUP6 ADD CALLDATALOAD PUSH8 0xFFFFFFFFFFFFFFFF DUP2 GT ISZERO PUSH2 0x684 JUMPI PUSH2 0x683 PUSH2 0xAA0 JUMP JUMPDEST JUMPDEST PUSH2 0x690 DUP8 DUP3 DUP9 ADD PUSH2 0x5CB JUMP JUMPDEST SWAP4 POP POP PUSH1 0x40 DUP6 ADD CALLDATALOAD PUSH8 0xFFFFFFFFFFFFFFFF DUP2 GT ISZERO PUSH2 0x6B1 JUMPI PUSH2 0x6B0 PUSH2 0xAA0 JUMP JUMPDEST JUMPDEST PUSH2 0x6BD DUP8 DUP3 DUP9 ADD PUSH2 0x5CB JUMP JUMPDEST SWAP3 POP POP PUSH1 0x60 PUSH2 0x6CE DUP8 DUP3 DUP9 ADD PUSH2 0x5B6 JUMP JUMPDEST SWAP2 POP POP SWAP3 SWAP6 SWAP2 SWAP5 POP SWAP3 POP JUMP JUMPDEST PUSH2 0x6E3 DUP2 PUSH2 0x905 JUMP JUMPDEST DUP3 MSTORE POP POP JUMP JUMPDEST PUSH2 0x6F2 DUP2 PUSH2 0x905 JUMP JUMPDEST DUP3 MSTORE POP POP JUMP JUMPDEST PUSH1 0x0 PUSH2 0x703 DUP3 PUSH2 0x8D8 JUMP JUMPDEST PUSH2 0x70D DUP2 DUP6 PUSH2 0x8E3 JUMP JUMPDEST SWAP4 POP PUSH2 0x71D DUP2 DUP6 PUSH1 0x20 DUP7 ADD PUSH2 0x92A JUMP JUMPDEST PUSH2 0x726 DUP2 PUSH2 0xAAA JUMP JUMPDEST DUP5 ADD SWAP2 POP POP SWAP3 SWAP2 POP POP JUMP JUMPDEST PUSH1 0x0 PUSH2 0x73C DUP3 PUSH2 0x8D8 JUMP JUMPDEST PUSH2 0x746 DUP2 DUP6 PUSH2 0x8F4 JUMP JUMPDEST SWAP4 POP PUSH2 0x756 DUP2 DUP6 PUSH1 0x20 DUP7 ADD PUSH2 0x92A JUMP JUMPDEST PUSH2 0x75F DUP2 PUSH2 0xAAA JUMP JUMPDEST DUP5 ADD SWAP2 POP POP SWAP3 SWAP2 POP POP JUMP JUMPDEST PUSH1 0x0 PUSH1 0x80 DUP4 ADD PUSH1 0x0 DUP4 ADD MLOAD PUSH2 0x782 PUSH1 0x0 DUP7 ADD DUP3 PUSH2 0x7D4 JUMP JUMPDEST POP PUSH1 0x20 DUP4 ADD MLOAD DUP5 DUP3 SUB PUSH1 0x20 DUP7 ADD MSTORE PUSH2 0x79A DUP3 DUP3 PUSH2 0x6F8 JUMP JUMPDEST SWAP2 POP POP PUSH1 0x40 DUP4 ADD MLOAD DUP5 DUP3 SUB PUSH1 0x40 DUP7 ADD MSTORE PUSH2 0x7B4 DUP3 DUP3 PUSH2 0x6F8 JUMP JUMPDEST SWAP2 POP POP PUSH1 0x60 DUP4 ADD MLOAD PUSH2 0x7C9 PUSH1 0x60 DUP7 ADD DUP3 PUSH2 0x6DA JUMP JUMPDEST POP DUP1 SWAP2 POP POP SWAP3 SWAP2 POP POP JUMP JUMPDEST PUSH2 0x7DD DUP2 PUSH2 0x911 JUMP JUMPDEST DUP3 MSTORE POP POP JUMP JUMPDEST PUSH2 0x7EC DUP2 PUSH2 0x911 JUMP JUMPDEST DUP3 MSTORE POP POP JUMP JUMPDEST PUSH1 0x0 PUSH1 0x20 DUP3 ADD SWAP1 POP DUP2 DUP2 SUB PUSH1 0x0 DUP4 ADD MSTORE PUSH2 0x80C DUP2 DUP5 PUSH2 0x76A JUMP JUMPDEST SWAP1 POP SWAP3 SWAP2 POP POP JUMP JUMPDEST PUSH1 0x0 PUSH1 0x20 DUP3 ADD SWAP1 POP PUSH2 0x829 PUSH1 0x0 DUP4 ADD DUP5 PUSH2 0x7E3 JUMP JUMPDEST SWAP3 SWAP2 POP POP JUMP JUMPDEST PUSH1 0x0 PUSH1 0x80 DUP3 ADD SWAP1 POP PUSH2 0x844 PUSH1 0x0 DUP4 ADD DUP8 PUSH2 0x7E3 JUMP JUMPDEST DUP2 DUP2 SUB PUSH1 0x20 DUP4 ADD MSTORE PUSH2 0x856 DUP2 DUP7 PUSH2 0x731 JUMP JUMPDEST SWAP1 POP DUP2 DUP2 SUB PUSH1 0x40 DUP4 ADD MSTORE PUSH2 0x86A DUP2 DUP6 PUSH2 0x731 JUMP JUMPDEST SWAP1 POP PUSH2 0x879 PUSH1 0x60 DUP4 ADD DUP5 PUSH2 0x6E9 JUMP JUMPDEST SWAP6 SWAP5 POP POP POP POP POP JUMP JUMPDEST PUSH1 0x0 PUSH2 0x88C PUSH2 0x89D JUMP JUMPDEST SWAP1 POP PUSH2 0x898 DUP3 DUP3 PUSH2 0x98F JUMP JUMPDEST SWAP2 SWAP1 POP JUMP JUMPDEST PUSH1 0x0 PUSH1 0x40 MLOAD SWAP1 POP SWAP1 JUMP JUMPDEST PUSH1 0x0 PUSH8 0xFFFFFFFFFFFFFFFF DUP3 GT ISZERO PUSH2 0x8C2 JUMPI PUSH2 0x8C1 PUSH2 0xA67 JUMP JUMPDEST JUMPDEST PUSH2 0x8CB DUP3 PUSH2 0xAAA JUMP JUMPDEST SWAP1 POP PUSH1 0x20 DUP2 ADD SWAP1 POP SWAP2 SWAP1 POP JUMP JUMPDEST PUSH1 0x0 DUP2 MLOAD SWAP1 POP SWAP2 SWAP1 POP JUMP JUMPDEST PUSH1 0x0 DUP3 DUP3 MSTORE PUSH1 0x20 DUP3 ADD SWAP1 POP SWAP3 SWAP2 POP POP JUMP JUMPDEST PUSH1 0x0 DUP3 DUP3 MSTORE PUSH1 0x20 DUP3 ADD SWAP1 POP SWAP3 SWAP2 POP POP JUMP JUMPDEST PUSH1 0x0 DUP2 ISZERO ISZERO SWAP1 POP SWAP2 SWAP1 POP JUMP JUMPDEST PUSH1 0x0 DUP2 SWAP1 POP SWAP2 SWAP1 POP JUMP JUMPDEST DUP3 DUP2 DUP4 CALLDATACOPY PUSH1 0x0 DUP4 DUP4 ADD MSTORE POP POP POP JUMP JUMPDEST PUSH1 0x0 JUMPDEST DUP4 DUP2 LT ISZERO PUSH2 0x948 JUMPI DUP1 DUP3 ADD MLOAD DUP2 DUP5 ADD MSTORE PUSH1 0x20 DUP2 ADD SWAP1 POP PUSH2 0x92D JUMP JUMPDEST DUP4 DUP2 GT ISZERO PUSH2 0x957 JUMPI PUSH1 0x0 DUP5 DUP5 ADD MSTORE JUMPDEST POP POP POP POP JUMP JUMPDEST PUSH1 0x0 PUSH1 0x2 DUP3 DIV SWAP1 POP PUSH1 0x1 DUP3 AND DUP1 PUSH2 0x975 JUMPI PUSH1 0x7F DUP3 AND SWAP2 POP JUMPDEST PUSH1 0x20 DUP3 LT DUP2 EQ ISZERO PUSH2 0x989 JUMPI PUSH2 0x988 PUSH2 0xA38 JUMP JUMPDEST JUMPDEST POP SWAP2 SWAP1 POP JUMP JUMPDEST PUSH2 0x998 DUP3 PUSH2 0xAAA JUMP JUMPDEST DUP2 ADD DUP2 DUP2 LT PUSH8 0xFFFFFFFFFFFFFFFF DUP3 GT OR ISZERO PUSH2 0x9B7 JUMPI PUSH2 0x9B6 PUSH2 0xA67 JUMP JUMPDEST JUMPDEST DUP1 PUSH1 0x40 MSTORE POP POP POP JUMP JUMPDEST PUSH1 0x0 PUSH2 0x9CB DUP3 PUSH2 0x911 JUMP JUMPDEST SWAP2 POP PUSH32 0xFFFFFFFFFFFFFFFFFFFFFFFFFFFFFFFFFFFFFFFFFFFFFFFFFFFFFFFFFFFFFFFF DUP3 EQ ISZERO PUSH2 0x9FE JUMPI PUSH2 0x9FD PUSH2 0xA09 JUMP JUMPDEST JUMPDEST PUSH1 0x1 DUP3 ADD SWAP1 POP SWAP2 SWAP1 POP JUMP JUMPDEST PUSH32 0x4E487B7100000000000000000000000000000000000000000000000000000000 PUSH1 0x0 MSTORE PUSH1 0x11 PUSH1 0x4 MSTORE PUSH1 0x24 PUSH1 0x0 REVERT JUMPDEST PUSH32 0x4E487B7100000000000000000000000000000000000000000000000000000000 PUSH1 0x0 MSTORE PUSH1 0x22 PUSH1 0x4 MSTORE PUSH1 0x24 PUSH1 0x0 REVERT JUMPDEST PUSH32 0x4E487B7100000000000000000000000000000000000000000000000000000000 PUSH1 0x0 MSTORE PUSH1 0x41 PUSH1 0x4 MSTORE PUSH1 0x24 PUSH1 0x0 REVERT JUMPDEST PUSH1 0x0 DUP1 REVERT JUMPDEST PUSH1 0x0 DUP1 REVERT JUMPDEST PUSH1 0x0 DUP1 REVERT JUMPDEST PUSH1 0x0 DUP1 REVERT JUMPDEST PUSH1 0x0 PUSH1 0x1F NOT PUSH1 0x1F DUP4 ADD AND SWAP1 POP SWAP2 SWAP1 POP JUMP JUMPDEST PUSH2 0xAC4 DUP2 PUSH2 0x905 JUMP JUMPDEST DUP2 EQ PUSH2 0xACF JUMPI PUSH1 0x0 DUP1 REVERT JUMPDEST POP JUMP JUMPDEST PUSH2 0xADB DUP2 PUSH2 0x911 JUMP JUMPDEST DUP2 EQ PUSH2 0xAE6 JUMPI PUSH1 0x0 DUP1 REVERT JUMPDEST POP JUMP INVALID LOG2 PUSH5 0x6970667358 0x22 SLT KECCAK256 0xC6 PUSH16 0xE5761FAC3682EC67756E9E63EA7BB8CC 0xE0 BASEFEE PUSH14 0xFEE4571410093044DCAF2964736F PUSH13 0x63430008070033000000000000 "
				},
				"gasEstimates": {
					"creation": {
						"codeDepositCost": "569400",
						"executionCost": "24866",
						"totalCost": "594266"
					},
					"external": {
						"addTodo(uint256,string,string,bool)": "infinite",
						"counter()": "2429",
						"getAmount()": "2481",
						"getTodo(uint256)": "infinite",
						"todos(uint256)": "infinite"
					}
				},
				"methodIdentifiers": {
					"addTodo(uint256,string,string,bool)": "3b04d05b",
					"counter()": "61bc221a",
					"getAmount()": "d321fe29",
					"getTodo(uint256)": "dd68afb6",
					"todos(uint256)": "bc8bc2b4"
				}
			},
			"storageLayout": {
				"storage": [
					{
						"astId": 5,
						"contract": "ToDoApp.sol:ToDoApp",
						"label": "owner",
						"offset": 0,
						"slot": "0",
						"type": "t_address"
					},
					{
						"astId": 7,
						"contract": "ToDoApp.sol:ToDoApp",
						"label": "counter",
						"offset": 0,
						"slot": "1",
						"type": "t_uint256"
					},
					{
						"astId": 22,
						"contract": "ToDoApp.sol:ToDoApp",
						"label": "todos",
						"offset": 0,
						"slot": "2",
						"type": "t_mapping(t_uint256,t_struct(ToDo)16_storage)"
					}
				],
				"types": {
					"t_address": {
						"encoding": "inplace",
						"label": "address",
						"numberOfBytes": "20"
					},
					"t_bool": {
						"encoding": "inplace",
						"label": "bool",
						"numberOfBytes": "1"
					},
					"t_mapping(t_uint256,t_struct(ToDo)16_storage)": {
						"encoding": "mapping",
						"key": "t_uint256",
						"label": "mapping(uint256 => struct ToDoApp.ToDo)",
						"numberOfBytes": "32",
						"value": "t_struct(ToDo)16_storage"
					},
					"t_string_storage": {
						"encoding": "bytes",
						"label": "string",
						"numberOfBytes": "32"
					},
					"t_struct(ToDo)16_storage": {
						"encoding": "inplace",
						"label": "struct ToDoApp.ToDo",
						"members": [
							{
								"astId": 9,
								"contract": "ToDoApp.sol:ToDoApp",
								"label": "id",
								"offset": 0,
								"slot": "0",
								"type": "t_uint256"
							},
							{
								"astId": 11,
								"contract": "ToDoApp.sol:ToDoApp",
								"label": "name",
								"offset": 0,
								"slot": "1",
								"type": "t_string_storage"
							},
							{
								"astId": 13,
								"contract": "ToDoApp.sol:ToDoApp",
								"label": "content",
								"offset": 0,
								"slot": "2",
								"type": "t_string_storage"
							},
							{
								"astId": 15,
								"contract": "ToDoApp.sol:ToDoApp",
								"label": "status",
								"offset": 0,
								"slot": "3",
								"type": "t_bool"
							}
						],
						"numberOfBytes": "128"
					},
					"t_uint256": {
						"encoding": "inplace",
						"label": "uint256",
						"numberOfBytes": "32"
					}
				}
			},
			"userdoc": {
				"kind": "user",
				"methods": {
					"addTodo(uint256,string,string,bool)": {
						"notice": "Add new todo"
					},
					"constructor": {
						"notice": "Constructor"
					},
					"getAmount()": {
						"notice": "Get amount of todos"
					},
					"getTodo(uint256)": {
						"notice": "Get todo"
					},
					"todos(uint256)": {
						"notice": "Mappings"
					}
				},
				"notice": "A simple ToDo smart contract app",
				"version": 1
			}
		}
	}
}