{
	"ToDoApp.sol": {
		"ToDoApp": {
			"abi": [
				{
					"inputs": [],
					"stateMutability": "nonpayable",
					"type": "constructor"
				},
				{
					"inputs": [
						{
							"internalType": "string",
							"name": "name",
							"type": "string"
						},
						{
							"internalType": "string",
							"name": "content",
							"type": "string"
						}
					],
					"name": "addTodo",
					"outputs": [],
					"stateMutability": "nonpayable",
					"type": "function"
				},
				{
					"inputs": [
						{
							"internalType": "address",
							"name": "",
							"type": "address"
						}
					],
					"name": "counter",
					"outputs": [
						{
							"internalType": "uint256",
							"name": "",
							"type": "uint256"
						}
					],
					"stateMutability": "view",
					"type": "function"
				},
				{
					"inputs": [],
					"name": "getAmount",
					"outputs": [
						{
							"internalType": "uint256",
							"name": "",
							"type": "uint256"
						}
					],
					"stateMutability": "view",
					"type": "function"
				},
				{
					"inputs": [
						{
							"internalType": "address",
							"name": "",
							"type": "address"
						},
						{
							"internalType": "uint256",
							"name": "",
							"type": "uint256"
						},
						{
							"internalType": "uint256",
							"name": "",
							"type": "uint256"
						}
					],
					"name": "todos",
					"outputs": [
						{
							"internalType": "uint256",
							"name": "id",
							"type": "uint256"
						},
						{
							"internalType": "string",
							"name": "name",
							"type": "string"
						},
						{
							"internalType": "string",
							"name": "content",
							"type": "string"
						},
						{
							"internalType": "bool",
							"name": "status",
							"type": "bool"
						}
					],
					"stateMutability": "view",
					"type": "function"
				}
			],
			"devdoc": {
				"kind": "dev",
				"methods": {},
				"version": 1
			},
			"evm": {
				"assembly": "    /* \"ToDoApp.sol\":120:2523  contract ToDoApp {... */\n  mstore(0x40, 0x80)\n    /* \"ToDoApp.sol\":506:522  constructor() {} */\n  callvalue\n  dup1\n  iszero\n  tag_1\n  jumpi\n  0x00\n  dup1\n  revert\ntag_1:\n  pop\n    /* \"ToDoApp.sol\":120:2523  contract ToDoApp {... */\n  dataSize(sub_0)\n  dup1\n  dataOffset(sub_0)\n  0x00\n  codecopy\n  0x00\n  return\nstop\n\nsub_0: assembly {\n        /* \"ToDoApp.sol\":120:2523  contract ToDoApp {... */\n      mstore(0x40, 0x80)\n      callvalue\n      dup1\n      iszero\n      tag_1\n      jumpi\n      0x00\n      dup1\n      revert\n    tag_1:\n      pop\n      jumpi(tag_2, lt(calldatasize, 0x04))\n      shr(0xe0, calldataload(0x00))\n      dup1\n      0x1b7fb260\n      eq\n      tag_3\n      jumpi\n      dup1\n      0x97292ce5\n      eq\n      tag_4\n      jumpi\n      dup1\n      0xc12327b8\n      eq\n      tag_5\n      jumpi\n      dup1\n      0xd321fe29\n      eq\n      tag_6\n      jumpi\n    tag_2:\n      0x00\n      dup1\n      revert\n        /* \"ToDoApp.sol\":819:1237  function addTodo(string memory name, string memory content) public {... */\n    tag_3:\n      tag_7\n      0x04\n      dup1\n      calldatasize\n      sub\n      dup2\n      add\n      swap1\n      tag_8\n      swap2\n      swap1\n      tag_9\n      jump\t// in\n    tag_8:\n      tag_10\n      jump\t// in\n    tag_7:\n      stop\n        /* \"ToDoApp.sol\":359:415  mapping(address => mapping(uint => ToDo[])) public todos */\n    tag_4:\n      tag_11\n      0x04\n      dup1\n      calldatasize\n      sub\n      dup2\n      add\n      swap1\n      tag_12\n      swap2\n      swap1\n      tag_13\n      jump\t// in\n    tag_12:\n      tag_14\n      jump\t// in\n    tag_11:\n      mload(0x40)\n      tag_15\n      swap5\n      swap4\n      swap3\n      swap2\n      swap1\n      tag_16\n      jump\t// in\n    tag_15:\n      mload(0x40)\n      dup1\n      swap2\n      sub\n      swap1\n      return\n        /* \"ToDoApp.sol\":421:463  mapping(address => uint256) public counter */\n    tag_5:\n      tag_17\n      0x04\n      dup1\n      calldatasize\n      sub\n      dup2\n      add\n      swap1\n      tag_18\n      swap2\n      swap1\n      tag_19\n      jump\t// in\n    tag_18:\n      tag_20\n      jump\t// in\n    tag_17:\n      mload(0x40)\n      tag_21\n      swap2\n      swap1\n      tag_22\n      jump\t// in\n    tag_21:\n      mload(0x40)\n      dup1\n      swap2\n      sub\n      swap1\n      return\n        /* \"ToDoApp.sol\":1943:2032  function getAmount() view public returns(uint){... */\n    tag_6:\n      tag_23\n      tag_24\n      jump\t// in\n    tag_23:\n      mload(0x40)\n      tag_25\n      swap2\n      swap1\n      tag_22\n      jump\t// in\n    tag_25:\n      mload(0x40)\n      dup1\n      swap2\n      sub\n      swap1\n      return\n        /* \"ToDoApp.sol\":819:1237  function addTodo(string memory name, string memory content) public {... */\n    tag_10:\n        /* \"ToDoApp.sol\":932:939  counter */\n      0x01\n        /* \"ToDoApp.sol\":932:951  counter[msg.sender] */\n      0x00\n        /* \"ToDoApp.sol\":940:950  msg.sender */\n      caller\n        /* \"ToDoApp.sol\":932:951  counter[msg.sender] */\n      0xffffffffffffffffffffffffffffffffffffffff\n      and\n      0xffffffffffffffffffffffffffffffffffffffff\n      and\n      dup2\n      mstore\n      0x20\n      add\n      swap1\n      dup2\n      mstore\n      0x20\n      add\n      0x00\n      keccak256\n      0x00\n        /* \"ToDoApp.sol\":932:953  counter[msg.sender]++ */\n      dup2\n      sload\n      dup1\n      swap3\n      swap2\n      swap1\n      tag_27\n      swap1\n      tag_28\n      jump\t// in\n    tag_27:\n      swap2\n      swap1\n      pop\n      sstore\n      pop\n        /* \"ToDoApp.sol\":1006:1011  todos */\n      0x00\n        /* \"ToDoApp.sol\":1006:1023  todos[msg.sender] */\n      dup1\n        /* \"ToDoApp.sol\":1012:1022  msg.sender */\n      caller\n        /* \"ToDoApp.sol\":1006:1023  todos[msg.sender] */\n      0xffffffffffffffffffffffffffffffffffffffff\n      and\n      0xffffffffffffffffffffffffffffffffffffffff\n      and\n      dup2\n      mstore\n      0x20\n      add\n      swap1\n      dup2\n      mstore\n      0x20\n      add\n      0x00\n      keccak256\n        /* \"ToDoApp.sol\":1006:1044  todos[msg.sender][counter[msg.sender]] */\n      0x00\n        /* \"ToDoApp.sol\":1024:1031  counter */\n      0x01\n        /* \"ToDoApp.sol\":1024:1043  counter[msg.sender] */\n      0x00\n        /* \"ToDoApp.sol\":1032:1042  msg.sender */\n      caller\n        /* \"ToDoApp.sol\":1024:1043  counter[msg.sender] */\n      0xffffffffffffffffffffffffffffffffffffffff\n      and\n      0xffffffffffffffffffffffffffffffffffffffff\n      and\n      dup2\n      mstore\n      0x20\n      add\n      swap1\n      dup2\n      mstore\n      0x20\n      add\n      0x00\n      keccak256\n      sload\n        /* \"ToDoApp.sol\":1006:1044  todos[msg.sender][counter[msg.sender]] */\n      dup2\n      mstore\n      0x20\n      add\n      swap1\n      dup2\n      mstore\n      0x20\n      add\n      0x00\n      keccak256\n        /* \"ToDoApp.sol\":1063:1220  ToDo({... */\n      mload(0x40)\n      dup1\n      0x80\n      add\n      0x40\n      mstore\n      dup1\n        /* \"ToDoApp.sol\":1090:1097  counter */\n      0x01\n        /* \"ToDoApp.sol\":1090:1109  counter[msg.sender] */\n      0x00\n        /* \"ToDoApp.sol\":1098:1108  msg.sender */\n      caller\n        /* \"ToDoApp.sol\":1090:1109  counter[msg.sender] */\n      0xffffffffffffffffffffffffffffffffffffffff\n      and\n      0xffffffffffffffffffffffffffffffffffffffff\n      and\n      dup2\n      mstore\n      0x20\n      add\n      swap1\n      dup2\n      mstore\n      0x20\n      add\n      0x00\n      keccak256\n      sload\n        /* \"ToDoApp.sol\":1063:1220  ToDo({... */\n      dup2\n      mstore\n      0x20\n      add\n        /* \"ToDoApp.sol\":1134:1138  name */\n      dup5\n        /* \"ToDoApp.sol\":1063:1220  ToDo({... */\n      dup2\n      mstore\n      0x20\n      add\n        /* \"ToDoApp.sol\":1166:1173  content */\n      dup4\n        /* \"ToDoApp.sol\":1063:1220  ToDo({... */\n      dup2\n      mstore\n      0x20\n      add\n        /* \"ToDoApp.sol\":1200:1205  false */\n      0x00\n        /* \"ToDoApp.sol\":1063:1220  ToDo({... */\n      iszero\n      iszero\n      dup2\n      mstore\n      pop\n        /* \"ToDoApp.sol\":1006:1230  todos[msg.sender][counter[msg.sender]].push(... */\n      swap1\n      dup1\n      0x01\n      dup2\n      sload\n      add\n      dup1\n      dup3\n      sstore\n      dup1\n      swap2\n      pop\n      pop\n      0x01\n      swap1\n      sub\n      swap1\n      0x00\n      mstore\n      keccak256(0x00, 0x20)\n      swap1\n      0x04\n      mul\n      add\n      0x00\n      swap1\n      swap2\n      swap1\n      swap2\n      swap1\n      swap2\n      pop\n      0x00\n      dup3\n      add\n      mload\n      dup2\n      0x00\n      add\n      sstore\n      0x20\n      dup3\n      add\n      mload\n      dup2\n      0x01\n      add\n      swap1\n      dup1\n      mload\n      swap1\n      0x20\n      add\n      swap1\n      tag_30\n      swap3\n      swap2\n      swap1\n      tag_31\n      jump\t// in\n    tag_30:\n      pop\n      0x40\n      dup3\n      add\n      mload\n      dup2\n      0x02\n      add\n      swap1\n      dup1\n      mload\n      swap1\n      0x20\n      add\n      swap1\n      tag_32\n      swap3\n      swap2\n      swap1\n      tag_31\n      jump\t// in\n    tag_32:\n      pop\n      0x60\n      dup3\n      add\n      mload\n      dup2\n      0x03\n      add\n      exp(0x0100, 0x00)\n      dup2\n      sload\n      dup2\n      0xff\n      mul\n      not\n      and\n      swap1\n      dup4\n      iszero\n      iszero\n      mul\n      or\n      swap1\n      sstore\n      pop\n      pop\n      pop\n        /* \"ToDoApp.sol\":819:1237  function addTodo(string memory name, string memory content) public {... */\n      pop\n      pop\n      jump\t// out\n        /* \"ToDoApp.sol\":359:415  mapping(address => mapping(uint => ToDo[])) public todos */\n    tag_14:\n      mstore(0x20, 0x00)\n      dup3\n      0x00\n      mstore\n      mstore(0x20, keccak256(0x00, 0x40))\n      dup2\n      0x00\n      mstore\n      keccak256(0x00, 0x40)\n      dup2\n      dup2\n      sload\n      dup2\n      lt\n      tag_33\n      jumpi\n      0x00\n      dup1\n      revert\n    tag_33:\n      swap1\n      0x00\n      mstore\n      keccak256(0x00, 0x20)\n      swap1\n      0x04\n      mul\n      add\n      0x00\n      swap3\n      pop\n      swap3\n      pop\n      pop\n      pop\n      dup1\n      0x00\n      add\n      sload\n      swap1\n      dup1\n      0x01\n      add\n      dup1\n      sload\n      tag_35\n      swap1\n      tag_36\n      jump\t// in\n    tag_35:\n      dup1\n      0x1f\n      add\n      0x20\n      dup1\n      swap2\n      div\n      mul\n      0x20\n      add\n      mload(0x40)\n      swap1\n      dup2\n      add\n      0x40\n      mstore\n      dup1\n      swap3\n      swap2\n      swap1\n      dup2\n      dup2\n      mstore\n      0x20\n      add\n      dup3\n      dup1\n      sload\n      tag_37\n      swap1\n      tag_36\n      jump\t// in\n    tag_37:\n      dup1\n      iszero\n      tag_38\n      jumpi\n      dup1\n      0x1f\n      lt\n      tag_39\n      jumpi\n      0x0100\n      dup1\n      dup4\n      sload\n      div\n      mul\n      dup4\n      mstore\n      swap2\n      0x20\n      add\n      swap2\n      jump(tag_38)\n    tag_39:\n      dup3\n      add\n      swap2\n      swap1\n      0x00\n      mstore\n      keccak256(0x00, 0x20)\n      swap1\n    tag_40:\n      dup2\n      sload\n      dup2\n      mstore\n      swap1\n      0x01\n      add\n      swap1\n      0x20\n      add\n      dup1\n      dup4\n      gt\n      tag_40\n      jumpi\n      dup3\n      swap1\n      sub\n      0x1f\n      and\n      dup3\n      add\n      swap2\n    tag_38:\n      pop\n      pop\n      pop\n      pop\n      pop\n      swap1\n      dup1\n      0x02\n      add\n      dup1\n      sload\n      tag_41\n      swap1\n      tag_36\n      jump\t// in\n    tag_41:\n      dup1\n      0x1f\n      add\n      0x20\n      dup1\n      swap2\n      div\n      mul\n      0x20\n      add\n      mload(0x40)\n      swap1\n      dup2\n      add\n      0x40\n      mstore\n      dup1\n      swap3\n      swap2\n      swap1\n      dup2\n      dup2\n      mstore\n      0x20\n      add\n      dup3\n      dup1\n      sload\n      tag_42\n      swap1\n      tag_36\n      jump\t// in\n    tag_42:\n      dup1\n      iszero\n      tag_43\n      jumpi\n      dup1\n      0x1f\n      lt\n      tag_44\n      jumpi\n      0x0100\n      dup1\n      dup4\n      sload\n      div\n      mul\n      dup4\n      mstore\n      swap2\n      0x20\n      add\n      swap2\n      jump(tag_43)\n    tag_44:\n      dup3\n      add\n      swap2\n      swap1\n      0x00\n      mstore\n      keccak256(0x00, 0x20)\n      swap1\n    tag_45:\n      dup2\n      sload\n      dup2\n      mstore\n      swap1\n      0x01\n      add\n      swap1\n      0x20\n      add\n      dup1\n      dup4\n      gt\n      tag_45\n      jumpi\n      dup3\n      swap1\n      sub\n      0x1f\n      and\n      dup3\n      add\n      swap2\n    tag_43:\n      pop\n      pop\n      pop\n      pop\n      pop\n      swap1\n      dup1\n      0x03\n      add\n      0x00\n      swap1\n      sload\n      swap1\n      0x0100\n      exp\n      swap1\n      div\n      0xff\n      and\n      swap1\n      pop\n      dup5\n      jump\t// out\n        /* \"ToDoApp.sol\":421:463  mapping(address => uint256) public counter */\n    tag_20:\n      mstore(0x20, 0x01)\n      dup1\n      0x00\n      mstore\n      keccak256(0x00, 0x40)\n      0x00\n      swap2\n      pop\n      swap1\n      pop\n      sload\n      dup2\n      jump\t// out\n        /* \"ToDoApp.sol\":1943:2032  function getAmount() view public returns(uint){... */\n    tag_24:\n        /* \"ToDoApp.sol\":1984:1988  uint */\n      0x00\n        /* \"ToDoApp.sol\":2006:2013  counter */\n      0x01\n        /* \"ToDoApp.sol\":2006:2025  counter[msg.sender] */\n      0x00\n        /* \"ToDoApp.sol\":2014:2024  msg.sender */\n      caller\n        /* \"ToDoApp.sol\":2006:2025  counter[msg.sender] */\n      0xffffffffffffffffffffffffffffffffffffffff\n      and\n      0xffffffffffffffffffffffffffffffffffffffff\n      and\n      dup2\n      mstore\n      0x20\n      add\n      swap1\n      dup2\n      mstore\n      0x20\n      add\n      0x00\n      keccak256\n      sload\n        /* \"ToDoApp.sol\":1999:2025  return counter[msg.sender] */\n      swap1\n      pop\n        /* \"ToDoApp.sol\":1943:2032  function getAmount() view public returns(uint){... */\n      swap1\n      jump\t// out\n    tag_31:\n      dup3\n      dup1\n      sload\n      tag_47\n      swap1\n      tag_36\n      jump\t// in\n    tag_47:\n      swap1\n      0x00\n      mstore\n      keccak256(0x00, 0x20)\n      swap1\n      0x1f\n      add\n      0x20\n      swap1\n      div\n      dup2\n      add\n      swap3\n      dup3\n      tag_49\n      jumpi\n      0x00\n      dup6\n      sstore\n      jump(tag_48)\n    tag_49:\n      dup3\n      0x1f\n      lt\n      tag_50\n      jumpi\n      dup1\n      mload\n      not(0xff)\n      and\n      dup4\n      dup1\n      add\n      or\n      dup6\n      sstore\n      jump(tag_48)\n    tag_50:\n      dup3\n      dup1\n      add\n      0x01\n      add\n      dup6\n      sstore\n      dup3\n      iszero\n      tag_48\n      jumpi\n      swap2\n      dup3\n      add\n    tag_51:\n      dup3\n      dup2\n      gt\n      iszero\n      tag_52\n      jumpi\n      dup3\n      mload\n      dup3\n      sstore\n      swap2\n      0x20\n      add\n      swap2\n      swap1\n      0x01\n      add\n      swap1\n      jump(tag_51)\n    tag_52:\n    tag_48:\n      pop\n      swap1\n      pop\n      tag_53\n      swap2\n      swap1\n      tag_54\n      jump\t// in\n    tag_53:\n      pop\n      swap1\n      jump\t// out\n    tag_54:\n    tag_55:\n      dup1\n      dup3\n      gt\n      iszero\n      tag_56\n      jumpi\n      0x00\n      dup2\n      0x00\n      swap1\n      sstore\n      pop\n      0x01\n      add\n      jump(tag_55)\n    tag_56:\n      pop\n      swap1\n      jump\t// out\n        /* \"#utility.yul\":7:419   */\n    tag_58:\n        /* \"#utility.yul\":85:90   */\n      0x00\n        /* \"#utility.yul\":110:176   */\n      tag_60\n        /* \"#utility.yul\":126:175   */\n      tag_61\n        /* \"#utility.yul\":168:174   */\n      dup5\n        /* \"#utility.yul\":126:175   */\n      tag_62\n      jump\t// in\n    tag_61:\n        /* \"#utility.yul\":110:176   */\n      tag_63\n      jump\t// in\n    tag_60:\n        /* \"#utility.yul\":101:176   */\n      swap1\n      pop\n        /* \"#utility.yul\":199:205   */\n      dup3\n        /* \"#utility.yul\":192:197   */\n      dup2\n        /* \"#utility.yul\":185:206   */\n      mstore\n        /* \"#utility.yul\":237:241   */\n      0x20\n        /* \"#utility.yul\":230:235   */\n      dup2\n        /* \"#utility.yul\":226:242   */\n      add\n        /* \"#utility.yul\":275:278   */\n      dup5\n        /* \"#utility.yul\":266:272   */\n      dup5\n        /* \"#utility.yul\":261:264   */\n      dup5\n        /* \"#utility.yul\":257:273   */\n      add\n        /* \"#utility.yul\":254:279   */\n      gt\n        /* \"#utility.yul\":251:363   */\n      iszero\n      tag_64\n      jumpi\n        /* \"#utility.yul\":282:361   */\n      tag_65\n      tag_66\n      jump\t// in\n    tag_65:\n        /* \"#utility.yul\":251:363   */\n    tag_64:\n        /* \"#utility.yul\":372:413   */\n      tag_67\n        /* \"#utility.yul\":406:412   */\n      dup5\n        /* \"#utility.yul\":401:404   */\n      dup3\n        /* \"#utility.yul\":396:399   */\n      dup6\n        /* \"#utility.yul\":372:413   */\n      tag_68\n      jump\t// in\n    tag_67:\n        /* \"#utility.yul\":91:419   */\n      pop\n        /* \"#utility.yul\":7:419   */\n      swap4\n      swap3\n      pop\n      pop\n      pop\n      jump\t// out\n        /* \"#utility.yul\":425:564   */\n    tag_69:\n        /* \"#utility.yul\":471:476   */\n      0x00\n        /* \"#utility.yul\":509:515   */\n      dup2\n        /* \"#utility.yul\":496:516   */\n      calldataload\n        /* \"#utility.yul\":487:516   */\n      swap1\n      pop\n        /* \"#utility.yul\":525:558   */\n      tag_71\n        /* \"#utility.yul\":552:557   */\n      dup2\n        /* \"#utility.yul\":525:558   */\n      tag_72\n      jump\t// in\n    tag_71:\n        /* \"#utility.yul\":425:564   */\n      swap3\n      swap2\n      pop\n      pop\n      jump\t// out\n        /* \"#utility.yul\":584:924   */\n    tag_73:\n        /* \"#utility.yul\":640:645   */\n      0x00\n        /* \"#utility.yul\":689:692   */\n      dup3\n        /* \"#utility.yul\":682:686   */\n      0x1f\n        /* \"#utility.yul\":674:680   */\n      dup4\n        /* \"#utility.yul\":670:687   */\n      add\n        /* \"#utility.yul\":666:693   */\n      slt\n        /* \"#utility.yul\":656:778   */\n      tag_75\n      jumpi\n        /* \"#utility.yul\":697:776   */\n      tag_76\n      tag_77\n      jump\t// in\n    tag_76:\n        /* \"#utility.yul\":656:778   */\n    tag_75:\n        /* \"#utility.yul\":814:820   */\n      dup2\n        /* \"#utility.yul\":801:821   */\n      calldataload\n        /* \"#utility.yul\":839:918   */\n      tag_78\n        /* \"#utility.yul\":914:917   */\n      dup5\n        /* \"#utility.yul\":906:912   */\n      dup3\n        /* \"#utility.yul\":899:903   */\n      0x20\n        /* \"#utility.yul\":891:897   */\n      dup7\n        /* \"#utility.yul\":887:904   */\n      add\n        /* \"#utility.yul\":839:918   */\n      tag_58\n      jump\t// in\n    tag_78:\n        /* \"#utility.yul\":830:918   */\n      swap2\n      pop\n        /* \"#utility.yul\":646:924   */\n      pop\n        /* \"#utility.yul\":584:924   */\n      swap3\n      swap2\n      pop\n      pop\n      jump\t// out\n        /* \"#utility.yul\":930:1069   */\n    tag_79:\n        /* \"#utility.yul\":976:981   */\n      0x00\n        /* \"#utility.yul\":1014:1020   */\n      dup2\n        /* \"#utility.yul\":1001:1021   */\n      calldataload\n        /* \"#utility.yul\":992:1021   */\n      swap1\n      pop\n        /* \"#utility.yul\":1030:1063   */\n      tag_81\n        /* \"#utility.yul\":1057:1062   */\n      dup2\n        /* \"#utility.yul\":1030:1063   */\n      tag_82\n      jump\t// in\n    tag_81:\n        /* \"#utility.yul\":930:1069   */\n      swap3\n      swap2\n      pop\n      pop\n      jump\t// out\n        /* \"#utility.yul\":1075:1404   */\n    tag_19:\n        /* \"#utility.yul\":1134:1140   */\n      0x00\n        /* \"#utility.yul\":1183:1185   */\n      0x20\n        /* \"#utility.yul\":1171:1180   */\n      dup3\n        /* \"#utility.yul\":1162:1169   */\n      dup5\n        /* \"#utility.yul\":1158:1181   */\n      sub\n        /* \"#utility.yul\":1154:1186   */\n      slt\n        /* \"#utility.yul\":1151:1270   */\n      iszero\n      tag_84\n      jumpi\n        /* \"#utility.yul\":1189:1268   */\n      tag_85\n      tag_86\n      jump\t// in\n    tag_85:\n        /* \"#utility.yul\":1151:1270   */\n    tag_84:\n        /* \"#utility.yul\":1309:1310   */\n      0x00\n        /* \"#utility.yul\":1334:1387   */\n      tag_87\n        /* \"#utility.yul\":1379:1386   */\n      dup5\n        /* \"#utility.yul\":1370:1376   */\n      dup3\n        /* \"#utility.yul\":1359:1368   */\n      dup6\n        /* \"#utility.yul\":1355:1377   */\n      add\n        /* \"#utility.yul\":1334:1387   */\n      tag_69\n      jump\t// in\n    tag_87:\n        /* \"#utility.yul\":1324:1387   */\n      swap2\n      pop\n        /* \"#utility.yul\":1280:1397   */\n      pop\n        /* \"#utility.yul\":1075:1404   */\n      swap3\n      swap2\n      pop\n      pop\n      jump\t// out\n        /* \"#utility.yul\":1410:2029   */\n    tag_13:\n        /* \"#utility.yul\":1487:1493   */\n      0x00\n        /* \"#utility.yul\":1495:1501   */\n      dup1\n        /* \"#utility.yul\":1503:1509   */\n      0x00\n        /* \"#utility.yul\":1552:1554   */\n      0x60\n        /* \"#utility.yul\":1540:1549   */\n      dup5\n        /* \"#utility.yul\":1531:1538   */\n      dup7\n        /* \"#utility.yul\":1527:1550   */\n      sub\n        /* \"#utility.yul\":1523:1555   */\n      slt\n        /* \"#utility.yul\":1520:1639   */\n      iszero\n      tag_89\n      jumpi\n        /* \"#utility.yul\":1558:1637   */\n      tag_90\n      tag_86\n      jump\t// in\n    tag_90:\n        /* \"#utility.yul\":1520:1639   */\n    tag_89:\n        /* \"#utility.yul\":1678:1679   */\n      0x00\n        /* \"#utility.yul\":1703:1756   */\n      tag_91\n        /* \"#utility.yul\":1748:1755   */\n      dup7\n        /* \"#utility.yul\":1739:1745   */\n      dup3\n        /* \"#utility.yul\":1728:1737   */\n      dup8\n        /* \"#utility.yul\":1724:1746   */\n      add\n        /* \"#utility.yul\":1703:1756   */\n      tag_69\n      jump\t// in\n    tag_91:\n        /* \"#utility.yul\":1693:1756   */\n      swap4\n      pop\n        /* \"#utility.yul\":1649:1766   */\n      pop\n        /* \"#utility.yul\":1805:1807   */\n      0x20\n        /* \"#utility.yul\":1831:1884   */\n      tag_92\n        /* \"#utility.yul\":1876:1883   */\n      dup7\n        /* \"#utility.yul\":1867:1873   */\n      dup3\n        /* \"#utility.yul\":1856:1865   */\n      dup8\n        /* \"#utility.yul\":1852:1874   */\n      add\n        /* \"#utility.yul\":1831:1884   */\n      tag_79\n      jump\t// in\n    tag_92:\n        /* \"#utility.yul\":1821:1884   */\n      swap3\n      pop\n        /* \"#utility.yul\":1776:1894   */\n      pop\n        /* \"#utility.yul\":1933:1935   */\n      0x40\n        /* \"#utility.yul\":1959:2012   */\n      tag_93\n        /* \"#utility.yul\":2004:2011   */\n      dup7\n        /* \"#utility.yul\":1995:2001   */\n      dup3\n        /* \"#utility.yul\":1984:1993   */\n      dup8\n        /* \"#utility.yul\":1980:2002   */\n      add\n        /* \"#utility.yul\":1959:2012   */\n      tag_79\n      jump\t// in\n    tag_93:\n        /* \"#utility.yul\":1949:2012   */\n      swap2\n      pop\n        /* \"#utility.yul\":1904:2022   */\n      pop\n        /* \"#utility.yul\":1410:2029   */\n      swap3\n      pop\n      swap3\n      pop\n      swap3\n      jump\t// out\n        /* \"#utility.yul\":2035:2869   */\n    tag_9:\n        /* \"#utility.yul\":2123:2129   */\n      0x00\n        /* \"#utility.yul\":2131:2137   */\n      dup1\n        /* \"#utility.yul\":2180:2182   */\n      0x40\n        /* \"#utility.yul\":2168:2177   */\n      dup4\n        /* \"#utility.yul\":2159:2166   */\n      dup6\n        /* \"#utility.yul\":2155:2178   */\n      sub\n        /* \"#utility.yul\":2151:2183   */\n      slt\n        /* \"#utility.yul\":2148:2267   */\n      iszero\n      tag_95\n      jumpi\n        /* \"#utility.yul\":2186:2265   */\n      tag_96\n      tag_86\n      jump\t// in\n    tag_96:\n        /* \"#utility.yul\":2148:2267   */\n    tag_95:\n        /* \"#utility.yul\":2334:2335   */\n      0x00\n        /* \"#utility.yul\":2323:2332   */\n      dup4\n        /* \"#utility.yul\":2319:2336   */\n      add\n        /* \"#utility.yul\":2306:2337   */\n      calldataload\n        /* \"#utility.yul\":2364:2382   */\n      0xffffffffffffffff\n        /* \"#utility.yul\":2356:2362   */\n      dup2\n        /* \"#utility.yul\":2353:2383   */\n      gt\n        /* \"#utility.yul\":2350:2467   */\n      iszero\n      tag_97\n      jumpi\n        /* \"#utility.yul\":2386:2465   */\n      tag_98\n      tag_99\n      jump\t// in\n    tag_98:\n        /* \"#utility.yul\":2350:2467   */\n    tag_97:\n        /* \"#utility.yul\":2491:2554   */\n      tag_100\n        /* \"#utility.yul\":2546:2553   */\n      dup6\n        /* \"#utility.yul\":2537:2543   */\n      dup3\n        /* \"#utility.yul\":2526:2535   */\n      dup7\n        /* \"#utility.yul\":2522:2544   */\n      add\n        /* \"#utility.yul\":2491:2554   */\n      tag_73\n      jump\t// in\n    tag_100:\n        /* \"#utility.yul\":2481:2554   */\n      swap3\n      pop\n        /* \"#utility.yul\":2277:2564   */\n      pop\n        /* \"#utility.yul\":2631:2633   */\n      0x20\n        /* \"#utility.yul\":2620:2629   */\n      dup4\n        /* \"#utility.yul\":2616:2634   */\n      add\n        /* \"#utility.yul\":2603:2635   */\n      calldataload\n        /* \"#utility.yul\":2662:2680   */\n      0xffffffffffffffff\n        /* \"#utility.yul\":2654:2660   */\n      dup2\n        /* \"#utility.yul\":2651:2681   */\n      gt\n        /* \"#utility.yul\":2648:2765   */\n      iszero\n      tag_101\n      jumpi\n        /* \"#utility.yul\":2684:2763   */\n      tag_102\n      tag_99\n      jump\t// in\n    tag_102:\n        /* \"#utility.yul\":2648:2765   */\n    tag_101:\n        /* \"#utility.yul\":2789:2852   */\n      tag_103\n        /* \"#utility.yul\":2844:2851   */\n      dup6\n        /* \"#utility.yul\":2835:2841   */\n      dup3\n        /* \"#utility.yul\":2824:2833   */\n      dup7\n        /* \"#utility.yul\":2820:2842   */\n      add\n        /* \"#utility.yul\":2789:2852   */\n      tag_73\n      jump\t// in\n    tag_103:\n        /* \"#utility.yul\":2779:2852   */\n      swap2\n      pop\n        /* \"#utility.yul\":2574:2862   */\n      pop\n        /* \"#utility.yul\":2035:2869   */\n      swap3\n      pop\n      swap3\n      swap1\n      pop\n      jump\t// out\n        /* \"#utility.yul\":2875:2984   */\n    tag_104:\n        /* \"#utility.yul\":2956:2977   */\n      tag_106\n        /* \"#utility.yul\":2971:2976   */\n      dup2\n        /* \"#utility.yul\":2956:2977   */\n      tag_107\n      jump\t// in\n    tag_106:\n        /* \"#utility.yul\":2951:2954   */\n      dup3\n        /* \"#utility.yul\":2944:2978   */\n      mstore\n        /* \"#utility.yul\":2875:2984   */\n      pop\n      pop\n      jump\t// out\n        /* \"#utility.yul\":2990:3354   */\n    tag_108:\n        /* \"#utility.yul\":3078:3081   */\n      0x00\n        /* \"#utility.yul\":3106:3145   */\n      tag_110\n        /* \"#utility.yul\":3139:3144   */\n      dup3\n        /* \"#utility.yul\":3106:3145   */\n      tag_111\n      jump\t// in\n    tag_110:\n        /* \"#utility.yul\":3161:3232   */\n      tag_112\n        /* \"#utility.yul\":3225:3231   */\n      dup2\n        /* \"#utility.yul\":3220:3223   */\n      dup6\n        /* \"#utility.yul\":3161:3232   */\n      tag_113\n      jump\t// in\n    tag_112:\n        /* \"#utility.yul\":3154:3232   */\n      swap4\n      pop\n        /* \"#utility.yul\":3241:3293   */\n      tag_114\n        /* \"#utility.yul\":3286:3292   */\n      dup2\n        /* \"#utility.yul\":3281:3284   */\n      dup6\n        /* \"#utility.yul\":3274:3278   */\n      0x20\n        /* \"#utility.yul\":3267:3272   */\n      dup7\n        /* \"#utility.yul\":3263:3279   */\n      add\n        /* \"#utility.yul\":3241:3293   */\n      tag_115\n      jump\t// in\n    tag_114:\n        /* \"#utility.yul\":3318:3347   */\n      tag_116\n        /* \"#utility.yul\":3340:3346   */\n      dup2\n        /* \"#utility.yul\":3318:3347   */\n      tag_117\n      jump\t// in\n    tag_116:\n        /* \"#utility.yul\":3313:3316   */\n      dup5\n        /* \"#utility.yul\":3309:3348   */\n      add\n        /* \"#utility.yul\":3302:3348   */\n      swap2\n      pop\n        /* \"#utility.yul\":3082:3354   */\n      pop\n        /* \"#utility.yul\":2990:3354   */\n      swap3\n      swap2\n      pop\n      pop\n      jump\t// out\n        /* \"#utility.yul\":3360:3478   */\n    tag_118:\n        /* \"#utility.yul\":3447:3471   */\n      tag_120\n        /* \"#utility.yul\":3465:3470   */\n      dup2\n        /* \"#utility.yul\":3447:3471   */\n      tag_121\n      jump\t// in\n    tag_120:\n        /* \"#utility.yul\":3442:3445   */\n      dup3\n        /* \"#utility.yul\":3435:3472   */\n      mstore\n        /* \"#utility.yul\":3360:3478   */\n      pop\n      pop\n      jump\t// out\n        /* \"#utility.yul\":3484:3706   */\n    tag_22:\n        /* \"#utility.yul\":3577:3581   */\n      0x00\n        /* \"#utility.yul\":3615:3617   */\n      0x20\n        /* \"#utility.yul\":3604:3613   */\n      dup3\n        /* \"#utility.yul\":3600:3618   */\n      add\n        /* \"#utility.yul\":3592:3618   */\n      swap1\n      pop\n        /* \"#utility.yul\":3628:3699   */\n      tag_123\n        /* \"#utility.yul\":3696:3697   */\n      0x00\n        /* \"#utility.yul\":3685:3694   */\n      dup4\n        /* \"#utility.yul\":3681:3698   */\n      add\n        /* \"#utility.yul\":3672:3678   */\n      dup5\n        /* \"#utility.yul\":3628:3699   */\n      tag_118\n      jump\t// in\n    tag_123:\n        /* \"#utility.yul\":3484:3706   */\n      swap3\n      swap2\n      pop\n      pop\n      jump\t// out\n        /* \"#utility.yul\":3712:4435   */\n    tag_16:\n        /* \"#utility.yul\":3923:3927   */\n      0x00\n        /* \"#utility.yul\":3961:3964   */\n      0x80\n        /* \"#utility.yul\":3950:3959   */\n      dup3\n        /* \"#utility.yul\":3946:3965   */\n      add\n        /* \"#utility.yul\":3938:3965   */\n      swap1\n      pop\n        /* \"#utility.yul\":3975:4046   */\n      tag_125\n        /* \"#utility.yul\":4043:4044   */\n      0x00\n        /* \"#utility.yul\":4032:4041   */\n      dup4\n        /* \"#utility.yul\":4028:4045   */\n      add\n        /* \"#utility.yul\":4019:4025   */\n      dup8\n        /* \"#utility.yul\":3975:4046   */\n      tag_118\n      jump\t// in\n    tag_125:\n        /* \"#utility.yul\":4093:4102   */\n      dup2\n        /* \"#utility.yul\":4087:4091   */\n      dup2\n        /* \"#utility.yul\":4083:4103   */\n      sub\n        /* \"#utility.yul\":4078:4080   */\n      0x20\n        /* \"#utility.yul\":4067:4076   */\n      dup4\n        /* \"#utility.yul\":4063:4081   */\n      add\n        /* \"#utility.yul\":4056:4104   */\n      mstore\n        /* \"#utility.yul\":4121:4199   */\n      tag_126\n        /* \"#utility.yul\":4194:4198   */\n      dup2\n        /* \"#utility.yul\":4185:4191   */\n      dup7\n        /* \"#utility.yul\":4121:4199   */\n      tag_108\n      jump\t// in\n    tag_126:\n        /* \"#utility.yul\":4113:4199   */\n      swap1\n      pop\n        /* \"#utility.yul\":4246:4255   */\n      dup2\n        /* \"#utility.yul\":4240:4244   */\n      dup2\n        /* \"#utility.yul\":4236:4256   */\n      sub\n        /* \"#utility.yul\":4231:4233   */\n      0x40\n        /* \"#utility.yul\":4220:4229   */\n      dup4\n        /* \"#utility.yul\":4216:4234   */\n      add\n        /* \"#utility.yul\":4209:4257   */\n      mstore\n        /* \"#utility.yul\":4274:4352   */\n      tag_127\n        /* \"#utility.yul\":4347:4351   */\n      dup2\n        /* \"#utility.yul\":4338:4344   */\n      dup6\n        /* \"#utility.yul\":4274:4352   */\n      tag_108\n      jump\t// in\n    tag_127:\n        /* \"#utility.yul\":4266:4352   */\n      swap1\n      pop\n        /* \"#utility.yul\":4362:4428   */\n      tag_128\n        /* \"#utility.yul\":4424:4426   */\n      0x60\n        /* \"#utility.yul\":4413:4422   */\n      dup4\n        /* \"#utility.yul\":4409:4427   */\n      add\n        /* \"#utility.yul\":4400:4406   */\n      dup5\n        /* \"#utility.yul\":4362:4428   */\n      tag_104\n      jump\t// in\n    tag_128:\n        /* \"#utility.yul\":3712:4435   */\n      swap6\n      swap5\n      pop\n      pop\n      pop\n      pop\n      pop\n      jump\t// out\n        /* \"#utility.yul\":4441:4570   */\n    tag_63:\n        /* \"#utility.yul\":4475:4481   */\n      0x00\n        /* \"#utility.yul\":4502:4522   */\n      tag_130\n      tag_131\n      jump\t// in\n    tag_130:\n        /* \"#utility.yul\":4492:4522   */\n      swap1\n      pop\n        /* \"#utility.yul\":4531:4564   */\n      tag_132\n        /* \"#utility.yul\":4559:4563   */\n      dup3\n        /* \"#utility.yul\":4551:4557   */\n      dup3\n        /* \"#utility.yul\":4531:4564   */\n      tag_133\n      jump\t// in\n    tag_132:\n        /* \"#utility.yul\":4441:4570   */\n      swap2\n      swap1\n      pop\n      jump\t// out\n        /* \"#utility.yul\":4576:4651   */\n    tag_131:\n        /* \"#utility.yul\":4609:4615   */\n      0x00\n        /* \"#utility.yul\":4642:4644   */\n      0x40\n        /* \"#utility.yul\":4636:4645   */\n      mload\n        /* \"#utility.yul\":4626:4645   */\n      swap1\n      pop\n        /* \"#utility.yul\":4576:4651   */\n      swap1\n      jump\t// out\n        /* \"#utility.yul\":4657:4965   */\n    tag_62:\n        /* \"#utility.yul\":4719:4723   */\n      0x00\n        /* \"#utility.yul\":4809:4827   */\n      0xffffffffffffffff\n        /* \"#utility.yul\":4801:4807   */\n      dup3\n        /* \"#utility.yul\":4798:4828   */\n      gt\n        /* \"#utility.yul\":4795:4851   */\n      iszero\n      tag_136\n      jumpi\n        /* \"#utility.yul\":4831:4849   */\n      tag_137\n      tag_138\n      jump\t// in\n    tag_137:\n        /* \"#utility.yul\":4795:4851   */\n    tag_136:\n        /* \"#utility.yul\":4869:4898   */\n      tag_139\n        /* \"#utility.yul\":4891:4897   */\n      dup3\n        /* \"#utility.yul\":4869:4898   */\n      tag_117\n      jump\t// in\n    tag_139:\n        /* \"#utility.yul\":4861:4898   */\n      swap1\n      pop\n        /* \"#utility.yul\":4953:4957   */\n      0x20\n        /* \"#utility.yul\":4947:4951   */\n      dup2\n        /* \"#utility.yul\":4943:4958   */\n      add\n        /* \"#utility.yul\":4935:4958   */\n      swap1\n      pop\n        /* \"#utility.yul\":4657:4965   */\n      swap2\n      swap1\n      pop\n      jump\t// out\n        /* \"#utility.yul\":4971:5070   */\n    tag_111:\n        /* \"#utility.yul\":5023:5029   */\n      0x00\n        /* \"#utility.yul\":5057:5062   */\n      dup2\n        /* \"#utility.yul\":5051:5063   */\n      mload\n        /* \"#utility.yul\":5041:5063   */\n      swap1\n      pop\n        /* \"#utility.yul\":4971:5070   */\n      swap2\n      swap1\n      pop\n      jump\t// out\n        /* \"#utility.yul\":5076:5245   */\n    tag_113:\n        /* \"#utility.yul\":5160:5171   */\n      0x00\n        /* \"#utility.yul\":5194:5200   */\n      dup3\n        /* \"#utility.yul\":5189:5192   */\n      dup3\n        /* \"#utility.yul\":5182:5201   */\n      mstore\n        /* \"#utility.yul\":5234:5238   */\n      0x20\n        /* \"#utility.yul\":5229:5232   */\n      dup3\n        /* \"#utility.yul\":5225:5239   */\n      add\n        /* \"#utility.yul\":5210:5239   */\n      swap1\n      pop\n        /* \"#utility.yul\":5076:5245   */\n      swap3\n      swap2\n      pop\n      pop\n      jump\t// out\n        /* \"#utility.yul\":5251:5347   */\n    tag_142:\n        /* \"#utility.yul\":5288:5295   */\n      0x00\n        /* \"#utility.yul\":5317:5341   */\n      tag_144\n        /* \"#utility.yul\":5335:5340   */\n      dup3\n        /* \"#utility.yul\":5317:5341   */\n      tag_145\n      jump\t// in\n    tag_144:\n        /* \"#utility.yul\":5306:5341   */\n      swap1\n      pop\n        /* \"#utility.yul\":5251:5347   */\n      swap2\n      swap1\n      pop\n      jump\t// out\n        /* \"#utility.yul\":5353:5443   */\n    tag_107:\n        /* \"#utility.yul\":5387:5394   */\n      0x00\n        /* \"#utility.yul\":5430:5435   */\n      dup2\n        /* \"#utility.yul\":5423:5436   */\n      iszero\n        /* \"#utility.yul\":5416:5437   */\n      iszero\n        /* \"#utility.yul\":5405:5437   */\n      swap1\n      pop\n        /* \"#utility.yul\":5353:5443   */\n      swap2\n      swap1\n      pop\n      jump\t// out\n        /* \"#utility.yul\":5449:5575   */\n    tag_145:\n        /* \"#utility.yul\":5486:5493   */\n      0x00\n        /* \"#utility.yul\":5526:5568   */\n      0xffffffffffffffffffffffffffffffffffffffff\n        /* \"#utility.yul\":5519:5524   */\n      dup3\n        /* \"#utility.yul\":5515:5569   */\n      and\n        /* \"#utility.yul\":5504:5569   */\n      swap1\n      pop\n        /* \"#utility.yul\":5449:5575   */\n      swap2\n      swap1\n      pop\n      jump\t// out\n        /* \"#utility.yul\":5581:5658   */\n    tag_121:\n        /* \"#utility.yul\":5618:5625   */\n      0x00\n        /* \"#utility.yul\":5647:5652   */\n      dup2\n        /* \"#utility.yul\":5636:5652   */\n      swap1\n      pop\n        /* \"#utility.yul\":5581:5658   */\n      swap2\n      swap1\n      pop\n      jump\t// out\n        /* \"#utility.yul\":5664:5818   */\n    tag_68:\n        /* \"#utility.yul\":5748:5754   */\n      dup3\n        /* \"#utility.yul\":5743:5746   */\n      dup2\n        /* \"#utility.yul\":5738:5741   */\n      dup4\n        /* \"#utility.yul\":5725:5755   */\n      calldatacopy\n        /* \"#utility.yul\":5810:5811   */\n      0x00\n        /* \"#utility.yul\":5801:5807   */\n      dup4\n        /* \"#utility.yul\":5796:5799   */\n      dup4\n        /* \"#utility.yul\":5792:5808   */\n      add\n        /* \"#utility.yul\":5785:5812   */\n      mstore\n        /* \"#utility.yul\":5664:5818   */\n      pop\n      pop\n      pop\n      jump\t// out\n        /* \"#utility.yul\":5824:6131   */\n    tag_115:\n        /* \"#utility.yul\":5892:5893   */\n      0x00\n        /* \"#utility.yul\":5902:6015   */\n    tag_151:\n        /* \"#utility.yul\":5916:5922   */\n      dup4\n        /* \"#utility.yul\":5913:5914   */\n      dup2\n        /* \"#utility.yul\":5910:5923   */\n      lt\n        /* \"#utility.yul\":5902:6015   */\n      iszero\n      tag_153\n      jumpi\n        /* \"#utility.yul\":6001:6002   */\n      dup1\n        /* \"#utility.yul\":5996:5999   */\n      dup3\n        /* \"#utility.yul\":5992:6003   */\n      add\n        /* \"#utility.yul\":5986:6004   */\n      mload\n        /* \"#utility.yul\":5982:5983   */\n      dup2\n        /* \"#utility.yul\":5977:5980   */\n      dup5\n        /* \"#utility.yul\":5973:5984   */\n      add\n        /* \"#utility.yul\":5966:6005   */\n      mstore\n        /* \"#utility.yul\":5938:5940   */\n      0x20\n        /* \"#utility.yul\":5935:5936   */\n      dup2\n        /* \"#utility.yul\":5931:5941   */\n      add\n        /* \"#utility.yul\":5926:5941   */\n      swap1\n      pop\n        /* \"#utility.yul\":5902:6015   */\n      jump(tag_151)\n    tag_153:\n        /* \"#utility.yul\":6033:6039   */\n      dup4\n        /* \"#utility.yul\":6030:6031   */\n      dup2\n        /* \"#utility.yul\":6027:6040   */\n      gt\n        /* \"#utility.yul\":6024:6125   */\n      iszero\n      tag_154\n      jumpi\n        /* \"#utility.yul\":6113:6114   */\n      0x00\n        /* \"#utility.yul\":6104:6110   */\n      dup5\n        /* \"#utility.yul\":6099:6102   */\n      dup5\n        /* \"#utility.yul\":6095:6111   */\n      add\n        /* \"#utility.yul\":6088:6115   */\n      mstore\n        /* \"#utility.yul\":6024:6125   */\n    tag_154:\n        /* \"#utility.yul\":5873:6131   */\n      pop\n        /* \"#utility.yul\":5824:6131   */\n      pop\n      pop\n      pop\n      jump\t// out\n        /* \"#utility.yul\":6137:6457   */\n    tag_36:\n        /* \"#utility.yul\":6181:6187   */\n      0x00\n        /* \"#utility.yul\":6218:6219   */\n      0x02\n        /* \"#utility.yul\":6212:6216   */\n      dup3\n        /* \"#utility.yul\":6208:6220   */\n      div\n        /* \"#utility.yul\":6198:6220   */\n      swap1\n      pop\n        /* \"#utility.yul\":6265:6266   */\n      0x01\n        /* \"#utility.yul\":6259:6263   */\n      dup3\n        /* \"#utility.yul\":6255:6267   */\n      and\n        /* \"#utility.yul\":6286:6304   */\n      dup1\n        /* \"#utility.yul\":6276:6357   */\n      tag_156\n      jumpi\n        /* \"#utility.yul\":6342:6346   */\n      0x7f\n        /* \"#utility.yul\":6334:6340   */\n      dup3\n        /* \"#utility.yul\":6330:6347   */\n      and\n        /* \"#utility.yul\":6320:6347   */\n      swap2\n      pop\n        /* \"#utility.yul\":6276:6357   */\n    tag_156:\n        /* \"#utility.yul\":6404:6406   */\n      0x20\n        /* \"#utility.yul\":6396:6402   */\n      dup3\n        /* \"#utility.yul\":6393:6407   */\n      lt\n        /* \"#utility.yul\":6373:6391   */\n      dup2\n        /* \"#utility.yul\":6370:6408   */\n      eq\n        /* \"#utility.yul\":6367:6451   */\n      iszero\n      tag_157\n      jumpi\n        /* \"#utility.yul\":6423:6441   */\n      tag_158\n      tag_159\n      jump\t// in\n    tag_158:\n        /* \"#utility.yul\":6367:6451   */\n    tag_157:\n        /* \"#utility.yul\":6188:6457   */\n      pop\n        /* \"#utility.yul\":6137:6457   */\n      swap2\n      swap1\n      pop\n      jump\t// out\n        /* \"#utility.yul\":6463:6744   */\n    tag_133:\n        /* \"#utility.yul\":6546:6573   */\n      tag_161\n        /* \"#utility.yul\":6568:6572   */\n      dup3\n        /* \"#utility.yul\":6546:6573   */\n      tag_117\n      jump\t// in\n    tag_161:\n        /* \"#utility.yul\":6538:6544   */\n      dup2\n        /* \"#utility.yul\":6534:6574   */\n      add\n        /* \"#utility.yul\":6676:6682   */\n      dup2\n        /* \"#utility.yul\":6664:6674   */\n      dup2\n        /* \"#utility.yul\":6661:6683   */\n      lt\n        /* \"#utility.yul\":6640:6658   */\n      0xffffffffffffffff\n        /* \"#utility.yul\":6628:6638   */\n      dup3\n        /* \"#utility.yul\":6625:6659   */\n      gt\n        /* \"#utility.yul\":6622:6684   */\n      or\n        /* \"#utility.yul\":6619:6707   */\n      iszero\n      tag_162\n      jumpi\n        /* \"#utility.yul\":6687:6705   */\n      tag_163\n      tag_138\n      jump\t// in\n    tag_163:\n        /* \"#utility.yul\":6619:6707   */\n    tag_162:\n        /* \"#utility.yul\":6727:6737   */\n      dup1\n        /* \"#utility.yul\":6723:6725   */\n      0x40\n        /* \"#utility.yul\":6716:6738   */\n      mstore\n        /* \"#utility.yul\":6506:6744   */\n      pop\n        /* \"#utility.yul\":6463:6744   */\n      pop\n      pop\n      jump\t// out\n        /* \"#utility.yul\":6750:6983   */\n    tag_28:\n        /* \"#utility.yul\":6789:6792   */\n      0x00\n        /* \"#utility.yul\":6812:6836   */\n      tag_165\n        /* \"#utility.yul\":6830:6835   */\n      dup3\n        /* \"#utility.yul\":6812:6836   */\n      tag_121\n      jump\t// in\n    tag_165:\n        /* \"#utility.yul\":6803:6836   */\n      swap2\n      pop\n        /* \"#utility.yul\":6858:6924   */\n      0xffffffffffffffffffffffffffffffffffffffffffffffffffffffffffffffff\n        /* \"#utility.yul\":6851:6856   */\n      dup3\n        /* \"#utility.yul\":6848:6925   */\n      eq\n        /* \"#utility.yul\":6845:6948   */\n      iszero\n      tag_166\n      jumpi\n        /* \"#utility.yul\":6928:6946   */\n      tag_167\n      tag_168\n      jump\t// in\n    tag_167:\n        /* \"#utility.yul\":6845:6948   */\n    tag_166:\n        /* \"#utility.yul\":6975:6976   */\n      0x01\n        /* \"#utility.yul\":6968:6973   */\n      dup3\n        /* \"#utility.yul\":6964:6977   */\n      add\n        /* \"#utility.yul\":6957:6977   */\n      swap1\n      pop\n        /* \"#utility.yul\":6750:6983   */\n      swap2\n      swap1\n      pop\n      jump\t// out\n        /* \"#utility.yul\":6989:7169   */\n    tag_168:\n        /* \"#utility.yul\":7037:7114   */\n      0x4e487b7100000000000000000000000000000000000000000000000000000000\n        /* \"#utility.yul\":7034:7035   */\n      0x00\n        /* \"#utility.yul\":7027:7115   */\n      mstore\n        /* \"#utility.yul\":7134:7138   */\n      0x11\n        /* \"#utility.yul\":7131:7132   */\n      0x04\n        /* \"#utility.yul\":7124:7139   */\n      mstore\n        /* \"#utility.yul\":7158:7162   */\n      0x24\n        /* \"#utility.yul\":7155:7156   */\n      0x00\n        /* \"#utility.yul\":7148:7163   */\n      revert\n        /* \"#utility.yul\":7175:7355   */\n    tag_159:\n        /* \"#utility.yul\":7223:7300   */\n      0x4e487b7100000000000000000000000000000000000000000000000000000000\n        /* \"#utility.yul\":7220:7221   */\n      0x00\n        /* \"#utility.yul\":7213:7301   */\n      mstore\n        /* \"#utility.yul\":7320:7324   */\n      0x22\n        /* \"#utility.yul\":7317:7318   */\n      0x04\n        /* \"#utility.yul\":7310:7325   */\n      mstore\n        /* \"#utility.yul\":7344:7348   */\n      0x24\n        /* \"#utility.yul\":7341:7342   */\n      0x00\n        /* \"#utility.yul\":7334:7349   */\n      revert\n        /* \"#utility.yul\":7361:7541   */\n    tag_138:\n        /* \"#utility.yul\":7409:7486   */\n      0x4e487b7100000000000000000000000000000000000000000000000000000000\n        /* \"#utility.yul\":7406:7407   */\n      0x00\n        /* \"#utility.yul\":7399:7487   */\n      mstore\n        /* \"#utility.yul\":7506:7510   */\n      0x41\n        /* \"#utility.yul\":7503:7504   */\n      0x04\n        /* \"#utility.yul\":7496:7511   */\n      mstore\n        /* \"#utility.yul\":7530:7534   */\n      0x24\n        /* \"#utility.yul\":7527:7528   */\n      0x00\n        /* \"#utility.yul\":7520:7535   */\n      revert\n        /* \"#utility.yul\":7547:7664   */\n    tag_77:\n        /* \"#utility.yul\":7656:7657   */\n      0x00\n        /* \"#utility.yul\":7653:7654   */\n      dup1\n        /* \"#utility.yul\":7646:7658   */\n      revert\n        /* \"#utility.yul\":7670:7787   */\n    tag_66:\n        /* \"#utility.yul\":7779:7780   */\n      0x00\n        /* \"#utility.yul\":7776:7777   */\n      dup1\n        /* \"#utility.yul\":7769:7781   */\n      revert\n        /* \"#utility.yul\":7793:7910   */\n    tag_99:\n        /* \"#utility.yul\":7902:7903   */\n      0x00\n        /* \"#utility.yul\":7899:7900   */\n      dup1\n        /* \"#utility.yul\":7892:7904   */\n      revert\n        /* \"#utility.yul\":7916:8033   */\n    tag_86:\n        /* \"#utility.yul\":8025:8026   */\n      0x00\n        /* \"#utility.yul\":8022:8023   */\n      dup1\n        /* \"#utility.yul\":8015:8027   */\n      revert\n        /* \"#utility.yul\":8039:8141   */\n    tag_117:\n        /* \"#utility.yul\":8080:8086   */\n      0x00\n        /* \"#utility.yul\":8131:8133   */\n      0x1f\n        /* \"#utility.yul\":8127:8134   */\n      not\n        /* \"#utility.yul\":8122:8124   */\n      0x1f\n        /* \"#utility.yul\":8115:8120   */\n      dup4\n        /* \"#utility.yul\":8111:8125   */\n      add\n        /* \"#utility.yul\":8107:8135   */\n      and\n        /* \"#utility.yul\":8097:8135   */\n      swap1\n      pop\n        /* \"#utility.yul\":8039:8141   */\n      swap2\n      swap1\n      pop\n      jump\t// out\n        /* \"#utility.yul\":8147:8269   */\n    tag_72:\n        /* \"#utility.yul\":8220:8244   */\n      tag_178\n        /* \"#utility.yul\":8238:8243   */\n      dup2\n        /* \"#utility.yul\":8220:8244   */\n      tag_142\n      jump\t// in\n    tag_178:\n        /* \"#utility.yul\":8213:8218   */\n      dup2\n        /* \"#utility.yul\":8210:8245   */\n      eq\n        /* \"#utility.yul\":8200:8263   */\n      tag_179\n      jumpi\n        /* \"#utility.yul\":8259:8260   */\n      0x00\n        /* \"#utility.yul\":8256:8257   */\n      dup1\n        /* \"#utility.yul\":8249:8261   */\n      revert\n        /* \"#utility.yul\":8200:8263   */\n    tag_179:\n        /* \"#utility.yul\":8147:8269   */\n      pop\n      jump\t// out\n        /* \"#utility.yul\":8275:8397   */\n    tag_82:\n        /* \"#utility.yul\":8348:8372   */\n      tag_181\n        /* \"#utility.yul\":8366:8371   */\n      dup2\n        /* \"#utility.yul\":8348:8372   */\n      tag_121\n      jump\t// in\n    tag_181:\n        /* \"#utility.yul\":8341:8346   */\n      dup2\n        /* \"#utility.yul\":8338:8373   */\n      eq\n        /* \"#utility.yul\":8328:8391   */\n      tag_182\n      jumpi\n        /* \"#utility.yul\":8387:8388   */\n      0x00\n        /* \"#utility.yul\":8384:8385   */\n      dup1\n        /* \"#utility.yul\":8377:8389   */\n      revert\n        /* \"#utility.yul\":8328:8391   */\n    tag_182:\n        /* \"#utility.yul\":8275:8397   */\n      pop\n      jump\t// out\n\n    auxdata: 0xa26469706673582212202e2527b4d5a83c499fbbcebc813b37f2166a90075d61cb4bd50d3c8029285a8564736f6c63430008070033\n}\n",
				"bytecode": {
					"linkReferences": {},
					"object": "608060405234801561001057600080fd5b50610a55806100206000396000f3fe608060405234801561001057600080fd5b506004361061004c5760003560e01c80631b7fb2601461005157806397292ce51461006d578063c12327b8146100a0578063d321fe29146100d0575b600080fd5b61006b6004803603810190610066919061065a565b6100ee565b005b61008760048036038101906100829190610607565b6102c7565b6040516100979493929190610744565b60405180910390f35b6100ba60048036038101906100b591906105da565b61043e565b6040516100c79190610729565b60405180910390f35b6100d8610456565b6040516100e59190610729565b60405180910390f35b600160003373ffffffffffffffffffffffffffffffffffffffff1673ffffffffffffffffffffffffffffffffffffffff168152602001908152602001600020600081548092919061013e906108f6565b91905055506000803373ffffffffffffffffffffffffffffffffffffffff1673ffffffffffffffffffffffffffffffffffffffff1681526020019081526020016000206000600160003373ffffffffffffffffffffffffffffffffffffffff1673ffffffffffffffffffffffffffffffffffffffff1681526020019081526020016000205481526020019081526020016000206040518060800160405280600160003373ffffffffffffffffffffffffffffffffffffffff1673ffffffffffffffffffffffffffffffffffffffff16815260200190815260200160002054815260200184815260200183815260200160001515815250908060018154018082558091505060019003906000526020600020906004020160009091909190915060008201518160000155602082015181600101908051906020019061028392919061049d565b5060408201518160020190805190602001906102a092919061049d565b5060608201518160030160006101000a81548160ff02191690831515021790555050505050565b600060205282600052604060002060205281600052604060002081815481106102ef57600080fd5b9060005260206000209060040201600092509250505080600001549080600101805461031a90610893565b80601f016020809104026020016040519081016040528092919081815260200182805461034690610893565b80156103935780601f1061036857610100808354040283529160200191610393565b820191906000526020600020905b81548152906001019060200180831161037657829003601f168201915b5050505050908060020180546103a890610893565b80601f01602080910402602001604051908101604052809291908181526020018280546103d490610893565b80156104215780601f106103f657610100808354040283529160200191610421565b820191906000526020600020905b81548152906001019060200180831161040457829003601f168201915b5050505050908060030160009054906101000a900460ff16905084565b60016020528060005260406000206000915090505481565b6000600160003373ffffffffffffffffffffffffffffffffffffffff1673ffffffffffffffffffffffffffffffffffffffff16815260200190815260200160002054905090565b8280546104a990610893565b90600052602060002090601f0160209004810192826104cb5760008555610512565b82601f106104e457805160ff1916838001178555610512565b82800160010185558215610512579182015b828111156105115782518255916020019190600101906104f6565b5b50905061051f9190610523565b5090565b5b8082111561053c576000816000905550600101610524565b5090565b600061055361054e846107bc565b610797565b90508281526020810184848401111561056f5761056e6109d1565b5b61057a848285610851565b509392505050565b600081359050610591816109f1565b92915050565b600082601f8301126105ac576105ab6109cc565b5b81356105bc848260208601610540565b91505092915050565b6000813590506105d481610a08565b92915050565b6000602082840312156105f0576105ef6109db565b5b60006105fe84828501610582565b91505092915050565b6000806000606084860312156106205761061f6109db565b5b600061062e86828701610582565b935050602061063f868287016105c5565b9250506040610650868287016105c5565b9150509250925092565b60008060408385031215610671576106706109db565b5b600083013567ffffffffffffffff81111561068f5761068e6109d6565b5b61069b85828601610597565b925050602083013567ffffffffffffffff8111156106bc576106bb6109d6565b5b6106c885828601610597565b9150509250929050565b6106db8161081b565b82525050565b60006106ec826107ed565b6106f681856107f8565b9350610706818560208601610860565b61070f816109e0565b840191505092915050565b61072381610847565b82525050565b600060208201905061073e600083018461071a565b92915050565b6000608082019050610759600083018761071a565b818103602083015261076b81866106e1565b9050818103604083015261077f81856106e1565b905061078e60608301846106d2565b95945050505050565b60006107a16107b2565b90506107ad82826108c5565b919050565b6000604051905090565b600067ffffffffffffffff8211156107d7576107d661099d565b5b6107e0826109e0565b9050602081019050919050565b600081519050919050565b600082825260208201905092915050565b600061081482610827565b9050919050565b60008115159050919050565b600073ffffffffffffffffffffffffffffffffffffffff82169050919050565b6000819050919050565b82818337600083830152505050565b60005b8381101561087e578082015181840152602081019050610863565b8381111561088d576000848401525b50505050565b600060028204905060018216806108ab57607f821691505b602082108114156108bf576108be61096e565b5b50919050565b6108ce826109e0565b810181811067ffffffffffffffff821117156108ed576108ec61099d565b5b80604052505050565b600061090182610847565b91507fffffffffffffffffffffffffffffffffffffffffffffffffffffffffffffffff8214156109345761093361093f565b5b600182019050919050565b7f4e487b7100000000000000000000000000000000000000000000000000000000600052601160045260246000fd5b7f4e487b7100000000000000000000000000000000000000000000000000000000600052602260045260246000fd5b7f4e487b7100000000000000000000000000000000000000000000000000000000600052604160045260246000fd5b600080fd5b600080fd5b600080fd5b600080fd5b6000601f19601f8301169050919050565b6109fa81610809565b8114610a0557600080fd5b50565b610a1181610847565b8114610a1c57600080fd5b5056fea26469706673582212202e2527b4d5a83c499fbbcebc813b37f2166a90075d61cb4bd50d3c8029285a8564736f6c63430008070033",
					"opcodes": "PUSH1 0x80 PUSH1 0x40 MSTORE CALLVALUE DUP1 ISZERO PUSH2 0x10 JUMPI PUSH1 0x0 DUP1 REVERT JUMPDEST POP PUSH2 0xA55 DUP1 PUSH2 0x20 PUSH1 0x0 CODECOPY PUSH1 0x0 RETURN INVALID PUSH1 0x80 PUSH1 0x40 MSTORE CALLVALUE DUP1 ISZERO PUSH2 0x10 JUMPI PUSH1 0x0 DUP1 REVERT JUMPDEST POP PUSH1 0x4 CALLDATASIZE LT PUSH2 0x4C JUMPI PUSH1 0x0 CALLDATALOAD PUSH1 0xE0 SHR DUP1 PUSH4 0x1B7FB260 EQ PUSH2 0x51 JUMPI DUP1 PUSH4 0x97292CE5 EQ PUSH2 0x6D JUMPI DUP1 PUSH4 0xC12327B8 EQ PUSH2 0xA0 JUMPI DUP1 PUSH4 0xD321FE29 EQ PUSH2 0xD0 JUMPI JUMPDEST PUSH1 0x0 DUP1 REVERT JUMPDEST PUSH2 0x6B PUSH1 0x4 DUP1 CALLDATASIZE SUB DUP2 ADD SWAP1 PUSH2 0x66 SWAP2 SWAP1 PUSH2 0x65A JUMP JUMPDEST PUSH2 0xEE JUMP JUMPDEST STOP JUMPDEST PUSH2 0x87 PUSH1 0x4 DUP1 CALLDATASIZE SUB DUP2 ADD SWAP1 PUSH2 0x82 SWAP2 SWAP1 PUSH2 0x607 JUMP JUMPDEST PUSH2 0x2C7 JUMP JUMPDEST PUSH1 0x40 MLOAD PUSH2 0x97 SWAP5 SWAP4 SWAP3 SWAP2 SWAP1 PUSH2 0x744 JUMP JUMPDEST PUSH1 0x40 MLOAD DUP1 SWAP2 SUB SWAP1 RETURN JUMPDEST PUSH2 0xBA PUSH1 0x4 DUP1 CALLDATASIZE SUB DUP2 ADD SWAP1 PUSH2 0xB5 SWAP2 SWAP1 PUSH2 0x5DA JUMP JUMPDEST PUSH2 0x43E JUMP JUMPDEST PUSH1 0x40 MLOAD PUSH2 0xC7 SWAP2 SWAP1 PUSH2 0x729 JUMP JUMPDEST PUSH1 0x40 MLOAD DUP1 SWAP2 SUB SWAP1 RETURN JUMPDEST PUSH2 0xD8 PUSH2 0x456 JUMP JUMPDEST PUSH1 0x40 MLOAD PUSH2 0xE5 SWAP2 SWAP1 PUSH2 0x729 JUMP JUMPDEST PUSH1 0x40 MLOAD DUP1 SWAP2 SUB SWAP1 RETURN JUMPDEST PUSH1 0x1 PUSH1 0x0 CALLER PUSH20 0xFFFFFFFFFFFFFFFFFFFFFFFFFFFFFFFFFFFFFFFF AND PUSH20 0xFFFFFFFFFFFFFFFFFFFFFFFFFFFFFFFFFFFFFFFF AND DUP2 MSTORE PUSH1 0x20 ADD SWAP1 DUP2 MSTORE PUSH1 0x20 ADD PUSH1 0x0 KECCAK256 PUSH1 0x0 DUP2 SLOAD DUP1 SWAP3 SWAP2 SWAP1 PUSH2 0x13E SWAP1 PUSH2 0x8F6 JUMP JUMPDEST SWAP2 SWAP1 POP SSTORE POP PUSH1 0x0 DUP1 CALLER PUSH20 0xFFFFFFFFFFFFFFFFFFFFFFFFFFFFFFFFFFFFFFFF AND PUSH20 0xFFFFFFFFFFFFFFFFFFFFFFFFFFFFFFFFFFFFFFFF AND DUP2 MSTORE PUSH1 0x20 ADD SWAP1 DUP2 MSTORE PUSH1 0x20 ADD PUSH1 0x0 KECCAK256 PUSH1 0x0 PUSH1 0x1 PUSH1 0x0 CALLER PUSH20 0xFFFFFFFFFFFFFFFFFFFFFFFFFFFFFFFFFFFFFFFF AND PUSH20 0xFFFFFFFFFFFFFFFFFFFFFFFFFFFFFFFFFFFFFFFF AND DUP2 MSTORE PUSH1 0x20 ADD SWAP1 DUP2 MSTORE PUSH1 0x20 ADD PUSH1 0x0 KECCAK256 SLOAD DUP2 MSTORE PUSH1 0x20 ADD SWAP1 DUP2 MSTORE PUSH1 0x20 ADD PUSH1 0x0 KECCAK256 PUSH1 0x40 MLOAD DUP1 PUSH1 0x80 ADD PUSH1 0x40 MSTORE DUP1 PUSH1 0x1 PUSH1 0x0 CALLER PUSH20 0xFFFFFFFFFFFFFFFFFFFFFFFFFFFFFFFFFFFFFFFF AND PUSH20 0xFFFFFFFFFFFFFFFFFFFFFFFFFFFFFFFFFFFFFFFF AND DUP2 MSTORE PUSH1 0x20 ADD SWAP1 DUP2 MSTORE PUSH1 0x20 ADD PUSH1 0x0 KECCAK256 SLOAD DUP2 MSTORE PUSH1 0x20 ADD DUP5 DUP2 MSTORE PUSH1 0x20 ADD DUP4 DUP2 MSTORE PUSH1 0x20 ADD PUSH1 0x0 ISZERO ISZERO DUP2 MSTORE POP SWAP1 DUP1 PUSH1 0x1 DUP2 SLOAD ADD DUP1 DUP3 SSTORE DUP1 SWAP2 POP POP PUSH1 0x1 SWAP1 SUB SWAP1 PUSH1 0x0 MSTORE PUSH1 0x20 PUSH1 0x0 KECCAK256 SWAP1 PUSH1 0x4 MUL ADD PUSH1 0x0 SWAP1 SWAP2 SWAP1 SWAP2 SWAP1 SWAP2 POP PUSH1 0x0 DUP3 ADD MLOAD DUP2 PUSH1 0x0 ADD SSTORE PUSH1 0x20 DUP3 ADD MLOAD DUP2 PUSH1 0x1 ADD SWAP1 DUP1 MLOAD SWAP1 PUSH1 0x20 ADD SWAP1 PUSH2 0x283 SWAP3 SWAP2 SWAP1 PUSH2 0x49D JUMP JUMPDEST POP PUSH1 0x40 DUP3 ADD MLOAD DUP2 PUSH1 0x2 ADD SWAP1 DUP1 MLOAD SWAP1 PUSH1 0x20 ADD SWAP1 PUSH2 0x2A0 SWAP3 SWAP2 SWAP1 PUSH2 0x49D JUMP JUMPDEST POP PUSH1 0x60 DUP3 ADD MLOAD DUP2 PUSH1 0x3 ADD PUSH1 0x0 PUSH2 0x100 EXP DUP2 SLOAD DUP2 PUSH1 0xFF MUL NOT AND SWAP1 DUP4 ISZERO ISZERO MUL OR SWAP1 SSTORE POP POP POP POP POP JUMP JUMPDEST PUSH1 0x0 PUSH1 0x20 MSTORE DUP3 PUSH1 0x0 MSTORE PUSH1 0x40 PUSH1 0x0 KECCAK256 PUSH1 0x20 MSTORE DUP2 PUSH1 0x0 MSTORE PUSH1 0x40 PUSH1 0x0 KECCAK256 DUP2 DUP2 SLOAD DUP2 LT PUSH2 0x2EF JUMPI PUSH1 0x0 DUP1 REVERT JUMPDEST SWAP1 PUSH1 0x0 MSTORE PUSH1 0x20 PUSH1 0x0 KECCAK256 SWAP1 PUSH1 0x4 MUL ADD PUSH1 0x0 SWAP3 POP SWAP3 POP POP POP DUP1 PUSH1 0x0 ADD SLOAD SWAP1 DUP1 PUSH1 0x1 ADD DUP1 SLOAD PUSH2 0x31A SWAP1 PUSH2 0x893 JUMP JUMPDEST DUP1 PUSH1 0x1F ADD PUSH1 0x20 DUP1 SWAP2 DIV MUL PUSH1 0x20 ADD PUSH1 0x40 MLOAD SWAP1 DUP2 ADD PUSH1 0x40 MSTORE DUP1 SWAP3 SWAP2 SWAP1 DUP2 DUP2 MSTORE PUSH1 0x20 ADD DUP3 DUP1 SLOAD PUSH2 0x346 SWAP1 PUSH2 0x893 JUMP JUMPDEST DUP1 ISZERO PUSH2 0x393 JUMPI DUP1 PUSH1 0x1F LT PUSH2 0x368 JUMPI PUSH2 0x100 DUP1 DUP4 SLOAD DIV MUL DUP4 MSTORE SWAP2 PUSH1 0x20 ADD SWAP2 PUSH2 0x393 JUMP JUMPDEST DUP3 ADD SWAP2 SWAP1 PUSH1 0x0 MSTORE PUSH1 0x20 PUSH1 0x0 KECCAK256 SWAP1 JUMPDEST DUP2 SLOAD DUP2 MSTORE SWAP1 PUSH1 0x1 ADD SWAP1 PUSH1 0x20 ADD DUP1 DUP4 GT PUSH2 0x376 JUMPI DUP3 SWAP1 SUB PUSH1 0x1F AND DUP3 ADD SWAP2 JUMPDEST POP POP POP POP POP SWAP1 DUP1 PUSH1 0x2 ADD DUP1 SLOAD PUSH2 0x3A8 SWAP1 PUSH2 0x893 JUMP JUMPDEST DUP1 PUSH1 0x1F ADD PUSH1 0x20 DUP1 SWAP2 DIV MUL PUSH1 0x20 ADD PUSH1 0x40 MLOAD SWAP1 DUP2 ADD PUSH1 0x40 MSTORE DUP1 SWAP3 SWAP2 SWAP1 DUP2 DUP2 MSTORE PUSH1 0x20 ADD DUP3 DUP1 SLOAD PUSH2 0x3D4 SWAP1 PUSH2 0x893 JUMP JUMPDEST DUP1 ISZERO PUSH2 0x421 JUMPI DUP1 PUSH1 0x1F LT PUSH2 0x3F6 JUMPI PUSH2 0x100 DUP1 DUP4 SLOAD DIV MUL DUP4 MSTORE SWAP2 PUSH1 0x20 ADD SWAP2 PUSH2 0x421 JUMP JUMPDEST DUP3 ADD SWAP2 SWAP1 PUSH1 0x0 MSTORE PUSH1 0x20 PUSH1 0x0 KECCAK256 SWAP1 JUMPDEST DUP2 SLOAD DUP2 MSTORE SWAP1 PUSH1 0x1 ADD SWAP1 PUSH1 0x20 ADD DUP1 DUP4 GT PUSH2 0x404 JUMPI DUP3 SWAP1 SUB PUSH1 0x1F AND DUP3 ADD SWAP2 JUMPDEST POP POP POP POP POP SWAP1 DUP1 PUSH1 0x3 ADD PUSH1 0x0 SWAP1 SLOAD SWAP1 PUSH2 0x100 EXP SWAP1 DIV PUSH1 0xFF AND SWAP1 POP DUP5 JUMP JUMPDEST PUSH1 0x1 PUSH1 0x20 MSTORE DUP1 PUSH1 0x0 MSTORE PUSH1 0x40 PUSH1 0x0 KECCAK256 PUSH1 0x0 SWAP2 POP SWAP1 POP SLOAD DUP2 JUMP JUMPDEST PUSH1 0x0 PUSH1 0x1 PUSH1 0x0 CALLER PUSH20 0xFFFFFFFFFFFFFFFFFFFFFFFFFFFFFFFFFFFFFFFF AND PUSH20 0xFFFFFFFFFFFFFFFFFFFFFFFFFFFFFFFFFFFFFFFF AND DUP2 MSTORE PUSH1 0x20 ADD SWAP1 DUP2 MSTORE PUSH1 0x20 ADD PUSH1 0x0 KECCAK256 SLOAD SWAP1 POP SWAP1 JUMP JUMPDEST DUP3 DUP1 SLOAD PUSH2 0x4A9 SWAP1 PUSH2 0x893 JUMP JUMPDEST SWAP1 PUSH1 0x0 MSTORE PUSH1 0x20 PUSH1 0x0 KECCAK256 SWAP1 PUSH1 0x1F ADD PUSH1 0x20 SWAP1 DIV DUP2 ADD SWAP3 DUP3 PUSH2 0x4CB JUMPI PUSH1 0x0 DUP6 SSTORE PUSH2 0x512 JUMP JUMPDEST DUP3 PUSH1 0x1F LT PUSH2 0x4E4 JUMPI DUP1 MLOAD PUSH1 0xFF NOT AND DUP4 DUP1 ADD OR DUP6 SSTORE PUSH2 0x512 JUMP JUMPDEST DUP3 DUP1 ADD PUSH1 0x1 ADD DUP6 SSTORE DUP3 ISZERO PUSH2 0x512 JUMPI SWAP2 DUP3 ADD JUMPDEST DUP3 DUP2 GT ISZERO PUSH2 0x511 JUMPI DUP3 MLOAD DUP3 SSTORE SWAP2 PUSH1 0x20 ADD SWAP2 SWAP1 PUSH1 0x1 ADD SWAP1 PUSH2 0x4F6 JUMP JUMPDEST JUMPDEST POP SWAP1 POP PUSH2 0x51F SWAP2 SWAP1 PUSH2 0x523 JUMP JUMPDEST POP SWAP1 JUMP JUMPDEST JUMPDEST DUP1 DUP3 GT ISZERO PUSH2 0x53C JUMPI PUSH1 0x0 DUP2 PUSH1 0x0 SWAP1 SSTORE POP PUSH1 0x1 ADD PUSH2 0x524 JUMP JUMPDEST POP SWAP1 JUMP JUMPDEST PUSH1 0x0 PUSH2 0x553 PUSH2 0x54E DUP5 PUSH2 0x7BC JUMP JUMPDEST PUSH2 0x797 JUMP JUMPDEST SWAP1 POP DUP3 DUP2 MSTORE PUSH1 0x20 DUP2 ADD DUP5 DUP5 DUP5 ADD GT ISZERO PUSH2 0x56F JUMPI PUSH2 0x56E PUSH2 0x9D1 JUMP JUMPDEST JUMPDEST PUSH2 0x57A DUP5 DUP3 DUP6 PUSH2 0x851 JUMP JUMPDEST POP SWAP4 SWAP3 POP POP POP JUMP JUMPDEST PUSH1 0x0 DUP2 CALLDATALOAD SWAP1 POP PUSH2 0x591 DUP2 PUSH2 0x9F1 JUMP JUMPDEST SWAP3 SWAP2 POP POP JUMP JUMPDEST PUSH1 0x0 DUP3 PUSH1 0x1F DUP4 ADD SLT PUSH2 0x5AC JUMPI PUSH2 0x5AB PUSH2 0x9CC JUMP JUMPDEST JUMPDEST DUP2 CALLDATALOAD PUSH2 0x5BC DUP5 DUP3 PUSH1 0x20 DUP7 ADD PUSH2 0x540 JUMP JUMPDEST SWAP2 POP POP SWAP3 SWAP2 POP POP JUMP JUMPDEST PUSH1 0x0 DUP2 CALLDATALOAD SWAP1 POP PUSH2 0x5D4 DUP2 PUSH2 0xA08 JUMP JUMPDEST SWAP3 SWAP2 POP POP JUMP JUMPDEST PUSH1 0x0 PUSH1 0x20 DUP3 DUP5 SUB SLT ISZERO PUSH2 0x5F0 JUMPI PUSH2 0x5EF PUSH2 0x9DB JUMP JUMPDEST JUMPDEST PUSH1 0x0 PUSH2 0x5FE DUP5 DUP3 DUP6 ADD PUSH2 0x582 JUMP JUMPDEST SWAP2 POP POP SWAP3 SWAP2 POP POP JUMP JUMPDEST PUSH1 0x0 DUP1 PUSH1 0x0 PUSH1 0x60 DUP5 DUP7 SUB SLT ISZERO PUSH2 0x620 JUMPI PUSH2 0x61F PUSH2 0x9DB JUMP JUMPDEST JUMPDEST PUSH1 0x0 PUSH2 0x62E DUP7 DUP3 DUP8 ADD PUSH2 0x582 JUMP JUMPDEST SWAP4 POP POP PUSH1 0x20 PUSH2 0x63F DUP7 DUP3 DUP8 ADD PUSH2 0x5C5 JUMP JUMPDEST SWAP3 POP POP PUSH1 0x40 PUSH2 0x650 DUP7 DUP3 DUP8 ADD PUSH2 0x5C5 JUMP JUMPDEST SWAP2 POP POP SWAP3 POP SWAP3 POP SWAP3 JUMP JUMPDEST PUSH1 0x0 DUP1 PUSH1 0x40 DUP4 DUP6 SUB SLT ISZERO PUSH2 0x671 JUMPI PUSH2 0x670 PUSH2 0x9DB JUMP JUMPDEST JUMPDEST PUSH1 0x0 DUP4 ADD CALLDATALOAD PUSH8 0xFFFFFFFFFFFFFFFF DUP2 GT ISZERO PUSH2 0x68F JUMPI PUSH2 0x68E PUSH2 0x9D6 JUMP JUMPDEST JUMPDEST PUSH2 0x69B DUP6 DUP3 DUP7 ADD PUSH2 0x597 JUMP JUMPDEST SWAP3 POP POP PUSH1 0x20 DUP4 ADD CALLDATALOAD PUSH8 0xFFFFFFFFFFFFFFFF DUP2 GT ISZERO PUSH2 0x6BC JUMPI PUSH2 0x6BB PUSH2 0x9D6 JUMP JUMPDEST JUMPDEST PUSH2 0x6C8 DUP6 DUP3 DUP7 ADD PUSH2 0x597 JUMP JUMPDEST SWAP2 POP POP SWAP3 POP SWAP3 SWAP1 POP JUMP JUMPDEST PUSH2 0x6DB DUP2 PUSH2 0x81B JUMP JUMPDEST DUP3 MSTORE POP POP JUMP JUMPDEST PUSH1 0x0 PUSH2 0x6EC DUP3 PUSH2 0x7ED JUMP JUMPDEST PUSH2 0x6F6 DUP2 DUP6 PUSH2 0x7F8 JUMP JUMPDEST SWAP4 POP PUSH2 0x706 DUP2 DUP6 PUSH1 0x20 DUP7 ADD PUSH2 0x860 JUMP JUMPDEST PUSH2 0x70F DUP2 PUSH2 0x9E0 JUMP JUMPDEST DUP5 ADD SWAP2 POP POP SWAP3 SWAP2 POP POP JUMP JUMPDEST PUSH2 0x723 DUP2 PUSH2 0x847 JUMP JUMPDEST DUP3 MSTORE POP POP JUMP JUMPDEST PUSH1 0x0 PUSH1 0x20 DUP3 ADD SWAP1 POP PUSH2 0x73E PUSH1 0x0 DUP4 ADD DUP5 PUSH2 0x71A JUMP JUMPDEST SWAP3 SWAP2 POP POP JUMP JUMPDEST PUSH1 0x0 PUSH1 0x80 DUP3 ADD SWAP1 POP PUSH2 0x759 PUSH1 0x0 DUP4 ADD DUP8 PUSH2 0x71A JUMP JUMPDEST DUP2 DUP2 SUB PUSH1 0x20 DUP4 ADD MSTORE PUSH2 0x76B DUP2 DUP7 PUSH2 0x6E1 JUMP JUMPDEST SWAP1 POP DUP2 DUP2 SUB PUSH1 0x40 DUP4 ADD MSTORE PUSH2 0x77F DUP2 DUP6 PUSH2 0x6E1 JUMP JUMPDEST SWAP1 POP PUSH2 0x78E PUSH1 0x60 DUP4 ADD DUP5 PUSH2 0x6D2 JUMP JUMPDEST SWAP6 SWAP5 POP POP POP POP POP JUMP JUMPDEST PUSH1 0x0 PUSH2 0x7A1 PUSH2 0x7B2 JUMP JUMPDEST SWAP1 POP PUSH2 0x7AD DUP3 DUP3 PUSH2 0x8C5 JUMP JUMPDEST SWAP2 SWAP1 POP JUMP JUMPDEST PUSH1 0x0 PUSH1 0x40 MLOAD SWAP1 POP SWAP1 JUMP JUMPDEST PUSH1 0x0 PUSH8 0xFFFFFFFFFFFFFFFF DUP3 GT ISZERO PUSH2 0x7D7 JUMPI PUSH2 0x7D6 PUSH2 0x99D JUMP JUMPDEST JUMPDEST PUSH2 0x7E0 DUP3 PUSH2 0x9E0 JUMP JUMPDEST SWAP1 POP PUSH1 0x20 DUP2 ADD SWAP1 POP SWAP2 SWAP1 POP JUMP JUMPDEST PUSH1 0x0 DUP2 MLOAD SWAP1 POP SWAP2 SWAP1 POP JUMP JUMPDEST PUSH1 0x0 DUP3 DUP3 MSTORE PUSH1 0x20 DUP3 ADD SWAP1 POP SWAP3 SWAP2 POP POP JUMP JUMPDEST PUSH1 0x0 PUSH2 0x814 DUP3 PUSH2 0x827 JUMP JUMPDEST SWAP1 POP SWAP2 SWAP1 POP JUMP JUMPDEST PUSH1 0x0 DUP2 ISZERO ISZERO SWAP1 POP SWAP2 SWAP1 POP JUMP JUMPDEST PUSH1 0x0 PUSH20 0xFFFFFFFFFFFFFFFFFFFFFFFFFFFFFFFFFFFFFFFF DUP3 AND SWAP1 POP SWAP2 SWAP1 POP JUMP JUMPDEST PUSH1 0x0 DUP2 SWAP1 POP SWAP2 SWAP1 POP JUMP JUMPDEST DUP3 DUP2 DUP4 CALLDATACOPY PUSH1 0x0 DUP4 DUP4 ADD MSTORE POP POP POP JUMP JUMPDEST PUSH1 0x0 JUMPDEST DUP4 DUP2 LT ISZERO PUSH2 0x87E JUMPI DUP1 DUP3 ADD MLOAD DUP2 DUP5 ADD MSTORE PUSH1 0x20 DUP2 ADD SWAP1 POP PUSH2 0x863 JUMP JUMPDEST DUP4 DUP2 GT ISZERO PUSH2 0x88D JUMPI PUSH1 0x0 DUP5 DUP5 ADD MSTORE JUMPDEST POP POP POP POP JUMP JUMPDEST PUSH1 0x0 PUSH1 0x2 DUP3 DIV SWAP1 POP PUSH1 0x1 DUP3 AND DUP1 PUSH2 0x8AB JUMPI PUSH1 0x7F DUP3 AND SWAP2 POP JUMPDEST PUSH1 0x20 DUP3 LT DUP2 EQ ISZERO PUSH2 0x8BF JUMPI PUSH2 0x8BE PUSH2 0x96E JUMP JUMPDEST JUMPDEST POP SWAP2 SWAP1 POP JUMP JUMPDEST PUSH2 0x8CE DUP3 PUSH2 0x9E0 JUMP JUMPDEST DUP2 ADD DUP2 DUP2 LT PUSH8 0xFFFFFFFFFFFFFFFF DUP3 GT OR ISZERO PUSH2 0x8ED JUMPI PUSH2 0x8EC PUSH2 0x99D JUMP JUMPDEST JUMPDEST DUP1 PUSH1 0x40 MSTORE POP POP POP JUMP JUMPDEST PUSH1 0x0 PUSH2 0x901 DUP3 PUSH2 0x847 JUMP JUMPDEST SWAP2 POP PUSH32 0xFFFFFFFFFFFFFFFFFFFFFFFFFFFFFFFFFFFFFFFFFFFFFFFFFFFFFFFFFFFFFFFF DUP3 EQ ISZERO PUSH2 0x934 JUMPI PUSH2 0x933 PUSH2 0x93F JUMP JUMPDEST JUMPDEST PUSH1 0x1 DUP3 ADD SWAP1 POP SWAP2 SWAP1 POP JUMP JUMPDEST PUSH32 0x4E487B7100000000000000000000000000000000000000000000000000000000 PUSH1 0x0 MSTORE PUSH1 0x11 PUSH1 0x4 MSTORE PUSH1 0x24 PUSH1 0x0 REVERT JUMPDEST PUSH32 0x4E487B7100000000000000000000000000000000000000000000000000000000 PUSH1 0x0 MSTORE PUSH1 0x22 PUSH1 0x4 MSTORE PUSH1 0x24 PUSH1 0x0 REVERT JUMPDEST PUSH32 0x4E487B7100000000000000000000000000000000000000000000000000000000 PUSH1 0x0 MSTORE PUSH1 0x41 PUSH1 0x4 MSTORE PUSH1 0x24 PUSH1 0x0 REVERT JUMPDEST PUSH1 0x0 DUP1 REVERT JUMPDEST PUSH1 0x0 DUP1 REVERT JUMPDEST PUSH1 0x0 DUP1 REVERT JUMPDEST PUSH1 0x0 DUP1 REVERT JUMPDEST PUSH1 0x0 PUSH1 0x1F NOT PUSH1 0x1F DUP4 ADD AND SWAP1 POP SWAP2 SWAP1 POP JUMP JUMPDEST PUSH2 0x9FA DUP2 PUSH2 0x809 JUMP JUMPDEST DUP2 EQ PUSH2 0xA05 JUMPI PUSH1 0x0 DUP1 REVERT JUMPDEST POP JUMP JUMPDEST PUSH2 0xA11 DUP2 PUSH2 0x847 JUMP JUMPDEST DUP2 EQ PUSH2 0xA1C JUMPI PUSH1 0x0 DUP1 REVERT JUMPDEST POP JUMP INVALID LOG2 PUSH5 0x6970667358 0x22 SLT KECCAK256 0x2E 0x25 0x27 0xB4 0xD5 0xA8 EXTCODECOPY 0x49 SWAP16 0xBB 0xCE 0xBC DUP2 EXTCODESIZE CALLDATACOPY CALLCODE AND PUSH11 0x90075D61CB4BD50D3C8029 0x28 GAS DUP6 PUSH5 0x736F6C6343 STOP ADDMOD SMOD STOP CALLER "
				},
				"gasEstimates": {
					"creation": {
						"codeDepositCost": "529000",
						"executionCost": "562",
						"totalCost": "529562"
					},
					"external": {
						"addTodo(string,string)": "infinite",
						"counter(address)": "2836",
						"getAmount()": "2570",
						"todos(address,uint256,uint256)": "infinite"
					}
				},
				"methodIdentifiers": {
					"addTodo(string,string)": "1b7fb260",
					"counter(address)": "c12327b8",
					"getAmount()": "d321fe29",
					"todos(address,uint256,uint256)": "97292ce5"
				}
			},
			"storageLayout": {
				"storage": [
					{
						"astId": 20,
						"contract": "ToDoApp.sol:ToDoApp",
						"label": "todos",
						"offset": 0,
						"slot": "0",
						"type": "t_mapping(t_address,t_mapping(t_uint256,t_array(t_struct(ToDo)11_storage)dyn_storage))"
					},
					{
						"astId": 24,
						"contract": "ToDoApp.sol:ToDoApp",
						"label": "counter",
						"offset": 0,
						"slot": "1",
						"type": "t_mapping(t_address,t_uint256)"
					}
				],
				"types": {
					"t_address": {
						"encoding": "inplace",
						"label": "address",
						"numberOfBytes": "20"
					},
					"t_array(t_struct(ToDo)11_storage)dyn_storage": {
						"base": "t_struct(ToDo)11_storage",
						"encoding": "dynamic_array",
						"label": "struct ToDoApp.ToDo[]",
						"numberOfBytes": "32"
					},
					"t_bool": {
						"encoding": "inplace",
						"label": "bool",
						"numberOfBytes": "1"
					},
					"t_mapping(t_address,t_mapping(t_uint256,t_array(t_struct(ToDo)11_storage)dyn_storage))": {
						"encoding": "mapping",
						"key": "t_address",
						"label": "mapping(address => mapping(uint256 => struct ToDoApp.ToDo[]))",
						"numberOfBytes": "32",
						"value": "t_mapping(t_uint256,t_array(t_struct(ToDo)11_storage)dyn_storage)"
					},
					"t_mapping(t_address,t_uint256)": {
						"encoding": "mapping",
						"key": "t_address",
						"label": "mapping(address => uint256)",
						"numberOfBytes": "32",
						"value": "t_uint256"
					},
					"t_mapping(t_uint256,t_array(t_struct(ToDo)11_storage)dyn_storage)": {
						"encoding": "mapping",
						"key": "t_uint256",
						"label": "mapping(uint256 => struct ToDoApp.ToDo[])",
						"numberOfBytes": "32",
						"value": "t_array(t_struct(ToDo)11_storage)dyn_storage"
					},
					"t_string_storage": {
						"encoding": "bytes",
						"label": "string",
						"numberOfBytes": "32"
					},
					"t_struct(ToDo)11_storage": {
						"encoding": "inplace",
						"label": "struct ToDoApp.ToDo",
						"members": [
							{
								"astId": 4,
								"contract": "ToDoApp.sol:ToDoApp",
								"label": "id",
								"offset": 0,
								"slot": "0",
								"type": "t_uint256"
							},
							{
								"astId": 6,
								"contract": "ToDoApp.sol:ToDoApp",
								"label": "name",
								"offset": 0,
								"slot": "1",
								"type": "t_string_storage"
							},
							{
								"astId": 8,
								"contract": "ToDoApp.sol:ToDoApp",
								"label": "content",
								"offset": 0,
								"slot": "2",
								"type": "t_string_storage"
							},
							{
								"astId": 10,
								"contract": "ToDoApp.sol:ToDoApp",
								"label": "status",
								"offset": 0,
								"slot": "3",
								"type": "t_bool"
							}
						],
						"numberOfBytes": "128"
					},
					"t_uint256": {
						"encoding": "inplace",
						"label": "uint256",
						"numberOfBytes": "32"
					}
				}
			},
			"userdoc": {
				"kind": "user",
				"methods": {
					"addTodo(string,string)": {
						"notice": "Add new todo to memory. ID defaults to counter index and status defaults to false"
					},
					"constructor": {
						"notice": "Constructor"
					},
					"getAmount()": {
						"notice": "Get amount of todos"
					},
					"todos(address,uint256,uint256)": {
						"notice": "Mappings"
					}
				},
				"notice": "A simple ToDo smart contract app",
				"version": 1
			}
		}
	}
}