{
	"ToDoApp.sol": {
		"ToDoApp": {
			"abi": [
				{
					"inputs": [],
					"stateMutability": "nonpayable",
					"type": "constructor"
				},
				{
					"inputs": [
						{
							"internalType": "string",
							"name": "name",
							"type": "string"
						},
						{
							"internalType": "string",
							"name": "content",
							"type": "string"
						}
					],
					"name": "addTodo",
					"outputs": [],
					"stateMutability": "nonpayable",
					"type": "function"
				},
				{
					"inputs": [
						{
							"internalType": "address",
							"name": "",
							"type": "address"
						}
					],
					"name": "counter",
					"outputs": [
						{
							"internalType": "uint256",
							"name": "",
							"type": "uint256"
						}
					],
					"stateMutability": "view",
					"type": "function"
				},
				{
					"inputs": [],
					"name": "getAmount",
					"outputs": [
						{
							"internalType": "uint256",
							"name": "",
							"type": "uint256"
						}
					],
					"stateMutability": "view",
					"type": "function"
				},
				{
					"inputs": [
						{
							"internalType": "uint256",
							"name": "id",
							"type": "uint256"
						}
					],
					"name": "getTodo",
					"outputs": [
						{
							"components": [
								{
									"internalType": "uint256",
									"name": "id",
									"type": "uint256"
								},
								{
									"internalType": "string",
									"name": "name",
									"type": "string"
								},
								{
									"internalType": "string",
									"name": "content",
									"type": "string"
								},
								{
									"internalType": "bool",
									"name": "status",
									"type": "bool"
								}
							],
							"internalType": "struct ToDoApp.ToDo",
							"name": "",
							"type": "tuple"
						}
					],
					"stateMutability": "view",
					"type": "function"
				},
				{
					"inputs": [
						{
							"internalType": "address",
							"name": "",
							"type": "address"
						}
					],
					"name": "todos",
					"outputs": [
						{
							"internalType": "uint256",
							"name": "id",
							"type": "uint256"
						},
						{
							"internalType": "string",
							"name": "name",
							"type": "string"
						},
						{
							"internalType": "string",
							"name": "content",
							"type": "string"
						},
						{
							"internalType": "bool",
							"name": "status",
							"type": "bool"
						}
					],
					"stateMutability": "view",
					"type": "function"
				}
			],
			"devdoc": {
				"kind": "dev",
				"methods": {},
				"version": 1
			},
			"evm": {
				"assembly": "    /* \"ToDoApp.sol\":120:1429  contract ToDoApp {... */\n  mstore(0x40, 0x80)\n    /* \"ToDoApp.sol\":481:497  constructor() {} */\n  callvalue\n  dup1\n  iszero\n  tag_1\n  jumpi\n  0x00\n  dup1\n  revert\ntag_1:\n  pop\n    /* \"ToDoApp.sol\":120:1429  contract ToDoApp {... */\n  dataSize(sub_0)\n  dup1\n  dataOffset(sub_0)\n  0x00\n  codecopy\n  0x00\n  return\nstop\n\nsub_0: assembly {\n        /* \"ToDoApp.sol\":120:1429  contract ToDoApp {... */\n      mstore(0x40, 0x80)\n      callvalue\n      dup1\n      iszero\n      tag_1\n      jumpi\n      0x00\n      dup1\n      revert\n    tag_1:\n      pop\n      jumpi(tag_2, lt(calldatasize, 0x04))\n      shr(0xe0, calldataload(0x00))\n      dup1\n      0x1b7fb260\n      eq\n      tag_3\n      jumpi\n      dup1\n      0x56a68c00\n      eq\n      tag_4\n      jumpi\n      dup1\n      0xc12327b8\n      eq\n      tag_5\n      jumpi\n      dup1\n      0xd321fe29\n      eq\n      tag_6\n      jumpi\n      dup1\n      0xdd68afb6\n      eq\n      tag_7\n      jumpi\n    tag_2:\n      0x00\n      dup1\n      revert\n        /* \"ToDoApp.sol\":608:869  function addTodo(string memory name, string memory content) public {... */\n    tag_3:\n      tag_8\n      0x04\n      dup1\n      calldatasize\n      sub\n      dup2\n      add\n      swap1\n      tag_9\n      swap2\n      swap1\n      tag_10\n      jump\t// in\n    tag_9:\n      tag_11\n      jump\t// in\n    tag_8:\n      stop\n        /* \"ToDoApp.sol\":353:390  mapping(address => ToDo) public todos */\n    tag_4:\n      tag_12\n      0x04\n      dup1\n      calldatasize\n      sub\n      dup2\n      add\n      swap1\n      tag_13\n      swap2\n      swap1\n      tag_14\n      jump\t// in\n    tag_13:\n      tag_15\n      jump\t// in\n    tag_12:\n      mload(0x40)\n      tag_16\n      swap5\n      swap4\n      swap3\n      swap2\n      swap1\n      tag_17\n      jump\t// in\n    tag_16:\n      mload(0x40)\n      dup1\n      swap2\n      sub\n      swap1\n      return\n        /* \"ToDoApp.sol\":396:438  mapping(address => uint256) public counter */\n    tag_5:\n      tag_18\n      0x04\n      dup1\n      calldatasize\n      sub\n      dup2\n      add\n      swap1\n      tag_19\n      swap2\n      swap1\n      tag_14\n      jump\t// in\n    tag_19:\n      tag_20\n      jump\t// in\n    tag_18:\n      mload(0x40)\n      tag_21\n      swap2\n      swap1\n      tag_22\n      jump\t// in\n    tag_21:\n      mload(0x40)\n      dup1\n      swap2\n      sub\n      swap1\n      return\n        /* \"ToDoApp.sol\":1057:1146  function getAmount() public view returns(uint){... */\n    tag_6:\n      tag_23\n      tag_24\n      jump\t// in\n    tag_23:\n      mload(0x40)\n      tag_25\n      swap2\n      swap1\n      tag_22\n      jump\t// in\n    tag_25:\n      mload(0x40)\n      dup1\n      swap2\n      sub\n      swap1\n      return\n        /* \"ToDoApp.sol\":907:1007  function getTodo(uint id) public view returns(ToDo memory) {... */\n    tag_7:\n      tag_26\n      0x04\n      dup1\n      calldatasize\n      sub\n      dup2\n      add\n      swap1\n      tag_27\n      swap2\n      swap1\n      tag_28\n      jump\t// in\n    tag_27:\n      tag_29\n      jump\t// in\n    tag_26:\n      mload(0x40)\n      tag_30\n      swap2\n      swap1\n      tag_31\n      jump\t// in\n    tag_30:\n      mload(0x40)\n      dup1\n      swap2\n      sub\n      swap1\n      return\n        /* \"ToDoApp.sol\":608:869  function addTodo(string memory name, string memory content) public {... */\n    tag_11:\n        /* \"ToDoApp.sol\":747:794  ToDo(counter[msg.sender], name, content, false) */\n      mload(0x40)\n      dup1\n      0x80\n      add\n      0x40\n      mstore\n      dup1\n        /* \"ToDoApp.sol\":752:759  counter */\n      0x01\n        /* \"ToDoApp.sol\":752:771  counter[msg.sender] */\n      0x00\n        /* \"ToDoApp.sol\":760:770  msg.sender */\n      caller\n        /* \"ToDoApp.sol\":752:771  counter[msg.sender] */\n      0xffffffffffffffffffffffffffffffffffffffff\n      and\n      0xffffffffffffffffffffffffffffffffffffffff\n      and\n      dup2\n      mstore\n      0x20\n      add\n      swap1\n      dup2\n      mstore\n      0x20\n      add\n      0x00\n      keccak256\n      sload\n        /* \"ToDoApp.sol\":747:794  ToDo(counter[msg.sender], name, content, false) */\n      dup2\n      mstore\n      0x20\n      add\n        /* \"ToDoApp.sol\":773:777  name */\n      dup4\n        /* \"ToDoApp.sol\":747:794  ToDo(counter[msg.sender], name, content, false) */\n      dup2\n      mstore\n      0x20\n      add\n        /* \"ToDoApp.sol\":779:786  content */\n      dup3\n        /* \"ToDoApp.sol\":747:794  ToDo(counter[msg.sender], name, content, false) */\n      dup2\n      mstore\n      0x20\n      add\n        /* \"ToDoApp.sol\":788:793  false */\n      0x00\n        /* \"ToDoApp.sol\":747:794  ToDo(counter[msg.sender], name, content, false) */\n      iszero\n      iszero\n      dup2\n      mstore\n      pop\n        /* \"ToDoApp.sol\":727:732  todos */\n      0x00\n        /* \"ToDoApp.sol\":727:744  todos[msg.sender] */\n      dup1\n        /* \"ToDoApp.sol\":733:743  msg.sender */\n      caller\n        /* \"ToDoApp.sol\":727:744  todos[msg.sender] */\n      0xffffffffffffffffffffffffffffffffffffffff\n      and\n      0xffffffffffffffffffffffffffffffffffffffff\n      and\n      dup2\n      mstore\n      0x20\n      add\n      swap1\n      dup2\n      mstore\n      0x20\n      add\n      0x00\n      keccak256\n        /* \"ToDoApp.sol\":727:794  todos[msg.sender] = ToDo(counter[msg.sender], name, content, false) */\n      0x00\n      dup3\n      add\n      mload\n      dup2\n      0x00\n      add\n      sstore\n      0x20\n      dup3\n      add\n      mload\n      dup2\n      0x01\n      add\n      swap1\n      dup1\n      mload\n      swap1\n      0x20\n      add\n      swap1\n      tag_33\n      swap3\n      swap2\n      swap1\n      tag_34\n      jump\t// in\n    tag_33:\n      pop\n      0x40\n      dup3\n      add\n      mload\n      dup2\n      0x02\n      add\n      swap1\n      dup1\n      mload\n      swap1\n      0x20\n      add\n      swap1\n      tag_35\n      swap3\n      swap2\n      swap1\n      tag_34\n      jump\t// in\n    tag_35:\n      pop\n      0x60\n      dup3\n      add\n      mload\n      dup2\n      0x03\n      add\n      exp(0x0100, 0x00)\n      dup2\n      sload\n      dup2\n      0xff\n      mul\n      not\n      and\n      swap1\n      dup4\n      iszero\n      iszero\n      mul\n      or\n      swap1\n      sstore\n      pop\n      swap1\n      pop\n      pop\n        /* \"ToDoApp.sol\":841:848  counter */\n      0x01\n        /* \"ToDoApp.sol\":841:860  counter[msg.sender] */\n      0x00\n        /* \"ToDoApp.sol\":849:859  msg.sender */\n      caller\n        /* \"ToDoApp.sol\":841:860  counter[msg.sender] */\n      0xffffffffffffffffffffffffffffffffffffffff\n      and\n      0xffffffffffffffffffffffffffffffffffffffff\n      and\n      dup2\n      mstore\n      0x20\n      add\n      swap1\n      dup2\n      mstore\n      0x20\n      add\n      0x00\n      keccak256\n      0x00\n        /* \"ToDoApp.sol\":841:862  counter[msg.sender]++ */\n      dup2\n      sload\n      dup1\n      swap3\n      swap2\n      swap1\n      tag_36\n      swap1\n      tag_37\n      jump\t// in\n    tag_36:\n      swap2\n      swap1\n      pop\n      sstore\n      pop\n        /* \"ToDoApp.sol\":608:869  function addTodo(string memory name, string memory content) public {... */\n      pop\n      pop\n      jump\t// out\n        /* \"ToDoApp.sol\":353:390  mapping(address => ToDo) public todos */\n    tag_15:\n      mstore(0x20, 0x00)\n      dup1\n      0x00\n      mstore\n      keccak256(0x00, 0x40)\n      0x00\n      swap2\n      pop\n      swap1\n      pop\n      dup1\n      0x00\n      add\n      sload\n      swap1\n      dup1\n      0x01\n      add\n      dup1\n      sload\n      tag_38\n      swap1\n      tag_39\n      jump\t// in\n    tag_38:\n      dup1\n      0x1f\n      add\n      0x20\n      dup1\n      swap2\n      div\n      mul\n      0x20\n      add\n      mload(0x40)\n      swap1\n      dup2\n      add\n      0x40\n      mstore\n      dup1\n      swap3\n      swap2\n      swap1\n      dup2\n      dup2\n      mstore\n      0x20\n      add\n      dup3\n      dup1\n      sload\n      tag_40\n      swap1\n      tag_39\n      jump\t// in\n    tag_40:\n      dup1\n      iszero\n      tag_41\n      jumpi\n      dup1\n      0x1f\n      lt\n      tag_42\n      jumpi\n      0x0100\n      dup1\n      dup4\n      sload\n      div\n      mul\n      dup4\n      mstore\n      swap2\n      0x20\n      add\n      swap2\n      jump(tag_41)\n    tag_42:\n      dup3\n      add\n      swap2\n      swap1\n      0x00\n      mstore\n      keccak256(0x00, 0x20)\n      swap1\n    tag_43:\n      dup2\n      sload\n      dup2\n      mstore\n      swap1\n      0x01\n      add\n      swap1\n      0x20\n      add\n      dup1\n      dup4\n      gt\n      tag_43\n      jumpi\n      dup3\n      swap1\n      sub\n      0x1f\n      and\n      dup3\n      add\n      swap2\n    tag_41:\n      pop\n      pop\n      pop\n      pop\n      pop\n      swap1\n      dup1\n      0x02\n      add\n      dup1\n      sload\n      tag_44\n      swap1\n      tag_39\n      jump\t// in\n    tag_44:\n      dup1\n      0x1f\n      add\n      0x20\n      dup1\n      swap2\n      div\n      mul\n      0x20\n      add\n      mload(0x40)\n      swap1\n      dup2\n      add\n      0x40\n      mstore\n      dup1\n      swap3\n      swap2\n      swap1\n      dup2\n      dup2\n      mstore\n      0x20\n      add\n      dup3\n      dup1\n      sload\n      tag_45\n      swap1\n      tag_39\n      jump\t// in\n    tag_45:\n      dup1\n      iszero\n      tag_46\n      jumpi\n      dup1\n      0x1f\n      lt\n      tag_47\n      jumpi\n      0x0100\n      dup1\n      dup4\n      sload\n      div\n      mul\n      dup4\n      mstore\n      swap2\n      0x20\n      add\n      swap2\n      jump(tag_46)\n    tag_47:\n      dup3\n      add\n      swap2\n      swap1\n      0x00\n      mstore\n      keccak256(0x00, 0x20)\n      swap1\n    tag_48:\n      dup2\n      sload\n      dup2\n      mstore\n      swap1\n      0x01\n      add\n      swap1\n      0x20\n      add\n      dup1\n      dup4\n      gt\n      tag_48\n      jumpi\n      dup3\n      swap1\n      sub\n      0x1f\n      and\n      dup3\n      add\n      swap2\n    tag_46:\n      pop\n      pop\n      pop\n      pop\n      pop\n      swap1\n      dup1\n      0x03\n      add\n      0x00\n      swap1\n      sload\n      swap1\n      0x0100\n      exp\n      swap1\n      div\n      0xff\n      and\n      swap1\n      pop\n      dup5\n      jump\t// out\n        /* \"ToDoApp.sol\":396:438  mapping(address => uint256) public counter */\n    tag_20:\n      mstore(0x20, 0x01)\n      dup1\n      0x00\n      mstore\n      keccak256(0x00, 0x40)\n      0x00\n      swap2\n      pop\n      swap1\n      pop\n      sload\n      dup2\n      jump\t// out\n        /* \"ToDoApp.sol\":1057:1146  function getAmount() public view returns(uint){... */\n    tag_24:\n        /* \"ToDoApp.sol\":1098:1102  uint */\n      0x00\n        /* \"ToDoApp.sol\":1120:1127  counter */\n      0x01\n        /* \"ToDoApp.sol\":1120:1139  counter[msg.sender] */\n      0x00\n        /* \"ToDoApp.sol\":1128:1138  msg.sender */\n      caller\n        /* \"ToDoApp.sol\":1120:1139  counter[msg.sender] */\n      0xffffffffffffffffffffffffffffffffffffffff\n      and\n      0xffffffffffffffffffffffffffffffffffffffff\n      and\n      dup2\n      mstore\n      0x20\n      add\n      swap1\n      dup2\n      mstore\n      0x20\n      add\n      0x00\n      keccak256\n      sload\n        /* \"ToDoApp.sol\":1113:1139  return counter[msg.sender] */\n      swap1\n      pop\n        /* \"ToDoApp.sol\":1057:1146  function getAmount() public view returns(uint){... */\n      swap1\n      jump\t// out\n        /* \"ToDoApp.sol\":907:1007  function getTodo(uint id) public view returns(ToDo memory) {... */\n    tag_29:\n        /* \"ToDoApp.sol\":953:964  ToDo memory */\n      tag_50\n      tag_51\n      jump\t// in\n    tag_50:\n        /* \"ToDoApp.sol\":983:988  todos */\n      0x00\n        /* \"ToDoApp.sol\":983:1000  todos[msg.sender] */\n      dup1\n        /* \"ToDoApp.sol\":989:999  msg.sender */\n      caller\n        /* \"ToDoApp.sol\":983:1000  todos[msg.sender] */\n      0xffffffffffffffffffffffffffffffffffffffff\n      and\n      0xffffffffffffffffffffffffffffffffffffffff\n      and\n      dup2\n      mstore\n      0x20\n      add\n      swap1\n      dup2\n      mstore\n      0x20\n      add\n      0x00\n      keccak256\n        /* \"ToDoApp.sol\":976:1000  return todos[msg.sender] */\n      mload(0x40)\n      dup1\n      0x80\n      add\n      0x40\n      mstore\n      swap1\n      dup2\n      0x00\n      dup3\n      add\n      sload\n      dup2\n      mstore\n      0x20\n      add\n      0x01\n      dup3\n      add\n      dup1\n      sload\n      tag_53\n      swap1\n      tag_39\n      jump\t// in\n    tag_53:\n      dup1\n      0x1f\n      add\n      0x20\n      dup1\n      swap2\n      div\n      mul\n      0x20\n      add\n      mload(0x40)\n      swap1\n      dup2\n      add\n      0x40\n      mstore\n      dup1\n      swap3\n      swap2\n      swap1\n      dup2\n      dup2\n      mstore\n      0x20\n      add\n      dup3\n      dup1\n      sload\n      tag_54\n      swap1\n      tag_39\n      jump\t// in\n    tag_54:\n      dup1\n      iszero\n      tag_55\n      jumpi\n      dup1\n      0x1f\n      lt\n      tag_56\n      jumpi\n      0x0100\n      dup1\n      dup4\n      sload\n      div\n      mul\n      dup4\n      mstore\n      swap2\n      0x20\n      add\n      swap2\n      jump(tag_55)\n    tag_56:\n      dup3\n      add\n      swap2\n      swap1\n      0x00\n      mstore\n      keccak256(0x00, 0x20)\n      swap1\n    tag_57:\n      dup2\n      sload\n      dup2\n      mstore\n      swap1\n      0x01\n      add\n      swap1\n      0x20\n      add\n      dup1\n      dup4\n      gt\n      tag_57\n      jumpi\n      dup3\n      swap1\n      sub\n      0x1f\n      and\n      dup3\n      add\n      swap2\n    tag_55:\n      pop\n      pop\n      pop\n      pop\n      pop\n      dup2\n      mstore\n      0x20\n      add\n      0x02\n      dup3\n      add\n      dup1\n      sload\n      tag_58\n      swap1\n      tag_39\n      jump\t// in\n    tag_58:\n      dup1\n      0x1f\n      add\n      0x20\n      dup1\n      swap2\n      div\n      mul\n      0x20\n      add\n      mload(0x40)\n      swap1\n      dup2\n      add\n      0x40\n      mstore\n      dup1\n      swap3\n      swap2\n      swap1\n      dup2\n      dup2\n      mstore\n      0x20\n      add\n      dup3\n      dup1\n      sload\n      tag_59\n      swap1\n      tag_39\n      jump\t// in\n    tag_59:\n      dup1\n      iszero\n      tag_60\n      jumpi\n      dup1\n      0x1f\n      lt\n      tag_61\n      jumpi\n      0x0100\n      dup1\n      dup4\n      sload\n      div\n      mul\n      dup4\n      mstore\n      swap2\n      0x20\n      add\n      swap2\n      jump(tag_60)\n    tag_61:\n      dup3\n      add\n      swap2\n      swap1\n      0x00\n      mstore\n      keccak256(0x00, 0x20)\n      swap1\n    tag_62:\n      dup2\n      sload\n      dup2\n      mstore\n      swap1\n      0x01\n      add\n      swap1\n      0x20\n      add\n      dup1\n      dup4\n      gt\n      tag_62\n      jumpi\n      dup3\n      swap1\n      sub\n      0x1f\n      and\n      dup3\n      add\n      swap2\n    tag_60:\n      pop\n      pop\n      pop\n      pop\n      pop\n      dup2\n      mstore\n      0x20\n      add\n      0x03\n      dup3\n      add\n      0x00\n      swap1\n      sload\n      swap1\n      0x0100\n      exp\n      swap1\n      div\n      0xff\n      and\n      iszero\n      iszero\n      iszero\n      iszero\n      dup2\n      mstore\n      pop\n      pop\n      swap1\n      pop\n        /* \"ToDoApp.sol\":907:1007  function getTodo(uint id) public view returns(ToDo memory) {... */\n      swap2\n      swap1\n      pop\n      jump\t// out\n    tag_34:\n      dup3\n      dup1\n      sload\n      tag_63\n      swap1\n      tag_39\n      jump\t// in\n    tag_63:\n      swap1\n      0x00\n      mstore\n      keccak256(0x00, 0x20)\n      swap1\n      0x1f\n      add\n      0x20\n      swap1\n      div\n      dup2\n      add\n      swap3\n      dup3\n      tag_65\n      jumpi\n      0x00\n      dup6\n      sstore\n      jump(tag_64)\n    tag_65:\n      dup3\n      0x1f\n      lt\n      tag_66\n      jumpi\n      dup1\n      mload\n      not(0xff)\n      and\n      dup4\n      dup1\n      add\n      or\n      dup6\n      sstore\n      jump(tag_64)\n    tag_66:\n      dup3\n      dup1\n      add\n      0x01\n      add\n      dup6\n      sstore\n      dup3\n      iszero\n      tag_64\n      jumpi\n      swap2\n      dup3\n      add\n    tag_67:\n      dup3\n      dup2\n      gt\n      iszero\n      tag_68\n      jumpi\n      dup3\n      mload\n      dup3\n      sstore\n      swap2\n      0x20\n      add\n      swap2\n      swap1\n      0x01\n      add\n      swap1\n      jump(tag_67)\n    tag_68:\n    tag_64:\n      pop\n      swap1\n      pop\n      tag_69\n      swap2\n      swap1\n      tag_70\n      jump\t// in\n    tag_69:\n      pop\n      swap1\n      jump\t// out\n    tag_51:\n      mload(0x40)\n      dup1\n      0x80\n      add\n      0x40\n      mstore\n      dup1\n      0x00\n      dup2\n      mstore\n      0x20\n      add\n      0x60\n      dup2\n      mstore\n      0x20\n      add\n      0x60\n      dup2\n      mstore\n      0x20\n      add\n      iszero(iszero(0x00))\n      dup2\n      mstore\n      pop\n      swap1\n      jump\t// out\n    tag_70:\n    tag_71:\n      dup1\n      dup3\n      gt\n      iszero\n      tag_72\n      jumpi\n      0x00\n      dup2\n      0x00\n      swap1\n      sstore\n      pop\n      0x01\n      add\n      jump(tag_71)\n    tag_72:\n      pop\n      swap1\n      jump\t// out\n        /* \"#utility.yul\":7:419   */\n    tag_74:\n        /* \"#utility.yul\":85:90   */\n      0x00\n        /* \"#utility.yul\":110:176   */\n      tag_76\n        /* \"#utility.yul\":126:175   */\n      tag_77\n        /* \"#utility.yul\":168:174   */\n      dup5\n        /* \"#utility.yul\":126:175   */\n      tag_78\n      jump\t// in\n    tag_77:\n        /* \"#utility.yul\":110:176   */\n      tag_79\n      jump\t// in\n    tag_76:\n        /* \"#utility.yul\":101:176   */\n      swap1\n      pop\n        /* \"#utility.yul\":199:205   */\n      dup3\n        /* \"#utility.yul\":192:197   */\n      dup2\n        /* \"#utility.yul\":185:206   */\n      mstore\n        /* \"#utility.yul\":237:241   */\n      0x20\n        /* \"#utility.yul\":230:235   */\n      dup2\n        /* \"#utility.yul\":226:242   */\n      add\n        /* \"#utility.yul\":275:278   */\n      dup5\n        /* \"#utility.yul\":266:272   */\n      dup5\n        /* \"#utility.yul\":261:264   */\n      dup5\n        /* \"#utility.yul\":257:273   */\n      add\n        /* \"#utility.yul\":254:279   */\n      gt\n        /* \"#utility.yul\":251:363   */\n      iszero\n      tag_80\n      jumpi\n        /* \"#utility.yul\":282:361   */\n      tag_81\n      tag_82\n      jump\t// in\n    tag_81:\n        /* \"#utility.yul\":251:363   */\n    tag_80:\n        /* \"#utility.yul\":372:413   */\n      tag_83\n        /* \"#utility.yul\":406:412   */\n      dup5\n        /* \"#utility.yul\":401:404   */\n      dup3\n        /* \"#utility.yul\":396:399   */\n      dup6\n        /* \"#utility.yul\":372:413   */\n      tag_84\n      jump\t// in\n    tag_83:\n        /* \"#utility.yul\":91:419   */\n      pop\n        /* \"#utility.yul\":7:419   */\n      swap4\n      swap3\n      pop\n      pop\n      pop\n      jump\t// out\n        /* \"#utility.yul\":425:564   */\n    tag_85:\n        /* \"#utility.yul\":471:476   */\n      0x00\n        /* \"#utility.yul\":509:515   */\n      dup2\n        /* \"#utility.yul\":496:516   */\n      calldataload\n        /* \"#utility.yul\":487:516   */\n      swap1\n      pop\n        /* \"#utility.yul\":525:558   */\n      tag_87\n        /* \"#utility.yul\":552:557   */\n      dup2\n        /* \"#utility.yul\":525:558   */\n      tag_88\n      jump\t// in\n    tag_87:\n        /* \"#utility.yul\":425:564   */\n      swap3\n      swap2\n      pop\n      pop\n      jump\t// out\n        /* \"#utility.yul\":584:924   */\n    tag_89:\n        /* \"#utility.yul\":640:645   */\n      0x00\n        /* \"#utility.yul\":689:692   */\n      dup3\n        /* \"#utility.yul\":682:686   */\n      0x1f\n        /* \"#utility.yul\":674:680   */\n      dup4\n        /* \"#utility.yul\":670:687   */\n      add\n        /* \"#utility.yul\":666:693   */\n      slt\n        /* \"#utility.yul\":656:778   */\n      tag_91\n      jumpi\n        /* \"#utility.yul\":697:776   */\n      tag_92\n      tag_93\n      jump\t// in\n    tag_92:\n        /* \"#utility.yul\":656:778   */\n    tag_91:\n        /* \"#utility.yul\":814:820   */\n      dup2\n        /* \"#utility.yul\":801:821   */\n      calldataload\n        /* \"#utility.yul\":839:918   */\n      tag_94\n        /* \"#utility.yul\":914:917   */\n      dup5\n        /* \"#utility.yul\":906:912   */\n      dup3\n        /* \"#utility.yul\":899:903   */\n      0x20\n        /* \"#utility.yul\":891:897   */\n      dup7\n        /* \"#utility.yul\":887:904   */\n      add\n        /* \"#utility.yul\":839:918   */\n      tag_74\n      jump\t// in\n    tag_94:\n        /* \"#utility.yul\":830:918   */\n      swap2\n      pop\n        /* \"#utility.yul\":646:924   */\n      pop\n        /* \"#utility.yul\":584:924   */\n      swap3\n      swap2\n      pop\n      pop\n      jump\t// out\n        /* \"#utility.yul\":930:1069   */\n    tag_95:\n        /* \"#utility.yul\":976:981   */\n      0x00\n        /* \"#utility.yul\":1014:1020   */\n      dup2\n        /* \"#utility.yul\":1001:1021   */\n      calldataload\n        /* \"#utility.yul\":992:1021   */\n      swap1\n      pop\n        /* \"#utility.yul\":1030:1063   */\n      tag_97\n        /* \"#utility.yul\":1057:1062   */\n      dup2\n        /* \"#utility.yul\":1030:1063   */\n      tag_98\n      jump\t// in\n    tag_97:\n        /* \"#utility.yul\":930:1069   */\n      swap3\n      swap2\n      pop\n      pop\n      jump\t// out\n        /* \"#utility.yul\":1075:1404   */\n    tag_14:\n        /* \"#utility.yul\":1134:1140   */\n      0x00\n        /* \"#utility.yul\":1183:1185   */\n      0x20\n        /* \"#utility.yul\":1171:1180   */\n      dup3\n        /* \"#utility.yul\":1162:1169   */\n      dup5\n        /* \"#utility.yul\":1158:1181   */\n      sub\n        /* \"#utility.yul\":1154:1186   */\n      slt\n        /* \"#utility.yul\":1151:1270   */\n      iszero\n      tag_100\n      jumpi\n        /* \"#utility.yul\":1189:1268   */\n      tag_101\n      tag_102\n      jump\t// in\n    tag_101:\n        /* \"#utility.yul\":1151:1270   */\n    tag_100:\n        /* \"#utility.yul\":1309:1310   */\n      0x00\n        /* \"#utility.yul\":1334:1387   */\n      tag_103\n        /* \"#utility.yul\":1379:1386   */\n      dup5\n        /* \"#utility.yul\":1370:1376   */\n      dup3\n        /* \"#utility.yul\":1359:1368   */\n      dup6\n        /* \"#utility.yul\":1355:1377   */\n      add\n        /* \"#utility.yul\":1334:1387   */\n      tag_85\n      jump\t// in\n    tag_103:\n        /* \"#utility.yul\":1324:1387   */\n      swap2\n      pop\n        /* \"#utility.yul\":1280:1397   */\n      pop\n        /* \"#utility.yul\":1075:1404   */\n      swap3\n      swap2\n      pop\n      pop\n      jump\t// out\n        /* \"#utility.yul\":1410:2244   */\n    tag_10:\n        /* \"#utility.yul\":1498:1504   */\n      0x00\n        /* \"#utility.yul\":1506:1512   */\n      dup1\n        /* \"#utility.yul\":1555:1557   */\n      0x40\n        /* \"#utility.yul\":1543:1552   */\n      dup4\n        /* \"#utility.yul\":1534:1541   */\n      dup6\n        /* \"#utility.yul\":1530:1553   */\n      sub\n        /* \"#utility.yul\":1526:1558   */\n      slt\n        /* \"#utility.yul\":1523:1642   */\n      iszero\n      tag_105\n      jumpi\n        /* \"#utility.yul\":1561:1640   */\n      tag_106\n      tag_102\n      jump\t// in\n    tag_106:\n        /* \"#utility.yul\":1523:1642   */\n    tag_105:\n        /* \"#utility.yul\":1709:1710   */\n      0x00\n        /* \"#utility.yul\":1698:1707   */\n      dup4\n        /* \"#utility.yul\":1694:1711   */\n      add\n        /* \"#utility.yul\":1681:1712   */\n      calldataload\n        /* \"#utility.yul\":1739:1757   */\n      0xffffffffffffffff\n        /* \"#utility.yul\":1731:1737   */\n      dup2\n        /* \"#utility.yul\":1728:1758   */\n      gt\n        /* \"#utility.yul\":1725:1842   */\n      iszero\n      tag_107\n      jumpi\n        /* \"#utility.yul\":1761:1840   */\n      tag_108\n      tag_109\n      jump\t// in\n    tag_108:\n        /* \"#utility.yul\":1725:1842   */\n    tag_107:\n        /* \"#utility.yul\":1866:1929   */\n      tag_110\n        /* \"#utility.yul\":1921:1928   */\n      dup6\n        /* \"#utility.yul\":1912:1918   */\n      dup3\n        /* \"#utility.yul\":1901:1910   */\n      dup7\n        /* \"#utility.yul\":1897:1919   */\n      add\n        /* \"#utility.yul\":1866:1929   */\n      tag_89\n      jump\t// in\n    tag_110:\n        /* \"#utility.yul\":1856:1929   */\n      swap3\n      pop\n        /* \"#utility.yul\":1652:1939   */\n      pop\n        /* \"#utility.yul\":2006:2008   */\n      0x20\n        /* \"#utility.yul\":1995:2004   */\n      dup4\n        /* \"#utility.yul\":1991:2009   */\n      add\n        /* \"#utility.yul\":1978:2010   */\n      calldataload\n        /* \"#utility.yul\":2037:2055   */\n      0xffffffffffffffff\n        /* \"#utility.yul\":2029:2035   */\n      dup2\n        /* \"#utility.yul\":2026:2056   */\n      gt\n        /* \"#utility.yul\":2023:2140   */\n      iszero\n      tag_111\n      jumpi\n        /* \"#utility.yul\":2059:2138   */\n      tag_112\n      tag_109\n      jump\t// in\n    tag_112:\n        /* \"#utility.yul\":2023:2140   */\n    tag_111:\n        /* \"#utility.yul\":2164:2227   */\n      tag_113\n        /* \"#utility.yul\":2219:2226   */\n      dup6\n        /* \"#utility.yul\":2210:2216   */\n      dup3\n        /* \"#utility.yul\":2199:2208   */\n      dup7\n        /* \"#utility.yul\":2195:2217   */\n      add\n        /* \"#utility.yul\":2164:2227   */\n      tag_89\n      jump\t// in\n    tag_113:\n        /* \"#utility.yul\":2154:2227   */\n      swap2\n      pop\n        /* \"#utility.yul\":1949:2237   */\n      pop\n        /* \"#utility.yul\":1410:2244   */\n      swap3\n      pop\n      swap3\n      swap1\n      pop\n      jump\t// out\n        /* \"#utility.yul\":2250:2579   */\n    tag_28:\n        /* \"#utility.yul\":2309:2315   */\n      0x00\n        /* \"#utility.yul\":2358:2360   */\n      0x20\n        /* \"#utility.yul\":2346:2355   */\n      dup3\n        /* \"#utility.yul\":2337:2344   */\n      dup5\n        /* \"#utility.yul\":2333:2356   */\n      sub\n        /* \"#utility.yul\":2329:2361   */\n      slt\n        /* \"#utility.yul\":2326:2445   */\n      iszero\n      tag_115\n      jumpi\n        /* \"#utility.yul\":2364:2443   */\n      tag_116\n      tag_102\n      jump\t// in\n    tag_116:\n        /* \"#utility.yul\":2326:2445   */\n    tag_115:\n        /* \"#utility.yul\":2484:2485   */\n      0x00\n        /* \"#utility.yul\":2509:2562   */\n      tag_117\n        /* \"#utility.yul\":2554:2561   */\n      dup5\n        /* \"#utility.yul\":2545:2551   */\n      dup3\n        /* \"#utility.yul\":2534:2543   */\n      dup6\n        /* \"#utility.yul\":2530:2552   */\n      add\n        /* \"#utility.yul\":2509:2562   */\n      tag_95\n      jump\t// in\n    tag_117:\n        /* \"#utility.yul\":2499:2562   */\n      swap2\n      pop\n        /* \"#utility.yul\":2455:2572   */\n      pop\n        /* \"#utility.yul\":2250:2579   */\n      swap3\n      swap2\n      pop\n      pop\n      jump\t// out\n        /* \"#utility.yul\":2585:2684   */\n    tag_118:\n        /* \"#utility.yul\":2656:2677   */\n      tag_120\n        /* \"#utility.yul\":2671:2676   */\n      dup2\n        /* \"#utility.yul\":2656:2677   */\n      tag_121\n      jump\t// in\n    tag_120:\n        /* \"#utility.yul\":2651:2654   */\n      dup3\n        /* \"#utility.yul\":2644:2678   */\n      mstore\n        /* \"#utility.yul\":2585:2684   */\n      pop\n      pop\n      jump\t// out\n        /* \"#utility.yul\":2690:2799   */\n    tag_122:\n        /* \"#utility.yul\":2771:2792   */\n      tag_124\n        /* \"#utility.yul\":2786:2791   */\n      dup2\n        /* \"#utility.yul\":2771:2792   */\n      tag_121\n      jump\t// in\n    tag_124:\n        /* \"#utility.yul\":2766:2769   */\n      dup3\n        /* \"#utility.yul\":2759:2793   */\n      mstore\n        /* \"#utility.yul\":2690:2799   */\n      pop\n      pop\n      jump\t// out\n        /* \"#utility.yul\":2805:3149   */\n    tag_125:\n        /* \"#utility.yul\":2883:2886   */\n      0x00\n        /* \"#utility.yul\":2911:2950   */\n      tag_127\n        /* \"#utility.yul\":2944:2949   */\n      dup3\n        /* \"#utility.yul\":2911:2950   */\n      tag_128\n      jump\t// in\n    tag_127:\n        /* \"#utility.yul\":2966:3027   */\n      tag_129\n        /* \"#utility.yul\":3020:3026   */\n      dup2\n        /* \"#utility.yul\":3015:3018   */\n      dup6\n        /* \"#utility.yul\":2966:3027   */\n      tag_130\n      jump\t// in\n    tag_129:\n        /* \"#utility.yul\":2959:3027   */\n      swap4\n      pop\n        /* \"#utility.yul\":3036:3088   */\n      tag_131\n        /* \"#utility.yul\":3081:3087   */\n      dup2\n        /* \"#utility.yul\":3076:3079   */\n      dup6\n        /* \"#utility.yul\":3069:3073   */\n      0x20\n        /* \"#utility.yul\":3062:3067   */\n      dup7\n        /* \"#utility.yul\":3058:3074   */\n      add\n        /* \"#utility.yul\":3036:3088   */\n      tag_132\n      jump\t// in\n    tag_131:\n        /* \"#utility.yul\":3113:3142   */\n      tag_133\n        /* \"#utility.yul\":3135:3141   */\n      dup2\n        /* \"#utility.yul\":3113:3142   */\n      tag_134\n      jump\t// in\n    tag_133:\n        /* \"#utility.yul\":3108:3111   */\n      dup5\n        /* \"#utility.yul\":3104:3143   */\n      add\n        /* \"#utility.yul\":3097:3143   */\n      swap2\n      pop\n        /* \"#utility.yul\":2887:3149   */\n      pop\n        /* \"#utility.yul\":2805:3149   */\n      swap3\n      swap2\n      pop\n      pop\n      jump\t// out\n        /* \"#utility.yul\":3155:3519   */\n    tag_135:\n        /* \"#utility.yul\":3243:3246   */\n      0x00\n        /* \"#utility.yul\":3271:3310   */\n      tag_137\n        /* \"#utility.yul\":3304:3309   */\n      dup3\n        /* \"#utility.yul\":3271:3310   */\n      tag_128\n      jump\t// in\n    tag_137:\n        /* \"#utility.yul\":3326:3397   */\n      tag_138\n        /* \"#utility.yul\":3390:3396   */\n      dup2\n        /* \"#utility.yul\":3385:3388   */\n      dup6\n        /* \"#utility.yul\":3326:3397   */\n      tag_139\n      jump\t// in\n    tag_138:\n        /* \"#utility.yul\":3319:3397   */\n      swap4\n      pop\n        /* \"#utility.yul\":3406:3458   */\n      tag_140\n        /* \"#utility.yul\":3451:3457   */\n      dup2\n        /* \"#utility.yul\":3446:3449   */\n      dup6\n        /* \"#utility.yul\":3439:3443   */\n      0x20\n        /* \"#utility.yul\":3432:3437   */\n      dup7\n        /* \"#utility.yul\":3428:3444   */\n      add\n        /* \"#utility.yul\":3406:3458   */\n      tag_132\n      jump\t// in\n    tag_140:\n        /* \"#utility.yul\":3483:3512   */\n      tag_141\n        /* \"#utility.yul\":3505:3511   */\n      dup2\n        /* \"#utility.yul\":3483:3512   */\n      tag_134\n      jump\t// in\n    tag_141:\n        /* \"#utility.yul\":3478:3481   */\n      dup5\n        /* \"#utility.yul\":3474:3513   */\n      add\n        /* \"#utility.yul\":3467:3513   */\n      swap2\n      pop\n        /* \"#utility.yul\":3247:3519   */\n      pop\n        /* \"#utility.yul\":3155:3519   */\n      swap3\n      swap2\n      pop\n      pop\n      jump\t// out\n        /* \"#utility.yul\":3575:4587   */\n    tag_142:\n        /* \"#utility.yul\":3684:3687   */\n      0x00\n        /* \"#utility.yul\":3720:3724   */\n      0x80\n        /* \"#utility.yul\":3715:3718   */\n      dup4\n        /* \"#utility.yul\":3711:3725   */\n      add\n        /* \"#utility.yul\":3805:3809   */\n      0x00\n        /* \"#utility.yul\":3798:3803   */\n      dup4\n        /* \"#utility.yul\":3794:3810   */\n      add\n        /* \"#utility.yul\":3788:3811   */\n      mload\n        /* \"#utility.yul\":3824:3887   */\n      tag_144\n        /* \"#utility.yul\":3881:3885   */\n      0x00\n        /* \"#utility.yul\":3876:3879   */\n      dup7\n        /* \"#utility.yul\":3872:3886   */\n      add\n        /* \"#utility.yul\":3858:3870   */\n      dup3\n        /* \"#utility.yul\":3824:3887   */\n      tag_145\n      jump\t// in\n    tag_144:\n        /* \"#utility.yul\":3735:3897   */\n      pop\n        /* \"#utility.yul\":3979:3983   */\n      0x20\n        /* \"#utility.yul\":3972:3977   */\n      dup4\n        /* \"#utility.yul\":3968:3984   */\n      add\n        /* \"#utility.yul\":3962:3985   */\n      mload\n        /* \"#utility.yul\":4032:4035   */\n      dup5\n        /* \"#utility.yul\":4026:4030   */\n      dup3\n        /* \"#utility.yul\":4022:4036   */\n      sub\n        /* \"#utility.yul\":4015:4019   */\n      0x20\n        /* \"#utility.yul\":4010:4013   */\n      dup7\n        /* \"#utility.yul\":4006:4020   */\n      add\n        /* \"#utility.yul\":3999:4037   */\n      mstore\n        /* \"#utility.yul\":4058:4131   */\n      tag_146\n        /* \"#utility.yul\":4126:4130   */\n      dup3\n        /* \"#utility.yul\":4112:4124   */\n      dup3\n        /* \"#utility.yul\":4058:4131   */\n      tag_125\n      jump\t// in\n    tag_146:\n        /* \"#utility.yul\":4050:4131   */\n      swap2\n      pop\n        /* \"#utility.yul\":3907:4142   */\n      pop\n        /* \"#utility.yul\":4227:4231   */\n      0x40\n        /* \"#utility.yul\":4220:4225   */\n      dup4\n        /* \"#utility.yul\":4216:4232   */\n      add\n        /* \"#utility.yul\":4210:4233   */\n      mload\n        /* \"#utility.yul\":4280:4283   */\n      dup5\n        /* \"#utility.yul\":4274:4278   */\n      dup3\n        /* \"#utility.yul\":4270:4284   */\n      sub\n        /* \"#utility.yul\":4263:4267   */\n      0x40\n        /* \"#utility.yul\":4258:4261   */\n      dup7\n        /* \"#utility.yul\":4254:4268   */\n      add\n        /* \"#utility.yul\":4247:4285   */\n      mstore\n        /* \"#utility.yul\":4306:4379   */\n      tag_147\n        /* \"#utility.yul\":4374:4378   */\n      dup3\n        /* \"#utility.yul\":4360:4372   */\n      dup3\n        /* \"#utility.yul\":4306:4379   */\n      tag_125\n      jump\t// in\n    tag_147:\n        /* \"#utility.yul\":4298:4379   */\n      swap2\n      pop\n        /* \"#utility.yul\":4152:4390   */\n      pop\n        /* \"#utility.yul\":4474:4478   */\n      0x60\n        /* \"#utility.yul\":4467:4472   */\n      dup4\n        /* \"#utility.yul\":4463:4479   */\n      add\n        /* \"#utility.yul\":4457:4480   */\n      mload\n        /* \"#utility.yul\":4493:4550   */\n      tag_148\n        /* \"#utility.yul\":4544:4548   */\n      0x60\n        /* \"#utility.yul\":4539:4542   */\n      dup7\n        /* \"#utility.yul\":4535:4549   */\n      add\n        /* \"#utility.yul\":4521:4533   */\n      dup3\n        /* \"#utility.yul\":4493:4550   */\n      tag_118\n      jump\t// in\n    tag_148:\n        /* \"#utility.yul\":4400:4560   */\n      pop\n        /* \"#utility.yul\":4577:4581   */\n      dup1\n        /* \"#utility.yul\":4570:4581   */\n      swap2\n      pop\n        /* \"#utility.yul\":3689:4587   */\n      pop\n        /* \"#utility.yul\":3575:4587   */\n      swap3\n      swap2\n      pop\n      pop\n      jump\t// out\n        /* \"#utility.yul\":4593:4701   */\n    tag_145:\n        /* \"#utility.yul\":4670:4694   */\n      tag_150\n        /* \"#utility.yul\":4688:4693   */\n      dup2\n        /* \"#utility.yul\":4670:4694   */\n      tag_151\n      jump\t// in\n    tag_150:\n        /* \"#utility.yul\":4665:4668   */\n      dup3\n        /* \"#utility.yul\":4658:4695   */\n      mstore\n        /* \"#utility.yul\":4593:4701   */\n      pop\n      pop\n      jump\t// out\n        /* \"#utility.yul\":4707:4825   */\n    tag_152:\n        /* \"#utility.yul\":4794:4818   */\n      tag_154\n        /* \"#utility.yul\":4812:4817   */\n      dup2\n        /* \"#utility.yul\":4794:4818   */\n      tag_151\n      jump\t// in\n    tag_154:\n        /* \"#utility.yul\":4789:4792   */\n      dup3\n        /* \"#utility.yul\":4782:4819   */\n      mstore\n        /* \"#utility.yul\":4707:4825   */\n      pop\n      pop\n      jump\t// out\n        /* \"#utility.yul\":4831:5184   */\n    tag_31:\n        /* \"#utility.yul\":4964:4968   */\n      0x00\n        /* \"#utility.yul\":5002:5004   */\n      0x20\n        /* \"#utility.yul\":4991:5000   */\n      dup3\n        /* \"#utility.yul\":4987:5005   */\n      add\n        /* \"#utility.yul\":4979:5005   */\n      swap1\n      pop\n        /* \"#utility.yul\":5051:5060   */\n      dup2\n        /* \"#utility.yul\":5045:5049   */\n      dup2\n        /* \"#utility.yul\":5041:5061   */\n      sub\n        /* \"#utility.yul\":5037:5038   */\n      0x00\n        /* \"#utility.yul\":5026:5035   */\n      dup4\n        /* \"#utility.yul\":5022:5039   */\n      add\n        /* \"#utility.yul\":5015:5062   */\n      mstore\n        /* \"#utility.yul\":5079:5177   */\n      tag_156\n        /* \"#utility.yul\":5172:5176   */\n      dup2\n        /* \"#utility.yul\":5163:5169   */\n      dup5\n        /* \"#utility.yul\":5079:5177   */\n      tag_142\n      jump\t// in\n    tag_156:\n        /* \"#utility.yul\":5071:5177   */\n      swap1\n      pop\n        /* \"#utility.yul\":4831:5184   */\n      swap3\n      swap2\n      pop\n      pop\n      jump\t// out\n        /* \"#utility.yul\":5190:5412   */\n    tag_22:\n        /* \"#utility.yul\":5283:5287   */\n      0x00\n        /* \"#utility.yul\":5321:5323   */\n      0x20\n        /* \"#utility.yul\":5310:5319   */\n      dup3\n        /* \"#utility.yul\":5306:5324   */\n      add\n        /* \"#utility.yul\":5298:5324   */\n      swap1\n      pop\n        /* \"#utility.yul\":5334:5405   */\n      tag_158\n        /* \"#utility.yul\":5402:5403   */\n      0x00\n        /* \"#utility.yul\":5391:5400   */\n      dup4\n        /* \"#utility.yul\":5387:5404   */\n      add\n        /* \"#utility.yul\":5378:5384   */\n      dup5\n        /* \"#utility.yul\":5334:5405   */\n      tag_152\n      jump\t// in\n    tag_158:\n        /* \"#utility.yul\":5190:5412   */\n      swap3\n      swap2\n      pop\n      pop\n      jump\t// out\n        /* \"#utility.yul\":5418:6141   */\n    tag_17:\n        /* \"#utility.yul\":5629:5633   */\n      0x00\n        /* \"#utility.yul\":5667:5670   */\n      0x80\n        /* \"#utility.yul\":5656:5665   */\n      dup3\n        /* \"#utility.yul\":5652:5671   */\n      add\n        /* \"#utility.yul\":5644:5671   */\n      swap1\n      pop\n        /* \"#utility.yul\":5681:5752   */\n      tag_160\n        /* \"#utility.yul\":5749:5750   */\n      0x00\n        /* \"#utility.yul\":5738:5747   */\n      dup4\n        /* \"#utility.yul\":5734:5751   */\n      add\n        /* \"#utility.yul\":5725:5731   */\n      dup8\n        /* \"#utility.yul\":5681:5752   */\n      tag_152\n      jump\t// in\n    tag_160:\n        /* \"#utility.yul\":5799:5808   */\n      dup2\n        /* \"#utility.yul\":5793:5797   */\n      dup2\n        /* \"#utility.yul\":5789:5809   */\n      sub\n        /* \"#utility.yul\":5784:5786   */\n      0x20\n        /* \"#utility.yul\":5773:5782   */\n      dup4\n        /* \"#utility.yul\":5769:5787   */\n      add\n        /* \"#utility.yul\":5762:5810   */\n      mstore\n        /* \"#utility.yul\":5827:5905   */\n      tag_161\n        /* \"#utility.yul\":5900:5904   */\n      dup2\n        /* \"#utility.yul\":5891:5897   */\n      dup7\n        /* \"#utility.yul\":5827:5905   */\n      tag_135\n      jump\t// in\n    tag_161:\n        /* \"#utility.yul\":5819:5905   */\n      swap1\n      pop\n        /* \"#utility.yul\":5952:5961   */\n      dup2\n        /* \"#utility.yul\":5946:5950   */\n      dup2\n        /* \"#utility.yul\":5942:5962   */\n      sub\n        /* \"#utility.yul\":5937:5939   */\n      0x40\n        /* \"#utility.yul\":5926:5935   */\n      dup4\n        /* \"#utility.yul\":5922:5940   */\n      add\n        /* \"#utility.yul\":5915:5963   */\n      mstore\n        /* \"#utility.yul\":5980:6058   */\n      tag_162\n        /* \"#utility.yul\":6053:6057   */\n      dup2\n        /* \"#utility.yul\":6044:6050   */\n      dup6\n        /* \"#utility.yul\":5980:6058   */\n      tag_135\n      jump\t// in\n    tag_162:\n        /* \"#utility.yul\":5972:6058   */\n      swap1\n      pop\n        /* \"#utility.yul\":6068:6134   */\n      tag_163\n        /* \"#utility.yul\":6130:6132   */\n      0x60\n        /* \"#utility.yul\":6119:6128   */\n      dup4\n        /* \"#utility.yul\":6115:6133   */\n      add\n        /* \"#utility.yul\":6106:6112   */\n      dup5\n        /* \"#utility.yul\":6068:6134   */\n      tag_122\n      jump\t// in\n    tag_163:\n        /* \"#utility.yul\":5418:6141   */\n      swap6\n      swap5\n      pop\n      pop\n      pop\n      pop\n      pop\n      jump\t// out\n        /* \"#utility.yul\":6147:6276   */\n    tag_79:\n        /* \"#utility.yul\":6181:6187   */\n      0x00\n        /* \"#utility.yul\":6208:6228   */\n      tag_165\n      tag_166\n      jump\t// in\n    tag_165:\n        /* \"#utility.yul\":6198:6228   */\n      swap1\n      pop\n        /* \"#utility.yul\":6237:6270   */\n      tag_167\n        /* \"#utility.yul\":6265:6269   */\n      dup3\n        /* \"#utility.yul\":6257:6263   */\n      dup3\n        /* \"#utility.yul\":6237:6270   */\n      tag_168\n      jump\t// in\n    tag_167:\n        /* \"#utility.yul\":6147:6276   */\n      swap2\n      swap1\n      pop\n      jump\t// out\n        /* \"#utility.yul\":6282:6357   */\n    tag_166:\n        /* \"#utility.yul\":6315:6321   */\n      0x00\n        /* \"#utility.yul\":6348:6350   */\n      0x40\n        /* \"#utility.yul\":6342:6351   */\n      mload\n        /* \"#utility.yul\":6332:6351   */\n      swap1\n      pop\n        /* \"#utility.yul\":6282:6357   */\n      swap1\n      jump\t// out\n        /* \"#utility.yul\":6363:6671   */\n    tag_78:\n        /* \"#utility.yul\":6425:6429   */\n      0x00\n        /* \"#utility.yul\":6515:6533   */\n      0xffffffffffffffff\n        /* \"#utility.yul\":6507:6513   */\n      dup3\n        /* \"#utility.yul\":6504:6534   */\n      gt\n        /* \"#utility.yul\":6501:6557   */\n      iszero\n      tag_171\n      jumpi\n        /* \"#utility.yul\":6537:6555   */\n      tag_172\n      tag_173\n      jump\t// in\n    tag_172:\n        /* \"#utility.yul\":6501:6557   */\n    tag_171:\n        /* \"#utility.yul\":6575:6604   */\n      tag_174\n        /* \"#utility.yul\":6597:6603   */\n      dup3\n        /* \"#utility.yul\":6575:6604   */\n      tag_134\n      jump\t// in\n    tag_174:\n        /* \"#utility.yul\":6567:6604   */\n      swap1\n      pop\n        /* \"#utility.yul\":6659:6663   */\n      0x20\n        /* \"#utility.yul\":6653:6657   */\n      dup2\n        /* \"#utility.yul\":6649:6664   */\n      add\n        /* \"#utility.yul\":6641:6664   */\n      swap1\n      pop\n        /* \"#utility.yul\":6363:6671   */\n      swap2\n      swap1\n      pop\n      jump\t// out\n        /* \"#utility.yul\":6677:6776   */\n    tag_128:\n        /* \"#utility.yul\":6729:6735   */\n      0x00\n        /* \"#utility.yul\":6763:6768   */\n      dup2\n        /* \"#utility.yul\":6757:6769   */\n      mload\n        /* \"#utility.yul\":6747:6769   */\n      swap1\n      pop\n        /* \"#utility.yul\":6677:6776   */\n      swap2\n      swap1\n      pop\n      jump\t// out\n        /* \"#utility.yul\":6782:6941   */\n    tag_130:\n        /* \"#utility.yul\":6856:6867   */\n      0x00\n        /* \"#utility.yul\":6890:6896   */\n      dup3\n        /* \"#utility.yul\":6885:6888   */\n      dup3\n        /* \"#utility.yul\":6878:6897   */\n      mstore\n        /* \"#utility.yul\":6930:6934   */\n      0x20\n        /* \"#utility.yul\":6925:6928   */\n      dup3\n        /* \"#utility.yul\":6921:6935   */\n      add\n        /* \"#utility.yul\":6906:6935   */\n      swap1\n      pop\n        /* \"#utility.yul\":6782:6941   */\n      swap3\n      swap2\n      pop\n      pop\n      jump\t// out\n        /* \"#utility.yul\":6947:7116   */\n    tag_139:\n        /* \"#utility.yul\":7031:7042   */\n      0x00\n        /* \"#utility.yul\":7065:7071   */\n      dup3\n        /* \"#utility.yul\":7060:7063   */\n      dup3\n        /* \"#utility.yul\":7053:7072   */\n      mstore\n        /* \"#utility.yul\":7105:7109   */\n      0x20\n        /* \"#utility.yul\":7100:7103   */\n      dup3\n        /* \"#utility.yul\":7096:7110   */\n      add\n        /* \"#utility.yul\":7081:7110   */\n      swap1\n      pop\n        /* \"#utility.yul\":6947:7116   */\n      swap3\n      swap2\n      pop\n      pop\n      jump\t// out\n        /* \"#utility.yul\":7122:7218   */\n    tag_178:\n        /* \"#utility.yul\":7159:7166   */\n      0x00\n        /* \"#utility.yul\":7188:7212   */\n      tag_180\n        /* \"#utility.yul\":7206:7211   */\n      dup3\n        /* \"#utility.yul\":7188:7212   */\n      tag_181\n      jump\t// in\n    tag_180:\n        /* \"#utility.yul\":7177:7212   */\n      swap1\n      pop\n        /* \"#utility.yul\":7122:7218   */\n      swap2\n      swap1\n      pop\n      jump\t// out\n        /* \"#utility.yul\":7224:7314   */\n    tag_121:\n        /* \"#utility.yul\":7258:7265   */\n      0x00\n        /* \"#utility.yul\":7301:7306   */\n      dup2\n        /* \"#utility.yul\":7294:7307   */\n      iszero\n        /* \"#utility.yul\":7287:7308   */\n      iszero\n        /* \"#utility.yul\":7276:7308   */\n      swap1\n      pop\n        /* \"#utility.yul\":7224:7314   */\n      swap2\n      swap1\n      pop\n      jump\t// out\n        /* \"#utility.yul\":7320:7446   */\n    tag_181:\n        /* \"#utility.yul\":7357:7364   */\n      0x00\n        /* \"#utility.yul\":7397:7439   */\n      0xffffffffffffffffffffffffffffffffffffffff\n        /* \"#utility.yul\":7390:7395   */\n      dup3\n        /* \"#utility.yul\":7386:7440   */\n      and\n        /* \"#utility.yul\":7375:7440   */\n      swap1\n      pop\n        /* \"#utility.yul\":7320:7446   */\n      swap2\n      swap1\n      pop\n      jump\t// out\n        /* \"#utility.yul\":7452:7529   */\n    tag_151:\n        /* \"#utility.yul\":7489:7496   */\n      0x00\n        /* \"#utility.yul\":7518:7523   */\n      dup2\n        /* \"#utility.yul\":7507:7523   */\n      swap1\n      pop\n        /* \"#utility.yul\":7452:7529   */\n      swap2\n      swap1\n      pop\n      jump\t// out\n        /* \"#utility.yul\":7535:7689   */\n    tag_84:\n        /* \"#utility.yul\":7619:7625   */\n      dup3\n        /* \"#utility.yul\":7614:7617   */\n      dup2\n        /* \"#utility.yul\":7609:7612   */\n      dup4\n        /* \"#utility.yul\":7596:7626   */\n      calldatacopy\n        /* \"#utility.yul\":7681:7682   */\n      0x00\n        /* \"#utility.yul\":7672:7678   */\n      dup4\n        /* \"#utility.yul\":7667:7670   */\n      dup4\n        /* \"#utility.yul\":7663:7679   */\n      add\n        /* \"#utility.yul\":7656:7683   */\n      mstore\n        /* \"#utility.yul\":7535:7689   */\n      pop\n      pop\n      pop\n      jump\t// out\n        /* \"#utility.yul\":7695:8002   */\n    tag_132:\n        /* \"#utility.yul\":7763:7764   */\n      0x00\n        /* \"#utility.yul\":7773:7886   */\n    tag_187:\n        /* \"#utility.yul\":7787:7793   */\n      dup4\n        /* \"#utility.yul\":7784:7785   */\n      dup2\n        /* \"#utility.yul\":7781:7794   */\n      lt\n        /* \"#utility.yul\":7773:7886   */\n      iszero\n      tag_189\n      jumpi\n        /* \"#utility.yul\":7872:7873   */\n      dup1\n        /* \"#utility.yul\":7867:7870   */\n      dup3\n        /* \"#utility.yul\":7863:7874   */\n      add\n        /* \"#utility.yul\":7857:7875   */\n      mload\n        /* \"#utility.yul\":7853:7854   */\n      dup2\n        /* \"#utility.yul\":7848:7851   */\n      dup5\n        /* \"#utility.yul\":7844:7855   */\n      add\n        /* \"#utility.yul\":7837:7876   */\n      mstore\n        /* \"#utility.yul\":7809:7811   */\n      0x20\n        /* \"#utility.yul\":7806:7807   */\n      dup2\n        /* \"#utility.yul\":7802:7812   */\n      add\n        /* \"#utility.yul\":7797:7812   */\n      swap1\n      pop\n        /* \"#utility.yul\":7773:7886   */\n      jump(tag_187)\n    tag_189:\n        /* \"#utility.yul\":7904:7910   */\n      dup4\n        /* \"#utility.yul\":7901:7902   */\n      dup2\n        /* \"#utility.yul\":7898:7911   */\n      gt\n        /* \"#utility.yul\":7895:7996   */\n      iszero\n      tag_190\n      jumpi\n        /* \"#utility.yul\":7984:7985   */\n      0x00\n        /* \"#utility.yul\":7975:7981   */\n      dup5\n        /* \"#utility.yul\":7970:7973   */\n      dup5\n        /* \"#utility.yul\":7966:7982   */\n      add\n        /* \"#utility.yul\":7959:7986   */\n      mstore\n        /* \"#utility.yul\":7895:7996   */\n    tag_190:\n        /* \"#utility.yul\":7744:8002   */\n      pop\n        /* \"#utility.yul\":7695:8002   */\n      pop\n      pop\n      pop\n      jump\t// out\n        /* \"#utility.yul\":8008:8328   */\n    tag_39:\n        /* \"#utility.yul\":8052:8058   */\n      0x00\n        /* \"#utility.yul\":8089:8090   */\n      0x02\n        /* \"#utility.yul\":8083:8087   */\n      dup3\n        /* \"#utility.yul\":8079:8091   */\n      div\n        /* \"#utility.yul\":8069:8091   */\n      swap1\n      pop\n        /* \"#utility.yul\":8136:8137   */\n      0x01\n        /* \"#utility.yul\":8130:8134   */\n      dup3\n        /* \"#utility.yul\":8126:8138   */\n      and\n        /* \"#utility.yul\":8157:8175   */\n      dup1\n        /* \"#utility.yul\":8147:8228   */\n      tag_192\n      jumpi\n        /* \"#utility.yul\":8213:8217   */\n      0x7f\n        /* \"#utility.yul\":8205:8211   */\n      dup3\n        /* \"#utility.yul\":8201:8218   */\n      and\n        /* \"#utility.yul\":8191:8218   */\n      swap2\n      pop\n        /* \"#utility.yul\":8147:8228   */\n    tag_192:\n        /* \"#utility.yul\":8275:8277   */\n      0x20\n        /* \"#utility.yul\":8267:8273   */\n      dup3\n        /* \"#utility.yul\":8264:8278   */\n      lt\n        /* \"#utility.yul\":8244:8262   */\n      dup2\n        /* \"#utility.yul\":8241:8279   */\n      eq\n        /* \"#utility.yul\":8238:8322   */\n      iszero\n      tag_193\n      jumpi\n        /* \"#utility.yul\":8294:8312   */\n      tag_194\n      tag_195\n      jump\t// in\n    tag_194:\n        /* \"#utility.yul\":8238:8322   */\n    tag_193:\n        /* \"#utility.yul\":8059:8328   */\n      pop\n        /* \"#utility.yul\":8008:8328   */\n      swap2\n      swap1\n      pop\n      jump\t// out\n        /* \"#utility.yul\":8334:8615   */\n    tag_168:\n        /* \"#utility.yul\":8417:8444   */\n      tag_197\n        /* \"#utility.yul\":8439:8443   */\n      dup3\n        /* \"#utility.yul\":8417:8444   */\n      tag_134\n      jump\t// in\n    tag_197:\n        /* \"#utility.yul\":8409:8415   */\n      dup2\n        /* \"#utility.yul\":8405:8445   */\n      add\n        /* \"#utility.yul\":8547:8553   */\n      dup2\n        /* \"#utility.yul\":8535:8545   */\n      dup2\n        /* \"#utility.yul\":8532:8554   */\n      lt\n        /* \"#utility.yul\":8511:8529   */\n      0xffffffffffffffff\n        /* \"#utility.yul\":8499:8509   */\n      dup3\n        /* \"#utility.yul\":8496:8530   */\n      gt\n        /* \"#utility.yul\":8493:8555   */\n      or\n        /* \"#utility.yul\":8490:8578   */\n      iszero\n      tag_198\n      jumpi\n        /* \"#utility.yul\":8558:8576   */\n      tag_199\n      tag_173\n      jump\t// in\n    tag_199:\n        /* \"#utility.yul\":8490:8578   */\n    tag_198:\n        /* \"#utility.yul\":8598:8608   */\n      dup1\n        /* \"#utility.yul\":8594:8596   */\n      0x40\n        /* \"#utility.yul\":8587:8609   */\n      mstore\n        /* \"#utility.yul\":8377:8615   */\n      pop\n        /* \"#utility.yul\":8334:8615   */\n      pop\n      pop\n      jump\t// out\n        /* \"#utility.yul\":8621:8854   */\n    tag_37:\n        /* \"#utility.yul\":8660:8663   */\n      0x00\n        /* \"#utility.yul\":8683:8707   */\n      tag_201\n        /* \"#utility.yul\":8701:8706   */\n      dup3\n        /* \"#utility.yul\":8683:8707   */\n      tag_151\n      jump\t// in\n    tag_201:\n        /* \"#utility.yul\":8674:8707   */\n      swap2\n      pop\n        /* \"#utility.yul\":8729:8795   */\n      0xffffffffffffffffffffffffffffffffffffffffffffffffffffffffffffffff\n        /* \"#utility.yul\":8722:8727   */\n      dup3\n        /* \"#utility.yul\":8719:8796   */\n      eq\n        /* \"#utility.yul\":8716:8819   */\n      iszero\n      tag_202\n      jumpi\n        /* \"#utility.yul\":8799:8817   */\n      tag_203\n      tag_204\n      jump\t// in\n    tag_203:\n        /* \"#utility.yul\":8716:8819   */\n    tag_202:\n        /* \"#utility.yul\":8846:8847   */\n      0x01\n        /* \"#utility.yul\":8839:8844   */\n      dup3\n        /* \"#utility.yul\":8835:8848   */\n      add\n        /* \"#utility.yul\":8828:8848   */\n      swap1\n      pop\n        /* \"#utility.yul\":8621:8854   */\n      swap2\n      swap1\n      pop\n      jump\t// out\n        /* \"#utility.yul\":8860:9040   */\n    tag_204:\n        /* \"#utility.yul\":8908:8985   */\n      0x4e487b7100000000000000000000000000000000000000000000000000000000\n        /* \"#utility.yul\":8905:8906   */\n      0x00\n        /* \"#utility.yul\":8898:8986   */\n      mstore\n        /* \"#utility.yul\":9005:9009   */\n      0x11\n        /* \"#utility.yul\":9002:9003   */\n      0x04\n        /* \"#utility.yul\":8995:9010   */\n      mstore\n        /* \"#utility.yul\":9029:9033   */\n      0x24\n        /* \"#utility.yul\":9026:9027   */\n      0x00\n        /* \"#utility.yul\":9019:9034   */\n      revert\n        /* \"#utility.yul\":9046:9226   */\n    tag_195:\n        /* \"#utility.yul\":9094:9171   */\n      0x4e487b7100000000000000000000000000000000000000000000000000000000\n        /* \"#utility.yul\":9091:9092   */\n      0x00\n        /* \"#utility.yul\":9084:9172   */\n      mstore\n        /* \"#utility.yul\":9191:9195   */\n      0x22\n        /* \"#utility.yul\":9188:9189   */\n      0x04\n        /* \"#utility.yul\":9181:9196   */\n      mstore\n        /* \"#utility.yul\":9215:9219   */\n      0x24\n        /* \"#utility.yul\":9212:9213   */\n      0x00\n        /* \"#utility.yul\":9205:9220   */\n      revert\n        /* \"#utility.yul\":9232:9412   */\n    tag_173:\n        /* \"#utility.yul\":9280:9357   */\n      0x4e487b7100000000000000000000000000000000000000000000000000000000\n        /* \"#utility.yul\":9277:9278   */\n      0x00\n        /* \"#utility.yul\":9270:9358   */\n      mstore\n        /* \"#utility.yul\":9377:9381   */\n      0x41\n        /* \"#utility.yul\":9374:9375   */\n      0x04\n        /* \"#utility.yul\":9367:9382   */\n      mstore\n        /* \"#utility.yul\":9401:9405   */\n      0x24\n        /* \"#utility.yul\":9398:9399   */\n      0x00\n        /* \"#utility.yul\":9391:9406   */\n      revert\n        /* \"#utility.yul\":9418:9535   */\n    tag_93:\n        /* \"#utility.yul\":9527:9528   */\n      0x00\n        /* \"#utility.yul\":9524:9525   */\n      dup1\n        /* \"#utility.yul\":9517:9529   */\n      revert\n        /* \"#utility.yul\":9541:9658   */\n    tag_82:\n        /* \"#utility.yul\":9650:9651   */\n      0x00\n        /* \"#utility.yul\":9647:9648   */\n      dup1\n        /* \"#utility.yul\":9640:9652   */\n      revert\n        /* \"#utility.yul\":9664:9781   */\n    tag_109:\n        /* \"#utility.yul\":9773:9774   */\n      0x00\n        /* \"#utility.yul\":9770:9771   */\n      dup1\n        /* \"#utility.yul\":9763:9775   */\n      revert\n        /* \"#utility.yul\":9787:9904   */\n    tag_102:\n        /* \"#utility.yul\":9896:9897   */\n      0x00\n        /* \"#utility.yul\":9893:9894   */\n      dup1\n        /* \"#utility.yul\":9886:9898   */\n      revert\n        /* \"#utility.yul\":9910:10012   */\n    tag_134:\n        /* \"#utility.yul\":9951:9957   */\n      0x00\n        /* \"#utility.yul\":10002:10004   */\n      0x1f\n        /* \"#utility.yul\":9998:10005   */\n      not\n        /* \"#utility.yul\":9993:9995   */\n      0x1f\n        /* \"#utility.yul\":9986:9991   */\n      dup4\n        /* \"#utility.yul\":9982:9996   */\n      add\n        /* \"#utility.yul\":9978:10006   */\n      and\n        /* \"#utility.yul\":9968:10006   */\n      swap1\n      pop\n        /* \"#utility.yul\":9910:10012   */\n      swap2\n      swap1\n      pop\n      jump\t// out\n        /* \"#utility.yul\":10018:10140   */\n    tag_88:\n        /* \"#utility.yul\":10091:10115   */\n      tag_214\n        /* \"#utility.yul\":10109:10114   */\n      dup2\n        /* \"#utility.yul\":10091:10115   */\n      tag_178\n      jump\t// in\n    tag_214:\n        /* \"#utility.yul\":10084:10089   */\n      dup2\n        /* \"#utility.yul\":10081:10116   */\n      eq\n        /* \"#utility.yul\":10071:10134   */\n      tag_215\n      jumpi\n        /* \"#utility.yul\":10130:10131   */\n      0x00\n        /* \"#utility.yul\":10127:10128   */\n      dup1\n        /* \"#utility.yul\":10120:10132   */\n      revert\n        /* \"#utility.yul\":10071:10134   */\n    tag_215:\n        /* \"#utility.yul\":10018:10140   */\n      pop\n      jump\t// out\n        /* \"#utility.yul\":10146:10268   */\n    tag_98:\n        /* \"#utility.yul\":10219:10243   */\n      tag_217\n        /* \"#utility.yul\":10237:10242   */\n      dup2\n        /* \"#utility.yul\":10219:10243   */\n      tag_151\n      jump\t// in\n    tag_217:\n        /* \"#utility.yul\":10212:10217   */\n      dup2\n        /* \"#utility.yul\":10209:10244   */\n      eq\n        /* \"#utility.yul\":10199:10262   */\n      tag_218\n      jumpi\n        /* \"#utility.yul\":10258:10259   */\n      0x00\n        /* \"#utility.yul\":10255:10256   */\n      dup1\n        /* \"#utility.yul\":10248:10260   */\n      revert\n        /* \"#utility.yul\":10199:10262   */\n    tag_218:\n        /* \"#utility.yul\":10146:10268   */\n      pop\n      jump\t// out\n\n    auxdata: 0xa2646970667358221220a0f5d0ca64c4afccc5d5dabcd9121463e5cc461cb6b607287bad478884da7c4964736f6c63430008070033\n}\n",
				"bytecode": {
					"linkReferences": {},
					"object": "608060405234801561001057600080fd5b50610c87806100206000396000f3fe608060405234801561001057600080fd5b50600436106100575760003560e01c80631b7fb2601461005c57806356a68c0014610078578063c12327b8146100ab578063d321fe29146100db578063dd68afb6146100f9575b600080fd5b6100766004803603810190610071919061076b565b610129565b005b610092600480360381019061008d919061073e565b61028a565b6040516100a29493929190610965565b60405180910390f35b6100c560048036038101906100c0919061073e565b6103d7565b6040516100d2919061094a565b60405180910390f35b6100e36103ef565b6040516100f0919061094a565b60405180910390f35b610113600480360381019061010e91906107e3565b610436565b6040516101209190610928565b60405180910390f35b6040518060800160405280600160003373ffffffffffffffffffffffffffffffffffffffff1673ffffffffffffffffffffffffffffffffffffffff168152602001908152602001600020548152602001838152602001828152602001600015158152506000803373ffffffffffffffffffffffffffffffffffffffff1673ffffffffffffffffffffffffffffffffffffffff1681526020019081526020016000206000820151816000015560208201518160010190805190602001906101f09291906105d7565b50604082015181600201908051906020019061020d9291906105d7565b5060608201518160030160006101000a81548160ff021916908315150217905550905050600160003373ffffffffffffffffffffffffffffffffffffffff1673ffffffffffffffffffffffffffffffffffffffff168152602001908152602001600020600081548092919061028190610b28565b91905055505050565b60006020528060005260406000206000915090508060000154908060010180546102b390610ac5565b80601f01602080910402602001604051908101604052809291908181526020018280546102df90610ac5565b801561032c5780601f106103015761010080835404028352916020019161032c565b820191906000526020600020905b81548152906001019060200180831161030f57829003601f168201915b50505050509080600201805461034190610ac5565b80601f016020809104026020016040519081016040528092919081815260200182805461036d90610ac5565b80156103ba5780601f1061038f576101008083540402835291602001916103ba565b820191906000526020600020905b81548152906001019060200180831161039d57829003601f168201915b5050505050908060030160009054906101000a900460ff16905084565b60016020528060005260406000206000915090505481565b6000600160003373ffffffffffffffffffffffffffffffffffffffff1673ffffffffffffffffffffffffffffffffffffffff16815260200190815260200160002054905090565b61043e61065d565b6000803373ffffffffffffffffffffffffffffffffffffffff1673ffffffffffffffffffffffffffffffffffffffff168152602001908152602001600020604051806080016040529081600082015481526020016001820180546104a190610ac5565b80601f01602080910402602001604051908101604052809291908181526020018280546104cd90610ac5565b801561051a5780601f106104ef5761010080835404028352916020019161051a565b820191906000526020600020905b8154815290600101906020018083116104fd57829003601f168201915b5050505050815260200160028201805461053390610ac5565b80601f016020809104026020016040519081016040528092919081815260200182805461055f90610ac5565b80156105ac5780601f10610581576101008083540402835291602001916105ac565b820191906000526020600020905b81548152906001019060200180831161058f57829003601f168201915b505050505081526020016003820160009054906101000a900460ff1615151515815250509050919050565b8280546105e390610ac5565b90600052602060002090601f016020900481019282610605576000855561064c565b82601f1061061e57805160ff191683800117855561064c565b8280016001018555821561064c579182015b8281111561064b578251825591602001919060010190610630565b5b5090506106599190610687565b5090565b60405180608001604052806000815260200160608152602001606081526020016000151581525090565b5b808211156106a0576000816000905550600101610688565b5090565b60006106b76106b2846109dd565b6109b8565b9050828152602081018484840111156106d3576106d2610c03565b5b6106de848285610a83565b509392505050565b6000813590506106f581610c23565b92915050565b600082601f8301126107105761070f610bfe565b5b81356107208482602086016106a4565b91505092915050565b60008135905061073881610c3a565b92915050565b60006020828403121561075457610753610c0d565b5b6000610762848285016106e6565b91505092915050565b6000806040838503121561078257610781610c0d565b5b600083013567ffffffffffffffff8111156107a05761079f610c08565b5b6107ac858286016106fb565b925050602083013567ffffffffffffffff8111156107cd576107cc610c08565b5b6107d9858286016106fb565b9150509250929050565b6000602082840312156107f9576107f8610c0d565b5b600061080784828501610729565b91505092915050565b61081981610a4d565b82525050565b61082881610a4d565b82525050565b600061083982610a0e565b6108438185610a19565b9350610853818560208601610a92565b61085c81610c12565b840191505092915050565b600061087282610a0e565b61087c8185610a2a565b935061088c818560208601610a92565b61089581610c12565b840191505092915050565b60006080830160008301516108b8600086018261090a565b50602083015184820360208601526108d0828261082e565b915050604083015184820360408601526108ea828261082e565b91505060608301516108ff6060860182610810565b508091505092915050565b61091381610a79565b82525050565b61092281610a79565b82525050565b6000602082019050818103600083015261094281846108a0565b905092915050565b600060208201905061095f6000830184610919565b92915050565b600060808201905061097a6000830187610919565b818103602083015261098c8186610867565b905081810360408301526109a08185610867565b90506109af606083018461081f565b95945050505050565b60006109c26109d3565b90506109ce8282610af7565b919050565b6000604051905090565b600067ffffffffffffffff8211156109f8576109f7610bcf565b5b610a0182610c12565b9050602081019050919050565b600081519050919050565b600082825260208201905092915050565b600082825260208201905092915050565b6000610a4682610a59565b9050919050565b60008115159050919050565b600073ffffffffffffffffffffffffffffffffffffffff82169050919050565b6000819050919050565b82818337600083830152505050565b60005b83811015610ab0578082015181840152602081019050610a95565b83811115610abf576000848401525b50505050565b60006002820490506001821680610add57607f821691505b60208210811415610af157610af0610ba0565b5b50919050565b610b0082610c12565b810181811067ffffffffffffffff82111715610b1f57610b1e610bcf565b5b80604052505050565b6000610b3382610a79565b91507fffffffffffffffffffffffffffffffffffffffffffffffffffffffffffffffff821415610b6657610b65610b71565b5b600182019050919050565b7f4e487b7100000000000000000000000000000000000000000000000000000000600052601160045260246000fd5b7f4e487b7100000000000000000000000000000000000000000000000000000000600052602260045260246000fd5b7f4e487b7100000000000000000000000000000000000000000000000000000000600052604160045260246000fd5b600080fd5b600080fd5b600080fd5b600080fd5b6000601f19601f8301169050919050565b610c2c81610a3b565b8114610c3757600080fd5b50565b610c4381610a79565b8114610c4e57600080fd5b5056fea2646970667358221220a0f5d0ca64c4afccc5d5dabcd9121463e5cc461cb6b607287bad478884da7c4964736f6c63430008070033",
					"opcodes": "PUSH1 0x80 PUSH1 0x40 MSTORE CALLVALUE DUP1 ISZERO PUSH2 0x10 JUMPI PUSH1 0x0 DUP1 REVERT JUMPDEST POP PUSH2 0xC87 DUP1 PUSH2 0x20 PUSH1 0x0 CODECOPY PUSH1 0x0 RETURN INVALID PUSH1 0x80 PUSH1 0x40 MSTORE CALLVALUE DUP1 ISZERO PUSH2 0x10 JUMPI PUSH1 0x0 DUP1 REVERT JUMPDEST POP PUSH1 0x4 CALLDATASIZE LT PUSH2 0x57 JUMPI PUSH1 0x0 CALLDATALOAD PUSH1 0xE0 SHR DUP1 PUSH4 0x1B7FB260 EQ PUSH2 0x5C JUMPI DUP1 PUSH4 0x56A68C00 EQ PUSH2 0x78 JUMPI DUP1 PUSH4 0xC12327B8 EQ PUSH2 0xAB JUMPI DUP1 PUSH4 0xD321FE29 EQ PUSH2 0xDB JUMPI DUP1 PUSH4 0xDD68AFB6 EQ PUSH2 0xF9 JUMPI JUMPDEST PUSH1 0x0 DUP1 REVERT JUMPDEST PUSH2 0x76 PUSH1 0x4 DUP1 CALLDATASIZE SUB DUP2 ADD SWAP1 PUSH2 0x71 SWAP2 SWAP1 PUSH2 0x76B JUMP JUMPDEST PUSH2 0x129 JUMP JUMPDEST STOP JUMPDEST PUSH2 0x92 PUSH1 0x4 DUP1 CALLDATASIZE SUB DUP2 ADD SWAP1 PUSH2 0x8D SWAP2 SWAP1 PUSH2 0x73E JUMP JUMPDEST PUSH2 0x28A JUMP JUMPDEST PUSH1 0x40 MLOAD PUSH2 0xA2 SWAP5 SWAP4 SWAP3 SWAP2 SWAP1 PUSH2 0x965 JUMP JUMPDEST PUSH1 0x40 MLOAD DUP1 SWAP2 SUB SWAP1 RETURN JUMPDEST PUSH2 0xC5 PUSH1 0x4 DUP1 CALLDATASIZE SUB DUP2 ADD SWAP1 PUSH2 0xC0 SWAP2 SWAP1 PUSH2 0x73E JUMP JUMPDEST PUSH2 0x3D7 JUMP JUMPDEST PUSH1 0x40 MLOAD PUSH2 0xD2 SWAP2 SWAP1 PUSH2 0x94A JUMP JUMPDEST PUSH1 0x40 MLOAD DUP1 SWAP2 SUB SWAP1 RETURN JUMPDEST PUSH2 0xE3 PUSH2 0x3EF JUMP JUMPDEST PUSH1 0x40 MLOAD PUSH2 0xF0 SWAP2 SWAP1 PUSH2 0x94A JUMP JUMPDEST PUSH1 0x40 MLOAD DUP1 SWAP2 SUB SWAP1 RETURN JUMPDEST PUSH2 0x113 PUSH1 0x4 DUP1 CALLDATASIZE SUB DUP2 ADD SWAP1 PUSH2 0x10E SWAP2 SWAP1 PUSH2 0x7E3 JUMP JUMPDEST PUSH2 0x436 JUMP JUMPDEST PUSH1 0x40 MLOAD PUSH2 0x120 SWAP2 SWAP1 PUSH2 0x928 JUMP JUMPDEST PUSH1 0x40 MLOAD DUP1 SWAP2 SUB SWAP1 RETURN JUMPDEST PUSH1 0x40 MLOAD DUP1 PUSH1 0x80 ADD PUSH1 0x40 MSTORE DUP1 PUSH1 0x1 PUSH1 0x0 CALLER PUSH20 0xFFFFFFFFFFFFFFFFFFFFFFFFFFFFFFFFFFFFFFFF AND PUSH20 0xFFFFFFFFFFFFFFFFFFFFFFFFFFFFFFFFFFFFFFFF AND DUP2 MSTORE PUSH1 0x20 ADD SWAP1 DUP2 MSTORE PUSH1 0x20 ADD PUSH1 0x0 KECCAK256 SLOAD DUP2 MSTORE PUSH1 0x20 ADD DUP4 DUP2 MSTORE PUSH1 0x20 ADD DUP3 DUP2 MSTORE PUSH1 0x20 ADD PUSH1 0x0 ISZERO ISZERO DUP2 MSTORE POP PUSH1 0x0 DUP1 CALLER PUSH20 0xFFFFFFFFFFFFFFFFFFFFFFFFFFFFFFFFFFFFFFFF AND PUSH20 0xFFFFFFFFFFFFFFFFFFFFFFFFFFFFFFFFFFFFFFFF AND DUP2 MSTORE PUSH1 0x20 ADD SWAP1 DUP2 MSTORE PUSH1 0x20 ADD PUSH1 0x0 KECCAK256 PUSH1 0x0 DUP3 ADD MLOAD DUP2 PUSH1 0x0 ADD SSTORE PUSH1 0x20 DUP3 ADD MLOAD DUP2 PUSH1 0x1 ADD SWAP1 DUP1 MLOAD SWAP1 PUSH1 0x20 ADD SWAP1 PUSH2 0x1F0 SWAP3 SWAP2 SWAP1 PUSH2 0x5D7 JUMP JUMPDEST POP PUSH1 0x40 DUP3 ADD MLOAD DUP2 PUSH1 0x2 ADD SWAP1 DUP1 MLOAD SWAP1 PUSH1 0x20 ADD SWAP1 PUSH2 0x20D SWAP3 SWAP2 SWAP1 PUSH2 0x5D7 JUMP JUMPDEST POP PUSH1 0x60 DUP3 ADD MLOAD DUP2 PUSH1 0x3 ADD PUSH1 0x0 PUSH2 0x100 EXP DUP2 SLOAD DUP2 PUSH1 0xFF MUL NOT AND SWAP1 DUP4 ISZERO ISZERO MUL OR SWAP1 SSTORE POP SWAP1 POP POP PUSH1 0x1 PUSH1 0x0 CALLER PUSH20 0xFFFFFFFFFFFFFFFFFFFFFFFFFFFFFFFFFFFFFFFF AND PUSH20 0xFFFFFFFFFFFFFFFFFFFFFFFFFFFFFFFFFFFFFFFF AND DUP2 MSTORE PUSH1 0x20 ADD SWAP1 DUP2 MSTORE PUSH1 0x20 ADD PUSH1 0x0 KECCAK256 PUSH1 0x0 DUP2 SLOAD DUP1 SWAP3 SWAP2 SWAP1 PUSH2 0x281 SWAP1 PUSH2 0xB28 JUMP JUMPDEST SWAP2 SWAP1 POP SSTORE POP POP POP JUMP JUMPDEST PUSH1 0x0 PUSH1 0x20 MSTORE DUP1 PUSH1 0x0 MSTORE PUSH1 0x40 PUSH1 0x0 KECCAK256 PUSH1 0x0 SWAP2 POP SWAP1 POP DUP1 PUSH1 0x0 ADD SLOAD SWAP1 DUP1 PUSH1 0x1 ADD DUP1 SLOAD PUSH2 0x2B3 SWAP1 PUSH2 0xAC5 JUMP JUMPDEST DUP1 PUSH1 0x1F ADD PUSH1 0x20 DUP1 SWAP2 DIV MUL PUSH1 0x20 ADD PUSH1 0x40 MLOAD SWAP1 DUP2 ADD PUSH1 0x40 MSTORE DUP1 SWAP3 SWAP2 SWAP1 DUP2 DUP2 MSTORE PUSH1 0x20 ADD DUP3 DUP1 SLOAD PUSH2 0x2DF SWAP1 PUSH2 0xAC5 JUMP JUMPDEST DUP1 ISZERO PUSH2 0x32C JUMPI DUP1 PUSH1 0x1F LT PUSH2 0x301 JUMPI PUSH2 0x100 DUP1 DUP4 SLOAD DIV MUL DUP4 MSTORE SWAP2 PUSH1 0x20 ADD SWAP2 PUSH2 0x32C JUMP JUMPDEST DUP3 ADD SWAP2 SWAP1 PUSH1 0x0 MSTORE PUSH1 0x20 PUSH1 0x0 KECCAK256 SWAP1 JUMPDEST DUP2 SLOAD DUP2 MSTORE SWAP1 PUSH1 0x1 ADD SWAP1 PUSH1 0x20 ADD DUP1 DUP4 GT PUSH2 0x30F JUMPI DUP3 SWAP1 SUB PUSH1 0x1F AND DUP3 ADD SWAP2 JUMPDEST POP POP POP POP POP SWAP1 DUP1 PUSH1 0x2 ADD DUP1 SLOAD PUSH2 0x341 SWAP1 PUSH2 0xAC5 JUMP JUMPDEST DUP1 PUSH1 0x1F ADD PUSH1 0x20 DUP1 SWAP2 DIV MUL PUSH1 0x20 ADD PUSH1 0x40 MLOAD SWAP1 DUP2 ADD PUSH1 0x40 MSTORE DUP1 SWAP3 SWAP2 SWAP1 DUP2 DUP2 MSTORE PUSH1 0x20 ADD DUP3 DUP1 SLOAD PUSH2 0x36D SWAP1 PUSH2 0xAC5 JUMP JUMPDEST DUP1 ISZERO PUSH2 0x3BA JUMPI DUP1 PUSH1 0x1F LT PUSH2 0x38F JUMPI PUSH2 0x100 DUP1 DUP4 SLOAD DIV MUL DUP4 MSTORE SWAP2 PUSH1 0x20 ADD SWAP2 PUSH2 0x3BA JUMP JUMPDEST DUP3 ADD SWAP2 SWAP1 PUSH1 0x0 MSTORE PUSH1 0x20 PUSH1 0x0 KECCAK256 SWAP1 JUMPDEST DUP2 SLOAD DUP2 MSTORE SWAP1 PUSH1 0x1 ADD SWAP1 PUSH1 0x20 ADD DUP1 DUP4 GT PUSH2 0x39D JUMPI DUP3 SWAP1 SUB PUSH1 0x1F AND DUP3 ADD SWAP2 JUMPDEST POP POP POP POP POP SWAP1 DUP1 PUSH1 0x3 ADD PUSH1 0x0 SWAP1 SLOAD SWAP1 PUSH2 0x100 EXP SWAP1 DIV PUSH1 0xFF AND SWAP1 POP DUP5 JUMP JUMPDEST PUSH1 0x1 PUSH1 0x20 MSTORE DUP1 PUSH1 0x0 MSTORE PUSH1 0x40 PUSH1 0x0 KECCAK256 PUSH1 0x0 SWAP2 POP SWAP1 POP SLOAD DUP2 JUMP JUMPDEST PUSH1 0x0 PUSH1 0x1 PUSH1 0x0 CALLER PUSH20 0xFFFFFFFFFFFFFFFFFFFFFFFFFFFFFFFFFFFFFFFF AND PUSH20 0xFFFFFFFFFFFFFFFFFFFFFFFFFFFFFFFFFFFFFFFF AND DUP2 MSTORE PUSH1 0x20 ADD SWAP1 DUP2 MSTORE PUSH1 0x20 ADD PUSH1 0x0 KECCAK256 SLOAD SWAP1 POP SWAP1 JUMP JUMPDEST PUSH2 0x43E PUSH2 0x65D JUMP JUMPDEST PUSH1 0x0 DUP1 CALLER PUSH20 0xFFFFFFFFFFFFFFFFFFFFFFFFFFFFFFFFFFFFFFFF AND PUSH20 0xFFFFFFFFFFFFFFFFFFFFFFFFFFFFFFFFFFFFFFFF AND DUP2 MSTORE PUSH1 0x20 ADD SWAP1 DUP2 MSTORE PUSH1 0x20 ADD PUSH1 0x0 KECCAK256 PUSH1 0x40 MLOAD DUP1 PUSH1 0x80 ADD PUSH1 0x40 MSTORE SWAP1 DUP2 PUSH1 0x0 DUP3 ADD SLOAD DUP2 MSTORE PUSH1 0x20 ADD PUSH1 0x1 DUP3 ADD DUP1 SLOAD PUSH2 0x4A1 SWAP1 PUSH2 0xAC5 JUMP JUMPDEST DUP1 PUSH1 0x1F ADD PUSH1 0x20 DUP1 SWAP2 DIV MUL PUSH1 0x20 ADD PUSH1 0x40 MLOAD SWAP1 DUP2 ADD PUSH1 0x40 MSTORE DUP1 SWAP3 SWAP2 SWAP1 DUP2 DUP2 MSTORE PUSH1 0x20 ADD DUP3 DUP1 SLOAD PUSH2 0x4CD SWAP1 PUSH2 0xAC5 JUMP JUMPDEST DUP1 ISZERO PUSH2 0x51A JUMPI DUP1 PUSH1 0x1F LT PUSH2 0x4EF JUMPI PUSH2 0x100 DUP1 DUP4 SLOAD DIV MUL DUP4 MSTORE SWAP2 PUSH1 0x20 ADD SWAP2 PUSH2 0x51A JUMP JUMPDEST DUP3 ADD SWAP2 SWAP1 PUSH1 0x0 MSTORE PUSH1 0x20 PUSH1 0x0 KECCAK256 SWAP1 JUMPDEST DUP2 SLOAD DUP2 MSTORE SWAP1 PUSH1 0x1 ADD SWAP1 PUSH1 0x20 ADD DUP1 DUP4 GT PUSH2 0x4FD JUMPI DUP3 SWAP1 SUB PUSH1 0x1F AND DUP3 ADD SWAP2 JUMPDEST POP POP POP POP POP DUP2 MSTORE PUSH1 0x20 ADD PUSH1 0x2 DUP3 ADD DUP1 SLOAD PUSH2 0x533 SWAP1 PUSH2 0xAC5 JUMP JUMPDEST DUP1 PUSH1 0x1F ADD PUSH1 0x20 DUP1 SWAP2 DIV MUL PUSH1 0x20 ADD PUSH1 0x40 MLOAD SWAP1 DUP2 ADD PUSH1 0x40 MSTORE DUP1 SWAP3 SWAP2 SWAP1 DUP2 DUP2 MSTORE PUSH1 0x20 ADD DUP3 DUP1 SLOAD PUSH2 0x55F SWAP1 PUSH2 0xAC5 JUMP JUMPDEST DUP1 ISZERO PUSH2 0x5AC JUMPI DUP1 PUSH1 0x1F LT PUSH2 0x581 JUMPI PUSH2 0x100 DUP1 DUP4 SLOAD DIV MUL DUP4 MSTORE SWAP2 PUSH1 0x20 ADD SWAP2 PUSH2 0x5AC JUMP JUMPDEST DUP3 ADD SWAP2 SWAP1 PUSH1 0x0 MSTORE PUSH1 0x20 PUSH1 0x0 KECCAK256 SWAP1 JUMPDEST DUP2 SLOAD DUP2 MSTORE SWAP1 PUSH1 0x1 ADD SWAP1 PUSH1 0x20 ADD DUP1 DUP4 GT PUSH2 0x58F JUMPI DUP3 SWAP1 SUB PUSH1 0x1F AND DUP3 ADD SWAP2 JUMPDEST POP POP POP POP POP DUP2 MSTORE PUSH1 0x20 ADD PUSH1 0x3 DUP3 ADD PUSH1 0x0 SWAP1 SLOAD SWAP1 PUSH2 0x100 EXP SWAP1 DIV PUSH1 0xFF AND ISZERO ISZERO ISZERO ISZERO DUP2 MSTORE POP POP SWAP1 POP SWAP2 SWAP1 POP JUMP JUMPDEST DUP3 DUP1 SLOAD PUSH2 0x5E3 SWAP1 PUSH2 0xAC5 JUMP JUMPDEST SWAP1 PUSH1 0x0 MSTORE PUSH1 0x20 PUSH1 0x0 KECCAK256 SWAP1 PUSH1 0x1F ADD PUSH1 0x20 SWAP1 DIV DUP2 ADD SWAP3 DUP3 PUSH2 0x605 JUMPI PUSH1 0x0 DUP6 SSTORE PUSH2 0x64C JUMP JUMPDEST DUP3 PUSH1 0x1F LT PUSH2 0x61E JUMPI DUP1 MLOAD PUSH1 0xFF NOT AND DUP4 DUP1 ADD OR DUP6 SSTORE PUSH2 0x64C JUMP JUMPDEST DUP3 DUP1 ADD PUSH1 0x1 ADD DUP6 SSTORE DUP3 ISZERO PUSH2 0x64C JUMPI SWAP2 DUP3 ADD JUMPDEST DUP3 DUP2 GT ISZERO PUSH2 0x64B JUMPI DUP3 MLOAD DUP3 SSTORE SWAP2 PUSH1 0x20 ADD SWAP2 SWAP1 PUSH1 0x1 ADD SWAP1 PUSH2 0x630 JUMP JUMPDEST JUMPDEST POP SWAP1 POP PUSH2 0x659 SWAP2 SWAP1 PUSH2 0x687 JUMP JUMPDEST POP SWAP1 JUMP JUMPDEST PUSH1 0x40 MLOAD DUP1 PUSH1 0x80 ADD PUSH1 0x40 MSTORE DUP1 PUSH1 0x0 DUP2 MSTORE PUSH1 0x20 ADD PUSH1 0x60 DUP2 MSTORE PUSH1 0x20 ADD PUSH1 0x60 DUP2 MSTORE PUSH1 0x20 ADD PUSH1 0x0 ISZERO ISZERO DUP2 MSTORE POP SWAP1 JUMP JUMPDEST JUMPDEST DUP1 DUP3 GT ISZERO PUSH2 0x6A0 JUMPI PUSH1 0x0 DUP2 PUSH1 0x0 SWAP1 SSTORE POP PUSH1 0x1 ADD PUSH2 0x688 JUMP JUMPDEST POP SWAP1 JUMP JUMPDEST PUSH1 0x0 PUSH2 0x6B7 PUSH2 0x6B2 DUP5 PUSH2 0x9DD JUMP JUMPDEST PUSH2 0x9B8 JUMP JUMPDEST SWAP1 POP DUP3 DUP2 MSTORE PUSH1 0x20 DUP2 ADD DUP5 DUP5 DUP5 ADD GT ISZERO PUSH2 0x6D3 JUMPI PUSH2 0x6D2 PUSH2 0xC03 JUMP JUMPDEST JUMPDEST PUSH2 0x6DE DUP5 DUP3 DUP6 PUSH2 0xA83 JUMP JUMPDEST POP SWAP4 SWAP3 POP POP POP JUMP JUMPDEST PUSH1 0x0 DUP2 CALLDATALOAD SWAP1 POP PUSH2 0x6F5 DUP2 PUSH2 0xC23 JUMP JUMPDEST SWAP3 SWAP2 POP POP JUMP JUMPDEST PUSH1 0x0 DUP3 PUSH1 0x1F DUP4 ADD SLT PUSH2 0x710 JUMPI PUSH2 0x70F PUSH2 0xBFE JUMP JUMPDEST JUMPDEST DUP2 CALLDATALOAD PUSH2 0x720 DUP5 DUP3 PUSH1 0x20 DUP7 ADD PUSH2 0x6A4 JUMP JUMPDEST SWAP2 POP POP SWAP3 SWAP2 POP POP JUMP JUMPDEST PUSH1 0x0 DUP2 CALLDATALOAD SWAP1 POP PUSH2 0x738 DUP2 PUSH2 0xC3A JUMP JUMPDEST SWAP3 SWAP2 POP POP JUMP JUMPDEST PUSH1 0x0 PUSH1 0x20 DUP3 DUP5 SUB SLT ISZERO PUSH2 0x754 JUMPI PUSH2 0x753 PUSH2 0xC0D JUMP JUMPDEST JUMPDEST PUSH1 0x0 PUSH2 0x762 DUP5 DUP3 DUP6 ADD PUSH2 0x6E6 JUMP JUMPDEST SWAP2 POP POP SWAP3 SWAP2 POP POP JUMP JUMPDEST PUSH1 0x0 DUP1 PUSH1 0x40 DUP4 DUP6 SUB SLT ISZERO PUSH2 0x782 JUMPI PUSH2 0x781 PUSH2 0xC0D JUMP JUMPDEST JUMPDEST PUSH1 0x0 DUP4 ADD CALLDATALOAD PUSH8 0xFFFFFFFFFFFFFFFF DUP2 GT ISZERO PUSH2 0x7A0 JUMPI PUSH2 0x79F PUSH2 0xC08 JUMP JUMPDEST JUMPDEST PUSH2 0x7AC DUP6 DUP3 DUP7 ADD PUSH2 0x6FB JUMP JUMPDEST SWAP3 POP POP PUSH1 0x20 DUP4 ADD CALLDATALOAD PUSH8 0xFFFFFFFFFFFFFFFF DUP2 GT ISZERO PUSH2 0x7CD JUMPI PUSH2 0x7CC PUSH2 0xC08 JUMP JUMPDEST JUMPDEST PUSH2 0x7D9 DUP6 DUP3 DUP7 ADD PUSH2 0x6FB JUMP JUMPDEST SWAP2 POP POP SWAP3 POP SWAP3 SWAP1 POP JUMP JUMPDEST PUSH1 0x0 PUSH1 0x20 DUP3 DUP5 SUB SLT ISZERO PUSH2 0x7F9 JUMPI PUSH2 0x7F8 PUSH2 0xC0D JUMP JUMPDEST JUMPDEST PUSH1 0x0 PUSH2 0x807 DUP5 DUP3 DUP6 ADD PUSH2 0x729 JUMP JUMPDEST SWAP2 POP POP SWAP3 SWAP2 POP POP JUMP JUMPDEST PUSH2 0x819 DUP2 PUSH2 0xA4D JUMP JUMPDEST DUP3 MSTORE POP POP JUMP JUMPDEST PUSH2 0x828 DUP2 PUSH2 0xA4D JUMP JUMPDEST DUP3 MSTORE POP POP JUMP JUMPDEST PUSH1 0x0 PUSH2 0x839 DUP3 PUSH2 0xA0E JUMP JUMPDEST PUSH2 0x843 DUP2 DUP6 PUSH2 0xA19 JUMP JUMPDEST SWAP4 POP PUSH2 0x853 DUP2 DUP6 PUSH1 0x20 DUP7 ADD PUSH2 0xA92 JUMP JUMPDEST PUSH2 0x85C DUP2 PUSH2 0xC12 JUMP JUMPDEST DUP5 ADD SWAP2 POP POP SWAP3 SWAP2 POP POP JUMP JUMPDEST PUSH1 0x0 PUSH2 0x872 DUP3 PUSH2 0xA0E JUMP JUMPDEST PUSH2 0x87C DUP2 DUP6 PUSH2 0xA2A JUMP JUMPDEST SWAP4 POP PUSH2 0x88C DUP2 DUP6 PUSH1 0x20 DUP7 ADD PUSH2 0xA92 JUMP JUMPDEST PUSH2 0x895 DUP2 PUSH2 0xC12 JUMP JUMPDEST DUP5 ADD SWAP2 POP POP SWAP3 SWAP2 POP POP JUMP JUMPDEST PUSH1 0x0 PUSH1 0x80 DUP4 ADD PUSH1 0x0 DUP4 ADD MLOAD PUSH2 0x8B8 PUSH1 0x0 DUP7 ADD DUP3 PUSH2 0x90A JUMP JUMPDEST POP PUSH1 0x20 DUP4 ADD MLOAD DUP5 DUP3 SUB PUSH1 0x20 DUP7 ADD MSTORE PUSH2 0x8D0 DUP3 DUP3 PUSH2 0x82E JUMP JUMPDEST SWAP2 POP POP PUSH1 0x40 DUP4 ADD MLOAD DUP5 DUP3 SUB PUSH1 0x40 DUP7 ADD MSTORE PUSH2 0x8EA DUP3 DUP3 PUSH2 0x82E JUMP JUMPDEST SWAP2 POP POP PUSH1 0x60 DUP4 ADD MLOAD PUSH2 0x8FF PUSH1 0x60 DUP7 ADD DUP3 PUSH2 0x810 JUMP JUMPDEST POP DUP1 SWAP2 POP POP SWAP3 SWAP2 POP POP JUMP JUMPDEST PUSH2 0x913 DUP2 PUSH2 0xA79 JUMP JUMPDEST DUP3 MSTORE POP POP JUMP JUMPDEST PUSH2 0x922 DUP2 PUSH2 0xA79 JUMP JUMPDEST DUP3 MSTORE POP POP JUMP JUMPDEST PUSH1 0x0 PUSH1 0x20 DUP3 ADD SWAP1 POP DUP2 DUP2 SUB PUSH1 0x0 DUP4 ADD MSTORE PUSH2 0x942 DUP2 DUP5 PUSH2 0x8A0 JUMP JUMPDEST SWAP1 POP SWAP3 SWAP2 POP POP JUMP JUMPDEST PUSH1 0x0 PUSH1 0x20 DUP3 ADD SWAP1 POP PUSH2 0x95F PUSH1 0x0 DUP4 ADD DUP5 PUSH2 0x919 JUMP JUMPDEST SWAP3 SWAP2 POP POP JUMP JUMPDEST PUSH1 0x0 PUSH1 0x80 DUP3 ADD SWAP1 POP PUSH2 0x97A PUSH1 0x0 DUP4 ADD DUP8 PUSH2 0x919 JUMP JUMPDEST DUP2 DUP2 SUB PUSH1 0x20 DUP4 ADD MSTORE PUSH2 0x98C DUP2 DUP7 PUSH2 0x867 JUMP JUMPDEST SWAP1 POP DUP2 DUP2 SUB PUSH1 0x40 DUP4 ADD MSTORE PUSH2 0x9A0 DUP2 DUP6 PUSH2 0x867 JUMP JUMPDEST SWAP1 POP PUSH2 0x9AF PUSH1 0x60 DUP4 ADD DUP5 PUSH2 0x81F JUMP JUMPDEST SWAP6 SWAP5 POP POP POP POP POP JUMP JUMPDEST PUSH1 0x0 PUSH2 0x9C2 PUSH2 0x9D3 JUMP JUMPDEST SWAP1 POP PUSH2 0x9CE DUP3 DUP3 PUSH2 0xAF7 JUMP JUMPDEST SWAP2 SWAP1 POP JUMP JUMPDEST PUSH1 0x0 PUSH1 0x40 MLOAD SWAP1 POP SWAP1 JUMP JUMPDEST PUSH1 0x0 PUSH8 0xFFFFFFFFFFFFFFFF DUP3 GT ISZERO PUSH2 0x9F8 JUMPI PUSH2 0x9F7 PUSH2 0xBCF JUMP JUMPDEST JUMPDEST PUSH2 0xA01 DUP3 PUSH2 0xC12 JUMP JUMPDEST SWAP1 POP PUSH1 0x20 DUP2 ADD SWAP1 POP SWAP2 SWAP1 POP JUMP JUMPDEST PUSH1 0x0 DUP2 MLOAD SWAP1 POP SWAP2 SWAP1 POP JUMP JUMPDEST PUSH1 0x0 DUP3 DUP3 MSTORE PUSH1 0x20 DUP3 ADD SWAP1 POP SWAP3 SWAP2 POP POP JUMP JUMPDEST PUSH1 0x0 DUP3 DUP3 MSTORE PUSH1 0x20 DUP3 ADD SWAP1 POP SWAP3 SWAP2 POP POP JUMP JUMPDEST PUSH1 0x0 PUSH2 0xA46 DUP3 PUSH2 0xA59 JUMP JUMPDEST SWAP1 POP SWAP2 SWAP1 POP JUMP JUMPDEST PUSH1 0x0 DUP2 ISZERO ISZERO SWAP1 POP SWAP2 SWAP1 POP JUMP JUMPDEST PUSH1 0x0 PUSH20 0xFFFFFFFFFFFFFFFFFFFFFFFFFFFFFFFFFFFFFFFF DUP3 AND SWAP1 POP SWAP2 SWAP1 POP JUMP JUMPDEST PUSH1 0x0 DUP2 SWAP1 POP SWAP2 SWAP1 POP JUMP JUMPDEST DUP3 DUP2 DUP4 CALLDATACOPY PUSH1 0x0 DUP4 DUP4 ADD MSTORE POP POP POP JUMP JUMPDEST PUSH1 0x0 JUMPDEST DUP4 DUP2 LT ISZERO PUSH2 0xAB0 JUMPI DUP1 DUP3 ADD MLOAD DUP2 DUP5 ADD MSTORE PUSH1 0x20 DUP2 ADD SWAP1 POP PUSH2 0xA95 JUMP JUMPDEST DUP4 DUP2 GT ISZERO PUSH2 0xABF JUMPI PUSH1 0x0 DUP5 DUP5 ADD MSTORE JUMPDEST POP POP POP POP JUMP JUMPDEST PUSH1 0x0 PUSH1 0x2 DUP3 DIV SWAP1 POP PUSH1 0x1 DUP3 AND DUP1 PUSH2 0xADD JUMPI PUSH1 0x7F DUP3 AND SWAP2 POP JUMPDEST PUSH1 0x20 DUP3 LT DUP2 EQ ISZERO PUSH2 0xAF1 JUMPI PUSH2 0xAF0 PUSH2 0xBA0 JUMP JUMPDEST JUMPDEST POP SWAP2 SWAP1 POP JUMP JUMPDEST PUSH2 0xB00 DUP3 PUSH2 0xC12 JUMP JUMPDEST DUP2 ADD DUP2 DUP2 LT PUSH8 0xFFFFFFFFFFFFFFFF DUP3 GT OR ISZERO PUSH2 0xB1F JUMPI PUSH2 0xB1E PUSH2 0xBCF JUMP JUMPDEST JUMPDEST DUP1 PUSH1 0x40 MSTORE POP POP POP JUMP JUMPDEST PUSH1 0x0 PUSH2 0xB33 DUP3 PUSH2 0xA79 JUMP JUMPDEST SWAP2 POP PUSH32 0xFFFFFFFFFFFFFFFFFFFFFFFFFFFFFFFFFFFFFFFFFFFFFFFFFFFFFFFFFFFFFFFF DUP3 EQ ISZERO PUSH2 0xB66 JUMPI PUSH2 0xB65 PUSH2 0xB71 JUMP JUMPDEST JUMPDEST PUSH1 0x1 DUP3 ADD SWAP1 POP SWAP2 SWAP1 POP JUMP JUMPDEST PUSH32 0x4E487B7100000000000000000000000000000000000000000000000000000000 PUSH1 0x0 MSTORE PUSH1 0x11 PUSH1 0x4 MSTORE PUSH1 0x24 PUSH1 0x0 REVERT JUMPDEST PUSH32 0x4E487B7100000000000000000000000000000000000000000000000000000000 PUSH1 0x0 MSTORE PUSH1 0x22 PUSH1 0x4 MSTORE PUSH1 0x24 PUSH1 0x0 REVERT JUMPDEST PUSH32 0x4E487B7100000000000000000000000000000000000000000000000000000000 PUSH1 0x0 MSTORE PUSH1 0x41 PUSH1 0x4 MSTORE PUSH1 0x24 PUSH1 0x0 REVERT JUMPDEST PUSH1 0x0 DUP1 REVERT JUMPDEST PUSH1 0x0 DUP1 REVERT JUMPDEST PUSH1 0x0 DUP1 REVERT JUMPDEST PUSH1 0x0 DUP1 REVERT JUMPDEST PUSH1 0x0 PUSH1 0x1F NOT PUSH1 0x1F DUP4 ADD AND SWAP1 POP SWAP2 SWAP1 POP JUMP JUMPDEST PUSH2 0xC2C DUP2 PUSH2 0xA3B JUMP JUMPDEST DUP2 EQ PUSH2 0xC37 JUMPI PUSH1 0x0 DUP1 REVERT JUMPDEST POP JUMP JUMPDEST PUSH2 0xC43 DUP2 PUSH2 0xA79 JUMP JUMPDEST DUP2 EQ PUSH2 0xC4E JUMPI PUSH1 0x0 DUP1 REVERT JUMPDEST POP JUMP INVALID LOG2 PUSH5 0x6970667358 0x22 SLT KECCAK256 LOG0 CREATE2 0xD0 0xCA PUSH5 0xC4AFCCC5D5 0xDA 0xBC 0xD9 SLT EQ PUSH4 0xE5CC461C 0xB6 0xB6 SMOD 0x28 PUSH28 0xAD478884DA7C4964736F6C6343000807003300000000000000000000 "
				},
				"gasEstimates": {
					"creation": {
						"codeDepositCost": "641400",
						"executionCost": "676",
						"totalCost": "642076"
					},
					"external": {
						"addTodo(string,string)": "infinite",
						"counter(address)": "2836",
						"getAmount()": "2570",
						"getTodo(uint256)": "infinite",
						"todos(address)": "infinite"
					}
				},
				"methodIdentifiers": {
					"addTodo(string,string)": "1b7fb260",
					"counter(address)": "c12327b8",
					"getAmount()": "d321fe29",
					"getTodo(uint256)": "dd68afb6",
					"todos(address)": "56a68c00"
				}
			},
			"storageLayout": {
				"storage": [
					{
						"astId": 17,
						"contract": "ToDoApp.sol:ToDoApp",
						"label": "todos",
						"offset": 0,
						"slot": "0",
						"type": "t_mapping(t_address,t_struct(ToDo)11_storage)"
					},
					{
						"astId": 21,
						"contract": "ToDoApp.sol:ToDoApp",
						"label": "counter",
						"offset": 0,
						"slot": "1",
						"type": "t_mapping(t_address,t_uint256)"
					}
				],
				"types": {
					"t_address": {
						"encoding": "inplace",
						"label": "address",
						"numberOfBytes": "20"
					},
					"t_bool": {
						"encoding": "inplace",
						"label": "bool",
						"numberOfBytes": "1"
					},
					"t_mapping(t_address,t_struct(ToDo)11_storage)": {
						"encoding": "mapping",
						"key": "t_address",
						"label": "mapping(address => struct ToDoApp.ToDo)",
						"numberOfBytes": "32",
						"value": "t_struct(ToDo)11_storage"
					},
					"t_mapping(t_address,t_uint256)": {
						"encoding": "mapping",
						"key": "t_address",
						"label": "mapping(address => uint256)",
						"numberOfBytes": "32",
						"value": "t_uint256"
					},
					"t_string_storage": {
						"encoding": "bytes",
						"label": "string",
						"numberOfBytes": "32"
					},
					"t_struct(ToDo)11_storage": {
						"encoding": "inplace",
						"label": "struct ToDoApp.ToDo",
						"members": [
							{
								"astId": 4,
								"contract": "ToDoApp.sol:ToDoApp",
								"label": "id",
								"offset": 0,
								"slot": "0",
								"type": "t_uint256"
							},
							{
								"astId": 6,
								"contract": "ToDoApp.sol:ToDoApp",
								"label": "name",
								"offset": 0,
								"slot": "1",
								"type": "t_string_storage"
							},
							{
								"astId": 8,
								"contract": "ToDoApp.sol:ToDoApp",
								"label": "content",
								"offset": 0,
								"slot": "2",
								"type": "t_string_storage"
							},
							{
								"astId": 10,
								"contract": "ToDoApp.sol:ToDoApp",
								"label": "status",
								"offset": 0,
								"slot": "3",
								"type": "t_bool"
							}
						],
						"numberOfBytes": "128"
					},
					"t_uint256": {
						"encoding": "inplace",
						"label": "uint256",
						"numberOfBytes": "32"
					}
				}
			},
			"userdoc": {
				"kind": "user",
				"methods": {
					"addTodo(string,string)": {
						"notice": "Add new todo to memory. ID defaults to counter index and status defaults to false"
					},
					"constructor": {
						"notice": "Constructor"
					},
					"getAmount()": {
						"notice": "Get amount of todos"
					},
					"getTodo(uint256)": {
						"notice": "Get todo"
					},
					"todos(address)": {
						"notice": "Mappings"
					}
				},
				"notice": "A simple ToDo smart contract app",
				"version": 1
			}
		}
	}
}