{
	"ToDoApp.sol": {
		"ToDoApp": {
			"abi": [
				{
					"inputs": [],
					"stateMutability": "nonpayable",
					"type": "constructor"
				},
				{
					"inputs": [
						{
							"internalType": "uint256",
							"name": "id",
							"type": "uint256"
						},
						{
							"internalType": "string",
							"name": "name",
							"type": "string"
						},
						{
							"internalType": "string",
							"name": "content",
							"type": "string"
						},
						{
							"internalType": "bool",
							"name": "status",
							"type": "bool"
						}
					],
					"name": "addTodo",
					"outputs": [],
					"stateMutability": "nonpayable",
					"type": "function"
				},
				{
					"inputs": [],
					"name": "counter",
					"outputs": [
						{
							"internalType": "uint256",
							"name": "",
							"type": "uint256"
						}
					],
					"stateMutability": "view",
					"type": "function"
				},
				{
					"inputs": [],
					"name": "getAmount",
					"outputs": [
						{
							"internalType": "uint256",
							"name": "",
							"type": "uint256"
						}
					],
					"stateMutability": "view",
					"type": "function"
				},
				{
					"inputs": [
						{
							"internalType": "uint256",
							"name": "",
							"type": "uint256"
						}
					],
					"name": "todos",
					"outputs": [
						{
							"internalType": "uint256",
							"name": "id",
							"type": "uint256"
						},
						{
							"internalType": "string",
							"name": "name",
							"type": "string"
						},
						{
							"internalType": "string",
							"name": "content",
							"type": "string"
						},
						{
							"internalType": "bool",
							"name": "status",
							"type": "bool"
						}
					],
					"stateMutability": "view",
					"type": "function"
				}
			],
			"devdoc": {
				"kind": "dev",
				"methods": {},
				"version": 1
			},
			"evm": {
				"assembly": "    /* \"ToDoApp.sol\":120:1055  contract ToDoApp {... */\n  mstore(0x40, 0x80)\n    /* \"ToDoApp.sol\":476:525  constructor() {... */\n  callvalue\n  dup1\n  iszero\n  tag_1\n  jumpi\n  0x00\n  dup1\n  revert\ntag_1:\n  pop\n    /* \"ToDoApp.sol\":508:518  msg.sender */\n  caller\n    /* \"ToDoApp.sol\":500:505  owner */\n  0x00\n  dup1\n    /* \"ToDoApp.sol\":500:518  owner = msg.sender */\n  0x0100\n  exp\n  dup2\n  sload\n  dup2\n  0xffffffffffffffffffffffffffffffffffffffff\n  mul\n  not\n  and\n  swap1\n  dup4\n  0xffffffffffffffffffffffffffffffffffffffff\n  and\n  mul\n  or\n  swap1\n  sstore\n  pop\n    /* \"ToDoApp.sol\":120:1055  contract ToDoApp {... */\n  dataSize(sub_0)\n  dup1\n  dataOffset(sub_0)\n  0x00\n  codecopy\n  0x00\n  return\nstop\n\nsub_0: assembly {\n        /* \"ToDoApp.sol\":120:1055  contract ToDoApp {... */\n      mstore(0x40, 0x80)\n      callvalue\n      dup1\n      iszero\n      tag_1\n      jumpi\n      0x00\n      dup1\n      revert\n    tag_1:\n      pop\n      jumpi(tag_2, lt(calldatasize, 0x04))\n      shr(0xe0, calldataload(0x00))\n      dup1\n      0x3b04d05b\n      eq\n      tag_3\n      jumpi\n      dup1\n      0x61bc221a\n      eq\n      tag_4\n      jumpi\n      dup1\n      0xbc8bc2b4\n      eq\n      tag_5\n      jumpi\n      dup1\n      0xd321fe29\n      eq\n      tag_6\n      jumpi\n    tag_2:\n      0x00\n      dup1\n      revert\n        /* \"ToDoApp.sol\":567:855  function addTodo(... */\n    tag_3:\n      tag_7\n      0x04\n      dup1\n      calldatasize\n      sub\n      dup2\n      add\n      swap1\n      tag_8\n      swap2\n      swap1\n      tag_9\n      jump\t// in\n    tag_8:\n      tag_10\n      jump\t// in\n    tag_7:\n      stop\n        /* \"ToDoApp.sol\":196:215  uint public counter */\n    tag_4:\n      tag_11\n      tag_12\n      jump\t// in\n    tag_11:\n      mload(0x40)\n      tag_13\n      swap2\n      swap1\n      tag_14\n      jump\t// in\n    tag_13:\n      mload(0x40)\n      dup1\n      swap2\n      sub\n      swap1\n      return\n        /* \"ToDoApp.sol\":397:434  mapping(uint256 => ToDo) public todos */\n    tag_5:\n      tag_15\n      0x04\n      dup1\n      calldatasize\n      sub\n      dup2\n      add\n      swap1\n      tag_16\n      swap2\n      swap1\n      tag_17\n      jump\t// in\n    tag_16:\n      tag_18\n      jump\t// in\n    tag_15:\n      mload(0x40)\n      tag_19\n      swap5\n      swap4\n      swap3\n      swap2\n      swap1\n      tag_20\n      jump\t// in\n    tag_19:\n      mload(0x40)\n      dup1\n      swap2\n      sub\n      swap1\n      return\n        /* \"ToDoApp.sol\":924:1001  function getAmount() public view returns(uint){... */\n    tag_6:\n      tag_21\n      tag_22\n      jump\t// in\n    tag_21:\n      mload(0x40)\n      tag_23\n      swap2\n      swap1\n      tag_14\n      jump\t// in\n    tag_23:\n      mload(0x40)\n      dup1\n      swap2\n      sub\n      swap1\n      return\n        /* \"ToDoApp.sol\":567:855  function addTodo(... */\n    tag_10:\n        /* \"ToDoApp.sol\":761:792  ToDo(id, name, content, status) */\n      mload(0x40)\n      dup1\n      0x80\n      add\n      0x40\n      mstore\n      dup1\n        /* \"ToDoApp.sol\":766:768  id */\n      dup6\n        /* \"ToDoApp.sol\":761:792  ToDo(id, name, content, status) */\n      dup2\n      mstore\n      0x20\n      add\n        /* \"ToDoApp.sol\":770:774  name */\n      dup5\n        /* \"ToDoApp.sol\":761:792  ToDo(id, name, content, status) */\n      dup2\n      mstore\n      0x20\n      add\n        /* \"ToDoApp.sol\":776:783  content */\n      dup4\n        /* \"ToDoApp.sol\":761:792  ToDo(id, name, content, status) */\n      dup2\n      mstore\n      0x20\n      add\n        /* \"ToDoApp.sol\":785:791  status */\n      dup3\n        /* \"ToDoApp.sol\":761:792  ToDo(id, name, content, status) */\n      iszero\n      iszero\n      dup2\n      mstore\n      pop\n        /* \"ToDoApp.sol\":744:749  todos */\n      0x02\n        /* \"ToDoApp.sol\":744:758  todos[counter] */\n      0x00\n        /* \"ToDoApp.sol\":750:757  counter */\n      sload(0x01)\n        /* \"ToDoApp.sol\":744:758  todos[counter] */\n      dup2\n      mstore\n      0x20\n      add\n      swap1\n      dup2\n      mstore\n      0x20\n      add\n      0x00\n      keccak256\n        /* \"ToDoApp.sol\":744:792  todos[counter] = ToDo(id, name, content, status) */\n      0x00\n      dup3\n      add\n      mload\n      dup2\n      0x00\n      add\n      sstore\n      0x20\n      dup3\n      add\n      mload\n      dup2\n      0x01\n      add\n      swap1\n      dup1\n      mload\n      swap1\n      0x20\n      add\n      swap1\n      tag_25\n      swap3\n      swap2\n      swap1\n      tag_26\n      jump\t// in\n    tag_25:\n      pop\n      0x40\n      dup3\n      add\n      mload\n      dup2\n      0x02\n      add\n      swap1\n      dup1\n      mload\n      swap1\n      0x20\n      add\n      swap1\n      tag_27\n      swap3\n      swap2\n      swap1\n      tag_26\n      jump\t// in\n    tag_27:\n      pop\n      0x60\n      dup3\n      add\n      mload\n      dup2\n      0x03\n      add\n      exp(0x0100, 0x00)\n      dup2\n      sload\n      dup2\n      0xff\n      mul\n      not\n      and\n      swap1\n      dup4\n      iszero\n      iszero\n      mul\n      or\n      swap1\n      sstore\n      pop\n      swap1\n      pop\n      pop\n        /* \"ToDoApp.sol\":839:846  counter */\n      0x01\n      0x00\n        /* \"ToDoApp.sol\":839:848  counter++ */\n      dup2\n      sload\n      dup1\n      swap3\n      swap2\n      swap1\n      tag_28\n      swap1\n      tag_29\n      jump\t// in\n    tag_28:\n      swap2\n      swap1\n      pop\n      sstore\n      pop\n        /* \"ToDoApp.sol\":567:855  function addTodo(... */\n      pop\n      pop\n      pop\n      pop\n      jump\t// out\n        /* \"ToDoApp.sol\":196:215  uint public counter */\n    tag_12:\n      sload(0x01)\n      dup2\n      jump\t// out\n        /* \"ToDoApp.sol\":397:434  mapping(uint256 => ToDo) public todos */\n    tag_18:\n      mstore(0x20, 0x02)\n      dup1\n      0x00\n      mstore\n      keccak256(0x00, 0x40)\n      0x00\n      swap2\n      pop\n      swap1\n      pop\n      dup1\n      0x00\n      add\n      sload\n      swap1\n      dup1\n      0x01\n      add\n      dup1\n      sload\n      tag_30\n      swap1\n      tag_31\n      jump\t// in\n    tag_30:\n      dup1\n      0x1f\n      add\n      0x20\n      dup1\n      swap2\n      div\n      mul\n      0x20\n      add\n      mload(0x40)\n      swap1\n      dup2\n      add\n      0x40\n      mstore\n      dup1\n      swap3\n      swap2\n      swap1\n      dup2\n      dup2\n      mstore\n      0x20\n      add\n      dup3\n      dup1\n      sload\n      tag_32\n      swap1\n      tag_31\n      jump\t// in\n    tag_32:\n      dup1\n      iszero\n      tag_33\n      jumpi\n      dup1\n      0x1f\n      lt\n      tag_34\n      jumpi\n      0x0100\n      dup1\n      dup4\n      sload\n      div\n      mul\n      dup4\n      mstore\n      swap2\n      0x20\n      add\n      swap2\n      jump(tag_33)\n    tag_34:\n      dup3\n      add\n      swap2\n      swap1\n      0x00\n      mstore\n      keccak256(0x00, 0x20)\n      swap1\n    tag_35:\n      dup2\n      sload\n      dup2\n      mstore\n      swap1\n      0x01\n      add\n      swap1\n      0x20\n      add\n      dup1\n      dup4\n      gt\n      tag_35\n      jumpi\n      dup3\n      swap1\n      sub\n      0x1f\n      and\n      dup3\n      add\n      swap2\n    tag_33:\n      pop\n      pop\n      pop\n      pop\n      pop\n      swap1\n      dup1\n      0x02\n      add\n      dup1\n      sload\n      tag_36\n      swap1\n      tag_31\n      jump\t// in\n    tag_36:\n      dup1\n      0x1f\n      add\n      0x20\n      dup1\n      swap2\n      div\n      mul\n      0x20\n      add\n      mload(0x40)\n      swap1\n      dup2\n      add\n      0x40\n      mstore\n      dup1\n      swap3\n      swap2\n      swap1\n      dup2\n      dup2\n      mstore\n      0x20\n      add\n      dup3\n      dup1\n      sload\n      tag_37\n      swap1\n      tag_31\n      jump\t// in\n    tag_37:\n      dup1\n      iszero\n      tag_38\n      jumpi\n      dup1\n      0x1f\n      lt\n      tag_39\n      jumpi\n      0x0100\n      dup1\n      dup4\n      sload\n      div\n      mul\n      dup4\n      mstore\n      swap2\n      0x20\n      add\n      swap2\n      jump(tag_38)\n    tag_39:\n      dup3\n      add\n      swap2\n      swap1\n      0x00\n      mstore\n      keccak256(0x00, 0x20)\n      swap1\n    tag_40:\n      dup2\n      sload\n      dup2\n      mstore\n      swap1\n      0x01\n      add\n      swap1\n      0x20\n      add\n      dup1\n      dup4\n      gt\n      tag_40\n      jumpi\n      dup3\n      swap1\n      sub\n      0x1f\n      and\n      dup3\n      add\n      swap2\n    tag_38:\n      pop\n      pop\n      pop\n      pop\n      pop\n      swap1\n      dup1\n      0x03\n      add\n      0x00\n      swap1\n      sload\n      swap1\n      0x0100\n      exp\n      swap1\n      div\n      0xff\n      and\n      swap1\n      pop\n      dup5\n      jump\t// out\n        /* \"ToDoApp.sol\":924:1001  function getAmount() public view returns(uint){... */\n    tag_22:\n        /* \"ToDoApp.sol\":965:969  uint */\n      0x00\n        /* \"ToDoApp.sol\":987:994  counter */\n      sload(0x01)\n        /* \"ToDoApp.sol\":980:994  return counter */\n      swap1\n      pop\n        /* \"ToDoApp.sol\":924:1001  function getAmount() public view returns(uint){... */\n      swap1\n      jump\t// out\n    tag_26:\n      dup3\n      dup1\n      sload\n      tag_42\n      swap1\n      tag_31\n      jump\t// in\n    tag_42:\n      swap1\n      0x00\n      mstore\n      keccak256(0x00, 0x20)\n      swap1\n      0x1f\n      add\n      0x20\n      swap1\n      div\n      dup2\n      add\n      swap3\n      dup3\n      tag_44\n      jumpi\n      0x00\n      dup6\n      sstore\n      jump(tag_43)\n    tag_44:\n      dup3\n      0x1f\n      lt\n      tag_45\n      jumpi\n      dup1\n      mload\n      not(0xff)\n      and\n      dup4\n      dup1\n      add\n      or\n      dup6\n      sstore\n      jump(tag_43)\n    tag_45:\n      dup3\n      dup1\n      add\n      0x01\n      add\n      dup6\n      sstore\n      dup3\n      iszero\n      tag_43\n      jumpi\n      swap2\n      dup3\n      add\n    tag_46:\n      dup3\n      dup2\n      gt\n      iszero\n      tag_47\n      jumpi\n      dup3\n      mload\n      dup3\n      sstore\n      swap2\n      0x20\n      add\n      swap2\n      swap1\n      0x01\n      add\n      swap1\n      jump(tag_46)\n    tag_47:\n    tag_43:\n      pop\n      swap1\n      pop\n      tag_48\n      swap2\n      swap1\n      tag_49\n      jump\t// in\n    tag_48:\n      pop\n      swap1\n      jump\t// out\n    tag_49:\n    tag_50:\n      dup1\n      dup3\n      gt\n      iszero\n      tag_51\n      jumpi\n      0x00\n      dup2\n      0x00\n      swap1\n      sstore\n      pop\n      0x01\n      add\n      jump(tag_50)\n    tag_51:\n      pop\n      swap1\n      jump\t// out\n        /* \"#utility.yul\":7:419   */\n    tag_53:\n        /* \"#utility.yul\":85:90   */\n      0x00\n        /* \"#utility.yul\":110:176   */\n      tag_55\n        /* \"#utility.yul\":126:175   */\n      tag_56\n        /* \"#utility.yul\":168:174   */\n      dup5\n        /* \"#utility.yul\":126:175   */\n      tag_57\n      jump\t// in\n    tag_56:\n        /* \"#utility.yul\":110:176   */\n      tag_58\n      jump\t// in\n    tag_55:\n        /* \"#utility.yul\":101:176   */\n      swap1\n      pop\n        /* \"#utility.yul\":199:205   */\n      dup3\n        /* \"#utility.yul\":192:197   */\n      dup2\n        /* \"#utility.yul\":185:206   */\n      mstore\n        /* \"#utility.yul\":237:241   */\n      0x20\n        /* \"#utility.yul\":230:235   */\n      dup2\n        /* \"#utility.yul\":226:242   */\n      add\n        /* \"#utility.yul\":275:278   */\n      dup5\n        /* \"#utility.yul\":266:272   */\n      dup5\n        /* \"#utility.yul\":261:264   */\n      dup5\n        /* \"#utility.yul\":257:273   */\n      add\n        /* \"#utility.yul\":254:279   */\n      gt\n        /* \"#utility.yul\":251:363   */\n      iszero\n      tag_59\n      jumpi\n        /* \"#utility.yul\":282:361   */\n      tag_60\n      tag_61\n      jump\t// in\n    tag_60:\n        /* \"#utility.yul\":251:363   */\n    tag_59:\n        /* \"#utility.yul\":372:413   */\n      tag_62\n        /* \"#utility.yul\":406:412   */\n      dup5\n        /* \"#utility.yul\":401:404   */\n      dup3\n        /* \"#utility.yul\":396:399   */\n      dup6\n        /* \"#utility.yul\":372:413   */\n      tag_63\n      jump\t// in\n    tag_62:\n        /* \"#utility.yul\":91:419   */\n      pop\n        /* \"#utility.yul\":7:419   */\n      swap4\n      swap3\n      pop\n      pop\n      pop\n      jump\t// out\n        /* \"#utility.yul\":425:558   */\n    tag_64:\n        /* \"#utility.yul\":468:473   */\n      0x00\n        /* \"#utility.yul\":506:512   */\n      dup2\n        /* \"#utility.yul\":493:513   */\n      calldataload\n        /* \"#utility.yul\":484:513   */\n      swap1\n      pop\n        /* \"#utility.yul\":522:552   */\n      tag_66\n        /* \"#utility.yul\":546:551   */\n      dup2\n        /* \"#utility.yul\":522:552   */\n      tag_67\n      jump\t// in\n    tag_66:\n        /* \"#utility.yul\":425:558   */\n      swap3\n      swap2\n      pop\n      pop\n      jump\t// out\n        /* \"#utility.yul\":578:918   */\n    tag_68:\n        /* \"#utility.yul\":634:639   */\n      0x00\n        /* \"#utility.yul\":683:686   */\n      dup3\n        /* \"#utility.yul\":676:680   */\n      0x1f\n        /* \"#utility.yul\":668:674   */\n      dup4\n        /* \"#utility.yul\":664:681   */\n      add\n        /* \"#utility.yul\":660:687   */\n      slt\n        /* \"#utility.yul\":650:772   */\n      tag_70\n      jumpi\n        /* \"#utility.yul\":691:770   */\n      tag_71\n      tag_72\n      jump\t// in\n    tag_71:\n        /* \"#utility.yul\":650:772   */\n    tag_70:\n        /* \"#utility.yul\":808:814   */\n      dup2\n        /* \"#utility.yul\":795:815   */\n      calldataload\n        /* \"#utility.yul\":833:912   */\n      tag_73\n        /* \"#utility.yul\":908:911   */\n      dup5\n        /* \"#utility.yul\":900:906   */\n      dup3\n        /* \"#utility.yul\":893:897   */\n      0x20\n        /* \"#utility.yul\":885:891   */\n      dup7\n        /* \"#utility.yul\":881:898   */\n      add\n        /* \"#utility.yul\":833:912   */\n      tag_53\n      jump\t// in\n    tag_73:\n        /* \"#utility.yul\":824:912   */\n      swap2\n      pop\n        /* \"#utility.yul\":640:918   */\n      pop\n        /* \"#utility.yul\":578:918   */\n      swap3\n      swap2\n      pop\n      pop\n      jump\t// out\n        /* \"#utility.yul\":924:1063   */\n    tag_74:\n        /* \"#utility.yul\":970:975   */\n      0x00\n        /* \"#utility.yul\":1008:1014   */\n      dup2\n        /* \"#utility.yul\":995:1015   */\n      calldataload\n        /* \"#utility.yul\":986:1015   */\n      swap1\n      pop\n        /* \"#utility.yul\":1024:1057   */\n      tag_76\n        /* \"#utility.yul\":1051:1056   */\n      dup2\n        /* \"#utility.yul\":1024:1057   */\n      tag_77\n      jump\t// in\n    tag_76:\n        /* \"#utility.yul\":924:1063   */\n      swap3\n      swap2\n      pop\n      pop\n      jump\t// out\n        /* \"#utility.yul\":1069:1398   */\n    tag_17:\n        /* \"#utility.yul\":1128:1134   */\n      0x00\n        /* \"#utility.yul\":1177:1179   */\n      0x20\n        /* \"#utility.yul\":1165:1174   */\n      dup3\n        /* \"#utility.yul\":1156:1163   */\n      dup5\n        /* \"#utility.yul\":1152:1175   */\n      sub\n        /* \"#utility.yul\":1148:1180   */\n      slt\n        /* \"#utility.yul\":1145:1264   */\n      iszero\n      tag_79\n      jumpi\n        /* \"#utility.yul\":1183:1262   */\n      tag_80\n      tag_81\n      jump\t// in\n    tag_80:\n        /* \"#utility.yul\":1145:1264   */\n    tag_79:\n        /* \"#utility.yul\":1303:1304   */\n      0x00\n        /* \"#utility.yul\":1328:1381   */\n      tag_82\n        /* \"#utility.yul\":1373:1380   */\n      dup5\n        /* \"#utility.yul\":1364:1370   */\n      dup3\n        /* \"#utility.yul\":1353:1362   */\n      dup6\n        /* \"#utility.yul\":1349:1371   */\n      add\n        /* \"#utility.yul\":1328:1381   */\n      tag_74\n      jump\t// in\n    tag_82:\n        /* \"#utility.yul\":1318:1381   */\n      swap2\n      pop\n        /* \"#utility.yul\":1274:1391   */\n      pop\n        /* \"#utility.yul\":1069:1398   */\n      swap3\n      swap2\n      pop\n      pop\n      jump\t// out\n        /* \"#utility.yul\":1404:2523   */\n    tag_9:\n        /* \"#utility.yul\":1507:1513   */\n      0x00\n        /* \"#utility.yul\":1515:1521   */\n      dup1\n        /* \"#utility.yul\":1523:1529   */\n      0x00\n        /* \"#utility.yul\":1531:1537   */\n      dup1\n        /* \"#utility.yul\":1580:1583   */\n      0x80\n        /* \"#utility.yul\":1568:1577   */\n      dup6\n        /* \"#utility.yul\":1559:1566   */\n      dup8\n        /* \"#utility.yul\":1555:1578   */\n      sub\n        /* \"#utility.yul\":1551:1584   */\n      slt\n        /* \"#utility.yul\":1548:1668   */\n      iszero\n      tag_84\n      jumpi\n        /* \"#utility.yul\":1587:1666   */\n      tag_85\n      tag_81\n      jump\t// in\n    tag_85:\n        /* \"#utility.yul\":1548:1668   */\n    tag_84:\n        /* \"#utility.yul\":1707:1708   */\n      0x00\n        /* \"#utility.yul\":1732:1785   */\n      tag_86\n        /* \"#utility.yul\":1777:1784   */\n      dup8\n        /* \"#utility.yul\":1768:1774   */\n      dup3\n        /* \"#utility.yul\":1757:1766   */\n      dup9\n        /* \"#utility.yul\":1753:1775   */\n      add\n        /* \"#utility.yul\":1732:1785   */\n      tag_74\n      jump\t// in\n    tag_86:\n        /* \"#utility.yul\":1722:1785   */\n      swap5\n      pop\n        /* \"#utility.yul\":1678:1795   */\n      pop\n        /* \"#utility.yul\":1862:1864   */\n      0x20\n        /* \"#utility.yul\":1851:1860   */\n      dup6\n        /* \"#utility.yul\":1847:1865   */\n      add\n        /* \"#utility.yul\":1834:1866   */\n      calldataload\n        /* \"#utility.yul\":1893:1911   */\n      0xffffffffffffffff\n        /* \"#utility.yul\":1885:1891   */\n      dup2\n        /* \"#utility.yul\":1882:1912   */\n      gt\n        /* \"#utility.yul\":1879:1996   */\n      iszero\n      tag_87\n      jumpi\n        /* \"#utility.yul\":1915:1994   */\n      tag_88\n      tag_89\n      jump\t// in\n    tag_88:\n        /* \"#utility.yul\":1879:1996   */\n    tag_87:\n        /* \"#utility.yul\":2020:2083   */\n      tag_90\n        /* \"#utility.yul\":2075:2082   */\n      dup8\n        /* \"#utility.yul\":2066:2072   */\n      dup3\n        /* \"#utility.yul\":2055:2064   */\n      dup9\n        /* \"#utility.yul\":2051:2073   */\n      add\n        /* \"#utility.yul\":2020:2083   */\n      tag_68\n      jump\t// in\n    tag_90:\n        /* \"#utility.yul\":2010:2083   */\n      swap4\n      pop\n        /* \"#utility.yul\":1805:2093   */\n      pop\n        /* \"#utility.yul\":2160:2162   */\n      0x40\n        /* \"#utility.yul\":2149:2158   */\n      dup6\n        /* \"#utility.yul\":2145:2163   */\n      add\n        /* \"#utility.yul\":2132:2164   */\n      calldataload\n        /* \"#utility.yul\":2191:2209   */\n      0xffffffffffffffff\n        /* \"#utility.yul\":2183:2189   */\n      dup2\n        /* \"#utility.yul\":2180:2210   */\n      gt\n        /* \"#utility.yul\":2177:2294   */\n      iszero\n      tag_91\n      jumpi\n        /* \"#utility.yul\":2213:2292   */\n      tag_92\n      tag_89\n      jump\t// in\n    tag_92:\n        /* \"#utility.yul\":2177:2294   */\n    tag_91:\n        /* \"#utility.yul\":2318:2381   */\n      tag_93\n        /* \"#utility.yul\":2373:2380   */\n      dup8\n        /* \"#utility.yul\":2364:2370   */\n      dup3\n        /* \"#utility.yul\":2353:2362   */\n      dup9\n        /* \"#utility.yul\":2349:2371   */\n      add\n        /* \"#utility.yul\":2318:2381   */\n      tag_68\n      jump\t// in\n    tag_93:\n        /* \"#utility.yul\":2308:2381   */\n      swap3\n      pop\n        /* \"#utility.yul\":2103:2391   */\n      pop\n        /* \"#utility.yul\":2430:2432   */\n      0x60\n        /* \"#utility.yul\":2456:2506   */\n      tag_94\n        /* \"#utility.yul\":2498:2505   */\n      dup8\n        /* \"#utility.yul\":2489:2495   */\n      dup3\n        /* \"#utility.yul\":2478:2487   */\n      dup9\n        /* \"#utility.yul\":2474:2496   */\n      add\n        /* \"#utility.yul\":2456:2506   */\n      tag_64\n      jump\t// in\n    tag_94:\n        /* \"#utility.yul\":2446:2506   */\n      swap2\n      pop\n        /* \"#utility.yul\":2401:2516   */\n      pop\n        /* \"#utility.yul\":1404:2523   */\n      swap3\n      swap6\n      swap2\n      swap5\n      pop\n      swap3\n      pop\n      jump\t// out\n        /* \"#utility.yul\":2529:2638   */\n    tag_95:\n        /* \"#utility.yul\":2610:2631   */\n      tag_97\n        /* \"#utility.yul\":2625:2630   */\n      dup2\n        /* \"#utility.yul\":2610:2631   */\n      tag_98\n      jump\t// in\n    tag_97:\n        /* \"#utility.yul\":2605:2608   */\n      dup3\n        /* \"#utility.yul\":2598:2632   */\n      mstore\n        /* \"#utility.yul\":2529:2638   */\n      pop\n      pop\n      jump\t// out\n        /* \"#utility.yul\":2644:3008   */\n    tag_99:\n        /* \"#utility.yul\":2732:2735   */\n      0x00\n        /* \"#utility.yul\":2760:2799   */\n      tag_101\n        /* \"#utility.yul\":2793:2798   */\n      dup3\n        /* \"#utility.yul\":2760:2799   */\n      tag_102\n      jump\t// in\n    tag_101:\n        /* \"#utility.yul\":2815:2886   */\n      tag_103\n        /* \"#utility.yul\":2879:2885   */\n      dup2\n        /* \"#utility.yul\":2874:2877   */\n      dup6\n        /* \"#utility.yul\":2815:2886   */\n      tag_104\n      jump\t// in\n    tag_103:\n        /* \"#utility.yul\":2808:2886   */\n      swap4\n      pop\n        /* \"#utility.yul\":2895:2947   */\n      tag_105\n        /* \"#utility.yul\":2940:2946   */\n      dup2\n        /* \"#utility.yul\":2935:2938   */\n      dup6\n        /* \"#utility.yul\":2928:2932   */\n      0x20\n        /* \"#utility.yul\":2921:2926   */\n      dup7\n        /* \"#utility.yul\":2917:2933   */\n      add\n        /* \"#utility.yul\":2895:2947   */\n      tag_106\n      jump\t// in\n    tag_105:\n        /* \"#utility.yul\":2972:3001   */\n      tag_107\n        /* \"#utility.yul\":2994:3000   */\n      dup2\n        /* \"#utility.yul\":2972:3001   */\n      tag_108\n      jump\t// in\n    tag_107:\n        /* \"#utility.yul\":2967:2970   */\n      dup5\n        /* \"#utility.yul\":2963:3002   */\n      add\n        /* \"#utility.yul\":2956:3002   */\n      swap2\n      pop\n        /* \"#utility.yul\":2736:3008   */\n      pop\n        /* \"#utility.yul\":2644:3008   */\n      swap3\n      swap2\n      pop\n      pop\n      jump\t// out\n        /* \"#utility.yul\":3014:3132   */\n    tag_109:\n        /* \"#utility.yul\":3101:3125   */\n      tag_111\n        /* \"#utility.yul\":3119:3124   */\n      dup2\n        /* \"#utility.yul\":3101:3125   */\n      tag_112\n      jump\t// in\n    tag_111:\n        /* \"#utility.yul\":3096:3099   */\n      dup3\n        /* \"#utility.yul\":3089:3126   */\n      mstore\n        /* \"#utility.yul\":3014:3132   */\n      pop\n      pop\n      jump\t// out\n        /* \"#utility.yul\":3138:3360   */\n    tag_14:\n        /* \"#utility.yul\":3231:3235   */\n      0x00\n        /* \"#utility.yul\":3269:3271   */\n      0x20\n        /* \"#utility.yul\":3258:3267   */\n      dup3\n        /* \"#utility.yul\":3254:3272   */\n      add\n        /* \"#utility.yul\":3246:3272   */\n      swap1\n      pop\n        /* \"#utility.yul\":3282:3353   */\n      tag_114\n        /* \"#utility.yul\":3350:3351   */\n      0x00\n        /* \"#utility.yul\":3339:3348   */\n      dup4\n        /* \"#utility.yul\":3335:3352   */\n      add\n        /* \"#utility.yul\":3326:3332   */\n      dup5\n        /* \"#utility.yul\":3282:3353   */\n      tag_109\n      jump\t// in\n    tag_114:\n        /* \"#utility.yul\":3138:3360   */\n      swap3\n      swap2\n      pop\n      pop\n      jump\t// out\n        /* \"#utility.yul\":3366:4089   */\n    tag_20:\n        /* \"#utility.yul\":3577:3581   */\n      0x00\n        /* \"#utility.yul\":3615:3618   */\n      0x80\n        /* \"#utility.yul\":3604:3613   */\n      dup3\n        /* \"#utility.yul\":3600:3619   */\n      add\n        /* \"#utility.yul\":3592:3619   */\n      swap1\n      pop\n        /* \"#utility.yul\":3629:3700   */\n      tag_116\n        /* \"#utility.yul\":3697:3698   */\n      0x00\n        /* \"#utility.yul\":3686:3695   */\n      dup4\n        /* \"#utility.yul\":3682:3699   */\n      add\n        /* \"#utility.yul\":3673:3679   */\n      dup8\n        /* \"#utility.yul\":3629:3700   */\n      tag_109\n      jump\t// in\n    tag_116:\n        /* \"#utility.yul\":3747:3756   */\n      dup2\n        /* \"#utility.yul\":3741:3745   */\n      dup2\n        /* \"#utility.yul\":3737:3757   */\n      sub\n        /* \"#utility.yul\":3732:3734   */\n      0x20\n        /* \"#utility.yul\":3721:3730   */\n      dup4\n        /* \"#utility.yul\":3717:3735   */\n      add\n        /* \"#utility.yul\":3710:3758   */\n      mstore\n        /* \"#utility.yul\":3775:3853   */\n      tag_117\n        /* \"#utility.yul\":3848:3852   */\n      dup2\n        /* \"#utility.yul\":3839:3845   */\n      dup7\n        /* \"#utility.yul\":3775:3853   */\n      tag_99\n      jump\t// in\n    tag_117:\n        /* \"#utility.yul\":3767:3853   */\n      swap1\n      pop\n        /* \"#utility.yul\":3900:3909   */\n      dup2\n        /* \"#utility.yul\":3894:3898   */\n      dup2\n        /* \"#utility.yul\":3890:3910   */\n      sub\n        /* \"#utility.yul\":3885:3887   */\n      0x40\n        /* \"#utility.yul\":3874:3883   */\n      dup4\n        /* \"#utility.yul\":3870:3888   */\n      add\n        /* \"#utility.yul\":3863:3911   */\n      mstore\n        /* \"#utility.yul\":3928:4006   */\n      tag_118\n        /* \"#utility.yul\":4001:4005   */\n      dup2\n        /* \"#utility.yul\":3992:3998   */\n      dup6\n        /* \"#utility.yul\":3928:4006   */\n      tag_99\n      jump\t// in\n    tag_118:\n        /* \"#utility.yul\":3920:4006   */\n      swap1\n      pop\n        /* \"#utility.yul\":4016:4082   */\n      tag_119\n        /* \"#utility.yul\":4078:4080   */\n      0x60\n        /* \"#utility.yul\":4067:4076   */\n      dup4\n        /* \"#utility.yul\":4063:4081   */\n      add\n        /* \"#utility.yul\":4054:4060   */\n      dup5\n        /* \"#utility.yul\":4016:4082   */\n      tag_95\n      jump\t// in\n    tag_119:\n        /* \"#utility.yul\":3366:4089   */\n      swap6\n      swap5\n      pop\n      pop\n      pop\n      pop\n      pop\n      jump\t// out\n        /* \"#utility.yul\":4095:4224   */\n    tag_58:\n        /* \"#utility.yul\":4129:4135   */\n      0x00\n        /* \"#utility.yul\":4156:4176   */\n      tag_121\n      tag_122\n      jump\t// in\n    tag_121:\n        /* \"#utility.yul\":4146:4176   */\n      swap1\n      pop\n        /* \"#utility.yul\":4185:4218   */\n      tag_123\n        /* \"#utility.yul\":4213:4217   */\n      dup3\n        /* \"#utility.yul\":4205:4211   */\n      dup3\n        /* \"#utility.yul\":4185:4218   */\n      tag_124\n      jump\t// in\n    tag_123:\n        /* \"#utility.yul\":4095:4224   */\n      swap2\n      swap1\n      pop\n      jump\t// out\n        /* \"#utility.yul\":4230:4305   */\n    tag_122:\n        /* \"#utility.yul\":4263:4269   */\n      0x00\n        /* \"#utility.yul\":4296:4298   */\n      0x40\n        /* \"#utility.yul\":4290:4299   */\n      mload\n        /* \"#utility.yul\":4280:4299   */\n      swap1\n      pop\n        /* \"#utility.yul\":4230:4305   */\n      swap1\n      jump\t// out\n        /* \"#utility.yul\":4311:4619   */\n    tag_57:\n        /* \"#utility.yul\":4373:4377   */\n      0x00\n        /* \"#utility.yul\":4463:4481   */\n      0xffffffffffffffff\n        /* \"#utility.yul\":4455:4461   */\n      dup3\n        /* \"#utility.yul\":4452:4482   */\n      gt\n        /* \"#utility.yul\":4449:4505   */\n      iszero\n      tag_127\n      jumpi\n        /* \"#utility.yul\":4485:4503   */\n      tag_128\n      tag_129\n      jump\t// in\n    tag_128:\n        /* \"#utility.yul\":4449:4505   */\n    tag_127:\n        /* \"#utility.yul\":4523:4552   */\n      tag_130\n        /* \"#utility.yul\":4545:4551   */\n      dup3\n        /* \"#utility.yul\":4523:4552   */\n      tag_108\n      jump\t// in\n    tag_130:\n        /* \"#utility.yul\":4515:4552   */\n      swap1\n      pop\n        /* \"#utility.yul\":4607:4611   */\n      0x20\n        /* \"#utility.yul\":4601:4605   */\n      dup2\n        /* \"#utility.yul\":4597:4612   */\n      add\n        /* \"#utility.yul\":4589:4612   */\n      swap1\n      pop\n        /* \"#utility.yul\":4311:4619   */\n      swap2\n      swap1\n      pop\n      jump\t// out\n        /* \"#utility.yul\":4625:4724   */\n    tag_102:\n        /* \"#utility.yul\":4677:4683   */\n      0x00\n        /* \"#utility.yul\":4711:4716   */\n      dup2\n        /* \"#utility.yul\":4705:4717   */\n      mload\n        /* \"#utility.yul\":4695:4717   */\n      swap1\n      pop\n        /* \"#utility.yul\":4625:4724   */\n      swap2\n      swap1\n      pop\n      jump\t// out\n        /* \"#utility.yul\":4730:4899   */\n    tag_104:\n        /* \"#utility.yul\":4814:4825   */\n      0x00\n        /* \"#utility.yul\":4848:4854   */\n      dup3\n        /* \"#utility.yul\":4843:4846   */\n      dup3\n        /* \"#utility.yul\":4836:4855   */\n      mstore\n        /* \"#utility.yul\":4888:4892   */\n      0x20\n        /* \"#utility.yul\":4883:4886   */\n      dup3\n        /* \"#utility.yul\":4879:4893   */\n      add\n        /* \"#utility.yul\":4864:4893   */\n      swap1\n      pop\n        /* \"#utility.yul\":4730:4899   */\n      swap3\n      swap2\n      pop\n      pop\n      jump\t// out\n        /* \"#utility.yul\":4905:4995   */\n    tag_98:\n        /* \"#utility.yul\":4939:4946   */\n      0x00\n        /* \"#utility.yul\":4982:4987   */\n      dup2\n        /* \"#utility.yul\":4975:4988   */\n      iszero\n        /* \"#utility.yul\":4968:4989   */\n      iszero\n        /* \"#utility.yul\":4957:4989   */\n      swap1\n      pop\n        /* \"#utility.yul\":4905:4995   */\n      swap2\n      swap1\n      pop\n      jump\t// out\n        /* \"#utility.yul\":5001:5078   */\n    tag_112:\n        /* \"#utility.yul\":5038:5045   */\n      0x00\n        /* \"#utility.yul\":5067:5072   */\n      dup2\n        /* \"#utility.yul\":5056:5072   */\n      swap1\n      pop\n        /* \"#utility.yul\":5001:5078   */\n      swap2\n      swap1\n      pop\n      jump\t// out\n        /* \"#utility.yul\":5084:5238   */\n    tag_63:\n        /* \"#utility.yul\":5168:5174   */\n      dup3\n        /* \"#utility.yul\":5163:5166   */\n      dup2\n        /* \"#utility.yul\":5158:5161   */\n      dup4\n        /* \"#utility.yul\":5145:5175   */\n      calldatacopy\n        /* \"#utility.yul\":5230:5231   */\n      0x00\n        /* \"#utility.yul\":5221:5227   */\n      dup4\n        /* \"#utility.yul\":5216:5219   */\n      dup4\n        /* \"#utility.yul\":5212:5228   */\n      add\n        /* \"#utility.yul\":5205:5232   */\n      mstore\n        /* \"#utility.yul\":5084:5238   */\n      pop\n      pop\n      pop\n      jump\t// out\n        /* \"#utility.yul\":5244:5551   */\n    tag_106:\n        /* \"#utility.yul\":5312:5313   */\n      0x00\n        /* \"#utility.yul\":5322:5435   */\n    tag_137:\n        /* \"#utility.yul\":5336:5342   */\n      dup4\n        /* \"#utility.yul\":5333:5334   */\n      dup2\n        /* \"#utility.yul\":5330:5343   */\n      lt\n        /* \"#utility.yul\":5322:5435   */\n      iszero\n      tag_139\n      jumpi\n        /* \"#utility.yul\":5421:5422   */\n      dup1\n        /* \"#utility.yul\":5416:5419   */\n      dup3\n        /* \"#utility.yul\":5412:5423   */\n      add\n        /* \"#utility.yul\":5406:5424   */\n      mload\n        /* \"#utility.yul\":5402:5403   */\n      dup2\n        /* \"#utility.yul\":5397:5400   */\n      dup5\n        /* \"#utility.yul\":5393:5404   */\n      add\n        /* \"#utility.yul\":5386:5425   */\n      mstore\n        /* \"#utility.yul\":5358:5360   */\n      0x20\n        /* \"#utility.yul\":5355:5356   */\n      dup2\n        /* \"#utility.yul\":5351:5361   */\n      add\n        /* \"#utility.yul\":5346:5361   */\n      swap1\n      pop\n        /* \"#utility.yul\":5322:5435   */\n      jump(tag_137)\n    tag_139:\n        /* \"#utility.yul\":5453:5459   */\n      dup4\n        /* \"#utility.yul\":5450:5451   */\n      dup2\n        /* \"#utility.yul\":5447:5460   */\n      gt\n        /* \"#utility.yul\":5444:5545   */\n      iszero\n      tag_140\n      jumpi\n        /* \"#utility.yul\":5533:5534   */\n      0x00\n        /* \"#utility.yul\":5524:5530   */\n      dup5\n        /* \"#utility.yul\":5519:5522   */\n      dup5\n        /* \"#utility.yul\":5515:5531   */\n      add\n        /* \"#utility.yul\":5508:5535   */\n      mstore\n        /* \"#utility.yul\":5444:5545   */\n    tag_140:\n        /* \"#utility.yul\":5293:5551   */\n      pop\n        /* \"#utility.yul\":5244:5551   */\n      pop\n      pop\n      pop\n      jump\t// out\n        /* \"#utility.yul\":5557:5877   */\n    tag_31:\n        /* \"#utility.yul\":5601:5607   */\n      0x00\n        /* \"#utility.yul\":5638:5639   */\n      0x02\n        /* \"#utility.yul\":5632:5636   */\n      dup3\n        /* \"#utility.yul\":5628:5640   */\n      div\n        /* \"#utility.yul\":5618:5640   */\n      swap1\n      pop\n        /* \"#utility.yul\":5685:5686   */\n      0x01\n        /* \"#utility.yul\":5679:5683   */\n      dup3\n        /* \"#utility.yul\":5675:5687   */\n      and\n        /* \"#utility.yul\":5706:5724   */\n      dup1\n        /* \"#utility.yul\":5696:5777   */\n      tag_142\n      jumpi\n        /* \"#utility.yul\":5762:5766   */\n      0x7f\n        /* \"#utility.yul\":5754:5760   */\n      dup3\n        /* \"#utility.yul\":5750:5767   */\n      and\n        /* \"#utility.yul\":5740:5767   */\n      swap2\n      pop\n        /* \"#utility.yul\":5696:5777   */\n    tag_142:\n        /* \"#utility.yul\":5824:5826   */\n      0x20\n        /* \"#utility.yul\":5816:5822   */\n      dup3\n        /* \"#utility.yul\":5813:5827   */\n      lt\n        /* \"#utility.yul\":5793:5811   */\n      dup2\n        /* \"#utility.yul\":5790:5828   */\n      eq\n        /* \"#utility.yul\":5787:5871   */\n      iszero\n      tag_143\n      jumpi\n        /* \"#utility.yul\":5843:5861   */\n      tag_144\n      tag_145\n      jump\t// in\n    tag_144:\n        /* \"#utility.yul\":5787:5871   */\n    tag_143:\n        /* \"#utility.yul\":5608:5877   */\n      pop\n        /* \"#utility.yul\":5557:5877   */\n      swap2\n      swap1\n      pop\n      jump\t// out\n        /* \"#utility.yul\":5883:6164   */\n    tag_124:\n        /* \"#utility.yul\":5966:5993   */\n      tag_147\n        /* \"#utility.yul\":5988:5992   */\n      dup3\n        /* \"#utility.yul\":5966:5993   */\n      tag_108\n      jump\t// in\n    tag_147:\n        /* \"#utility.yul\":5958:5964   */\n      dup2\n        /* \"#utility.yul\":5954:5994   */\n      add\n        /* \"#utility.yul\":6096:6102   */\n      dup2\n        /* \"#utility.yul\":6084:6094   */\n      dup2\n        /* \"#utility.yul\":6081:6103   */\n      lt\n        /* \"#utility.yul\":6060:6078   */\n      0xffffffffffffffff\n        /* \"#utility.yul\":6048:6058   */\n      dup3\n        /* \"#utility.yul\":6045:6079   */\n      gt\n        /* \"#utility.yul\":6042:6104   */\n      or\n        /* \"#utility.yul\":6039:6127   */\n      iszero\n      tag_148\n      jumpi\n        /* \"#utility.yul\":6107:6125   */\n      tag_149\n      tag_129\n      jump\t// in\n    tag_149:\n        /* \"#utility.yul\":6039:6127   */\n    tag_148:\n        /* \"#utility.yul\":6147:6157   */\n      dup1\n        /* \"#utility.yul\":6143:6145   */\n      0x40\n        /* \"#utility.yul\":6136:6158   */\n      mstore\n        /* \"#utility.yul\":5926:6164   */\n      pop\n        /* \"#utility.yul\":5883:6164   */\n      pop\n      pop\n      jump\t// out\n        /* \"#utility.yul\":6170:6403   */\n    tag_29:\n        /* \"#utility.yul\":6209:6212   */\n      0x00\n        /* \"#utility.yul\":6232:6256   */\n      tag_151\n        /* \"#utility.yul\":6250:6255   */\n      dup3\n        /* \"#utility.yul\":6232:6256   */\n      tag_112\n      jump\t// in\n    tag_151:\n        /* \"#utility.yul\":6223:6256   */\n      swap2\n      pop\n        /* \"#utility.yul\":6278:6344   */\n      0xffffffffffffffffffffffffffffffffffffffffffffffffffffffffffffffff\n        /* \"#utility.yul\":6271:6276   */\n      dup3\n        /* \"#utility.yul\":6268:6345   */\n      eq\n        /* \"#utility.yul\":6265:6368   */\n      iszero\n      tag_152\n      jumpi\n        /* \"#utility.yul\":6348:6366   */\n      tag_153\n      tag_154\n      jump\t// in\n    tag_153:\n        /* \"#utility.yul\":6265:6368   */\n    tag_152:\n        /* \"#utility.yul\":6395:6396   */\n      0x01\n        /* \"#utility.yul\":6388:6393   */\n      dup3\n        /* \"#utility.yul\":6384:6397   */\n      add\n        /* \"#utility.yul\":6377:6397   */\n      swap1\n      pop\n        /* \"#utility.yul\":6170:6403   */\n      swap2\n      swap1\n      pop\n      jump\t// out\n        /* \"#utility.yul\":6409:6589   */\n    tag_154:\n        /* \"#utility.yul\":6457:6534   */\n      0x4e487b7100000000000000000000000000000000000000000000000000000000\n        /* \"#utility.yul\":6454:6455   */\n      0x00\n        /* \"#utility.yul\":6447:6535   */\n      mstore\n        /* \"#utility.yul\":6554:6558   */\n      0x11\n        /* \"#utility.yul\":6551:6552   */\n      0x04\n        /* \"#utility.yul\":6544:6559   */\n      mstore\n        /* \"#utility.yul\":6578:6582   */\n      0x24\n        /* \"#utility.yul\":6575:6576   */\n      0x00\n        /* \"#utility.yul\":6568:6583   */\n      revert\n        /* \"#utility.yul\":6595:6775   */\n    tag_145:\n        /* \"#utility.yul\":6643:6720   */\n      0x4e487b7100000000000000000000000000000000000000000000000000000000\n        /* \"#utility.yul\":6640:6641   */\n      0x00\n        /* \"#utility.yul\":6633:6721   */\n      mstore\n        /* \"#utility.yul\":6740:6744   */\n      0x22\n        /* \"#utility.yul\":6737:6738   */\n      0x04\n        /* \"#utility.yul\":6730:6745   */\n      mstore\n        /* \"#utility.yul\":6764:6768   */\n      0x24\n        /* \"#utility.yul\":6761:6762   */\n      0x00\n        /* \"#utility.yul\":6754:6769   */\n      revert\n        /* \"#utility.yul\":6781:6961   */\n    tag_129:\n        /* \"#utility.yul\":6829:6906   */\n      0x4e487b7100000000000000000000000000000000000000000000000000000000\n        /* \"#utility.yul\":6826:6827   */\n      0x00\n        /* \"#utility.yul\":6819:6907   */\n      mstore\n        /* \"#utility.yul\":6926:6930   */\n      0x41\n        /* \"#utility.yul\":6923:6924   */\n      0x04\n        /* \"#utility.yul\":6916:6931   */\n      mstore\n        /* \"#utility.yul\":6950:6954   */\n      0x24\n        /* \"#utility.yul\":6947:6948   */\n      0x00\n        /* \"#utility.yul\":6940:6955   */\n      revert\n        /* \"#utility.yul\":6967:7084   */\n    tag_72:\n        /* \"#utility.yul\":7076:7077   */\n      0x00\n        /* \"#utility.yul\":7073:7074   */\n      dup1\n        /* \"#utility.yul\":7066:7078   */\n      revert\n        /* \"#utility.yul\":7090:7207   */\n    tag_61:\n        /* \"#utility.yul\":7199:7200   */\n      0x00\n        /* \"#utility.yul\":7196:7197   */\n      dup1\n        /* \"#utility.yul\":7189:7201   */\n      revert\n        /* \"#utility.yul\":7213:7330   */\n    tag_89:\n        /* \"#utility.yul\":7322:7323   */\n      0x00\n        /* \"#utility.yul\":7319:7320   */\n      dup1\n        /* \"#utility.yul\":7312:7324   */\n      revert\n        /* \"#utility.yul\":7336:7453   */\n    tag_81:\n        /* \"#utility.yul\":7445:7446   */\n      0x00\n        /* \"#utility.yul\":7442:7443   */\n      dup1\n        /* \"#utility.yul\":7435:7447   */\n      revert\n        /* \"#utility.yul\":7459:7561   */\n    tag_108:\n        /* \"#utility.yul\":7500:7506   */\n      0x00\n        /* \"#utility.yul\":7551:7553   */\n      0x1f\n        /* \"#utility.yul\":7547:7554   */\n      not\n        /* \"#utility.yul\":7542:7544   */\n      0x1f\n        /* \"#utility.yul\":7535:7540   */\n      dup4\n        /* \"#utility.yul\":7531:7545   */\n      add\n        /* \"#utility.yul\":7527:7555   */\n      and\n        /* \"#utility.yul\":7517:7555   */\n      swap1\n      pop\n        /* \"#utility.yul\":7459:7561   */\n      swap2\n      swap1\n      pop\n      jump\t// out\n        /* \"#utility.yul\":7567:7683   */\n    tag_67:\n        /* \"#utility.yul\":7637:7658   */\n      tag_164\n        /* \"#utility.yul\":7652:7657   */\n      dup2\n        /* \"#utility.yul\":7637:7658   */\n      tag_98\n      jump\t// in\n    tag_164:\n        /* \"#utility.yul\":7630:7635   */\n      dup2\n        /* \"#utility.yul\":7627:7659   */\n      eq\n        /* \"#utility.yul\":7617:7677   */\n      tag_165\n      jumpi\n        /* \"#utility.yul\":7673:7674   */\n      0x00\n        /* \"#utility.yul\":7670:7671   */\n      dup1\n        /* \"#utility.yul\":7663:7675   */\n      revert\n        /* \"#utility.yul\":7617:7677   */\n    tag_165:\n        /* \"#utility.yul\":7567:7683   */\n      pop\n      jump\t// out\n        /* \"#utility.yul\":7689:7811   */\n    tag_77:\n        /* \"#utility.yul\":7762:7786   */\n      tag_167\n        /* \"#utility.yul\":7780:7785   */\n      dup2\n        /* \"#utility.yul\":7762:7786   */\n      tag_112\n      jump\t// in\n    tag_167:\n        /* \"#utility.yul\":7755:7760   */\n      dup2\n        /* \"#utility.yul\":7752:7787   */\n      eq\n        /* \"#utility.yul\":7742:7805   */\n      tag_168\n      jumpi\n        /* \"#utility.yul\":7801:7802   */\n      0x00\n        /* \"#utility.yul\":7798:7799   */\n      dup1\n        /* \"#utility.yul\":7791:7803   */\n      revert\n        /* \"#utility.yul\":7742:7805   */\n    tag_168:\n        /* \"#utility.yul\":7689:7811   */\n      pop\n      jump\t// out\n\n    auxdata: 0xa264697066735822122000c8c0f0a8728fca8f7825215310f7959c70def34f511b5798edfcfc68c9833c64736f6c63430008070033\n}\n",
				"bytecode": {
					"linkReferences": {},
					"object": "608060405234801561001057600080fd5b50336000806101000a81548173ffffffffffffffffffffffffffffffffffffffff021916908373ffffffffffffffffffffffffffffffffffffffff160217905550610850806100606000396000f3fe608060405234801561001057600080fd5b506004361061004c5760003560e01c80633b04d05b1461005157806361bc221a1461006d578063bc8bc2b41461008b578063d321fe29146100be575b600080fd5b61006b60048036038101906100669190610460565b6100dc565b005b610075610199565b6040516100829190610556565b60405180910390f35b6100a560048036038101906100a09190610433565b61019f565b6040516100b59493929190610571565b60405180910390f35b6100c66102ec565b6040516100d39190610556565b60405180910390f35b604051806080016040528085815260200184815260200183815260200182151581525060026000600154815260200190815260200160002060008201518160000155602082015181600101908051906020019061013a9291906102f6565b5060408201518160020190805190602001906101579291906102f6565b5060608201518160030160006101000a81548160ff0219169083151502179055509050506001600081548092919061018e906106f1565b919050555050505050565b60015481565b60026020528060005260406000206000915090508060000154908060010180546101c89061068e565b80601f01602080910402602001604051908101604052809291908181526020018280546101f49061068e565b80156102415780601f1061021657610100808354040283529160200191610241565b820191906000526020600020905b81548152906001019060200180831161022457829003601f168201915b5050505050908060020180546102569061068e565b80601f01602080910402602001604051908101604052809291908181526020018280546102829061068e565b80156102cf5780601f106102a4576101008083540402835291602001916102cf565b820191906000526020600020905b8154815290600101906020018083116102b257829003601f168201915b5050505050908060030160009054906101000a900460ff16905084565b6000600154905090565b8280546103029061068e565b90600052602060002090601f016020900481019282610324576000855561036b565b82601f1061033d57805160ff191683800117855561036b565b8280016001018555821561036b579182015b8281111561036a57825182559160200191906001019061034f565b5b509050610378919061037c565b5090565b5b8082111561039557600081600090555060010161037d565b5090565b60006103ac6103a7846105e9565b6105c4565b9050828152602081018484840111156103c8576103c76107cc565b5b6103d384828561064c565b509392505050565b6000813590506103ea816107ec565b92915050565b600082601f830112610405576104046107c7565b5b8135610415848260208601610399565b91505092915050565b60008135905061042d81610803565b92915050565b600060208284031215610449576104486107d6565b5b60006104578482850161041e565b91505092915050565b6000806000806080858703121561047a576104796107d6565b5b60006104888782880161041e565b945050602085013567ffffffffffffffff8111156104a9576104a86107d1565b5b6104b5878288016103f0565b935050604085013567ffffffffffffffff8111156104d6576104d56107d1565b5b6104e2878288016103f0565b92505060606104f3878288016103db565b91505092959194509250565b61050881610636565b82525050565b60006105198261061a565b6105238185610625565b935061053381856020860161065b565b61053c816107db565b840191505092915050565b61055081610642565b82525050565b600060208201905061056b6000830184610547565b92915050565b60006080820190506105866000830187610547565b8181036020830152610598818661050e565b905081810360408301526105ac818561050e565b90506105bb60608301846104ff565b95945050505050565b60006105ce6105df565b90506105da82826106c0565b919050565b6000604051905090565b600067ffffffffffffffff82111561060457610603610798565b5b61060d826107db565b9050602081019050919050565b600081519050919050565b600082825260208201905092915050565b60008115159050919050565b6000819050919050565b82818337600083830152505050565b60005b8381101561067957808201518184015260208101905061065e565b83811115610688576000848401525b50505050565b600060028204905060018216806106a657607f821691505b602082108114156106ba576106b9610769565b5b50919050565b6106c9826107db565b810181811067ffffffffffffffff821117156106e8576106e7610798565b5b80604052505050565b60006106fc82610642565b91507fffffffffffffffffffffffffffffffffffffffffffffffffffffffffffffffff82141561072f5761072e61073a565b5b600182019050919050565b7f4e487b7100000000000000000000000000000000000000000000000000000000600052601160045260246000fd5b7f4e487b7100000000000000000000000000000000000000000000000000000000600052602260045260246000fd5b7f4e487b7100000000000000000000000000000000000000000000000000000000600052604160045260246000fd5b600080fd5b600080fd5b600080fd5b600080fd5b6000601f19601f8301169050919050565b6107f581610636565b811461080057600080fd5b50565b61080c81610642565b811461081757600080fd5b5056fea264697066735822122000c8c0f0a8728fca8f7825215310f7959c70def34f511b5798edfcfc68c9833c64736f6c63430008070033",
					"opcodes": "PUSH1 0x80 PUSH1 0x40 MSTORE CALLVALUE DUP1 ISZERO PUSH2 0x10 JUMPI PUSH1 0x0 DUP1 REVERT JUMPDEST POP CALLER PUSH1 0x0 DUP1 PUSH2 0x100 EXP DUP2 SLOAD DUP2 PUSH20 0xFFFFFFFFFFFFFFFFFFFFFFFFFFFFFFFFFFFFFFFF MUL NOT AND SWAP1 DUP4 PUSH20 0xFFFFFFFFFFFFFFFFFFFFFFFFFFFFFFFFFFFFFFFF AND MUL OR SWAP1 SSTORE POP PUSH2 0x850 DUP1 PUSH2 0x60 PUSH1 0x0 CODECOPY PUSH1 0x0 RETURN INVALID PUSH1 0x80 PUSH1 0x40 MSTORE CALLVALUE DUP1 ISZERO PUSH2 0x10 JUMPI PUSH1 0x0 DUP1 REVERT JUMPDEST POP PUSH1 0x4 CALLDATASIZE LT PUSH2 0x4C JUMPI PUSH1 0x0 CALLDATALOAD PUSH1 0xE0 SHR DUP1 PUSH4 0x3B04D05B EQ PUSH2 0x51 JUMPI DUP1 PUSH4 0x61BC221A EQ PUSH2 0x6D JUMPI DUP1 PUSH4 0xBC8BC2B4 EQ PUSH2 0x8B JUMPI DUP1 PUSH4 0xD321FE29 EQ PUSH2 0xBE JUMPI JUMPDEST PUSH1 0x0 DUP1 REVERT JUMPDEST PUSH2 0x6B PUSH1 0x4 DUP1 CALLDATASIZE SUB DUP2 ADD SWAP1 PUSH2 0x66 SWAP2 SWAP1 PUSH2 0x460 JUMP JUMPDEST PUSH2 0xDC JUMP JUMPDEST STOP JUMPDEST PUSH2 0x75 PUSH2 0x199 JUMP JUMPDEST PUSH1 0x40 MLOAD PUSH2 0x82 SWAP2 SWAP1 PUSH2 0x556 JUMP JUMPDEST PUSH1 0x40 MLOAD DUP1 SWAP2 SUB SWAP1 RETURN JUMPDEST PUSH2 0xA5 PUSH1 0x4 DUP1 CALLDATASIZE SUB DUP2 ADD SWAP1 PUSH2 0xA0 SWAP2 SWAP1 PUSH2 0x433 JUMP JUMPDEST PUSH2 0x19F JUMP JUMPDEST PUSH1 0x40 MLOAD PUSH2 0xB5 SWAP5 SWAP4 SWAP3 SWAP2 SWAP1 PUSH2 0x571 JUMP JUMPDEST PUSH1 0x40 MLOAD DUP1 SWAP2 SUB SWAP1 RETURN JUMPDEST PUSH2 0xC6 PUSH2 0x2EC JUMP JUMPDEST PUSH1 0x40 MLOAD PUSH2 0xD3 SWAP2 SWAP1 PUSH2 0x556 JUMP JUMPDEST PUSH1 0x40 MLOAD DUP1 SWAP2 SUB SWAP1 RETURN JUMPDEST PUSH1 0x40 MLOAD DUP1 PUSH1 0x80 ADD PUSH1 0x40 MSTORE DUP1 DUP6 DUP2 MSTORE PUSH1 0x20 ADD DUP5 DUP2 MSTORE PUSH1 0x20 ADD DUP4 DUP2 MSTORE PUSH1 0x20 ADD DUP3 ISZERO ISZERO DUP2 MSTORE POP PUSH1 0x2 PUSH1 0x0 PUSH1 0x1 SLOAD DUP2 MSTORE PUSH1 0x20 ADD SWAP1 DUP2 MSTORE PUSH1 0x20 ADD PUSH1 0x0 KECCAK256 PUSH1 0x0 DUP3 ADD MLOAD DUP2 PUSH1 0x0 ADD SSTORE PUSH1 0x20 DUP3 ADD MLOAD DUP2 PUSH1 0x1 ADD SWAP1 DUP1 MLOAD SWAP1 PUSH1 0x20 ADD SWAP1 PUSH2 0x13A SWAP3 SWAP2 SWAP1 PUSH2 0x2F6 JUMP JUMPDEST POP PUSH1 0x40 DUP3 ADD MLOAD DUP2 PUSH1 0x2 ADD SWAP1 DUP1 MLOAD SWAP1 PUSH1 0x20 ADD SWAP1 PUSH2 0x157 SWAP3 SWAP2 SWAP1 PUSH2 0x2F6 JUMP JUMPDEST POP PUSH1 0x60 DUP3 ADD MLOAD DUP2 PUSH1 0x3 ADD PUSH1 0x0 PUSH2 0x100 EXP DUP2 SLOAD DUP2 PUSH1 0xFF MUL NOT AND SWAP1 DUP4 ISZERO ISZERO MUL OR SWAP1 SSTORE POP SWAP1 POP POP PUSH1 0x1 PUSH1 0x0 DUP2 SLOAD DUP1 SWAP3 SWAP2 SWAP1 PUSH2 0x18E SWAP1 PUSH2 0x6F1 JUMP JUMPDEST SWAP2 SWAP1 POP SSTORE POP POP POP POP POP JUMP JUMPDEST PUSH1 0x1 SLOAD DUP2 JUMP JUMPDEST PUSH1 0x2 PUSH1 0x20 MSTORE DUP1 PUSH1 0x0 MSTORE PUSH1 0x40 PUSH1 0x0 KECCAK256 PUSH1 0x0 SWAP2 POP SWAP1 POP DUP1 PUSH1 0x0 ADD SLOAD SWAP1 DUP1 PUSH1 0x1 ADD DUP1 SLOAD PUSH2 0x1C8 SWAP1 PUSH2 0x68E JUMP JUMPDEST DUP1 PUSH1 0x1F ADD PUSH1 0x20 DUP1 SWAP2 DIV MUL PUSH1 0x20 ADD PUSH1 0x40 MLOAD SWAP1 DUP2 ADD PUSH1 0x40 MSTORE DUP1 SWAP3 SWAP2 SWAP1 DUP2 DUP2 MSTORE PUSH1 0x20 ADD DUP3 DUP1 SLOAD PUSH2 0x1F4 SWAP1 PUSH2 0x68E JUMP JUMPDEST DUP1 ISZERO PUSH2 0x241 JUMPI DUP1 PUSH1 0x1F LT PUSH2 0x216 JUMPI PUSH2 0x100 DUP1 DUP4 SLOAD DIV MUL DUP4 MSTORE SWAP2 PUSH1 0x20 ADD SWAP2 PUSH2 0x241 JUMP JUMPDEST DUP3 ADD SWAP2 SWAP1 PUSH1 0x0 MSTORE PUSH1 0x20 PUSH1 0x0 KECCAK256 SWAP1 JUMPDEST DUP2 SLOAD DUP2 MSTORE SWAP1 PUSH1 0x1 ADD SWAP1 PUSH1 0x20 ADD DUP1 DUP4 GT PUSH2 0x224 JUMPI DUP3 SWAP1 SUB PUSH1 0x1F AND DUP3 ADD SWAP2 JUMPDEST POP POP POP POP POP SWAP1 DUP1 PUSH1 0x2 ADD DUP1 SLOAD PUSH2 0x256 SWAP1 PUSH2 0x68E JUMP JUMPDEST DUP1 PUSH1 0x1F ADD PUSH1 0x20 DUP1 SWAP2 DIV MUL PUSH1 0x20 ADD PUSH1 0x40 MLOAD SWAP1 DUP2 ADD PUSH1 0x40 MSTORE DUP1 SWAP3 SWAP2 SWAP1 DUP2 DUP2 MSTORE PUSH1 0x20 ADD DUP3 DUP1 SLOAD PUSH2 0x282 SWAP1 PUSH2 0x68E JUMP JUMPDEST DUP1 ISZERO PUSH2 0x2CF JUMPI DUP1 PUSH1 0x1F LT PUSH2 0x2A4 JUMPI PUSH2 0x100 DUP1 DUP4 SLOAD DIV MUL DUP4 MSTORE SWAP2 PUSH1 0x20 ADD SWAP2 PUSH2 0x2CF JUMP JUMPDEST DUP3 ADD SWAP2 SWAP1 PUSH1 0x0 MSTORE PUSH1 0x20 PUSH1 0x0 KECCAK256 SWAP1 JUMPDEST DUP2 SLOAD DUP2 MSTORE SWAP1 PUSH1 0x1 ADD SWAP1 PUSH1 0x20 ADD DUP1 DUP4 GT PUSH2 0x2B2 JUMPI DUP3 SWAP1 SUB PUSH1 0x1F AND DUP3 ADD SWAP2 JUMPDEST POP POP POP POP POP SWAP1 DUP1 PUSH1 0x3 ADD PUSH1 0x0 SWAP1 SLOAD SWAP1 PUSH2 0x100 EXP SWAP1 DIV PUSH1 0xFF AND SWAP1 POP DUP5 JUMP JUMPDEST PUSH1 0x0 PUSH1 0x1 SLOAD SWAP1 POP SWAP1 JUMP JUMPDEST DUP3 DUP1 SLOAD PUSH2 0x302 SWAP1 PUSH2 0x68E JUMP JUMPDEST SWAP1 PUSH1 0x0 MSTORE PUSH1 0x20 PUSH1 0x0 KECCAK256 SWAP1 PUSH1 0x1F ADD PUSH1 0x20 SWAP1 DIV DUP2 ADD SWAP3 DUP3 PUSH2 0x324 JUMPI PUSH1 0x0 DUP6 SSTORE PUSH2 0x36B JUMP JUMPDEST DUP3 PUSH1 0x1F LT PUSH2 0x33D JUMPI DUP1 MLOAD PUSH1 0xFF NOT AND DUP4 DUP1 ADD OR DUP6 SSTORE PUSH2 0x36B JUMP JUMPDEST DUP3 DUP1 ADD PUSH1 0x1 ADD DUP6 SSTORE DUP3 ISZERO PUSH2 0x36B JUMPI SWAP2 DUP3 ADD JUMPDEST DUP3 DUP2 GT ISZERO PUSH2 0x36A JUMPI DUP3 MLOAD DUP3 SSTORE SWAP2 PUSH1 0x20 ADD SWAP2 SWAP1 PUSH1 0x1 ADD SWAP1 PUSH2 0x34F JUMP JUMPDEST JUMPDEST POP SWAP1 POP PUSH2 0x378 SWAP2 SWAP1 PUSH2 0x37C JUMP JUMPDEST POP SWAP1 JUMP JUMPDEST JUMPDEST DUP1 DUP3 GT ISZERO PUSH2 0x395 JUMPI PUSH1 0x0 DUP2 PUSH1 0x0 SWAP1 SSTORE POP PUSH1 0x1 ADD PUSH2 0x37D JUMP JUMPDEST POP SWAP1 JUMP JUMPDEST PUSH1 0x0 PUSH2 0x3AC PUSH2 0x3A7 DUP5 PUSH2 0x5E9 JUMP JUMPDEST PUSH2 0x5C4 JUMP JUMPDEST SWAP1 POP DUP3 DUP2 MSTORE PUSH1 0x20 DUP2 ADD DUP5 DUP5 DUP5 ADD GT ISZERO PUSH2 0x3C8 JUMPI PUSH2 0x3C7 PUSH2 0x7CC JUMP JUMPDEST JUMPDEST PUSH2 0x3D3 DUP5 DUP3 DUP6 PUSH2 0x64C JUMP JUMPDEST POP SWAP4 SWAP3 POP POP POP JUMP JUMPDEST PUSH1 0x0 DUP2 CALLDATALOAD SWAP1 POP PUSH2 0x3EA DUP2 PUSH2 0x7EC JUMP JUMPDEST SWAP3 SWAP2 POP POP JUMP JUMPDEST PUSH1 0x0 DUP3 PUSH1 0x1F DUP4 ADD SLT PUSH2 0x405 JUMPI PUSH2 0x404 PUSH2 0x7C7 JUMP JUMPDEST JUMPDEST DUP2 CALLDATALOAD PUSH2 0x415 DUP5 DUP3 PUSH1 0x20 DUP7 ADD PUSH2 0x399 JUMP JUMPDEST SWAP2 POP POP SWAP3 SWAP2 POP POP JUMP JUMPDEST PUSH1 0x0 DUP2 CALLDATALOAD SWAP1 POP PUSH2 0x42D DUP2 PUSH2 0x803 JUMP JUMPDEST SWAP3 SWAP2 POP POP JUMP JUMPDEST PUSH1 0x0 PUSH1 0x20 DUP3 DUP5 SUB SLT ISZERO PUSH2 0x449 JUMPI PUSH2 0x448 PUSH2 0x7D6 JUMP JUMPDEST JUMPDEST PUSH1 0x0 PUSH2 0x457 DUP5 DUP3 DUP6 ADD PUSH2 0x41E JUMP JUMPDEST SWAP2 POP POP SWAP3 SWAP2 POP POP JUMP JUMPDEST PUSH1 0x0 DUP1 PUSH1 0x0 DUP1 PUSH1 0x80 DUP6 DUP8 SUB SLT ISZERO PUSH2 0x47A JUMPI PUSH2 0x479 PUSH2 0x7D6 JUMP JUMPDEST JUMPDEST PUSH1 0x0 PUSH2 0x488 DUP8 DUP3 DUP9 ADD PUSH2 0x41E JUMP JUMPDEST SWAP5 POP POP PUSH1 0x20 DUP6 ADD CALLDATALOAD PUSH8 0xFFFFFFFFFFFFFFFF DUP2 GT ISZERO PUSH2 0x4A9 JUMPI PUSH2 0x4A8 PUSH2 0x7D1 JUMP JUMPDEST JUMPDEST PUSH2 0x4B5 DUP8 DUP3 DUP9 ADD PUSH2 0x3F0 JUMP JUMPDEST SWAP4 POP POP PUSH1 0x40 DUP6 ADD CALLDATALOAD PUSH8 0xFFFFFFFFFFFFFFFF DUP2 GT ISZERO PUSH2 0x4D6 JUMPI PUSH2 0x4D5 PUSH2 0x7D1 JUMP JUMPDEST JUMPDEST PUSH2 0x4E2 DUP8 DUP3 DUP9 ADD PUSH2 0x3F0 JUMP JUMPDEST SWAP3 POP POP PUSH1 0x60 PUSH2 0x4F3 DUP8 DUP3 DUP9 ADD PUSH2 0x3DB JUMP JUMPDEST SWAP2 POP POP SWAP3 SWAP6 SWAP2 SWAP5 POP SWAP3 POP JUMP JUMPDEST PUSH2 0x508 DUP2 PUSH2 0x636 JUMP JUMPDEST DUP3 MSTORE POP POP JUMP JUMPDEST PUSH1 0x0 PUSH2 0x519 DUP3 PUSH2 0x61A JUMP JUMPDEST PUSH2 0x523 DUP2 DUP6 PUSH2 0x625 JUMP JUMPDEST SWAP4 POP PUSH2 0x533 DUP2 DUP6 PUSH1 0x20 DUP7 ADD PUSH2 0x65B JUMP JUMPDEST PUSH2 0x53C DUP2 PUSH2 0x7DB JUMP JUMPDEST DUP5 ADD SWAP2 POP POP SWAP3 SWAP2 POP POP JUMP JUMPDEST PUSH2 0x550 DUP2 PUSH2 0x642 JUMP JUMPDEST DUP3 MSTORE POP POP JUMP JUMPDEST PUSH1 0x0 PUSH1 0x20 DUP3 ADD SWAP1 POP PUSH2 0x56B PUSH1 0x0 DUP4 ADD DUP5 PUSH2 0x547 JUMP JUMPDEST SWAP3 SWAP2 POP POP JUMP JUMPDEST PUSH1 0x0 PUSH1 0x80 DUP3 ADD SWAP1 POP PUSH2 0x586 PUSH1 0x0 DUP4 ADD DUP8 PUSH2 0x547 JUMP JUMPDEST DUP2 DUP2 SUB PUSH1 0x20 DUP4 ADD MSTORE PUSH2 0x598 DUP2 DUP7 PUSH2 0x50E JUMP JUMPDEST SWAP1 POP DUP2 DUP2 SUB PUSH1 0x40 DUP4 ADD MSTORE PUSH2 0x5AC DUP2 DUP6 PUSH2 0x50E JUMP JUMPDEST SWAP1 POP PUSH2 0x5BB PUSH1 0x60 DUP4 ADD DUP5 PUSH2 0x4FF JUMP JUMPDEST SWAP6 SWAP5 POP POP POP POP POP JUMP JUMPDEST PUSH1 0x0 PUSH2 0x5CE PUSH2 0x5DF JUMP JUMPDEST SWAP1 POP PUSH2 0x5DA DUP3 DUP3 PUSH2 0x6C0 JUMP JUMPDEST SWAP2 SWAP1 POP JUMP JUMPDEST PUSH1 0x0 PUSH1 0x40 MLOAD SWAP1 POP SWAP1 JUMP JUMPDEST PUSH1 0x0 PUSH8 0xFFFFFFFFFFFFFFFF DUP3 GT ISZERO PUSH2 0x604 JUMPI PUSH2 0x603 PUSH2 0x798 JUMP JUMPDEST JUMPDEST PUSH2 0x60D DUP3 PUSH2 0x7DB JUMP JUMPDEST SWAP1 POP PUSH1 0x20 DUP2 ADD SWAP1 POP SWAP2 SWAP1 POP JUMP JUMPDEST PUSH1 0x0 DUP2 MLOAD SWAP1 POP SWAP2 SWAP1 POP JUMP JUMPDEST PUSH1 0x0 DUP3 DUP3 MSTORE PUSH1 0x20 DUP3 ADD SWAP1 POP SWAP3 SWAP2 POP POP JUMP JUMPDEST PUSH1 0x0 DUP2 ISZERO ISZERO SWAP1 POP SWAP2 SWAP1 POP JUMP JUMPDEST PUSH1 0x0 DUP2 SWAP1 POP SWAP2 SWAP1 POP JUMP JUMPDEST DUP3 DUP2 DUP4 CALLDATACOPY PUSH1 0x0 DUP4 DUP4 ADD MSTORE POP POP POP JUMP JUMPDEST PUSH1 0x0 JUMPDEST DUP4 DUP2 LT ISZERO PUSH2 0x679 JUMPI DUP1 DUP3 ADD MLOAD DUP2 DUP5 ADD MSTORE PUSH1 0x20 DUP2 ADD SWAP1 POP PUSH2 0x65E JUMP JUMPDEST DUP4 DUP2 GT ISZERO PUSH2 0x688 JUMPI PUSH1 0x0 DUP5 DUP5 ADD MSTORE JUMPDEST POP POP POP POP JUMP JUMPDEST PUSH1 0x0 PUSH1 0x2 DUP3 DIV SWAP1 POP PUSH1 0x1 DUP3 AND DUP1 PUSH2 0x6A6 JUMPI PUSH1 0x7F DUP3 AND SWAP2 POP JUMPDEST PUSH1 0x20 DUP3 LT DUP2 EQ ISZERO PUSH2 0x6BA JUMPI PUSH2 0x6B9 PUSH2 0x769 JUMP JUMPDEST JUMPDEST POP SWAP2 SWAP1 POP JUMP JUMPDEST PUSH2 0x6C9 DUP3 PUSH2 0x7DB JUMP JUMPDEST DUP2 ADD DUP2 DUP2 LT PUSH8 0xFFFFFFFFFFFFFFFF DUP3 GT OR ISZERO PUSH2 0x6E8 JUMPI PUSH2 0x6E7 PUSH2 0x798 JUMP JUMPDEST JUMPDEST DUP1 PUSH1 0x40 MSTORE POP POP POP JUMP JUMPDEST PUSH1 0x0 PUSH2 0x6FC DUP3 PUSH2 0x642 JUMP JUMPDEST SWAP2 POP PUSH32 0xFFFFFFFFFFFFFFFFFFFFFFFFFFFFFFFFFFFFFFFFFFFFFFFFFFFFFFFFFFFFFFFF DUP3 EQ ISZERO PUSH2 0x72F JUMPI PUSH2 0x72E PUSH2 0x73A JUMP JUMPDEST JUMPDEST PUSH1 0x1 DUP3 ADD SWAP1 POP SWAP2 SWAP1 POP JUMP JUMPDEST PUSH32 0x4E487B7100000000000000000000000000000000000000000000000000000000 PUSH1 0x0 MSTORE PUSH1 0x11 PUSH1 0x4 MSTORE PUSH1 0x24 PUSH1 0x0 REVERT JUMPDEST PUSH32 0x4E487B7100000000000000000000000000000000000000000000000000000000 PUSH1 0x0 MSTORE PUSH1 0x22 PUSH1 0x4 MSTORE PUSH1 0x24 PUSH1 0x0 REVERT JUMPDEST PUSH32 0x4E487B7100000000000000000000000000000000000000000000000000000000 PUSH1 0x0 MSTORE PUSH1 0x41 PUSH1 0x4 MSTORE PUSH1 0x24 PUSH1 0x0 REVERT JUMPDEST PUSH1 0x0 DUP1 REVERT JUMPDEST PUSH1 0x0 DUP1 REVERT JUMPDEST PUSH1 0x0 DUP1 REVERT JUMPDEST PUSH1 0x0 DUP1 REVERT JUMPDEST PUSH1 0x0 PUSH1 0x1F NOT PUSH1 0x1F DUP4 ADD AND SWAP1 POP SWAP2 SWAP1 POP JUMP JUMPDEST PUSH2 0x7F5 DUP2 PUSH2 0x636 JUMP JUMPDEST DUP2 EQ PUSH2 0x800 JUMPI PUSH1 0x0 DUP1 REVERT JUMPDEST POP JUMP JUMPDEST PUSH2 0x80C DUP2 PUSH2 0x642 JUMP JUMPDEST DUP2 EQ PUSH2 0x817 JUMPI PUSH1 0x0 DUP1 REVERT JUMPDEST POP JUMP INVALID LOG2 PUSH5 0x6970667358 0x22 SLT KECCAK256 STOP 0xC8 0xC0 CREATE 0xA8 PUSH19 0x8FCA8F7825215310F7959C70DEF34F511B5798 0xED 0xFC 0xFC PUSH9 0xC9833C64736F6C6343 STOP ADDMOD SMOD STOP CALLER "
				},
				"gasEstimates": {
					"creation": {
						"codeDepositCost": "425600",
						"executionCost": "24727",
						"totalCost": "450327"
					},
					"external": {
						"addTodo(uint256,string,string,bool)": "infinite",
						"counter()": "2429",
						"getAmount()": "2481",
						"todos(uint256)": "infinite"
					}
				},
				"methodIdentifiers": {
					"addTodo(uint256,string,string,bool)": "3b04d05b",
					"counter()": "61bc221a",
					"getAmount()": "d321fe29",
					"todos(uint256)": "bc8bc2b4"
				}
			},
			"storageLayout": {
				"storage": [
					{
						"astId": 5,
						"contract": "ToDoApp.sol:ToDoApp",
						"label": "owner",
						"offset": 0,
						"slot": "0",
						"type": "t_address"
					},
					{
						"astId": 7,
						"contract": "ToDoApp.sol:ToDoApp",
						"label": "counter",
						"offset": 0,
						"slot": "1",
						"type": "t_uint256"
					},
					{
						"astId": 22,
						"contract": "ToDoApp.sol:ToDoApp",
						"label": "todos",
						"offset": 0,
						"slot": "2",
						"type": "t_mapping(t_uint256,t_struct(ToDo)16_storage)"
					}
				],
				"types": {
					"t_address": {
						"encoding": "inplace",
						"label": "address",
						"numberOfBytes": "20"
					},
					"t_bool": {
						"encoding": "inplace",
						"label": "bool",
						"numberOfBytes": "1"
					},
					"t_mapping(t_uint256,t_struct(ToDo)16_storage)": {
						"encoding": "mapping",
						"key": "t_uint256",
						"label": "mapping(uint256 => struct ToDoApp.ToDo)",
						"numberOfBytes": "32",
						"value": "t_struct(ToDo)16_storage"
					},
					"t_string_storage": {
						"encoding": "bytes",
						"label": "string",
						"numberOfBytes": "32"
					},
					"t_struct(ToDo)16_storage": {
						"encoding": "inplace",
						"label": "struct ToDoApp.ToDo",
						"members": [
							{
								"astId": 9,
								"contract": "ToDoApp.sol:ToDoApp",
								"label": "id",
								"offset": 0,
								"slot": "0",
								"type": "t_uint256"
							},
							{
								"astId": 11,
								"contract": "ToDoApp.sol:ToDoApp",
								"label": "name",
								"offset": 0,
								"slot": "1",
								"type": "t_string_storage"
							},
							{
								"astId": 13,
								"contract": "ToDoApp.sol:ToDoApp",
								"label": "content",
								"offset": 0,
								"slot": "2",
								"type": "t_string_storage"
							},
							{
								"astId": 15,
								"contract": "ToDoApp.sol:ToDoApp",
								"label": "status",
								"offset": 0,
								"slot": "3",
								"type": "t_bool"
							}
						],
						"numberOfBytes": "128"
					},
					"t_uint256": {
						"encoding": "inplace",
						"label": "uint256",
						"numberOfBytes": "32"
					}
				}
			},
			"userdoc": {
				"kind": "user",
				"methods": {
					"addTodo(uint256,string,string,bool)": {
						"notice": "Add new todo"
					},
					"constructor": {
						"notice": "Constructor"
					},
					"getAmount()": {
						"notice": "Get amount of todos"
					},
					"todos(uint256)": {
						"notice": "Mappings"
					}
				},
				"notice": "A simple ToDo smart contract app",
				"version": 1
			}
		}
	}
}