{
	"ToDoApp.sol": {
		"ToDoApp": {
			"abi": [
				{
					"inputs": [],
					"stateMutability": "nonpayable",
					"type": "constructor"
				},
				{
					"inputs": [
						{
							"internalType": "string",
							"name": "name",
							"type": "string"
						},
						{
							"internalType": "string",
							"name": "content",
							"type": "string"
						}
					],
					"name": "addTodo",
					"outputs": [],
					"stateMutability": "nonpayable",
					"type": "function"
				},
				{
					"inputs": [
						{
							"internalType": "address",
							"name": "",
							"type": "address"
						}
					],
					"name": "counter",
					"outputs": [
						{
							"internalType": "uint256",
							"name": "",
							"type": "uint256"
						}
					],
					"stateMutability": "view",
					"type": "function"
				},
				{
					"inputs": [],
					"name": "getAmount",
					"outputs": [
						{
							"internalType": "uint256",
							"name": "",
							"type": "uint256"
						}
					],
					"stateMutability": "view",
					"type": "function"
				},
				{
					"inputs": [],
					"name": "getTodo",
					"outputs": [
						{
							"components": [
								{
									"internalType": "uint256",
									"name": "id",
									"type": "uint256"
								},
								{
									"internalType": "string",
									"name": "name",
									"type": "string"
								},
								{
									"internalType": "string",
									"name": "content",
									"type": "string"
								},
								{
									"internalType": "bool",
									"name": "status",
									"type": "bool"
								}
							],
							"internalType": "struct ToDoApp.ToDo",
							"name": "",
							"type": "tuple"
						}
					],
					"stateMutability": "view",
					"type": "function"
				},
				{
					"inputs": [
						{
							"internalType": "address",
							"name": "",
							"type": "address"
						}
					],
					"name": "todos",
					"outputs": [
						{
							"internalType": "uint256",
							"name": "id",
							"type": "uint256"
						},
						{
							"internalType": "string",
							"name": "name",
							"type": "string"
						},
						{
							"internalType": "string",
							"name": "content",
							"type": "string"
						},
						{
							"internalType": "bool",
							"name": "status",
							"type": "bool"
						}
					],
					"stateMutability": "view",
					"type": "function"
				}
			],
			"devdoc": {
				"kind": "dev",
				"methods": {},
				"version": 1
			},
			"evm": {
				"assembly": "    /* \"ToDoApp.sol\":120:1422  contract ToDoApp {... */\n  mstore(0x40, 0x80)\n    /* \"ToDoApp.sol\":481:497  constructor() {} */\n  callvalue\n  dup1\n  iszero\n  tag_1\n  jumpi\n  0x00\n  dup1\n  revert\ntag_1:\n  pop\n    /* \"ToDoApp.sol\":120:1422  contract ToDoApp {... */\n  dataSize(sub_0)\n  dup1\n  dataOffset(sub_0)\n  0x00\n  codecopy\n  0x00\n  return\nstop\n\nsub_0: assembly {\n        /* \"ToDoApp.sol\":120:1422  contract ToDoApp {... */\n      mstore(0x40, 0x80)\n      callvalue\n      dup1\n      iszero\n      tag_1\n      jumpi\n      0x00\n      dup1\n      revert\n    tag_1:\n      pop\n      jumpi(tag_2, lt(calldatasize, 0x04))\n      shr(0xe0, calldataload(0x00))\n      dup1\n      0x1b7fb260\n      eq\n      tag_3\n      jumpi\n      dup1\n      0x56a68c00\n      eq\n      tag_4\n      jumpi\n      dup1\n      0x7fa1680a\n      eq\n      tag_5\n      jumpi\n      dup1\n      0xc12327b8\n      eq\n      tag_6\n      jumpi\n      dup1\n      0xd321fe29\n      eq\n      tag_7\n      jumpi\n    tag_2:\n      0x00\n      dup1\n      revert\n        /* \"ToDoApp.sol\":608:869  function addTodo(string memory name, string memory content) public {... */\n    tag_3:\n      tag_8\n      0x04\n      dup1\n      calldatasize\n      sub\n      dup2\n      add\n      swap1\n      tag_9\n      swap2\n      swap1\n      tag_10\n      jump\t// in\n    tag_9:\n      tag_11\n      jump\t// in\n    tag_8:\n      stop\n        /* \"ToDoApp.sol\":353:390  mapping(address => ToDo) public todos */\n    tag_4:\n      tag_12\n      0x04\n      dup1\n      calldatasize\n      sub\n      dup2\n      add\n      swap1\n      tag_13\n      swap2\n      swap1\n      tag_14\n      jump\t// in\n    tag_13:\n      tag_15\n      jump\t// in\n    tag_12:\n      mload(0x40)\n      tag_16\n      swap5\n      swap4\n      swap3\n      swap2\n      swap1\n      tag_17\n      jump\t// in\n    tag_16:\n      mload(0x40)\n      dup1\n      swap2\n      sub\n      swap1\n      return\n        /* \"ToDoApp.sol\":907:1000  function getTodo() public view returns(ToDo memory) {... */\n    tag_5:\n      tag_18\n      tag_19\n      jump\t// in\n    tag_18:\n      mload(0x40)\n      tag_20\n      swap2\n      swap1\n      tag_21\n      jump\t// in\n    tag_20:\n      mload(0x40)\n      dup1\n      swap2\n      sub\n      swap1\n      return\n        /* \"ToDoApp.sol\":396:438  mapping(address => uint256) public counter */\n    tag_6:\n      tag_22\n      0x04\n      dup1\n      calldatasize\n      sub\n      dup2\n      add\n      swap1\n      tag_23\n      swap2\n      swap1\n      tag_14\n      jump\t// in\n    tag_23:\n      tag_24\n      jump\t// in\n    tag_22:\n      mload(0x40)\n      tag_25\n      swap2\n      swap1\n      tag_26\n      jump\t// in\n    tag_25:\n      mload(0x40)\n      dup1\n      swap2\n      sub\n      swap1\n      return\n        /* \"ToDoApp.sol\":1050:1139  function getAmount() public view returns(uint){... */\n    tag_7:\n      tag_27\n      tag_28\n      jump\t// in\n    tag_27:\n      mload(0x40)\n      tag_29\n      swap2\n      swap1\n      tag_26\n      jump\t// in\n    tag_29:\n      mload(0x40)\n      dup1\n      swap2\n      sub\n      swap1\n      return\n        /* \"ToDoApp.sol\":608:869  function addTodo(string memory name, string memory content) public {... */\n    tag_11:\n        /* \"ToDoApp.sol\":747:794  ToDo(counter[msg.sender], name, content, false) */\n      mload(0x40)\n      dup1\n      0x80\n      add\n      0x40\n      mstore\n      dup1\n        /* \"ToDoApp.sol\":752:759  counter */\n      0x01\n        /* \"ToDoApp.sol\":752:771  counter[msg.sender] */\n      0x00\n        /* \"ToDoApp.sol\":760:770  msg.sender */\n      caller\n        /* \"ToDoApp.sol\":752:771  counter[msg.sender] */\n      0xffffffffffffffffffffffffffffffffffffffff\n      and\n      0xffffffffffffffffffffffffffffffffffffffff\n      and\n      dup2\n      mstore\n      0x20\n      add\n      swap1\n      dup2\n      mstore\n      0x20\n      add\n      0x00\n      keccak256\n      sload\n        /* \"ToDoApp.sol\":747:794  ToDo(counter[msg.sender], name, content, false) */\n      dup2\n      mstore\n      0x20\n      add\n        /* \"ToDoApp.sol\":773:777  name */\n      dup4\n        /* \"ToDoApp.sol\":747:794  ToDo(counter[msg.sender], name, content, false) */\n      dup2\n      mstore\n      0x20\n      add\n        /* \"ToDoApp.sol\":779:786  content */\n      dup3\n        /* \"ToDoApp.sol\":747:794  ToDo(counter[msg.sender], name, content, false) */\n      dup2\n      mstore\n      0x20\n      add\n        /* \"ToDoApp.sol\":788:793  false */\n      0x00\n        /* \"ToDoApp.sol\":747:794  ToDo(counter[msg.sender], name, content, false) */\n      iszero\n      iszero\n      dup2\n      mstore\n      pop\n        /* \"ToDoApp.sol\":727:732  todos */\n      0x00\n        /* \"ToDoApp.sol\":727:744  todos[msg.sender] */\n      dup1\n        /* \"ToDoApp.sol\":733:743  msg.sender */\n      caller\n        /* \"ToDoApp.sol\":727:744  todos[msg.sender] */\n      0xffffffffffffffffffffffffffffffffffffffff\n      and\n      0xffffffffffffffffffffffffffffffffffffffff\n      and\n      dup2\n      mstore\n      0x20\n      add\n      swap1\n      dup2\n      mstore\n      0x20\n      add\n      0x00\n      keccak256\n        /* \"ToDoApp.sol\":727:794  todos[msg.sender] = ToDo(counter[msg.sender], name, content, false) */\n      0x00\n      dup3\n      add\n      mload\n      dup2\n      0x00\n      add\n      sstore\n      0x20\n      dup3\n      add\n      mload\n      dup2\n      0x01\n      add\n      swap1\n      dup1\n      mload\n      swap1\n      0x20\n      add\n      swap1\n      tag_31\n      swap3\n      swap2\n      swap1\n      tag_32\n      jump\t// in\n    tag_31:\n      pop\n      0x40\n      dup3\n      add\n      mload\n      dup2\n      0x02\n      add\n      swap1\n      dup1\n      mload\n      swap1\n      0x20\n      add\n      swap1\n      tag_33\n      swap3\n      swap2\n      swap1\n      tag_32\n      jump\t// in\n    tag_33:\n      pop\n      0x60\n      dup3\n      add\n      mload\n      dup2\n      0x03\n      add\n      exp(0x0100, 0x00)\n      dup2\n      sload\n      dup2\n      0xff\n      mul\n      not\n      and\n      swap1\n      dup4\n      iszero\n      iszero\n      mul\n      or\n      swap1\n      sstore\n      pop\n      swap1\n      pop\n      pop\n        /* \"ToDoApp.sol\":841:848  counter */\n      0x01\n        /* \"ToDoApp.sol\":841:860  counter[msg.sender] */\n      0x00\n        /* \"ToDoApp.sol\":849:859  msg.sender */\n      caller\n        /* \"ToDoApp.sol\":841:860  counter[msg.sender] */\n      0xffffffffffffffffffffffffffffffffffffffff\n      and\n      0xffffffffffffffffffffffffffffffffffffffff\n      and\n      dup2\n      mstore\n      0x20\n      add\n      swap1\n      dup2\n      mstore\n      0x20\n      add\n      0x00\n      keccak256\n      0x00\n        /* \"ToDoApp.sol\":841:862  counter[msg.sender]++ */\n      dup2\n      sload\n      dup1\n      swap3\n      swap2\n      swap1\n      tag_34\n      swap1\n      tag_35\n      jump\t// in\n    tag_34:\n      swap2\n      swap1\n      pop\n      sstore\n      pop\n        /* \"ToDoApp.sol\":608:869  function addTodo(string memory name, string memory content) public {... */\n      pop\n      pop\n      jump\t// out\n        /* \"ToDoApp.sol\":353:390  mapping(address => ToDo) public todos */\n    tag_15:\n      mstore(0x20, 0x00)\n      dup1\n      0x00\n      mstore\n      keccak256(0x00, 0x40)\n      0x00\n      swap2\n      pop\n      swap1\n      pop\n      dup1\n      0x00\n      add\n      sload\n      swap1\n      dup1\n      0x01\n      add\n      dup1\n      sload\n      tag_36\n      swap1\n      tag_37\n      jump\t// in\n    tag_36:\n      dup1\n      0x1f\n      add\n      0x20\n      dup1\n      swap2\n      div\n      mul\n      0x20\n      add\n      mload(0x40)\n      swap1\n      dup2\n      add\n      0x40\n      mstore\n      dup1\n      swap3\n      swap2\n      swap1\n      dup2\n      dup2\n      mstore\n      0x20\n      add\n      dup3\n      dup1\n      sload\n      tag_38\n      swap1\n      tag_37\n      jump\t// in\n    tag_38:\n      dup1\n      iszero\n      tag_39\n      jumpi\n      dup1\n      0x1f\n      lt\n      tag_40\n      jumpi\n      0x0100\n      dup1\n      dup4\n      sload\n      div\n      mul\n      dup4\n      mstore\n      swap2\n      0x20\n      add\n      swap2\n      jump(tag_39)\n    tag_40:\n      dup3\n      add\n      swap2\n      swap1\n      0x00\n      mstore\n      keccak256(0x00, 0x20)\n      swap1\n    tag_41:\n      dup2\n      sload\n      dup2\n      mstore\n      swap1\n      0x01\n      add\n      swap1\n      0x20\n      add\n      dup1\n      dup4\n      gt\n      tag_41\n      jumpi\n      dup3\n      swap1\n      sub\n      0x1f\n      and\n      dup3\n      add\n      swap2\n    tag_39:\n      pop\n      pop\n      pop\n      pop\n      pop\n      swap1\n      dup1\n      0x02\n      add\n      dup1\n      sload\n      tag_42\n      swap1\n      tag_37\n      jump\t// in\n    tag_42:\n      dup1\n      0x1f\n      add\n      0x20\n      dup1\n      swap2\n      div\n      mul\n      0x20\n      add\n      mload(0x40)\n      swap1\n      dup2\n      add\n      0x40\n      mstore\n      dup1\n      swap3\n      swap2\n      swap1\n      dup2\n      dup2\n      mstore\n      0x20\n      add\n      dup3\n      dup1\n      sload\n      tag_43\n      swap1\n      tag_37\n      jump\t// in\n    tag_43:\n      dup1\n      iszero\n      tag_44\n      jumpi\n      dup1\n      0x1f\n      lt\n      tag_45\n      jumpi\n      0x0100\n      dup1\n      dup4\n      sload\n      div\n      mul\n      dup4\n      mstore\n      swap2\n      0x20\n      add\n      swap2\n      jump(tag_44)\n    tag_45:\n      dup3\n      add\n      swap2\n      swap1\n      0x00\n      mstore\n      keccak256(0x00, 0x20)\n      swap1\n    tag_46:\n      dup2\n      sload\n      dup2\n      mstore\n      swap1\n      0x01\n      add\n      swap1\n      0x20\n      add\n      dup1\n      dup4\n      gt\n      tag_46\n      jumpi\n      dup3\n      swap1\n      sub\n      0x1f\n      and\n      dup3\n      add\n      swap2\n    tag_44:\n      pop\n      pop\n      pop\n      pop\n      pop\n      swap1\n      dup1\n      0x03\n      add\n      0x00\n      swap1\n      sload\n      swap1\n      0x0100\n      exp\n      swap1\n      div\n      0xff\n      and\n      swap1\n      pop\n      dup5\n      jump\t// out\n        /* \"ToDoApp.sol\":907:1000  function getTodo() public view returns(ToDo memory) {... */\n    tag_19:\n        /* \"ToDoApp.sol\":946:957  ToDo memory */\n      tag_47\n      tag_48\n      jump\t// in\n    tag_47:\n        /* \"ToDoApp.sol\":976:981  todos */\n      0x00\n        /* \"ToDoApp.sol\":976:993  todos[msg.sender] */\n      dup1\n        /* \"ToDoApp.sol\":982:992  msg.sender */\n      caller\n        /* \"ToDoApp.sol\":976:993  todos[msg.sender] */\n      0xffffffffffffffffffffffffffffffffffffffff\n      and\n      0xffffffffffffffffffffffffffffffffffffffff\n      and\n      dup2\n      mstore\n      0x20\n      add\n      swap1\n      dup2\n      mstore\n      0x20\n      add\n      0x00\n      keccak256\n        /* \"ToDoApp.sol\":969:993  return todos[msg.sender] */\n      mload(0x40)\n      dup1\n      0x80\n      add\n      0x40\n      mstore\n      swap1\n      dup2\n      0x00\n      dup3\n      add\n      sload\n      dup2\n      mstore\n      0x20\n      add\n      0x01\n      dup3\n      add\n      dup1\n      sload\n      tag_50\n      swap1\n      tag_37\n      jump\t// in\n    tag_50:\n      dup1\n      0x1f\n      add\n      0x20\n      dup1\n      swap2\n      div\n      mul\n      0x20\n      add\n      mload(0x40)\n      swap1\n      dup2\n      add\n      0x40\n      mstore\n      dup1\n      swap3\n      swap2\n      swap1\n      dup2\n      dup2\n      mstore\n      0x20\n      add\n      dup3\n      dup1\n      sload\n      tag_51\n      swap1\n      tag_37\n      jump\t// in\n    tag_51:\n      dup1\n      iszero\n      tag_52\n      jumpi\n      dup1\n      0x1f\n      lt\n      tag_53\n      jumpi\n      0x0100\n      dup1\n      dup4\n      sload\n      div\n      mul\n      dup4\n      mstore\n      swap2\n      0x20\n      add\n      swap2\n      jump(tag_52)\n    tag_53:\n      dup3\n      add\n      swap2\n      swap1\n      0x00\n      mstore\n      keccak256(0x00, 0x20)\n      swap1\n    tag_54:\n      dup2\n      sload\n      dup2\n      mstore\n      swap1\n      0x01\n      add\n      swap1\n      0x20\n      add\n      dup1\n      dup4\n      gt\n      tag_54\n      jumpi\n      dup3\n      swap1\n      sub\n      0x1f\n      and\n      dup3\n      add\n      swap2\n    tag_52:\n      pop\n      pop\n      pop\n      pop\n      pop\n      dup2\n      mstore\n      0x20\n      add\n      0x02\n      dup3\n      add\n      dup1\n      sload\n      tag_55\n      swap1\n      tag_37\n      jump\t// in\n    tag_55:\n      dup1\n      0x1f\n      add\n      0x20\n      dup1\n      swap2\n      div\n      mul\n      0x20\n      add\n      mload(0x40)\n      swap1\n      dup2\n      add\n      0x40\n      mstore\n      dup1\n      swap3\n      swap2\n      swap1\n      dup2\n      dup2\n      mstore\n      0x20\n      add\n      dup3\n      dup1\n      sload\n      tag_56\n      swap1\n      tag_37\n      jump\t// in\n    tag_56:\n      dup1\n      iszero\n      tag_57\n      jumpi\n      dup1\n      0x1f\n      lt\n      tag_58\n      jumpi\n      0x0100\n      dup1\n      dup4\n      sload\n      div\n      mul\n      dup4\n      mstore\n      swap2\n      0x20\n      add\n      swap2\n      jump(tag_57)\n    tag_58:\n      dup3\n      add\n      swap2\n      swap1\n      0x00\n      mstore\n      keccak256(0x00, 0x20)\n      swap1\n    tag_59:\n      dup2\n      sload\n      dup2\n      mstore\n      swap1\n      0x01\n      add\n      swap1\n      0x20\n      add\n      dup1\n      dup4\n      gt\n      tag_59\n      jumpi\n      dup3\n      swap1\n      sub\n      0x1f\n      and\n      dup3\n      add\n      swap2\n    tag_57:\n      pop\n      pop\n      pop\n      pop\n      pop\n      dup2\n      mstore\n      0x20\n      add\n      0x03\n      dup3\n      add\n      0x00\n      swap1\n      sload\n      swap1\n      0x0100\n      exp\n      swap1\n      div\n      0xff\n      and\n      iszero\n      iszero\n      iszero\n      iszero\n      dup2\n      mstore\n      pop\n      pop\n      swap1\n      pop\n        /* \"ToDoApp.sol\":907:1000  function getTodo() public view returns(ToDo memory) {... */\n      swap1\n      jump\t// out\n        /* \"ToDoApp.sol\":396:438  mapping(address => uint256) public counter */\n    tag_24:\n      mstore(0x20, 0x01)\n      dup1\n      0x00\n      mstore\n      keccak256(0x00, 0x40)\n      0x00\n      swap2\n      pop\n      swap1\n      pop\n      sload\n      dup2\n      jump\t// out\n        /* \"ToDoApp.sol\":1050:1139  function getAmount() public view returns(uint){... */\n    tag_28:\n        /* \"ToDoApp.sol\":1091:1095  uint */\n      0x00\n        /* \"ToDoApp.sol\":1113:1120  counter */\n      0x01\n        /* \"ToDoApp.sol\":1113:1132  counter[msg.sender] */\n      0x00\n        /* \"ToDoApp.sol\":1121:1131  msg.sender */\n      caller\n        /* \"ToDoApp.sol\":1113:1132  counter[msg.sender] */\n      0xffffffffffffffffffffffffffffffffffffffff\n      and\n      0xffffffffffffffffffffffffffffffffffffffff\n      and\n      dup2\n      mstore\n      0x20\n      add\n      swap1\n      dup2\n      mstore\n      0x20\n      add\n      0x00\n      keccak256\n      sload\n        /* \"ToDoApp.sol\":1106:1132  return counter[msg.sender] */\n      swap1\n      pop\n        /* \"ToDoApp.sol\":1050:1139  function getAmount() public view returns(uint){... */\n      swap1\n      jump\t// out\n    tag_32:\n      dup3\n      dup1\n      sload\n      tag_61\n      swap1\n      tag_37\n      jump\t// in\n    tag_61:\n      swap1\n      0x00\n      mstore\n      keccak256(0x00, 0x20)\n      swap1\n      0x1f\n      add\n      0x20\n      swap1\n      div\n      dup2\n      add\n      swap3\n      dup3\n      tag_63\n      jumpi\n      0x00\n      dup6\n      sstore\n      jump(tag_62)\n    tag_63:\n      dup3\n      0x1f\n      lt\n      tag_64\n      jumpi\n      dup1\n      mload\n      not(0xff)\n      and\n      dup4\n      dup1\n      add\n      or\n      dup6\n      sstore\n      jump(tag_62)\n    tag_64:\n      dup3\n      dup1\n      add\n      0x01\n      add\n      dup6\n      sstore\n      dup3\n      iszero\n      tag_62\n      jumpi\n      swap2\n      dup3\n      add\n    tag_65:\n      dup3\n      dup2\n      gt\n      iszero\n      tag_66\n      jumpi\n      dup3\n      mload\n      dup3\n      sstore\n      swap2\n      0x20\n      add\n      swap2\n      swap1\n      0x01\n      add\n      swap1\n      jump(tag_65)\n    tag_66:\n    tag_62:\n      pop\n      swap1\n      pop\n      tag_67\n      swap2\n      swap1\n      tag_68\n      jump\t// in\n    tag_67:\n      pop\n      swap1\n      jump\t// out\n    tag_48:\n      mload(0x40)\n      dup1\n      0x80\n      add\n      0x40\n      mstore\n      dup1\n      0x00\n      dup2\n      mstore\n      0x20\n      add\n      0x60\n      dup2\n      mstore\n      0x20\n      add\n      0x60\n      dup2\n      mstore\n      0x20\n      add\n      iszero(iszero(0x00))\n      dup2\n      mstore\n      pop\n      swap1\n      jump\t// out\n    tag_68:\n    tag_69:\n      dup1\n      dup3\n      gt\n      iszero\n      tag_70\n      jumpi\n      0x00\n      dup2\n      0x00\n      swap1\n      sstore\n      pop\n      0x01\n      add\n      jump(tag_69)\n    tag_70:\n      pop\n      swap1\n      jump\t// out\n        /* \"#utility.yul\":7:419   */\n    tag_72:\n        /* \"#utility.yul\":85:90   */\n      0x00\n        /* \"#utility.yul\":110:176   */\n      tag_74\n        /* \"#utility.yul\":126:175   */\n      tag_75\n        /* \"#utility.yul\":168:174   */\n      dup5\n        /* \"#utility.yul\":126:175   */\n      tag_76\n      jump\t// in\n    tag_75:\n        /* \"#utility.yul\":110:176   */\n      tag_77\n      jump\t// in\n    tag_74:\n        /* \"#utility.yul\":101:176   */\n      swap1\n      pop\n        /* \"#utility.yul\":199:205   */\n      dup3\n        /* \"#utility.yul\":192:197   */\n      dup2\n        /* \"#utility.yul\":185:206   */\n      mstore\n        /* \"#utility.yul\":237:241   */\n      0x20\n        /* \"#utility.yul\":230:235   */\n      dup2\n        /* \"#utility.yul\":226:242   */\n      add\n        /* \"#utility.yul\":275:278   */\n      dup5\n        /* \"#utility.yul\":266:272   */\n      dup5\n        /* \"#utility.yul\":261:264   */\n      dup5\n        /* \"#utility.yul\":257:273   */\n      add\n        /* \"#utility.yul\":254:279   */\n      gt\n        /* \"#utility.yul\":251:363   */\n      iszero\n      tag_78\n      jumpi\n        /* \"#utility.yul\":282:361   */\n      tag_79\n      tag_80\n      jump\t// in\n    tag_79:\n        /* \"#utility.yul\":251:363   */\n    tag_78:\n        /* \"#utility.yul\":372:413   */\n      tag_81\n        /* \"#utility.yul\":406:412   */\n      dup5\n        /* \"#utility.yul\":401:404   */\n      dup3\n        /* \"#utility.yul\":396:399   */\n      dup6\n        /* \"#utility.yul\":372:413   */\n      tag_82\n      jump\t// in\n    tag_81:\n        /* \"#utility.yul\":91:419   */\n      pop\n        /* \"#utility.yul\":7:419   */\n      swap4\n      swap3\n      pop\n      pop\n      pop\n      jump\t// out\n        /* \"#utility.yul\":425:564   */\n    tag_83:\n        /* \"#utility.yul\":471:476   */\n      0x00\n        /* \"#utility.yul\":509:515   */\n      dup2\n        /* \"#utility.yul\":496:516   */\n      calldataload\n        /* \"#utility.yul\":487:516   */\n      swap1\n      pop\n        /* \"#utility.yul\":525:558   */\n      tag_85\n        /* \"#utility.yul\":552:557   */\n      dup2\n        /* \"#utility.yul\":525:558   */\n      tag_86\n      jump\t// in\n    tag_85:\n        /* \"#utility.yul\":425:564   */\n      swap3\n      swap2\n      pop\n      pop\n      jump\t// out\n        /* \"#utility.yul\":584:924   */\n    tag_87:\n        /* \"#utility.yul\":640:645   */\n      0x00\n        /* \"#utility.yul\":689:692   */\n      dup3\n        /* \"#utility.yul\":682:686   */\n      0x1f\n        /* \"#utility.yul\":674:680   */\n      dup4\n        /* \"#utility.yul\":670:687   */\n      add\n        /* \"#utility.yul\":666:693   */\n      slt\n        /* \"#utility.yul\":656:778   */\n      tag_89\n      jumpi\n        /* \"#utility.yul\":697:776   */\n      tag_90\n      tag_91\n      jump\t// in\n    tag_90:\n        /* \"#utility.yul\":656:778   */\n    tag_89:\n        /* \"#utility.yul\":814:820   */\n      dup2\n        /* \"#utility.yul\":801:821   */\n      calldataload\n        /* \"#utility.yul\":839:918   */\n      tag_92\n        /* \"#utility.yul\":914:917   */\n      dup5\n        /* \"#utility.yul\":906:912   */\n      dup3\n        /* \"#utility.yul\":899:903   */\n      0x20\n        /* \"#utility.yul\":891:897   */\n      dup7\n        /* \"#utility.yul\":887:904   */\n      add\n        /* \"#utility.yul\":839:918   */\n      tag_72\n      jump\t// in\n    tag_92:\n        /* \"#utility.yul\":830:918   */\n      swap2\n      pop\n        /* \"#utility.yul\":646:924   */\n      pop\n        /* \"#utility.yul\":584:924   */\n      swap3\n      swap2\n      pop\n      pop\n      jump\t// out\n        /* \"#utility.yul\":930:1259   */\n    tag_14:\n        /* \"#utility.yul\":989:995   */\n      0x00\n        /* \"#utility.yul\":1038:1040   */\n      0x20\n        /* \"#utility.yul\":1026:1035   */\n      dup3\n        /* \"#utility.yul\":1017:1024   */\n      dup5\n        /* \"#utility.yul\":1013:1036   */\n      sub\n        /* \"#utility.yul\":1009:1041   */\n      slt\n        /* \"#utility.yul\":1006:1125   */\n      iszero\n      tag_94\n      jumpi\n        /* \"#utility.yul\":1044:1123   */\n      tag_95\n      tag_96\n      jump\t// in\n    tag_95:\n        /* \"#utility.yul\":1006:1125   */\n    tag_94:\n        /* \"#utility.yul\":1164:1165   */\n      0x00\n        /* \"#utility.yul\":1189:1242   */\n      tag_97\n        /* \"#utility.yul\":1234:1241   */\n      dup5\n        /* \"#utility.yul\":1225:1231   */\n      dup3\n        /* \"#utility.yul\":1214:1223   */\n      dup6\n        /* \"#utility.yul\":1210:1232   */\n      add\n        /* \"#utility.yul\":1189:1242   */\n      tag_83\n      jump\t// in\n    tag_97:\n        /* \"#utility.yul\":1179:1242   */\n      swap2\n      pop\n        /* \"#utility.yul\":1135:1252   */\n      pop\n        /* \"#utility.yul\":930:1259   */\n      swap3\n      swap2\n      pop\n      pop\n      jump\t// out\n        /* \"#utility.yul\":1265:2099   */\n    tag_10:\n        /* \"#utility.yul\":1353:1359   */\n      0x00\n        /* \"#utility.yul\":1361:1367   */\n      dup1\n        /* \"#utility.yul\":1410:1412   */\n      0x40\n        /* \"#utility.yul\":1398:1407   */\n      dup4\n        /* \"#utility.yul\":1389:1396   */\n      dup6\n        /* \"#utility.yul\":1385:1408   */\n      sub\n        /* \"#utility.yul\":1381:1413   */\n      slt\n        /* \"#utility.yul\":1378:1497   */\n      iszero\n      tag_99\n      jumpi\n        /* \"#utility.yul\":1416:1495   */\n      tag_100\n      tag_96\n      jump\t// in\n    tag_100:\n        /* \"#utility.yul\":1378:1497   */\n    tag_99:\n        /* \"#utility.yul\":1564:1565   */\n      0x00\n        /* \"#utility.yul\":1553:1562   */\n      dup4\n        /* \"#utility.yul\":1549:1566   */\n      add\n        /* \"#utility.yul\":1536:1567   */\n      calldataload\n        /* \"#utility.yul\":1594:1612   */\n      0xffffffffffffffff\n        /* \"#utility.yul\":1586:1592   */\n      dup2\n        /* \"#utility.yul\":1583:1613   */\n      gt\n        /* \"#utility.yul\":1580:1697   */\n      iszero\n      tag_101\n      jumpi\n        /* \"#utility.yul\":1616:1695   */\n      tag_102\n      tag_103\n      jump\t// in\n    tag_102:\n        /* \"#utility.yul\":1580:1697   */\n    tag_101:\n        /* \"#utility.yul\":1721:1784   */\n      tag_104\n        /* \"#utility.yul\":1776:1783   */\n      dup6\n        /* \"#utility.yul\":1767:1773   */\n      dup3\n        /* \"#utility.yul\":1756:1765   */\n      dup7\n        /* \"#utility.yul\":1752:1774   */\n      add\n        /* \"#utility.yul\":1721:1784   */\n      tag_87\n      jump\t// in\n    tag_104:\n        /* \"#utility.yul\":1711:1784   */\n      swap3\n      pop\n        /* \"#utility.yul\":1507:1794   */\n      pop\n        /* \"#utility.yul\":1861:1863   */\n      0x20\n        /* \"#utility.yul\":1850:1859   */\n      dup4\n        /* \"#utility.yul\":1846:1864   */\n      add\n        /* \"#utility.yul\":1833:1865   */\n      calldataload\n        /* \"#utility.yul\":1892:1910   */\n      0xffffffffffffffff\n        /* \"#utility.yul\":1884:1890   */\n      dup2\n        /* \"#utility.yul\":1881:1911   */\n      gt\n        /* \"#utility.yul\":1878:1995   */\n      iszero\n      tag_105\n      jumpi\n        /* \"#utility.yul\":1914:1993   */\n      tag_106\n      tag_103\n      jump\t// in\n    tag_106:\n        /* \"#utility.yul\":1878:1995   */\n    tag_105:\n        /* \"#utility.yul\":2019:2082   */\n      tag_107\n        /* \"#utility.yul\":2074:2081   */\n      dup6\n        /* \"#utility.yul\":2065:2071   */\n      dup3\n        /* \"#utility.yul\":2054:2063   */\n      dup7\n        /* \"#utility.yul\":2050:2072   */\n      add\n        /* \"#utility.yul\":2019:2082   */\n      tag_87\n      jump\t// in\n    tag_107:\n        /* \"#utility.yul\":2009:2082   */\n      swap2\n      pop\n        /* \"#utility.yul\":1804:2092   */\n      pop\n        /* \"#utility.yul\":1265:2099   */\n      swap3\n      pop\n      swap3\n      swap1\n      pop\n      jump\t// out\n        /* \"#utility.yul\":2105:2204   */\n    tag_108:\n        /* \"#utility.yul\":2176:2197   */\n      tag_110\n        /* \"#utility.yul\":2191:2196   */\n      dup2\n        /* \"#utility.yul\":2176:2197   */\n      tag_111\n      jump\t// in\n    tag_110:\n        /* \"#utility.yul\":2171:2174   */\n      dup3\n        /* \"#utility.yul\":2164:2198   */\n      mstore\n        /* \"#utility.yul\":2105:2204   */\n      pop\n      pop\n      jump\t// out\n        /* \"#utility.yul\":2210:2319   */\n    tag_112:\n        /* \"#utility.yul\":2291:2312   */\n      tag_114\n        /* \"#utility.yul\":2306:2311   */\n      dup2\n        /* \"#utility.yul\":2291:2312   */\n      tag_111\n      jump\t// in\n    tag_114:\n        /* \"#utility.yul\":2286:2289   */\n      dup3\n        /* \"#utility.yul\":2279:2313   */\n      mstore\n        /* \"#utility.yul\":2210:2319   */\n      pop\n      pop\n      jump\t// out\n        /* \"#utility.yul\":2325:2669   */\n    tag_115:\n        /* \"#utility.yul\":2403:2406   */\n      0x00\n        /* \"#utility.yul\":2431:2470   */\n      tag_117\n        /* \"#utility.yul\":2464:2469   */\n      dup3\n        /* \"#utility.yul\":2431:2470   */\n      tag_118\n      jump\t// in\n    tag_117:\n        /* \"#utility.yul\":2486:2547   */\n      tag_119\n        /* \"#utility.yul\":2540:2546   */\n      dup2\n        /* \"#utility.yul\":2535:2538   */\n      dup6\n        /* \"#utility.yul\":2486:2547   */\n      tag_120\n      jump\t// in\n    tag_119:\n        /* \"#utility.yul\":2479:2547   */\n      swap4\n      pop\n        /* \"#utility.yul\":2556:2608   */\n      tag_121\n        /* \"#utility.yul\":2601:2607   */\n      dup2\n        /* \"#utility.yul\":2596:2599   */\n      dup6\n        /* \"#utility.yul\":2589:2593   */\n      0x20\n        /* \"#utility.yul\":2582:2587   */\n      dup7\n        /* \"#utility.yul\":2578:2594   */\n      add\n        /* \"#utility.yul\":2556:2608   */\n      tag_122\n      jump\t// in\n    tag_121:\n        /* \"#utility.yul\":2633:2662   */\n      tag_123\n        /* \"#utility.yul\":2655:2661   */\n      dup2\n        /* \"#utility.yul\":2633:2662   */\n      tag_124\n      jump\t// in\n    tag_123:\n        /* \"#utility.yul\":2628:2631   */\n      dup5\n        /* \"#utility.yul\":2624:2663   */\n      add\n        /* \"#utility.yul\":2617:2663   */\n      swap2\n      pop\n        /* \"#utility.yul\":2407:2669   */\n      pop\n        /* \"#utility.yul\":2325:2669   */\n      swap3\n      swap2\n      pop\n      pop\n      jump\t// out\n        /* \"#utility.yul\":2675:3039   */\n    tag_125:\n        /* \"#utility.yul\":2763:2766   */\n      0x00\n        /* \"#utility.yul\":2791:2830   */\n      tag_127\n        /* \"#utility.yul\":2824:2829   */\n      dup3\n        /* \"#utility.yul\":2791:2830   */\n      tag_118\n      jump\t// in\n    tag_127:\n        /* \"#utility.yul\":2846:2917   */\n      tag_128\n        /* \"#utility.yul\":2910:2916   */\n      dup2\n        /* \"#utility.yul\":2905:2908   */\n      dup6\n        /* \"#utility.yul\":2846:2917   */\n      tag_129\n      jump\t// in\n    tag_128:\n        /* \"#utility.yul\":2839:2917   */\n      swap4\n      pop\n        /* \"#utility.yul\":2926:2978   */\n      tag_130\n        /* \"#utility.yul\":2971:2977   */\n      dup2\n        /* \"#utility.yul\":2966:2969   */\n      dup6\n        /* \"#utility.yul\":2959:2963   */\n      0x20\n        /* \"#utility.yul\":2952:2957   */\n      dup7\n        /* \"#utility.yul\":2948:2964   */\n      add\n        /* \"#utility.yul\":2926:2978   */\n      tag_122\n      jump\t// in\n    tag_130:\n        /* \"#utility.yul\":3003:3032   */\n      tag_131\n        /* \"#utility.yul\":3025:3031   */\n      dup2\n        /* \"#utility.yul\":3003:3032   */\n      tag_124\n      jump\t// in\n    tag_131:\n        /* \"#utility.yul\":2998:3001   */\n      dup5\n        /* \"#utility.yul\":2994:3033   */\n      add\n        /* \"#utility.yul\":2987:3033   */\n      swap2\n      pop\n        /* \"#utility.yul\":2767:3039   */\n      pop\n        /* \"#utility.yul\":2675:3039   */\n      swap3\n      swap2\n      pop\n      pop\n      jump\t// out\n        /* \"#utility.yul\":3095:4107   */\n    tag_132:\n        /* \"#utility.yul\":3204:3207   */\n      0x00\n        /* \"#utility.yul\":3240:3244   */\n      0x80\n        /* \"#utility.yul\":3235:3238   */\n      dup4\n        /* \"#utility.yul\":3231:3245   */\n      add\n        /* \"#utility.yul\":3325:3329   */\n      0x00\n        /* \"#utility.yul\":3318:3323   */\n      dup4\n        /* \"#utility.yul\":3314:3330   */\n      add\n        /* \"#utility.yul\":3308:3331   */\n      mload\n        /* \"#utility.yul\":3344:3407   */\n      tag_134\n        /* \"#utility.yul\":3401:3405   */\n      0x00\n        /* \"#utility.yul\":3396:3399   */\n      dup7\n        /* \"#utility.yul\":3392:3406   */\n      add\n        /* \"#utility.yul\":3378:3390   */\n      dup3\n        /* \"#utility.yul\":3344:3407   */\n      tag_135\n      jump\t// in\n    tag_134:\n        /* \"#utility.yul\":3255:3417   */\n      pop\n        /* \"#utility.yul\":3499:3503   */\n      0x20\n        /* \"#utility.yul\":3492:3497   */\n      dup4\n        /* \"#utility.yul\":3488:3504   */\n      add\n        /* \"#utility.yul\":3482:3505   */\n      mload\n        /* \"#utility.yul\":3552:3555   */\n      dup5\n        /* \"#utility.yul\":3546:3550   */\n      dup3\n        /* \"#utility.yul\":3542:3556   */\n      sub\n        /* \"#utility.yul\":3535:3539   */\n      0x20\n        /* \"#utility.yul\":3530:3533   */\n      dup7\n        /* \"#utility.yul\":3526:3540   */\n      add\n        /* \"#utility.yul\":3519:3557   */\n      mstore\n        /* \"#utility.yul\":3578:3651   */\n      tag_136\n        /* \"#utility.yul\":3646:3650   */\n      dup3\n        /* \"#utility.yul\":3632:3644   */\n      dup3\n        /* \"#utility.yul\":3578:3651   */\n      tag_115\n      jump\t// in\n    tag_136:\n        /* \"#utility.yul\":3570:3651   */\n      swap2\n      pop\n        /* \"#utility.yul\":3427:3662   */\n      pop\n        /* \"#utility.yul\":3747:3751   */\n      0x40\n        /* \"#utility.yul\":3740:3745   */\n      dup4\n        /* \"#utility.yul\":3736:3752   */\n      add\n        /* \"#utility.yul\":3730:3753   */\n      mload\n        /* \"#utility.yul\":3800:3803   */\n      dup5\n        /* \"#utility.yul\":3794:3798   */\n      dup3\n        /* \"#utility.yul\":3790:3804   */\n      sub\n        /* \"#utility.yul\":3783:3787   */\n      0x40\n        /* \"#utility.yul\":3778:3781   */\n      dup7\n        /* \"#utility.yul\":3774:3788   */\n      add\n        /* \"#utility.yul\":3767:3805   */\n      mstore\n        /* \"#utility.yul\":3826:3899   */\n      tag_137\n        /* \"#utility.yul\":3894:3898   */\n      dup3\n        /* \"#utility.yul\":3880:3892   */\n      dup3\n        /* \"#utility.yul\":3826:3899   */\n      tag_115\n      jump\t// in\n    tag_137:\n        /* \"#utility.yul\":3818:3899   */\n      swap2\n      pop\n        /* \"#utility.yul\":3672:3910   */\n      pop\n        /* \"#utility.yul\":3994:3998   */\n      0x60\n        /* \"#utility.yul\":3987:3992   */\n      dup4\n        /* \"#utility.yul\":3983:3999   */\n      add\n        /* \"#utility.yul\":3977:4000   */\n      mload\n        /* \"#utility.yul\":4013:4070   */\n      tag_138\n        /* \"#utility.yul\":4064:4068   */\n      0x60\n        /* \"#utility.yul\":4059:4062   */\n      dup7\n        /* \"#utility.yul\":4055:4069   */\n      add\n        /* \"#utility.yul\":4041:4053   */\n      dup3\n        /* \"#utility.yul\":4013:4070   */\n      tag_108\n      jump\t// in\n    tag_138:\n        /* \"#utility.yul\":3920:4080   */\n      pop\n        /* \"#utility.yul\":4097:4101   */\n      dup1\n        /* \"#utility.yul\":4090:4101   */\n      swap2\n      pop\n        /* \"#utility.yul\":3209:4107   */\n      pop\n        /* \"#utility.yul\":3095:4107   */\n      swap3\n      swap2\n      pop\n      pop\n      jump\t// out\n        /* \"#utility.yul\":4113:4221   */\n    tag_135:\n        /* \"#utility.yul\":4190:4214   */\n      tag_140\n        /* \"#utility.yul\":4208:4213   */\n      dup2\n        /* \"#utility.yul\":4190:4214   */\n      tag_141\n      jump\t// in\n    tag_140:\n        /* \"#utility.yul\":4185:4188   */\n      dup3\n        /* \"#utility.yul\":4178:4215   */\n      mstore\n        /* \"#utility.yul\":4113:4221   */\n      pop\n      pop\n      jump\t// out\n        /* \"#utility.yul\":4227:4345   */\n    tag_142:\n        /* \"#utility.yul\":4314:4338   */\n      tag_144\n        /* \"#utility.yul\":4332:4337   */\n      dup2\n        /* \"#utility.yul\":4314:4338   */\n      tag_141\n      jump\t// in\n    tag_144:\n        /* \"#utility.yul\":4309:4312   */\n      dup3\n        /* \"#utility.yul\":4302:4339   */\n      mstore\n        /* \"#utility.yul\":4227:4345   */\n      pop\n      pop\n      jump\t// out\n        /* \"#utility.yul\":4351:4704   */\n    tag_21:\n        /* \"#utility.yul\":4484:4488   */\n      0x00\n        /* \"#utility.yul\":4522:4524   */\n      0x20\n        /* \"#utility.yul\":4511:4520   */\n      dup3\n        /* \"#utility.yul\":4507:4525   */\n      add\n        /* \"#utility.yul\":4499:4525   */\n      swap1\n      pop\n        /* \"#utility.yul\":4571:4580   */\n      dup2\n        /* \"#utility.yul\":4565:4569   */\n      dup2\n        /* \"#utility.yul\":4561:4581   */\n      sub\n        /* \"#utility.yul\":4557:4558   */\n      0x00\n        /* \"#utility.yul\":4546:4555   */\n      dup4\n        /* \"#utility.yul\":4542:4559   */\n      add\n        /* \"#utility.yul\":4535:4582   */\n      mstore\n        /* \"#utility.yul\":4599:4697   */\n      tag_146\n        /* \"#utility.yul\":4692:4696   */\n      dup2\n        /* \"#utility.yul\":4683:4689   */\n      dup5\n        /* \"#utility.yul\":4599:4697   */\n      tag_132\n      jump\t// in\n    tag_146:\n        /* \"#utility.yul\":4591:4697   */\n      swap1\n      pop\n        /* \"#utility.yul\":4351:4704   */\n      swap3\n      swap2\n      pop\n      pop\n      jump\t// out\n        /* \"#utility.yul\":4710:4932   */\n    tag_26:\n        /* \"#utility.yul\":4803:4807   */\n      0x00\n        /* \"#utility.yul\":4841:4843   */\n      0x20\n        /* \"#utility.yul\":4830:4839   */\n      dup3\n        /* \"#utility.yul\":4826:4844   */\n      add\n        /* \"#utility.yul\":4818:4844   */\n      swap1\n      pop\n        /* \"#utility.yul\":4854:4925   */\n      tag_148\n        /* \"#utility.yul\":4922:4923   */\n      0x00\n        /* \"#utility.yul\":4911:4920   */\n      dup4\n        /* \"#utility.yul\":4907:4924   */\n      add\n        /* \"#utility.yul\":4898:4904   */\n      dup5\n        /* \"#utility.yul\":4854:4925   */\n      tag_142\n      jump\t// in\n    tag_148:\n        /* \"#utility.yul\":4710:4932   */\n      swap3\n      swap2\n      pop\n      pop\n      jump\t// out\n        /* \"#utility.yul\":4938:5661   */\n    tag_17:\n        /* \"#utility.yul\":5149:5153   */\n      0x00\n        /* \"#utility.yul\":5187:5190   */\n      0x80\n        /* \"#utility.yul\":5176:5185   */\n      dup3\n        /* \"#utility.yul\":5172:5191   */\n      add\n        /* \"#utility.yul\":5164:5191   */\n      swap1\n      pop\n        /* \"#utility.yul\":5201:5272   */\n      tag_150\n        /* \"#utility.yul\":5269:5270   */\n      0x00\n        /* \"#utility.yul\":5258:5267   */\n      dup4\n        /* \"#utility.yul\":5254:5271   */\n      add\n        /* \"#utility.yul\":5245:5251   */\n      dup8\n        /* \"#utility.yul\":5201:5272   */\n      tag_142\n      jump\t// in\n    tag_150:\n        /* \"#utility.yul\":5319:5328   */\n      dup2\n        /* \"#utility.yul\":5313:5317   */\n      dup2\n        /* \"#utility.yul\":5309:5329   */\n      sub\n        /* \"#utility.yul\":5304:5306   */\n      0x20\n        /* \"#utility.yul\":5293:5302   */\n      dup4\n        /* \"#utility.yul\":5289:5307   */\n      add\n        /* \"#utility.yul\":5282:5330   */\n      mstore\n        /* \"#utility.yul\":5347:5425   */\n      tag_151\n        /* \"#utility.yul\":5420:5424   */\n      dup2\n        /* \"#utility.yul\":5411:5417   */\n      dup7\n        /* \"#utility.yul\":5347:5425   */\n      tag_125\n      jump\t// in\n    tag_151:\n        /* \"#utility.yul\":5339:5425   */\n      swap1\n      pop\n        /* \"#utility.yul\":5472:5481   */\n      dup2\n        /* \"#utility.yul\":5466:5470   */\n      dup2\n        /* \"#utility.yul\":5462:5482   */\n      sub\n        /* \"#utility.yul\":5457:5459   */\n      0x40\n        /* \"#utility.yul\":5446:5455   */\n      dup4\n        /* \"#utility.yul\":5442:5460   */\n      add\n        /* \"#utility.yul\":5435:5483   */\n      mstore\n        /* \"#utility.yul\":5500:5578   */\n      tag_152\n        /* \"#utility.yul\":5573:5577   */\n      dup2\n        /* \"#utility.yul\":5564:5570   */\n      dup6\n        /* \"#utility.yul\":5500:5578   */\n      tag_125\n      jump\t// in\n    tag_152:\n        /* \"#utility.yul\":5492:5578   */\n      swap1\n      pop\n        /* \"#utility.yul\":5588:5654   */\n      tag_153\n        /* \"#utility.yul\":5650:5652   */\n      0x60\n        /* \"#utility.yul\":5639:5648   */\n      dup4\n        /* \"#utility.yul\":5635:5653   */\n      add\n        /* \"#utility.yul\":5626:5632   */\n      dup5\n        /* \"#utility.yul\":5588:5654   */\n      tag_112\n      jump\t// in\n    tag_153:\n        /* \"#utility.yul\":4938:5661   */\n      swap6\n      swap5\n      pop\n      pop\n      pop\n      pop\n      pop\n      jump\t// out\n        /* \"#utility.yul\":5667:5796   */\n    tag_77:\n        /* \"#utility.yul\":5701:5707   */\n      0x00\n        /* \"#utility.yul\":5728:5748   */\n      tag_155\n      tag_156\n      jump\t// in\n    tag_155:\n        /* \"#utility.yul\":5718:5748   */\n      swap1\n      pop\n        /* \"#utility.yul\":5757:5790   */\n      tag_157\n        /* \"#utility.yul\":5785:5789   */\n      dup3\n        /* \"#utility.yul\":5777:5783   */\n      dup3\n        /* \"#utility.yul\":5757:5790   */\n      tag_158\n      jump\t// in\n    tag_157:\n        /* \"#utility.yul\":5667:5796   */\n      swap2\n      swap1\n      pop\n      jump\t// out\n        /* \"#utility.yul\":5802:5877   */\n    tag_156:\n        /* \"#utility.yul\":5835:5841   */\n      0x00\n        /* \"#utility.yul\":5868:5870   */\n      0x40\n        /* \"#utility.yul\":5862:5871   */\n      mload\n        /* \"#utility.yul\":5852:5871   */\n      swap1\n      pop\n        /* \"#utility.yul\":5802:5877   */\n      swap1\n      jump\t// out\n        /* \"#utility.yul\":5883:6191   */\n    tag_76:\n        /* \"#utility.yul\":5945:5949   */\n      0x00\n        /* \"#utility.yul\":6035:6053   */\n      0xffffffffffffffff\n        /* \"#utility.yul\":6027:6033   */\n      dup3\n        /* \"#utility.yul\":6024:6054   */\n      gt\n        /* \"#utility.yul\":6021:6077   */\n      iszero\n      tag_161\n      jumpi\n        /* \"#utility.yul\":6057:6075   */\n      tag_162\n      tag_163\n      jump\t// in\n    tag_162:\n        /* \"#utility.yul\":6021:6077   */\n    tag_161:\n        /* \"#utility.yul\":6095:6124   */\n      tag_164\n        /* \"#utility.yul\":6117:6123   */\n      dup3\n        /* \"#utility.yul\":6095:6124   */\n      tag_124\n      jump\t// in\n    tag_164:\n        /* \"#utility.yul\":6087:6124   */\n      swap1\n      pop\n        /* \"#utility.yul\":6179:6183   */\n      0x20\n        /* \"#utility.yul\":6173:6177   */\n      dup2\n        /* \"#utility.yul\":6169:6184   */\n      add\n        /* \"#utility.yul\":6161:6184   */\n      swap1\n      pop\n        /* \"#utility.yul\":5883:6191   */\n      swap2\n      swap1\n      pop\n      jump\t// out\n        /* \"#utility.yul\":6197:6296   */\n    tag_118:\n        /* \"#utility.yul\":6249:6255   */\n      0x00\n        /* \"#utility.yul\":6283:6288   */\n      dup2\n        /* \"#utility.yul\":6277:6289   */\n      mload\n        /* \"#utility.yul\":6267:6289   */\n      swap1\n      pop\n        /* \"#utility.yul\":6197:6296   */\n      swap2\n      swap1\n      pop\n      jump\t// out\n        /* \"#utility.yul\":6302:6461   */\n    tag_120:\n        /* \"#utility.yul\":6376:6387   */\n      0x00\n        /* \"#utility.yul\":6410:6416   */\n      dup3\n        /* \"#utility.yul\":6405:6408   */\n      dup3\n        /* \"#utility.yul\":6398:6417   */\n      mstore\n        /* \"#utility.yul\":6450:6454   */\n      0x20\n        /* \"#utility.yul\":6445:6448   */\n      dup3\n        /* \"#utility.yul\":6441:6455   */\n      add\n        /* \"#utility.yul\":6426:6455   */\n      swap1\n      pop\n        /* \"#utility.yul\":6302:6461   */\n      swap3\n      swap2\n      pop\n      pop\n      jump\t// out\n        /* \"#utility.yul\":6467:6636   */\n    tag_129:\n        /* \"#utility.yul\":6551:6562   */\n      0x00\n        /* \"#utility.yul\":6585:6591   */\n      dup3\n        /* \"#utility.yul\":6580:6583   */\n      dup3\n        /* \"#utility.yul\":6573:6592   */\n      mstore\n        /* \"#utility.yul\":6625:6629   */\n      0x20\n        /* \"#utility.yul\":6620:6623   */\n      dup3\n        /* \"#utility.yul\":6616:6630   */\n      add\n        /* \"#utility.yul\":6601:6630   */\n      swap1\n      pop\n        /* \"#utility.yul\":6467:6636   */\n      swap3\n      swap2\n      pop\n      pop\n      jump\t// out\n        /* \"#utility.yul\":6642:6738   */\n    tag_168:\n        /* \"#utility.yul\":6679:6686   */\n      0x00\n        /* \"#utility.yul\":6708:6732   */\n      tag_170\n        /* \"#utility.yul\":6726:6731   */\n      dup3\n        /* \"#utility.yul\":6708:6732   */\n      tag_171\n      jump\t// in\n    tag_170:\n        /* \"#utility.yul\":6697:6732   */\n      swap1\n      pop\n        /* \"#utility.yul\":6642:6738   */\n      swap2\n      swap1\n      pop\n      jump\t// out\n        /* \"#utility.yul\":6744:6834   */\n    tag_111:\n        /* \"#utility.yul\":6778:6785   */\n      0x00\n        /* \"#utility.yul\":6821:6826   */\n      dup2\n        /* \"#utility.yul\":6814:6827   */\n      iszero\n        /* \"#utility.yul\":6807:6828   */\n      iszero\n        /* \"#utility.yul\":6796:6828   */\n      swap1\n      pop\n        /* \"#utility.yul\":6744:6834   */\n      swap2\n      swap1\n      pop\n      jump\t// out\n        /* \"#utility.yul\":6840:6966   */\n    tag_171:\n        /* \"#utility.yul\":6877:6884   */\n      0x00\n        /* \"#utility.yul\":6917:6959   */\n      0xffffffffffffffffffffffffffffffffffffffff\n        /* \"#utility.yul\":6910:6915   */\n      dup3\n        /* \"#utility.yul\":6906:6960   */\n      and\n        /* \"#utility.yul\":6895:6960   */\n      swap1\n      pop\n        /* \"#utility.yul\":6840:6966   */\n      swap2\n      swap1\n      pop\n      jump\t// out\n        /* \"#utility.yul\":6972:7049   */\n    tag_141:\n        /* \"#utility.yul\":7009:7016   */\n      0x00\n        /* \"#utility.yul\":7038:7043   */\n      dup2\n        /* \"#utility.yul\":7027:7043   */\n      swap1\n      pop\n        /* \"#utility.yul\":6972:7049   */\n      swap2\n      swap1\n      pop\n      jump\t// out\n        /* \"#utility.yul\":7055:7209   */\n    tag_82:\n        /* \"#utility.yul\":7139:7145   */\n      dup3\n        /* \"#utility.yul\":7134:7137   */\n      dup2\n        /* \"#utility.yul\":7129:7132   */\n      dup4\n        /* \"#utility.yul\":7116:7146   */\n      calldatacopy\n        /* \"#utility.yul\":7201:7202   */\n      0x00\n        /* \"#utility.yul\":7192:7198   */\n      dup4\n        /* \"#utility.yul\":7187:7190   */\n      dup4\n        /* \"#utility.yul\":7183:7199   */\n      add\n        /* \"#utility.yul\":7176:7203   */\n      mstore\n        /* \"#utility.yul\":7055:7209   */\n      pop\n      pop\n      pop\n      jump\t// out\n        /* \"#utility.yul\":7215:7522   */\n    tag_122:\n        /* \"#utility.yul\":7283:7284   */\n      0x00\n        /* \"#utility.yul\":7293:7406   */\n    tag_177:\n        /* \"#utility.yul\":7307:7313   */\n      dup4\n        /* \"#utility.yul\":7304:7305   */\n      dup2\n        /* \"#utility.yul\":7301:7314   */\n      lt\n        /* \"#utility.yul\":7293:7406   */\n      iszero\n      tag_179\n      jumpi\n        /* \"#utility.yul\":7392:7393   */\n      dup1\n        /* \"#utility.yul\":7387:7390   */\n      dup3\n        /* \"#utility.yul\":7383:7394   */\n      add\n        /* \"#utility.yul\":7377:7395   */\n      mload\n        /* \"#utility.yul\":7373:7374   */\n      dup2\n        /* \"#utility.yul\":7368:7371   */\n      dup5\n        /* \"#utility.yul\":7364:7375   */\n      add\n        /* \"#utility.yul\":7357:7396   */\n      mstore\n        /* \"#utility.yul\":7329:7331   */\n      0x20\n        /* \"#utility.yul\":7326:7327   */\n      dup2\n        /* \"#utility.yul\":7322:7332   */\n      add\n        /* \"#utility.yul\":7317:7332   */\n      swap1\n      pop\n        /* \"#utility.yul\":7293:7406   */\n      jump(tag_177)\n    tag_179:\n        /* \"#utility.yul\":7424:7430   */\n      dup4\n        /* \"#utility.yul\":7421:7422   */\n      dup2\n        /* \"#utility.yul\":7418:7431   */\n      gt\n        /* \"#utility.yul\":7415:7516   */\n      iszero\n      tag_180\n      jumpi\n        /* \"#utility.yul\":7504:7505   */\n      0x00\n        /* \"#utility.yul\":7495:7501   */\n      dup5\n        /* \"#utility.yul\":7490:7493   */\n      dup5\n        /* \"#utility.yul\":7486:7502   */\n      add\n        /* \"#utility.yul\":7479:7506   */\n      mstore\n        /* \"#utility.yul\":7415:7516   */\n    tag_180:\n        /* \"#utility.yul\":7264:7522   */\n      pop\n        /* \"#utility.yul\":7215:7522   */\n      pop\n      pop\n      pop\n      jump\t// out\n        /* \"#utility.yul\":7528:7848   */\n    tag_37:\n        /* \"#utility.yul\":7572:7578   */\n      0x00\n        /* \"#utility.yul\":7609:7610   */\n      0x02\n        /* \"#utility.yul\":7603:7607   */\n      dup3\n        /* \"#utility.yul\":7599:7611   */\n      div\n        /* \"#utility.yul\":7589:7611   */\n      swap1\n      pop\n        /* \"#utility.yul\":7656:7657   */\n      0x01\n        /* \"#utility.yul\":7650:7654   */\n      dup3\n        /* \"#utility.yul\":7646:7658   */\n      and\n        /* \"#utility.yul\":7677:7695   */\n      dup1\n        /* \"#utility.yul\":7667:7748   */\n      tag_182\n      jumpi\n        /* \"#utility.yul\":7733:7737   */\n      0x7f\n        /* \"#utility.yul\":7725:7731   */\n      dup3\n        /* \"#utility.yul\":7721:7738   */\n      and\n        /* \"#utility.yul\":7711:7738   */\n      swap2\n      pop\n        /* \"#utility.yul\":7667:7748   */\n    tag_182:\n        /* \"#utility.yul\":7795:7797   */\n      0x20\n        /* \"#utility.yul\":7787:7793   */\n      dup3\n        /* \"#utility.yul\":7784:7798   */\n      lt\n        /* \"#utility.yul\":7764:7782   */\n      dup2\n        /* \"#utility.yul\":7761:7799   */\n      eq\n        /* \"#utility.yul\":7758:7842   */\n      iszero\n      tag_183\n      jumpi\n        /* \"#utility.yul\":7814:7832   */\n      tag_184\n      tag_185\n      jump\t// in\n    tag_184:\n        /* \"#utility.yul\":7758:7842   */\n    tag_183:\n        /* \"#utility.yul\":7579:7848   */\n      pop\n        /* \"#utility.yul\":7528:7848   */\n      swap2\n      swap1\n      pop\n      jump\t// out\n        /* \"#utility.yul\":7854:8135   */\n    tag_158:\n        /* \"#utility.yul\":7937:7964   */\n      tag_187\n        /* \"#utility.yul\":7959:7963   */\n      dup3\n        /* \"#utility.yul\":7937:7964   */\n      tag_124\n      jump\t// in\n    tag_187:\n        /* \"#utility.yul\":7929:7935   */\n      dup2\n        /* \"#utility.yul\":7925:7965   */\n      add\n        /* \"#utility.yul\":8067:8073   */\n      dup2\n        /* \"#utility.yul\":8055:8065   */\n      dup2\n        /* \"#utility.yul\":8052:8074   */\n      lt\n        /* \"#utility.yul\":8031:8049   */\n      0xffffffffffffffff\n        /* \"#utility.yul\":8019:8029   */\n      dup3\n        /* \"#utility.yul\":8016:8050   */\n      gt\n        /* \"#utility.yul\":8013:8075   */\n      or\n        /* \"#utility.yul\":8010:8098   */\n      iszero\n      tag_188\n      jumpi\n        /* \"#utility.yul\":8078:8096   */\n      tag_189\n      tag_163\n      jump\t// in\n    tag_189:\n        /* \"#utility.yul\":8010:8098   */\n    tag_188:\n        /* \"#utility.yul\":8118:8128   */\n      dup1\n        /* \"#utility.yul\":8114:8116   */\n      0x40\n        /* \"#utility.yul\":8107:8129   */\n      mstore\n        /* \"#utility.yul\":7897:8135   */\n      pop\n        /* \"#utility.yul\":7854:8135   */\n      pop\n      pop\n      jump\t// out\n        /* \"#utility.yul\":8141:8374   */\n    tag_35:\n        /* \"#utility.yul\":8180:8183   */\n      0x00\n        /* \"#utility.yul\":8203:8227   */\n      tag_191\n        /* \"#utility.yul\":8221:8226   */\n      dup3\n        /* \"#utility.yul\":8203:8227   */\n      tag_141\n      jump\t// in\n    tag_191:\n        /* \"#utility.yul\":8194:8227   */\n      swap2\n      pop\n        /* \"#utility.yul\":8249:8315   */\n      0xffffffffffffffffffffffffffffffffffffffffffffffffffffffffffffffff\n        /* \"#utility.yul\":8242:8247   */\n      dup3\n        /* \"#utility.yul\":8239:8316   */\n      eq\n        /* \"#utility.yul\":8236:8339   */\n      iszero\n      tag_192\n      jumpi\n        /* \"#utility.yul\":8319:8337   */\n      tag_193\n      tag_194\n      jump\t// in\n    tag_193:\n        /* \"#utility.yul\":8236:8339   */\n    tag_192:\n        /* \"#utility.yul\":8366:8367   */\n      0x01\n        /* \"#utility.yul\":8359:8364   */\n      dup3\n        /* \"#utility.yul\":8355:8368   */\n      add\n        /* \"#utility.yul\":8348:8368   */\n      swap1\n      pop\n        /* \"#utility.yul\":8141:8374   */\n      swap2\n      swap1\n      pop\n      jump\t// out\n        /* \"#utility.yul\":8380:8560   */\n    tag_194:\n        /* \"#utility.yul\":8428:8505   */\n      0x4e487b7100000000000000000000000000000000000000000000000000000000\n        /* \"#utility.yul\":8425:8426   */\n      0x00\n        /* \"#utility.yul\":8418:8506   */\n      mstore\n        /* \"#utility.yul\":8525:8529   */\n      0x11\n        /* \"#utility.yul\":8522:8523   */\n      0x04\n        /* \"#utility.yul\":8515:8530   */\n      mstore\n        /* \"#utility.yul\":8549:8553   */\n      0x24\n        /* \"#utility.yul\":8546:8547   */\n      0x00\n        /* \"#utility.yul\":8539:8554   */\n      revert\n        /* \"#utility.yul\":8566:8746   */\n    tag_185:\n        /* \"#utility.yul\":8614:8691   */\n      0x4e487b7100000000000000000000000000000000000000000000000000000000\n        /* \"#utility.yul\":8611:8612   */\n      0x00\n        /* \"#utility.yul\":8604:8692   */\n      mstore\n        /* \"#utility.yul\":8711:8715   */\n      0x22\n        /* \"#utility.yul\":8708:8709   */\n      0x04\n        /* \"#utility.yul\":8701:8716   */\n      mstore\n        /* \"#utility.yul\":8735:8739   */\n      0x24\n        /* \"#utility.yul\":8732:8733   */\n      0x00\n        /* \"#utility.yul\":8725:8740   */\n      revert\n        /* \"#utility.yul\":8752:8932   */\n    tag_163:\n        /* \"#utility.yul\":8800:8877   */\n      0x4e487b7100000000000000000000000000000000000000000000000000000000\n        /* \"#utility.yul\":8797:8798   */\n      0x00\n        /* \"#utility.yul\":8790:8878   */\n      mstore\n        /* \"#utility.yul\":8897:8901   */\n      0x41\n        /* \"#utility.yul\":8894:8895   */\n      0x04\n        /* \"#utility.yul\":8887:8902   */\n      mstore\n        /* \"#utility.yul\":8921:8925   */\n      0x24\n        /* \"#utility.yul\":8918:8919   */\n      0x00\n        /* \"#utility.yul\":8911:8926   */\n      revert\n        /* \"#utility.yul\":8938:9055   */\n    tag_91:\n        /* \"#utility.yul\":9047:9048   */\n      0x00\n        /* \"#utility.yul\":9044:9045   */\n      dup1\n        /* \"#utility.yul\":9037:9049   */\n      revert\n        /* \"#utility.yul\":9061:9178   */\n    tag_80:\n        /* \"#utility.yul\":9170:9171   */\n      0x00\n        /* \"#utility.yul\":9167:9168   */\n      dup1\n        /* \"#utility.yul\":9160:9172   */\n      revert\n        /* \"#utility.yul\":9184:9301   */\n    tag_103:\n        /* \"#utility.yul\":9293:9294   */\n      0x00\n        /* \"#utility.yul\":9290:9291   */\n      dup1\n        /* \"#utility.yul\":9283:9295   */\n      revert\n        /* \"#utility.yul\":9307:9424   */\n    tag_96:\n        /* \"#utility.yul\":9416:9417   */\n      0x00\n        /* \"#utility.yul\":9413:9414   */\n      dup1\n        /* \"#utility.yul\":9406:9418   */\n      revert\n        /* \"#utility.yul\":9430:9532   */\n    tag_124:\n        /* \"#utility.yul\":9471:9477   */\n      0x00\n        /* \"#utility.yul\":9522:9524   */\n      0x1f\n        /* \"#utility.yul\":9518:9525   */\n      not\n        /* \"#utility.yul\":9513:9515   */\n      0x1f\n        /* \"#utility.yul\":9506:9511   */\n      dup4\n        /* \"#utility.yul\":9502:9516   */\n      add\n        /* \"#utility.yul\":9498:9526   */\n      and\n        /* \"#utility.yul\":9488:9526   */\n      swap1\n      pop\n        /* \"#utility.yul\":9430:9532   */\n      swap2\n      swap1\n      pop\n      jump\t// out\n        /* \"#utility.yul\":9538:9660   */\n    tag_86:\n        /* \"#utility.yul\":9611:9635   */\n      tag_204\n        /* \"#utility.yul\":9629:9634   */\n      dup2\n        /* \"#utility.yul\":9611:9635   */\n      tag_168\n      jump\t// in\n    tag_204:\n        /* \"#utility.yul\":9604:9609   */\n      dup2\n        /* \"#utility.yul\":9601:9636   */\n      eq\n        /* \"#utility.yul\":9591:9654   */\n      tag_205\n      jumpi\n        /* \"#utility.yul\":9650:9651   */\n      0x00\n        /* \"#utility.yul\":9647:9648   */\n      dup1\n        /* \"#utility.yul\":9640:9652   */\n      revert\n        /* \"#utility.yul\":9591:9654   */\n    tag_205:\n        /* \"#utility.yul\":9538:9660   */\n      pop\n      jump\t// out\n\n    auxdata: 0xa26469706673582212203cf17485363da18f29ac75c3184d69081e3915339b81a700459da73d2dbe87e464736f6c63430008070033\n}\n",
				"bytecode": {
					"linkReferences": {},
					"object": "608060405234801561001057600080fd5b50610c1a806100206000396000f3fe608060405234801561001057600080fd5b50600436106100575760003560e01c80631b7fb2601461005c57806356a68c00146100785780637fa1680a146100ab578063c12327b8146100c9578063d321fe29146100f9575b600080fd5b61007660048036038101906100719190610742565b610117565b005b610092600480360381019061008d9190610715565b610278565b6040516100a2949392919061090f565b60405180910390f35b6100b36103c5565b6040516100c091906108d2565b60405180910390f35b6100e360048036038101906100de9190610715565b610564565b6040516100f091906108f4565b60405180910390f35b61010161057c565b60405161010e91906108f4565b60405180910390f35b6040518060800160405280600160003373ffffffffffffffffffffffffffffffffffffffff1673ffffffffffffffffffffffffffffffffffffffff168152602001908152602001600020548152602001838152602001828152602001600015158152506000803373ffffffffffffffffffffffffffffffffffffffff1673ffffffffffffffffffffffffffffffffffffffff1681526020019081526020016000206000820151816000015560208201518160010190805190602001906101de9291906105c3565b5060408201518160020190805190602001906101fb9291906105c3565b5060608201518160030160006101000a81548160ff021916908315150217905550905050600160003373ffffffffffffffffffffffffffffffffffffffff1673ffffffffffffffffffffffffffffffffffffffff168152602001908152602001600020600081548092919061026f90610ad2565b91905055505050565b60006020528060005260406000206000915090508060000154908060010180546102a190610a6f565b80601f01602080910402602001604051908101604052809291908181526020018280546102cd90610a6f565b801561031a5780601f106102ef5761010080835404028352916020019161031a565b820191906000526020600020905b8154815290600101906020018083116102fd57829003601f168201915b50505050509080600201805461032f90610a6f565b80601f016020809104026020016040519081016040528092919081815260200182805461035b90610a6f565b80156103a85780601f1061037d576101008083540402835291602001916103a8565b820191906000526020600020905b81548152906001019060200180831161038b57829003601f168201915b5050505050908060030160009054906101000a900460ff16905084565b6103cd610649565b6000803373ffffffffffffffffffffffffffffffffffffffff1673ffffffffffffffffffffffffffffffffffffffff1681526020019081526020016000206040518060800160405290816000820154815260200160018201805461043090610a6f565b80601f016020809104026020016040519081016040528092919081815260200182805461045c90610a6f565b80156104a95780601f1061047e576101008083540402835291602001916104a9565b820191906000526020600020905b81548152906001019060200180831161048c57829003601f168201915b505050505081526020016002820180546104c290610a6f565b80601f01602080910402602001604051908101604052809291908181526020018280546104ee90610a6f565b801561053b5780601f106105105761010080835404028352916020019161053b565b820191906000526020600020905b81548152906001019060200180831161051e57829003601f168201915b505050505081526020016003820160009054906101000a900460ff161515151581525050905090565b60016020528060005260406000206000915090505481565b6000600160003373ffffffffffffffffffffffffffffffffffffffff1673ffffffffffffffffffffffffffffffffffffffff16815260200190815260200160002054905090565b8280546105cf90610a6f565b90600052602060002090601f0160209004810192826105f15760008555610638565b82601f1061060a57805160ff1916838001178555610638565b82800160010185558215610638579182015b8281111561063757825182559160200191906001019061061c565b5b5090506106459190610673565b5090565b60405180608001604052806000815260200160608152602001606081526020016000151581525090565b5b8082111561068c576000816000905550600101610674565b5090565b60006106a361069e84610987565b610962565b9050828152602081018484840111156106bf576106be610bad565b5b6106ca848285610a2d565b509392505050565b6000813590506106e181610bcd565b92915050565b600082601f8301126106fc576106fb610ba8565b5b813561070c848260208601610690565b91505092915050565b60006020828403121561072b5761072a610bb7565b5b6000610739848285016106d2565b91505092915050565b6000806040838503121561075957610758610bb7565b5b600083013567ffffffffffffffff81111561077757610776610bb2565b5b610783858286016106e7565b925050602083013567ffffffffffffffff8111156107a4576107a3610bb2565b5b6107b0858286016106e7565b9150509250929050565b6107c3816109f7565b82525050565b6107d2816109f7565b82525050565b60006107e3826109b8565b6107ed81856109c3565b93506107fd818560208601610a3c565b61080681610bbc565b840191505092915050565b600061081c826109b8565b61082681856109d4565b9350610836818560208601610a3c565b61083f81610bbc565b840191505092915050565b600060808301600083015161086260008601826108b4565b506020830151848203602086015261087a82826107d8565b9150506040830151848203604086015261089482826107d8565b91505060608301516108a960608601826107ba565b508091505092915050565b6108bd81610a23565b82525050565b6108cc81610a23565b82525050565b600060208201905081810360008301526108ec818461084a565b905092915050565b600060208201905061090960008301846108c3565b92915050565b600060808201905061092460008301876108c3565b81810360208301526109368186610811565b9050818103604083015261094a8185610811565b905061095960608301846107c9565b95945050505050565b600061096c61097d565b90506109788282610aa1565b919050565b6000604051905090565b600067ffffffffffffffff8211156109a2576109a1610b79565b5b6109ab82610bbc565b9050602081019050919050565b600081519050919050565b600082825260208201905092915050565b600082825260208201905092915050565b60006109f082610a03565b9050919050565b60008115159050919050565b600073ffffffffffffffffffffffffffffffffffffffff82169050919050565b6000819050919050565b82818337600083830152505050565b60005b83811015610a5a578082015181840152602081019050610a3f565b83811115610a69576000848401525b50505050565b60006002820490506001821680610a8757607f821691505b60208210811415610a9b57610a9a610b4a565b5b50919050565b610aaa82610bbc565b810181811067ffffffffffffffff82111715610ac957610ac8610b79565b5b80604052505050565b6000610add82610a23565b91507fffffffffffffffffffffffffffffffffffffffffffffffffffffffffffffffff821415610b1057610b0f610b1b565b5b600182019050919050565b7f4e487b7100000000000000000000000000000000000000000000000000000000600052601160045260246000fd5b7f4e487b7100000000000000000000000000000000000000000000000000000000600052602260045260246000fd5b7f4e487b7100000000000000000000000000000000000000000000000000000000600052604160045260246000fd5b600080fd5b600080fd5b600080fd5b600080fd5b6000601f19601f8301169050919050565b610bd6816109e5565b8114610be157600080fd5b5056fea26469706673582212203cf17485363da18f29ac75c3184d69081e3915339b81a700459da73d2dbe87e464736f6c63430008070033",
					"opcodes": "PUSH1 0x80 PUSH1 0x40 MSTORE CALLVALUE DUP1 ISZERO PUSH2 0x10 JUMPI PUSH1 0x0 DUP1 REVERT JUMPDEST POP PUSH2 0xC1A DUP1 PUSH2 0x20 PUSH1 0x0 CODECOPY PUSH1 0x0 RETURN INVALID PUSH1 0x80 PUSH1 0x40 MSTORE CALLVALUE DUP1 ISZERO PUSH2 0x10 JUMPI PUSH1 0x0 DUP1 REVERT JUMPDEST POP PUSH1 0x4 CALLDATASIZE LT PUSH2 0x57 JUMPI PUSH1 0x0 CALLDATALOAD PUSH1 0xE0 SHR DUP1 PUSH4 0x1B7FB260 EQ PUSH2 0x5C JUMPI DUP1 PUSH4 0x56A68C00 EQ PUSH2 0x78 JUMPI DUP1 PUSH4 0x7FA1680A EQ PUSH2 0xAB JUMPI DUP1 PUSH4 0xC12327B8 EQ PUSH2 0xC9 JUMPI DUP1 PUSH4 0xD321FE29 EQ PUSH2 0xF9 JUMPI JUMPDEST PUSH1 0x0 DUP1 REVERT JUMPDEST PUSH2 0x76 PUSH1 0x4 DUP1 CALLDATASIZE SUB DUP2 ADD SWAP1 PUSH2 0x71 SWAP2 SWAP1 PUSH2 0x742 JUMP JUMPDEST PUSH2 0x117 JUMP JUMPDEST STOP JUMPDEST PUSH2 0x92 PUSH1 0x4 DUP1 CALLDATASIZE SUB DUP2 ADD SWAP1 PUSH2 0x8D SWAP2 SWAP1 PUSH2 0x715 JUMP JUMPDEST PUSH2 0x278 JUMP JUMPDEST PUSH1 0x40 MLOAD PUSH2 0xA2 SWAP5 SWAP4 SWAP3 SWAP2 SWAP1 PUSH2 0x90F JUMP JUMPDEST PUSH1 0x40 MLOAD DUP1 SWAP2 SUB SWAP1 RETURN JUMPDEST PUSH2 0xB3 PUSH2 0x3C5 JUMP JUMPDEST PUSH1 0x40 MLOAD PUSH2 0xC0 SWAP2 SWAP1 PUSH2 0x8D2 JUMP JUMPDEST PUSH1 0x40 MLOAD DUP1 SWAP2 SUB SWAP1 RETURN JUMPDEST PUSH2 0xE3 PUSH1 0x4 DUP1 CALLDATASIZE SUB DUP2 ADD SWAP1 PUSH2 0xDE SWAP2 SWAP1 PUSH2 0x715 JUMP JUMPDEST PUSH2 0x564 JUMP JUMPDEST PUSH1 0x40 MLOAD PUSH2 0xF0 SWAP2 SWAP1 PUSH2 0x8F4 JUMP JUMPDEST PUSH1 0x40 MLOAD DUP1 SWAP2 SUB SWAP1 RETURN JUMPDEST PUSH2 0x101 PUSH2 0x57C JUMP JUMPDEST PUSH1 0x40 MLOAD PUSH2 0x10E SWAP2 SWAP1 PUSH2 0x8F4 JUMP JUMPDEST PUSH1 0x40 MLOAD DUP1 SWAP2 SUB SWAP1 RETURN JUMPDEST PUSH1 0x40 MLOAD DUP1 PUSH1 0x80 ADD PUSH1 0x40 MSTORE DUP1 PUSH1 0x1 PUSH1 0x0 CALLER PUSH20 0xFFFFFFFFFFFFFFFFFFFFFFFFFFFFFFFFFFFFFFFF AND PUSH20 0xFFFFFFFFFFFFFFFFFFFFFFFFFFFFFFFFFFFFFFFF AND DUP2 MSTORE PUSH1 0x20 ADD SWAP1 DUP2 MSTORE PUSH1 0x20 ADD PUSH1 0x0 KECCAK256 SLOAD DUP2 MSTORE PUSH1 0x20 ADD DUP4 DUP2 MSTORE PUSH1 0x20 ADD DUP3 DUP2 MSTORE PUSH1 0x20 ADD PUSH1 0x0 ISZERO ISZERO DUP2 MSTORE POP PUSH1 0x0 DUP1 CALLER PUSH20 0xFFFFFFFFFFFFFFFFFFFFFFFFFFFFFFFFFFFFFFFF AND PUSH20 0xFFFFFFFFFFFFFFFFFFFFFFFFFFFFFFFFFFFFFFFF AND DUP2 MSTORE PUSH1 0x20 ADD SWAP1 DUP2 MSTORE PUSH1 0x20 ADD PUSH1 0x0 KECCAK256 PUSH1 0x0 DUP3 ADD MLOAD DUP2 PUSH1 0x0 ADD SSTORE PUSH1 0x20 DUP3 ADD MLOAD DUP2 PUSH1 0x1 ADD SWAP1 DUP1 MLOAD SWAP1 PUSH1 0x20 ADD SWAP1 PUSH2 0x1DE SWAP3 SWAP2 SWAP1 PUSH2 0x5C3 JUMP JUMPDEST POP PUSH1 0x40 DUP3 ADD MLOAD DUP2 PUSH1 0x2 ADD SWAP1 DUP1 MLOAD SWAP1 PUSH1 0x20 ADD SWAP1 PUSH2 0x1FB SWAP3 SWAP2 SWAP1 PUSH2 0x5C3 JUMP JUMPDEST POP PUSH1 0x60 DUP3 ADD MLOAD DUP2 PUSH1 0x3 ADD PUSH1 0x0 PUSH2 0x100 EXP DUP2 SLOAD DUP2 PUSH1 0xFF MUL NOT AND SWAP1 DUP4 ISZERO ISZERO MUL OR SWAP1 SSTORE POP SWAP1 POP POP PUSH1 0x1 PUSH1 0x0 CALLER PUSH20 0xFFFFFFFFFFFFFFFFFFFFFFFFFFFFFFFFFFFFFFFF AND PUSH20 0xFFFFFFFFFFFFFFFFFFFFFFFFFFFFFFFFFFFFFFFF AND DUP2 MSTORE PUSH1 0x20 ADD SWAP1 DUP2 MSTORE PUSH1 0x20 ADD PUSH1 0x0 KECCAK256 PUSH1 0x0 DUP2 SLOAD DUP1 SWAP3 SWAP2 SWAP1 PUSH2 0x26F SWAP1 PUSH2 0xAD2 JUMP JUMPDEST SWAP2 SWAP1 POP SSTORE POP POP POP JUMP JUMPDEST PUSH1 0x0 PUSH1 0x20 MSTORE DUP1 PUSH1 0x0 MSTORE PUSH1 0x40 PUSH1 0x0 KECCAK256 PUSH1 0x0 SWAP2 POP SWAP1 POP DUP1 PUSH1 0x0 ADD SLOAD SWAP1 DUP1 PUSH1 0x1 ADD DUP1 SLOAD PUSH2 0x2A1 SWAP1 PUSH2 0xA6F JUMP JUMPDEST DUP1 PUSH1 0x1F ADD PUSH1 0x20 DUP1 SWAP2 DIV MUL PUSH1 0x20 ADD PUSH1 0x40 MLOAD SWAP1 DUP2 ADD PUSH1 0x40 MSTORE DUP1 SWAP3 SWAP2 SWAP1 DUP2 DUP2 MSTORE PUSH1 0x20 ADD DUP3 DUP1 SLOAD PUSH2 0x2CD SWAP1 PUSH2 0xA6F JUMP JUMPDEST DUP1 ISZERO PUSH2 0x31A JUMPI DUP1 PUSH1 0x1F LT PUSH2 0x2EF JUMPI PUSH2 0x100 DUP1 DUP4 SLOAD DIV MUL DUP4 MSTORE SWAP2 PUSH1 0x20 ADD SWAP2 PUSH2 0x31A JUMP JUMPDEST DUP3 ADD SWAP2 SWAP1 PUSH1 0x0 MSTORE PUSH1 0x20 PUSH1 0x0 KECCAK256 SWAP1 JUMPDEST DUP2 SLOAD DUP2 MSTORE SWAP1 PUSH1 0x1 ADD SWAP1 PUSH1 0x20 ADD DUP1 DUP4 GT PUSH2 0x2FD JUMPI DUP3 SWAP1 SUB PUSH1 0x1F AND DUP3 ADD SWAP2 JUMPDEST POP POP POP POP POP SWAP1 DUP1 PUSH1 0x2 ADD DUP1 SLOAD PUSH2 0x32F SWAP1 PUSH2 0xA6F JUMP JUMPDEST DUP1 PUSH1 0x1F ADD PUSH1 0x20 DUP1 SWAP2 DIV MUL PUSH1 0x20 ADD PUSH1 0x40 MLOAD SWAP1 DUP2 ADD PUSH1 0x40 MSTORE DUP1 SWAP3 SWAP2 SWAP1 DUP2 DUP2 MSTORE PUSH1 0x20 ADD DUP3 DUP1 SLOAD PUSH2 0x35B SWAP1 PUSH2 0xA6F JUMP JUMPDEST DUP1 ISZERO PUSH2 0x3A8 JUMPI DUP1 PUSH1 0x1F LT PUSH2 0x37D JUMPI PUSH2 0x100 DUP1 DUP4 SLOAD DIV MUL DUP4 MSTORE SWAP2 PUSH1 0x20 ADD SWAP2 PUSH2 0x3A8 JUMP JUMPDEST DUP3 ADD SWAP2 SWAP1 PUSH1 0x0 MSTORE PUSH1 0x20 PUSH1 0x0 KECCAK256 SWAP1 JUMPDEST DUP2 SLOAD DUP2 MSTORE SWAP1 PUSH1 0x1 ADD SWAP1 PUSH1 0x20 ADD DUP1 DUP4 GT PUSH2 0x38B JUMPI DUP3 SWAP1 SUB PUSH1 0x1F AND DUP3 ADD SWAP2 JUMPDEST POP POP POP POP POP SWAP1 DUP1 PUSH1 0x3 ADD PUSH1 0x0 SWAP1 SLOAD SWAP1 PUSH2 0x100 EXP SWAP1 DIV PUSH1 0xFF AND SWAP1 POP DUP5 JUMP JUMPDEST PUSH2 0x3CD PUSH2 0x649 JUMP JUMPDEST PUSH1 0x0 DUP1 CALLER PUSH20 0xFFFFFFFFFFFFFFFFFFFFFFFFFFFFFFFFFFFFFFFF AND PUSH20 0xFFFFFFFFFFFFFFFFFFFFFFFFFFFFFFFFFFFFFFFF AND DUP2 MSTORE PUSH1 0x20 ADD SWAP1 DUP2 MSTORE PUSH1 0x20 ADD PUSH1 0x0 KECCAK256 PUSH1 0x40 MLOAD DUP1 PUSH1 0x80 ADD PUSH1 0x40 MSTORE SWAP1 DUP2 PUSH1 0x0 DUP3 ADD SLOAD DUP2 MSTORE PUSH1 0x20 ADD PUSH1 0x1 DUP3 ADD DUP1 SLOAD PUSH2 0x430 SWAP1 PUSH2 0xA6F JUMP JUMPDEST DUP1 PUSH1 0x1F ADD PUSH1 0x20 DUP1 SWAP2 DIV MUL PUSH1 0x20 ADD PUSH1 0x40 MLOAD SWAP1 DUP2 ADD PUSH1 0x40 MSTORE DUP1 SWAP3 SWAP2 SWAP1 DUP2 DUP2 MSTORE PUSH1 0x20 ADD DUP3 DUP1 SLOAD PUSH2 0x45C SWAP1 PUSH2 0xA6F JUMP JUMPDEST DUP1 ISZERO PUSH2 0x4A9 JUMPI DUP1 PUSH1 0x1F LT PUSH2 0x47E JUMPI PUSH2 0x100 DUP1 DUP4 SLOAD DIV MUL DUP4 MSTORE SWAP2 PUSH1 0x20 ADD SWAP2 PUSH2 0x4A9 JUMP JUMPDEST DUP3 ADD SWAP2 SWAP1 PUSH1 0x0 MSTORE PUSH1 0x20 PUSH1 0x0 KECCAK256 SWAP1 JUMPDEST DUP2 SLOAD DUP2 MSTORE SWAP1 PUSH1 0x1 ADD SWAP1 PUSH1 0x20 ADD DUP1 DUP4 GT PUSH2 0x48C JUMPI DUP3 SWAP1 SUB PUSH1 0x1F AND DUP3 ADD SWAP2 JUMPDEST POP POP POP POP POP DUP2 MSTORE PUSH1 0x20 ADD PUSH1 0x2 DUP3 ADD DUP1 SLOAD PUSH2 0x4C2 SWAP1 PUSH2 0xA6F JUMP JUMPDEST DUP1 PUSH1 0x1F ADD PUSH1 0x20 DUP1 SWAP2 DIV MUL PUSH1 0x20 ADD PUSH1 0x40 MLOAD SWAP1 DUP2 ADD PUSH1 0x40 MSTORE DUP1 SWAP3 SWAP2 SWAP1 DUP2 DUP2 MSTORE PUSH1 0x20 ADD DUP3 DUP1 SLOAD PUSH2 0x4EE SWAP1 PUSH2 0xA6F JUMP JUMPDEST DUP1 ISZERO PUSH2 0x53B JUMPI DUP1 PUSH1 0x1F LT PUSH2 0x510 JUMPI PUSH2 0x100 DUP1 DUP4 SLOAD DIV MUL DUP4 MSTORE SWAP2 PUSH1 0x20 ADD SWAP2 PUSH2 0x53B JUMP JUMPDEST DUP3 ADD SWAP2 SWAP1 PUSH1 0x0 MSTORE PUSH1 0x20 PUSH1 0x0 KECCAK256 SWAP1 JUMPDEST DUP2 SLOAD DUP2 MSTORE SWAP1 PUSH1 0x1 ADD SWAP1 PUSH1 0x20 ADD DUP1 DUP4 GT PUSH2 0x51E JUMPI DUP3 SWAP1 SUB PUSH1 0x1F AND DUP3 ADD SWAP2 JUMPDEST POP POP POP POP POP DUP2 MSTORE PUSH1 0x20 ADD PUSH1 0x3 DUP3 ADD PUSH1 0x0 SWAP1 SLOAD SWAP1 PUSH2 0x100 EXP SWAP1 DIV PUSH1 0xFF AND ISZERO ISZERO ISZERO ISZERO DUP2 MSTORE POP POP SWAP1 POP SWAP1 JUMP JUMPDEST PUSH1 0x1 PUSH1 0x20 MSTORE DUP1 PUSH1 0x0 MSTORE PUSH1 0x40 PUSH1 0x0 KECCAK256 PUSH1 0x0 SWAP2 POP SWAP1 POP SLOAD DUP2 JUMP JUMPDEST PUSH1 0x0 PUSH1 0x1 PUSH1 0x0 CALLER PUSH20 0xFFFFFFFFFFFFFFFFFFFFFFFFFFFFFFFFFFFFFFFF AND PUSH20 0xFFFFFFFFFFFFFFFFFFFFFFFFFFFFFFFFFFFFFFFF AND DUP2 MSTORE PUSH1 0x20 ADD SWAP1 DUP2 MSTORE PUSH1 0x20 ADD PUSH1 0x0 KECCAK256 SLOAD SWAP1 POP SWAP1 JUMP JUMPDEST DUP3 DUP1 SLOAD PUSH2 0x5CF SWAP1 PUSH2 0xA6F JUMP JUMPDEST SWAP1 PUSH1 0x0 MSTORE PUSH1 0x20 PUSH1 0x0 KECCAK256 SWAP1 PUSH1 0x1F ADD PUSH1 0x20 SWAP1 DIV DUP2 ADD SWAP3 DUP3 PUSH2 0x5F1 JUMPI PUSH1 0x0 DUP6 SSTORE PUSH2 0x638 JUMP JUMPDEST DUP3 PUSH1 0x1F LT PUSH2 0x60A JUMPI DUP1 MLOAD PUSH1 0xFF NOT AND DUP4 DUP1 ADD OR DUP6 SSTORE PUSH2 0x638 JUMP JUMPDEST DUP3 DUP1 ADD PUSH1 0x1 ADD DUP6 SSTORE DUP3 ISZERO PUSH2 0x638 JUMPI SWAP2 DUP3 ADD JUMPDEST DUP3 DUP2 GT ISZERO PUSH2 0x637 JUMPI DUP3 MLOAD DUP3 SSTORE SWAP2 PUSH1 0x20 ADD SWAP2 SWAP1 PUSH1 0x1 ADD SWAP1 PUSH2 0x61C JUMP JUMPDEST JUMPDEST POP SWAP1 POP PUSH2 0x645 SWAP2 SWAP1 PUSH2 0x673 JUMP JUMPDEST POP SWAP1 JUMP JUMPDEST PUSH1 0x40 MLOAD DUP1 PUSH1 0x80 ADD PUSH1 0x40 MSTORE DUP1 PUSH1 0x0 DUP2 MSTORE PUSH1 0x20 ADD PUSH1 0x60 DUP2 MSTORE PUSH1 0x20 ADD PUSH1 0x60 DUP2 MSTORE PUSH1 0x20 ADD PUSH1 0x0 ISZERO ISZERO DUP2 MSTORE POP SWAP1 JUMP JUMPDEST JUMPDEST DUP1 DUP3 GT ISZERO PUSH2 0x68C JUMPI PUSH1 0x0 DUP2 PUSH1 0x0 SWAP1 SSTORE POP PUSH1 0x1 ADD PUSH2 0x674 JUMP JUMPDEST POP SWAP1 JUMP JUMPDEST PUSH1 0x0 PUSH2 0x6A3 PUSH2 0x69E DUP5 PUSH2 0x987 JUMP JUMPDEST PUSH2 0x962 JUMP JUMPDEST SWAP1 POP DUP3 DUP2 MSTORE PUSH1 0x20 DUP2 ADD DUP5 DUP5 DUP5 ADD GT ISZERO PUSH2 0x6BF JUMPI PUSH2 0x6BE PUSH2 0xBAD JUMP JUMPDEST JUMPDEST PUSH2 0x6CA DUP5 DUP3 DUP6 PUSH2 0xA2D JUMP JUMPDEST POP SWAP4 SWAP3 POP POP POP JUMP JUMPDEST PUSH1 0x0 DUP2 CALLDATALOAD SWAP1 POP PUSH2 0x6E1 DUP2 PUSH2 0xBCD JUMP JUMPDEST SWAP3 SWAP2 POP POP JUMP JUMPDEST PUSH1 0x0 DUP3 PUSH1 0x1F DUP4 ADD SLT PUSH2 0x6FC JUMPI PUSH2 0x6FB PUSH2 0xBA8 JUMP JUMPDEST JUMPDEST DUP2 CALLDATALOAD PUSH2 0x70C DUP5 DUP3 PUSH1 0x20 DUP7 ADD PUSH2 0x690 JUMP JUMPDEST SWAP2 POP POP SWAP3 SWAP2 POP POP JUMP JUMPDEST PUSH1 0x0 PUSH1 0x20 DUP3 DUP5 SUB SLT ISZERO PUSH2 0x72B JUMPI PUSH2 0x72A PUSH2 0xBB7 JUMP JUMPDEST JUMPDEST PUSH1 0x0 PUSH2 0x739 DUP5 DUP3 DUP6 ADD PUSH2 0x6D2 JUMP JUMPDEST SWAP2 POP POP SWAP3 SWAP2 POP POP JUMP JUMPDEST PUSH1 0x0 DUP1 PUSH1 0x40 DUP4 DUP6 SUB SLT ISZERO PUSH2 0x759 JUMPI PUSH2 0x758 PUSH2 0xBB7 JUMP JUMPDEST JUMPDEST PUSH1 0x0 DUP4 ADD CALLDATALOAD PUSH8 0xFFFFFFFFFFFFFFFF DUP2 GT ISZERO PUSH2 0x777 JUMPI PUSH2 0x776 PUSH2 0xBB2 JUMP JUMPDEST JUMPDEST PUSH2 0x783 DUP6 DUP3 DUP7 ADD PUSH2 0x6E7 JUMP JUMPDEST SWAP3 POP POP PUSH1 0x20 DUP4 ADD CALLDATALOAD PUSH8 0xFFFFFFFFFFFFFFFF DUP2 GT ISZERO PUSH2 0x7A4 JUMPI PUSH2 0x7A3 PUSH2 0xBB2 JUMP JUMPDEST JUMPDEST PUSH2 0x7B0 DUP6 DUP3 DUP7 ADD PUSH2 0x6E7 JUMP JUMPDEST SWAP2 POP POP SWAP3 POP SWAP3 SWAP1 POP JUMP JUMPDEST PUSH2 0x7C3 DUP2 PUSH2 0x9F7 JUMP JUMPDEST DUP3 MSTORE POP POP JUMP JUMPDEST PUSH2 0x7D2 DUP2 PUSH2 0x9F7 JUMP JUMPDEST DUP3 MSTORE POP POP JUMP JUMPDEST PUSH1 0x0 PUSH2 0x7E3 DUP3 PUSH2 0x9B8 JUMP JUMPDEST PUSH2 0x7ED DUP2 DUP6 PUSH2 0x9C3 JUMP JUMPDEST SWAP4 POP PUSH2 0x7FD DUP2 DUP6 PUSH1 0x20 DUP7 ADD PUSH2 0xA3C JUMP JUMPDEST PUSH2 0x806 DUP2 PUSH2 0xBBC JUMP JUMPDEST DUP5 ADD SWAP2 POP POP SWAP3 SWAP2 POP POP JUMP JUMPDEST PUSH1 0x0 PUSH2 0x81C DUP3 PUSH2 0x9B8 JUMP JUMPDEST PUSH2 0x826 DUP2 DUP6 PUSH2 0x9D4 JUMP JUMPDEST SWAP4 POP PUSH2 0x836 DUP2 DUP6 PUSH1 0x20 DUP7 ADD PUSH2 0xA3C JUMP JUMPDEST PUSH2 0x83F DUP2 PUSH2 0xBBC JUMP JUMPDEST DUP5 ADD SWAP2 POP POP SWAP3 SWAP2 POP POP JUMP JUMPDEST PUSH1 0x0 PUSH1 0x80 DUP4 ADD PUSH1 0x0 DUP4 ADD MLOAD PUSH2 0x862 PUSH1 0x0 DUP7 ADD DUP3 PUSH2 0x8B4 JUMP JUMPDEST POP PUSH1 0x20 DUP4 ADD MLOAD DUP5 DUP3 SUB PUSH1 0x20 DUP7 ADD MSTORE PUSH2 0x87A DUP3 DUP3 PUSH2 0x7D8 JUMP JUMPDEST SWAP2 POP POP PUSH1 0x40 DUP4 ADD MLOAD DUP5 DUP3 SUB PUSH1 0x40 DUP7 ADD MSTORE PUSH2 0x894 DUP3 DUP3 PUSH2 0x7D8 JUMP JUMPDEST SWAP2 POP POP PUSH1 0x60 DUP4 ADD MLOAD PUSH2 0x8A9 PUSH1 0x60 DUP7 ADD DUP3 PUSH2 0x7BA JUMP JUMPDEST POP DUP1 SWAP2 POP POP SWAP3 SWAP2 POP POP JUMP JUMPDEST PUSH2 0x8BD DUP2 PUSH2 0xA23 JUMP JUMPDEST DUP3 MSTORE POP POP JUMP JUMPDEST PUSH2 0x8CC DUP2 PUSH2 0xA23 JUMP JUMPDEST DUP3 MSTORE POP POP JUMP JUMPDEST PUSH1 0x0 PUSH1 0x20 DUP3 ADD SWAP1 POP DUP2 DUP2 SUB PUSH1 0x0 DUP4 ADD MSTORE PUSH2 0x8EC DUP2 DUP5 PUSH2 0x84A JUMP JUMPDEST SWAP1 POP SWAP3 SWAP2 POP POP JUMP JUMPDEST PUSH1 0x0 PUSH1 0x20 DUP3 ADD SWAP1 POP PUSH2 0x909 PUSH1 0x0 DUP4 ADD DUP5 PUSH2 0x8C3 JUMP JUMPDEST SWAP3 SWAP2 POP POP JUMP JUMPDEST PUSH1 0x0 PUSH1 0x80 DUP3 ADD SWAP1 POP PUSH2 0x924 PUSH1 0x0 DUP4 ADD DUP8 PUSH2 0x8C3 JUMP JUMPDEST DUP2 DUP2 SUB PUSH1 0x20 DUP4 ADD MSTORE PUSH2 0x936 DUP2 DUP7 PUSH2 0x811 JUMP JUMPDEST SWAP1 POP DUP2 DUP2 SUB PUSH1 0x40 DUP4 ADD MSTORE PUSH2 0x94A DUP2 DUP6 PUSH2 0x811 JUMP JUMPDEST SWAP1 POP PUSH2 0x959 PUSH1 0x60 DUP4 ADD DUP5 PUSH2 0x7C9 JUMP JUMPDEST SWAP6 SWAP5 POP POP POP POP POP JUMP JUMPDEST PUSH1 0x0 PUSH2 0x96C PUSH2 0x97D JUMP JUMPDEST SWAP1 POP PUSH2 0x978 DUP3 DUP3 PUSH2 0xAA1 JUMP JUMPDEST SWAP2 SWAP1 POP JUMP JUMPDEST PUSH1 0x0 PUSH1 0x40 MLOAD SWAP1 POP SWAP1 JUMP JUMPDEST PUSH1 0x0 PUSH8 0xFFFFFFFFFFFFFFFF DUP3 GT ISZERO PUSH2 0x9A2 JUMPI PUSH2 0x9A1 PUSH2 0xB79 JUMP JUMPDEST JUMPDEST PUSH2 0x9AB DUP3 PUSH2 0xBBC JUMP JUMPDEST SWAP1 POP PUSH1 0x20 DUP2 ADD SWAP1 POP SWAP2 SWAP1 POP JUMP JUMPDEST PUSH1 0x0 DUP2 MLOAD SWAP1 POP SWAP2 SWAP1 POP JUMP JUMPDEST PUSH1 0x0 DUP3 DUP3 MSTORE PUSH1 0x20 DUP3 ADD SWAP1 POP SWAP3 SWAP2 POP POP JUMP JUMPDEST PUSH1 0x0 DUP3 DUP3 MSTORE PUSH1 0x20 DUP3 ADD SWAP1 POP SWAP3 SWAP2 POP POP JUMP JUMPDEST PUSH1 0x0 PUSH2 0x9F0 DUP3 PUSH2 0xA03 JUMP JUMPDEST SWAP1 POP SWAP2 SWAP1 POP JUMP JUMPDEST PUSH1 0x0 DUP2 ISZERO ISZERO SWAP1 POP SWAP2 SWAP1 POP JUMP JUMPDEST PUSH1 0x0 PUSH20 0xFFFFFFFFFFFFFFFFFFFFFFFFFFFFFFFFFFFFFFFF DUP3 AND SWAP1 POP SWAP2 SWAP1 POP JUMP JUMPDEST PUSH1 0x0 DUP2 SWAP1 POP SWAP2 SWAP1 POP JUMP JUMPDEST DUP3 DUP2 DUP4 CALLDATACOPY PUSH1 0x0 DUP4 DUP4 ADD MSTORE POP POP POP JUMP JUMPDEST PUSH1 0x0 JUMPDEST DUP4 DUP2 LT ISZERO PUSH2 0xA5A JUMPI DUP1 DUP3 ADD MLOAD DUP2 DUP5 ADD MSTORE PUSH1 0x20 DUP2 ADD SWAP1 POP PUSH2 0xA3F JUMP JUMPDEST DUP4 DUP2 GT ISZERO PUSH2 0xA69 JUMPI PUSH1 0x0 DUP5 DUP5 ADD MSTORE JUMPDEST POP POP POP POP JUMP JUMPDEST PUSH1 0x0 PUSH1 0x2 DUP3 DIV SWAP1 POP PUSH1 0x1 DUP3 AND DUP1 PUSH2 0xA87 JUMPI PUSH1 0x7F DUP3 AND SWAP2 POP JUMPDEST PUSH1 0x20 DUP3 LT DUP2 EQ ISZERO PUSH2 0xA9B JUMPI PUSH2 0xA9A PUSH2 0xB4A JUMP JUMPDEST JUMPDEST POP SWAP2 SWAP1 POP JUMP JUMPDEST PUSH2 0xAAA DUP3 PUSH2 0xBBC JUMP JUMPDEST DUP2 ADD DUP2 DUP2 LT PUSH8 0xFFFFFFFFFFFFFFFF DUP3 GT OR ISZERO PUSH2 0xAC9 JUMPI PUSH2 0xAC8 PUSH2 0xB79 JUMP JUMPDEST JUMPDEST DUP1 PUSH1 0x40 MSTORE POP POP POP JUMP JUMPDEST PUSH1 0x0 PUSH2 0xADD DUP3 PUSH2 0xA23 JUMP JUMPDEST SWAP2 POP PUSH32 0xFFFFFFFFFFFFFFFFFFFFFFFFFFFFFFFFFFFFFFFFFFFFFFFFFFFFFFFFFFFFFFFF DUP3 EQ ISZERO PUSH2 0xB10 JUMPI PUSH2 0xB0F PUSH2 0xB1B JUMP JUMPDEST JUMPDEST PUSH1 0x1 DUP3 ADD SWAP1 POP SWAP2 SWAP1 POP JUMP JUMPDEST PUSH32 0x4E487B7100000000000000000000000000000000000000000000000000000000 PUSH1 0x0 MSTORE PUSH1 0x11 PUSH1 0x4 MSTORE PUSH1 0x24 PUSH1 0x0 REVERT JUMPDEST PUSH32 0x4E487B7100000000000000000000000000000000000000000000000000000000 PUSH1 0x0 MSTORE PUSH1 0x22 PUSH1 0x4 MSTORE PUSH1 0x24 PUSH1 0x0 REVERT JUMPDEST PUSH32 0x4E487B7100000000000000000000000000000000000000000000000000000000 PUSH1 0x0 MSTORE PUSH1 0x41 PUSH1 0x4 MSTORE PUSH1 0x24 PUSH1 0x0 REVERT JUMPDEST PUSH1 0x0 DUP1 REVERT JUMPDEST PUSH1 0x0 DUP1 REVERT JUMPDEST PUSH1 0x0 DUP1 REVERT JUMPDEST PUSH1 0x0 DUP1 REVERT JUMPDEST PUSH1 0x0 PUSH1 0x1F NOT PUSH1 0x1F DUP4 ADD AND SWAP1 POP SWAP2 SWAP1 POP JUMP JUMPDEST PUSH2 0xBD6 DUP2 PUSH2 0x9E5 JUMP JUMPDEST DUP2 EQ PUSH2 0xBE1 JUMPI PUSH1 0x0 DUP1 REVERT JUMPDEST POP JUMP INVALID LOG2 PUSH5 0x6970667358 0x22 SLT KECCAK256 EXTCODECOPY CALL PUSH21 0x85363DA18F29AC75C3184D69081E3915339B81A700 GASLIMIT SWAP14 0xA7 RETURNDATASIZE 0x2D 0xBE DUP8 0xE4 PUSH5 0x736F6C6343 STOP ADDMOD SMOD STOP CALLER "
				},
				"gasEstimates": {
					"creation": {
						"codeDepositCost": "619600",
						"executionCost": "651",
						"totalCost": "620251"
					},
					"external": {
						"addTodo(string,string)": "infinite",
						"counter(address)": "2858",
						"getAmount()": "2592",
						"getTodo()": "infinite",
						"todos(address)": "infinite"
					}
				},
				"methodIdentifiers": {
					"addTodo(string,string)": "1b7fb260",
					"counter(address)": "c12327b8",
					"getAmount()": "d321fe29",
					"getTodo()": "7fa1680a",
					"todos(address)": "56a68c00"
				}
			},
			"storageLayout": {
				"storage": [
					{
						"astId": 17,
						"contract": "ToDoApp.sol:ToDoApp",
						"label": "todos",
						"offset": 0,
						"slot": "0",
						"type": "t_mapping(t_address,t_struct(ToDo)11_storage)"
					},
					{
						"astId": 21,
						"contract": "ToDoApp.sol:ToDoApp",
						"label": "counter",
						"offset": 0,
						"slot": "1",
						"type": "t_mapping(t_address,t_uint256)"
					}
				],
				"types": {
					"t_address": {
						"encoding": "inplace",
						"label": "address",
						"numberOfBytes": "20"
					},
					"t_bool": {
						"encoding": "inplace",
						"label": "bool",
						"numberOfBytes": "1"
					},
					"t_mapping(t_address,t_struct(ToDo)11_storage)": {
						"encoding": "mapping",
						"key": "t_address",
						"label": "mapping(address => struct ToDoApp.ToDo)",
						"numberOfBytes": "32",
						"value": "t_struct(ToDo)11_storage"
					},
					"t_mapping(t_address,t_uint256)": {
						"encoding": "mapping",
						"key": "t_address",
						"label": "mapping(address => uint256)",
						"numberOfBytes": "32",
						"value": "t_uint256"
					},
					"t_string_storage": {
						"encoding": "bytes",
						"label": "string",
						"numberOfBytes": "32"
					},
					"t_struct(ToDo)11_storage": {
						"encoding": "inplace",
						"label": "struct ToDoApp.ToDo",
						"members": [
							{
								"astId": 4,
								"contract": "ToDoApp.sol:ToDoApp",
								"label": "id",
								"offset": 0,
								"slot": "0",
								"type": "t_uint256"
							},
							{
								"astId": 6,
								"contract": "ToDoApp.sol:ToDoApp",
								"label": "name",
								"offset": 0,
								"slot": "1",
								"type": "t_string_storage"
							},
							{
								"astId": 8,
								"contract": "ToDoApp.sol:ToDoApp",
								"label": "content",
								"offset": 0,
								"slot": "2",
								"type": "t_string_storage"
							},
							{
								"astId": 10,
								"contract": "ToDoApp.sol:ToDoApp",
								"label": "status",
								"offset": 0,
								"slot": "3",
								"type": "t_bool"
							}
						],
						"numberOfBytes": "128"
					},
					"t_uint256": {
						"encoding": "inplace",
						"label": "uint256",
						"numberOfBytes": "32"
					}
				}
			},
			"userdoc": {
				"kind": "user",
				"methods": {
					"addTodo(string,string)": {
						"notice": "Add new todo to memory. ID defaults to counter index and status defaults to false"
					},
					"constructor": {
						"notice": "Constructor"
					},
					"getAmount()": {
						"notice": "Get amount of todos"
					},
					"getTodo()": {
						"notice": "Get todo"
					},
					"todos(address)": {
						"notice": "Mappings"
					}
				},
				"notice": "A simple ToDo smart contract app",
				"version": 1
			}
		}
	}
}