{
	"ToDoApp.sol": {
		"ToDoApp": {
			"abi": [
				{
					"inputs": [],
					"stateMutability": "nonpayable",
					"type": "constructor"
				},
				{
					"inputs": [
						{
							"internalType": "string",
							"name": "name",
							"type": "string"
						},
						{
							"internalType": "string",
							"name": "content",
							"type": "string"
						}
					],
					"name": "addTodo",
					"outputs": [],
					"stateMutability": "nonpayable",
					"type": "function"
				},
				{
					"inputs": [
						{
							"internalType": "address",
							"name": "",
							"type": "address"
						}
					],
					"name": "counter",
					"outputs": [
						{
							"internalType": "uint256",
							"name": "",
							"type": "uint256"
						}
					],
					"stateMutability": "view",
					"type": "function"
				},
				{
					"inputs": [],
					"name": "getAmount",
					"outputs": [
						{
							"internalType": "uint256",
							"name": "",
							"type": "uint256"
						}
					],
					"stateMutability": "view",
					"type": "function"
				},
				{
					"inputs": [
						{
							"internalType": "uint256",
							"name": "id",
							"type": "uint256"
						}
					],
					"name": "getTodo",
					"outputs": [
						{
							"components": [
								{
									"internalType": "uint256",
									"name": "id",
									"type": "uint256"
								},
								{
									"internalType": "string",
									"name": "name",
									"type": "string"
								},
								{
									"internalType": "string",
									"name": "content",
									"type": "string"
								},
								{
									"internalType": "bool",
									"name": "status",
									"type": "bool"
								}
							],
							"internalType": "struct ToDoApp.ToDo[]",
							"name": "",
							"type": "tuple[]"
						}
					],
					"stateMutability": "view",
					"type": "function"
				},
				{
					"inputs": [
						{
							"internalType": "address",
							"name": "",
							"type": "address"
						},
						{
							"internalType": "uint256",
							"name": "",
							"type": "uint256"
						},
						{
							"internalType": "uint256",
							"name": "",
							"type": "uint256"
						}
					],
					"name": "todos",
					"outputs": [
						{
							"internalType": "uint256",
							"name": "id",
							"type": "uint256"
						},
						{
							"internalType": "string",
							"name": "name",
							"type": "string"
						},
						{
							"internalType": "string",
							"name": "content",
							"type": "string"
						},
						{
							"internalType": "bool",
							"name": "status",
							"type": "bool"
						}
					],
					"stateMutability": "view",
					"type": "function"
				}
			],
			"devdoc": {
				"kind": "dev",
				"methods": {},
				"version": 1
			},
			"evm": {
				"assembly": "    /* \"ToDoApp.sol\":120:2506  contract ToDoApp {... */\n  mstore(0x40, 0x80)\n    /* \"ToDoApp.sol\":502:518  constructor() {} */\n  callvalue\n  dup1\n  iszero\n  tag_1\n  jumpi\n  0x00\n  dup1\n  revert\ntag_1:\n  pop\n    /* \"ToDoApp.sol\":120:2506  contract ToDoApp {... */\n  dataSize(sub_0)\n  dup1\n  dataOffset(sub_0)\n  0x00\n  codecopy\n  0x00\n  return\nstop\n\nsub_0: assembly {\n        /* \"ToDoApp.sol\":120:2506  contract ToDoApp {... */\n      mstore(0x40, 0x80)\n      callvalue\n      dup1\n      iszero\n      tag_1\n      jumpi\n      0x00\n      dup1\n      revert\n    tag_1:\n      pop\n      jumpi(tag_2, lt(calldatasize, 0x04))\n      shr(0xe0, calldataload(0x00))\n      dup1\n      0x1b7fb260\n      eq\n      tag_3\n      jumpi\n      dup1\n      0x97292ce5\n      eq\n      tag_4\n      jumpi\n      dup1\n      0xc12327b8\n      eq\n      tag_5\n      jumpi\n      dup1\n      0xd321fe29\n      eq\n      tag_6\n      jumpi\n      dup1\n      0xdd68afb6\n      eq\n      tag_7\n      jumpi\n    tag_2:\n      0x00\n      dup1\n      revert\n        /* \"ToDoApp.sol\":815:1230  function addTodo(string memory name, string memory content) public {... */\n    tag_3:\n      tag_8\n      0x04\n      dup1\n      calldatasize\n      sub\n      dup2\n      add\n      swap1\n      tag_9\n      swap2\n      swap1\n      tag_10\n      jump\t// in\n    tag_9:\n      tag_11\n      jump\t// in\n    tag_8:\n      stop\n        /* \"ToDoApp.sol\":353:412  mapping(address => mapping(uint256 => ToDo[])) public todos */\n    tag_4:\n      tag_12\n      0x04\n      dup1\n      calldatasize\n      sub\n      dup2\n      add\n      swap1\n      tag_13\n      swap2\n      swap1\n      tag_14\n      jump\t// in\n    tag_13:\n      tag_15\n      jump\t// in\n    tag_12:\n      mload(0x40)\n      tag_16\n      swap5\n      swap4\n      swap3\n      swap2\n      swap1\n      tag_17\n      jump\t// in\n    tag_16:\n      mload(0x40)\n      dup1\n      swap2\n      sub\n      swap1\n      return\n        /* \"ToDoApp.sol\":418:460  mapping(address => uint256) public counter */\n    tag_5:\n      tag_18\n      0x04\n      dup1\n      calldatasize\n      sub\n      dup2\n      add\n      swap1\n      tag_19\n      swap2\n      swap1\n      tag_20\n      jump\t// in\n    tag_19:\n      tag_21\n      jump\t// in\n    tag_18:\n      mload(0x40)\n      tag_22\n      swap2\n      swap1\n      tag_23\n      jump\t// in\n    tag_22:\n      mload(0x40)\n      dup1\n      swap2\n      sub\n      swap1\n      return\n        /* \"ToDoApp.sol\":1921:2015  function getAmount() public view returns (uint256) {... */\n    tag_6:\n      tag_24\n      tag_25\n      jump\t// in\n    tag_24:\n      mload(0x40)\n      tag_26\n      swap2\n      swap1\n      tag_23\n      jump\t// in\n    tag_26:\n      mload(0x40)\n      dup1\n      swap2\n      sub\n      swap1\n      return\n        /* \"ToDoApp.sol\":1305:1503  function getTodo(uint256 id) public view todoCount returns (ToDo[] memory) {... */\n    tag_7:\n      tag_27\n      0x04\n      dup1\n      calldatasize\n      sub\n      dup2\n      add\n      swap1\n      tag_28\n      swap2\n      swap1\n      tag_29\n      jump\t// in\n    tag_28:\n      tag_30\n      jump\t// in\n    tag_27:\n      mload(0x40)\n      tag_31\n      swap2\n      swap1\n      tag_32\n      jump\t// in\n    tag_31:\n      mload(0x40)\n      dup1\n      swap2\n      sub\n      swap1\n      return\n        /* \"ToDoApp.sol\":815:1230  function addTodo(string memory name, string memory content) public {... */\n    tag_11:\n        /* \"ToDoApp.sol\":928:935  counter */\n      0x01\n        /* \"ToDoApp.sol\":928:947  counter[msg.sender] */\n      0x00\n        /* \"ToDoApp.sol\":936:946  msg.sender */\n      caller\n        /* \"ToDoApp.sol\":928:947  counter[msg.sender] */\n      0xffffffffffffffffffffffffffffffffffffffff\n      and\n      0xffffffffffffffffffffffffffffffffffffffff\n      and\n      dup2\n      mstore\n      0x20\n      add\n      swap1\n      dup2\n      mstore\n      0x20\n      add\n      0x00\n      keccak256\n      0x00\n        /* \"ToDoApp.sol\":928:949  counter[msg.sender]++ */\n      dup2\n      sload\n      dup1\n      swap3\n      swap2\n      swap1\n      tag_34\n      swap1\n      tag_35\n      jump\t// in\n    tag_34:\n      swap2\n      swap1\n      pop\n      sstore\n      pop\n        /* \"ToDoApp.sol\":1002:1007  todos */\n      0x00\n        /* \"ToDoApp.sol\":1002:1019  todos[msg.sender] */\n      dup1\n        /* \"ToDoApp.sol\":1008:1018  msg.sender */\n      caller\n        /* \"ToDoApp.sol\":1002:1019  todos[msg.sender] */\n      0xffffffffffffffffffffffffffffffffffffffff\n      and\n      0xffffffffffffffffffffffffffffffffffffffff\n      and\n      dup2\n      mstore\n      0x20\n      add\n      swap1\n      dup2\n      mstore\n      0x20\n      add\n      0x00\n      keccak256\n        /* \"ToDoApp.sol\":1002:1040  todos[msg.sender][counter[msg.sender]] */\n      0x00\n        /* \"ToDoApp.sol\":1020:1027  counter */\n      0x01\n        /* \"ToDoApp.sol\":1020:1039  counter[msg.sender] */\n      0x00\n        /* \"ToDoApp.sol\":1028:1038  msg.sender */\n      caller\n        /* \"ToDoApp.sol\":1020:1039  counter[msg.sender] */\n      0xffffffffffffffffffffffffffffffffffffffff\n      and\n      0xffffffffffffffffffffffffffffffffffffffff\n      and\n      dup2\n      mstore\n      0x20\n      add\n      swap1\n      dup2\n      mstore\n      0x20\n      add\n      0x00\n      keccak256\n      sload\n        /* \"ToDoApp.sol\":1002:1040  todos[msg.sender][counter[msg.sender]] */\n      dup2\n      mstore\n      0x20\n      add\n      swap1\n      dup2\n      mstore\n      0x20\n      add\n      0x00\n      keccak256\n        /* \"ToDoApp.sol\":1059:1213  ToDo({... */\n      mload(0x40)\n      dup1\n      0x80\n      add\n      0x40\n      mstore\n      dup1\n        /* \"ToDoApp.sol\":1086:1093  counter */\n      0x01\n        /* \"ToDoApp.sol\":1086:1105  counter[msg.sender] */\n      0x00\n        /* \"ToDoApp.sol\":1094:1104  msg.sender */\n      caller\n        /* \"ToDoApp.sol\":1086:1105  counter[msg.sender] */\n      0xffffffffffffffffffffffffffffffffffffffff\n      and\n      0xffffffffffffffffffffffffffffffffffffffff\n      and\n      dup2\n      mstore\n      0x20\n      add\n      swap1\n      dup2\n      mstore\n      0x20\n      add\n      0x00\n      keccak256\n      sload\n        /* \"ToDoApp.sol\":1059:1213  ToDo({... */\n      dup2\n      mstore\n      0x20\n      add\n        /* \"ToDoApp.sol\":1129:1133  name */\n      dup5\n        /* \"ToDoApp.sol\":1059:1213  ToDo({... */\n      dup2\n      mstore\n      0x20\n      add\n        /* \"ToDoApp.sol\":1160:1167  content */\n      dup4\n        /* \"ToDoApp.sol\":1059:1213  ToDo({... */\n      dup2\n      mstore\n      0x20\n      add\n        /* \"ToDoApp.sol\":1193:1198  false */\n      0x00\n        /* \"ToDoApp.sol\":1059:1213  ToDo({... */\n      iszero\n      iszero\n      dup2\n      mstore\n      pop\n        /* \"ToDoApp.sol\":1002:1223  todos[msg.sender][counter[msg.sender]].push(... */\n      swap1\n      dup1\n      0x01\n      dup2\n      sload\n      add\n      dup1\n      dup3\n      sstore\n      dup1\n      swap2\n      pop\n      pop\n      0x01\n      swap1\n      sub\n      swap1\n      0x00\n      mstore\n      keccak256(0x00, 0x20)\n      swap1\n      0x04\n      mul\n      add\n      0x00\n      swap1\n      swap2\n      swap1\n      swap2\n      swap1\n      swap2\n      pop\n      0x00\n      dup3\n      add\n      mload\n      dup2\n      0x00\n      add\n      sstore\n      0x20\n      dup3\n      add\n      mload\n      dup2\n      0x01\n      add\n      swap1\n      dup1\n      mload\n      swap1\n      0x20\n      add\n      swap1\n      tag_37\n      swap3\n      swap2\n      swap1\n      tag_38\n      jump\t// in\n    tag_37:\n      pop\n      0x40\n      dup3\n      add\n      mload\n      dup2\n      0x02\n      add\n      swap1\n      dup1\n      mload\n      swap1\n      0x20\n      add\n      swap1\n      tag_39\n      swap3\n      swap2\n      swap1\n      tag_38\n      jump\t// in\n    tag_39:\n      pop\n      0x60\n      dup3\n      add\n      mload\n      dup2\n      0x03\n      add\n      exp(0x0100, 0x00)\n      dup2\n      sload\n      dup2\n      0xff\n      mul\n      not\n      and\n      swap1\n      dup4\n      iszero\n      iszero\n      mul\n      or\n      swap1\n      sstore\n      pop\n      pop\n      pop\n        /* \"ToDoApp.sol\":815:1230  function addTodo(string memory name, string memory content) public {... */\n      pop\n      pop\n      jump\t// out\n        /* \"ToDoApp.sol\":353:412  mapping(address => mapping(uint256 => ToDo[])) public todos */\n    tag_15:\n      mstore(0x20, 0x00)\n      dup3\n      0x00\n      mstore\n      mstore(0x20, keccak256(0x00, 0x40))\n      dup2\n      0x00\n      mstore\n      keccak256(0x00, 0x40)\n      dup2\n      dup2\n      sload\n      dup2\n      lt\n      tag_40\n      jumpi\n      0x00\n      dup1\n      revert\n    tag_40:\n      swap1\n      0x00\n      mstore\n      keccak256(0x00, 0x20)\n      swap1\n      0x04\n      mul\n      add\n      0x00\n      swap3\n      pop\n      swap3\n      pop\n      pop\n      pop\n      dup1\n      0x00\n      add\n      sload\n      swap1\n      dup1\n      0x01\n      add\n      dup1\n      sload\n      tag_42\n      swap1\n      tag_43\n      jump\t// in\n    tag_42:\n      dup1\n      0x1f\n      add\n      0x20\n      dup1\n      swap2\n      div\n      mul\n      0x20\n      add\n      mload(0x40)\n      swap1\n      dup2\n      add\n      0x40\n      mstore\n      dup1\n      swap3\n      swap2\n      swap1\n      dup2\n      dup2\n      mstore\n      0x20\n      add\n      dup3\n      dup1\n      sload\n      tag_44\n      swap1\n      tag_43\n      jump\t// in\n    tag_44:\n      dup1\n      iszero\n      tag_45\n      jumpi\n      dup1\n      0x1f\n      lt\n      tag_46\n      jumpi\n      0x0100\n      dup1\n      dup4\n      sload\n      div\n      mul\n      dup4\n      mstore\n      swap2\n      0x20\n      add\n      swap2\n      jump(tag_45)\n    tag_46:\n      dup3\n      add\n      swap2\n      swap1\n      0x00\n      mstore\n      keccak256(0x00, 0x20)\n      swap1\n    tag_47:\n      dup2\n      sload\n      dup2\n      mstore\n      swap1\n      0x01\n      add\n      swap1\n      0x20\n      add\n      dup1\n      dup4\n      gt\n      tag_47\n      jumpi\n      dup3\n      swap1\n      sub\n      0x1f\n      and\n      dup3\n      add\n      swap2\n    tag_45:\n      pop\n      pop\n      pop\n      pop\n      pop\n      swap1\n      dup1\n      0x02\n      add\n      dup1\n      sload\n      tag_48\n      swap1\n      tag_43\n      jump\t// in\n    tag_48:\n      dup1\n      0x1f\n      add\n      0x20\n      dup1\n      swap2\n      div\n      mul\n      0x20\n      add\n      mload(0x40)\n      swap1\n      dup2\n      add\n      0x40\n      mstore\n      dup1\n      swap3\n      swap2\n      swap1\n      dup2\n      dup2\n      mstore\n      0x20\n      add\n      dup3\n      dup1\n      sload\n      tag_49\n      swap1\n      tag_43\n      jump\t// in\n    tag_49:\n      dup1\n      iszero\n      tag_50\n      jumpi\n      dup1\n      0x1f\n      lt\n      tag_51\n      jumpi\n      0x0100\n      dup1\n      dup4\n      sload\n      div\n      mul\n      dup4\n      mstore\n      swap2\n      0x20\n      add\n      swap2\n      jump(tag_50)\n    tag_51:\n      dup3\n      add\n      swap2\n      swap1\n      0x00\n      mstore\n      keccak256(0x00, 0x20)\n      swap1\n    tag_52:\n      dup2\n      sload\n      dup2\n      mstore\n      swap1\n      0x01\n      add\n      swap1\n      0x20\n      add\n      dup1\n      dup4\n      gt\n      tag_52\n      jumpi\n      dup3\n      swap1\n      sub\n      0x1f\n      and\n      dup3\n      add\n      swap2\n    tag_50:\n      pop\n      pop\n      pop\n      pop\n      pop\n      swap1\n      dup1\n      0x03\n      add\n      0x00\n      swap1\n      sload\n      swap1\n      0x0100\n      exp\n      swap1\n      div\n      0xff\n      and\n      swap1\n      pop\n      dup5\n      jump\t// out\n        /* \"ToDoApp.sol\":418:460  mapping(address => uint256) public counter */\n    tag_21:\n      mstore(0x20, 0x01)\n      dup1\n      0x00\n      mstore\n      keccak256(0x00, 0x40)\n      0x00\n      swap2\n      pop\n      swap1\n      pop\n      sload\n      dup2\n      jump\t// out\n        /* \"ToDoApp.sol\":1921:2015  function getAmount() public view returns (uint256) {... */\n    tag_25:\n        /* \"ToDoApp.sol\":1963:1970  uint256 */\n      0x00\n        /* \"ToDoApp.sol\":1989:1996  counter */\n      0x01\n        /* \"ToDoApp.sol\":1989:2008  counter[msg.sender] */\n      0x00\n        /* \"ToDoApp.sol\":1997:2007  msg.sender */\n      caller\n        /* \"ToDoApp.sol\":1989:2008  counter[msg.sender] */\n      0xffffffffffffffffffffffffffffffffffffffff\n      and\n      0xffffffffffffffffffffffffffffffffffffffff\n      and\n      dup2\n      mstore\n      0x20\n      add\n      swap1\n      dup2\n      mstore\n      0x20\n      add\n      0x00\n      keccak256\n      sload\n        /* \"ToDoApp.sol\":1982:2008  return counter[msg.sender] */\n      swap1\n      pop\n        /* \"ToDoApp.sol\":1921:2015  function getAmount() public view returns (uint256) {... */\n      swap1\n      jump\t// out\n        /* \"ToDoApp.sol\":1305:1503  function getTodo(uint256 id) public view todoCount returns (ToDo[] memory) {... */\n    tag_30:\n        /* \"ToDoApp.sol\":1365:1378  ToDo[] memory */\n      0x60\n        /* \"ToDoApp.sol\":665:666  0 */\n      0x00\n        /* \"ToDoApp.sol\":643:650  counter */\n      0x01\n        /* \"ToDoApp.sol\":643:662  counter[msg.sender] */\n      0x00\n        /* \"ToDoApp.sol\":651:661  msg.sender */\n      caller\n        /* \"ToDoApp.sol\":643:662  counter[msg.sender] */\n      0xffffffffffffffffffffffffffffffffffffffff\n      and\n      0xffffffffffffffffffffffffffffffffffffffff\n      and\n      dup2\n      mstore\n      0x20\n      add\n      swap1\n      dup2\n      mstore\n      0x20\n      add\n      0x00\n      keccak256\n      sload\n        /* \"ToDoApp.sol\":643:666  counter[msg.sender] > 0 */\n      gt\n        /* \"ToDoApp.sol\":635:686  require(counter[msg.sender] > 0, \"No todos found.\") */\n      tag_55\n      jumpi\n      mload(0x40)\n      0x08c379a000000000000000000000000000000000000000000000000000000000\n      dup2\n      mstore\n      0x04\n      add\n      tag_56\n      swap1\n      tag_57\n      jump\t// in\n    tag_56:\n      mload(0x40)\n      dup1\n      swap2\n      sub\n      swap1\n      revert\n    tag_55:\n        /* \"ToDoApp.sol\":1404:1411  counter */\n      0x01\n        /* \"ToDoApp.sol\":1404:1423  counter[msg.sender] */\n      0x00\n        /* \"ToDoApp.sol\":1412:1422  msg.sender */\n      caller\n        /* \"ToDoApp.sol\":1404:1423  counter[msg.sender] */\n      0xffffffffffffffffffffffffffffffffffffffff\n      and\n      0xffffffffffffffffffffffffffffffffffffffff\n      and\n      dup2\n      mstore\n      0x20\n      add\n      swap1\n      dup2\n      mstore\n      0x20\n      add\n      0x00\n      keccak256\n      sload\n        /* \"ToDoApp.sol\":1398:1400  id */\n      dup3\n        /* \"ToDoApp.sol\":1398:1423  id <= counter[msg.sender] */\n      gt\n      iszero\n        /* \"ToDoApp.sol\":1390:1458  require(id <= counter[msg.sender], \"Todo with current ID not found\") */\n      tag_59\n      jumpi\n      mload(0x40)\n      0x08c379a000000000000000000000000000000000000000000000000000000000\n      dup2\n      mstore\n      0x04\n      add\n      tag_60\n      swap1\n      tag_61\n      jump\t// in\n    tag_60:\n      mload(0x40)\n      dup1\n      swap2\n      sub\n      swap1\n      revert\n    tag_59:\n        /* \"ToDoApp.sol\":1475:1480  todos */\n      0x00\n        /* \"ToDoApp.sol\":1475:1492  todos[msg.sender] */\n      dup1\n        /* \"ToDoApp.sol\":1481:1491  msg.sender */\n      caller\n        /* \"ToDoApp.sol\":1475:1492  todos[msg.sender] */\n      0xffffffffffffffffffffffffffffffffffffffff\n      and\n      0xffffffffffffffffffffffffffffffffffffffff\n      and\n      dup2\n      mstore\n      0x20\n      add\n      swap1\n      dup2\n      mstore\n      0x20\n      add\n      0x00\n      keccak256\n        /* \"ToDoApp.sol\":1475:1496  todos[msg.sender][id] */\n      0x00\n        /* \"ToDoApp.sol\":1493:1495  id */\n      dup4\n        /* \"ToDoApp.sol\":1475:1496  todos[msg.sender][id] */\n      dup2\n      mstore\n      0x20\n      add\n      swap1\n      dup2\n      mstore\n      0x20\n      add\n      0x00\n      keccak256\n        /* \"ToDoApp.sol\":1468:1496  return todos[msg.sender][id] */\n      dup1\n      sload\n      dup1\n      0x20\n      mul\n      0x20\n      add\n      mload(0x40)\n      swap1\n      dup2\n      add\n      0x40\n      mstore\n      dup1\n      swap3\n      swap2\n      swap1\n      dup2\n      dup2\n      mstore\n      0x20\n      add\n      0x00\n      swap1\n    tag_62:\n      dup3\n      dup3\n      lt\n      iszero\n      tag_63\n      jumpi\n      dup4\n      dup3\n      swap1\n      0x00\n      mstore\n      keccak256(0x00, 0x20)\n      swap1\n      0x04\n      mul\n      add\n      mload(0x40)\n      dup1\n      0x80\n      add\n      0x40\n      mstore\n      swap1\n      dup2\n      0x00\n      dup3\n      add\n      sload\n      dup2\n      mstore\n      0x20\n      add\n      0x01\n      dup3\n      add\n      dup1\n      sload\n      tag_65\n      swap1\n      tag_43\n      jump\t// in\n    tag_65:\n      dup1\n      0x1f\n      add\n      0x20\n      dup1\n      swap2\n      div\n      mul\n      0x20\n      add\n      mload(0x40)\n      swap1\n      dup2\n      add\n      0x40\n      mstore\n      dup1\n      swap3\n      swap2\n      swap1\n      dup2\n      dup2\n      mstore\n      0x20\n      add\n      dup3\n      dup1\n      sload\n      tag_66\n      swap1\n      tag_43\n      jump\t// in\n    tag_66:\n      dup1\n      iszero\n      tag_67\n      jumpi\n      dup1\n      0x1f\n      lt\n      tag_68\n      jumpi\n      0x0100\n      dup1\n      dup4\n      sload\n      div\n      mul\n      dup4\n      mstore\n      swap2\n      0x20\n      add\n      swap2\n      jump(tag_67)\n    tag_68:\n      dup3\n      add\n      swap2\n      swap1\n      0x00\n      mstore\n      keccak256(0x00, 0x20)\n      swap1\n    tag_69:\n      dup2\n      sload\n      dup2\n      mstore\n      swap1\n      0x01\n      add\n      swap1\n      0x20\n      add\n      dup1\n      dup4\n      gt\n      tag_69\n      jumpi\n      dup3\n      swap1\n      sub\n      0x1f\n      and\n      dup3\n      add\n      swap2\n    tag_67:\n      pop\n      pop\n      pop\n      pop\n      pop\n      dup2\n      mstore\n      0x20\n      add\n      0x02\n      dup3\n      add\n      dup1\n      sload\n      tag_70\n      swap1\n      tag_43\n      jump\t// in\n    tag_70:\n      dup1\n      0x1f\n      add\n      0x20\n      dup1\n      swap2\n      div\n      mul\n      0x20\n      add\n      mload(0x40)\n      swap1\n      dup2\n      add\n      0x40\n      mstore\n      dup1\n      swap3\n      swap2\n      swap1\n      dup2\n      dup2\n      mstore\n      0x20\n      add\n      dup3\n      dup1\n      sload\n      tag_71\n      swap1\n      tag_43\n      jump\t// in\n    tag_71:\n      dup1\n      iszero\n      tag_72\n      jumpi\n      dup1\n      0x1f\n      lt\n      tag_73\n      jumpi\n      0x0100\n      dup1\n      dup4\n      sload\n      div\n      mul\n      dup4\n      mstore\n      swap2\n      0x20\n      add\n      swap2\n      jump(tag_72)\n    tag_73:\n      dup3\n      add\n      swap2\n      swap1\n      0x00\n      mstore\n      keccak256(0x00, 0x20)\n      swap1\n    tag_74:\n      dup2\n      sload\n      dup2\n      mstore\n      swap1\n      0x01\n      add\n      swap1\n      0x20\n      add\n      dup1\n      dup4\n      gt\n      tag_74\n      jumpi\n      dup3\n      swap1\n      sub\n      0x1f\n      and\n      dup3\n      add\n      swap2\n    tag_72:\n      pop\n      pop\n      pop\n      pop\n      pop\n      dup2\n      mstore\n      0x20\n      add\n      0x03\n      dup3\n      add\n      0x00\n      swap1\n      sload\n      swap1\n      0x0100\n      exp\n      swap1\n      div\n      0xff\n      and\n      iszero\n      iszero\n      iszero\n      iszero\n      dup2\n      mstore\n      pop\n      pop\n      dup2\n      mstore\n      0x20\n      add\n      swap1\n      0x01\n      add\n      swap1\n      jump(tag_62)\n    tag_63:\n      pop\n      pop\n      pop\n      pop\n      swap1\n      pop\n        /* \"ToDoApp.sol\":1305:1503  function getTodo(uint256 id) public view todoCount returns (ToDo[] memory) {... */\n      swap2\n      swap1\n      pop\n      jump\t// out\n    tag_38:\n      dup3\n      dup1\n      sload\n      tag_75\n      swap1\n      tag_43\n      jump\t// in\n    tag_75:\n      swap1\n      0x00\n      mstore\n      keccak256(0x00, 0x20)\n      swap1\n      0x1f\n      add\n      0x20\n      swap1\n      div\n      dup2\n      add\n      swap3\n      dup3\n      tag_77\n      jumpi\n      0x00\n      dup6\n      sstore\n      jump(tag_76)\n    tag_77:\n      dup3\n      0x1f\n      lt\n      tag_78\n      jumpi\n      dup1\n      mload\n      not(0xff)\n      and\n      dup4\n      dup1\n      add\n      or\n      dup6\n      sstore\n      jump(tag_76)\n    tag_78:\n      dup3\n      dup1\n      add\n      0x01\n      add\n      dup6\n      sstore\n      dup3\n      iszero\n      tag_76\n      jumpi\n      swap2\n      dup3\n      add\n    tag_79:\n      dup3\n      dup2\n      gt\n      iszero\n      tag_80\n      jumpi\n      dup3\n      mload\n      dup3\n      sstore\n      swap2\n      0x20\n      add\n      swap2\n      swap1\n      0x01\n      add\n      swap1\n      jump(tag_79)\n    tag_80:\n    tag_76:\n      pop\n      swap1\n      pop\n      tag_81\n      swap2\n      swap1\n      tag_82\n      jump\t// in\n    tag_81:\n      pop\n      swap1\n      jump\t// out\n    tag_82:\n    tag_83:\n      dup1\n      dup3\n      gt\n      iszero\n      tag_84\n      jumpi\n      0x00\n      dup2\n      0x00\n      swap1\n      sstore\n      pop\n      0x01\n      add\n      jump(tag_83)\n    tag_84:\n      pop\n      swap1\n      jump\t// out\n        /* \"#utility.yul\":7:419   */\n    tag_86:\n        /* \"#utility.yul\":85:90   */\n      0x00\n        /* \"#utility.yul\":110:176   */\n      tag_88\n        /* \"#utility.yul\":126:175   */\n      tag_89\n        /* \"#utility.yul\":168:174   */\n      dup5\n        /* \"#utility.yul\":126:175   */\n      tag_90\n      jump\t// in\n    tag_89:\n        /* \"#utility.yul\":110:176   */\n      tag_91\n      jump\t// in\n    tag_88:\n        /* \"#utility.yul\":101:176   */\n      swap1\n      pop\n        /* \"#utility.yul\":199:205   */\n      dup3\n        /* \"#utility.yul\":192:197   */\n      dup2\n        /* \"#utility.yul\":185:206   */\n      mstore\n        /* \"#utility.yul\":237:241   */\n      0x20\n        /* \"#utility.yul\":230:235   */\n      dup2\n        /* \"#utility.yul\":226:242   */\n      add\n        /* \"#utility.yul\":275:278   */\n      dup5\n        /* \"#utility.yul\":266:272   */\n      dup5\n        /* \"#utility.yul\":261:264   */\n      dup5\n        /* \"#utility.yul\":257:273   */\n      add\n        /* \"#utility.yul\":254:279   */\n      gt\n        /* \"#utility.yul\":251:363   */\n      iszero\n      tag_92\n      jumpi\n        /* \"#utility.yul\":282:361   */\n      tag_93\n      tag_94\n      jump\t// in\n    tag_93:\n        /* \"#utility.yul\":251:363   */\n    tag_92:\n        /* \"#utility.yul\":372:413   */\n      tag_95\n        /* \"#utility.yul\":406:412   */\n      dup5\n        /* \"#utility.yul\":401:404   */\n      dup3\n        /* \"#utility.yul\":396:399   */\n      dup6\n        /* \"#utility.yul\":372:413   */\n      tag_96\n      jump\t// in\n    tag_95:\n        /* \"#utility.yul\":91:419   */\n      pop\n        /* \"#utility.yul\":7:419   */\n      swap4\n      swap3\n      pop\n      pop\n      pop\n      jump\t// out\n        /* \"#utility.yul\":425:564   */\n    tag_97:\n        /* \"#utility.yul\":471:476   */\n      0x00\n        /* \"#utility.yul\":509:515   */\n      dup2\n        /* \"#utility.yul\":496:516   */\n      calldataload\n        /* \"#utility.yul\":487:516   */\n      swap1\n      pop\n        /* \"#utility.yul\":525:558   */\n      tag_99\n        /* \"#utility.yul\":552:557   */\n      dup2\n        /* \"#utility.yul\":525:558   */\n      tag_100\n      jump\t// in\n    tag_99:\n        /* \"#utility.yul\":425:564   */\n      swap3\n      swap2\n      pop\n      pop\n      jump\t// out\n        /* \"#utility.yul\":584:924   */\n    tag_101:\n        /* \"#utility.yul\":640:645   */\n      0x00\n        /* \"#utility.yul\":689:692   */\n      dup3\n        /* \"#utility.yul\":682:686   */\n      0x1f\n        /* \"#utility.yul\":674:680   */\n      dup4\n        /* \"#utility.yul\":670:687   */\n      add\n        /* \"#utility.yul\":666:693   */\n      slt\n        /* \"#utility.yul\":656:778   */\n      tag_103\n      jumpi\n        /* \"#utility.yul\":697:776   */\n      tag_104\n      tag_105\n      jump\t// in\n    tag_104:\n        /* \"#utility.yul\":656:778   */\n    tag_103:\n        /* \"#utility.yul\":814:820   */\n      dup2\n        /* \"#utility.yul\":801:821   */\n      calldataload\n        /* \"#utility.yul\":839:918   */\n      tag_106\n        /* \"#utility.yul\":914:917   */\n      dup5\n        /* \"#utility.yul\":906:912   */\n      dup3\n        /* \"#utility.yul\":899:903   */\n      0x20\n        /* \"#utility.yul\":891:897   */\n      dup7\n        /* \"#utility.yul\":887:904   */\n      add\n        /* \"#utility.yul\":839:918   */\n      tag_86\n      jump\t// in\n    tag_106:\n        /* \"#utility.yul\":830:918   */\n      swap2\n      pop\n        /* \"#utility.yul\":646:924   */\n      pop\n        /* \"#utility.yul\":584:924   */\n      swap3\n      swap2\n      pop\n      pop\n      jump\t// out\n        /* \"#utility.yul\":930:1069   */\n    tag_107:\n        /* \"#utility.yul\":976:981   */\n      0x00\n        /* \"#utility.yul\":1014:1020   */\n      dup2\n        /* \"#utility.yul\":1001:1021   */\n      calldataload\n        /* \"#utility.yul\":992:1021   */\n      swap1\n      pop\n        /* \"#utility.yul\":1030:1063   */\n      tag_109\n        /* \"#utility.yul\":1057:1062   */\n      dup2\n        /* \"#utility.yul\":1030:1063   */\n      tag_110\n      jump\t// in\n    tag_109:\n        /* \"#utility.yul\":930:1069   */\n      swap3\n      swap2\n      pop\n      pop\n      jump\t// out\n        /* \"#utility.yul\":1075:1404   */\n    tag_20:\n        /* \"#utility.yul\":1134:1140   */\n      0x00\n        /* \"#utility.yul\":1183:1185   */\n      0x20\n        /* \"#utility.yul\":1171:1180   */\n      dup3\n        /* \"#utility.yul\":1162:1169   */\n      dup5\n        /* \"#utility.yul\":1158:1181   */\n      sub\n        /* \"#utility.yul\":1154:1186   */\n      slt\n        /* \"#utility.yul\":1151:1270   */\n      iszero\n      tag_112\n      jumpi\n        /* \"#utility.yul\":1189:1268   */\n      tag_113\n      tag_114\n      jump\t// in\n    tag_113:\n        /* \"#utility.yul\":1151:1270   */\n    tag_112:\n        /* \"#utility.yul\":1309:1310   */\n      0x00\n        /* \"#utility.yul\":1334:1387   */\n      tag_115\n        /* \"#utility.yul\":1379:1386   */\n      dup5\n        /* \"#utility.yul\":1370:1376   */\n      dup3\n        /* \"#utility.yul\":1359:1368   */\n      dup6\n        /* \"#utility.yul\":1355:1377   */\n      add\n        /* \"#utility.yul\":1334:1387   */\n      tag_97\n      jump\t// in\n    tag_115:\n        /* \"#utility.yul\":1324:1387   */\n      swap2\n      pop\n        /* \"#utility.yul\":1280:1397   */\n      pop\n        /* \"#utility.yul\":1075:1404   */\n      swap3\n      swap2\n      pop\n      pop\n      jump\t// out\n        /* \"#utility.yul\":1410:2029   */\n    tag_14:\n        /* \"#utility.yul\":1487:1493   */\n      0x00\n        /* \"#utility.yul\":1495:1501   */\n      dup1\n        /* \"#utility.yul\":1503:1509   */\n      0x00\n        /* \"#utility.yul\":1552:1554   */\n      0x60\n        /* \"#utility.yul\":1540:1549   */\n      dup5\n        /* \"#utility.yul\":1531:1538   */\n      dup7\n        /* \"#utility.yul\":1527:1550   */\n      sub\n        /* \"#utility.yul\":1523:1555   */\n      slt\n        /* \"#utility.yul\":1520:1639   */\n      iszero\n      tag_117\n      jumpi\n        /* \"#utility.yul\":1558:1637   */\n      tag_118\n      tag_114\n      jump\t// in\n    tag_118:\n        /* \"#utility.yul\":1520:1639   */\n    tag_117:\n        /* \"#utility.yul\":1678:1679   */\n      0x00\n        /* \"#utility.yul\":1703:1756   */\n      tag_119\n        /* \"#utility.yul\":1748:1755   */\n      dup7\n        /* \"#utility.yul\":1739:1745   */\n      dup3\n        /* \"#utility.yul\":1728:1737   */\n      dup8\n        /* \"#utility.yul\":1724:1746   */\n      add\n        /* \"#utility.yul\":1703:1756   */\n      tag_97\n      jump\t// in\n    tag_119:\n        /* \"#utility.yul\":1693:1756   */\n      swap4\n      pop\n        /* \"#utility.yul\":1649:1766   */\n      pop\n        /* \"#utility.yul\":1805:1807   */\n      0x20\n        /* \"#utility.yul\":1831:1884   */\n      tag_120\n        /* \"#utility.yul\":1876:1883   */\n      dup7\n        /* \"#utility.yul\":1867:1873   */\n      dup3\n        /* \"#utility.yul\":1856:1865   */\n      dup8\n        /* \"#utility.yul\":1852:1874   */\n      add\n        /* \"#utility.yul\":1831:1884   */\n      tag_107\n      jump\t// in\n    tag_120:\n        /* \"#utility.yul\":1821:1884   */\n      swap3\n      pop\n        /* \"#utility.yul\":1776:1894   */\n      pop\n        /* \"#utility.yul\":1933:1935   */\n      0x40\n        /* \"#utility.yul\":1959:2012   */\n      tag_121\n        /* \"#utility.yul\":2004:2011   */\n      dup7\n        /* \"#utility.yul\":1995:2001   */\n      dup3\n        /* \"#utility.yul\":1984:1993   */\n      dup8\n        /* \"#utility.yul\":1980:2002   */\n      add\n        /* \"#utility.yul\":1959:2012   */\n      tag_107\n      jump\t// in\n    tag_121:\n        /* \"#utility.yul\":1949:2012   */\n      swap2\n      pop\n        /* \"#utility.yul\":1904:2022   */\n      pop\n        /* \"#utility.yul\":1410:2029   */\n      swap3\n      pop\n      swap3\n      pop\n      swap3\n      jump\t// out\n        /* \"#utility.yul\":2035:2869   */\n    tag_10:\n        /* \"#utility.yul\":2123:2129   */\n      0x00\n        /* \"#utility.yul\":2131:2137   */\n      dup1\n        /* \"#utility.yul\":2180:2182   */\n      0x40\n        /* \"#utility.yul\":2168:2177   */\n      dup4\n        /* \"#utility.yul\":2159:2166   */\n      dup6\n        /* \"#utility.yul\":2155:2178   */\n      sub\n        /* \"#utility.yul\":2151:2183   */\n      slt\n        /* \"#utility.yul\":2148:2267   */\n      iszero\n      tag_123\n      jumpi\n        /* \"#utility.yul\":2186:2265   */\n      tag_124\n      tag_114\n      jump\t// in\n    tag_124:\n        /* \"#utility.yul\":2148:2267   */\n    tag_123:\n        /* \"#utility.yul\":2334:2335   */\n      0x00\n        /* \"#utility.yul\":2323:2332   */\n      dup4\n        /* \"#utility.yul\":2319:2336   */\n      add\n        /* \"#utility.yul\":2306:2337   */\n      calldataload\n        /* \"#utility.yul\":2364:2382   */\n      0xffffffffffffffff\n        /* \"#utility.yul\":2356:2362   */\n      dup2\n        /* \"#utility.yul\":2353:2383   */\n      gt\n        /* \"#utility.yul\":2350:2467   */\n      iszero\n      tag_125\n      jumpi\n        /* \"#utility.yul\":2386:2465   */\n      tag_126\n      tag_127\n      jump\t// in\n    tag_126:\n        /* \"#utility.yul\":2350:2467   */\n    tag_125:\n        /* \"#utility.yul\":2491:2554   */\n      tag_128\n        /* \"#utility.yul\":2546:2553   */\n      dup6\n        /* \"#utility.yul\":2537:2543   */\n      dup3\n        /* \"#utility.yul\":2526:2535   */\n      dup7\n        /* \"#utility.yul\":2522:2544   */\n      add\n        /* \"#utility.yul\":2491:2554   */\n      tag_101\n      jump\t// in\n    tag_128:\n        /* \"#utility.yul\":2481:2554   */\n      swap3\n      pop\n        /* \"#utility.yul\":2277:2564   */\n      pop\n        /* \"#utility.yul\":2631:2633   */\n      0x20\n        /* \"#utility.yul\":2620:2629   */\n      dup4\n        /* \"#utility.yul\":2616:2634   */\n      add\n        /* \"#utility.yul\":2603:2635   */\n      calldataload\n        /* \"#utility.yul\":2662:2680   */\n      0xffffffffffffffff\n        /* \"#utility.yul\":2654:2660   */\n      dup2\n        /* \"#utility.yul\":2651:2681   */\n      gt\n        /* \"#utility.yul\":2648:2765   */\n      iszero\n      tag_129\n      jumpi\n        /* \"#utility.yul\":2684:2763   */\n      tag_130\n      tag_127\n      jump\t// in\n    tag_130:\n        /* \"#utility.yul\":2648:2765   */\n    tag_129:\n        /* \"#utility.yul\":2789:2852   */\n      tag_131\n        /* \"#utility.yul\":2844:2851   */\n      dup6\n        /* \"#utility.yul\":2835:2841   */\n      dup3\n        /* \"#utility.yul\":2824:2833   */\n      dup7\n        /* \"#utility.yul\":2820:2842   */\n      add\n        /* \"#utility.yul\":2789:2852   */\n      tag_101\n      jump\t// in\n    tag_131:\n        /* \"#utility.yul\":2779:2852   */\n      swap2\n      pop\n        /* \"#utility.yul\":2574:2862   */\n      pop\n        /* \"#utility.yul\":2035:2869   */\n      swap3\n      pop\n      swap3\n      swap1\n      pop\n      jump\t// out\n        /* \"#utility.yul\":2875:3204   */\n    tag_29:\n        /* \"#utility.yul\":2934:2940   */\n      0x00\n        /* \"#utility.yul\":2983:2985   */\n      0x20\n        /* \"#utility.yul\":2971:2980   */\n      dup3\n        /* \"#utility.yul\":2962:2969   */\n      dup5\n        /* \"#utility.yul\":2958:2981   */\n      sub\n        /* \"#utility.yul\":2954:2986   */\n      slt\n        /* \"#utility.yul\":2951:3070   */\n      iszero\n      tag_133\n      jumpi\n        /* \"#utility.yul\":2989:3068   */\n      tag_134\n      tag_114\n      jump\t// in\n    tag_134:\n        /* \"#utility.yul\":2951:3070   */\n    tag_133:\n        /* \"#utility.yul\":3109:3110   */\n      0x00\n        /* \"#utility.yul\":3134:3187   */\n      tag_135\n        /* \"#utility.yul\":3179:3186   */\n      dup5\n        /* \"#utility.yul\":3170:3176   */\n      dup3\n        /* \"#utility.yul\":3159:3168   */\n      dup6\n        /* \"#utility.yul\":3155:3177   */\n      add\n        /* \"#utility.yul\":3134:3187   */\n      tag_107\n      jump\t// in\n    tag_135:\n        /* \"#utility.yul\":3124:3187   */\n      swap2\n      pop\n        /* \"#utility.yul\":3080:3197   */\n      pop\n        /* \"#utility.yul\":2875:3204   */\n      swap3\n      swap2\n      pop\n      pop\n      jump\t// out\n        /* \"#utility.yul\":3210:3446   */\n    tag_136:\n        /* \"#utility.yul\":3319:3329   */\n      0x00\n        /* \"#utility.yul\":3354:3440   */\n      tag_138\n        /* \"#utility.yul\":3436:3439   */\n      dup4\n        /* \"#utility.yul\":3428:3434   */\n      dup4\n        /* \"#utility.yul\":3354:3440   */\n      tag_139\n      jump\t// in\n    tag_138:\n        /* \"#utility.yul\":3340:3440   */\n      swap1\n      pop\n        /* \"#utility.yul\":3210:3446   */\n      swap3\n      swap2\n      pop\n      pop\n      jump\t// out\n        /* \"#utility.yul\":3506:4577   */\n    tag_140:\n        /* \"#utility.yul\":3665:3668   */\n      0x00\n        /* \"#utility.yul\":3694:3768   */\n      tag_142\n        /* \"#utility.yul\":3762:3767   */\n      dup3\n        /* \"#utility.yul\":3694:3768   */\n      tag_143\n      jump\t// in\n    tag_142:\n        /* \"#utility.yul\":3784:3890   */\n      tag_144\n        /* \"#utility.yul\":3883:3889   */\n      dup2\n        /* \"#utility.yul\":3878:3881   */\n      dup6\n        /* \"#utility.yul\":3784:3890   */\n      tag_145\n      jump\t// in\n    tag_144:\n        /* \"#utility.yul\":3777:3890   */\n      swap4\n      pop\n        /* \"#utility.yul\":3916:3919   */\n      dup4\n        /* \"#utility.yul\":3961:3965   */\n      0x20\n        /* \"#utility.yul\":3953:3959   */\n      dup3\n        /* \"#utility.yul\":3949:3966   */\n      mul\n        /* \"#utility.yul\":3944:3947   */\n      dup6\n        /* \"#utility.yul\":3940:3967   */\n      add\n        /* \"#utility.yul\":3991:4067   */\n      tag_146\n        /* \"#utility.yul\":4061:4066   */\n      dup6\n        /* \"#utility.yul\":3991:4067   */\n      tag_147\n      jump\t// in\n    tag_146:\n        /* \"#utility.yul\":4090:4097   */\n      dup1\n        /* \"#utility.yul\":4121:4122   */\n      0x00\n        /* \"#utility.yul\":4106:4532   */\n    tag_148:\n        /* \"#utility.yul\":4131:4137   */\n      dup6\n        /* \"#utility.yul\":4128:4129   */\n      dup2\n        /* \"#utility.yul\":4125:4138   */\n      lt\n        /* \"#utility.yul\":4106:4532   */\n      iszero\n      tag_150\n      jumpi\n        /* \"#utility.yul\":4202:4211   */\n      dup5\n        /* \"#utility.yul\":4196:4200   */\n      dup5\n        /* \"#utility.yul\":4192:4212   */\n      sub\n        /* \"#utility.yul\":4187:4190   */\n      dup10\n        /* \"#utility.yul\":4180:4213   */\n      mstore\n        /* \"#utility.yul\":4253:4259   */\n      dup2\n        /* \"#utility.yul\":4247:4260   */\n      mload\n        /* \"#utility.yul\":4281:4385   */\n      tag_151\n        /* \"#utility.yul\":4380:4384   */\n      dup6\n        /* \"#utility.yul\":4365:4378   */\n      dup3\n        /* \"#utility.yul\":4281:4385   */\n      tag_136\n      jump\t// in\n    tag_151:\n        /* \"#utility.yul\":4273:4385   */\n      swap5\n      pop\n        /* \"#utility.yul\":4408:4488   */\n      tag_152\n        /* \"#utility.yul\":4481:4487   */\n      dup4\n        /* \"#utility.yul\":4408:4488   */\n      tag_153\n      jump\t// in\n    tag_152:\n        /* \"#utility.yul\":4398:4488   */\n      swap3\n      pop\n        /* \"#utility.yul\":4517:4521   */\n      0x20\n        /* \"#utility.yul\":4512:4515   */\n      dup11\n        /* \"#utility.yul\":4508:4522   */\n      add\n        /* \"#utility.yul\":4501:4522   */\n      swap10\n      pop\n        /* \"#utility.yul\":4166:4532   */\n      pop\n        /* \"#utility.yul\":4153:4154   */\n      0x01\n        /* \"#utility.yul\":4150:4151   */\n      dup2\n        /* \"#utility.yul\":4146:4155   */\n      add\n        /* \"#utility.yul\":4141:4155   */\n      swap1\n      pop\n        /* \"#utility.yul\":4106:4532   */\n      jump(tag_148)\n    tag_150:\n        /* \"#utility.yul\":4110:4124   */\n      pop\n        /* \"#utility.yul\":4548:4552   */\n      dup3\n        /* \"#utility.yul\":4541:4552   */\n      swap8\n      pop\n        /* \"#utility.yul\":4568:4571   */\n      dup8\n        /* \"#utility.yul\":4561:4571   */\n      swap6\n      pop\n        /* \"#utility.yul\":3670:4577   */\n      pop\n      pop\n      pop\n      pop\n      pop\n        /* \"#utility.yul\":3506:4577   */\n      swap3\n      swap2\n      pop\n      pop\n      jump\t// out\n        /* \"#utility.yul\":4583:4682   */\n    tag_154:\n        /* \"#utility.yul\":4654:4675   */\n      tag_156\n        /* \"#utility.yul\":4669:4674   */\n      dup2\n        /* \"#utility.yul\":4654:4675   */\n      tag_157\n      jump\t// in\n    tag_156:\n        /* \"#utility.yul\":4649:4652   */\n      dup3\n        /* \"#utility.yul\":4642:4676   */\n      mstore\n        /* \"#utility.yul\":4583:4682   */\n      pop\n      pop\n      jump\t// out\n        /* \"#utility.yul\":4688:4797   */\n    tag_158:\n        /* \"#utility.yul\":4769:4790   */\n      tag_160\n        /* \"#utility.yul\":4784:4789   */\n      dup2\n        /* \"#utility.yul\":4769:4790   */\n      tag_157\n      jump\t// in\n    tag_160:\n        /* \"#utility.yul\":4764:4767   */\n      dup3\n        /* \"#utility.yul\":4757:4791   */\n      mstore\n        /* \"#utility.yul\":4688:4797   */\n      pop\n      pop\n      jump\t// out\n        /* \"#utility.yul\":4803:5147   */\n    tag_161:\n        /* \"#utility.yul\":4881:4884   */\n      0x00\n        /* \"#utility.yul\":4909:4948   */\n      tag_163\n        /* \"#utility.yul\":4942:4947   */\n      dup3\n        /* \"#utility.yul\":4909:4948   */\n      tag_164\n      jump\t// in\n    tag_163:\n        /* \"#utility.yul\":4964:5025   */\n      tag_165\n        /* \"#utility.yul\":5018:5024   */\n      dup2\n        /* \"#utility.yul\":5013:5016   */\n      dup6\n        /* \"#utility.yul\":4964:5025   */\n      tag_166\n      jump\t// in\n    tag_165:\n        /* \"#utility.yul\":4957:5025   */\n      swap4\n      pop\n        /* \"#utility.yul\":5034:5086   */\n      tag_167\n        /* \"#utility.yul\":5079:5085   */\n      dup2\n        /* \"#utility.yul\":5074:5077   */\n      dup6\n        /* \"#utility.yul\":5067:5071   */\n      0x20\n        /* \"#utility.yul\":5060:5065   */\n      dup7\n        /* \"#utility.yul\":5056:5072   */\n      add\n        /* \"#utility.yul\":5034:5086   */\n      tag_168\n      jump\t// in\n    tag_167:\n        /* \"#utility.yul\":5111:5140   */\n      tag_169\n        /* \"#utility.yul\":5133:5139   */\n      dup2\n        /* \"#utility.yul\":5111:5140   */\n      tag_170\n      jump\t// in\n    tag_169:\n        /* \"#utility.yul\":5106:5109   */\n      dup5\n        /* \"#utility.yul\":5102:5141   */\n      add\n        /* \"#utility.yul\":5095:5141   */\n      swap2\n      pop\n        /* \"#utility.yul\":4885:5147   */\n      pop\n        /* \"#utility.yul\":4803:5147   */\n      swap3\n      swap2\n      pop\n      pop\n      jump\t// out\n        /* \"#utility.yul\":5153:5517   */\n    tag_171:\n        /* \"#utility.yul\":5241:5244   */\n      0x00\n        /* \"#utility.yul\":5269:5308   */\n      tag_173\n        /* \"#utility.yul\":5302:5307   */\n      dup3\n        /* \"#utility.yul\":5269:5308   */\n      tag_164\n      jump\t// in\n    tag_173:\n        /* \"#utility.yul\":5324:5395   */\n      tag_174\n        /* \"#utility.yul\":5388:5394   */\n      dup2\n        /* \"#utility.yul\":5383:5386   */\n      dup6\n        /* \"#utility.yul\":5324:5395   */\n      tag_175\n      jump\t// in\n    tag_174:\n        /* \"#utility.yul\":5317:5395   */\n      swap4\n      pop\n        /* \"#utility.yul\":5404:5456   */\n      tag_176\n        /* \"#utility.yul\":5449:5455   */\n      dup2\n        /* \"#utility.yul\":5444:5447   */\n      dup6\n        /* \"#utility.yul\":5437:5441   */\n      0x20\n        /* \"#utility.yul\":5430:5435   */\n      dup7\n        /* \"#utility.yul\":5426:5442   */\n      add\n        /* \"#utility.yul\":5404:5456   */\n      tag_168\n      jump\t// in\n    tag_176:\n        /* \"#utility.yul\":5481:5510   */\n      tag_177\n        /* \"#utility.yul\":5503:5509   */\n      dup2\n        /* \"#utility.yul\":5481:5510   */\n      tag_170\n      jump\t// in\n    tag_177:\n        /* \"#utility.yul\":5476:5479   */\n      dup5\n        /* \"#utility.yul\":5472:5511   */\n      add\n        /* \"#utility.yul\":5465:5511   */\n      swap2\n      pop\n        /* \"#utility.yul\":5245:5517   */\n      pop\n        /* \"#utility.yul\":5153:5517   */\n      swap3\n      swap2\n      pop\n      pop\n      jump\t// out\n        /* \"#utility.yul\":5523:5889   */\n    tag_178:\n        /* \"#utility.yul\":5665:5668   */\n      0x00\n        /* \"#utility.yul\":5686:5753   */\n      tag_180\n        /* \"#utility.yul\":5750:5752   */\n      0x1e\n        /* \"#utility.yul\":5745:5748   */\n      dup4\n        /* \"#utility.yul\":5686:5753   */\n      tag_175\n      jump\t// in\n    tag_180:\n        /* \"#utility.yul\":5679:5753   */\n      swap2\n      pop\n        /* \"#utility.yul\":5762:5855   */\n      tag_181\n        /* \"#utility.yul\":5851:5854   */\n      dup3\n        /* \"#utility.yul\":5762:5855   */\n      tag_182\n      jump\t// in\n    tag_181:\n        /* \"#utility.yul\":5880:5882   */\n      0x20\n        /* \"#utility.yul\":5875:5878   */\n      dup3\n        /* \"#utility.yul\":5871:5883   */\n      add\n        /* \"#utility.yul\":5864:5883   */\n      swap1\n      pop\n        /* \"#utility.yul\":5523:5889   */\n      swap2\n      swap1\n      pop\n      jump\t// out\n        /* \"#utility.yul\":5895:6261   */\n    tag_183:\n        /* \"#utility.yul\":6037:6040   */\n      0x00\n        /* \"#utility.yul\":6058:6125   */\n      tag_185\n        /* \"#utility.yul\":6122:6124   */\n      0x0f\n        /* \"#utility.yul\":6117:6120   */\n      dup4\n        /* \"#utility.yul\":6058:6125   */\n      tag_175\n      jump\t// in\n    tag_185:\n        /* \"#utility.yul\":6051:6125   */\n      swap2\n      pop\n        /* \"#utility.yul\":6134:6227   */\n      tag_186\n        /* \"#utility.yul\":6223:6226   */\n      dup3\n        /* \"#utility.yul\":6134:6227   */\n      tag_187\n      jump\t// in\n    tag_186:\n        /* \"#utility.yul\":6252:6254   */\n      0x20\n        /* \"#utility.yul\":6247:6250   */\n      dup3\n        /* \"#utility.yul\":6243:6255   */\n      add\n        /* \"#utility.yul\":6236:6255   */\n      swap1\n      pop\n        /* \"#utility.yul\":5895:6261   */\n      swap2\n      swap1\n      pop\n      jump\t// out\n        /* \"#utility.yul\":6317:7319   */\n    tag_139:\n        /* \"#utility.yul\":6416:6419   */\n      0x00\n        /* \"#utility.yul\":6452:6456   */\n      0x80\n        /* \"#utility.yul\":6447:6450   */\n      dup4\n        /* \"#utility.yul\":6443:6457   */\n      add\n        /* \"#utility.yul\":6537:6541   */\n      0x00\n        /* \"#utility.yul\":6530:6535   */\n      dup4\n        /* \"#utility.yul\":6526:6542   */\n      add\n        /* \"#utility.yul\":6520:6543   */\n      mload\n        /* \"#utility.yul\":6556:6619   */\n      tag_189\n        /* \"#utility.yul\":6613:6617   */\n      0x00\n        /* \"#utility.yul\":6608:6611   */\n      dup7\n        /* \"#utility.yul\":6604:6618   */\n      add\n        /* \"#utility.yul\":6590:6602   */\n      dup3\n        /* \"#utility.yul\":6556:6619   */\n      tag_190\n      jump\t// in\n    tag_189:\n        /* \"#utility.yul\":6467:6629   */\n      pop\n        /* \"#utility.yul\":6711:6715   */\n      0x20\n        /* \"#utility.yul\":6704:6709   */\n      dup4\n        /* \"#utility.yul\":6700:6716   */\n      add\n        /* \"#utility.yul\":6694:6717   */\n      mload\n        /* \"#utility.yul\":6764:6767   */\n      dup5\n        /* \"#utility.yul\":6758:6762   */\n      dup3\n        /* \"#utility.yul\":6754:6768   */\n      sub\n        /* \"#utility.yul\":6747:6751   */\n      0x20\n        /* \"#utility.yul\":6742:6745   */\n      dup7\n        /* \"#utility.yul\":6738:6752   */\n      add\n        /* \"#utility.yul\":6731:6769   */\n      mstore\n        /* \"#utility.yul\":6790:6863   */\n      tag_191\n        /* \"#utility.yul\":6858:6862   */\n      dup3\n        /* \"#utility.yul\":6844:6856   */\n      dup3\n        /* \"#utility.yul\":6790:6863   */\n      tag_161\n      jump\t// in\n    tag_191:\n        /* \"#utility.yul\":6782:6863   */\n      swap2\n      pop\n        /* \"#utility.yul\":6639:6874   */\n      pop\n        /* \"#utility.yul\":6959:6963   */\n      0x40\n        /* \"#utility.yul\":6952:6957   */\n      dup4\n        /* \"#utility.yul\":6948:6964   */\n      add\n        /* \"#utility.yul\":6942:6965   */\n      mload\n        /* \"#utility.yul\":7012:7015   */\n      dup5\n        /* \"#utility.yul\":7006:7010   */\n      dup3\n        /* \"#utility.yul\":7002:7016   */\n      sub\n        /* \"#utility.yul\":6995:6999   */\n      0x40\n        /* \"#utility.yul\":6990:6993   */\n      dup7\n        /* \"#utility.yul\":6986:7000   */\n      add\n        /* \"#utility.yul\":6979:7017   */\n      mstore\n        /* \"#utility.yul\":7038:7111   */\n      tag_192\n        /* \"#utility.yul\":7106:7110   */\n      dup3\n        /* \"#utility.yul\":7092:7104   */\n      dup3\n        /* \"#utility.yul\":7038:7111   */\n      tag_161\n      jump\t// in\n    tag_192:\n        /* \"#utility.yul\":7030:7111   */\n      swap2\n      pop\n        /* \"#utility.yul\":6884:7122   */\n      pop\n        /* \"#utility.yul\":7206:7210   */\n      0x60\n        /* \"#utility.yul\":7199:7204   */\n      dup4\n        /* \"#utility.yul\":7195:7211   */\n      add\n        /* \"#utility.yul\":7189:7212   */\n      mload\n        /* \"#utility.yul\":7225:7282   */\n      tag_193\n        /* \"#utility.yul\":7276:7280   */\n      0x60\n        /* \"#utility.yul\":7271:7274   */\n      dup7\n        /* \"#utility.yul\":7267:7281   */\n      add\n        /* \"#utility.yul\":7253:7265   */\n      dup3\n        /* \"#utility.yul\":7225:7282   */\n      tag_154\n      jump\t// in\n    tag_193:\n        /* \"#utility.yul\":7132:7292   */\n      pop\n        /* \"#utility.yul\":7309:7313   */\n      dup1\n        /* \"#utility.yul\":7302:7313   */\n      swap2\n      pop\n        /* \"#utility.yul\":6421:7319   */\n      pop\n        /* \"#utility.yul\":6317:7319   */\n      swap3\n      swap2\n      pop\n      pop\n      jump\t// out\n        /* \"#utility.yul\":7325:7433   */\n    tag_190:\n        /* \"#utility.yul\":7402:7426   */\n      tag_195\n        /* \"#utility.yul\":7420:7425   */\n      dup2\n        /* \"#utility.yul\":7402:7426   */\n      tag_196\n      jump\t// in\n    tag_195:\n        /* \"#utility.yul\":7397:7400   */\n      dup3\n        /* \"#utility.yul\":7390:7427   */\n      mstore\n        /* \"#utility.yul\":7325:7433   */\n      pop\n      pop\n      jump\t// out\n        /* \"#utility.yul\":7439:7557   */\n    tag_197:\n        /* \"#utility.yul\":7526:7550   */\n      tag_199\n        /* \"#utility.yul\":7544:7549   */\n      dup2\n        /* \"#utility.yul\":7526:7550   */\n      tag_196\n      jump\t// in\n    tag_199:\n        /* \"#utility.yul\":7521:7524   */\n      dup3\n        /* \"#utility.yul\":7514:7551   */\n      mstore\n        /* \"#utility.yul\":7439:7557   */\n      pop\n      pop\n      jump\t// out\n        /* \"#utility.yul\":7563:8016   */\n    tag_32:\n        /* \"#utility.yul\":7746:7750   */\n      0x00\n        /* \"#utility.yul\":7784:7786   */\n      0x20\n        /* \"#utility.yul\":7773:7782   */\n      dup3\n        /* \"#utility.yul\":7769:7787   */\n      add\n        /* \"#utility.yul\":7761:7787   */\n      swap1\n      pop\n        /* \"#utility.yul\":7833:7842   */\n      dup2\n        /* \"#utility.yul\":7827:7831   */\n      dup2\n        /* \"#utility.yul\":7823:7843   */\n      sub\n        /* \"#utility.yul\":7819:7820   */\n      0x00\n        /* \"#utility.yul\":7808:7817   */\n      dup4\n        /* \"#utility.yul\":7804:7821   */\n      add\n        /* \"#utility.yul\":7797:7844   */\n      mstore\n        /* \"#utility.yul\":7861:8009   */\n      tag_201\n        /* \"#utility.yul\":8004:8008   */\n      dup2\n        /* \"#utility.yul\":7995:8001   */\n      dup5\n        /* \"#utility.yul\":7861:8009   */\n      tag_140\n      jump\t// in\n    tag_201:\n        /* \"#utility.yul\":7853:8009   */\n      swap1\n      pop\n        /* \"#utility.yul\":7563:8016   */\n      swap3\n      swap2\n      pop\n      pop\n      jump\t// out\n        /* \"#utility.yul\":8022:8441   */\n    tag_61:\n        /* \"#utility.yul\":8188:8192   */\n      0x00\n        /* \"#utility.yul\":8226:8228   */\n      0x20\n        /* \"#utility.yul\":8215:8224   */\n      dup3\n        /* \"#utility.yul\":8211:8229   */\n      add\n        /* \"#utility.yul\":8203:8229   */\n      swap1\n      pop\n        /* \"#utility.yul\":8275:8284   */\n      dup2\n        /* \"#utility.yul\":8269:8273   */\n      dup2\n        /* \"#utility.yul\":8265:8285   */\n      sub\n        /* \"#utility.yul\":8261:8262   */\n      0x00\n        /* \"#utility.yul\":8250:8259   */\n      dup4\n        /* \"#utility.yul\":8246:8263   */\n      add\n        /* \"#utility.yul\":8239:8286   */\n      mstore\n        /* \"#utility.yul\":8303:8434   */\n      tag_203\n        /* \"#utility.yul\":8429:8433   */\n      dup2\n        /* \"#utility.yul\":8303:8434   */\n      tag_178\n      jump\t// in\n    tag_203:\n        /* \"#utility.yul\":8295:8434   */\n      swap1\n      pop\n        /* \"#utility.yul\":8022:8441   */\n      swap2\n      swap1\n      pop\n      jump\t// out\n        /* \"#utility.yul\":8447:8866   */\n    tag_57:\n        /* \"#utility.yul\":8613:8617   */\n      0x00\n        /* \"#utility.yul\":8651:8653   */\n      0x20\n        /* \"#utility.yul\":8640:8649   */\n      dup3\n        /* \"#utility.yul\":8636:8654   */\n      add\n        /* \"#utility.yul\":8628:8654   */\n      swap1\n      pop\n        /* \"#utility.yul\":8700:8709   */\n      dup2\n        /* \"#utility.yul\":8694:8698   */\n      dup2\n        /* \"#utility.yul\":8690:8710   */\n      sub\n        /* \"#utility.yul\":8686:8687   */\n      0x00\n        /* \"#utility.yul\":8675:8684   */\n      dup4\n        /* \"#utility.yul\":8671:8688   */\n      add\n        /* \"#utility.yul\":8664:8711   */\n      mstore\n        /* \"#utility.yul\":8728:8859   */\n      tag_205\n        /* \"#utility.yul\":8854:8858   */\n      dup2\n        /* \"#utility.yul\":8728:8859   */\n      tag_183\n      jump\t// in\n    tag_205:\n        /* \"#utility.yul\":8720:8859   */\n      swap1\n      pop\n        /* \"#utility.yul\":8447:8866   */\n      swap2\n      swap1\n      pop\n      jump\t// out\n        /* \"#utility.yul\":8872:9094   */\n    tag_23:\n        /* \"#utility.yul\":8965:8969   */\n      0x00\n        /* \"#utility.yul\":9003:9005   */\n      0x20\n        /* \"#utility.yul\":8992:9001   */\n      dup3\n        /* \"#utility.yul\":8988:9006   */\n      add\n        /* \"#utility.yul\":8980:9006   */\n      swap1\n      pop\n        /* \"#utility.yul\":9016:9087   */\n      tag_207\n        /* \"#utility.yul\":9084:9085   */\n      0x00\n        /* \"#utility.yul\":9073:9082   */\n      dup4\n        /* \"#utility.yul\":9069:9086   */\n      add\n        /* \"#utility.yul\":9060:9066   */\n      dup5\n        /* \"#utility.yul\":9016:9087   */\n      tag_197\n      jump\t// in\n    tag_207:\n        /* \"#utility.yul\":8872:9094   */\n      swap3\n      swap2\n      pop\n      pop\n      jump\t// out\n        /* \"#utility.yul\":9100:9823   */\n    tag_17:\n        /* \"#utility.yul\":9311:9315   */\n      0x00\n        /* \"#utility.yul\":9349:9352   */\n      0x80\n        /* \"#utility.yul\":9338:9347   */\n      dup3\n        /* \"#utility.yul\":9334:9353   */\n      add\n        /* \"#utility.yul\":9326:9353   */\n      swap1\n      pop\n        /* \"#utility.yul\":9363:9434   */\n      tag_209\n        /* \"#utility.yul\":9431:9432   */\n      0x00\n        /* \"#utility.yul\":9420:9429   */\n      dup4\n        /* \"#utility.yul\":9416:9433   */\n      add\n        /* \"#utility.yul\":9407:9413   */\n      dup8\n        /* \"#utility.yul\":9363:9434   */\n      tag_197\n      jump\t// in\n    tag_209:\n        /* \"#utility.yul\":9481:9490   */\n      dup2\n        /* \"#utility.yul\":9475:9479   */\n      dup2\n        /* \"#utility.yul\":9471:9491   */\n      sub\n        /* \"#utility.yul\":9466:9468   */\n      0x20\n        /* \"#utility.yul\":9455:9464   */\n      dup4\n        /* \"#utility.yul\":9451:9469   */\n      add\n        /* \"#utility.yul\":9444:9492   */\n      mstore\n        /* \"#utility.yul\":9509:9587   */\n      tag_210\n        /* \"#utility.yul\":9582:9586   */\n      dup2\n        /* \"#utility.yul\":9573:9579   */\n      dup7\n        /* \"#utility.yul\":9509:9587   */\n      tag_171\n      jump\t// in\n    tag_210:\n        /* \"#utility.yul\":9501:9587   */\n      swap1\n      pop\n        /* \"#utility.yul\":9634:9643   */\n      dup2\n        /* \"#utility.yul\":9628:9632   */\n      dup2\n        /* \"#utility.yul\":9624:9644   */\n      sub\n        /* \"#utility.yul\":9619:9621   */\n      0x40\n        /* \"#utility.yul\":9608:9617   */\n      dup4\n        /* \"#utility.yul\":9604:9622   */\n      add\n        /* \"#utility.yul\":9597:9645   */\n      mstore\n        /* \"#utility.yul\":9662:9740   */\n      tag_211\n        /* \"#utility.yul\":9735:9739   */\n      dup2\n        /* \"#utility.yul\":9726:9732   */\n      dup6\n        /* \"#utility.yul\":9662:9740   */\n      tag_171\n      jump\t// in\n    tag_211:\n        /* \"#utility.yul\":9654:9740   */\n      swap1\n      pop\n        /* \"#utility.yul\":9750:9816   */\n      tag_212\n        /* \"#utility.yul\":9812:9814   */\n      0x60\n        /* \"#utility.yul\":9801:9810   */\n      dup4\n        /* \"#utility.yul\":9797:9815   */\n      add\n        /* \"#utility.yul\":9788:9794   */\n      dup5\n        /* \"#utility.yul\":9750:9816   */\n      tag_158\n      jump\t// in\n    tag_212:\n        /* \"#utility.yul\":9100:9823   */\n      swap6\n      swap5\n      pop\n      pop\n      pop\n      pop\n      pop\n      jump\t// out\n        /* \"#utility.yul\":9829:9958   */\n    tag_91:\n        /* \"#utility.yul\":9863:9869   */\n      0x00\n        /* \"#utility.yul\":9890:9910   */\n      tag_214\n      tag_215\n      jump\t// in\n    tag_214:\n        /* \"#utility.yul\":9880:9910   */\n      swap1\n      pop\n        /* \"#utility.yul\":9919:9952   */\n      tag_216\n        /* \"#utility.yul\":9947:9951   */\n      dup3\n        /* \"#utility.yul\":9939:9945   */\n      dup3\n        /* \"#utility.yul\":9919:9952   */\n      tag_217\n      jump\t// in\n    tag_216:\n        /* \"#utility.yul\":9829:9958   */\n      swap2\n      swap1\n      pop\n      jump\t// out\n        /* \"#utility.yul\":9964:10039   */\n    tag_215:\n        /* \"#utility.yul\":9997:10003   */\n      0x00\n        /* \"#utility.yul\":10030:10032   */\n      0x40\n        /* \"#utility.yul\":10024:10033   */\n      mload\n        /* \"#utility.yul\":10014:10033   */\n      swap1\n      pop\n        /* \"#utility.yul\":9964:10039   */\n      swap1\n      jump\t// out\n        /* \"#utility.yul\":10045:10353   */\n    tag_90:\n        /* \"#utility.yul\":10107:10111   */\n      0x00\n        /* \"#utility.yul\":10197:10215   */\n      0xffffffffffffffff\n        /* \"#utility.yul\":10189:10195   */\n      dup3\n        /* \"#utility.yul\":10186:10216   */\n      gt\n        /* \"#utility.yul\":10183:10239   */\n      iszero\n      tag_220\n      jumpi\n        /* \"#utility.yul\":10219:10237   */\n      tag_221\n      tag_222\n      jump\t// in\n    tag_221:\n        /* \"#utility.yul\":10183:10239   */\n    tag_220:\n        /* \"#utility.yul\":10257:10286   */\n      tag_223\n        /* \"#utility.yul\":10279:10285   */\n      dup3\n        /* \"#utility.yul\":10257:10286   */\n      tag_170\n      jump\t// in\n    tag_223:\n        /* \"#utility.yul\":10249:10286   */\n      swap1\n      pop\n        /* \"#utility.yul\":10341:10345   */\n      0x20\n        /* \"#utility.yul\":10335:10339   */\n      dup2\n        /* \"#utility.yul\":10331:10346   */\n      add\n        /* \"#utility.yul\":10323:10346   */\n      swap1\n      pop\n        /* \"#utility.yul\":10045:10353   */\n      swap2\n      swap1\n      pop\n      jump\t// out\n        /* \"#utility.yul\":10359:10511   */\n    tag_147:\n        /* \"#utility.yul\":10446:10450   */\n      0x00\n        /* \"#utility.yul\":10469:10472   */\n      dup2\n        /* \"#utility.yul\":10461:10472   */\n      swap1\n      pop\n        /* \"#utility.yul\":10499:10503   */\n      0x20\n        /* \"#utility.yul\":10494:10497   */\n      dup3\n        /* \"#utility.yul\":10490:10504   */\n      add\n        /* \"#utility.yul\":10482:10504   */\n      swap1\n      pop\n        /* \"#utility.yul\":10359:10511   */\n      swap2\n      swap1\n      pop\n      jump\t// out\n        /* \"#utility.yul\":10517:10651   */\n    tag_143:\n        /* \"#utility.yul\":10604:10610   */\n      0x00\n        /* \"#utility.yul\":10638:10643   */\n      dup2\n        /* \"#utility.yul\":10632:10644   */\n      mload\n        /* \"#utility.yul\":10622:10644   */\n      swap1\n      pop\n        /* \"#utility.yul\":10517:10651   */\n      swap2\n      swap1\n      pop\n      jump\t// out\n        /* \"#utility.yul\":10657:10756   */\n    tag_164:\n        /* \"#utility.yul\":10709:10715   */\n      0x00\n        /* \"#utility.yul\":10743:10748   */\n      dup2\n        /* \"#utility.yul\":10737:10749   */\n      mload\n        /* \"#utility.yul\":10727:10749   */\n      swap1\n      pop\n        /* \"#utility.yul\":10657:10756   */\n      swap2\n      swap1\n      pop\n      jump\t// out\n        /* \"#utility.yul\":10762:10895   */\n    tag_153:\n        /* \"#utility.yul\":10852:10856   */\n      0x00\n        /* \"#utility.yul\":10884:10888   */\n      0x20\n        /* \"#utility.yul\":10879:10882   */\n      dup3\n        /* \"#utility.yul\":10875:10889   */\n      add\n        /* \"#utility.yul\":10867:10889   */\n      swap1\n      pop\n        /* \"#utility.yul\":10762:10895   */\n      swap2\n      swap1\n      pop\n      jump\t// out\n        /* \"#utility.yul\":10901:11105   */\n    tag_145:\n        /* \"#utility.yul\":11020:11031   */\n      0x00\n        /* \"#utility.yul\":11054:11060   */\n      dup3\n        /* \"#utility.yul\":11049:11052   */\n      dup3\n        /* \"#utility.yul\":11042:11061   */\n      mstore\n        /* \"#utility.yul\":11094:11098   */\n      0x20\n        /* \"#utility.yul\":11089:11092   */\n      dup3\n        /* \"#utility.yul\":11085:11099   */\n      add\n        /* \"#utility.yul\":11070:11099   */\n      swap1\n      pop\n        /* \"#utility.yul\":10901:11105   */\n      swap3\n      swap2\n      pop\n      pop\n      jump\t// out\n        /* \"#utility.yul\":11111:11270   */\n    tag_166:\n        /* \"#utility.yul\":11185:11196   */\n      0x00\n        /* \"#utility.yul\":11219:11225   */\n      dup3\n        /* \"#utility.yul\":11214:11217   */\n      dup3\n        /* \"#utility.yul\":11207:11226   */\n      mstore\n        /* \"#utility.yul\":11259:11263   */\n      0x20\n        /* \"#utility.yul\":11254:11257   */\n      dup3\n        /* \"#utility.yul\":11250:11264   */\n      add\n        /* \"#utility.yul\":11235:11264   */\n      swap1\n      pop\n        /* \"#utility.yul\":11111:11270   */\n      swap3\n      swap2\n      pop\n      pop\n      jump\t// out\n        /* \"#utility.yul\":11276:11445   */\n    tag_175:\n        /* \"#utility.yul\":11360:11371   */\n      0x00\n        /* \"#utility.yul\":11394:11400   */\n      dup3\n        /* \"#utility.yul\":11389:11392   */\n      dup3\n        /* \"#utility.yul\":11382:11401   */\n      mstore\n        /* \"#utility.yul\":11434:11438   */\n      0x20\n        /* \"#utility.yul\":11429:11432   */\n      dup3\n        /* \"#utility.yul\":11425:11439   */\n      add\n        /* \"#utility.yul\":11410:11439   */\n      swap1\n      pop\n        /* \"#utility.yul\":11276:11445   */\n      swap3\n      swap2\n      pop\n      pop\n      jump\t// out\n        /* \"#utility.yul\":11451:11547   */\n    tag_231:\n        /* \"#utility.yul\":11488:11495   */\n      0x00\n        /* \"#utility.yul\":11517:11541   */\n      tag_233\n        /* \"#utility.yul\":11535:11540   */\n      dup3\n        /* \"#utility.yul\":11517:11541   */\n      tag_234\n      jump\t// in\n    tag_233:\n        /* \"#utility.yul\":11506:11541   */\n      swap1\n      pop\n        /* \"#utility.yul\":11451:11547   */\n      swap2\n      swap1\n      pop\n      jump\t// out\n        /* \"#utility.yul\":11553:11643   */\n    tag_157:\n        /* \"#utility.yul\":11587:11594   */\n      0x00\n        /* \"#utility.yul\":11630:11635   */\n      dup2\n        /* \"#utility.yul\":11623:11636   */\n      iszero\n        /* \"#utility.yul\":11616:11637   */\n      iszero\n        /* \"#utility.yul\":11605:11637   */\n      swap1\n      pop\n        /* \"#utility.yul\":11553:11643   */\n      swap2\n      swap1\n      pop\n      jump\t// out\n        /* \"#utility.yul\":11649:11775   */\n    tag_234:\n        /* \"#utility.yul\":11686:11693   */\n      0x00\n        /* \"#utility.yul\":11726:11768   */\n      0xffffffffffffffffffffffffffffffffffffffff\n        /* \"#utility.yul\":11719:11724   */\n      dup3\n        /* \"#utility.yul\":11715:11769   */\n      and\n        /* \"#utility.yul\":11704:11769   */\n      swap1\n      pop\n        /* \"#utility.yul\":11649:11775   */\n      swap2\n      swap1\n      pop\n      jump\t// out\n        /* \"#utility.yul\":11781:11858   */\n    tag_196:\n        /* \"#utility.yul\":11818:11825   */\n      0x00\n        /* \"#utility.yul\":11847:11852   */\n      dup2\n        /* \"#utility.yul\":11836:11852   */\n      swap1\n      pop\n        /* \"#utility.yul\":11781:11858   */\n      swap2\n      swap1\n      pop\n      jump\t// out\n        /* \"#utility.yul\":11864:12018   */\n    tag_96:\n        /* \"#utility.yul\":11948:11954   */\n      dup3\n        /* \"#utility.yul\":11943:11946   */\n      dup2\n        /* \"#utility.yul\":11938:11941   */\n      dup4\n        /* \"#utility.yul\":11925:11955   */\n      calldatacopy\n        /* \"#utility.yul\":12010:12011   */\n      0x00\n        /* \"#utility.yul\":12001:12007   */\n      dup4\n        /* \"#utility.yul\":11996:11999   */\n      dup4\n        /* \"#utility.yul\":11992:12008   */\n      add\n        /* \"#utility.yul\":11985:12012   */\n      mstore\n        /* \"#utility.yul\":11864:12018   */\n      pop\n      pop\n      pop\n      jump\t// out\n        /* \"#utility.yul\":12024:12331   */\n    tag_168:\n        /* \"#utility.yul\":12092:12093   */\n      0x00\n        /* \"#utility.yul\":12102:12215   */\n    tag_240:\n        /* \"#utility.yul\":12116:12122   */\n      dup4\n        /* \"#utility.yul\":12113:12114   */\n      dup2\n        /* \"#utility.yul\":12110:12123   */\n      lt\n        /* \"#utility.yul\":12102:12215   */\n      iszero\n      tag_242\n      jumpi\n        /* \"#utility.yul\":12201:12202   */\n      dup1\n        /* \"#utility.yul\":12196:12199   */\n      dup3\n        /* \"#utility.yul\":12192:12203   */\n      add\n        /* \"#utility.yul\":12186:12204   */\n      mload\n        /* \"#utility.yul\":12182:12183   */\n      dup2\n        /* \"#utility.yul\":12177:12180   */\n      dup5\n        /* \"#utility.yul\":12173:12184   */\n      add\n        /* \"#utility.yul\":12166:12205   */\n      mstore\n        /* \"#utility.yul\":12138:12140   */\n      0x20\n        /* \"#utility.yul\":12135:12136   */\n      dup2\n        /* \"#utility.yul\":12131:12141   */\n      add\n        /* \"#utility.yul\":12126:12141   */\n      swap1\n      pop\n        /* \"#utility.yul\":12102:12215   */\n      jump(tag_240)\n    tag_242:\n        /* \"#utility.yul\":12233:12239   */\n      dup4\n        /* \"#utility.yul\":12230:12231   */\n      dup2\n        /* \"#utility.yul\":12227:12240   */\n      gt\n        /* \"#utility.yul\":12224:12325   */\n      iszero\n      tag_243\n      jumpi\n        /* \"#utility.yul\":12313:12314   */\n      0x00\n        /* \"#utility.yul\":12304:12310   */\n      dup5\n        /* \"#utility.yul\":12299:12302   */\n      dup5\n        /* \"#utility.yul\":12295:12311   */\n      add\n        /* \"#utility.yul\":12288:12315   */\n      mstore\n        /* \"#utility.yul\":12224:12325   */\n    tag_243:\n        /* \"#utility.yul\":12073:12331   */\n      pop\n        /* \"#utility.yul\":12024:12331   */\n      pop\n      pop\n      pop\n      jump\t// out\n        /* \"#utility.yul\":12337:12657   */\n    tag_43:\n        /* \"#utility.yul\":12381:12387   */\n      0x00\n        /* \"#utility.yul\":12418:12419   */\n      0x02\n        /* \"#utility.yul\":12412:12416   */\n      dup3\n        /* \"#utility.yul\":12408:12420   */\n      div\n        /* \"#utility.yul\":12398:12420   */\n      swap1\n      pop\n        /* \"#utility.yul\":12465:12466   */\n      0x01\n        /* \"#utility.yul\":12459:12463   */\n      dup3\n        /* \"#utility.yul\":12455:12467   */\n      and\n        /* \"#utility.yul\":12486:12504   */\n      dup1\n        /* \"#utility.yul\":12476:12557   */\n      tag_245\n      jumpi\n        /* \"#utility.yul\":12542:12546   */\n      0x7f\n        /* \"#utility.yul\":12534:12540   */\n      dup3\n        /* \"#utility.yul\":12530:12547   */\n      and\n        /* \"#utility.yul\":12520:12547   */\n      swap2\n      pop\n        /* \"#utility.yul\":12476:12557   */\n    tag_245:\n        /* \"#utility.yul\":12604:12606   */\n      0x20\n        /* \"#utility.yul\":12596:12602   */\n      dup3\n        /* \"#utility.yul\":12593:12607   */\n      lt\n        /* \"#utility.yul\":12573:12591   */\n      dup2\n        /* \"#utility.yul\":12570:12608   */\n      eq\n        /* \"#utility.yul\":12567:12651   */\n      iszero\n      tag_246\n      jumpi\n        /* \"#utility.yul\":12623:12641   */\n      tag_247\n      tag_248\n      jump\t// in\n    tag_247:\n        /* \"#utility.yul\":12567:12651   */\n    tag_246:\n        /* \"#utility.yul\":12388:12657   */\n      pop\n        /* \"#utility.yul\":12337:12657   */\n      swap2\n      swap1\n      pop\n      jump\t// out\n        /* \"#utility.yul\":12663:12944   */\n    tag_217:\n        /* \"#utility.yul\":12746:12773   */\n      tag_250\n        /* \"#utility.yul\":12768:12772   */\n      dup3\n        /* \"#utility.yul\":12746:12773   */\n      tag_170\n      jump\t// in\n    tag_250:\n        /* \"#utility.yul\":12738:12744   */\n      dup2\n        /* \"#utility.yul\":12734:12774   */\n      add\n        /* \"#utility.yul\":12876:12882   */\n      dup2\n        /* \"#utility.yul\":12864:12874   */\n      dup2\n        /* \"#utility.yul\":12861:12883   */\n      lt\n        /* \"#utility.yul\":12840:12858   */\n      0xffffffffffffffff\n        /* \"#utility.yul\":12828:12838   */\n      dup3\n        /* \"#utility.yul\":12825:12859   */\n      gt\n        /* \"#utility.yul\":12822:12884   */\n      or\n        /* \"#utility.yul\":12819:12907   */\n      iszero\n      tag_251\n      jumpi\n        /* \"#utility.yul\":12887:12905   */\n      tag_252\n      tag_222\n      jump\t// in\n    tag_252:\n        /* \"#utility.yul\":12819:12907   */\n    tag_251:\n        /* \"#utility.yul\":12927:12937   */\n      dup1\n        /* \"#utility.yul\":12923:12925   */\n      0x40\n        /* \"#utility.yul\":12916:12938   */\n      mstore\n        /* \"#utility.yul\":12706:12944   */\n      pop\n        /* \"#utility.yul\":12663:12944   */\n      pop\n      pop\n      jump\t// out\n        /* \"#utility.yul\":12950:13183   */\n    tag_35:\n        /* \"#utility.yul\":12989:12992   */\n      0x00\n        /* \"#utility.yul\":13012:13036   */\n      tag_254\n        /* \"#utility.yul\":13030:13035   */\n      dup3\n        /* \"#utility.yul\":13012:13036   */\n      tag_196\n      jump\t// in\n    tag_254:\n        /* \"#utility.yul\":13003:13036   */\n      swap2\n      pop\n        /* \"#utility.yul\":13058:13124   */\n      0xffffffffffffffffffffffffffffffffffffffffffffffffffffffffffffffff\n        /* \"#utility.yul\":13051:13056   */\n      dup3\n        /* \"#utility.yul\":13048:13125   */\n      eq\n        /* \"#utility.yul\":13045:13148   */\n      iszero\n      tag_255\n      jumpi\n        /* \"#utility.yul\":13128:13146   */\n      tag_256\n      tag_257\n      jump\t// in\n    tag_256:\n        /* \"#utility.yul\":13045:13148   */\n    tag_255:\n        /* \"#utility.yul\":13175:13176   */\n      0x01\n        /* \"#utility.yul\":13168:13173   */\n      dup3\n        /* \"#utility.yul\":13164:13177   */\n      add\n        /* \"#utility.yul\":13157:13177   */\n      swap1\n      pop\n        /* \"#utility.yul\":12950:13183   */\n      swap2\n      swap1\n      pop\n      jump\t// out\n        /* \"#utility.yul\":13189:13369   */\n    tag_257:\n        /* \"#utility.yul\":13237:13314   */\n      0x4e487b7100000000000000000000000000000000000000000000000000000000\n        /* \"#utility.yul\":13234:13235   */\n      0x00\n        /* \"#utility.yul\":13227:13315   */\n      mstore\n        /* \"#utility.yul\":13334:13338   */\n      0x11\n        /* \"#utility.yul\":13331:13332   */\n      0x04\n        /* \"#utility.yul\":13324:13339   */\n      mstore\n        /* \"#utility.yul\":13358:13362   */\n      0x24\n        /* \"#utility.yul\":13355:13356   */\n      0x00\n        /* \"#utility.yul\":13348:13363   */\n      revert\n        /* \"#utility.yul\":13375:13555   */\n    tag_248:\n        /* \"#utility.yul\":13423:13500   */\n      0x4e487b7100000000000000000000000000000000000000000000000000000000\n        /* \"#utility.yul\":13420:13421   */\n      0x00\n        /* \"#utility.yul\":13413:13501   */\n      mstore\n        /* \"#utility.yul\":13520:13524   */\n      0x22\n        /* \"#utility.yul\":13517:13518   */\n      0x04\n        /* \"#utility.yul\":13510:13525   */\n      mstore\n        /* \"#utility.yul\":13544:13548   */\n      0x24\n        /* \"#utility.yul\":13541:13542   */\n      0x00\n        /* \"#utility.yul\":13534:13549   */\n      revert\n        /* \"#utility.yul\":13561:13741   */\n    tag_222:\n        /* \"#utility.yul\":13609:13686   */\n      0x4e487b7100000000000000000000000000000000000000000000000000000000\n        /* \"#utility.yul\":13606:13607   */\n      0x00\n        /* \"#utility.yul\":13599:13687   */\n      mstore\n        /* \"#utility.yul\":13706:13710   */\n      0x41\n        /* \"#utility.yul\":13703:13704   */\n      0x04\n        /* \"#utility.yul\":13696:13711   */\n      mstore\n        /* \"#utility.yul\":13730:13734   */\n      0x24\n        /* \"#utility.yul\":13727:13728   */\n      0x00\n        /* \"#utility.yul\":13720:13735   */\n      revert\n        /* \"#utility.yul\":13747:13864   */\n    tag_105:\n        /* \"#utility.yul\":13856:13857   */\n      0x00\n        /* \"#utility.yul\":13853:13854   */\n      dup1\n        /* \"#utility.yul\":13846:13858   */\n      revert\n        /* \"#utility.yul\":13870:13987   */\n    tag_94:\n        /* \"#utility.yul\":13979:13980   */\n      0x00\n        /* \"#utility.yul\":13976:13977   */\n      dup1\n        /* \"#utility.yul\":13969:13981   */\n      revert\n        /* \"#utility.yul\":13993:14110   */\n    tag_127:\n        /* \"#utility.yul\":14102:14103   */\n      0x00\n        /* \"#utility.yul\":14099:14100   */\n      dup1\n        /* \"#utility.yul\":14092:14104   */\n      revert\n        /* \"#utility.yul\":14116:14233   */\n    tag_114:\n        /* \"#utility.yul\":14225:14226   */\n      0x00\n        /* \"#utility.yul\":14222:14223   */\n      dup1\n        /* \"#utility.yul\":14215:14227   */\n      revert\n        /* \"#utility.yul\":14239:14341   */\n    tag_170:\n        /* \"#utility.yul\":14280:14286   */\n      0x00\n        /* \"#utility.yul\":14331:14333   */\n      0x1f\n        /* \"#utility.yul\":14327:14334   */\n      not\n        /* \"#utility.yul\":14322:14324   */\n      0x1f\n        /* \"#utility.yul\":14315:14320   */\n      dup4\n        /* \"#utility.yul\":14311:14325   */\n      add\n        /* \"#utility.yul\":14307:14335   */\n      and\n        /* \"#utility.yul\":14297:14335   */\n      swap1\n      pop\n        /* \"#utility.yul\":14239:14341   */\n      swap2\n      swap1\n      pop\n      jump\t// out\n        /* \"#utility.yul\":14347:14527   */\n    tag_182:\n        /* \"#utility.yul\":14487:14519   */\n      0x546f646f20776974682063757272656e74204944206e6f7420666f756e640000\n        /* \"#utility.yul\":14483:14484   */\n      0x00\n        /* \"#utility.yul\":14475:14481   */\n      dup3\n        /* \"#utility.yul\":14471:14485   */\n      add\n        /* \"#utility.yul\":14464:14520   */\n      mstore\n        /* \"#utility.yul\":14347:14527   */\n      pop\n      jump\t// out\n        /* \"#utility.yul\":14533:14698   */\n    tag_187:\n        /* \"#utility.yul\":14673:14690   */\n      0x4e6f20746f646f7320666f756e642e0000000000000000000000000000000000\n        /* \"#utility.yul\":14669:14670   */\n      0x00\n        /* \"#utility.yul\":14661:14667   */\n      dup3\n        /* \"#utility.yul\":14657:14671   */\n      add\n        /* \"#utility.yul\":14650:14691   */\n      mstore\n        /* \"#utility.yul\":14533:14698   */\n      pop\n      jump\t// out\n        /* \"#utility.yul\":14704:14826   */\n    tag_100:\n        /* \"#utility.yul\":14777:14801   */\n      tag_269\n        /* \"#utility.yul\":14795:14800   */\n      dup2\n        /* \"#utility.yul\":14777:14801   */\n      tag_231\n      jump\t// in\n    tag_269:\n        /* \"#utility.yul\":14770:14775   */\n      dup2\n        /* \"#utility.yul\":14767:14802   */\n      eq\n        /* \"#utility.yul\":14757:14820   */\n      tag_270\n      jumpi\n        /* \"#utility.yul\":14816:14817   */\n      0x00\n        /* \"#utility.yul\":14813:14814   */\n      dup1\n        /* \"#utility.yul\":14806:14818   */\n      revert\n        /* \"#utility.yul\":14757:14820   */\n    tag_270:\n        /* \"#utility.yul\":14704:14826   */\n      pop\n      jump\t// out\n        /* \"#utility.yul\":14832:14954   */\n    tag_110:\n        /* \"#utility.yul\":14905:14929   */\n      tag_272\n        /* \"#utility.yul\":14923:14928   */\n      dup2\n        /* \"#utility.yul\":14905:14929   */\n      tag_196\n      jump\t// in\n    tag_272:\n        /* \"#utility.yul\":14898:14903   */\n      dup2\n        /* \"#utility.yul\":14895:14930   */\n      eq\n        /* \"#utility.yul\":14885:14948   */\n      tag_273\n      jumpi\n        /* \"#utility.yul\":14944:14945   */\n      0x00\n        /* \"#utility.yul\":14941:14942   */\n      dup1\n        /* \"#utility.yul\":14934:14946   */\n      revert\n        /* \"#utility.yul\":14885:14948   */\n    tag_273:\n        /* \"#utility.yul\":14832:14954   */\n      pop\n      jump\t// out\n\n    auxdata: 0xa2646970667358221220634a68db974252ee749a037ca231f02f87a39228b4cd3804e82f519a706521de64736f6c63430008070033\n}\n",
				"bytecode": {
					"linkReferences": {},
					"object": "608060405234801561001057600080fd5b50611046806100206000396000f3fe608060405234801561001057600080fd5b50600436106100575760003560e01c80631b7fb2601461005c57806397292ce514610078578063c12327b8146100ab578063d321fe29146100db578063dd68afb6146100f9575b600080fd5b61007660048036038101906100719190610990565b610129565b005b610092600480360381019061008d919061093d565b610302565b6040516100a29493929190610c99565b60405180910390f35b6100c560048036038101906100c09190610910565b610479565b6040516100d29190610c7e565b60405180910390f35b6100e3610491565b6040516100f09190610c7e565b60405180910390f35b610113600480360381019061010e9190610a08565b6104d8565b6040516101209190610c1c565b60405180910390f35b600160003373ffffffffffffffffffffffffffffffffffffffff1673ffffffffffffffffffffffffffffffffffffffff168152602001908152602001600020600081548092919061017990610e95565b91905055506000803373ffffffffffffffffffffffffffffffffffffffff1673ffffffffffffffffffffffffffffffffffffffff1681526020019081526020016000206000600160003373ffffffffffffffffffffffffffffffffffffffff1673ffffffffffffffffffffffffffffffffffffffff1681526020019081526020016000205481526020019081526020016000206040518060800160405280600160003373ffffffffffffffffffffffffffffffffffffffff1673ffffffffffffffffffffffffffffffffffffffff1681526020019081526020016000205481526020018481526020018381526020016000151581525090806001815401808255809150506001900390600052602060002090600402016000909190919091506000820151816000015560208201518160010190805190602001906102be9291906107d3565b5060408201518160020190805190602001906102db9291906107d3565b5060608201518160030160006101000a81548160ff02191690831515021790555050505050565b6000602052826000526040600020602052816000526040600020818154811061032a57600080fd5b9060005260206000209060040201600092509250505080600001549080600101805461035590610e32565b80601f016020809104026020016040519081016040528092919081815260200182805461038190610e32565b80156103ce5780601f106103a3576101008083540402835291602001916103ce565b820191906000526020600020905b8154815290600101906020018083116103b157829003601f168201915b5050505050908060020180546103e390610e32565b80601f016020809104026020016040519081016040528092919081815260200182805461040f90610e32565b801561045c5780601f106104315761010080835404028352916020019161045c565b820191906000526020600020905b81548152906001019060200180831161043f57829003601f168201915b5050505050908060030160009054906101000a900460ff16905084565b60016020528060005260406000206000915090505481565b6000600160003373ffffffffffffffffffffffffffffffffffffffff1673ffffffffffffffffffffffffffffffffffffffff16815260200190815260200160002054905090565b60606000600160003373ffffffffffffffffffffffffffffffffffffffff1673ffffffffffffffffffffffffffffffffffffffff168152602001908152602001600020541161055c576040517f08c379a000000000000000000000000000000000000000000000000000000000815260040161055390610c5e565b60405180910390fd5b600160003373ffffffffffffffffffffffffffffffffffffffff1673ffffffffffffffffffffffffffffffffffffffff168152602001908152602001600020548211156105de576040517f08c379a00000000000000000000000000000000000000000000000000000000081526004016105d590610c3e565b60405180910390fd5b6000803373ffffffffffffffffffffffffffffffffffffffff1673ffffffffffffffffffffffffffffffffffffffff1681526020019081526020016000206000838152602001908152602001600020805480602002602001604051908101604052809291908181526020016000905b828210156107c857838290600052602060002090600402016040518060800160405290816000820154815260200160018201805461068a90610e32565b80601f01602080910402602001604051908101604052809291908181526020018280546106b690610e32565b80156107035780601f106106d857610100808354040283529160200191610703565b820191906000526020600020905b8154815290600101906020018083116106e657829003601f168201915b5050505050815260200160028201805461071c90610e32565b80601f016020809104026020016040519081016040528092919081815260200182805461074890610e32565b80156107955780601f1061076a57610100808354040283529160200191610795565b820191906000526020600020905b81548152906001019060200180831161077857829003601f168201915b505050505081526020016003820160009054906101000a900460ff1615151515815250508152602001906001019061064d565b505050509050919050565b8280546107df90610e32565b90600052602060002090601f0160209004810192826108015760008555610848565b82601f1061081a57805160ff1916838001178555610848565b82800160010185558215610848579182015b8281111561084757825182559160200191906001019061082c565b5b5090506108559190610859565b5090565b5b8082111561087257600081600090555060010161085a565b5090565b600061088961088484610d11565b610cec565b9050828152602081018484840111156108a5576108a4610f70565b5b6108b0848285610df0565b509392505050565b6000813590506108c781610fe2565b92915050565b600082601f8301126108e2576108e1610f6b565b5b81356108f2848260208601610876565b91505092915050565b60008135905061090a81610ff9565b92915050565b60006020828403121561092657610925610f7a565b5b6000610934848285016108b8565b91505092915050565b60008060006060848603121561095657610955610f7a565b5b6000610964868287016108b8565b9350506020610975868287016108fb565b9250506040610986868287016108fb565b9150509250925092565b600080604083850312156109a7576109a6610f7a565b5b600083013567ffffffffffffffff8111156109c5576109c4610f75565b5b6109d1858286016108cd565b925050602083013567ffffffffffffffff8111156109f2576109f1610f75565b5b6109fe858286016108cd565b9150509250929050565b600060208284031215610a1e57610a1d610f7a565b5b6000610a2c848285016108fb565b91505092915050565b6000610a418383610b94565b905092915050565b6000610a5482610d52565b610a5e8185610d75565b935083602082028501610a7085610d42565b8060005b85811015610aac5784840389528151610a8d8582610a35565b9450610a9883610d68565b925060208a01995050600181019050610a74565b50829750879550505050505092915050565b610ac781610dba565b82525050565b610ad681610dba565b82525050565b6000610ae782610d5d565b610af18185610d86565b9350610b01818560208601610dff565b610b0a81610f7f565b840191505092915050565b6000610b2082610d5d565b610b2a8185610d97565b9350610b3a818560208601610dff565b610b4381610f7f565b840191505092915050565b6000610b5b601e83610d97565b9150610b6682610f90565b602082019050919050565b6000610b7e600f83610d97565b9150610b8982610fb9565b602082019050919050565b6000608083016000830151610bac6000860182610bfe565b5060208301518482036020860152610bc48282610adc565b91505060408301518482036040860152610bde8282610adc565b9150506060830151610bf36060860182610abe565b508091505092915050565b610c0781610de6565b82525050565b610c1681610de6565b82525050565b60006020820190508181036000830152610c368184610a49565b905092915050565b60006020820190508181036000830152610c5781610b4e565b9050919050565b60006020820190508181036000830152610c7781610b71565b9050919050565b6000602082019050610c936000830184610c0d565b92915050565b6000608082019050610cae6000830187610c0d565b8181036020830152610cc08186610b15565b90508181036040830152610cd48185610b15565b9050610ce36060830184610acd565b95945050505050565b6000610cf6610d07565b9050610d028282610e64565b919050565b6000604051905090565b600067ffffffffffffffff821115610d2c57610d2b610f3c565b5b610d3582610f7f565b9050602081019050919050565b6000819050602082019050919050565b600081519050919050565b600081519050919050565b6000602082019050919050565b600082825260208201905092915050565b600082825260208201905092915050565b600082825260208201905092915050565b6000610db382610dc6565b9050919050565b60008115159050919050565b600073ffffffffffffffffffffffffffffffffffffffff82169050919050565b6000819050919050565b82818337600083830152505050565b60005b83811015610e1d578082015181840152602081019050610e02565b83811115610e2c576000848401525b50505050565b60006002820490506001821680610e4a57607f821691505b60208210811415610e5e57610e5d610f0d565b5b50919050565b610e6d82610f7f565b810181811067ffffffffffffffff82111715610e8c57610e8b610f3c565b5b80604052505050565b6000610ea082610de6565b91507fffffffffffffffffffffffffffffffffffffffffffffffffffffffffffffffff821415610ed357610ed2610ede565b5b600182019050919050565b7f4e487b7100000000000000000000000000000000000000000000000000000000600052601160045260246000fd5b7f4e487b7100000000000000000000000000000000000000000000000000000000600052602260045260246000fd5b7f4e487b7100000000000000000000000000000000000000000000000000000000600052604160045260246000fd5b600080fd5b600080fd5b600080fd5b600080fd5b6000601f19601f8301169050919050565b7f546f646f20776974682063757272656e74204944206e6f7420666f756e640000600082015250565b7f4e6f20746f646f7320666f756e642e0000000000000000000000000000000000600082015250565b610feb81610da8565b8114610ff657600080fd5b50565b61100281610de6565b811461100d57600080fd5b5056fea2646970667358221220634a68db974252ee749a037ca231f02f87a39228b4cd3804e82f519a706521de64736f6c63430008070033",
					"opcodes": "PUSH1 0x80 PUSH1 0x40 MSTORE CALLVALUE DUP1 ISZERO PUSH2 0x10 JUMPI PUSH1 0x0 DUP1 REVERT JUMPDEST POP PUSH2 0x1046 DUP1 PUSH2 0x20 PUSH1 0x0 CODECOPY PUSH1 0x0 RETURN INVALID PUSH1 0x80 PUSH1 0x40 MSTORE CALLVALUE DUP1 ISZERO PUSH2 0x10 JUMPI PUSH1 0x0 DUP1 REVERT JUMPDEST POP PUSH1 0x4 CALLDATASIZE LT PUSH2 0x57 JUMPI PUSH1 0x0 CALLDATALOAD PUSH1 0xE0 SHR DUP1 PUSH4 0x1B7FB260 EQ PUSH2 0x5C JUMPI DUP1 PUSH4 0x97292CE5 EQ PUSH2 0x78 JUMPI DUP1 PUSH4 0xC12327B8 EQ PUSH2 0xAB JUMPI DUP1 PUSH4 0xD321FE29 EQ PUSH2 0xDB JUMPI DUP1 PUSH4 0xDD68AFB6 EQ PUSH2 0xF9 JUMPI JUMPDEST PUSH1 0x0 DUP1 REVERT JUMPDEST PUSH2 0x76 PUSH1 0x4 DUP1 CALLDATASIZE SUB DUP2 ADD SWAP1 PUSH2 0x71 SWAP2 SWAP1 PUSH2 0x990 JUMP JUMPDEST PUSH2 0x129 JUMP JUMPDEST STOP JUMPDEST PUSH2 0x92 PUSH1 0x4 DUP1 CALLDATASIZE SUB DUP2 ADD SWAP1 PUSH2 0x8D SWAP2 SWAP1 PUSH2 0x93D JUMP JUMPDEST PUSH2 0x302 JUMP JUMPDEST PUSH1 0x40 MLOAD PUSH2 0xA2 SWAP5 SWAP4 SWAP3 SWAP2 SWAP1 PUSH2 0xC99 JUMP JUMPDEST PUSH1 0x40 MLOAD DUP1 SWAP2 SUB SWAP1 RETURN JUMPDEST PUSH2 0xC5 PUSH1 0x4 DUP1 CALLDATASIZE SUB DUP2 ADD SWAP1 PUSH2 0xC0 SWAP2 SWAP1 PUSH2 0x910 JUMP JUMPDEST PUSH2 0x479 JUMP JUMPDEST PUSH1 0x40 MLOAD PUSH2 0xD2 SWAP2 SWAP1 PUSH2 0xC7E JUMP JUMPDEST PUSH1 0x40 MLOAD DUP1 SWAP2 SUB SWAP1 RETURN JUMPDEST PUSH2 0xE3 PUSH2 0x491 JUMP JUMPDEST PUSH1 0x40 MLOAD PUSH2 0xF0 SWAP2 SWAP1 PUSH2 0xC7E JUMP JUMPDEST PUSH1 0x40 MLOAD DUP1 SWAP2 SUB SWAP1 RETURN JUMPDEST PUSH2 0x113 PUSH1 0x4 DUP1 CALLDATASIZE SUB DUP2 ADD SWAP1 PUSH2 0x10E SWAP2 SWAP1 PUSH2 0xA08 JUMP JUMPDEST PUSH2 0x4D8 JUMP JUMPDEST PUSH1 0x40 MLOAD PUSH2 0x120 SWAP2 SWAP1 PUSH2 0xC1C JUMP JUMPDEST PUSH1 0x40 MLOAD DUP1 SWAP2 SUB SWAP1 RETURN JUMPDEST PUSH1 0x1 PUSH1 0x0 CALLER PUSH20 0xFFFFFFFFFFFFFFFFFFFFFFFFFFFFFFFFFFFFFFFF AND PUSH20 0xFFFFFFFFFFFFFFFFFFFFFFFFFFFFFFFFFFFFFFFF AND DUP2 MSTORE PUSH1 0x20 ADD SWAP1 DUP2 MSTORE PUSH1 0x20 ADD PUSH1 0x0 KECCAK256 PUSH1 0x0 DUP2 SLOAD DUP1 SWAP3 SWAP2 SWAP1 PUSH2 0x179 SWAP1 PUSH2 0xE95 JUMP JUMPDEST SWAP2 SWAP1 POP SSTORE POP PUSH1 0x0 DUP1 CALLER PUSH20 0xFFFFFFFFFFFFFFFFFFFFFFFFFFFFFFFFFFFFFFFF AND PUSH20 0xFFFFFFFFFFFFFFFFFFFFFFFFFFFFFFFFFFFFFFFF AND DUP2 MSTORE PUSH1 0x20 ADD SWAP1 DUP2 MSTORE PUSH1 0x20 ADD PUSH1 0x0 KECCAK256 PUSH1 0x0 PUSH1 0x1 PUSH1 0x0 CALLER PUSH20 0xFFFFFFFFFFFFFFFFFFFFFFFFFFFFFFFFFFFFFFFF AND PUSH20 0xFFFFFFFFFFFFFFFFFFFFFFFFFFFFFFFFFFFFFFFF AND DUP2 MSTORE PUSH1 0x20 ADD SWAP1 DUP2 MSTORE PUSH1 0x20 ADD PUSH1 0x0 KECCAK256 SLOAD DUP2 MSTORE PUSH1 0x20 ADD SWAP1 DUP2 MSTORE PUSH1 0x20 ADD PUSH1 0x0 KECCAK256 PUSH1 0x40 MLOAD DUP1 PUSH1 0x80 ADD PUSH1 0x40 MSTORE DUP1 PUSH1 0x1 PUSH1 0x0 CALLER PUSH20 0xFFFFFFFFFFFFFFFFFFFFFFFFFFFFFFFFFFFFFFFF AND PUSH20 0xFFFFFFFFFFFFFFFFFFFFFFFFFFFFFFFFFFFFFFFF AND DUP2 MSTORE PUSH1 0x20 ADD SWAP1 DUP2 MSTORE PUSH1 0x20 ADD PUSH1 0x0 KECCAK256 SLOAD DUP2 MSTORE PUSH1 0x20 ADD DUP5 DUP2 MSTORE PUSH1 0x20 ADD DUP4 DUP2 MSTORE PUSH1 0x20 ADD PUSH1 0x0 ISZERO ISZERO DUP2 MSTORE POP SWAP1 DUP1 PUSH1 0x1 DUP2 SLOAD ADD DUP1 DUP3 SSTORE DUP1 SWAP2 POP POP PUSH1 0x1 SWAP1 SUB SWAP1 PUSH1 0x0 MSTORE PUSH1 0x20 PUSH1 0x0 KECCAK256 SWAP1 PUSH1 0x4 MUL ADD PUSH1 0x0 SWAP1 SWAP2 SWAP1 SWAP2 SWAP1 SWAP2 POP PUSH1 0x0 DUP3 ADD MLOAD DUP2 PUSH1 0x0 ADD SSTORE PUSH1 0x20 DUP3 ADD MLOAD DUP2 PUSH1 0x1 ADD SWAP1 DUP1 MLOAD SWAP1 PUSH1 0x20 ADD SWAP1 PUSH2 0x2BE SWAP3 SWAP2 SWAP1 PUSH2 0x7D3 JUMP JUMPDEST POP PUSH1 0x40 DUP3 ADD MLOAD DUP2 PUSH1 0x2 ADD SWAP1 DUP1 MLOAD SWAP1 PUSH1 0x20 ADD SWAP1 PUSH2 0x2DB SWAP3 SWAP2 SWAP1 PUSH2 0x7D3 JUMP JUMPDEST POP PUSH1 0x60 DUP3 ADD MLOAD DUP2 PUSH1 0x3 ADD PUSH1 0x0 PUSH2 0x100 EXP DUP2 SLOAD DUP2 PUSH1 0xFF MUL NOT AND SWAP1 DUP4 ISZERO ISZERO MUL OR SWAP1 SSTORE POP POP POP POP POP JUMP JUMPDEST PUSH1 0x0 PUSH1 0x20 MSTORE DUP3 PUSH1 0x0 MSTORE PUSH1 0x40 PUSH1 0x0 KECCAK256 PUSH1 0x20 MSTORE DUP2 PUSH1 0x0 MSTORE PUSH1 0x40 PUSH1 0x0 KECCAK256 DUP2 DUP2 SLOAD DUP2 LT PUSH2 0x32A JUMPI PUSH1 0x0 DUP1 REVERT JUMPDEST SWAP1 PUSH1 0x0 MSTORE PUSH1 0x20 PUSH1 0x0 KECCAK256 SWAP1 PUSH1 0x4 MUL ADD PUSH1 0x0 SWAP3 POP SWAP3 POP POP POP DUP1 PUSH1 0x0 ADD SLOAD SWAP1 DUP1 PUSH1 0x1 ADD DUP1 SLOAD PUSH2 0x355 SWAP1 PUSH2 0xE32 JUMP JUMPDEST DUP1 PUSH1 0x1F ADD PUSH1 0x20 DUP1 SWAP2 DIV MUL PUSH1 0x20 ADD PUSH1 0x40 MLOAD SWAP1 DUP2 ADD PUSH1 0x40 MSTORE DUP1 SWAP3 SWAP2 SWAP1 DUP2 DUP2 MSTORE PUSH1 0x20 ADD DUP3 DUP1 SLOAD PUSH2 0x381 SWAP1 PUSH2 0xE32 JUMP JUMPDEST DUP1 ISZERO PUSH2 0x3CE JUMPI DUP1 PUSH1 0x1F LT PUSH2 0x3A3 JUMPI PUSH2 0x100 DUP1 DUP4 SLOAD DIV MUL DUP4 MSTORE SWAP2 PUSH1 0x20 ADD SWAP2 PUSH2 0x3CE JUMP JUMPDEST DUP3 ADD SWAP2 SWAP1 PUSH1 0x0 MSTORE PUSH1 0x20 PUSH1 0x0 KECCAK256 SWAP1 JUMPDEST DUP2 SLOAD DUP2 MSTORE SWAP1 PUSH1 0x1 ADD SWAP1 PUSH1 0x20 ADD DUP1 DUP4 GT PUSH2 0x3B1 JUMPI DUP3 SWAP1 SUB PUSH1 0x1F AND DUP3 ADD SWAP2 JUMPDEST POP POP POP POP POP SWAP1 DUP1 PUSH1 0x2 ADD DUP1 SLOAD PUSH2 0x3E3 SWAP1 PUSH2 0xE32 JUMP JUMPDEST DUP1 PUSH1 0x1F ADD PUSH1 0x20 DUP1 SWAP2 DIV MUL PUSH1 0x20 ADD PUSH1 0x40 MLOAD SWAP1 DUP2 ADD PUSH1 0x40 MSTORE DUP1 SWAP3 SWAP2 SWAP1 DUP2 DUP2 MSTORE PUSH1 0x20 ADD DUP3 DUP1 SLOAD PUSH2 0x40F SWAP1 PUSH2 0xE32 JUMP JUMPDEST DUP1 ISZERO PUSH2 0x45C JUMPI DUP1 PUSH1 0x1F LT PUSH2 0x431 JUMPI PUSH2 0x100 DUP1 DUP4 SLOAD DIV MUL DUP4 MSTORE SWAP2 PUSH1 0x20 ADD SWAP2 PUSH2 0x45C JUMP JUMPDEST DUP3 ADD SWAP2 SWAP1 PUSH1 0x0 MSTORE PUSH1 0x20 PUSH1 0x0 KECCAK256 SWAP1 JUMPDEST DUP2 SLOAD DUP2 MSTORE SWAP1 PUSH1 0x1 ADD SWAP1 PUSH1 0x20 ADD DUP1 DUP4 GT PUSH2 0x43F JUMPI DUP3 SWAP1 SUB PUSH1 0x1F AND DUP3 ADD SWAP2 JUMPDEST POP POP POP POP POP SWAP1 DUP1 PUSH1 0x3 ADD PUSH1 0x0 SWAP1 SLOAD SWAP1 PUSH2 0x100 EXP SWAP1 DIV PUSH1 0xFF AND SWAP1 POP DUP5 JUMP JUMPDEST PUSH1 0x1 PUSH1 0x20 MSTORE DUP1 PUSH1 0x0 MSTORE PUSH1 0x40 PUSH1 0x0 KECCAK256 PUSH1 0x0 SWAP2 POP SWAP1 POP SLOAD DUP2 JUMP JUMPDEST PUSH1 0x0 PUSH1 0x1 PUSH1 0x0 CALLER PUSH20 0xFFFFFFFFFFFFFFFFFFFFFFFFFFFFFFFFFFFFFFFF AND PUSH20 0xFFFFFFFFFFFFFFFFFFFFFFFFFFFFFFFFFFFFFFFF AND DUP2 MSTORE PUSH1 0x20 ADD SWAP1 DUP2 MSTORE PUSH1 0x20 ADD PUSH1 0x0 KECCAK256 SLOAD SWAP1 POP SWAP1 JUMP JUMPDEST PUSH1 0x60 PUSH1 0x0 PUSH1 0x1 PUSH1 0x0 CALLER PUSH20 0xFFFFFFFFFFFFFFFFFFFFFFFFFFFFFFFFFFFFFFFF AND PUSH20 0xFFFFFFFFFFFFFFFFFFFFFFFFFFFFFFFFFFFFFFFF AND DUP2 MSTORE PUSH1 0x20 ADD SWAP1 DUP2 MSTORE PUSH1 0x20 ADD PUSH1 0x0 KECCAK256 SLOAD GT PUSH2 0x55C JUMPI PUSH1 0x40 MLOAD PUSH32 0x8C379A000000000000000000000000000000000000000000000000000000000 DUP2 MSTORE PUSH1 0x4 ADD PUSH2 0x553 SWAP1 PUSH2 0xC5E JUMP JUMPDEST PUSH1 0x40 MLOAD DUP1 SWAP2 SUB SWAP1 REVERT JUMPDEST PUSH1 0x1 PUSH1 0x0 CALLER PUSH20 0xFFFFFFFFFFFFFFFFFFFFFFFFFFFFFFFFFFFFFFFF AND PUSH20 0xFFFFFFFFFFFFFFFFFFFFFFFFFFFFFFFFFFFFFFFF AND DUP2 MSTORE PUSH1 0x20 ADD SWAP1 DUP2 MSTORE PUSH1 0x20 ADD PUSH1 0x0 KECCAK256 SLOAD DUP3 GT ISZERO PUSH2 0x5DE JUMPI PUSH1 0x40 MLOAD PUSH32 0x8C379A000000000000000000000000000000000000000000000000000000000 DUP2 MSTORE PUSH1 0x4 ADD PUSH2 0x5D5 SWAP1 PUSH2 0xC3E JUMP JUMPDEST PUSH1 0x40 MLOAD DUP1 SWAP2 SUB SWAP1 REVERT JUMPDEST PUSH1 0x0 DUP1 CALLER PUSH20 0xFFFFFFFFFFFFFFFFFFFFFFFFFFFFFFFFFFFFFFFF AND PUSH20 0xFFFFFFFFFFFFFFFFFFFFFFFFFFFFFFFFFFFFFFFF AND DUP2 MSTORE PUSH1 0x20 ADD SWAP1 DUP2 MSTORE PUSH1 0x20 ADD PUSH1 0x0 KECCAK256 PUSH1 0x0 DUP4 DUP2 MSTORE PUSH1 0x20 ADD SWAP1 DUP2 MSTORE PUSH1 0x20 ADD PUSH1 0x0 KECCAK256 DUP1 SLOAD DUP1 PUSH1 0x20 MUL PUSH1 0x20 ADD PUSH1 0x40 MLOAD SWAP1 DUP2 ADD PUSH1 0x40 MSTORE DUP1 SWAP3 SWAP2 SWAP1 DUP2 DUP2 MSTORE PUSH1 0x20 ADD PUSH1 0x0 SWAP1 JUMPDEST DUP3 DUP3 LT ISZERO PUSH2 0x7C8 JUMPI DUP4 DUP3 SWAP1 PUSH1 0x0 MSTORE PUSH1 0x20 PUSH1 0x0 KECCAK256 SWAP1 PUSH1 0x4 MUL ADD PUSH1 0x40 MLOAD DUP1 PUSH1 0x80 ADD PUSH1 0x40 MSTORE SWAP1 DUP2 PUSH1 0x0 DUP3 ADD SLOAD DUP2 MSTORE PUSH1 0x20 ADD PUSH1 0x1 DUP3 ADD DUP1 SLOAD PUSH2 0x68A SWAP1 PUSH2 0xE32 JUMP JUMPDEST DUP1 PUSH1 0x1F ADD PUSH1 0x20 DUP1 SWAP2 DIV MUL PUSH1 0x20 ADD PUSH1 0x40 MLOAD SWAP1 DUP2 ADD PUSH1 0x40 MSTORE DUP1 SWAP3 SWAP2 SWAP1 DUP2 DUP2 MSTORE PUSH1 0x20 ADD DUP3 DUP1 SLOAD PUSH2 0x6B6 SWAP1 PUSH2 0xE32 JUMP JUMPDEST DUP1 ISZERO PUSH2 0x703 JUMPI DUP1 PUSH1 0x1F LT PUSH2 0x6D8 JUMPI PUSH2 0x100 DUP1 DUP4 SLOAD DIV MUL DUP4 MSTORE SWAP2 PUSH1 0x20 ADD SWAP2 PUSH2 0x703 JUMP JUMPDEST DUP3 ADD SWAP2 SWAP1 PUSH1 0x0 MSTORE PUSH1 0x20 PUSH1 0x0 KECCAK256 SWAP1 JUMPDEST DUP2 SLOAD DUP2 MSTORE SWAP1 PUSH1 0x1 ADD SWAP1 PUSH1 0x20 ADD DUP1 DUP4 GT PUSH2 0x6E6 JUMPI DUP3 SWAP1 SUB PUSH1 0x1F AND DUP3 ADD SWAP2 JUMPDEST POP POP POP POP POP DUP2 MSTORE PUSH1 0x20 ADD PUSH1 0x2 DUP3 ADD DUP1 SLOAD PUSH2 0x71C SWAP1 PUSH2 0xE32 JUMP JUMPDEST DUP1 PUSH1 0x1F ADD PUSH1 0x20 DUP1 SWAP2 DIV MUL PUSH1 0x20 ADD PUSH1 0x40 MLOAD SWAP1 DUP2 ADD PUSH1 0x40 MSTORE DUP1 SWAP3 SWAP2 SWAP1 DUP2 DUP2 MSTORE PUSH1 0x20 ADD DUP3 DUP1 SLOAD PUSH2 0x748 SWAP1 PUSH2 0xE32 JUMP JUMPDEST DUP1 ISZERO PUSH2 0x795 JUMPI DUP1 PUSH1 0x1F LT PUSH2 0x76A JUMPI PUSH2 0x100 DUP1 DUP4 SLOAD DIV MUL DUP4 MSTORE SWAP2 PUSH1 0x20 ADD SWAP2 PUSH2 0x795 JUMP JUMPDEST DUP3 ADD SWAP2 SWAP1 PUSH1 0x0 MSTORE PUSH1 0x20 PUSH1 0x0 KECCAK256 SWAP1 JUMPDEST DUP2 SLOAD DUP2 MSTORE SWAP1 PUSH1 0x1 ADD SWAP1 PUSH1 0x20 ADD DUP1 DUP4 GT PUSH2 0x778 JUMPI DUP3 SWAP1 SUB PUSH1 0x1F AND DUP3 ADD SWAP2 JUMPDEST POP POP POP POP POP DUP2 MSTORE PUSH1 0x20 ADD PUSH1 0x3 DUP3 ADD PUSH1 0x0 SWAP1 SLOAD SWAP1 PUSH2 0x100 EXP SWAP1 DIV PUSH1 0xFF AND ISZERO ISZERO ISZERO ISZERO DUP2 MSTORE POP POP DUP2 MSTORE PUSH1 0x20 ADD SWAP1 PUSH1 0x1 ADD SWAP1 PUSH2 0x64D JUMP JUMPDEST POP POP POP POP SWAP1 POP SWAP2 SWAP1 POP JUMP JUMPDEST DUP3 DUP1 SLOAD PUSH2 0x7DF SWAP1 PUSH2 0xE32 JUMP JUMPDEST SWAP1 PUSH1 0x0 MSTORE PUSH1 0x20 PUSH1 0x0 KECCAK256 SWAP1 PUSH1 0x1F ADD PUSH1 0x20 SWAP1 DIV DUP2 ADD SWAP3 DUP3 PUSH2 0x801 JUMPI PUSH1 0x0 DUP6 SSTORE PUSH2 0x848 JUMP JUMPDEST DUP3 PUSH1 0x1F LT PUSH2 0x81A JUMPI DUP1 MLOAD PUSH1 0xFF NOT AND DUP4 DUP1 ADD OR DUP6 SSTORE PUSH2 0x848 JUMP JUMPDEST DUP3 DUP1 ADD PUSH1 0x1 ADD DUP6 SSTORE DUP3 ISZERO PUSH2 0x848 JUMPI SWAP2 DUP3 ADD JUMPDEST DUP3 DUP2 GT ISZERO PUSH2 0x847 JUMPI DUP3 MLOAD DUP3 SSTORE SWAP2 PUSH1 0x20 ADD SWAP2 SWAP1 PUSH1 0x1 ADD SWAP1 PUSH2 0x82C JUMP JUMPDEST JUMPDEST POP SWAP1 POP PUSH2 0x855 SWAP2 SWAP1 PUSH2 0x859 JUMP JUMPDEST POP SWAP1 JUMP JUMPDEST JUMPDEST DUP1 DUP3 GT ISZERO PUSH2 0x872 JUMPI PUSH1 0x0 DUP2 PUSH1 0x0 SWAP1 SSTORE POP PUSH1 0x1 ADD PUSH2 0x85A JUMP JUMPDEST POP SWAP1 JUMP JUMPDEST PUSH1 0x0 PUSH2 0x889 PUSH2 0x884 DUP5 PUSH2 0xD11 JUMP JUMPDEST PUSH2 0xCEC JUMP JUMPDEST SWAP1 POP DUP3 DUP2 MSTORE PUSH1 0x20 DUP2 ADD DUP5 DUP5 DUP5 ADD GT ISZERO PUSH2 0x8A5 JUMPI PUSH2 0x8A4 PUSH2 0xF70 JUMP JUMPDEST JUMPDEST PUSH2 0x8B0 DUP5 DUP3 DUP6 PUSH2 0xDF0 JUMP JUMPDEST POP SWAP4 SWAP3 POP POP POP JUMP JUMPDEST PUSH1 0x0 DUP2 CALLDATALOAD SWAP1 POP PUSH2 0x8C7 DUP2 PUSH2 0xFE2 JUMP JUMPDEST SWAP3 SWAP2 POP POP JUMP JUMPDEST PUSH1 0x0 DUP3 PUSH1 0x1F DUP4 ADD SLT PUSH2 0x8E2 JUMPI PUSH2 0x8E1 PUSH2 0xF6B JUMP JUMPDEST JUMPDEST DUP2 CALLDATALOAD PUSH2 0x8F2 DUP5 DUP3 PUSH1 0x20 DUP7 ADD PUSH2 0x876 JUMP JUMPDEST SWAP2 POP POP SWAP3 SWAP2 POP POP JUMP JUMPDEST PUSH1 0x0 DUP2 CALLDATALOAD SWAP1 POP PUSH2 0x90A DUP2 PUSH2 0xFF9 JUMP JUMPDEST SWAP3 SWAP2 POP POP JUMP JUMPDEST PUSH1 0x0 PUSH1 0x20 DUP3 DUP5 SUB SLT ISZERO PUSH2 0x926 JUMPI PUSH2 0x925 PUSH2 0xF7A JUMP JUMPDEST JUMPDEST PUSH1 0x0 PUSH2 0x934 DUP5 DUP3 DUP6 ADD PUSH2 0x8B8 JUMP JUMPDEST SWAP2 POP POP SWAP3 SWAP2 POP POP JUMP JUMPDEST PUSH1 0x0 DUP1 PUSH1 0x0 PUSH1 0x60 DUP5 DUP7 SUB SLT ISZERO PUSH2 0x956 JUMPI PUSH2 0x955 PUSH2 0xF7A JUMP JUMPDEST JUMPDEST PUSH1 0x0 PUSH2 0x964 DUP7 DUP3 DUP8 ADD PUSH2 0x8B8 JUMP JUMPDEST SWAP4 POP POP PUSH1 0x20 PUSH2 0x975 DUP7 DUP3 DUP8 ADD PUSH2 0x8FB JUMP JUMPDEST SWAP3 POP POP PUSH1 0x40 PUSH2 0x986 DUP7 DUP3 DUP8 ADD PUSH2 0x8FB JUMP JUMPDEST SWAP2 POP POP SWAP3 POP SWAP3 POP SWAP3 JUMP JUMPDEST PUSH1 0x0 DUP1 PUSH1 0x40 DUP4 DUP6 SUB SLT ISZERO PUSH2 0x9A7 JUMPI PUSH2 0x9A6 PUSH2 0xF7A JUMP JUMPDEST JUMPDEST PUSH1 0x0 DUP4 ADD CALLDATALOAD PUSH8 0xFFFFFFFFFFFFFFFF DUP2 GT ISZERO PUSH2 0x9C5 JUMPI PUSH2 0x9C4 PUSH2 0xF75 JUMP JUMPDEST JUMPDEST PUSH2 0x9D1 DUP6 DUP3 DUP7 ADD PUSH2 0x8CD JUMP JUMPDEST SWAP3 POP POP PUSH1 0x20 DUP4 ADD CALLDATALOAD PUSH8 0xFFFFFFFFFFFFFFFF DUP2 GT ISZERO PUSH2 0x9F2 JUMPI PUSH2 0x9F1 PUSH2 0xF75 JUMP JUMPDEST JUMPDEST PUSH2 0x9FE DUP6 DUP3 DUP7 ADD PUSH2 0x8CD JUMP JUMPDEST SWAP2 POP POP SWAP3 POP SWAP3 SWAP1 POP JUMP JUMPDEST PUSH1 0x0 PUSH1 0x20 DUP3 DUP5 SUB SLT ISZERO PUSH2 0xA1E JUMPI PUSH2 0xA1D PUSH2 0xF7A JUMP JUMPDEST JUMPDEST PUSH1 0x0 PUSH2 0xA2C DUP5 DUP3 DUP6 ADD PUSH2 0x8FB JUMP JUMPDEST SWAP2 POP POP SWAP3 SWAP2 POP POP JUMP JUMPDEST PUSH1 0x0 PUSH2 0xA41 DUP4 DUP4 PUSH2 0xB94 JUMP JUMPDEST SWAP1 POP SWAP3 SWAP2 POP POP JUMP JUMPDEST PUSH1 0x0 PUSH2 0xA54 DUP3 PUSH2 0xD52 JUMP JUMPDEST PUSH2 0xA5E DUP2 DUP6 PUSH2 0xD75 JUMP JUMPDEST SWAP4 POP DUP4 PUSH1 0x20 DUP3 MUL DUP6 ADD PUSH2 0xA70 DUP6 PUSH2 0xD42 JUMP JUMPDEST DUP1 PUSH1 0x0 JUMPDEST DUP6 DUP2 LT ISZERO PUSH2 0xAAC JUMPI DUP5 DUP5 SUB DUP10 MSTORE DUP2 MLOAD PUSH2 0xA8D DUP6 DUP3 PUSH2 0xA35 JUMP JUMPDEST SWAP5 POP PUSH2 0xA98 DUP4 PUSH2 0xD68 JUMP JUMPDEST SWAP3 POP PUSH1 0x20 DUP11 ADD SWAP10 POP POP PUSH1 0x1 DUP2 ADD SWAP1 POP PUSH2 0xA74 JUMP JUMPDEST POP DUP3 SWAP8 POP DUP8 SWAP6 POP POP POP POP POP POP SWAP3 SWAP2 POP POP JUMP JUMPDEST PUSH2 0xAC7 DUP2 PUSH2 0xDBA JUMP JUMPDEST DUP3 MSTORE POP POP JUMP JUMPDEST PUSH2 0xAD6 DUP2 PUSH2 0xDBA JUMP JUMPDEST DUP3 MSTORE POP POP JUMP JUMPDEST PUSH1 0x0 PUSH2 0xAE7 DUP3 PUSH2 0xD5D JUMP JUMPDEST PUSH2 0xAF1 DUP2 DUP6 PUSH2 0xD86 JUMP JUMPDEST SWAP4 POP PUSH2 0xB01 DUP2 DUP6 PUSH1 0x20 DUP7 ADD PUSH2 0xDFF JUMP JUMPDEST PUSH2 0xB0A DUP2 PUSH2 0xF7F JUMP JUMPDEST DUP5 ADD SWAP2 POP POP SWAP3 SWAP2 POP POP JUMP JUMPDEST PUSH1 0x0 PUSH2 0xB20 DUP3 PUSH2 0xD5D JUMP JUMPDEST PUSH2 0xB2A DUP2 DUP6 PUSH2 0xD97 JUMP JUMPDEST SWAP4 POP PUSH2 0xB3A DUP2 DUP6 PUSH1 0x20 DUP7 ADD PUSH2 0xDFF JUMP JUMPDEST PUSH2 0xB43 DUP2 PUSH2 0xF7F JUMP JUMPDEST DUP5 ADD SWAP2 POP POP SWAP3 SWAP2 POP POP JUMP JUMPDEST PUSH1 0x0 PUSH2 0xB5B PUSH1 0x1E DUP4 PUSH2 0xD97 JUMP JUMPDEST SWAP2 POP PUSH2 0xB66 DUP3 PUSH2 0xF90 JUMP JUMPDEST PUSH1 0x20 DUP3 ADD SWAP1 POP SWAP2 SWAP1 POP JUMP JUMPDEST PUSH1 0x0 PUSH2 0xB7E PUSH1 0xF DUP4 PUSH2 0xD97 JUMP JUMPDEST SWAP2 POP PUSH2 0xB89 DUP3 PUSH2 0xFB9 JUMP JUMPDEST PUSH1 0x20 DUP3 ADD SWAP1 POP SWAP2 SWAP1 POP JUMP JUMPDEST PUSH1 0x0 PUSH1 0x80 DUP4 ADD PUSH1 0x0 DUP4 ADD MLOAD PUSH2 0xBAC PUSH1 0x0 DUP7 ADD DUP3 PUSH2 0xBFE JUMP JUMPDEST POP PUSH1 0x20 DUP4 ADD MLOAD DUP5 DUP3 SUB PUSH1 0x20 DUP7 ADD MSTORE PUSH2 0xBC4 DUP3 DUP3 PUSH2 0xADC JUMP JUMPDEST SWAP2 POP POP PUSH1 0x40 DUP4 ADD MLOAD DUP5 DUP3 SUB PUSH1 0x40 DUP7 ADD MSTORE PUSH2 0xBDE DUP3 DUP3 PUSH2 0xADC JUMP JUMPDEST SWAP2 POP POP PUSH1 0x60 DUP4 ADD MLOAD PUSH2 0xBF3 PUSH1 0x60 DUP7 ADD DUP3 PUSH2 0xABE JUMP JUMPDEST POP DUP1 SWAP2 POP POP SWAP3 SWAP2 POP POP JUMP JUMPDEST PUSH2 0xC07 DUP2 PUSH2 0xDE6 JUMP JUMPDEST DUP3 MSTORE POP POP JUMP JUMPDEST PUSH2 0xC16 DUP2 PUSH2 0xDE6 JUMP JUMPDEST DUP3 MSTORE POP POP JUMP JUMPDEST PUSH1 0x0 PUSH1 0x20 DUP3 ADD SWAP1 POP DUP2 DUP2 SUB PUSH1 0x0 DUP4 ADD MSTORE PUSH2 0xC36 DUP2 DUP5 PUSH2 0xA49 JUMP JUMPDEST SWAP1 POP SWAP3 SWAP2 POP POP JUMP JUMPDEST PUSH1 0x0 PUSH1 0x20 DUP3 ADD SWAP1 POP DUP2 DUP2 SUB PUSH1 0x0 DUP4 ADD MSTORE PUSH2 0xC57 DUP2 PUSH2 0xB4E JUMP JUMPDEST SWAP1 POP SWAP2 SWAP1 POP JUMP JUMPDEST PUSH1 0x0 PUSH1 0x20 DUP3 ADD SWAP1 POP DUP2 DUP2 SUB PUSH1 0x0 DUP4 ADD MSTORE PUSH2 0xC77 DUP2 PUSH2 0xB71 JUMP JUMPDEST SWAP1 POP SWAP2 SWAP1 POP JUMP JUMPDEST PUSH1 0x0 PUSH1 0x20 DUP3 ADD SWAP1 POP PUSH2 0xC93 PUSH1 0x0 DUP4 ADD DUP5 PUSH2 0xC0D JUMP JUMPDEST SWAP3 SWAP2 POP POP JUMP JUMPDEST PUSH1 0x0 PUSH1 0x80 DUP3 ADD SWAP1 POP PUSH2 0xCAE PUSH1 0x0 DUP4 ADD DUP8 PUSH2 0xC0D JUMP JUMPDEST DUP2 DUP2 SUB PUSH1 0x20 DUP4 ADD MSTORE PUSH2 0xCC0 DUP2 DUP7 PUSH2 0xB15 JUMP JUMPDEST SWAP1 POP DUP2 DUP2 SUB PUSH1 0x40 DUP4 ADD MSTORE PUSH2 0xCD4 DUP2 DUP6 PUSH2 0xB15 JUMP JUMPDEST SWAP1 POP PUSH2 0xCE3 PUSH1 0x60 DUP4 ADD DUP5 PUSH2 0xACD JUMP JUMPDEST SWAP6 SWAP5 POP POP POP POP POP JUMP JUMPDEST PUSH1 0x0 PUSH2 0xCF6 PUSH2 0xD07 JUMP JUMPDEST SWAP1 POP PUSH2 0xD02 DUP3 DUP3 PUSH2 0xE64 JUMP JUMPDEST SWAP2 SWAP1 POP JUMP JUMPDEST PUSH1 0x0 PUSH1 0x40 MLOAD SWAP1 POP SWAP1 JUMP JUMPDEST PUSH1 0x0 PUSH8 0xFFFFFFFFFFFFFFFF DUP3 GT ISZERO PUSH2 0xD2C JUMPI PUSH2 0xD2B PUSH2 0xF3C JUMP JUMPDEST JUMPDEST PUSH2 0xD35 DUP3 PUSH2 0xF7F JUMP JUMPDEST SWAP1 POP PUSH1 0x20 DUP2 ADD SWAP1 POP SWAP2 SWAP1 POP JUMP JUMPDEST PUSH1 0x0 DUP2 SWAP1 POP PUSH1 0x20 DUP3 ADD SWAP1 POP SWAP2 SWAP1 POP JUMP JUMPDEST PUSH1 0x0 DUP2 MLOAD SWAP1 POP SWAP2 SWAP1 POP JUMP JUMPDEST PUSH1 0x0 DUP2 MLOAD SWAP1 POP SWAP2 SWAP1 POP JUMP JUMPDEST PUSH1 0x0 PUSH1 0x20 DUP3 ADD SWAP1 POP SWAP2 SWAP1 POP JUMP JUMPDEST PUSH1 0x0 DUP3 DUP3 MSTORE PUSH1 0x20 DUP3 ADD SWAP1 POP SWAP3 SWAP2 POP POP JUMP JUMPDEST PUSH1 0x0 DUP3 DUP3 MSTORE PUSH1 0x20 DUP3 ADD SWAP1 POP SWAP3 SWAP2 POP POP JUMP JUMPDEST PUSH1 0x0 DUP3 DUP3 MSTORE PUSH1 0x20 DUP3 ADD SWAP1 POP SWAP3 SWAP2 POP POP JUMP JUMPDEST PUSH1 0x0 PUSH2 0xDB3 DUP3 PUSH2 0xDC6 JUMP JUMPDEST SWAP1 POP SWAP2 SWAP1 POP JUMP JUMPDEST PUSH1 0x0 DUP2 ISZERO ISZERO SWAP1 POP SWAP2 SWAP1 POP JUMP JUMPDEST PUSH1 0x0 PUSH20 0xFFFFFFFFFFFFFFFFFFFFFFFFFFFFFFFFFFFFFFFF DUP3 AND SWAP1 POP SWAP2 SWAP1 POP JUMP JUMPDEST PUSH1 0x0 DUP2 SWAP1 POP SWAP2 SWAP1 POP JUMP JUMPDEST DUP3 DUP2 DUP4 CALLDATACOPY PUSH1 0x0 DUP4 DUP4 ADD MSTORE POP POP POP JUMP JUMPDEST PUSH1 0x0 JUMPDEST DUP4 DUP2 LT ISZERO PUSH2 0xE1D JUMPI DUP1 DUP3 ADD MLOAD DUP2 DUP5 ADD MSTORE PUSH1 0x20 DUP2 ADD SWAP1 POP PUSH2 0xE02 JUMP JUMPDEST DUP4 DUP2 GT ISZERO PUSH2 0xE2C JUMPI PUSH1 0x0 DUP5 DUP5 ADD MSTORE JUMPDEST POP POP POP POP JUMP JUMPDEST PUSH1 0x0 PUSH1 0x2 DUP3 DIV SWAP1 POP PUSH1 0x1 DUP3 AND DUP1 PUSH2 0xE4A JUMPI PUSH1 0x7F DUP3 AND SWAP2 POP JUMPDEST PUSH1 0x20 DUP3 LT DUP2 EQ ISZERO PUSH2 0xE5E JUMPI PUSH2 0xE5D PUSH2 0xF0D JUMP JUMPDEST JUMPDEST POP SWAP2 SWAP1 POP JUMP JUMPDEST PUSH2 0xE6D DUP3 PUSH2 0xF7F JUMP JUMPDEST DUP2 ADD DUP2 DUP2 LT PUSH8 0xFFFFFFFFFFFFFFFF DUP3 GT OR ISZERO PUSH2 0xE8C JUMPI PUSH2 0xE8B PUSH2 0xF3C JUMP JUMPDEST JUMPDEST DUP1 PUSH1 0x40 MSTORE POP POP POP JUMP JUMPDEST PUSH1 0x0 PUSH2 0xEA0 DUP3 PUSH2 0xDE6 JUMP JUMPDEST SWAP2 POP PUSH32 0xFFFFFFFFFFFFFFFFFFFFFFFFFFFFFFFFFFFFFFFFFFFFFFFFFFFFFFFFFFFFFFFF DUP3 EQ ISZERO PUSH2 0xED3 JUMPI PUSH2 0xED2 PUSH2 0xEDE JUMP JUMPDEST JUMPDEST PUSH1 0x1 DUP3 ADD SWAP1 POP SWAP2 SWAP1 POP JUMP JUMPDEST PUSH32 0x4E487B7100000000000000000000000000000000000000000000000000000000 PUSH1 0x0 MSTORE PUSH1 0x11 PUSH1 0x4 MSTORE PUSH1 0x24 PUSH1 0x0 REVERT JUMPDEST PUSH32 0x4E487B7100000000000000000000000000000000000000000000000000000000 PUSH1 0x0 MSTORE PUSH1 0x22 PUSH1 0x4 MSTORE PUSH1 0x24 PUSH1 0x0 REVERT JUMPDEST PUSH32 0x4E487B7100000000000000000000000000000000000000000000000000000000 PUSH1 0x0 MSTORE PUSH1 0x41 PUSH1 0x4 MSTORE PUSH1 0x24 PUSH1 0x0 REVERT JUMPDEST PUSH1 0x0 DUP1 REVERT JUMPDEST PUSH1 0x0 DUP1 REVERT JUMPDEST PUSH1 0x0 DUP1 REVERT JUMPDEST PUSH1 0x0 DUP1 REVERT JUMPDEST PUSH1 0x0 PUSH1 0x1F NOT PUSH1 0x1F DUP4 ADD AND SWAP1 POP SWAP2 SWAP1 POP JUMP JUMPDEST PUSH32 0x546F646F20776974682063757272656E74204944206E6F7420666F756E640000 PUSH1 0x0 DUP3 ADD MSTORE POP JUMP JUMPDEST PUSH32 0x4E6F20746F646F7320666F756E642E0000000000000000000000000000000000 PUSH1 0x0 DUP3 ADD MSTORE POP JUMP JUMPDEST PUSH2 0xFEB DUP2 PUSH2 0xDA8 JUMP JUMPDEST DUP2 EQ PUSH2 0xFF6 JUMPI PUSH1 0x0 DUP1 REVERT JUMPDEST POP JUMP JUMPDEST PUSH2 0x1002 DUP2 PUSH2 0xDE6 JUMP JUMPDEST DUP2 EQ PUSH2 0x100D JUMPI PUSH1 0x0 DUP1 REVERT JUMPDEST POP JUMP INVALID LOG2 PUSH5 0x6970667358 0x22 SLT KECCAK256 PUSH4 0x4A68DB97 TIMESTAMP MSTORE 0xEE PUSH21 0x9A037CA231F02F87A39228B4CD3804E82F519A7065 0x21 0xDE PUSH5 0x736F6C6343 STOP ADDMOD SMOD STOP CALLER "
				},
				"gasEstimates": {
					"creation": {
						"codeDepositCost": "833200",
						"executionCost": "870",
						"totalCost": "834070"
					},
					"external": {
						"addTodo(string,string)": "infinite",
						"counter(address)": "2836",
						"getAmount()": "2570",
						"getTodo(uint256)": "infinite",
						"todos(address,uint256,uint256)": "infinite"
					}
				},
				"methodIdentifiers": {
					"addTodo(string,string)": "1b7fb260",
					"counter(address)": "c12327b8",
					"getAmount()": "d321fe29",
					"getTodo(uint256)": "dd68afb6",
					"todos(address,uint256,uint256)": "97292ce5"
				}
			},
			"storageLayout": {
				"storage": [
					{
						"astId": 20,
						"contract": "ToDoApp.sol:ToDoApp",
						"label": "todos",
						"offset": 0,
						"slot": "0",
						"type": "t_mapping(t_address,t_mapping(t_uint256,t_array(t_struct(ToDo)11_storage)dyn_storage))"
					},
					{
						"astId": 24,
						"contract": "ToDoApp.sol:ToDoApp",
						"label": "counter",
						"offset": 0,
						"slot": "1",
						"type": "t_mapping(t_address,t_uint256)"
					}
				],
				"types": {
					"t_address": {
						"encoding": "inplace",
						"label": "address",
						"numberOfBytes": "20"
					},
					"t_array(t_struct(ToDo)11_storage)dyn_storage": {
						"base": "t_struct(ToDo)11_storage",
						"encoding": "dynamic_array",
						"label": "struct ToDoApp.ToDo[]",
						"numberOfBytes": "32"
					},
					"t_bool": {
						"encoding": "inplace",
						"label": "bool",
						"numberOfBytes": "1"
					},
					"t_mapping(t_address,t_mapping(t_uint256,t_array(t_struct(ToDo)11_storage)dyn_storage))": {
						"encoding": "mapping",
						"key": "t_address",
						"label": "mapping(address => mapping(uint256 => struct ToDoApp.ToDo[]))",
						"numberOfBytes": "32",
						"value": "t_mapping(t_uint256,t_array(t_struct(ToDo)11_storage)dyn_storage)"
					},
					"t_mapping(t_address,t_uint256)": {
						"encoding": "mapping",
						"key": "t_address",
						"label": "mapping(address => uint256)",
						"numberOfBytes": "32",
						"value": "t_uint256"
					},
					"t_mapping(t_uint256,t_array(t_struct(ToDo)11_storage)dyn_storage)": {
						"encoding": "mapping",
						"key": "t_uint256",
						"label": "mapping(uint256 => struct ToDoApp.ToDo[])",
						"numberOfBytes": "32",
						"value": "t_array(t_struct(ToDo)11_storage)dyn_storage"
					},
					"t_string_storage": {
						"encoding": "bytes",
						"label": "string",
						"numberOfBytes": "32"
					},
					"t_struct(ToDo)11_storage": {
						"encoding": "inplace",
						"label": "struct ToDoApp.ToDo",
						"members": [
							{
								"astId": 4,
								"contract": "ToDoApp.sol:ToDoApp",
								"label": "id",
								"offset": 0,
								"slot": "0",
								"type": "t_uint256"
							},
							{
								"astId": 6,
								"contract": "ToDoApp.sol:ToDoApp",
								"label": "name",
								"offset": 0,
								"slot": "1",
								"type": "t_string_storage"
							},
							{
								"astId": 8,
								"contract": "ToDoApp.sol:ToDoApp",
								"label": "content",
								"offset": 0,
								"slot": "2",
								"type": "t_string_storage"
							},
							{
								"astId": 10,
								"contract": "ToDoApp.sol:ToDoApp",
								"label": "status",
								"offset": 0,
								"slot": "3",
								"type": "t_bool"
							}
						],
						"numberOfBytes": "128"
					},
					"t_uint256": {
						"encoding": "inplace",
						"label": "uint256",
						"numberOfBytes": "32"
					}
				}
			},
			"userdoc": {
				"kind": "user",
				"methods": {
					"addTodo(string,string)": {
						"notice": "Add new todo to memory. ID defaults to counter index and status defaults to false"
					},
					"constructor": {
						"notice": "Constructor"
					},
					"getAmount()": {
						"notice": "Get amount of todos"
					},
					"getTodo(uint256)": {
						"notice": "Get todo. Send error coder if id is not valid"
					},
					"todos(address,uint256,uint256)": {
						"notice": "Mappings"
					}
				},
				"notice": "A simple ToDo smart contract app",
				"version": 1
			}
		}
	}
}