{
	"ToDoApp.sol": {
		"ToDoApp": {
			"abi": [
				{
					"inputs": [],
					"stateMutability": "nonpayable",
					"type": "constructor"
				},
				{
					"inputs": [
						{
							"internalType": "uint256",
							"name": "id",
							"type": "uint256"
						},
						{
							"internalType": "string",
							"name": "name",
							"type": "string"
						},
						{
							"internalType": "string",
							"name": "content",
							"type": "string"
						},
						{
							"internalType": "bool",
							"name": "status",
							"type": "bool"
						}
					],
					"name": "addTodo",
					"outputs": [],
					"stateMutability": "nonpayable",
					"type": "function"
				},
				{
					"inputs": [],
					"name": "counter",
					"outputs": [
						{
							"internalType": "uint256",
							"name": "",
							"type": "uint256"
						}
					],
					"stateMutability": "view",
					"type": "function"
				},
				{
					"inputs": [],
					"name": "getAll",
					"outputs": [
						{
							"components": [
								{
									"internalType": "uint256",
									"name": "id",
									"type": "uint256"
								},
								{
									"internalType": "string",
									"name": "name",
									"type": "string"
								},
								{
									"internalType": "string",
									"name": "content",
									"type": "string"
								},
								{
									"internalType": "bool",
									"name": "status",
									"type": "bool"
								}
							],
							"internalType": "struct ToDoApp.ToDo[]",
							"name": "",
							"type": "tuple[]"
						}
					],
					"stateMutability": "view",
					"type": "function"
				},
				{
					"inputs": [],
					"name": "getAmount",
					"outputs": [
						{
							"internalType": "uint256",
							"name": "",
							"type": "uint256"
						}
					],
					"stateMutability": "view",
					"type": "function"
				},
				{
					"inputs": [
						{
							"internalType": "uint256",
							"name": "id",
							"type": "uint256"
						}
					],
					"name": "getTodo",
					"outputs": [
						{
							"components": [
								{
									"internalType": "uint256",
									"name": "id",
									"type": "uint256"
								},
								{
									"internalType": "string",
									"name": "name",
									"type": "string"
								},
								{
									"internalType": "string",
									"name": "content",
									"type": "string"
								},
								{
									"internalType": "bool",
									"name": "status",
									"type": "bool"
								}
							],
							"internalType": "struct ToDoApp.ToDo",
							"name": "",
							"type": "tuple"
						}
					],
					"stateMutability": "view",
					"type": "function"
				},
				{
					"inputs": [
						{
							"internalType": "uint256",
							"name": "",
							"type": "uint256"
						}
					],
					"name": "todos",
					"outputs": [
						{
							"internalType": "uint256",
							"name": "id",
							"type": "uint256"
						},
						{
							"internalType": "string",
							"name": "name",
							"type": "string"
						},
						{
							"internalType": "string",
							"name": "content",
							"type": "string"
						},
						{
							"internalType": "bool",
							"name": "status",
							"type": "bool"
						}
					],
					"stateMutability": "view",
					"type": "function"
				}
			],
			"devdoc": {
				"kind": "dev",
				"methods": {},
				"version": 1
			},
			"evm": {
				"assembly": "    /* \"ToDoApp.sol\":120:1453  contract ToDoApp {... */\n  mstore(0x40, 0x80)\n    /* \"ToDoApp.sol\":476:525  constructor() {... */\n  callvalue\n  dup1\n  iszero\n  tag_1\n  jumpi\n  0x00\n  dup1\n  revert\ntag_1:\n  pop\n    /* \"ToDoApp.sol\":508:518  msg.sender */\n  caller\n    /* \"ToDoApp.sol\":500:505  owner */\n  0x00\n  dup1\n    /* \"ToDoApp.sol\":500:518  owner = msg.sender */\n  0x0100\n  exp\n  dup2\n  sload\n  dup2\n  0xffffffffffffffffffffffffffffffffffffffff\n  mul\n  not\n  and\n  swap1\n  dup4\n  0xffffffffffffffffffffffffffffffffffffffff\n  and\n  mul\n  or\n  swap1\n  sstore\n  pop\n    /* \"ToDoApp.sol\":120:1453  contract ToDoApp {... */\n  dataSize(sub_0)\n  dup1\n  dataOffset(sub_0)\n  0x00\n  codecopy\n  0x00\n  return\nstop\n\nsub_0: assembly {\n        /* \"ToDoApp.sol\":120:1453  contract ToDoApp {... */\n      mstore(0x40, 0x80)\n      callvalue\n      dup1\n      iszero\n      tag_1\n      jumpi\n      0x00\n      dup1\n      revert\n    tag_1:\n      pop\n      jumpi(tag_2, lt(calldatasize, 0x04))\n      shr(0xe0, calldataload(0x00))\n      dup1\n      0x3b04d05b\n      eq\n      tag_3\n      jumpi\n      dup1\n      0x53ed5143\n      eq\n      tag_4\n      jumpi\n      dup1\n      0x61bc221a\n      eq\n      tag_5\n      jumpi\n      dup1\n      0xbc8bc2b4\n      eq\n      tag_6\n      jumpi\n      dup1\n      0xd321fe29\n      eq\n      tag_7\n      jumpi\n      dup1\n      0xdd68afb6\n      eq\n      tag_8\n      jumpi\n    tag_2:\n      0x00\n      dup1\n      revert\n        /* \"ToDoApp.sol\":567:855  function addTodo(... */\n    tag_3:\n      tag_9\n      0x04\n      dup1\n      calldatasize\n      sub\n      dup2\n      add\n      swap1\n      tag_10\n      swap2\n      swap1\n      tag_11\n      jump\t// in\n    tag_10:\n      tag_12\n      jump\t// in\n    tag_9:\n      stop\n        /* \"ToDoApp.sol\":1048:1273  function getAll() public view returns(ToDo[] memory) {... */\n    tag_4:\n      tag_13\n      tag_14\n      jump\t// in\n    tag_13:\n      mload(0x40)\n      tag_15\n      swap2\n      swap1\n      tag_16\n      jump\t// in\n    tag_15:\n      mload(0x40)\n      dup1\n      swap2\n      sub\n      swap1\n      return\n        /* \"ToDoApp.sol\":196:215  uint public counter */\n    tag_5:\n      tag_17\n      tag_18\n      jump\t// in\n    tag_17:\n      mload(0x40)\n      tag_19\n      swap2\n      swap1\n      tag_20\n      jump\t// in\n    tag_19:\n      mload(0x40)\n      dup1\n      swap2\n      sub\n      swap1\n      return\n        /* \"ToDoApp.sol\":397:434  mapping(uint256 => ToDo) public todos */\n    tag_6:\n      tag_21\n      0x04\n      dup1\n      calldatasize\n      sub\n      dup2\n      add\n      swap1\n      tag_22\n      swap2\n      swap1\n      tag_23\n      jump\t// in\n    tag_22:\n      tag_24\n      jump\t// in\n    tag_21:\n      mload(0x40)\n      tag_25\n      swap5\n      swap4\n      swap3\n      swap2\n      swap1\n      tag_26\n      jump\t// in\n    tag_25:\n      mload(0x40)\n      dup1\n      swap2\n      sub\n      swap1\n      return\n        /* \"ToDoApp.sol\":1322:1399  function getAmount() public view returns(uint){... */\n    tag_7:\n      tag_27\n      tag_28\n      jump\t// in\n    tag_27:\n      mload(0x40)\n      tag_29\n      swap2\n      swap1\n      tag_20\n      jump\t// in\n    tag_29:\n      mload(0x40)\n      dup1\n      swap2\n      sub\n      swap1\n      return\n        /* \"ToDoApp.sol\":913:1005  function getTodo(uint id) public view returns(ToDo memory) {... */\n    tag_8:\n      tag_30\n      0x04\n      dup1\n      calldatasize\n      sub\n      dup2\n      add\n      swap1\n      tag_31\n      swap2\n      swap1\n      tag_23\n      jump\t// in\n    tag_31:\n      tag_32\n      jump\t// in\n    tag_30:\n      mload(0x40)\n      tag_33\n      swap2\n      swap1\n      tag_34\n      jump\t// in\n    tag_33:\n      mload(0x40)\n      dup1\n      swap2\n      sub\n      swap1\n      return\n        /* \"ToDoApp.sol\":567:855  function addTodo(... */\n    tag_12:\n        /* \"ToDoApp.sol\":761:792  ToDo(id, name, content, status) */\n      mload(0x40)\n      dup1\n      0x80\n      add\n      0x40\n      mstore\n      dup1\n        /* \"ToDoApp.sol\":766:768  id */\n      dup6\n        /* \"ToDoApp.sol\":761:792  ToDo(id, name, content, status) */\n      dup2\n      mstore\n      0x20\n      add\n        /* \"ToDoApp.sol\":770:774  name */\n      dup5\n        /* \"ToDoApp.sol\":761:792  ToDo(id, name, content, status) */\n      dup2\n      mstore\n      0x20\n      add\n        /* \"ToDoApp.sol\":776:783  content */\n      dup4\n        /* \"ToDoApp.sol\":761:792  ToDo(id, name, content, status) */\n      dup2\n      mstore\n      0x20\n      add\n        /* \"ToDoApp.sol\":785:791  status */\n      dup3\n        /* \"ToDoApp.sol\":761:792  ToDo(id, name, content, status) */\n      iszero\n      iszero\n      dup2\n      mstore\n      pop\n        /* \"ToDoApp.sol\":744:749  todos */\n      0x02\n        /* \"ToDoApp.sol\":744:758  todos[counter] */\n      0x00\n        /* \"ToDoApp.sol\":750:757  counter */\n      sload(0x01)\n        /* \"ToDoApp.sol\":744:758  todos[counter] */\n      dup2\n      mstore\n      0x20\n      add\n      swap1\n      dup2\n      mstore\n      0x20\n      add\n      0x00\n      keccak256\n        /* \"ToDoApp.sol\":744:792  todos[counter] = ToDo(id, name, content, status) */\n      0x00\n      dup3\n      add\n      mload\n      dup2\n      0x00\n      add\n      sstore\n      0x20\n      dup3\n      add\n      mload\n      dup2\n      0x01\n      add\n      swap1\n      dup1\n      mload\n      swap1\n      0x20\n      add\n      swap1\n      tag_36\n      swap3\n      swap2\n      swap1\n      tag_37\n      jump\t// in\n    tag_36:\n      pop\n      0x40\n      dup3\n      add\n      mload\n      dup2\n      0x02\n      add\n      swap1\n      dup1\n      mload\n      swap1\n      0x20\n      add\n      swap1\n      tag_38\n      swap3\n      swap2\n      swap1\n      tag_37\n      jump\t// in\n    tag_38:\n      pop\n      0x60\n      dup3\n      add\n      mload\n      dup2\n      0x03\n      add\n      exp(0x0100, 0x00)\n      dup2\n      sload\n      dup2\n      0xff\n      mul\n      not\n      and\n      swap1\n      dup4\n      iszero\n      iszero\n      mul\n      or\n      swap1\n      sstore\n      pop\n      swap1\n      pop\n      pop\n        /* \"ToDoApp.sol\":839:846  counter */\n      0x01\n      0x00\n        /* \"ToDoApp.sol\":839:848  counter++ */\n      dup2\n      sload\n      dup1\n      swap3\n      swap2\n      swap1\n      tag_39\n      swap1\n      tag_40\n      jump\t// in\n    tag_39:\n      swap2\n      swap1\n      pop\n      sstore\n      pop\n        /* \"ToDoApp.sol\":567:855  function addTodo(... */\n      pop\n      pop\n      pop\n      pop\n      jump\t// out\n        /* \"ToDoApp.sol\":1048:1273  function getAll() public view returns(ToDo[] memory) {... */\n    tag_14:\n        /* \"ToDoApp.sol\":1086:1099  ToDo[] memory */\n      0x60\n        /* \"ToDoApp.sol\":1111:1131  ToDo[] memory mTodos */\n      0x00\n        /* \"ToDoApp.sol\":1145:1152  counter */\n      sload(0x01)\n        /* \"ToDoApp.sol\":1134:1153  new ToDo[](counter) */\n      0xffffffffffffffff\n      dup2\n      gt\n      iszero\n      tag_42\n      jumpi\n      tag_43\n      tag_44\n      jump\t// in\n    tag_43:\n    tag_42:\n      mload(0x40)\n      swap1\n      dup1\n      dup3\n      mstore\n      dup1\n      0x20\n      mul\n      0x20\n      add\n      dup3\n      add\n      0x40\n      mstore\n      dup1\n      iszero\n      tag_45\n      jumpi\n      dup2\n      0x20\n      add\n    tag_46:\n      tag_47\n      tag_48\n      jump\t// in\n    tag_47:\n      dup2\n      mstore\n      0x20\n      add\n      swap1\n      0x01\n      swap1\n      sub\n      swap1\n      dup2\n      tag_46\n      jumpi\n      swap1\n      pop\n    tag_45:\n      pop\n        /* \"ToDoApp.sol\":1111:1153  ToDo[] memory mTodos = new ToDo[](counter) */\n      swap1\n      pop\n        /* \"ToDoApp.sol\":1168:1174  uint i */\n      0x00\n        /* \"ToDoApp.sol\":1164:1243  for(uint i = 0; i < counter; i++) {... */\n    tag_49:\n        /* \"ToDoApp.sol\":1184:1191  counter */\n      sload(0x01)\n        /* \"ToDoApp.sol\":1180:1181  i */\n      dup2\n        /* \"ToDoApp.sol\":1180:1191  i < counter */\n      lt\n        /* \"ToDoApp.sol\":1164:1243  for(uint i = 0; i < counter; i++) {... */\n      iszero\n      tag_50\n      jumpi\n        /* \"ToDoApp.sol\":1224:1229  todos */\n      0x02\n        /* \"ToDoApp.sol\":1224:1232  todos[i] */\n      0x00\n        /* \"ToDoApp.sol\":1230:1231  i */\n      dup3\n        /* \"ToDoApp.sol\":1224:1232  todos[i] */\n      dup2\n      mstore\n      0x20\n      add\n      swap1\n      dup2\n      mstore\n      0x20\n      add\n      0x00\n      keccak256\n        /* \"ToDoApp.sol\":1212:1232  mTodos[i] = todos[i] */\n      mload(0x40)\n      dup1\n      0x80\n      add\n      0x40\n      mstore\n      swap1\n      dup2\n      0x00\n      dup3\n      add\n      sload\n      dup2\n      mstore\n      0x20\n      add\n      0x01\n      dup3\n      add\n      dup1\n      sload\n      tag_52\n      swap1\n      tag_53\n      jump\t// in\n    tag_52:\n      dup1\n      0x1f\n      add\n      0x20\n      dup1\n      swap2\n      div\n      mul\n      0x20\n      add\n      mload(0x40)\n      swap1\n      dup2\n      add\n      0x40\n      mstore\n      dup1\n      swap3\n      swap2\n      swap1\n      dup2\n      dup2\n      mstore\n      0x20\n      add\n      dup3\n      dup1\n      sload\n      tag_54\n      swap1\n      tag_53\n      jump\t// in\n    tag_54:\n      dup1\n      iszero\n      tag_55\n      jumpi\n      dup1\n      0x1f\n      lt\n      tag_56\n      jumpi\n      0x0100\n      dup1\n      dup4\n      sload\n      div\n      mul\n      dup4\n      mstore\n      swap2\n      0x20\n      add\n      swap2\n      jump(tag_55)\n    tag_56:\n      dup3\n      add\n      swap2\n      swap1\n      0x00\n      mstore\n      keccak256(0x00, 0x20)\n      swap1\n    tag_57:\n      dup2\n      sload\n      dup2\n      mstore\n      swap1\n      0x01\n      add\n      swap1\n      0x20\n      add\n      dup1\n      dup4\n      gt\n      tag_57\n      jumpi\n      dup3\n      swap1\n      sub\n      0x1f\n      and\n      dup3\n      add\n      swap2\n    tag_55:\n      pop\n      pop\n      pop\n      pop\n      pop\n      dup2\n      mstore\n      0x20\n      add\n      0x02\n      dup3\n      add\n      dup1\n      sload\n      tag_58\n      swap1\n      tag_53\n      jump\t// in\n    tag_58:\n      dup1\n      0x1f\n      add\n      0x20\n      dup1\n      swap2\n      div\n      mul\n      0x20\n      add\n      mload(0x40)\n      swap1\n      dup2\n      add\n      0x40\n      mstore\n      dup1\n      swap3\n      swap2\n      swap1\n      dup2\n      dup2\n      mstore\n      0x20\n      add\n      dup3\n      dup1\n      sload\n      tag_59\n      swap1\n      tag_53\n      jump\t// in\n    tag_59:\n      dup1\n      iszero\n      tag_60\n      jumpi\n      dup1\n      0x1f\n      lt\n      tag_61\n      jumpi\n      0x0100\n      dup1\n      dup4\n      sload\n      div\n      mul\n      dup4\n      mstore\n      swap2\n      0x20\n      add\n      swap2\n      jump(tag_60)\n    tag_61:\n      dup3\n      add\n      swap2\n      swap1\n      0x00\n      mstore\n      keccak256(0x00, 0x20)\n      swap1\n    tag_62:\n      dup2\n      sload\n      dup2\n      mstore\n      swap1\n      0x01\n      add\n      swap1\n      0x20\n      add\n      dup1\n      dup4\n      gt\n      tag_62\n      jumpi\n      dup3\n      swap1\n      sub\n      0x1f\n      and\n      dup3\n      add\n      swap2\n    tag_60:\n      pop\n      pop\n      pop\n      pop\n      pop\n      dup2\n      mstore\n      0x20\n      add\n      0x03\n      dup3\n      add\n      0x00\n      swap1\n      sload\n      swap1\n      0x0100\n      exp\n      swap1\n      div\n      0xff\n      and\n      iszero\n      iszero\n      iszero\n      iszero\n      dup2\n      mstore\n      pop\n      pop\n        /* \"ToDoApp.sol\":1212:1218  mTodos */\n      dup3\n        /* \"ToDoApp.sol\":1219:1220  i */\n      dup3\n        /* \"ToDoApp.sol\":1212:1221  mTodos[i] */\n      dup2\n      mload\n      dup2\n      lt\n      tag_63\n      jumpi\n      tag_64\n      tag_65\n      jump\t// in\n    tag_64:\n    tag_63:\n      0x20\n      mul\n      0x20\n      add\n      add\n        /* \"ToDoApp.sol\":1212:1232  mTodos[i] = todos[i] */\n      dup2\n      swap1\n      mstore\n      pop\n        /* \"ToDoApp.sol\":1193:1196  i++ */\n      dup1\n      dup1\n      tag_66\n      swap1\n      tag_40\n      jump\t// in\n    tag_66:\n      swap2\n      pop\n      pop\n        /* \"ToDoApp.sol\":1164:1243  for(uint i = 0; i < counter; i++) {... */\n      jump(tag_49)\n    tag_50:\n      pop\n        /* \"ToDoApp.sol\":1260:1266  mTodos */\n      dup1\n        /* \"ToDoApp.sol\":1253:1266  return mTodos */\n      swap2\n      pop\n      pop\n        /* \"ToDoApp.sol\":1048:1273  function getAll() public view returns(ToDo[] memory) {... */\n      swap1\n      jump\t// out\n        /* \"ToDoApp.sol\":196:215  uint public counter */\n    tag_18:\n      sload(0x01)\n      dup2\n      jump\t// out\n        /* \"ToDoApp.sol\":397:434  mapping(uint256 => ToDo) public todos */\n    tag_24:\n      mstore(0x20, 0x02)\n      dup1\n      0x00\n      mstore\n      keccak256(0x00, 0x40)\n      0x00\n      swap2\n      pop\n      swap1\n      pop\n      dup1\n      0x00\n      add\n      sload\n      swap1\n      dup1\n      0x01\n      add\n      dup1\n      sload\n      tag_67\n      swap1\n      tag_53\n      jump\t// in\n    tag_67:\n      dup1\n      0x1f\n      add\n      0x20\n      dup1\n      swap2\n      div\n      mul\n      0x20\n      add\n      mload(0x40)\n      swap1\n      dup2\n      add\n      0x40\n      mstore\n      dup1\n      swap3\n      swap2\n      swap1\n      dup2\n      dup2\n      mstore\n      0x20\n      add\n      dup3\n      dup1\n      sload\n      tag_68\n      swap1\n      tag_53\n      jump\t// in\n    tag_68:\n      dup1\n      iszero\n      tag_69\n      jumpi\n      dup1\n      0x1f\n      lt\n      tag_70\n      jumpi\n      0x0100\n      dup1\n      dup4\n      sload\n      div\n      mul\n      dup4\n      mstore\n      swap2\n      0x20\n      add\n      swap2\n      jump(tag_69)\n    tag_70:\n      dup3\n      add\n      swap2\n      swap1\n      0x00\n      mstore\n      keccak256(0x00, 0x20)\n      swap1\n    tag_71:\n      dup2\n      sload\n      dup2\n      mstore\n      swap1\n      0x01\n      add\n      swap1\n      0x20\n      add\n      dup1\n      dup4\n      gt\n      tag_71\n      jumpi\n      dup3\n      swap1\n      sub\n      0x1f\n      and\n      dup3\n      add\n      swap2\n    tag_69:\n      pop\n      pop\n      pop\n      pop\n      pop\n      swap1\n      dup1\n      0x02\n      add\n      dup1\n      sload\n      tag_72\n      swap1\n      tag_53\n      jump\t// in\n    tag_72:\n      dup1\n      0x1f\n      add\n      0x20\n      dup1\n      swap2\n      div\n      mul\n      0x20\n      add\n      mload(0x40)\n      swap1\n      dup2\n      add\n      0x40\n      mstore\n      dup1\n      swap3\n      swap2\n      swap1\n      dup2\n      dup2\n      mstore\n      0x20\n      add\n      dup3\n      dup1\n      sload\n      tag_73\n      swap1\n      tag_53\n      jump\t// in\n    tag_73:\n      dup1\n      iszero\n      tag_74\n      jumpi\n      dup1\n      0x1f\n      lt\n      tag_75\n      jumpi\n      0x0100\n      dup1\n      dup4\n      sload\n      div\n      mul\n      dup4\n      mstore\n      swap2\n      0x20\n      add\n      swap2\n      jump(tag_74)\n    tag_75:\n      dup3\n      add\n      swap2\n      swap1\n      0x00\n      mstore\n      keccak256(0x00, 0x20)\n      swap1\n    tag_76:\n      dup2\n      sload\n      dup2\n      mstore\n      swap1\n      0x01\n      add\n      swap1\n      0x20\n      add\n      dup1\n      dup4\n      gt\n      tag_76\n      jumpi\n      dup3\n      swap1\n      sub\n      0x1f\n      and\n      dup3\n      add\n      swap2\n    tag_74:\n      pop\n      pop\n      pop\n      pop\n      pop\n      swap1\n      dup1\n      0x03\n      add\n      0x00\n      swap1\n      sload\n      swap1\n      0x0100\n      exp\n      swap1\n      div\n      0xff\n      and\n      swap1\n      pop\n      dup5\n      jump\t// out\n        /* \"ToDoApp.sol\":1322:1399  function getAmount() public view returns(uint){... */\n    tag_28:\n        /* \"ToDoApp.sol\":1363:1367  uint */\n      0x00\n        /* \"ToDoApp.sol\":1385:1392  counter */\n      sload(0x01)\n        /* \"ToDoApp.sol\":1378:1392  return counter */\n      swap1\n      pop\n        /* \"ToDoApp.sol\":1322:1399  function getAmount() public view returns(uint){... */\n      swap1\n      jump\t// out\n        /* \"ToDoApp.sol\":913:1005  function getTodo(uint id) public view returns(ToDo memory) {... */\n    tag_32:\n        /* \"ToDoApp.sol\":959:970  ToDo memory */\n      tag_78\n      tag_48\n      jump\t// in\n    tag_78:\n        /* \"ToDoApp.sol\":989:994  todos */\n      0x02\n        /* \"ToDoApp.sol\":989:998  todos[id] */\n      0x00\n        /* \"ToDoApp.sol\":995:997  id */\n      dup4\n        /* \"ToDoApp.sol\":989:998  todos[id] */\n      dup2\n      mstore\n      0x20\n      add\n      swap1\n      dup2\n      mstore\n      0x20\n      add\n      0x00\n      keccak256\n        /* \"ToDoApp.sol\":982:998  return todos[id] */\n      mload(0x40)\n      dup1\n      0x80\n      add\n      0x40\n      mstore\n      swap1\n      dup2\n      0x00\n      dup3\n      add\n      sload\n      dup2\n      mstore\n      0x20\n      add\n      0x01\n      dup3\n      add\n      dup1\n      sload\n      tag_80\n      swap1\n      tag_53\n      jump\t// in\n    tag_80:\n      dup1\n      0x1f\n      add\n      0x20\n      dup1\n      swap2\n      div\n      mul\n      0x20\n      add\n      mload(0x40)\n      swap1\n      dup2\n      add\n      0x40\n      mstore\n      dup1\n      swap3\n      swap2\n      swap1\n      dup2\n      dup2\n      mstore\n      0x20\n      add\n      dup3\n      dup1\n      sload\n      tag_81\n      swap1\n      tag_53\n      jump\t// in\n    tag_81:\n      dup1\n      iszero\n      tag_82\n      jumpi\n      dup1\n      0x1f\n      lt\n      tag_83\n      jumpi\n      0x0100\n      dup1\n      dup4\n      sload\n      div\n      mul\n      dup4\n      mstore\n      swap2\n      0x20\n      add\n      swap2\n      jump(tag_82)\n    tag_83:\n      dup3\n      add\n      swap2\n      swap1\n      0x00\n      mstore\n      keccak256(0x00, 0x20)\n      swap1\n    tag_84:\n      dup2\n      sload\n      dup2\n      mstore\n      swap1\n      0x01\n      add\n      swap1\n      0x20\n      add\n      dup1\n      dup4\n      gt\n      tag_84\n      jumpi\n      dup3\n      swap1\n      sub\n      0x1f\n      and\n      dup3\n      add\n      swap2\n    tag_82:\n      pop\n      pop\n      pop\n      pop\n      pop\n      dup2\n      mstore\n      0x20\n      add\n      0x02\n      dup3\n      add\n      dup1\n      sload\n      tag_85\n      swap1\n      tag_53\n      jump\t// in\n    tag_85:\n      dup1\n      0x1f\n      add\n      0x20\n      dup1\n      swap2\n      div\n      mul\n      0x20\n      add\n      mload(0x40)\n      swap1\n      dup2\n      add\n      0x40\n      mstore\n      dup1\n      swap3\n      swap2\n      swap1\n      dup2\n      dup2\n      mstore\n      0x20\n      add\n      dup3\n      dup1\n      sload\n      tag_86\n      swap1\n      tag_53\n      jump\t// in\n    tag_86:\n      dup1\n      iszero\n      tag_87\n      jumpi\n      dup1\n      0x1f\n      lt\n      tag_88\n      jumpi\n      0x0100\n      dup1\n      dup4\n      sload\n      div\n      mul\n      dup4\n      mstore\n      swap2\n      0x20\n      add\n      swap2\n      jump(tag_87)\n    tag_88:\n      dup3\n      add\n      swap2\n      swap1\n      0x00\n      mstore\n      keccak256(0x00, 0x20)\n      swap1\n    tag_89:\n      dup2\n      sload\n      dup2\n      mstore\n      swap1\n      0x01\n      add\n      swap1\n      0x20\n      add\n      dup1\n      dup4\n      gt\n      tag_89\n      jumpi\n      dup3\n      swap1\n      sub\n      0x1f\n      and\n      dup3\n      add\n      swap2\n    tag_87:\n      pop\n      pop\n      pop\n      pop\n      pop\n      dup2\n      mstore\n      0x20\n      add\n      0x03\n      dup3\n      add\n      0x00\n      swap1\n      sload\n      swap1\n      0x0100\n      exp\n      swap1\n      div\n      0xff\n      and\n      iszero\n      iszero\n      iszero\n      iszero\n      dup2\n      mstore\n      pop\n      pop\n      swap1\n      pop\n        /* \"ToDoApp.sol\":913:1005  function getTodo(uint id) public view returns(ToDo memory) {... */\n      swap2\n      swap1\n      pop\n      jump\t// out\n    tag_37:\n      dup3\n      dup1\n      sload\n      tag_90\n      swap1\n      tag_53\n      jump\t// in\n    tag_90:\n      swap1\n      0x00\n      mstore\n      keccak256(0x00, 0x20)\n      swap1\n      0x1f\n      add\n      0x20\n      swap1\n      div\n      dup2\n      add\n      swap3\n      dup3\n      tag_92\n      jumpi\n      0x00\n      dup6\n      sstore\n      jump(tag_91)\n    tag_92:\n      dup3\n      0x1f\n      lt\n      tag_93\n      jumpi\n      dup1\n      mload\n      not(0xff)\n      and\n      dup4\n      dup1\n      add\n      or\n      dup6\n      sstore\n      jump(tag_91)\n    tag_93:\n      dup3\n      dup1\n      add\n      0x01\n      add\n      dup6\n      sstore\n      dup3\n      iszero\n      tag_91\n      jumpi\n      swap2\n      dup3\n      add\n    tag_94:\n      dup3\n      dup2\n      gt\n      iszero\n      tag_95\n      jumpi\n      dup3\n      mload\n      dup3\n      sstore\n      swap2\n      0x20\n      add\n      swap2\n      swap1\n      0x01\n      add\n      swap1\n      jump(tag_94)\n    tag_95:\n    tag_91:\n      pop\n      swap1\n      pop\n      tag_96\n      swap2\n      swap1\n      tag_97\n      jump\t// in\n    tag_96:\n      pop\n      swap1\n      jump\t// out\n    tag_48:\n      mload(0x40)\n      dup1\n      0x80\n      add\n      0x40\n      mstore\n      dup1\n      0x00\n      dup2\n      mstore\n      0x20\n      add\n      0x60\n      dup2\n      mstore\n      0x20\n      add\n      0x60\n      dup2\n      mstore\n      0x20\n      add\n      iszero(iszero(0x00))\n      dup2\n      mstore\n      pop\n      swap1\n      jump\t// out\n    tag_97:\n    tag_98:\n      dup1\n      dup3\n      gt\n      iszero\n      tag_99\n      jumpi\n      0x00\n      dup2\n      0x00\n      swap1\n      sstore\n      pop\n      0x01\n      add\n      jump(tag_98)\n    tag_99:\n      pop\n      swap1\n      jump\t// out\n        /* \"#utility.yul\":7:419   */\n    tag_101:\n        /* \"#utility.yul\":85:90   */\n      0x00\n        /* \"#utility.yul\":110:176   */\n      tag_103\n        /* \"#utility.yul\":126:175   */\n      tag_104\n        /* \"#utility.yul\":168:174   */\n      dup5\n        /* \"#utility.yul\":126:175   */\n      tag_105\n      jump\t// in\n    tag_104:\n        /* \"#utility.yul\":110:176   */\n      tag_106\n      jump\t// in\n    tag_103:\n        /* \"#utility.yul\":101:176   */\n      swap1\n      pop\n        /* \"#utility.yul\":199:205   */\n      dup3\n        /* \"#utility.yul\":192:197   */\n      dup2\n        /* \"#utility.yul\":185:206   */\n      mstore\n        /* \"#utility.yul\":237:241   */\n      0x20\n        /* \"#utility.yul\":230:235   */\n      dup2\n        /* \"#utility.yul\":226:242   */\n      add\n        /* \"#utility.yul\":275:278   */\n      dup5\n        /* \"#utility.yul\":266:272   */\n      dup5\n        /* \"#utility.yul\":261:264   */\n      dup5\n        /* \"#utility.yul\":257:273   */\n      add\n        /* \"#utility.yul\":254:279   */\n      gt\n        /* \"#utility.yul\":251:363   */\n      iszero\n      tag_107\n      jumpi\n        /* \"#utility.yul\":282:361   */\n      tag_108\n      tag_109\n      jump\t// in\n    tag_108:\n        /* \"#utility.yul\":251:363   */\n    tag_107:\n        /* \"#utility.yul\":372:413   */\n      tag_110\n        /* \"#utility.yul\":406:412   */\n      dup5\n        /* \"#utility.yul\":401:404   */\n      dup3\n        /* \"#utility.yul\":396:399   */\n      dup6\n        /* \"#utility.yul\":372:413   */\n      tag_111\n      jump\t// in\n    tag_110:\n        /* \"#utility.yul\":91:419   */\n      pop\n        /* \"#utility.yul\":7:419   */\n      swap4\n      swap3\n      pop\n      pop\n      pop\n      jump\t// out\n        /* \"#utility.yul\":425:558   */\n    tag_112:\n        /* \"#utility.yul\":468:473   */\n      0x00\n        /* \"#utility.yul\":506:512   */\n      dup2\n        /* \"#utility.yul\":493:513   */\n      calldataload\n        /* \"#utility.yul\":484:513   */\n      swap1\n      pop\n        /* \"#utility.yul\":522:552   */\n      tag_114\n        /* \"#utility.yul\":546:551   */\n      dup2\n        /* \"#utility.yul\":522:552   */\n      tag_115\n      jump\t// in\n    tag_114:\n        /* \"#utility.yul\":425:558   */\n      swap3\n      swap2\n      pop\n      pop\n      jump\t// out\n        /* \"#utility.yul\":578:918   */\n    tag_116:\n        /* \"#utility.yul\":634:639   */\n      0x00\n        /* \"#utility.yul\":683:686   */\n      dup3\n        /* \"#utility.yul\":676:680   */\n      0x1f\n        /* \"#utility.yul\":668:674   */\n      dup4\n        /* \"#utility.yul\":664:681   */\n      add\n        /* \"#utility.yul\":660:687   */\n      slt\n        /* \"#utility.yul\":650:772   */\n      tag_118\n      jumpi\n        /* \"#utility.yul\":691:770   */\n      tag_119\n      tag_120\n      jump\t// in\n    tag_119:\n        /* \"#utility.yul\":650:772   */\n    tag_118:\n        /* \"#utility.yul\":808:814   */\n      dup2\n        /* \"#utility.yul\":795:815   */\n      calldataload\n        /* \"#utility.yul\":833:912   */\n      tag_121\n        /* \"#utility.yul\":908:911   */\n      dup5\n        /* \"#utility.yul\":900:906   */\n      dup3\n        /* \"#utility.yul\":893:897   */\n      0x20\n        /* \"#utility.yul\":885:891   */\n      dup7\n        /* \"#utility.yul\":881:898   */\n      add\n        /* \"#utility.yul\":833:912   */\n      tag_101\n      jump\t// in\n    tag_121:\n        /* \"#utility.yul\":824:912   */\n      swap2\n      pop\n        /* \"#utility.yul\":640:918   */\n      pop\n        /* \"#utility.yul\":578:918   */\n      swap3\n      swap2\n      pop\n      pop\n      jump\t// out\n        /* \"#utility.yul\":924:1063   */\n    tag_122:\n        /* \"#utility.yul\":970:975   */\n      0x00\n        /* \"#utility.yul\":1008:1014   */\n      dup2\n        /* \"#utility.yul\":995:1015   */\n      calldataload\n        /* \"#utility.yul\":986:1015   */\n      swap1\n      pop\n        /* \"#utility.yul\":1024:1057   */\n      tag_124\n        /* \"#utility.yul\":1051:1056   */\n      dup2\n        /* \"#utility.yul\":1024:1057   */\n      tag_125\n      jump\t// in\n    tag_124:\n        /* \"#utility.yul\":924:1063   */\n      swap3\n      swap2\n      pop\n      pop\n      jump\t// out\n        /* \"#utility.yul\":1069:1398   */\n    tag_23:\n        /* \"#utility.yul\":1128:1134   */\n      0x00\n        /* \"#utility.yul\":1177:1179   */\n      0x20\n        /* \"#utility.yul\":1165:1174   */\n      dup3\n        /* \"#utility.yul\":1156:1163   */\n      dup5\n        /* \"#utility.yul\":1152:1175   */\n      sub\n        /* \"#utility.yul\":1148:1180   */\n      slt\n        /* \"#utility.yul\":1145:1264   */\n      iszero\n      tag_127\n      jumpi\n        /* \"#utility.yul\":1183:1262   */\n      tag_128\n      tag_129\n      jump\t// in\n    tag_128:\n        /* \"#utility.yul\":1145:1264   */\n    tag_127:\n        /* \"#utility.yul\":1303:1304   */\n      0x00\n        /* \"#utility.yul\":1328:1381   */\n      tag_130\n        /* \"#utility.yul\":1373:1380   */\n      dup5\n        /* \"#utility.yul\":1364:1370   */\n      dup3\n        /* \"#utility.yul\":1353:1362   */\n      dup6\n        /* \"#utility.yul\":1349:1371   */\n      add\n        /* \"#utility.yul\":1328:1381   */\n      tag_122\n      jump\t// in\n    tag_130:\n        /* \"#utility.yul\":1318:1381   */\n      swap2\n      pop\n        /* \"#utility.yul\":1274:1391   */\n      pop\n        /* \"#utility.yul\":1069:1398   */\n      swap3\n      swap2\n      pop\n      pop\n      jump\t// out\n        /* \"#utility.yul\":1404:2523   */\n    tag_11:\n        /* \"#utility.yul\":1507:1513   */\n      0x00\n        /* \"#utility.yul\":1515:1521   */\n      dup1\n        /* \"#utility.yul\":1523:1529   */\n      0x00\n        /* \"#utility.yul\":1531:1537   */\n      dup1\n        /* \"#utility.yul\":1580:1583   */\n      0x80\n        /* \"#utility.yul\":1568:1577   */\n      dup6\n        /* \"#utility.yul\":1559:1566   */\n      dup8\n        /* \"#utility.yul\":1555:1578   */\n      sub\n        /* \"#utility.yul\":1551:1584   */\n      slt\n        /* \"#utility.yul\":1548:1668   */\n      iszero\n      tag_132\n      jumpi\n        /* \"#utility.yul\":1587:1666   */\n      tag_133\n      tag_129\n      jump\t// in\n    tag_133:\n        /* \"#utility.yul\":1548:1668   */\n    tag_132:\n        /* \"#utility.yul\":1707:1708   */\n      0x00\n        /* \"#utility.yul\":1732:1785   */\n      tag_134\n        /* \"#utility.yul\":1777:1784   */\n      dup8\n        /* \"#utility.yul\":1768:1774   */\n      dup3\n        /* \"#utility.yul\":1757:1766   */\n      dup9\n        /* \"#utility.yul\":1753:1775   */\n      add\n        /* \"#utility.yul\":1732:1785   */\n      tag_122\n      jump\t// in\n    tag_134:\n        /* \"#utility.yul\":1722:1785   */\n      swap5\n      pop\n        /* \"#utility.yul\":1678:1795   */\n      pop\n        /* \"#utility.yul\":1862:1864   */\n      0x20\n        /* \"#utility.yul\":1851:1860   */\n      dup6\n        /* \"#utility.yul\":1847:1865   */\n      add\n        /* \"#utility.yul\":1834:1866   */\n      calldataload\n        /* \"#utility.yul\":1893:1911   */\n      0xffffffffffffffff\n        /* \"#utility.yul\":1885:1891   */\n      dup2\n        /* \"#utility.yul\":1882:1912   */\n      gt\n        /* \"#utility.yul\":1879:1996   */\n      iszero\n      tag_135\n      jumpi\n        /* \"#utility.yul\":1915:1994   */\n      tag_136\n      tag_137\n      jump\t// in\n    tag_136:\n        /* \"#utility.yul\":1879:1996   */\n    tag_135:\n        /* \"#utility.yul\":2020:2083   */\n      tag_138\n        /* \"#utility.yul\":2075:2082   */\n      dup8\n        /* \"#utility.yul\":2066:2072   */\n      dup3\n        /* \"#utility.yul\":2055:2064   */\n      dup9\n        /* \"#utility.yul\":2051:2073   */\n      add\n        /* \"#utility.yul\":2020:2083   */\n      tag_116\n      jump\t// in\n    tag_138:\n        /* \"#utility.yul\":2010:2083   */\n      swap4\n      pop\n        /* \"#utility.yul\":1805:2093   */\n      pop\n        /* \"#utility.yul\":2160:2162   */\n      0x40\n        /* \"#utility.yul\":2149:2158   */\n      dup6\n        /* \"#utility.yul\":2145:2163   */\n      add\n        /* \"#utility.yul\":2132:2164   */\n      calldataload\n        /* \"#utility.yul\":2191:2209   */\n      0xffffffffffffffff\n        /* \"#utility.yul\":2183:2189   */\n      dup2\n        /* \"#utility.yul\":2180:2210   */\n      gt\n        /* \"#utility.yul\":2177:2294   */\n      iszero\n      tag_139\n      jumpi\n        /* \"#utility.yul\":2213:2292   */\n      tag_140\n      tag_137\n      jump\t// in\n    tag_140:\n        /* \"#utility.yul\":2177:2294   */\n    tag_139:\n        /* \"#utility.yul\":2318:2381   */\n      tag_141\n        /* \"#utility.yul\":2373:2380   */\n      dup8\n        /* \"#utility.yul\":2364:2370   */\n      dup3\n        /* \"#utility.yul\":2353:2362   */\n      dup9\n        /* \"#utility.yul\":2349:2371   */\n      add\n        /* \"#utility.yul\":2318:2381   */\n      tag_116\n      jump\t// in\n    tag_141:\n        /* \"#utility.yul\":2308:2381   */\n      swap3\n      pop\n        /* \"#utility.yul\":2103:2391   */\n      pop\n        /* \"#utility.yul\":2430:2432   */\n      0x60\n        /* \"#utility.yul\":2456:2506   */\n      tag_142\n        /* \"#utility.yul\":2498:2505   */\n      dup8\n        /* \"#utility.yul\":2489:2495   */\n      dup3\n        /* \"#utility.yul\":2478:2487   */\n      dup9\n        /* \"#utility.yul\":2474:2496   */\n      add\n        /* \"#utility.yul\":2456:2506   */\n      tag_112\n      jump\t// in\n    tag_142:\n        /* \"#utility.yul\":2446:2506   */\n      swap2\n      pop\n        /* \"#utility.yul\":2401:2516   */\n      pop\n        /* \"#utility.yul\":1404:2523   */\n      swap3\n      swap6\n      swap2\n      swap5\n      pop\n      swap3\n      pop\n      jump\t// out\n        /* \"#utility.yul\":2529:2765   */\n    tag_143:\n        /* \"#utility.yul\":2638:2648   */\n      0x00\n        /* \"#utility.yul\":2673:2759   */\n      tag_145\n        /* \"#utility.yul\":2755:2758   */\n      dup4\n        /* \"#utility.yul\":2747:2753   */\n      dup4\n        /* \"#utility.yul\":2673:2759   */\n      tag_146\n      jump\t// in\n    tag_145:\n        /* \"#utility.yul\":2659:2759   */\n      swap1\n      pop\n        /* \"#utility.yul\":2529:2765   */\n      swap3\n      swap2\n      pop\n      pop\n      jump\t// out\n        /* \"#utility.yul\":2825:3896   */\n    tag_147:\n        /* \"#utility.yul\":2984:2987   */\n      0x00\n        /* \"#utility.yul\":3013:3087   */\n      tag_149\n        /* \"#utility.yul\":3081:3086   */\n      dup3\n        /* \"#utility.yul\":3013:3087   */\n      tag_150\n      jump\t// in\n    tag_149:\n        /* \"#utility.yul\":3103:3209   */\n      tag_151\n        /* \"#utility.yul\":3202:3208   */\n      dup2\n        /* \"#utility.yul\":3197:3200   */\n      dup6\n        /* \"#utility.yul\":3103:3209   */\n      tag_152\n      jump\t// in\n    tag_151:\n        /* \"#utility.yul\":3096:3209   */\n      swap4\n      pop\n        /* \"#utility.yul\":3235:3238   */\n      dup4\n        /* \"#utility.yul\":3280:3284   */\n      0x20\n        /* \"#utility.yul\":3272:3278   */\n      dup3\n        /* \"#utility.yul\":3268:3285   */\n      mul\n        /* \"#utility.yul\":3263:3266   */\n      dup6\n        /* \"#utility.yul\":3259:3286   */\n      add\n        /* \"#utility.yul\":3310:3386   */\n      tag_153\n        /* \"#utility.yul\":3380:3385   */\n      dup6\n        /* \"#utility.yul\":3310:3386   */\n      tag_154\n      jump\t// in\n    tag_153:\n        /* \"#utility.yul\":3409:3416   */\n      dup1\n        /* \"#utility.yul\":3440:3441   */\n      0x00\n        /* \"#utility.yul\":3425:3851   */\n    tag_155:\n        /* \"#utility.yul\":3450:3456   */\n      dup6\n        /* \"#utility.yul\":3447:3448   */\n      dup2\n        /* \"#utility.yul\":3444:3457   */\n      lt\n        /* \"#utility.yul\":3425:3851   */\n      iszero\n      tag_157\n      jumpi\n        /* \"#utility.yul\":3521:3530   */\n      dup5\n        /* \"#utility.yul\":3515:3519   */\n      dup5\n        /* \"#utility.yul\":3511:3531   */\n      sub\n        /* \"#utility.yul\":3506:3509   */\n      dup10\n        /* \"#utility.yul\":3499:3532   */\n      mstore\n        /* \"#utility.yul\":3572:3578   */\n      dup2\n        /* \"#utility.yul\":3566:3579   */\n      mload\n        /* \"#utility.yul\":3600:3704   */\n      tag_158\n        /* \"#utility.yul\":3699:3703   */\n      dup6\n        /* \"#utility.yul\":3684:3697   */\n      dup3\n        /* \"#utility.yul\":3600:3704   */\n      tag_143\n      jump\t// in\n    tag_158:\n        /* \"#utility.yul\":3592:3704   */\n      swap5\n      pop\n        /* \"#utility.yul\":3727:3807   */\n      tag_159\n        /* \"#utility.yul\":3800:3806   */\n      dup4\n        /* \"#utility.yul\":3727:3807   */\n      tag_160\n      jump\t// in\n    tag_159:\n        /* \"#utility.yul\":3717:3807   */\n      swap3\n      pop\n        /* \"#utility.yul\":3836:3840   */\n      0x20\n        /* \"#utility.yul\":3831:3834   */\n      dup11\n        /* \"#utility.yul\":3827:3841   */\n      add\n        /* \"#utility.yul\":3820:3841   */\n      swap10\n      pop\n        /* \"#utility.yul\":3485:3851   */\n      pop\n        /* \"#utility.yul\":3472:3473   */\n      0x01\n        /* \"#utility.yul\":3469:3470   */\n      dup2\n        /* \"#utility.yul\":3465:3474   */\n      add\n        /* \"#utility.yul\":3460:3474   */\n      swap1\n      pop\n        /* \"#utility.yul\":3425:3851   */\n      jump(tag_155)\n    tag_157:\n        /* \"#utility.yul\":3429:3443   */\n      pop\n        /* \"#utility.yul\":3867:3871   */\n      dup3\n        /* \"#utility.yul\":3860:3871   */\n      swap8\n      pop\n        /* \"#utility.yul\":3887:3890   */\n      dup8\n        /* \"#utility.yul\":3880:3890   */\n      swap6\n      pop\n        /* \"#utility.yul\":2989:3896   */\n      pop\n      pop\n      pop\n      pop\n      pop\n        /* \"#utility.yul\":2825:3896   */\n      swap3\n      swap2\n      pop\n      pop\n      jump\t// out\n        /* \"#utility.yul\":3902:4001   */\n    tag_161:\n        /* \"#utility.yul\":3973:3994   */\n      tag_163\n        /* \"#utility.yul\":3988:3993   */\n      dup2\n        /* \"#utility.yul\":3973:3994   */\n      tag_164\n      jump\t// in\n    tag_163:\n        /* \"#utility.yul\":3968:3971   */\n      dup3\n        /* \"#utility.yul\":3961:3995   */\n      mstore\n        /* \"#utility.yul\":3902:4001   */\n      pop\n      pop\n      jump\t// out\n        /* \"#utility.yul\":4007:4116   */\n    tag_165:\n        /* \"#utility.yul\":4088:4109   */\n      tag_167\n        /* \"#utility.yul\":4103:4108   */\n      dup2\n        /* \"#utility.yul\":4088:4109   */\n      tag_164\n      jump\t// in\n    tag_167:\n        /* \"#utility.yul\":4083:4086   */\n      dup3\n        /* \"#utility.yul\":4076:4110   */\n      mstore\n        /* \"#utility.yul\":4007:4116   */\n      pop\n      pop\n      jump\t// out\n        /* \"#utility.yul\":4122:4466   */\n    tag_168:\n        /* \"#utility.yul\":4200:4203   */\n      0x00\n        /* \"#utility.yul\":4228:4267   */\n      tag_170\n        /* \"#utility.yul\":4261:4266   */\n      dup3\n        /* \"#utility.yul\":4228:4267   */\n      tag_171\n      jump\t// in\n    tag_170:\n        /* \"#utility.yul\":4283:4344   */\n      tag_172\n        /* \"#utility.yul\":4337:4343   */\n      dup2\n        /* \"#utility.yul\":4332:4335   */\n      dup6\n        /* \"#utility.yul\":4283:4344   */\n      tag_173\n      jump\t// in\n    tag_172:\n        /* \"#utility.yul\":4276:4344   */\n      swap4\n      pop\n        /* \"#utility.yul\":4353:4405   */\n      tag_174\n        /* \"#utility.yul\":4398:4404   */\n      dup2\n        /* \"#utility.yul\":4393:4396   */\n      dup6\n        /* \"#utility.yul\":4386:4390   */\n      0x20\n        /* \"#utility.yul\":4379:4384   */\n      dup7\n        /* \"#utility.yul\":4375:4391   */\n      add\n        /* \"#utility.yul\":4353:4405   */\n      tag_175\n      jump\t// in\n    tag_174:\n        /* \"#utility.yul\":4430:4459   */\n      tag_176\n        /* \"#utility.yul\":4452:4458   */\n      dup2\n        /* \"#utility.yul\":4430:4459   */\n      tag_177\n      jump\t// in\n    tag_176:\n        /* \"#utility.yul\":4425:4428   */\n      dup5\n        /* \"#utility.yul\":4421:4460   */\n      add\n        /* \"#utility.yul\":4414:4460   */\n      swap2\n      pop\n        /* \"#utility.yul\":4204:4466   */\n      pop\n        /* \"#utility.yul\":4122:4466   */\n      swap3\n      swap2\n      pop\n      pop\n      jump\t// out\n        /* \"#utility.yul\":4472:4836   */\n    tag_178:\n        /* \"#utility.yul\":4560:4563   */\n      0x00\n        /* \"#utility.yul\":4588:4627   */\n      tag_180\n        /* \"#utility.yul\":4621:4626   */\n      dup3\n        /* \"#utility.yul\":4588:4627   */\n      tag_171\n      jump\t// in\n    tag_180:\n        /* \"#utility.yul\":4643:4714   */\n      tag_181\n        /* \"#utility.yul\":4707:4713   */\n      dup2\n        /* \"#utility.yul\":4702:4705   */\n      dup6\n        /* \"#utility.yul\":4643:4714   */\n      tag_182\n      jump\t// in\n    tag_181:\n        /* \"#utility.yul\":4636:4714   */\n      swap4\n      pop\n        /* \"#utility.yul\":4723:4775   */\n      tag_183\n        /* \"#utility.yul\":4768:4774   */\n      dup2\n        /* \"#utility.yul\":4763:4766   */\n      dup6\n        /* \"#utility.yul\":4756:4760   */\n      0x20\n        /* \"#utility.yul\":4749:4754   */\n      dup7\n        /* \"#utility.yul\":4745:4761   */\n      add\n        /* \"#utility.yul\":4723:4775   */\n      tag_175\n      jump\t// in\n    tag_183:\n        /* \"#utility.yul\":4800:4829   */\n      tag_184\n        /* \"#utility.yul\":4822:4828   */\n      dup2\n        /* \"#utility.yul\":4800:4829   */\n      tag_177\n      jump\t// in\n    tag_184:\n        /* \"#utility.yul\":4795:4798   */\n      dup5\n        /* \"#utility.yul\":4791:4830   */\n      add\n        /* \"#utility.yul\":4784:4830   */\n      swap2\n      pop\n        /* \"#utility.yul\":4564:4836   */\n      pop\n        /* \"#utility.yul\":4472:4836   */\n      swap3\n      swap2\n      pop\n      pop\n      jump\t// out\n        /* \"#utility.yul\":4892:5894   */\n    tag_146:\n        /* \"#utility.yul\":4991:4994   */\n      0x00\n        /* \"#utility.yul\":5027:5031   */\n      0x80\n        /* \"#utility.yul\":5022:5025   */\n      dup4\n        /* \"#utility.yul\":5018:5032   */\n      add\n        /* \"#utility.yul\":5112:5116   */\n      0x00\n        /* \"#utility.yul\":5105:5110   */\n      dup4\n        /* \"#utility.yul\":5101:5117   */\n      add\n        /* \"#utility.yul\":5095:5118   */\n      mload\n        /* \"#utility.yul\":5131:5194   */\n      tag_186\n        /* \"#utility.yul\":5188:5192   */\n      0x00\n        /* \"#utility.yul\":5183:5186   */\n      dup7\n        /* \"#utility.yul\":5179:5193   */\n      add\n        /* \"#utility.yul\":5165:5177   */\n      dup3\n        /* \"#utility.yul\":5131:5194   */\n      tag_187\n      jump\t// in\n    tag_186:\n        /* \"#utility.yul\":5042:5204   */\n      pop\n        /* \"#utility.yul\":5286:5290   */\n      0x20\n        /* \"#utility.yul\":5279:5284   */\n      dup4\n        /* \"#utility.yul\":5275:5291   */\n      add\n        /* \"#utility.yul\":5269:5292   */\n      mload\n        /* \"#utility.yul\":5339:5342   */\n      dup5\n        /* \"#utility.yul\":5333:5337   */\n      dup3\n        /* \"#utility.yul\":5329:5343   */\n      sub\n        /* \"#utility.yul\":5322:5326   */\n      0x20\n        /* \"#utility.yul\":5317:5320   */\n      dup7\n        /* \"#utility.yul\":5313:5327   */\n      add\n        /* \"#utility.yul\":5306:5344   */\n      mstore\n        /* \"#utility.yul\":5365:5438   */\n      tag_188\n        /* \"#utility.yul\":5433:5437   */\n      dup3\n        /* \"#utility.yul\":5419:5431   */\n      dup3\n        /* \"#utility.yul\":5365:5438   */\n      tag_168\n      jump\t// in\n    tag_188:\n        /* \"#utility.yul\":5357:5438   */\n      swap2\n      pop\n        /* \"#utility.yul\":5214:5449   */\n      pop\n        /* \"#utility.yul\":5534:5538   */\n      0x40\n        /* \"#utility.yul\":5527:5532   */\n      dup4\n        /* \"#utility.yul\":5523:5539   */\n      add\n        /* \"#utility.yul\":5517:5540   */\n      mload\n        /* \"#utility.yul\":5587:5590   */\n      dup5\n        /* \"#utility.yul\":5581:5585   */\n      dup3\n        /* \"#utility.yul\":5577:5591   */\n      sub\n        /* \"#utility.yul\":5570:5574   */\n      0x40\n        /* \"#utility.yul\":5565:5568   */\n      dup7\n        /* \"#utility.yul\":5561:5575   */\n      add\n        /* \"#utility.yul\":5554:5592   */\n      mstore\n        /* \"#utility.yul\":5613:5686   */\n      tag_189\n        /* \"#utility.yul\":5681:5685   */\n      dup3\n        /* \"#utility.yul\":5667:5679   */\n      dup3\n        /* \"#utility.yul\":5613:5686   */\n      tag_168\n      jump\t// in\n    tag_189:\n        /* \"#utility.yul\":5605:5686   */\n      swap2\n      pop\n        /* \"#utility.yul\":5459:5697   */\n      pop\n        /* \"#utility.yul\":5781:5785   */\n      0x60\n        /* \"#utility.yul\":5774:5779   */\n      dup4\n        /* \"#utility.yul\":5770:5786   */\n      add\n        /* \"#utility.yul\":5764:5787   */\n      mload\n        /* \"#utility.yul\":5800:5857   */\n      tag_190\n        /* \"#utility.yul\":5851:5855   */\n      0x60\n        /* \"#utility.yul\":5846:5849   */\n      dup7\n        /* \"#utility.yul\":5842:5856   */\n      add\n        /* \"#utility.yul\":5828:5840   */\n      dup3\n        /* \"#utility.yul\":5800:5857   */\n      tag_161\n      jump\t// in\n    tag_190:\n        /* \"#utility.yul\":5707:5867   */\n      pop\n        /* \"#utility.yul\":5884:5888   */\n      dup1\n        /* \"#utility.yul\":5877:5888   */\n      swap2\n      pop\n        /* \"#utility.yul\":4996:5894   */\n      pop\n        /* \"#utility.yul\":4892:5894   */\n      swap3\n      swap2\n      pop\n      pop\n      jump\t// out\n        /* \"#utility.yul\":5950:6962   */\n    tag_191:\n        /* \"#utility.yul\":6059:6062   */\n      0x00\n        /* \"#utility.yul\":6095:6099   */\n      0x80\n        /* \"#utility.yul\":6090:6093   */\n      dup4\n        /* \"#utility.yul\":6086:6100   */\n      add\n        /* \"#utility.yul\":6180:6184   */\n      0x00\n        /* \"#utility.yul\":6173:6178   */\n      dup4\n        /* \"#utility.yul\":6169:6185   */\n      add\n        /* \"#utility.yul\":6163:6186   */\n      mload\n        /* \"#utility.yul\":6199:6262   */\n      tag_193\n        /* \"#utility.yul\":6256:6260   */\n      0x00\n        /* \"#utility.yul\":6251:6254   */\n      dup7\n        /* \"#utility.yul\":6247:6261   */\n      add\n        /* \"#utility.yul\":6233:6245   */\n      dup3\n        /* \"#utility.yul\":6199:6262   */\n      tag_187\n      jump\t// in\n    tag_193:\n        /* \"#utility.yul\":6110:6272   */\n      pop\n        /* \"#utility.yul\":6354:6358   */\n      0x20\n        /* \"#utility.yul\":6347:6352   */\n      dup4\n        /* \"#utility.yul\":6343:6359   */\n      add\n        /* \"#utility.yul\":6337:6360   */\n      mload\n        /* \"#utility.yul\":6407:6410   */\n      dup5\n        /* \"#utility.yul\":6401:6405   */\n      dup3\n        /* \"#utility.yul\":6397:6411   */\n      sub\n        /* \"#utility.yul\":6390:6394   */\n      0x20\n        /* \"#utility.yul\":6385:6388   */\n      dup7\n        /* \"#utility.yul\":6381:6395   */\n      add\n        /* \"#utility.yul\":6374:6412   */\n      mstore\n        /* \"#utility.yul\":6433:6506   */\n      tag_194\n        /* \"#utility.yul\":6501:6505   */\n      dup3\n        /* \"#utility.yul\":6487:6499   */\n      dup3\n        /* \"#utility.yul\":6433:6506   */\n      tag_168\n      jump\t// in\n    tag_194:\n        /* \"#utility.yul\":6425:6506   */\n      swap2\n      pop\n        /* \"#utility.yul\":6282:6517   */\n      pop\n        /* \"#utility.yul\":6602:6606   */\n      0x40\n        /* \"#utility.yul\":6595:6600   */\n      dup4\n        /* \"#utility.yul\":6591:6607   */\n      add\n        /* \"#utility.yul\":6585:6608   */\n      mload\n        /* \"#utility.yul\":6655:6658   */\n      dup5\n        /* \"#utility.yul\":6649:6653   */\n      dup3\n        /* \"#utility.yul\":6645:6659   */\n      sub\n        /* \"#utility.yul\":6638:6642   */\n      0x40\n        /* \"#utility.yul\":6633:6636   */\n      dup7\n        /* \"#utility.yul\":6629:6643   */\n      add\n        /* \"#utility.yul\":6622:6660   */\n      mstore\n        /* \"#utility.yul\":6681:6754   */\n      tag_195\n        /* \"#utility.yul\":6749:6753   */\n      dup3\n        /* \"#utility.yul\":6735:6747   */\n      dup3\n        /* \"#utility.yul\":6681:6754   */\n      tag_168\n      jump\t// in\n    tag_195:\n        /* \"#utility.yul\":6673:6754   */\n      swap2\n      pop\n        /* \"#utility.yul\":6527:6765   */\n      pop\n        /* \"#utility.yul\":6849:6853   */\n      0x60\n        /* \"#utility.yul\":6842:6847   */\n      dup4\n        /* \"#utility.yul\":6838:6854   */\n      add\n        /* \"#utility.yul\":6832:6855   */\n      mload\n        /* \"#utility.yul\":6868:6925   */\n      tag_196\n        /* \"#utility.yul\":6919:6923   */\n      0x60\n        /* \"#utility.yul\":6914:6917   */\n      dup7\n        /* \"#utility.yul\":6910:6924   */\n      add\n        /* \"#utility.yul\":6896:6908   */\n      dup3\n        /* \"#utility.yul\":6868:6925   */\n      tag_161\n      jump\t// in\n    tag_196:\n        /* \"#utility.yul\":6775:6935   */\n      pop\n        /* \"#utility.yul\":6952:6956   */\n      dup1\n        /* \"#utility.yul\":6945:6956   */\n      swap2\n      pop\n        /* \"#utility.yul\":6064:6962   */\n      pop\n        /* \"#utility.yul\":5950:6962   */\n      swap3\n      swap2\n      pop\n      pop\n      jump\t// out\n        /* \"#utility.yul\":6968:7076   */\n    tag_187:\n        /* \"#utility.yul\":7045:7069   */\n      tag_198\n        /* \"#utility.yul\":7063:7068   */\n      dup2\n        /* \"#utility.yul\":7045:7069   */\n      tag_199\n      jump\t// in\n    tag_198:\n        /* \"#utility.yul\":7040:7043   */\n      dup3\n        /* \"#utility.yul\":7033:7070   */\n      mstore\n        /* \"#utility.yul\":6968:7076   */\n      pop\n      pop\n      jump\t// out\n        /* \"#utility.yul\":7082:7200   */\n    tag_200:\n        /* \"#utility.yul\":7169:7193   */\n      tag_202\n        /* \"#utility.yul\":7187:7192   */\n      dup2\n        /* \"#utility.yul\":7169:7193   */\n      tag_199\n      jump\t// in\n    tag_202:\n        /* \"#utility.yul\":7164:7167   */\n      dup3\n        /* \"#utility.yul\":7157:7194   */\n      mstore\n        /* \"#utility.yul\":7082:7200   */\n      pop\n      pop\n      jump\t// out\n        /* \"#utility.yul\":7206:7659   */\n    tag_16:\n        /* \"#utility.yul\":7389:7393   */\n      0x00\n        /* \"#utility.yul\":7427:7429   */\n      0x20\n        /* \"#utility.yul\":7416:7425   */\n      dup3\n        /* \"#utility.yul\":7412:7430   */\n      add\n        /* \"#utility.yul\":7404:7430   */\n      swap1\n      pop\n        /* \"#utility.yul\":7476:7485   */\n      dup2\n        /* \"#utility.yul\":7470:7474   */\n      dup2\n        /* \"#utility.yul\":7466:7486   */\n      sub\n        /* \"#utility.yul\":7462:7463   */\n      0x00\n        /* \"#utility.yul\":7451:7460   */\n      dup4\n        /* \"#utility.yul\":7447:7464   */\n      add\n        /* \"#utility.yul\":7440:7487   */\n      mstore\n        /* \"#utility.yul\":7504:7652   */\n      tag_204\n        /* \"#utility.yul\":7647:7651   */\n      dup2\n        /* \"#utility.yul\":7638:7644   */\n      dup5\n        /* \"#utility.yul\":7504:7652   */\n      tag_147\n      jump\t// in\n    tag_204:\n        /* \"#utility.yul\":7496:7652   */\n      swap1\n      pop\n        /* \"#utility.yul\":7206:7659   */\n      swap3\n      swap2\n      pop\n      pop\n      jump\t// out\n        /* \"#utility.yul\":7665:8018   */\n    tag_34:\n        /* \"#utility.yul\":7798:7802   */\n      0x00\n        /* \"#utility.yul\":7836:7838   */\n      0x20\n        /* \"#utility.yul\":7825:7834   */\n      dup3\n        /* \"#utility.yul\":7821:7839   */\n      add\n        /* \"#utility.yul\":7813:7839   */\n      swap1\n      pop\n        /* \"#utility.yul\":7885:7894   */\n      dup2\n        /* \"#utility.yul\":7879:7883   */\n      dup2\n        /* \"#utility.yul\":7875:7895   */\n      sub\n        /* \"#utility.yul\":7871:7872   */\n      0x00\n        /* \"#utility.yul\":7860:7869   */\n      dup4\n        /* \"#utility.yul\":7856:7873   */\n      add\n        /* \"#utility.yul\":7849:7896   */\n      mstore\n        /* \"#utility.yul\":7913:8011   */\n      tag_206\n        /* \"#utility.yul\":8006:8010   */\n      dup2\n        /* \"#utility.yul\":7997:8003   */\n      dup5\n        /* \"#utility.yul\":7913:8011   */\n      tag_191\n      jump\t// in\n    tag_206:\n        /* \"#utility.yul\":7905:8011   */\n      swap1\n      pop\n        /* \"#utility.yul\":7665:8018   */\n      swap3\n      swap2\n      pop\n      pop\n      jump\t// out\n        /* \"#utility.yul\":8024:8246   */\n    tag_20:\n        /* \"#utility.yul\":8117:8121   */\n      0x00\n        /* \"#utility.yul\":8155:8157   */\n      0x20\n        /* \"#utility.yul\":8144:8153   */\n      dup3\n        /* \"#utility.yul\":8140:8158   */\n      add\n        /* \"#utility.yul\":8132:8158   */\n      swap1\n      pop\n        /* \"#utility.yul\":8168:8239   */\n      tag_208\n        /* \"#utility.yul\":8236:8237   */\n      0x00\n        /* \"#utility.yul\":8225:8234   */\n      dup4\n        /* \"#utility.yul\":8221:8238   */\n      add\n        /* \"#utility.yul\":8212:8218   */\n      dup5\n        /* \"#utility.yul\":8168:8239   */\n      tag_200\n      jump\t// in\n    tag_208:\n        /* \"#utility.yul\":8024:8246   */\n      swap3\n      swap2\n      pop\n      pop\n      jump\t// out\n        /* \"#utility.yul\":8252:8975   */\n    tag_26:\n        /* \"#utility.yul\":8463:8467   */\n      0x00\n        /* \"#utility.yul\":8501:8504   */\n      0x80\n        /* \"#utility.yul\":8490:8499   */\n      dup3\n        /* \"#utility.yul\":8486:8505   */\n      add\n        /* \"#utility.yul\":8478:8505   */\n      swap1\n      pop\n        /* \"#utility.yul\":8515:8586   */\n      tag_210\n        /* \"#utility.yul\":8583:8584   */\n      0x00\n        /* \"#utility.yul\":8572:8581   */\n      dup4\n        /* \"#utility.yul\":8568:8585   */\n      add\n        /* \"#utility.yul\":8559:8565   */\n      dup8\n        /* \"#utility.yul\":8515:8586   */\n      tag_200\n      jump\t// in\n    tag_210:\n        /* \"#utility.yul\":8633:8642   */\n      dup2\n        /* \"#utility.yul\":8627:8631   */\n      dup2\n        /* \"#utility.yul\":8623:8643   */\n      sub\n        /* \"#utility.yul\":8618:8620   */\n      0x20\n        /* \"#utility.yul\":8607:8616   */\n      dup4\n        /* \"#utility.yul\":8603:8621   */\n      add\n        /* \"#utility.yul\":8596:8644   */\n      mstore\n        /* \"#utility.yul\":8661:8739   */\n      tag_211\n        /* \"#utility.yul\":8734:8738   */\n      dup2\n        /* \"#utility.yul\":8725:8731   */\n      dup7\n        /* \"#utility.yul\":8661:8739   */\n      tag_178\n      jump\t// in\n    tag_211:\n        /* \"#utility.yul\":8653:8739   */\n      swap1\n      pop\n        /* \"#utility.yul\":8786:8795   */\n      dup2\n        /* \"#utility.yul\":8780:8784   */\n      dup2\n        /* \"#utility.yul\":8776:8796   */\n      sub\n        /* \"#utility.yul\":8771:8773   */\n      0x40\n        /* \"#utility.yul\":8760:8769   */\n      dup4\n        /* \"#utility.yul\":8756:8774   */\n      add\n        /* \"#utility.yul\":8749:8797   */\n      mstore\n        /* \"#utility.yul\":8814:8892   */\n      tag_212\n        /* \"#utility.yul\":8887:8891   */\n      dup2\n        /* \"#utility.yul\":8878:8884   */\n      dup6\n        /* \"#utility.yul\":8814:8892   */\n      tag_178\n      jump\t// in\n    tag_212:\n        /* \"#utility.yul\":8806:8892   */\n      swap1\n      pop\n        /* \"#utility.yul\":8902:8968   */\n      tag_213\n        /* \"#utility.yul\":8964:8966   */\n      0x60\n        /* \"#utility.yul\":8953:8962   */\n      dup4\n        /* \"#utility.yul\":8949:8967   */\n      add\n        /* \"#utility.yul\":8940:8946   */\n      dup5\n        /* \"#utility.yul\":8902:8968   */\n      tag_165\n      jump\t// in\n    tag_213:\n        /* \"#utility.yul\":8252:8975   */\n      swap6\n      swap5\n      pop\n      pop\n      pop\n      pop\n      pop\n      jump\t// out\n        /* \"#utility.yul\":8981:9110   */\n    tag_106:\n        /* \"#utility.yul\":9015:9021   */\n      0x00\n        /* \"#utility.yul\":9042:9062   */\n      tag_215\n      tag_216\n      jump\t// in\n    tag_215:\n        /* \"#utility.yul\":9032:9062   */\n      swap1\n      pop\n        /* \"#utility.yul\":9071:9104   */\n      tag_217\n        /* \"#utility.yul\":9099:9103   */\n      dup3\n        /* \"#utility.yul\":9091:9097   */\n      dup3\n        /* \"#utility.yul\":9071:9104   */\n      tag_218\n      jump\t// in\n    tag_217:\n        /* \"#utility.yul\":8981:9110   */\n      swap2\n      swap1\n      pop\n      jump\t// out\n        /* \"#utility.yul\":9116:9191   */\n    tag_216:\n        /* \"#utility.yul\":9149:9155   */\n      0x00\n        /* \"#utility.yul\":9182:9184   */\n      0x40\n        /* \"#utility.yul\":9176:9185   */\n      mload\n        /* \"#utility.yul\":9166:9185   */\n      swap1\n      pop\n        /* \"#utility.yul\":9116:9191   */\n      swap1\n      jump\t// out\n        /* \"#utility.yul\":9197:9505   */\n    tag_105:\n        /* \"#utility.yul\":9259:9263   */\n      0x00\n        /* \"#utility.yul\":9349:9367   */\n      0xffffffffffffffff\n        /* \"#utility.yul\":9341:9347   */\n      dup3\n        /* \"#utility.yul\":9338:9368   */\n      gt\n        /* \"#utility.yul\":9335:9391   */\n      iszero\n      tag_221\n      jumpi\n        /* \"#utility.yul\":9371:9389   */\n      tag_222\n      tag_44\n      jump\t// in\n    tag_222:\n        /* \"#utility.yul\":9335:9391   */\n    tag_221:\n        /* \"#utility.yul\":9409:9438   */\n      tag_223\n        /* \"#utility.yul\":9431:9437   */\n      dup3\n        /* \"#utility.yul\":9409:9438   */\n      tag_177\n      jump\t// in\n    tag_223:\n        /* \"#utility.yul\":9401:9438   */\n      swap1\n      pop\n        /* \"#utility.yul\":9493:9497   */\n      0x20\n        /* \"#utility.yul\":9487:9491   */\n      dup2\n        /* \"#utility.yul\":9483:9498   */\n      add\n        /* \"#utility.yul\":9475:9498   */\n      swap1\n      pop\n        /* \"#utility.yul\":9197:9505   */\n      swap2\n      swap1\n      pop\n      jump\t// out\n        /* \"#utility.yul\":9511:9663   */\n    tag_154:\n        /* \"#utility.yul\":9598:9602   */\n      0x00\n        /* \"#utility.yul\":9621:9624   */\n      dup2\n        /* \"#utility.yul\":9613:9624   */\n      swap1\n      pop\n        /* \"#utility.yul\":9651:9655   */\n      0x20\n        /* \"#utility.yul\":9646:9649   */\n      dup3\n        /* \"#utility.yul\":9642:9656   */\n      add\n        /* \"#utility.yul\":9634:9656   */\n      swap1\n      pop\n        /* \"#utility.yul\":9511:9663   */\n      swap2\n      swap1\n      pop\n      jump\t// out\n        /* \"#utility.yul\":9669:9803   */\n    tag_150:\n        /* \"#utility.yul\":9756:9762   */\n      0x00\n        /* \"#utility.yul\":9790:9795   */\n      dup2\n        /* \"#utility.yul\":9784:9796   */\n      mload\n        /* \"#utility.yul\":9774:9796   */\n      swap1\n      pop\n        /* \"#utility.yul\":9669:9803   */\n      swap2\n      swap1\n      pop\n      jump\t// out\n        /* \"#utility.yul\":9809:9908   */\n    tag_171:\n        /* \"#utility.yul\":9861:9867   */\n      0x00\n        /* \"#utility.yul\":9895:9900   */\n      dup2\n        /* \"#utility.yul\":9889:9901   */\n      mload\n        /* \"#utility.yul\":9879:9901   */\n      swap1\n      pop\n        /* \"#utility.yul\":9809:9908   */\n      swap2\n      swap1\n      pop\n      jump\t// out\n        /* \"#utility.yul\":9914:10047   */\n    tag_160:\n        /* \"#utility.yul\":10004:10008   */\n      0x00\n        /* \"#utility.yul\":10036:10040   */\n      0x20\n        /* \"#utility.yul\":10031:10034   */\n      dup3\n        /* \"#utility.yul\":10027:10041   */\n      add\n        /* \"#utility.yul\":10019:10041   */\n      swap1\n      pop\n        /* \"#utility.yul\":9914:10047   */\n      swap2\n      swap1\n      pop\n      jump\t// out\n        /* \"#utility.yul\":10053:10257   */\n    tag_152:\n        /* \"#utility.yul\":10172:10183   */\n      0x00\n        /* \"#utility.yul\":10206:10212   */\n      dup3\n        /* \"#utility.yul\":10201:10204   */\n      dup3\n        /* \"#utility.yul\":10194:10213   */\n      mstore\n        /* \"#utility.yul\":10246:10250   */\n      0x20\n        /* \"#utility.yul\":10241:10244   */\n      dup3\n        /* \"#utility.yul\":10237:10251   */\n      add\n        /* \"#utility.yul\":10222:10251   */\n      swap1\n      pop\n        /* \"#utility.yul\":10053:10257   */\n      swap3\n      swap2\n      pop\n      pop\n      jump\t// out\n        /* \"#utility.yul\":10263:10422   */\n    tag_173:\n        /* \"#utility.yul\":10337:10348   */\n      0x00\n        /* \"#utility.yul\":10371:10377   */\n      dup3\n        /* \"#utility.yul\":10366:10369   */\n      dup3\n        /* \"#utility.yul\":10359:10378   */\n      mstore\n        /* \"#utility.yul\":10411:10415   */\n      0x20\n        /* \"#utility.yul\":10406:10409   */\n      dup3\n        /* \"#utility.yul\":10402:10416   */\n      add\n        /* \"#utility.yul\":10387:10416   */\n      swap1\n      pop\n        /* \"#utility.yul\":10263:10422   */\n      swap3\n      swap2\n      pop\n      pop\n      jump\t// out\n        /* \"#utility.yul\":10428:10597   */\n    tag_182:\n        /* \"#utility.yul\":10512:10523   */\n      0x00\n        /* \"#utility.yul\":10546:10552   */\n      dup3\n        /* \"#utility.yul\":10541:10544   */\n      dup3\n        /* \"#utility.yul\":10534:10553   */\n      mstore\n        /* \"#utility.yul\":10586:10590   */\n      0x20\n        /* \"#utility.yul\":10581:10584   */\n      dup3\n        /* \"#utility.yul\":10577:10591   */\n      add\n        /* \"#utility.yul\":10562:10591   */\n      swap1\n      pop\n        /* \"#utility.yul\":10428:10597   */\n      swap3\n      swap2\n      pop\n      pop\n      jump\t// out\n        /* \"#utility.yul\":10603:10693   */\n    tag_164:\n        /* \"#utility.yul\":10637:10644   */\n      0x00\n        /* \"#utility.yul\":10680:10685   */\n      dup2\n        /* \"#utility.yul\":10673:10686   */\n      iszero\n        /* \"#utility.yul\":10666:10687   */\n      iszero\n        /* \"#utility.yul\":10655:10687   */\n      swap1\n      pop\n        /* \"#utility.yul\":10603:10693   */\n      swap2\n      swap1\n      pop\n      jump\t// out\n        /* \"#utility.yul\":10699:10776   */\n    tag_199:\n        /* \"#utility.yul\":10736:10743   */\n      0x00\n        /* \"#utility.yul\":10765:10770   */\n      dup2\n        /* \"#utility.yul\":10754:10770   */\n      swap1\n      pop\n        /* \"#utility.yul\":10699:10776   */\n      swap2\n      swap1\n      pop\n      jump\t// out\n        /* \"#utility.yul\":10782:10936   */\n    tag_111:\n        /* \"#utility.yul\":10866:10872   */\n      dup3\n        /* \"#utility.yul\":10861:10864   */\n      dup2\n        /* \"#utility.yul\":10856:10859   */\n      dup4\n        /* \"#utility.yul\":10843:10873   */\n      calldatacopy\n        /* \"#utility.yul\":10928:10929   */\n      0x00\n        /* \"#utility.yul\":10919:10925   */\n      dup4\n        /* \"#utility.yul\":10914:10917   */\n      dup4\n        /* \"#utility.yul\":10910:10926   */\n      add\n        /* \"#utility.yul\":10903:10930   */\n      mstore\n        /* \"#utility.yul\":10782:10936   */\n      pop\n      pop\n      pop\n      jump\t// out\n        /* \"#utility.yul\":10942:11249   */\n    tag_175:\n        /* \"#utility.yul\":11010:11011   */\n      0x00\n        /* \"#utility.yul\":11020:11133   */\n    tag_235:\n        /* \"#utility.yul\":11034:11040   */\n      dup4\n        /* \"#utility.yul\":11031:11032   */\n      dup2\n        /* \"#utility.yul\":11028:11041   */\n      lt\n        /* \"#utility.yul\":11020:11133   */\n      iszero\n      tag_237\n      jumpi\n        /* \"#utility.yul\":11119:11120   */\n      dup1\n        /* \"#utility.yul\":11114:11117   */\n      dup3\n        /* \"#utility.yul\":11110:11121   */\n      add\n        /* \"#utility.yul\":11104:11122   */\n      mload\n        /* \"#utility.yul\":11100:11101   */\n      dup2\n        /* \"#utility.yul\":11095:11098   */\n      dup5\n        /* \"#utility.yul\":11091:11102   */\n      add\n        /* \"#utility.yul\":11084:11123   */\n      mstore\n        /* \"#utility.yul\":11056:11058   */\n      0x20\n        /* \"#utility.yul\":11053:11054   */\n      dup2\n        /* \"#utility.yul\":11049:11059   */\n      add\n        /* \"#utility.yul\":11044:11059   */\n      swap1\n      pop\n        /* \"#utility.yul\":11020:11133   */\n      jump(tag_235)\n    tag_237:\n        /* \"#utility.yul\":11151:11157   */\n      dup4\n        /* \"#utility.yul\":11148:11149   */\n      dup2\n        /* \"#utility.yul\":11145:11158   */\n      gt\n        /* \"#utility.yul\":11142:11243   */\n      iszero\n      tag_238\n      jumpi\n        /* \"#utility.yul\":11231:11232   */\n      0x00\n        /* \"#utility.yul\":11222:11228   */\n      dup5\n        /* \"#utility.yul\":11217:11220   */\n      dup5\n        /* \"#utility.yul\":11213:11229   */\n      add\n        /* \"#utility.yul\":11206:11233   */\n      mstore\n        /* \"#utility.yul\":11142:11243   */\n    tag_238:\n        /* \"#utility.yul\":10991:11249   */\n      pop\n        /* \"#utility.yul\":10942:11249   */\n      pop\n      pop\n      pop\n      jump\t// out\n        /* \"#utility.yul\":11255:11575   */\n    tag_53:\n        /* \"#utility.yul\":11299:11305   */\n      0x00\n        /* \"#utility.yul\":11336:11337   */\n      0x02\n        /* \"#utility.yul\":11330:11334   */\n      dup3\n        /* \"#utility.yul\":11326:11338   */\n      div\n        /* \"#utility.yul\":11316:11338   */\n      swap1\n      pop\n        /* \"#utility.yul\":11383:11384   */\n      0x01\n        /* \"#utility.yul\":11377:11381   */\n      dup3\n        /* \"#utility.yul\":11373:11385   */\n      and\n        /* \"#utility.yul\":11404:11422   */\n      dup1\n        /* \"#utility.yul\":11394:11475   */\n      tag_240\n      jumpi\n        /* \"#utility.yul\":11460:11464   */\n      0x7f\n        /* \"#utility.yul\":11452:11458   */\n      dup3\n        /* \"#utility.yul\":11448:11465   */\n      and\n        /* \"#utility.yul\":11438:11465   */\n      swap2\n      pop\n        /* \"#utility.yul\":11394:11475   */\n    tag_240:\n        /* \"#utility.yul\":11522:11524   */\n      0x20\n        /* \"#utility.yul\":11514:11520   */\n      dup3\n        /* \"#utility.yul\":11511:11525   */\n      lt\n        /* \"#utility.yul\":11491:11509   */\n      dup2\n        /* \"#utility.yul\":11488:11526   */\n      eq\n        /* \"#utility.yul\":11485:11569   */\n      iszero\n      tag_241\n      jumpi\n        /* \"#utility.yul\":11541:11559   */\n      tag_242\n      tag_243\n      jump\t// in\n    tag_242:\n        /* \"#utility.yul\":11485:11569   */\n    tag_241:\n        /* \"#utility.yul\":11306:11575   */\n      pop\n        /* \"#utility.yul\":11255:11575   */\n      swap2\n      swap1\n      pop\n      jump\t// out\n        /* \"#utility.yul\":11581:11862   */\n    tag_218:\n        /* \"#utility.yul\":11664:11691   */\n      tag_245\n        /* \"#utility.yul\":11686:11690   */\n      dup3\n        /* \"#utility.yul\":11664:11691   */\n      tag_177\n      jump\t// in\n    tag_245:\n        /* \"#utility.yul\":11656:11662   */\n      dup2\n        /* \"#utility.yul\":11652:11692   */\n      add\n        /* \"#utility.yul\":11794:11800   */\n      dup2\n        /* \"#utility.yul\":11782:11792   */\n      dup2\n        /* \"#utility.yul\":11779:11801   */\n      lt\n        /* \"#utility.yul\":11758:11776   */\n      0xffffffffffffffff\n        /* \"#utility.yul\":11746:11756   */\n      dup3\n        /* \"#utility.yul\":11743:11777   */\n      gt\n        /* \"#utility.yul\":11740:11802   */\n      or\n        /* \"#utility.yul\":11737:11825   */\n      iszero\n      tag_246\n      jumpi\n        /* \"#utility.yul\":11805:11823   */\n      tag_247\n      tag_44\n      jump\t// in\n    tag_247:\n        /* \"#utility.yul\":11737:11825   */\n    tag_246:\n        /* \"#utility.yul\":11845:11855   */\n      dup1\n        /* \"#utility.yul\":11841:11843   */\n      0x40\n        /* \"#utility.yul\":11834:11856   */\n      mstore\n        /* \"#utility.yul\":11624:11862   */\n      pop\n        /* \"#utility.yul\":11581:11862   */\n      pop\n      pop\n      jump\t// out\n        /* \"#utility.yul\":11868:12101   */\n    tag_40:\n        /* \"#utility.yul\":11907:11910   */\n      0x00\n        /* \"#utility.yul\":11930:11954   */\n      tag_249\n        /* \"#utility.yul\":11948:11953   */\n      dup3\n        /* \"#utility.yul\":11930:11954   */\n      tag_199\n      jump\t// in\n    tag_249:\n        /* \"#utility.yul\":11921:11954   */\n      swap2\n      pop\n        /* \"#utility.yul\":11976:12042   */\n      0xffffffffffffffffffffffffffffffffffffffffffffffffffffffffffffffff\n        /* \"#utility.yul\":11969:11974   */\n      dup3\n        /* \"#utility.yul\":11966:12043   */\n      eq\n        /* \"#utility.yul\":11963:12066   */\n      iszero\n      tag_250\n      jumpi\n        /* \"#utility.yul\":12046:12064   */\n      tag_251\n      tag_252\n      jump\t// in\n    tag_251:\n        /* \"#utility.yul\":11963:12066   */\n    tag_250:\n        /* \"#utility.yul\":12093:12094   */\n      0x01\n        /* \"#utility.yul\":12086:12091   */\n      dup3\n        /* \"#utility.yul\":12082:12095   */\n      add\n        /* \"#utility.yul\":12075:12095   */\n      swap1\n      pop\n        /* \"#utility.yul\":11868:12101   */\n      swap2\n      swap1\n      pop\n      jump\t// out\n        /* \"#utility.yul\":12107:12287   */\n    tag_252:\n        /* \"#utility.yul\":12155:12232   */\n      0x4e487b7100000000000000000000000000000000000000000000000000000000\n        /* \"#utility.yul\":12152:12153   */\n      0x00\n        /* \"#utility.yul\":12145:12233   */\n      mstore\n        /* \"#utility.yul\":12252:12256   */\n      0x11\n        /* \"#utility.yul\":12249:12250   */\n      0x04\n        /* \"#utility.yul\":12242:12257   */\n      mstore\n        /* \"#utility.yul\":12276:12280   */\n      0x24\n        /* \"#utility.yul\":12273:12274   */\n      0x00\n        /* \"#utility.yul\":12266:12281   */\n      revert\n        /* \"#utility.yul\":12293:12473   */\n    tag_243:\n        /* \"#utility.yul\":12341:12418   */\n      0x4e487b7100000000000000000000000000000000000000000000000000000000\n        /* \"#utility.yul\":12338:12339   */\n      0x00\n        /* \"#utility.yul\":12331:12419   */\n      mstore\n        /* \"#utility.yul\":12438:12442   */\n      0x22\n        /* \"#utility.yul\":12435:12436   */\n      0x04\n        /* \"#utility.yul\":12428:12443   */\n      mstore\n        /* \"#utility.yul\":12462:12466   */\n      0x24\n        /* \"#utility.yul\":12459:12460   */\n      0x00\n        /* \"#utility.yul\":12452:12467   */\n      revert\n        /* \"#utility.yul\":12479:12659   */\n    tag_65:\n        /* \"#utility.yul\":12527:12604   */\n      0x4e487b7100000000000000000000000000000000000000000000000000000000\n        /* \"#utility.yul\":12524:12525   */\n      0x00\n        /* \"#utility.yul\":12517:12605   */\n      mstore\n        /* \"#utility.yul\":12624:12628   */\n      0x32\n        /* \"#utility.yul\":12621:12622   */\n      0x04\n        /* \"#utility.yul\":12614:12629   */\n      mstore\n        /* \"#utility.yul\":12648:12652   */\n      0x24\n        /* \"#utility.yul\":12645:12646   */\n      0x00\n        /* \"#utility.yul\":12638:12653   */\n      revert\n        /* \"#utility.yul\":12665:12845   */\n    tag_44:\n        /* \"#utility.yul\":12713:12790   */\n      0x4e487b7100000000000000000000000000000000000000000000000000000000\n        /* \"#utility.yul\":12710:12711   */\n      0x00\n        /* \"#utility.yul\":12703:12791   */\n      mstore\n        /* \"#utility.yul\":12810:12814   */\n      0x41\n        /* \"#utility.yul\":12807:12808   */\n      0x04\n        /* \"#utility.yul\":12800:12815   */\n      mstore\n        /* \"#utility.yul\":12834:12838   */\n      0x24\n        /* \"#utility.yul\":12831:12832   */\n      0x00\n        /* \"#utility.yul\":12824:12839   */\n      revert\n        /* \"#utility.yul\":12851:12968   */\n    tag_120:\n        /* \"#utility.yul\":12960:12961   */\n      0x00\n        /* \"#utility.yul\":12957:12958   */\n      dup1\n        /* \"#utility.yul\":12950:12962   */\n      revert\n        /* \"#utility.yul\":12974:13091   */\n    tag_109:\n        /* \"#utility.yul\":13083:13084   */\n      0x00\n        /* \"#utility.yul\":13080:13081   */\n      dup1\n        /* \"#utility.yul\":13073:13085   */\n      revert\n        /* \"#utility.yul\":13097:13214   */\n    tag_137:\n        /* \"#utility.yul\":13206:13207   */\n      0x00\n        /* \"#utility.yul\":13203:13204   */\n      dup1\n        /* \"#utility.yul\":13196:13208   */\n      revert\n        /* \"#utility.yul\":13220:13337   */\n    tag_129:\n        /* \"#utility.yul\":13329:13330   */\n      0x00\n        /* \"#utility.yul\":13326:13327   */\n      dup1\n        /* \"#utility.yul\":13319:13331   */\n      revert\n        /* \"#utility.yul\":13343:13445   */\n    tag_177:\n        /* \"#utility.yul\":13384:13390   */\n      0x00\n        /* \"#utility.yul\":13435:13437   */\n      0x1f\n        /* \"#utility.yul\":13431:13438   */\n      not\n        /* \"#utility.yul\":13426:13428   */\n      0x1f\n        /* \"#utility.yul\":13419:13424   */\n      dup4\n        /* \"#utility.yul\":13415:13429   */\n      add\n        /* \"#utility.yul\":13411:13439   */\n      and\n        /* \"#utility.yul\":13401:13439   */\n      swap1\n      pop\n        /* \"#utility.yul\":13343:13445   */\n      swap2\n      swap1\n      pop\n      jump\t// out\n        /* \"#utility.yul\":13451:13567   */\n    tag_115:\n        /* \"#utility.yul\":13521:13542   */\n      tag_263\n        /* \"#utility.yul\":13536:13541   */\n      dup2\n        /* \"#utility.yul\":13521:13542   */\n      tag_164\n      jump\t// in\n    tag_263:\n        /* \"#utility.yul\":13514:13519   */\n      dup2\n        /* \"#utility.yul\":13511:13543   */\n      eq\n        /* \"#utility.yul\":13501:13561   */\n      tag_264\n      jumpi\n        /* \"#utility.yul\":13557:13558   */\n      0x00\n        /* \"#utility.yul\":13554:13555   */\n      dup1\n        /* \"#utility.yul\":13547:13559   */\n      revert\n        /* \"#utility.yul\":13501:13561   */\n    tag_264:\n        /* \"#utility.yul\":13451:13567   */\n      pop\n      jump\t// out\n        /* \"#utility.yul\":13573:13695   */\n    tag_125:\n        /* \"#utility.yul\":13646:13670   */\n      tag_266\n        /* \"#utility.yul\":13664:13669   */\n      dup2\n        /* \"#utility.yul\":13646:13670   */\n      tag_199\n      jump\t// in\n    tag_266:\n        /* \"#utility.yul\":13639:13644   */\n      dup2\n        /* \"#utility.yul\":13636:13671   */\n      eq\n        /* \"#utility.yul\":13626:13689   */\n      tag_267\n      jumpi\n        /* \"#utility.yul\":13685:13686   */\n      0x00\n        /* \"#utility.yul\":13682:13683   */\n      dup1\n        /* \"#utility.yul\":13675:13687   */\n      revert\n        /* \"#utility.yul\":13626:13689   */\n    tag_267:\n        /* \"#utility.yul\":13573:13695   */\n      pop\n      jump\t// out\n\n    auxdata: 0xa26469706673582212201ade2450c95ff12eaabda69a27685a531b9586362bc185c300fc5a8fed2f4f3a64736f6c63430008070033\n}\n",
				"bytecode": {
					"linkReferences": {},
					"object": "608060405234801561001057600080fd5b50336000806101000a81548173ffffffffffffffffffffffffffffffffffffffff021916908373ffffffffffffffffffffffffffffffffffffffff160217905550610ece806100606000396000f3fe608060405234801561001057600080fd5b50600436106100625760003560e01c80633b04d05b1461006757806353ed51431461008357806361bc221a146100a1578063bc8bc2b4146100bf578063d321fe29146100f2578063dd68afb614610110575b600080fd5b610081600480360381019061007c919061086d565b610140565b005b61008b6101fd565b6040516100989190610b17565b60405180910390f35b6100a9610406565b6040516100b69190610b5b565b60405180910390f35b6100d960048036038101906100d49190610840565b61040c565b6040516100e99493929190610b76565b60405180910390f35b6100fa610559565b6040516101079190610b5b565b60405180910390f35b61012a60048036038101906101259190610840565b610563565b6040516101379190610b39565b60405180910390f35b604051806080016040528085815260200184815260200183815260200182151581525060026000600154815260200190815260200160002060008201518160000155602082015181600101908051906020019061019e9291906106d9565b5060408201518160020190805190602001906101bb9291906106d9565b5060608201518160030160006101000a81548160ff021916908315150217905550905050600160008154809291906101f290610d40565b919050555050505050565b6060600060015467ffffffffffffffff81111561021d5761021c610e16565b5b60405190808252806020026020018201604052801561025657816020015b61024361075f565b81526020019060019003908161023b5790505b50905060005b6001548110156103fe57600260008281526020019081526020016000206040518060800160405290816000820154815260200160018201805461029e90610cdd565b80601f01602080910402602001604051908101604052809291908181526020018280546102ca90610cdd565b80156103175780601f106102ec57610100808354040283529160200191610317565b820191906000526020600020905b8154815290600101906020018083116102fa57829003601f168201915b5050505050815260200160028201805461033090610cdd565b80601f016020809104026020016040519081016040528092919081815260200182805461035c90610cdd565b80156103a95780601f1061037e576101008083540402835291602001916103a9565b820191906000526020600020905b81548152906001019060200180831161038c57829003601f168201915b505050505081526020016003820160009054906101000a900460ff1615151515815250508282815181106103e0576103df610de7565b5b602002602001018190525080806103f690610d40565b91505061025c565b508091505090565b60015481565b600260205280600052604060002060009150905080600001549080600101805461043590610cdd565b80601f016020809104026020016040519081016040528092919081815260200182805461046190610cdd565b80156104ae5780601f10610483576101008083540402835291602001916104ae565b820191906000526020600020905b81548152906001019060200180831161049157829003601f168201915b5050505050908060020180546104c390610cdd565b80601f01602080910402602001604051908101604052809291908181526020018280546104ef90610cdd565b801561053c5780601f106105115761010080835404028352916020019161053c565b820191906000526020600020905b81548152906001019060200180831161051f57829003601f168201915b5050505050908060030160009054906101000a900460ff16905084565b6000600154905090565b61056b61075f565b60026000838152602001908152602001600020604051806080016040529081600082015481526020016001820180546105a390610cdd565b80601f01602080910402602001604051908101604052809291908181526020018280546105cf90610cdd565b801561061c5780601f106105f15761010080835404028352916020019161061c565b820191906000526020600020905b8154815290600101906020018083116105ff57829003601f168201915b5050505050815260200160028201805461063590610cdd565b80601f016020809104026020016040519081016040528092919081815260200182805461066190610cdd565b80156106ae5780601f10610683576101008083540402835291602001916106ae565b820191906000526020600020905b81548152906001019060200180831161069157829003601f168201915b505050505081526020016003820160009054906101000a900460ff1615151515815250509050919050565b8280546106e590610cdd565b90600052602060002090601f016020900481019282610707576000855561074e565b82601f1061072057805160ff191683800117855561074e565b8280016001018555821561074e579182015b8281111561074d578251825591602001919060010190610732565b5b50905061075b9190610789565b5090565b60405180608001604052806000815260200160608152602001606081526020016000151581525090565b5b808211156107a257600081600090555060010161078a565b5090565b60006107b96107b484610bee565b610bc9565b9050828152602081018484840111156107d5576107d4610e4a565b5b6107e0848285610c9b565b509392505050565b6000813590506107f781610e6a565b92915050565b600082601f83011261081257610811610e45565b5b81356108228482602086016107a6565b91505092915050565b60008135905061083a81610e81565b92915050565b60006020828403121561085657610855610e54565b5b60006108648482850161082b565b91505092915050565b6000806000806080858703121561088757610886610e54565b5b60006108958782880161082b565b945050602085013567ffffffffffffffff8111156108b6576108b5610e4f565b5b6108c2878288016107fd565b935050604085013567ffffffffffffffff8111156108e3576108e2610e4f565b5b6108ef878288016107fd565b9250506060610900878288016107e8565b91505092959194509250565b60006109188383610a25565b905092915050565b600061092b82610c2f565b6109358185610c52565b93508360208202850161094785610c1f565b8060005b858110156109835784840389528151610964858261090c565b945061096f83610c45565b925060208a0199505060018101905061094b565b50829750879550505050505092915050565b61099e81610c85565b82525050565b6109ad81610c85565b82525050565b60006109be82610c3a565b6109c88185610c63565b93506109d8818560208601610caa565b6109e181610e59565b840191505092915050565b60006109f782610c3a565b610a018185610c74565b9350610a11818560208601610caa565b610a1a81610e59565b840191505092915050565b6000608083016000830151610a3d6000860182610af9565b5060208301518482036020860152610a5582826109b3565b91505060408301518482036040860152610a6f82826109b3565b9150506060830151610a846060860182610995565b508091505092915050565b6000608083016000830151610aa76000860182610af9565b5060208301518482036020860152610abf82826109b3565b91505060408301518482036040860152610ad982826109b3565b9150506060830151610aee6060860182610995565b508091505092915050565b610b0281610c91565b82525050565b610b1181610c91565b82525050565b60006020820190508181036000830152610b318184610920565b905092915050565b60006020820190508181036000830152610b538184610a8f565b905092915050565b6000602082019050610b706000830184610b08565b92915050565b6000608082019050610b8b6000830187610b08565b8181036020830152610b9d81866109ec565b90508181036040830152610bb181856109ec565b9050610bc060608301846109a4565b95945050505050565b6000610bd3610be4565b9050610bdf8282610d0f565b919050565b6000604051905090565b600067ffffffffffffffff821115610c0957610c08610e16565b5b610c1282610e59565b9050602081019050919050565b6000819050602082019050919050565b600081519050919050565b600081519050919050565b6000602082019050919050565b600082825260208201905092915050565b600082825260208201905092915050565b600082825260208201905092915050565b60008115159050919050565b6000819050919050565b82818337600083830152505050565b60005b83811015610cc8578082015181840152602081019050610cad565b83811115610cd7576000848401525b50505050565b60006002820490506001821680610cf557607f821691505b60208210811415610d0957610d08610db8565b5b50919050565b610d1882610e59565b810181811067ffffffffffffffff82111715610d3757610d36610e16565b5b80604052505050565b6000610d4b82610c91565b91507fffffffffffffffffffffffffffffffffffffffffffffffffffffffffffffffff821415610d7e57610d7d610d89565b5b600182019050919050565b7f4e487b7100000000000000000000000000000000000000000000000000000000600052601160045260246000fd5b7f4e487b7100000000000000000000000000000000000000000000000000000000600052602260045260246000fd5b7f4e487b7100000000000000000000000000000000000000000000000000000000600052603260045260246000fd5b7f4e487b7100000000000000000000000000000000000000000000000000000000600052604160045260246000fd5b600080fd5b600080fd5b600080fd5b600080fd5b6000601f19601f8301169050919050565b610e7381610c85565b8114610e7e57600080fd5b50565b610e8a81610c91565b8114610e9557600080fd5b5056fea26469706673582212201ade2450c95ff12eaabda69a27685a531b9586362bc185c300fc5a8fed2f4f3a64736f6c63430008070033",
					"opcodes": "PUSH1 0x80 PUSH1 0x40 MSTORE CALLVALUE DUP1 ISZERO PUSH2 0x10 JUMPI PUSH1 0x0 DUP1 REVERT JUMPDEST POP CALLER PUSH1 0x0 DUP1 PUSH2 0x100 EXP DUP2 SLOAD DUP2 PUSH20 0xFFFFFFFFFFFFFFFFFFFFFFFFFFFFFFFFFFFFFFFF MUL NOT AND SWAP1 DUP4 PUSH20 0xFFFFFFFFFFFFFFFFFFFFFFFFFFFFFFFFFFFFFFFF AND MUL OR SWAP1 SSTORE POP PUSH2 0xECE DUP1 PUSH2 0x60 PUSH1 0x0 CODECOPY PUSH1 0x0 RETURN INVALID PUSH1 0x80 PUSH1 0x40 MSTORE CALLVALUE DUP1 ISZERO PUSH2 0x10 JUMPI PUSH1 0x0 DUP1 REVERT JUMPDEST POP PUSH1 0x4 CALLDATASIZE LT PUSH2 0x62 JUMPI PUSH1 0x0 CALLDATALOAD PUSH1 0xE0 SHR DUP1 PUSH4 0x3B04D05B EQ PUSH2 0x67 JUMPI DUP1 PUSH4 0x53ED5143 EQ PUSH2 0x83 JUMPI DUP1 PUSH4 0x61BC221A EQ PUSH2 0xA1 JUMPI DUP1 PUSH4 0xBC8BC2B4 EQ PUSH2 0xBF JUMPI DUP1 PUSH4 0xD321FE29 EQ PUSH2 0xF2 JUMPI DUP1 PUSH4 0xDD68AFB6 EQ PUSH2 0x110 JUMPI JUMPDEST PUSH1 0x0 DUP1 REVERT JUMPDEST PUSH2 0x81 PUSH1 0x4 DUP1 CALLDATASIZE SUB DUP2 ADD SWAP1 PUSH2 0x7C SWAP2 SWAP1 PUSH2 0x86D JUMP JUMPDEST PUSH2 0x140 JUMP JUMPDEST STOP JUMPDEST PUSH2 0x8B PUSH2 0x1FD JUMP JUMPDEST PUSH1 0x40 MLOAD PUSH2 0x98 SWAP2 SWAP1 PUSH2 0xB17 JUMP JUMPDEST PUSH1 0x40 MLOAD DUP1 SWAP2 SUB SWAP1 RETURN JUMPDEST PUSH2 0xA9 PUSH2 0x406 JUMP JUMPDEST PUSH1 0x40 MLOAD PUSH2 0xB6 SWAP2 SWAP1 PUSH2 0xB5B JUMP JUMPDEST PUSH1 0x40 MLOAD DUP1 SWAP2 SUB SWAP1 RETURN JUMPDEST PUSH2 0xD9 PUSH1 0x4 DUP1 CALLDATASIZE SUB DUP2 ADD SWAP1 PUSH2 0xD4 SWAP2 SWAP1 PUSH2 0x840 JUMP JUMPDEST PUSH2 0x40C JUMP JUMPDEST PUSH1 0x40 MLOAD PUSH2 0xE9 SWAP5 SWAP4 SWAP3 SWAP2 SWAP1 PUSH2 0xB76 JUMP JUMPDEST PUSH1 0x40 MLOAD DUP1 SWAP2 SUB SWAP1 RETURN JUMPDEST PUSH2 0xFA PUSH2 0x559 JUMP JUMPDEST PUSH1 0x40 MLOAD PUSH2 0x107 SWAP2 SWAP1 PUSH2 0xB5B JUMP JUMPDEST PUSH1 0x40 MLOAD DUP1 SWAP2 SUB SWAP1 RETURN JUMPDEST PUSH2 0x12A PUSH1 0x4 DUP1 CALLDATASIZE SUB DUP2 ADD SWAP1 PUSH2 0x125 SWAP2 SWAP1 PUSH2 0x840 JUMP JUMPDEST PUSH2 0x563 JUMP JUMPDEST PUSH1 0x40 MLOAD PUSH2 0x137 SWAP2 SWAP1 PUSH2 0xB39 JUMP JUMPDEST PUSH1 0x40 MLOAD DUP1 SWAP2 SUB SWAP1 RETURN JUMPDEST PUSH1 0x40 MLOAD DUP1 PUSH1 0x80 ADD PUSH1 0x40 MSTORE DUP1 DUP6 DUP2 MSTORE PUSH1 0x20 ADD DUP5 DUP2 MSTORE PUSH1 0x20 ADD DUP4 DUP2 MSTORE PUSH1 0x20 ADD DUP3 ISZERO ISZERO DUP2 MSTORE POP PUSH1 0x2 PUSH1 0x0 PUSH1 0x1 SLOAD DUP2 MSTORE PUSH1 0x20 ADD SWAP1 DUP2 MSTORE PUSH1 0x20 ADD PUSH1 0x0 KECCAK256 PUSH1 0x0 DUP3 ADD MLOAD DUP2 PUSH1 0x0 ADD SSTORE PUSH1 0x20 DUP3 ADD MLOAD DUP2 PUSH1 0x1 ADD SWAP1 DUP1 MLOAD SWAP1 PUSH1 0x20 ADD SWAP1 PUSH2 0x19E SWAP3 SWAP2 SWAP1 PUSH2 0x6D9 JUMP JUMPDEST POP PUSH1 0x40 DUP3 ADD MLOAD DUP2 PUSH1 0x2 ADD SWAP1 DUP1 MLOAD SWAP1 PUSH1 0x20 ADD SWAP1 PUSH2 0x1BB SWAP3 SWAP2 SWAP1 PUSH2 0x6D9 JUMP JUMPDEST POP PUSH1 0x60 DUP3 ADD MLOAD DUP2 PUSH1 0x3 ADD PUSH1 0x0 PUSH2 0x100 EXP DUP2 SLOAD DUP2 PUSH1 0xFF MUL NOT AND SWAP1 DUP4 ISZERO ISZERO MUL OR SWAP1 SSTORE POP SWAP1 POP POP PUSH1 0x1 PUSH1 0x0 DUP2 SLOAD DUP1 SWAP3 SWAP2 SWAP1 PUSH2 0x1F2 SWAP1 PUSH2 0xD40 JUMP JUMPDEST SWAP2 SWAP1 POP SSTORE POP POP POP POP POP JUMP JUMPDEST PUSH1 0x60 PUSH1 0x0 PUSH1 0x1 SLOAD PUSH8 0xFFFFFFFFFFFFFFFF DUP2 GT ISZERO PUSH2 0x21D JUMPI PUSH2 0x21C PUSH2 0xE16 JUMP JUMPDEST JUMPDEST PUSH1 0x40 MLOAD SWAP1 DUP1 DUP3 MSTORE DUP1 PUSH1 0x20 MUL PUSH1 0x20 ADD DUP3 ADD PUSH1 0x40 MSTORE DUP1 ISZERO PUSH2 0x256 JUMPI DUP2 PUSH1 0x20 ADD JUMPDEST PUSH2 0x243 PUSH2 0x75F JUMP JUMPDEST DUP2 MSTORE PUSH1 0x20 ADD SWAP1 PUSH1 0x1 SWAP1 SUB SWAP1 DUP2 PUSH2 0x23B JUMPI SWAP1 POP JUMPDEST POP SWAP1 POP PUSH1 0x0 JUMPDEST PUSH1 0x1 SLOAD DUP2 LT ISZERO PUSH2 0x3FE JUMPI PUSH1 0x2 PUSH1 0x0 DUP3 DUP2 MSTORE PUSH1 0x20 ADD SWAP1 DUP2 MSTORE PUSH1 0x20 ADD PUSH1 0x0 KECCAK256 PUSH1 0x40 MLOAD DUP1 PUSH1 0x80 ADD PUSH1 0x40 MSTORE SWAP1 DUP2 PUSH1 0x0 DUP3 ADD SLOAD DUP2 MSTORE PUSH1 0x20 ADD PUSH1 0x1 DUP3 ADD DUP1 SLOAD PUSH2 0x29E SWAP1 PUSH2 0xCDD JUMP JUMPDEST DUP1 PUSH1 0x1F ADD PUSH1 0x20 DUP1 SWAP2 DIV MUL PUSH1 0x20 ADD PUSH1 0x40 MLOAD SWAP1 DUP2 ADD PUSH1 0x40 MSTORE DUP1 SWAP3 SWAP2 SWAP1 DUP2 DUP2 MSTORE PUSH1 0x20 ADD DUP3 DUP1 SLOAD PUSH2 0x2CA SWAP1 PUSH2 0xCDD JUMP JUMPDEST DUP1 ISZERO PUSH2 0x317 JUMPI DUP1 PUSH1 0x1F LT PUSH2 0x2EC JUMPI PUSH2 0x100 DUP1 DUP4 SLOAD DIV MUL DUP4 MSTORE SWAP2 PUSH1 0x20 ADD SWAP2 PUSH2 0x317 JUMP JUMPDEST DUP3 ADD SWAP2 SWAP1 PUSH1 0x0 MSTORE PUSH1 0x20 PUSH1 0x0 KECCAK256 SWAP1 JUMPDEST DUP2 SLOAD DUP2 MSTORE SWAP1 PUSH1 0x1 ADD SWAP1 PUSH1 0x20 ADD DUP1 DUP4 GT PUSH2 0x2FA JUMPI DUP3 SWAP1 SUB PUSH1 0x1F AND DUP3 ADD SWAP2 JUMPDEST POP POP POP POP POP DUP2 MSTORE PUSH1 0x20 ADD PUSH1 0x2 DUP3 ADD DUP1 SLOAD PUSH2 0x330 SWAP1 PUSH2 0xCDD JUMP JUMPDEST DUP1 PUSH1 0x1F ADD PUSH1 0x20 DUP1 SWAP2 DIV MUL PUSH1 0x20 ADD PUSH1 0x40 MLOAD SWAP1 DUP2 ADD PUSH1 0x40 MSTORE DUP1 SWAP3 SWAP2 SWAP1 DUP2 DUP2 MSTORE PUSH1 0x20 ADD DUP3 DUP1 SLOAD PUSH2 0x35C SWAP1 PUSH2 0xCDD JUMP JUMPDEST DUP1 ISZERO PUSH2 0x3A9 JUMPI DUP1 PUSH1 0x1F LT PUSH2 0x37E JUMPI PUSH2 0x100 DUP1 DUP4 SLOAD DIV MUL DUP4 MSTORE SWAP2 PUSH1 0x20 ADD SWAP2 PUSH2 0x3A9 JUMP JUMPDEST DUP3 ADD SWAP2 SWAP1 PUSH1 0x0 MSTORE PUSH1 0x20 PUSH1 0x0 KECCAK256 SWAP1 JUMPDEST DUP2 SLOAD DUP2 MSTORE SWAP1 PUSH1 0x1 ADD SWAP1 PUSH1 0x20 ADD DUP1 DUP4 GT PUSH2 0x38C JUMPI DUP3 SWAP1 SUB PUSH1 0x1F AND DUP3 ADD SWAP2 JUMPDEST POP POP POP POP POP DUP2 MSTORE PUSH1 0x20 ADD PUSH1 0x3 DUP3 ADD PUSH1 0x0 SWAP1 SLOAD SWAP1 PUSH2 0x100 EXP SWAP1 DIV PUSH1 0xFF AND ISZERO ISZERO ISZERO ISZERO DUP2 MSTORE POP POP DUP3 DUP3 DUP2 MLOAD DUP2 LT PUSH2 0x3E0 JUMPI PUSH2 0x3DF PUSH2 0xDE7 JUMP JUMPDEST JUMPDEST PUSH1 0x20 MUL PUSH1 0x20 ADD ADD DUP2 SWAP1 MSTORE POP DUP1 DUP1 PUSH2 0x3F6 SWAP1 PUSH2 0xD40 JUMP JUMPDEST SWAP2 POP POP PUSH2 0x25C JUMP JUMPDEST POP DUP1 SWAP2 POP POP SWAP1 JUMP JUMPDEST PUSH1 0x1 SLOAD DUP2 JUMP JUMPDEST PUSH1 0x2 PUSH1 0x20 MSTORE DUP1 PUSH1 0x0 MSTORE PUSH1 0x40 PUSH1 0x0 KECCAK256 PUSH1 0x0 SWAP2 POP SWAP1 POP DUP1 PUSH1 0x0 ADD SLOAD SWAP1 DUP1 PUSH1 0x1 ADD DUP1 SLOAD PUSH2 0x435 SWAP1 PUSH2 0xCDD JUMP JUMPDEST DUP1 PUSH1 0x1F ADD PUSH1 0x20 DUP1 SWAP2 DIV MUL PUSH1 0x20 ADD PUSH1 0x40 MLOAD SWAP1 DUP2 ADD PUSH1 0x40 MSTORE DUP1 SWAP3 SWAP2 SWAP1 DUP2 DUP2 MSTORE PUSH1 0x20 ADD DUP3 DUP1 SLOAD PUSH2 0x461 SWAP1 PUSH2 0xCDD JUMP JUMPDEST DUP1 ISZERO PUSH2 0x4AE JUMPI DUP1 PUSH1 0x1F LT PUSH2 0x483 JUMPI PUSH2 0x100 DUP1 DUP4 SLOAD DIV MUL DUP4 MSTORE SWAP2 PUSH1 0x20 ADD SWAP2 PUSH2 0x4AE JUMP JUMPDEST DUP3 ADD SWAP2 SWAP1 PUSH1 0x0 MSTORE PUSH1 0x20 PUSH1 0x0 KECCAK256 SWAP1 JUMPDEST DUP2 SLOAD DUP2 MSTORE SWAP1 PUSH1 0x1 ADD SWAP1 PUSH1 0x20 ADD DUP1 DUP4 GT PUSH2 0x491 JUMPI DUP3 SWAP1 SUB PUSH1 0x1F AND DUP3 ADD SWAP2 JUMPDEST POP POP POP POP POP SWAP1 DUP1 PUSH1 0x2 ADD DUP1 SLOAD PUSH2 0x4C3 SWAP1 PUSH2 0xCDD JUMP JUMPDEST DUP1 PUSH1 0x1F ADD PUSH1 0x20 DUP1 SWAP2 DIV MUL PUSH1 0x20 ADD PUSH1 0x40 MLOAD SWAP1 DUP2 ADD PUSH1 0x40 MSTORE DUP1 SWAP3 SWAP2 SWAP1 DUP2 DUP2 MSTORE PUSH1 0x20 ADD DUP3 DUP1 SLOAD PUSH2 0x4EF SWAP1 PUSH2 0xCDD JUMP JUMPDEST DUP1 ISZERO PUSH2 0x53C JUMPI DUP1 PUSH1 0x1F LT PUSH2 0x511 JUMPI PUSH2 0x100 DUP1 DUP4 SLOAD DIV MUL DUP4 MSTORE SWAP2 PUSH1 0x20 ADD SWAP2 PUSH2 0x53C JUMP JUMPDEST DUP3 ADD SWAP2 SWAP1 PUSH1 0x0 MSTORE PUSH1 0x20 PUSH1 0x0 KECCAK256 SWAP1 JUMPDEST DUP2 SLOAD DUP2 MSTORE SWAP1 PUSH1 0x1 ADD SWAP1 PUSH1 0x20 ADD DUP1 DUP4 GT PUSH2 0x51F JUMPI DUP3 SWAP1 SUB PUSH1 0x1F AND DUP3 ADD SWAP2 JUMPDEST POP POP POP POP POP SWAP1 DUP1 PUSH1 0x3 ADD PUSH1 0x0 SWAP1 SLOAD SWAP1 PUSH2 0x100 EXP SWAP1 DIV PUSH1 0xFF AND SWAP1 POP DUP5 JUMP JUMPDEST PUSH1 0x0 PUSH1 0x1 SLOAD SWAP1 POP SWAP1 JUMP JUMPDEST PUSH2 0x56B PUSH2 0x75F JUMP JUMPDEST PUSH1 0x2 PUSH1 0x0 DUP4 DUP2 MSTORE PUSH1 0x20 ADD SWAP1 DUP2 MSTORE PUSH1 0x20 ADD PUSH1 0x0 KECCAK256 PUSH1 0x40 MLOAD DUP1 PUSH1 0x80 ADD PUSH1 0x40 MSTORE SWAP1 DUP2 PUSH1 0x0 DUP3 ADD SLOAD DUP2 MSTORE PUSH1 0x20 ADD PUSH1 0x1 DUP3 ADD DUP1 SLOAD PUSH2 0x5A3 SWAP1 PUSH2 0xCDD JUMP JUMPDEST DUP1 PUSH1 0x1F ADD PUSH1 0x20 DUP1 SWAP2 DIV MUL PUSH1 0x20 ADD PUSH1 0x40 MLOAD SWAP1 DUP2 ADD PUSH1 0x40 MSTORE DUP1 SWAP3 SWAP2 SWAP1 DUP2 DUP2 MSTORE PUSH1 0x20 ADD DUP3 DUP1 SLOAD PUSH2 0x5CF SWAP1 PUSH2 0xCDD JUMP JUMPDEST DUP1 ISZERO PUSH2 0x61C JUMPI DUP1 PUSH1 0x1F LT PUSH2 0x5F1 JUMPI PUSH2 0x100 DUP1 DUP4 SLOAD DIV MUL DUP4 MSTORE SWAP2 PUSH1 0x20 ADD SWAP2 PUSH2 0x61C JUMP JUMPDEST DUP3 ADD SWAP2 SWAP1 PUSH1 0x0 MSTORE PUSH1 0x20 PUSH1 0x0 KECCAK256 SWAP1 JUMPDEST DUP2 SLOAD DUP2 MSTORE SWAP1 PUSH1 0x1 ADD SWAP1 PUSH1 0x20 ADD DUP1 DUP4 GT PUSH2 0x5FF JUMPI DUP3 SWAP1 SUB PUSH1 0x1F AND DUP3 ADD SWAP2 JUMPDEST POP POP POP POP POP DUP2 MSTORE PUSH1 0x20 ADD PUSH1 0x2 DUP3 ADD DUP1 SLOAD PUSH2 0x635 SWAP1 PUSH2 0xCDD JUMP JUMPDEST DUP1 PUSH1 0x1F ADD PUSH1 0x20 DUP1 SWAP2 DIV MUL PUSH1 0x20 ADD PUSH1 0x40 MLOAD SWAP1 DUP2 ADD PUSH1 0x40 MSTORE DUP1 SWAP3 SWAP2 SWAP1 DUP2 DUP2 MSTORE PUSH1 0x20 ADD DUP3 DUP1 SLOAD PUSH2 0x661 SWAP1 PUSH2 0xCDD JUMP JUMPDEST DUP1 ISZERO PUSH2 0x6AE JUMPI DUP1 PUSH1 0x1F LT PUSH2 0x683 JUMPI PUSH2 0x100 DUP1 DUP4 SLOAD DIV MUL DUP4 MSTORE SWAP2 PUSH1 0x20 ADD SWAP2 PUSH2 0x6AE JUMP JUMPDEST DUP3 ADD SWAP2 SWAP1 PUSH1 0x0 MSTORE PUSH1 0x20 PUSH1 0x0 KECCAK256 SWAP1 JUMPDEST DUP2 SLOAD DUP2 MSTORE SWAP1 PUSH1 0x1 ADD SWAP1 PUSH1 0x20 ADD DUP1 DUP4 GT PUSH2 0x691 JUMPI DUP3 SWAP1 SUB PUSH1 0x1F AND DUP3 ADD SWAP2 JUMPDEST POP POP POP POP POP DUP2 MSTORE PUSH1 0x20 ADD PUSH1 0x3 DUP3 ADD PUSH1 0x0 SWAP1 SLOAD SWAP1 PUSH2 0x100 EXP SWAP1 DIV PUSH1 0xFF AND ISZERO ISZERO ISZERO ISZERO DUP2 MSTORE POP POP SWAP1 POP SWAP2 SWAP1 POP JUMP JUMPDEST DUP3 DUP1 SLOAD PUSH2 0x6E5 SWAP1 PUSH2 0xCDD JUMP JUMPDEST SWAP1 PUSH1 0x0 MSTORE PUSH1 0x20 PUSH1 0x0 KECCAK256 SWAP1 PUSH1 0x1F ADD PUSH1 0x20 SWAP1 DIV DUP2 ADD SWAP3 DUP3 PUSH2 0x707 JUMPI PUSH1 0x0 DUP6 SSTORE PUSH2 0x74E JUMP JUMPDEST DUP3 PUSH1 0x1F LT PUSH2 0x720 JUMPI DUP1 MLOAD PUSH1 0xFF NOT AND DUP4 DUP1 ADD OR DUP6 SSTORE PUSH2 0x74E JUMP JUMPDEST DUP3 DUP1 ADD PUSH1 0x1 ADD DUP6 SSTORE DUP3 ISZERO PUSH2 0x74E JUMPI SWAP2 DUP3 ADD JUMPDEST DUP3 DUP2 GT ISZERO PUSH2 0x74D JUMPI DUP3 MLOAD DUP3 SSTORE SWAP2 PUSH1 0x20 ADD SWAP2 SWAP1 PUSH1 0x1 ADD SWAP1 PUSH2 0x732 JUMP JUMPDEST JUMPDEST POP SWAP1 POP PUSH2 0x75B SWAP2 SWAP1 PUSH2 0x789 JUMP JUMPDEST POP SWAP1 JUMP JUMPDEST PUSH1 0x40 MLOAD DUP1 PUSH1 0x80 ADD PUSH1 0x40 MSTORE DUP1 PUSH1 0x0 DUP2 MSTORE PUSH1 0x20 ADD PUSH1 0x60 DUP2 MSTORE PUSH1 0x20 ADD PUSH1 0x60 DUP2 MSTORE PUSH1 0x20 ADD PUSH1 0x0 ISZERO ISZERO DUP2 MSTORE POP SWAP1 JUMP JUMPDEST JUMPDEST DUP1 DUP3 GT ISZERO PUSH2 0x7A2 JUMPI PUSH1 0x0 DUP2 PUSH1 0x0 SWAP1 SSTORE POP PUSH1 0x1 ADD PUSH2 0x78A JUMP JUMPDEST POP SWAP1 JUMP JUMPDEST PUSH1 0x0 PUSH2 0x7B9 PUSH2 0x7B4 DUP5 PUSH2 0xBEE JUMP JUMPDEST PUSH2 0xBC9 JUMP JUMPDEST SWAP1 POP DUP3 DUP2 MSTORE PUSH1 0x20 DUP2 ADD DUP5 DUP5 DUP5 ADD GT ISZERO PUSH2 0x7D5 JUMPI PUSH2 0x7D4 PUSH2 0xE4A JUMP JUMPDEST JUMPDEST PUSH2 0x7E0 DUP5 DUP3 DUP6 PUSH2 0xC9B JUMP JUMPDEST POP SWAP4 SWAP3 POP POP POP JUMP JUMPDEST PUSH1 0x0 DUP2 CALLDATALOAD SWAP1 POP PUSH2 0x7F7 DUP2 PUSH2 0xE6A JUMP JUMPDEST SWAP3 SWAP2 POP POP JUMP JUMPDEST PUSH1 0x0 DUP3 PUSH1 0x1F DUP4 ADD SLT PUSH2 0x812 JUMPI PUSH2 0x811 PUSH2 0xE45 JUMP JUMPDEST JUMPDEST DUP2 CALLDATALOAD PUSH2 0x822 DUP5 DUP3 PUSH1 0x20 DUP7 ADD PUSH2 0x7A6 JUMP JUMPDEST SWAP2 POP POP SWAP3 SWAP2 POP POP JUMP JUMPDEST PUSH1 0x0 DUP2 CALLDATALOAD SWAP1 POP PUSH2 0x83A DUP2 PUSH2 0xE81 JUMP JUMPDEST SWAP3 SWAP2 POP POP JUMP JUMPDEST PUSH1 0x0 PUSH1 0x20 DUP3 DUP5 SUB SLT ISZERO PUSH2 0x856 JUMPI PUSH2 0x855 PUSH2 0xE54 JUMP JUMPDEST JUMPDEST PUSH1 0x0 PUSH2 0x864 DUP5 DUP3 DUP6 ADD PUSH2 0x82B JUMP JUMPDEST SWAP2 POP POP SWAP3 SWAP2 POP POP JUMP JUMPDEST PUSH1 0x0 DUP1 PUSH1 0x0 DUP1 PUSH1 0x80 DUP6 DUP8 SUB SLT ISZERO PUSH2 0x887 JUMPI PUSH2 0x886 PUSH2 0xE54 JUMP JUMPDEST JUMPDEST PUSH1 0x0 PUSH2 0x895 DUP8 DUP3 DUP9 ADD PUSH2 0x82B JUMP JUMPDEST SWAP5 POP POP PUSH1 0x20 DUP6 ADD CALLDATALOAD PUSH8 0xFFFFFFFFFFFFFFFF DUP2 GT ISZERO PUSH2 0x8B6 JUMPI PUSH2 0x8B5 PUSH2 0xE4F JUMP JUMPDEST JUMPDEST PUSH2 0x8C2 DUP8 DUP3 DUP9 ADD PUSH2 0x7FD JUMP JUMPDEST SWAP4 POP POP PUSH1 0x40 DUP6 ADD CALLDATALOAD PUSH8 0xFFFFFFFFFFFFFFFF DUP2 GT ISZERO PUSH2 0x8E3 JUMPI PUSH2 0x8E2 PUSH2 0xE4F JUMP JUMPDEST JUMPDEST PUSH2 0x8EF DUP8 DUP3 DUP9 ADD PUSH2 0x7FD JUMP JUMPDEST SWAP3 POP POP PUSH1 0x60 PUSH2 0x900 DUP8 DUP3 DUP9 ADD PUSH2 0x7E8 JUMP JUMPDEST SWAP2 POP POP SWAP3 SWAP6 SWAP2 SWAP5 POP SWAP3 POP JUMP JUMPDEST PUSH1 0x0 PUSH2 0x918 DUP4 DUP4 PUSH2 0xA25 JUMP JUMPDEST SWAP1 POP SWAP3 SWAP2 POP POP JUMP JUMPDEST PUSH1 0x0 PUSH2 0x92B DUP3 PUSH2 0xC2F JUMP JUMPDEST PUSH2 0x935 DUP2 DUP6 PUSH2 0xC52 JUMP JUMPDEST SWAP4 POP DUP4 PUSH1 0x20 DUP3 MUL DUP6 ADD PUSH2 0x947 DUP6 PUSH2 0xC1F JUMP JUMPDEST DUP1 PUSH1 0x0 JUMPDEST DUP6 DUP2 LT ISZERO PUSH2 0x983 JUMPI DUP5 DUP5 SUB DUP10 MSTORE DUP2 MLOAD PUSH2 0x964 DUP6 DUP3 PUSH2 0x90C JUMP JUMPDEST SWAP5 POP PUSH2 0x96F DUP4 PUSH2 0xC45 JUMP JUMPDEST SWAP3 POP PUSH1 0x20 DUP11 ADD SWAP10 POP POP PUSH1 0x1 DUP2 ADD SWAP1 POP PUSH2 0x94B JUMP JUMPDEST POP DUP3 SWAP8 POP DUP8 SWAP6 POP POP POP POP POP POP SWAP3 SWAP2 POP POP JUMP JUMPDEST PUSH2 0x99E DUP2 PUSH2 0xC85 JUMP JUMPDEST DUP3 MSTORE POP POP JUMP JUMPDEST PUSH2 0x9AD DUP2 PUSH2 0xC85 JUMP JUMPDEST DUP3 MSTORE POP POP JUMP JUMPDEST PUSH1 0x0 PUSH2 0x9BE DUP3 PUSH2 0xC3A JUMP JUMPDEST PUSH2 0x9C8 DUP2 DUP6 PUSH2 0xC63 JUMP JUMPDEST SWAP4 POP PUSH2 0x9D8 DUP2 DUP6 PUSH1 0x20 DUP7 ADD PUSH2 0xCAA JUMP JUMPDEST PUSH2 0x9E1 DUP2 PUSH2 0xE59 JUMP JUMPDEST DUP5 ADD SWAP2 POP POP SWAP3 SWAP2 POP POP JUMP JUMPDEST PUSH1 0x0 PUSH2 0x9F7 DUP3 PUSH2 0xC3A JUMP JUMPDEST PUSH2 0xA01 DUP2 DUP6 PUSH2 0xC74 JUMP JUMPDEST SWAP4 POP PUSH2 0xA11 DUP2 DUP6 PUSH1 0x20 DUP7 ADD PUSH2 0xCAA JUMP JUMPDEST PUSH2 0xA1A DUP2 PUSH2 0xE59 JUMP JUMPDEST DUP5 ADD SWAP2 POP POP SWAP3 SWAP2 POP POP JUMP JUMPDEST PUSH1 0x0 PUSH1 0x80 DUP4 ADD PUSH1 0x0 DUP4 ADD MLOAD PUSH2 0xA3D PUSH1 0x0 DUP7 ADD DUP3 PUSH2 0xAF9 JUMP JUMPDEST POP PUSH1 0x20 DUP4 ADD MLOAD DUP5 DUP3 SUB PUSH1 0x20 DUP7 ADD MSTORE PUSH2 0xA55 DUP3 DUP3 PUSH2 0x9B3 JUMP JUMPDEST SWAP2 POP POP PUSH1 0x40 DUP4 ADD MLOAD DUP5 DUP3 SUB PUSH1 0x40 DUP7 ADD MSTORE PUSH2 0xA6F DUP3 DUP3 PUSH2 0x9B3 JUMP JUMPDEST SWAP2 POP POP PUSH1 0x60 DUP4 ADD MLOAD PUSH2 0xA84 PUSH1 0x60 DUP7 ADD DUP3 PUSH2 0x995 JUMP JUMPDEST POP DUP1 SWAP2 POP POP SWAP3 SWAP2 POP POP JUMP JUMPDEST PUSH1 0x0 PUSH1 0x80 DUP4 ADD PUSH1 0x0 DUP4 ADD MLOAD PUSH2 0xAA7 PUSH1 0x0 DUP7 ADD DUP3 PUSH2 0xAF9 JUMP JUMPDEST POP PUSH1 0x20 DUP4 ADD MLOAD DUP5 DUP3 SUB PUSH1 0x20 DUP7 ADD MSTORE PUSH2 0xABF DUP3 DUP3 PUSH2 0x9B3 JUMP JUMPDEST SWAP2 POP POP PUSH1 0x40 DUP4 ADD MLOAD DUP5 DUP3 SUB PUSH1 0x40 DUP7 ADD MSTORE PUSH2 0xAD9 DUP3 DUP3 PUSH2 0x9B3 JUMP JUMPDEST SWAP2 POP POP PUSH1 0x60 DUP4 ADD MLOAD PUSH2 0xAEE PUSH1 0x60 DUP7 ADD DUP3 PUSH2 0x995 JUMP JUMPDEST POP DUP1 SWAP2 POP POP SWAP3 SWAP2 POP POP JUMP JUMPDEST PUSH2 0xB02 DUP2 PUSH2 0xC91 JUMP JUMPDEST DUP3 MSTORE POP POP JUMP JUMPDEST PUSH2 0xB11 DUP2 PUSH2 0xC91 JUMP JUMPDEST DUP3 MSTORE POP POP JUMP JUMPDEST PUSH1 0x0 PUSH1 0x20 DUP3 ADD SWAP1 POP DUP2 DUP2 SUB PUSH1 0x0 DUP4 ADD MSTORE PUSH2 0xB31 DUP2 DUP5 PUSH2 0x920 JUMP JUMPDEST SWAP1 POP SWAP3 SWAP2 POP POP JUMP JUMPDEST PUSH1 0x0 PUSH1 0x20 DUP3 ADD SWAP1 POP DUP2 DUP2 SUB PUSH1 0x0 DUP4 ADD MSTORE PUSH2 0xB53 DUP2 DUP5 PUSH2 0xA8F JUMP JUMPDEST SWAP1 POP SWAP3 SWAP2 POP POP JUMP JUMPDEST PUSH1 0x0 PUSH1 0x20 DUP3 ADD SWAP1 POP PUSH2 0xB70 PUSH1 0x0 DUP4 ADD DUP5 PUSH2 0xB08 JUMP JUMPDEST SWAP3 SWAP2 POP POP JUMP JUMPDEST PUSH1 0x0 PUSH1 0x80 DUP3 ADD SWAP1 POP PUSH2 0xB8B PUSH1 0x0 DUP4 ADD DUP8 PUSH2 0xB08 JUMP JUMPDEST DUP2 DUP2 SUB PUSH1 0x20 DUP4 ADD MSTORE PUSH2 0xB9D DUP2 DUP7 PUSH2 0x9EC JUMP JUMPDEST SWAP1 POP DUP2 DUP2 SUB PUSH1 0x40 DUP4 ADD MSTORE PUSH2 0xBB1 DUP2 DUP6 PUSH2 0x9EC JUMP JUMPDEST SWAP1 POP PUSH2 0xBC0 PUSH1 0x60 DUP4 ADD DUP5 PUSH2 0x9A4 JUMP JUMPDEST SWAP6 SWAP5 POP POP POP POP POP JUMP JUMPDEST PUSH1 0x0 PUSH2 0xBD3 PUSH2 0xBE4 JUMP JUMPDEST SWAP1 POP PUSH2 0xBDF DUP3 DUP3 PUSH2 0xD0F JUMP JUMPDEST SWAP2 SWAP1 POP JUMP JUMPDEST PUSH1 0x0 PUSH1 0x40 MLOAD SWAP1 POP SWAP1 JUMP JUMPDEST PUSH1 0x0 PUSH8 0xFFFFFFFFFFFFFFFF DUP3 GT ISZERO PUSH2 0xC09 JUMPI PUSH2 0xC08 PUSH2 0xE16 JUMP JUMPDEST JUMPDEST PUSH2 0xC12 DUP3 PUSH2 0xE59 JUMP JUMPDEST SWAP1 POP PUSH1 0x20 DUP2 ADD SWAP1 POP SWAP2 SWAP1 POP JUMP JUMPDEST PUSH1 0x0 DUP2 SWAP1 POP PUSH1 0x20 DUP3 ADD SWAP1 POP SWAP2 SWAP1 POP JUMP JUMPDEST PUSH1 0x0 DUP2 MLOAD SWAP1 POP SWAP2 SWAP1 POP JUMP JUMPDEST PUSH1 0x0 DUP2 MLOAD SWAP1 POP SWAP2 SWAP1 POP JUMP JUMPDEST PUSH1 0x0 PUSH1 0x20 DUP3 ADD SWAP1 POP SWAP2 SWAP1 POP JUMP JUMPDEST PUSH1 0x0 DUP3 DUP3 MSTORE PUSH1 0x20 DUP3 ADD SWAP1 POP SWAP3 SWAP2 POP POP JUMP JUMPDEST PUSH1 0x0 DUP3 DUP3 MSTORE PUSH1 0x20 DUP3 ADD SWAP1 POP SWAP3 SWAP2 POP POP JUMP JUMPDEST PUSH1 0x0 DUP3 DUP3 MSTORE PUSH1 0x20 DUP3 ADD SWAP1 POP SWAP3 SWAP2 POP POP JUMP JUMPDEST PUSH1 0x0 DUP2 ISZERO ISZERO SWAP1 POP SWAP2 SWAP1 POP JUMP JUMPDEST PUSH1 0x0 DUP2 SWAP1 POP SWAP2 SWAP1 POP JUMP JUMPDEST DUP3 DUP2 DUP4 CALLDATACOPY PUSH1 0x0 DUP4 DUP4 ADD MSTORE POP POP POP JUMP JUMPDEST PUSH1 0x0 JUMPDEST DUP4 DUP2 LT ISZERO PUSH2 0xCC8 JUMPI DUP1 DUP3 ADD MLOAD DUP2 DUP5 ADD MSTORE PUSH1 0x20 DUP2 ADD SWAP1 POP PUSH2 0xCAD JUMP JUMPDEST DUP4 DUP2 GT ISZERO PUSH2 0xCD7 JUMPI PUSH1 0x0 DUP5 DUP5 ADD MSTORE JUMPDEST POP POP POP POP JUMP JUMPDEST PUSH1 0x0 PUSH1 0x2 DUP3 DIV SWAP1 POP PUSH1 0x1 DUP3 AND DUP1 PUSH2 0xCF5 JUMPI PUSH1 0x7F DUP3 AND SWAP2 POP JUMPDEST PUSH1 0x20 DUP3 LT DUP2 EQ ISZERO PUSH2 0xD09 JUMPI PUSH2 0xD08 PUSH2 0xDB8 JUMP JUMPDEST JUMPDEST POP SWAP2 SWAP1 POP JUMP JUMPDEST PUSH2 0xD18 DUP3 PUSH2 0xE59 JUMP JUMPDEST DUP2 ADD DUP2 DUP2 LT PUSH8 0xFFFFFFFFFFFFFFFF DUP3 GT OR ISZERO PUSH2 0xD37 JUMPI PUSH2 0xD36 PUSH2 0xE16 JUMP JUMPDEST JUMPDEST DUP1 PUSH1 0x40 MSTORE POP POP POP JUMP JUMPDEST PUSH1 0x0 PUSH2 0xD4B DUP3 PUSH2 0xC91 JUMP JUMPDEST SWAP2 POP PUSH32 0xFFFFFFFFFFFFFFFFFFFFFFFFFFFFFFFFFFFFFFFFFFFFFFFFFFFFFFFFFFFFFFFF DUP3 EQ ISZERO PUSH2 0xD7E JUMPI PUSH2 0xD7D PUSH2 0xD89 JUMP JUMPDEST JUMPDEST PUSH1 0x1 DUP3 ADD SWAP1 POP SWAP2 SWAP1 POP JUMP JUMPDEST PUSH32 0x4E487B7100000000000000000000000000000000000000000000000000000000 PUSH1 0x0 MSTORE PUSH1 0x11 PUSH1 0x4 MSTORE PUSH1 0x24 PUSH1 0x0 REVERT JUMPDEST PUSH32 0x4E487B7100000000000000000000000000000000000000000000000000000000 PUSH1 0x0 MSTORE PUSH1 0x22 PUSH1 0x4 MSTORE PUSH1 0x24 PUSH1 0x0 REVERT JUMPDEST PUSH32 0x4E487B7100000000000000000000000000000000000000000000000000000000 PUSH1 0x0 MSTORE PUSH1 0x32 PUSH1 0x4 MSTORE PUSH1 0x24 PUSH1 0x0 REVERT JUMPDEST PUSH32 0x4E487B7100000000000000000000000000000000000000000000000000000000 PUSH1 0x0 MSTORE PUSH1 0x41 PUSH1 0x4 MSTORE PUSH1 0x24 PUSH1 0x0 REVERT JUMPDEST PUSH1 0x0 DUP1 REVERT JUMPDEST PUSH1 0x0 DUP1 REVERT JUMPDEST PUSH1 0x0 DUP1 REVERT JUMPDEST PUSH1 0x0 DUP1 REVERT JUMPDEST PUSH1 0x0 PUSH1 0x1F NOT PUSH1 0x1F DUP4 ADD AND SWAP1 POP SWAP2 SWAP1 POP JUMP JUMPDEST PUSH2 0xE73 DUP2 PUSH2 0xC85 JUMP JUMPDEST DUP2 EQ PUSH2 0xE7E JUMPI PUSH1 0x0 DUP1 REVERT JUMPDEST POP JUMP JUMPDEST PUSH2 0xE8A DUP2 PUSH2 0xC91 JUMP JUMPDEST DUP2 EQ PUSH2 0xE95 JUMPI PUSH1 0x0 DUP1 REVERT JUMPDEST POP JUMP INVALID LOG2 PUSH5 0x6970667358 0x22 SLT KECCAK256 BYTE 0xDE 0x24 POP 0xC9 0x5F CALL 0x2E 0xAA 0xBD 0xA6 SWAP11 0x27 PUSH9 0x5A531B9586362BC185 0xC3 STOP 0xFC GAS DUP16 0xED 0x2F 0x4F GASPRICE PUSH5 0x736F6C6343 STOP ADDMOD SMOD STOP CALLER "
				},
				"gasEstimates": {
					"creation": {
						"codeDepositCost": "758000",
						"executionCost": "25058",
						"totalCost": "783058"
					},
					"external": {
						"addTodo(uint256,string,string,bool)": "infinite",
						"counter()": "2451",
						"getAll()": "infinite",
						"getAmount()": "2503",
						"getTodo(uint256)": "infinite",
						"todos(uint256)": "infinite"
					}
				},
				"methodIdentifiers": {
					"addTodo(uint256,string,string,bool)": "3b04d05b",
					"counter()": "61bc221a",
					"getAll()": "53ed5143",
					"getAmount()": "d321fe29",
					"getTodo(uint256)": "dd68afb6",
					"todos(uint256)": "bc8bc2b4"
				}
			},
			"storageLayout": {
				"storage": [
					{
						"astId": 5,
						"contract": "ToDoApp.sol:ToDoApp",
						"label": "owner",
						"offset": 0,
						"slot": "0",
						"type": "t_address"
					},
					{
						"astId": 7,
						"contract": "ToDoApp.sol:ToDoApp",
						"label": "counter",
						"offset": 0,
						"slot": "1",
						"type": "t_uint256"
					},
					{
						"astId": 22,
						"contract": "ToDoApp.sol:ToDoApp",
						"label": "todos",
						"offset": 0,
						"slot": "2",
						"type": "t_mapping(t_uint256,t_struct(ToDo)16_storage)"
					}
				],
				"types": {
					"t_address": {
						"encoding": "inplace",
						"label": "address",
						"numberOfBytes": "20"
					},
					"t_bool": {
						"encoding": "inplace",
						"label": "bool",
						"numberOfBytes": "1"
					},
					"t_mapping(t_uint256,t_struct(ToDo)16_storage)": {
						"encoding": "mapping",
						"key": "t_uint256",
						"label": "mapping(uint256 => struct ToDoApp.ToDo)",
						"numberOfBytes": "32",
						"value": "t_struct(ToDo)16_storage"
					},
					"t_string_storage": {
						"encoding": "bytes",
						"label": "string",
						"numberOfBytes": "32"
					},
					"t_struct(ToDo)16_storage": {
						"encoding": "inplace",
						"label": "struct ToDoApp.ToDo",
						"members": [
							{
								"astId": 9,
								"contract": "ToDoApp.sol:ToDoApp",
								"label": "id",
								"offset": 0,
								"slot": "0",
								"type": "t_uint256"
							},
							{
								"astId": 11,
								"contract": "ToDoApp.sol:ToDoApp",
								"label": "name",
								"offset": 0,
								"slot": "1",
								"type": "t_string_storage"
							},
							{
								"astId": 13,
								"contract": "ToDoApp.sol:ToDoApp",
								"label": "content",
								"offset": 0,
								"slot": "2",
								"type": "t_string_storage"
							},
							{
								"astId": 15,
								"contract": "ToDoApp.sol:ToDoApp",
								"label": "status",
								"offset": 0,
								"slot": "3",
								"type": "t_bool"
							}
						],
						"numberOfBytes": "128"
					},
					"t_uint256": {
						"encoding": "inplace",
						"label": "uint256",
						"numberOfBytes": "32"
					}
				}
			},
			"userdoc": {
				"kind": "user",
				"methods": {
					"addTodo(uint256,string,string,bool)": {
						"notice": "Add new todo"
					},
					"constructor": {
						"notice": "Constructor"
					},
					"getAll()": {
						"notice": "Get all todos"
					},
					"getAmount()": {
						"notice": "Get amount of todos"
					},
					"getTodo(uint256)": {
						"notice": "Get todo"
					},
					"todos(uint256)": {
						"notice": "Mappings"
					}
				},
				"notice": "A simple ToDo smart contract app",
				"version": 1
			}
		}
	}
}