{
	"ToDoApp.sol": {
		"ToDoApp": {
			"abi": [
				{
					"inputs": [],
					"stateMutability": "nonpayable",
					"type": "constructor"
				},
				{
					"inputs": [
						{
							"internalType": "string",
							"name": "name",
							"type": "string"
						},
						{
							"internalType": "string",
							"name": "content",
							"type": "string"
						}
					],
					"name": "addTodo",
					"outputs": [],
					"stateMutability": "nonpayable",
					"type": "function"
				},
				{
					"inputs": [
						{
							"internalType": "address",
							"name": "",
							"type": "address"
						}
					],
					"name": "counter",
					"outputs": [
						{
							"internalType": "uint256",
							"name": "",
							"type": "uint256"
						}
					],
					"stateMutability": "view",
					"type": "function"
				},
				{
					"inputs": [],
					"name": "getAllTodos",
					"outputs": [
						{
							"components": [
								{
									"internalType": "uint256",
									"name": "id",
									"type": "uint256"
								},
								{
									"internalType": "string",
									"name": "name",
									"type": "string"
								},
								{
									"internalType": "string",
									"name": "content",
									"type": "string"
								},
								{
									"internalType": "bool",
									"name": "status",
									"type": "bool"
								}
							],
							"internalType": "struct ToDoApp.ToDo[]",
							"name": "",
							"type": "tuple[]"
						}
					],
					"stateMutability": "view",
					"type": "function"
				},
				{
					"inputs": [],
					"name": "getAmount",
					"outputs": [
						{
							"internalType": "uint256",
							"name": "",
							"type": "uint256"
						}
					],
					"stateMutability": "view",
					"type": "function"
				},
				{
					"inputs": [
						{
							"internalType": "uint256",
							"name": "id",
							"type": "uint256"
						}
					],
					"name": "getTodo",
					"outputs": [
						{
							"components": [
								{
									"internalType": "uint256",
									"name": "id",
									"type": "uint256"
								},
								{
									"internalType": "string",
									"name": "name",
									"type": "string"
								},
								{
									"internalType": "string",
									"name": "content",
									"type": "string"
								},
								{
									"internalType": "bool",
									"name": "status",
									"type": "bool"
								}
							],
							"internalType": "struct ToDoApp.ToDo",
							"name": "",
							"type": "tuple"
						}
					],
					"stateMutability": "view",
					"type": "function"
				},
				{
					"inputs": [
						{
							"internalType": "uint256",
							"name": "id",
							"type": "uint256"
						}
					],
					"name": "setAsDone",
					"outputs": [],
					"stateMutability": "nonpayable",
					"type": "function"
				},
				{
					"inputs": [
						{
							"internalType": "uint256",
							"name": "id",
							"type": "uint256"
						}
					],
					"name": "setAsUndone",
					"outputs": [],
					"stateMutability": "nonpayable",
					"type": "function"
				},
				{
					"inputs": [
						{
							"internalType": "address",
							"name": "",
							"type": "address"
						},
						{
							"internalType": "uint256",
							"name": "",
							"type": "uint256"
						}
					],
					"name": "todos",
					"outputs": [
						{
							"internalType": "uint256",
							"name": "id",
							"type": "uint256"
						},
						{
							"internalType": "string",
							"name": "name",
							"type": "string"
						},
						{
							"internalType": "string",
							"name": "content",
							"type": "string"
						},
						{
							"internalType": "bool",
							"name": "status",
							"type": "bool"
						}
					],
					"stateMutability": "view",
					"type": "function"
				}
			],
			"devdoc": {
				"kind": "dev",
				"methods": {},
				"version": 1
			},
			"evm": {
				"assembly": "    /* \"ToDoApp.sol\":120:2428  contract ToDoApp {... */\n  mstore(0x40, 0x80)\n    /* \"ToDoApp.sol\":483:499  constructor() {} */\n  callvalue\n  dup1\n  iszero\n  tag_1\n  jumpi\n  0x00\n  dup1\n  revert\ntag_1:\n  pop\n    /* \"ToDoApp.sol\":120:2428  contract ToDoApp {... */\n  dataSize(sub_0)\n  dup1\n  dataOffset(sub_0)\n  0x00\n  codecopy\n  0x00\n  return\nstop\n\nsub_0: assembly {\n        /* \"ToDoApp.sol\":120:2428  contract ToDoApp {... */\n      mstore(0x40, 0x80)\n      callvalue\n      dup1\n      iszero\n      tag_1\n      jumpi\n      0x00\n      dup1\n      revert\n    tag_1:\n      pop\n      jumpi(tag_2, lt(calldatasize, 0x04))\n      shr(0xe0, calldataload(0x00))\n      dup1\n      0xce2bd5d5\n      gt\n      tag_11\n      jumpi\n      dup1\n      0xce2bd5d5\n      eq\n      tag_7\n      jumpi\n      dup1\n      0xd321fe29\n      eq\n      tag_8\n      jumpi\n      dup1\n      0xdd68afb6\n      eq\n      tag_9\n      jumpi\n      dup1\n      0xfc5049f1\n      eq\n      tag_10\n      jumpi\n      jump(tag_2)\n    tag_11:\n      dup1\n      0x1b7fb260\n      eq\n      tag_3\n      jumpi\n      dup1\n      0x428c1889\n      eq\n      tag_4\n      jumpi\n      dup1\n      0x62969ff7\n      eq\n      tag_5\n      jumpi\n      dup1\n      0xc12327b8\n      eq\n      tag_6\n      jumpi\n    tag_2:\n      0x00\n      dup1\n      revert\n        /* \"ToDoApp.sol\":796:1193  function addTodo(string memory name, string memory content) public {... */\n    tag_3:\n      tag_12\n      0x04\n      dup1\n      calldatasize\n      sub\n      dup2\n      add\n      swap1\n      tag_13\n      swap2\n      swap1\n      tag_14\n      jump\t// in\n    tag_13:\n      tag_15\n      jump\t// in\n    tag_12:\n      stop\n        /* \"ToDoApp.sol\":353:392  mapping(address => ToDo[]) public todos */\n    tag_4:\n      tag_16\n      0x04\n      dup1\n      calldatasize\n      sub\n      dup2\n      add\n      swap1\n      tag_17\n      swap2\n      swap1\n      tag_18\n      jump\t// in\n    tag_17:\n      tag_19\n      jump\t// in\n    tag_16:\n      mload(0x40)\n      tag_20\n      swap5\n      swap4\n      swap3\n      swap2\n      swap1\n      tag_21\n      jump\t// in\n    tag_20:\n      mload(0x40)\n      dup1\n      swap2\n      sub\n      swap1\n      return\n        /* \"ToDoApp.sol\":2322:2426  function setAsUndone(uint id) public todoCount {... */\n    tag_5:\n      tag_22\n      0x04\n      dup1\n      calldatasize\n      sub\n      dup2\n      add\n      swap1\n      tag_23\n      swap2\n      swap1\n      tag_24\n      jump\t// in\n    tag_23:\n      tag_25\n      jump\t// in\n    tag_22:\n      stop\n        /* \"ToDoApp.sol\":398:440  mapping(address => uint256) public counter */\n    tag_6:\n      tag_26\n      0x04\n      dup1\n      calldatasize\n      sub\n      dup2\n      add\n      swap1\n      tag_27\n      swap2\n      swap1\n      tag_28\n      jump\t// in\n    tag_27:\n      tag_29\n      jump\t// in\n    tag_26:\n      mload(0x40)\n      tag_30\n      swap2\n      swap1\n      tag_31\n      jump\t// in\n    tag_30:\n      mload(0x40)\n      dup1\n      swap2\n      sub\n      swap1\n      return\n        /* \"ToDoApp.sol\":1542:1816  function getAllTodos() view public todoCount returns(ToDo[] memory) {... */\n    tag_7:\n      tag_32\n      tag_33\n      jump\t// in\n    tag_32:\n      mload(0x40)\n      tag_34\n      swap2\n      swap1\n      tag_35\n      jump\t// in\n    tag_34:\n      mload(0x40)\n      dup1\n      swap2\n      sub\n      swap1\n      return\n        /* \"ToDoApp.sol\":1866:1955  function getAmount() view public returns(uint){... */\n    tag_8:\n      tag_36\n      tag_37\n      jump\t// in\n    tag_36:\n      mload(0x40)\n      tag_38\n      swap2\n      swap1\n      tag_31\n      jump\t// in\n    tag_38:\n      mload(0x40)\n      dup1\n      swap2\n      sub\n      swap1\n      return\n        /* \"ToDoApp.sol\":1268:1464  function getTodo(uint id) view public todoCount returns(ToDo memory) {... */\n    tag_9:\n      tag_39\n      0x04\n      dup1\n      calldatasize\n      sub\n      dup2\n      add\n      swap1\n      tag_40\n      swap2\n      swap1\n      tag_24\n      jump\t// in\n    tag_40:\n      tag_41\n      jump\t// in\n    tag_39:\n      mload(0x40)\n      tag_42\n      swap2\n      swap1\n      tag_43\n      jump\t// in\n    tag_42:\n      mload(0x40)\n      dup1\n      swap2\n      sub\n      swap1\n      return\n        /* \"ToDoApp.sol\":2087:2188  function setAsDone(uint id) public todoCount {... */\n    tag_10:\n      tag_44\n      0x04\n      dup1\n      calldatasize\n      sub\n      dup2\n      add\n      swap1\n      tag_45\n      swap2\n      swap1\n      tag_24\n      jump\t// in\n    tag_45:\n      tag_46\n      jump\t// in\n    tag_44:\n      stop\n        /* \"ToDoApp.sol\":796:1193  function addTodo(string memory name, string memory content) public {... */\n    tag_15:\n        /* \"ToDoApp.sol\":909:916  counter */\n      0x01\n        /* \"ToDoApp.sol\":909:928  counter[msg.sender] */\n      0x00\n        /* \"ToDoApp.sol\":917:927  msg.sender */\n      caller\n        /* \"ToDoApp.sol\":909:928  counter[msg.sender] */\n      0xffffffffffffffffffffffffffffffffffffffff\n      and\n      0xffffffffffffffffffffffffffffffffffffffff\n      and\n      dup2\n      mstore\n      0x20\n      add\n      swap1\n      dup2\n      mstore\n      0x20\n      add\n      0x00\n      keccak256\n      0x00\n        /* \"ToDoApp.sol\":909:930  counter[msg.sender]++ */\n      dup2\n      sload\n      dup1\n      swap3\n      swap2\n      swap1\n      tag_48\n      swap1\n      tag_49\n      jump\t// in\n    tag_48:\n      swap2\n      swap1\n      pop\n      sstore\n      pop\n        /* \"ToDoApp.sol\":983:988  todos */\n      0x00\n        /* \"ToDoApp.sol\":983:1000  todos[msg.sender] */\n      dup1\n        /* \"ToDoApp.sol\":989:999  msg.sender */\n      caller\n        /* \"ToDoApp.sol\":983:1000  todos[msg.sender] */\n      0xffffffffffffffffffffffffffffffffffffffff\n      and\n      0xffffffffffffffffffffffffffffffffffffffff\n      and\n      dup2\n      mstore\n      0x20\n      add\n      swap1\n      dup2\n      mstore\n      0x20\n      add\n      0x00\n      keccak256\n        /* \"ToDoApp.sol\":1019:1176  ToDo({... */\n      mload(0x40)\n      dup1\n      0x80\n      add\n      0x40\n      mstore\n      dup1\n        /* \"ToDoApp.sol\":1046:1053  counter */\n      0x01\n        /* \"ToDoApp.sol\":1046:1065  counter[msg.sender] */\n      0x00\n        /* \"ToDoApp.sol\":1054:1064  msg.sender */\n      caller\n        /* \"ToDoApp.sol\":1046:1065  counter[msg.sender] */\n      0xffffffffffffffffffffffffffffffffffffffff\n      and\n      0xffffffffffffffffffffffffffffffffffffffff\n      and\n      dup2\n      mstore\n      0x20\n      add\n      swap1\n      dup2\n      mstore\n      0x20\n      add\n      0x00\n      keccak256\n      sload\n        /* \"ToDoApp.sol\":1019:1176  ToDo({... */\n      dup2\n      mstore\n      0x20\n      add\n        /* \"ToDoApp.sol\":1090:1094  name */\n      dup5\n        /* \"ToDoApp.sol\":1019:1176  ToDo({... */\n      dup2\n      mstore\n      0x20\n      add\n        /* \"ToDoApp.sol\":1122:1129  content */\n      dup4\n        /* \"ToDoApp.sol\":1019:1176  ToDo({... */\n      dup2\n      mstore\n      0x20\n      add\n        /* \"ToDoApp.sol\":1156:1161  false */\n      0x00\n        /* \"ToDoApp.sol\":1019:1176  ToDo({... */\n      iszero\n      iszero\n      dup2\n      mstore\n      pop\n        /* \"ToDoApp.sol\":983:1186  todos[msg.sender].push(... */\n      swap1\n      dup1\n      0x01\n      dup2\n      sload\n      add\n      dup1\n      dup3\n      sstore\n      dup1\n      swap2\n      pop\n      pop\n      0x01\n      swap1\n      sub\n      swap1\n      0x00\n      mstore\n      keccak256(0x00, 0x20)\n      swap1\n      0x04\n      mul\n      add\n      0x00\n      swap1\n      swap2\n      swap1\n      swap2\n      swap1\n      swap2\n      pop\n      0x00\n      dup3\n      add\n      mload\n      dup2\n      0x00\n      add\n      sstore\n      0x20\n      dup3\n      add\n      mload\n      dup2\n      0x01\n      add\n      swap1\n      dup1\n      mload\n      swap1\n      0x20\n      add\n      swap1\n      tag_51\n      swap3\n      swap2\n      swap1\n      tag_52\n      jump\t// in\n    tag_51:\n      pop\n      0x40\n      dup3\n      add\n      mload\n      dup2\n      0x02\n      add\n      swap1\n      dup1\n      mload\n      swap1\n      0x20\n      add\n      swap1\n      tag_53\n      swap3\n      swap2\n      swap1\n      tag_52\n      jump\t// in\n    tag_53:\n      pop\n      0x60\n      dup3\n      add\n      mload\n      dup2\n      0x03\n      add\n      exp(0x0100, 0x00)\n      dup2\n      sload\n      dup2\n      0xff\n      mul\n      not\n      and\n      swap1\n      dup4\n      iszero\n      iszero\n      mul\n      or\n      swap1\n      sstore\n      pop\n      pop\n      pop\n        /* \"ToDoApp.sol\":796:1193  function addTodo(string memory name, string memory content) public {... */\n      pop\n      pop\n      jump\t// out\n        /* \"ToDoApp.sol\":353:392  mapping(address => ToDo[]) public todos */\n    tag_19:\n      mstore(0x20, 0x00)\n      dup2\n      0x00\n      mstore\n      keccak256(0x00, 0x40)\n      dup2\n      dup2\n      sload\n      dup2\n      lt\n      tag_54\n      jumpi\n      0x00\n      dup1\n      revert\n    tag_54:\n      swap1\n      0x00\n      mstore\n      keccak256(0x00, 0x20)\n      swap1\n      0x04\n      mul\n      add\n      0x00\n      swap2\n      pop\n      swap2\n      pop\n      pop\n      dup1\n      0x00\n      add\n      sload\n      swap1\n      dup1\n      0x01\n      add\n      dup1\n      sload\n      tag_56\n      swap1\n      tag_57\n      jump\t// in\n    tag_56:\n      dup1\n      0x1f\n      add\n      0x20\n      dup1\n      swap2\n      div\n      mul\n      0x20\n      add\n      mload(0x40)\n      swap1\n      dup2\n      add\n      0x40\n      mstore\n      dup1\n      swap3\n      swap2\n      swap1\n      dup2\n      dup2\n      mstore\n      0x20\n      add\n      dup3\n      dup1\n      sload\n      tag_58\n      swap1\n      tag_57\n      jump\t// in\n    tag_58:\n      dup1\n      iszero\n      tag_59\n      jumpi\n      dup1\n      0x1f\n      lt\n      tag_60\n      jumpi\n      0x0100\n      dup1\n      dup4\n      sload\n      div\n      mul\n      dup4\n      mstore\n      swap2\n      0x20\n      add\n      swap2\n      jump(tag_59)\n    tag_60:\n      dup3\n      add\n      swap2\n      swap1\n      0x00\n      mstore\n      keccak256(0x00, 0x20)\n      swap1\n    tag_61:\n      dup2\n      sload\n      dup2\n      mstore\n      swap1\n      0x01\n      add\n      swap1\n      0x20\n      add\n      dup1\n      dup4\n      gt\n      tag_61\n      jumpi\n      dup3\n      swap1\n      sub\n      0x1f\n      and\n      dup3\n      add\n      swap2\n    tag_59:\n      pop\n      pop\n      pop\n      pop\n      pop\n      swap1\n      dup1\n      0x02\n      add\n      dup1\n      sload\n      tag_62\n      swap1\n      tag_57\n      jump\t// in\n    tag_62:\n      dup1\n      0x1f\n      add\n      0x20\n      dup1\n      swap2\n      div\n      mul\n      0x20\n      add\n      mload(0x40)\n      swap1\n      dup2\n      add\n      0x40\n      mstore\n      dup1\n      swap3\n      swap2\n      swap1\n      dup2\n      dup2\n      mstore\n      0x20\n      add\n      dup3\n      dup1\n      sload\n      tag_63\n      swap1\n      tag_57\n      jump\t// in\n    tag_63:\n      dup1\n      iszero\n      tag_64\n      jumpi\n      dup1\n      0x1f\n      lt\n      tag_65\n      jumpi\n      0x0100\n      dup1\n      dup4\n      sload\n      div\n      mul\n      dup4\n      mstore\n      swap2\n      0x20\n      add\n      swap2\n      jump(tag_64)\n    tag_65:\n      dup3\n      add\n      swap2\n      swap1\n      0x00\n      mstore\n      keccak256(0x00, 0x20)\n      swap1\n    tag_66:\n      dup2\n      sload\n      dup2\n      mstore\n      swap1\n      0x01\n      add\n      swap1\n      0x20\n      add\n      dup1\n      dup4\n      gt\n      tag_66\n      jumpi\n      dup3\n      swap1\n      sub\n      0x1f\n      and\n      dup3\n      add\n      swap2\n    tag_64:\n      pop\n      pop\n      pop\n      pop\n      pop\n      swap1\n      dup1\n      0x03\n      add\n      0x00\n      swap1\n      sload\n      swap1\n      0x0100\n      exp\n      swap1\n      div\n      0xff\n      and\n      swap1\n      pop\n      dup5\n      jump\t// out\n        /* \"ToDoApp.sol\":2322:2426  function setAsUndone(uint id) public todoCount {... */\n    tag_25:\n        /* \"ToDoApp.sol\":646:647  0 */\n      0x00\n        /* \"ToDoApp.sol\":624:631  counter */\n      0x01\n        /* \"ToDoApp.sol\":624:643  counter[msg.sender] */\n      0x00\n        /* \"ToDoApp.sol\":632:642  msg.sender */\n      caller\n        /* \"ToDoApp.sol\":624:643  counter[msg.sender] */\n      0xffffffffffffffffffffffffffffffffffffffff\n      and\n      0xffffffffffffffffffffffffffffffffffffffff\n      and\n      dup2\n      mstore\n      0x20\n      add\n      swap1\n      dup2\n      mstore\n      0x20\n      add\n      0x00\n      keccak256\n      sload\n        /* \"ToDoApp.sol\":624:647  counter[msg.sender] > 0 */\n      gt\n        /* \"ToDoApp.sol\":616:667  require(counter[msg.sender] > 0, \"No todos found.\") */\n      tag_68\n      jumpi\n      mload(0x40)\n      0x08c379a000000000000000000000000000000000000000000000000000000000\n      dup2\n      mstore\n      0x04\n      add\n      tag_69\n      swap1\n      tag_70\n      jump\t// in\n    tag_69:\n      mload(0x40)\n      dup1\n      swap2\n      sub\n      swap1\n      revert\n    tag_68:\n        /* \"ToDoApp.sol\":2414:2419  false */\n      0x00\n        /* \"ToDoApp.sol\":2379:2384  todos */\n      dup1\n        /* \"ToDoApp.sol\":2379:2396  todos[msg.sender] */\n      0x00\n        /* \"ToDoApp.sol\":2385:2395  msg.sender */\n      caller\n        /* \"ToDoApp.sol\":2379:2396  todos[msg.sender] */\n      0xffffffffffffffffffffffffffffffffffffffff\n      and\n      0xffffffffffffffffffffffffffffffffffffffff\n      and\n      dup2\n      mstore\n      0x20\n      add\n      swap1\n      dup2\n      mstore\n      0x20\n      add\n      0x00\n      keccak256\n        /* \"ToDoApp.sol\":2402:2403  1 */\n      0x01\n        /* \"ToDoApp.sol\":2397:2399  id */\n      dup4\n        /* \"ToDoApp.sol\":2397:2403  id - 1 */\n      tag_72\n      swap2\n      swap1\n      tag_73\n      jump\t// in\n    tag_72:\n        /* \"ToDoApp.sol\":2379:2404  todos[msg.sender][id - 1] */\n      dup2\n      sload\n      dup2\n      lt\n      tag_74\n      jumpi\n      tag_75\n      tag_76\n      jump\t// in\n    tag_75:\n    tag_74:\n      swap1\n      0x00\n      mstore\n      keccak256(0x00, 0x20)\n      swap1\n      0x04\n      mul\n      add\n        /* \"ToDoApp.sol\":2379:2411  todos[msg.sender][id - 1].status */\n      0x03\n      add\n      0x00\n        /* \"ToDoApp.sol\":2379:2419  todos[msg.sender][id - 1].status = false */\n      0x0100\n      exp\n      dup2\n      sload\n      dup2\n      0xff\n      mul\n      not\n      and\n      swap1\n      dup4\n      iszero\n      iszero\n      mul\n      or\n      swap1\n      sstore\n      pop\n        /* \"ToDoApp.sol\":2322:2426  function setAsUndone(uint id) public todoCount {... */\n      pop\n      jump\t// out\n        /* \"ToDoApp.sol\":398:440  mapping(address => uint256) public counter */\n    tag_29:\n      mstore(0x20, 0x01)\n      dup1\n      0x00\n      mstore\n      keccak256(0x00, 0x40)\n      0x00\n      swap2\n      pop\n      swap1\n      pop\n      sload\n      dup2\n      jump\t// out\n        /* \"ToDoApp.sol\":1542:1816  function getAllTodos() view public todoCount returns(ToDo[] memory) {... */\n    tag_33:\n        /* \"ToDoApp.sol\":1595:1608  ToDo[] memory */\n      0x60\n        /* \"ToDoApp.sol\":646:647  0 */\n      0x00\n        /* \"ToDoApp.sol\":624:631  counter */\n      0x01\n        /* \"ToDoApp.sol\":624:643  counter[msg.sender] */\n      0x00\n        /* \"ToDoApp.sol\":632:642  msg.sender */\n      caller\n        /* \"ToDoApp.sol\":624:643  counter[msg.sender] */\n      0xffffffffffffffffffffffffffffffffffffffff\n      and\n      0xffffffffffffffffffffffffffffffffffffffff\n      and\n      dup2\n      mstore\n      0x20\n      add\n      swap1\n      dup2\n      mstore\n      0x20\n      add\n      0x00\n      keccak256\n      sload\n        /* \"ToDoApp.sol\":624:647  counter[msg.sender] > 0 */\n      gt\n        /* \"ToDoApp.sol\":616:667  require(counter[msg.sender] > 0, \"No todos found.\") */\n      tag_79\n      jumpi\n      mload(0x40)\n      0x08c379a000000000000000000000000000000000000000000000000000000000\n      dup2\n      mstore\n      0x04\n      add\n      tag_80\n      swap1\n      tag_70\n      jump\t// in\n    tag_80:\n      mload(0x40)\n      dup1\n      swap2\n      sub\n      swap1\n      revert\n    tag_79:\n        /* \"ToDoApp.sol\":1620:1639  ToDo[] memory mTodo */\n      0x00\n        /* \"ToDoApp.sol\":1653:1660  counter */\n      0x01\n        /* \"ToDoApp.sol\":1653:1672  counter[msg.sender] */\n      0x00\n        /* \"ToDoApp.sol\":1661:1671  msg.sender */\n      caller\n        /* \"ToDoApp.sol\":1653:1672  counter[msg.sender] */\n      0xffffffffffffffffffffffffffffffffffffffff\n      and\n      0xffffffffffffffffffffffffffffffffffffffff\n      and\n      dup2\n      mstore\n      0x20\n      add\n      swap1\n      dup2\n      mstore\n      0x20\n      add\n      0x00\n      keccak256\n      sload\n        /* \"ToDoApp.sol\":1642:1673  new ToDo[](counter[msg.sender]) */\n      0xffffffffffffffff\n      dup2\n      gt\n      iszero\n      tag_82\n      jumpi\n      tag_83\n      tag_84\n      jump\t// in\n    tag_83:\n    tag_82:\n      mload(0x40)\n      swap1\n      dup1\n      dup3\n      mstore\n      dup1\n      0x20\n      mul\n      0x20\n      add\n      dup3\n      add\n      0x40\n      mstore\n      dup1\n      iszero\n      tag_85\n      jumpi\n      dup2\n      0x20\n      add\n    tag_86:\n      tag_87\n      tag_88\n      jump\t// in\n    tag_87:\n      dup2\n      mstore\n      0x20\n      add\n      swap1\n      0x01\n      swap1\n      sub\n      swap1\n      dup2\n      tag_86\n      jumpi\n      swap1\n      pop\n    tag_85:\n      pop\n        /* \"ToDoApp.sol\":1620:1673  ToDo[] memory mTodo = new ToDo[](counter[msg.sender]) */\n      swap1\n      pop\n        /* \"ToDoApp.sol\":1689:1695  uint i */\n      0x00\n        /* \"ToDoApp.sol\":1684:1787  for (uint i = 0; i < counter[msg.sender]; i++) {... */\n    tag_89:\n        /* \"ToDoApp.sol\":1705:1712  counter */\n      0x01\n        /* \"ToDoApp.sol\":1705:1724  counter[msg.sender] */\n      0x00\n        /* \"ToDoApp.sol\":1713:1723  msg.sender */\n      caller\n        /* \"ToDoApp.sol\":1705:1724  counter[msg.sender] */\n      0xffffffffffffffffffffffffffffffffffffffff\n      and\n      0xffffffffffffffffffffffffffffffffffffffff\n      and\n      dup2\n      mstore\n      0x20\n      add\n      swap1\n      dup2\n      mstore\n      0x20\n      add\n      0x00\n      keccak256\n      sload\n        /* \"ToDoApp.sol\":1701:1702  i */\n      dup2\n        /* \"ToDoApp.sol\":1701:1724  i < counter[msg.sender] */\n      lt\n        /* \"ToDoApp.sol\":1684:1787  for (uint i = 0; i < counter[msg.sender]; i++) {... */\n      iszero\n      tag_90\n      jumpi\n        /* \"ToDoApp.sol\":1756:1761  todos */\n      0x00\n        /* \"ToDoApp.sol\":1756:1773  todos[msg.sender] */\n      dup1\n        /* \"ToDoApp.sol\":1762:1772  msg.sender */\n      caller\n        /* \"ToDoApp.sol\":1756:1773  todos[msg.sender] */\n      0xffffffffffffffffffffffffffffffffffffffff\n      and\n      0xffffffffffffffffffffffffffffffffffffffff\n      and\n      dup2\n      mstore\n      0x20\n      add\n      swap1\n      dup2\n      mstore\n      0x20\n      add\n      0x00\n      keccak256\n        /* \"ToDoApp.sol\":1774:1775  i */\n      dup2\n        /* \"ToDoApp.sol\":1756:1776  todos[msg.sender][i] */\n      dup2\n      sload\n      dup2\n      lt\n      tag_92\n      jumpi\n      tag_93\n      tag_76\n      jump\t// in\n    tag_93:\n    tag_92:\n      swap1\n      0x00\n      mstore\n      keccak256(0x00, 0x20)\n      swap1\n      0x04\n      mul\n      add\n        /* \"ToDoApp.sol\":1745:1776  mTodo[i] = todos[msg.sender][i] */\n      mload(0x40)\n      dup1\n      0x80\n      add\n      0x40\n      mstore\n      swap1\n      dup2\n      0x00\n      dup3\n      add\n      sload\n      dup2\n      mstore\n      0x20\n      add\n      0x01\n      dup3\n      add\n      dup1\n      sload\n      tag_95\n      swap1\n      tag_57\n      jump\t// in\n    tag_95:\n      dup1\n      0x1f\n      add\n      0x20\n      dup1\n      swap2\n      div\n      mul\n      0x20\n      add\n      mload(0x40)\n      swap1\n      dup2\n      add\n      0x40\n      mstore\n      dup1\n      swap3\n      swap2\n      swap1\n      dup2\n      dup2\n      mstore\n      0x20\n      add\n      dup3\n      dup1\n      sload\n      tag_96\n      swap1\n      tag_57\n      jump\t// in\n    tag_96:\n      dup1\n      iszero\n      tag_97\n      jumpi\n      dup1\n      0x1f\n      lt\n      tag_98\n      jumpi\n      0x0100\n      dup1\n      dup4\n      sload\n      div\n      mul\n      dup4\n      mstore\n      swap2\n      0x20\n      add\n      swap2\n      jump(tag_97)\n    tag_98:\n      dup3\n      add\n      swap2\n      swap1\n      0x00\n      mstore\n      keccak256(0x00, 0x20)\n      swap1\n    tag_99:\n      dup2\n      sload\n      dup2\n      mstore\n      swap1\n      0x01\n      add\n      swap1\n      0x20\n      add\n      dup1\n      dup4\n      gt\n      tag_99\n      jumpi\n      dup3\n      swap1\n      sub\n      0x1f\n      and\n      dup3\n      add\n      swap2\n    tag_97:\n      pop\n      pop\n      pop\n      pop\n      pop\n      dup2\n      mstore\n      0x20\n      add\n      0x02\n      dup3\n      add\n      dup1\n      sload\n      tag_100\n      swap1\n      tag_57\n      jump\t// in\n    tag_100:\n      dup1\n      0x1f\n      add\n      0x20\n      dup1\n      swap2\n      div\n      mul\n      0x20\n      add\n      mload(0x40)\n      swap1\n      dup2\n      add\n      0x40\n      mstore\n      dup1\n      swap3\n      swap2\n      swap1\n      dup2\n      dup2\n      mstore\n      0x20\n      add\n      dup3\n      dup1\n      sload\n      tag_101\n      swap1\n      tag_57\n      jump\t// in\n    tag_101:\n      dup1\n      iszero\n      tag_102\n      jumpi\n      dup1\n      0x1f\n      lt\n      tag_103\n      jumpi\n      0x0100\n      dup1\n      dup4\n      sload\n      div\n      mul\n      dup4\n      mstore\n      swap2\n      0x20\n      add\n      swap2\n      jump(tag_102)\n    tag_103:\n      dup3\n      add\n      swap2\n      swap1\n      0x00\n      mstore\n      keccak256(0x00, 0x20)\n      swap1\n    tag_104:\n      dup2\n      sload\n      dup2\n      mstore\n      swap1\n      0x01\n      add\n      swap1\n      0x20\n      add\n      dup1\n      dup4\n      gt\n      tag_104\n      jumpi\n      dup3\n      swap1\n      sub\n      0x1f\n      and\n      dup3\n      add\n      swap2\n    tag_102:\n      pop\n      pop\n      pop\n      pop\n      pop\n      dup2\n      mstore\n      0x20\n      add\n      0x03\n      dup3\n      add\n      0x00\n      swap1\n      sload\n      swap1\n      0x0100\n      exp\n      swap1\n      div\n      0xff\n      and\n      iszero\n      iszero\n      iszero\n      iszero\n      dup2\n      mstore\n      pop\n      pop\n        /* \"ToDoApp.sol\":1745:1750  mTodo */\n      dup3\n        /* \"ToDoApp.sol\":1751:1752  i */\n      dup3\n        /* \"ToDoApp.sol\":1745:1753  mTodo[i] */\n      dup2\n      mload\n      dup2\n      lt\n      tag_105\n      jumpi\n      tag_106\n      tag_76\n      jump\t// in\n    tag_106:\n    tag_105:\n      0x20\n      mul\n      0x20\n      add\n      add\n        /* \"ToDoApp.sol\":1745:1776  mTodo[i] = todos[msg.sender][i] */\n      dup2\n      swap1\n      mstore\n      pop\n        /* \"ToDoApp.sol\":1726:1729  i++ */\n      dup1\n      dup1\n      tag_107\n      swap1\n      tag_49\n      jump\t// in\n    tag_107:\n      swap2\n      pop\n      pop\n        /* \"ToDoApp.sol\":1684:1787  for (uint i = 0; i < counter[msg.sender]; i++) {... */\n      jump(tag_89)\n    tag_90:\n      pop\n        /* \"ToDoApp.sol\":1804:1809  mTodo */\n      dup1\n        /* \"ToDoApp.sol\":1797:1809  return mTodo */\n      swap2\n      pop\n      pop\n        /* \"ToDoApp.sol\":1542:1816  function getAllTodos() view public todoCount returns(ToDo[] memory) {... */\n      swap1\n      jump\t// out\n        /* \"ToDoApp.sol\":1866:1955  function getAmount() view public returns(uint){... */\n    tag_37:\n        /* \"ToDoApp.sol\":1907:1911  uint */\n      0x00\n        /* \"ToDoApp.sol\":1929:1936  counter */\n      0x01\n        /* \"ToDoApp.sol\":1929:1948  counter[msg.sender] */\n      0x00\n        /* \"ToDoApp.sol\":1937:1947  msg.sender */\n      caller\n        /* \"ToDoApp.sol\":1929:1948  counter[msg.sender] */\n      0xffffffffffffffffffffffffffffffffffffffff\n      and\n      0xffffffffffffffffffffffffffffffffffffffff\n      and\n      dup2\n      mstore\n      0x20\n      add\n      swap1\n      dup2\n      mstore\n      0x20\n      add\n      0x00\n      keccak256\n      sload\n        /* \"ToDoApp.sol\":1922:1948  return counter[msg.sender] */\n      swap1\n      pop\n        /* \"ToDoApp.sol\":1866:1955  function getAmount() view public returns(uint){... */\n      swap1\n      jump\t// out\n        /* \"ToDoApp.sol\":1268:1464  function getTodo(uint id) view public todoCount returns(ToDo memory) {... */\n    tag_41:\n        /* \"ToDoApp.sol\":1324:1335  ToDo memory */\n      tag_109\n      tag_88\n      jump\t// in\n    tag_109:\n        /* \"ToDoApp.sol\":646:647  0 */\n      0x00\n        /* \"ToDoApp.sol\":624:631  counter */\n      0x01\n        /* \"ToDoApp.sol\":624:643  counter[msg.sender] */\n      0x00\n        /* \"ToDoApp.sol\":632:642  msg.sender */\n      caller\n        /* \"ToDoApp.sol\":624:643  counter[msg.sender] */\n      0xffffffffffffffffffffffffffffffffffffffff\n      and\n      0xffffffffffffffffffffffffffffffffffffffff\n      and\n      dup2\n      mstore\n      0x20\n      add\n      swap1\n      dup2\n      mstore\n      0x20\n      add\n      0x00\n      keccak256\n      sload\n        /* \"ToDoApp.sol\":624:647  counter[msg.sender] > 0 */\n      gt\n        /* \"ToDoApp.sol\":616:667  require(counter[msg.sender] > 0, \"No todos found.\") */\n      tag_111\n      jumpi\n      mload(0x40)\n      0x08c379a000000000000000000000000000000000000000000000000000000000\n      dup2\n      mstore\n      0x04\n      add\n      tag_112\n      swap1\n      tag_70\n      jump\t// in\n    tag_112:\n      mload(0x40)\n      dup1\n      swap2\n      sub\n      swap1\n      revert\n    tag_111:\n        /* \"ToDoApp.sol\":1361:1368  counter */\n      0x01\n        /* \"ToDoApp.sol\":1361:1380  counter[msg.sender] */\n      0x00\n        /* \"ToDoApp.sol\":1369:1379  msg.sender */\n      caller\n        /* \"ToDoApp.sol\":1361:1380  counter[msg.sender] */\n      0xffffffffffffffffffffffffffffffffffffffff\n      and\n      0xffffffffffffffffffffffffffffffffffffffff\n      and\n      dup2\n      mstore\n      0x20\n      add\n      swap1\n      dup2\n      mstore\n      0x20\n      add\n      0x00\n      keccak256\n      sload\n        /* \"ToDoApp.sol\":1355:1357  id */\n      dup3\n        /* \"ToDoApp.sol\":1355:1380  id <= counter[msg.sender] */\n      gt\n      iszero\n        /* \"ToDoApp.sol\":1347:1415  require(id <= counter[msg.sender], \"Todo with current ID not found\") */\n      tag_114\n      jumpi\n      mload(0x40)\n      0x08c379a000000000000000000000000000000000000000000000000000000000\n      dup2\n      mstore\n      0x04\n      add\n      tag_115\n      swap1\n      tag_116\n      jump\t// in\n    tag_115:\n      mload(0x40)\n      dup1\n      swap2\n      sub\n      swap1\n      revert\n    tag_114:\n        /* \"ToDoApp.sol\":1432:1437  todos */\n      0x00\n        /* \"ToDoApp.sol\":1432:1449  todos[msg.sender] */\n      dup1\n        /* \"ToDoApp.sol\":1438:1448  msg.sender */\n      caller\n        /* \"ToDoApp.sol\":1432:1449  todos[msg.sender] */\n      0xffffffffffffffffffffffffffffffffffffffff\n      and\n      0xffffffffffffffffffffffffffffffffffffffff\n      and\n      dup2\n      mstore\n      0x20\n      add\n      swap1\n      dup2\n      mstore\n      0x20\n      add\n      0x00\n      keccak256\n        /* \"ToDoApp.sol\":1455:1456  1 */\n      0x01\n        /* \"ToDoApp.sol\":1450:1452  id */\n      dup4\n        /* \"ToDoApp.sol\":1450:1456  id - 1 */\n      tag_117\n      swap2\n      swap1\n      tag_73\n      jump\t// in\n    tag_117:\n        /* \"ToDoApp.sol\":1432:1457  todos[msg.sender][id - 1] */\n      dup2\n      sload\n      dup2\n      lt\n      tag_118\n      jumpi\n      tag_119\n      tag_76\n      jump\t// in\n    tag_119:\n    tag_118:\n      swap1\n      0x00\n      mstore\n      keccak256(0x00, 0x20)\n      swap1\n      0x04\n      mul\n      add\n        /* \"ToDoApp.sol\":1425:1457  return todos[msg.sender][id - 1] */\n      mload(0x40)\n      dup1\n      0x80\n      add\n      0x40\n      mstore\n      swap1\n      dup2\n      0x00\n      dup3\n      add\n      sload\n      dup2\n      mstore\n      0x20\n      add\n      0x01\n      dup3\n      add\n      dup1\n      sload\n      tag_121\n      swap1\n      tag_57\n      jump\t// in\n    tag_121:\n      dup1\n      0x1f\n      add\n      0x20\n      dup1\n      swap2\n      div\n      mul\n      0x20\n      add\n      mload(0x40)\n      swap1\n      dup2\n      add\n      0x40\n      mstore\n      dup1\n      swap3\n      swap2\n      swap1\n      dup2\n      dup2\n      mstore\n      0x20\n      add\n      dup3\n      dup1\n      sload\n      tag_122\n      swap1\n      tag_57\n      jump\t// in\n    tag_122:\n      dup1\n      iszero\n      tag_123\n      jumpi\n      dup1\n      0x1f\n      lt\n      tag_124\n      jumpi\n      0x0100\n      dup1\n      dup4\n      sload\n      div\n      mul\n      dup4\n      mstore\n      swap2\n      0x20\n      add\n      swap2\n      jump(tag_123)\n    tag_124:\n      dup3\n      add\n      swap2\n      swap1\n      0x00\n      mstore\n      keccak256(0x00, 0x20)\n      swap1\n    tag_125:\n      dup2\n      sload\n      dup2\n      mstore\n      swap1\n      0x01\n      add\n      swap1\n      0x20\n      add\n      dup1\n      dup4\n      gt\n      tag_125\n      jumpi\n      dup3\n      swap1\n      sub\n      0x1f\n      and\n      dup3\n      add\n      swap2\n    tag_123:\n      pop\n      pop\n      pop\n      pop\n      pop\n      dup2\n      mstore\n      0x20\n      add\n      0x02\n      dup3\n      add\n      dup1\n      sload\n      tag_126\n      swap1\n      tag_57\n      jump\t// in\n    tag_126:\n      dup1\n      0x1f\n      add\n      0x20\n      dup1\n      swap2\n      div\n      mul\n      0x20\n      add\n      mload(0x40)\n      swap1\n      dup2\n      add\n      0x40\n      mstore\n      dup1\n      swap3\n      swap2\n      swap1\n      dup2\n      dup2\n      mstore\n      0x20\n      add\n      dup3\n      dup1\n      sload\n      tag_127\n      swap1\n      tag_57\n      jump\t// in\n    tag_127:\n      dup1\n      iszero\n      tag_128\n      jumpi\n      dup1\n      0x1f\n      lt\n      tag_129\n      jumpi\n      0x0100\n      dup1\n      dup4\n      sload\n      div\n      mul\n      dup4\n      mstore\n      swap2\n      0x20\n      add\n      swap2\n      jump(tag_128)\n    tag_129:\n      dup3\n      add\n      swap2\n      swap1\n      0x00\n      mstore\n      keccak256(0x00, 0x20)\n      swap1\n    tag_130:\n      dup2\n      sload\n      dup2\n      mstore\n      swap1\n      0x01\n      add\n      swap1\n      0x20\n      add\n      dup1\n      dup4\n      gt\n      tag_130\n      jumpi\n      dup3\n      swap1\n      sub\n      0x1f\n      and\n      dup3\n      add\n      swap2\n    tag_128:\n      pop\n      pop\n      pop\n      pop\n      pop\n      dup2\n      mstore\n      0x20\n      add\n      0x03\n      dup3\n      add\n      0x00\n      swap1\n      sload\n      swap1\n      0x0100\n      exp\n      swap1\n      div\n      0xff\n      and\n      iszero\n      iszero\n      iszero\n      iszero\n      dup2\n      mstore\n      pop\n      pop\n      swap1\n      pop\n        /* \"ToDoApp.sol\":1268:1464  function getTodo(uint id) view public todoCount returns(ToDo memory) {... */\n      swap2\n      swap1\n      pop\n      jump\t// out\n        /* \"ToDoApp.sol\":2087:2188  function setAsDone(uint id) public todoCount {... */\n    tag_46:\n        /* \"ToDoApp.sol\":646:647  0 */\n      0x00\n        /* \"ToDoApp.sol\":624:631  counter */\n      0x01\n        /* \"ToDoApp.sol\":624:643  counter[msg.sender] */\n      0x00\n        /* \"ToDoApp.sol\":632:642  msg.sender */\n      caller\n        /* \"ToDoApp.sol\":624:643  counter[msg.sender] */\n      0xffffffffffffffffffffffffffffffffffffffff\n      and\n      0xffffffffffffffffffffffffffffffffffffffff\n      and\n      dup2\n      mstore\n      0x20\n      add\n      swap1\n      dup2\n      mstore\n      0x20\n      add\n      0x00\n      keccak256\n      sload\n        /* \"ToDoApp.sol\":624:647  counter[msg.sender] > 0 */\n      gt\n        /* \"ToDoApp.sol\":616:667  require(counter[msg.sender] > 0, \"No todos found.\") */\n      tag_132\n      jumpi\n      mload(0x40)\n      0x08c379a000000000000000000000000000000000000000000000000000000000\n      dup2\n      mstore\n      0x04\n      add\n      tag_133\n      swap1\n      tag_70\n      jump\t// in\n    tag_133:\n      mload(0x40)\n      dup1\n      swap2\n      sub\n      swap1\n      revert\n    tag_132:\n        /* \"ToDoApp.sol\":2177:2181  true */\n      0x01\n        /* \"ToDoApp.sol\":2142:2147  todos */\n      0x00\n        /* \"ToDoApp.sol\":2142:2159  todos[msg.sender] */\n      dup1\n        /* \"ToDoApp.sol\":2148:2158  msg.sender */\n      caller\n        /* \"ToDoApp.sol\":2142:2159  todos[msg.sender] */\n      0xffffffffffffffffffffffffffffffffffffffff\n      and\n      0xffffffffffffffffffffffffffffffffffffffff\n      and\n      dup2\n      mstore\n      0x20\n      add\n      swap1\n      dup2\n      mstore\n      0x20\n      add\n      0x00\n      keccak256\n        /* \"ToDoApp.sol\":2165:2166  1 */\n      0x01\n        /* \"ToDoApp.sol\":2160:2162  id */\n      dup4\n        /* \"ToDoApp.sol\":2160:2166  id - 1 */\n      tag_135\n      swap2\n      swap1\n      tag_73\n      jump\t// in\n    tag_135:\n        /* \"ToDoApp.sol\":2142:2167  todos[msg.sender][id - 1] */\n      dup2\n      sload\n      dup2\n      lt\n      tag_136\n      jumpi\n      tag_137\n      tag_76\n      jump\t// in\n    tag_137:\n    tag_136:\n      swap1\n      0x00\n      mstore\n      keccak256(0x00, 0x20)\n      swap1\n      0x04\n      mul\n      add\n        /* \"ToDoApp.sol\":2142:2174  todos[msg.sender][id - 1].status */\n      0x03\n      add\n      0x00\n        /* \"ToDoApp.sol\":2142:2181  todos[msg.sender][id - 1].status = true */\n      0x0100\n      exp\n      dup2\n      sload\n      dup2\n      0xff\n      mul\n      not\n      and\n      swap1\n      dup4\n      iszero\n      iszero\n      mul\n      or\n      swap1\n      sstore\n      pop\n        /* \"ToDoApp.sol\":2087:2188  function setAsDone(uint id) public todoCount {... */\n      pop\n      jump\t// out\n    tag_52:\n      dup3\n      dup1\n      sload\n      tag_139\n      swap1\n      tag_57\n      jump\t// in\n    tag_139:\n      swap1\n      0x00\n      mstore\n      keccak256(0x00, 0x20)\n      swap1\n      0x1f\n      add\n      0x20\n      swap1\n      div\n      dup2\n      add\n      swap3\n      dup3\n      tag_141\n      jumpi\n      0x00\n      dup6\n      sstore\n      jump(tag_140)\n    tag_141:\n      dup3\n      0x1f\n      lt\n      tag_142\n      jumpi\n      dup1\n      mload\n      not(0xff)\n      and\n      dup4\n      dup1\n      add\n      or\n      dup6\n      sstore\n      jump(tag_140)\n    tag_142:\n      dup3\n      dup1\n      add\n      0x01\n      add\n      dup6\n      sstore\n      dup3\n      iszero\n      tag_140\n      jumpi\n      swap2\n      dup3\n      add\n    tag_143:\n      dup3\n      dup2\n      gt\n      iszero\n      tag_144\n      jumpi\n      dup3\n      mload\n      dup3\n      sstore\n      swap2\n      0x20\n      add\n      swap2\n      swap1\n      0x01\n      add\n      swap1\n      jump(tag_143)\n    tag_144:\n    tag_140:\n      pop\n      swap1\n      pop\n      tag_145\n      swap2\n      swap1\n      tag_146\n      jump\t// in\n    tag_145:\n      pop\n      swap1\n      jump\t// out\n    tag_88:\n      mload(0x40)\n      dup1\n      0x80\n      add\n      0x40\n      mstore\n      dup1\n      0x00\n      dup2\n      mstore\n      0x20\n      add\n      0x60\n      dup2\n      mstore\n      0x20\n      add\n      0x60\n      dup2\n      mstore\n      0x20\n      add\n      iszero(iszero(0x00))\n      dup2\n      mstore\n      pop\n      swap1\n      jump\t// out\n    tag_146:\n    tag_147:\n      dup1\n      dup3\n      gt\n      iszero\n      tag_148\n      jumpi\n      0x00\n      dup2\n      0x00\n      swap1\n      sstore\n      pop\n      0x01\n      add\n      jump(tag_147)\n    tag_148:\n      pop\n      swap1\n      jump\t// out\n        /* \"#utility.yul\":7:419   */\n    tag_150:\n        /* \"#utility.yul\":85:90   */\n      0x00\n        /* \"#utility.yul\":110:176   */\n      tag_152\n        /* \"#utility.yul\":126:175   */\n      tag_153\n        /* \"#utility.yul\":168:174   */\n      dup5\n        /* \"#utility.yul\":126:175   */\n      tag_154\n      jump\t// in\n    tag_153:\n        /* \"#utility.yul\":110:176   */\n      tag_155\n      jump\t// in\n    tag_152:\n        /* \"#utility.yul\":101:176   */\n      swap1\n      pop\n        /* \"#utility.yul\":199:205   */\n      dup3\n        /* \"#utility.yul\":192:197   */\n      dup2\n        /* \"#utility.yul\":185:206   */\n      mstore\n        /* \"#utility.yul\":237:241   */\n      0x20\n        /* \"#utility.yul\":230:235   */\n      dup2\n        /* \"#utility.yul\":226:242   */\n      add\n        /* \"#utility.yul\":275:278   */\n      dup5\n        /* \"#utility.yul\":266:272   */\n      dup5\n        /* \"#utility.yul\":261:264   */\n      dup5\n        /* \"#utility.yul\":257:273   */\n      add\n        /* \"#utility.yul\":254:279   */\n      gt\n        /* \"#utility.yul\":251:363   */\n      iszero\n      tag_156\n      jumpi\n        /* \"#utility.yul\":282:361   */\n      tag_157\n      tag_158\n      jump\t// in\n    tag_157:\n        /* \"#utility.yul\":251:363   */\n    tag_156:\n        /* \"#utility.yul\":372:413   */\n      tag_159\n        /* \"#utility.yul\":406:412   */\n      dup5\n        /* \"#utility.yul\":401:404   */\n      dup3\n        /* \"#utility.yul\":396:399   */\n      dup6\n        /* \"#utility.yul\":372:413   */\n      tag_160\n      jump\t// in\n    tag_159:\n        /* \"#utility.yul\":91:419   */\n      pop\n        /* \"#utility.yul\":7:419   */\n      swap4\n      swap3\n      pop\n      pop\n      pop\n      jump\t// out\n        /* \"#utility.yul\":425:564   */\n    tag_161:\n        /* \"#utility.yul\":471:476   */\n      0x00\n        /* \"#utility.yul\":509:515   */\n      dup2\n        /* \"#utility.yul\":496:516   */\n      calldataload\n        /* \"#utility.yul\":487:516   */\n      swap1\n      pop\n        /* \"#utility.yul\":525:558   */\n      tag_163\n        /* \"#utility.yul\":552:557   */\n      dup2\n        /* \"#utility.yul\":525:558   */\n      tag_164\n      jump\t// in\n    tag_163:\n        /* \"#utility.yul\":425:564   */\n      swap3\n      swap2\n      pop\n      pop\n      jump\t// out\n        /* \"#utility.yul\":584:924   */\n    tag_165:\n        /* \"#utility.yul\":640:645   */\n      0x00\n        /* \"#utility.yul\":689:692   */\n      dup3\n        /* \"#utility.yul\":682:686   */\n      0x1f\n        /* \"#utility.yul\":674:680   */\n      dup4\n        /* \"#utility.yul\":670:687   */\n      add\n        /* \"#utility.yul\":666:693   */\n      slt\n        /* \"#utility.yul\":656:778   */\n      tag_167\n      jumpi\n        /* \"#utility.yul\":697:776   */\n      tag_168\n      tag_169\n      jump\t// in\n    tag_168:\n        /* \"#utility.yul\":656:778   */\n    tag_167:\n        /* \"#utility.yul\":814:820   */\n      dup2\n        /* \"#utility.yul\":801:821   */\n      calldataload\n        /* \"#utility.yul\":839:918   */\n      tag_170\n        /* \"#utility.yul\":914:917   */\n      dup5\n        /* \"#utility.yul\":906:912   */\n      dup3\n        /* \"#utility.yul\":899:903   */\n      0x20\n        /* \"#utility.yul\":891:897   */\n      dup7\n        /* \"#utility.yul\":887:904   */\n      add\n        /* \"#utility.yul\":839:918   */\n      tag_150\n      jump\t// in\n    tag_170:\n        /* \"#utility.yul\":830:918   */\n      swap2\n      pop\n        /* \"#utility.yul\":646:924   */\n      pop\n        /* \"#utility.yul\":584:924   */\n      swap3\n      swap2\n      pop\n      pop\n      jump\t// out\n        /* \"#utility.yul\":930:1069   */\n    tag_171:\n        /* \"#utility.yul\":976:981   */\n      0x00\n        /* \"#utility.yul\":1014:1020   */\n      dup2\n        /* \"#utility.yul\":1001:1021   */\n      calldataload\n        /* \"#utility.yul\":992:1021   */\n      swap1\n      pop\n        /* \"#utility.yul\":1030:1063   */\n      tag_173\n        /* \"#utility.yul\":1057:1062   */\n      dup2\n        /* \"#utility.yul\":1030:1063   */\n      tag_174\n      jump\t// in\n    tag_173:\n        /* \"#utility.yul\":930:1069   */\n      swap3\n      swap2\n      pop\n      pop\n      jump\t// out\n        /* \"#utility.yul\":1075:1404   */\n    tag_28:\n        /* \"#utility.yul\":1134:1140   */\n      0x00\n        /* \"#utility.yul\":1183:1185   */\n      0x20\n        /* \"#utility.yul\":1171:1180   */\n      dup3\n        /* \"#utility.yul\":1162:1169   */\n      dup5\n        /* \"#utility.yul\":1158:1181   */\n      sub\n        /* \"#utility.yul\":1154:1186   */\n      slt\n        /* \"#utility.yul\":1151:1270   */\n      iszero\n      tag_176\n      jumpi\n        /* \"#utility.yul\":1189:1268   */\n      tag_177\n      tag_178\n      jump\t// in\n    tag_177:\n        /* \"#utility.yul\":1151:1270   */\n    tag_176:\n        /* \"#utility.yul\":1309:1310   */\n      0x00\n        /* \"#utility.yul\":1334:1387   */\n      tag_179\n        /* \"#utility.yul\":1379:1386   */\n      dup5\n        /* \"#utility.yul\":1370:1376   */\n      dup3\n        /* \"#utility.yul\":1359:1368   */\n      dup6\n        /* \"#utility.yul\":1355:1377   */\n      add\n        /* \"#utility.yul\":1334:1387   */\n      tag_161\n      jump\t// in\n    tag_179:\n        /* \"#utility.yul\":1324:1387   */\n      swap2\n      pop\n        /* \"#utility.yul\":1280:1397   */\n      pop\n        /* \"#utility.yul\":1075:1404   */\n      swap3\n      swap2\n      pop\n      pop\n      jump\t// out\n        /* \"#utility.yul\":1410:1884   */\n    tag_18:\n        /* \"#utility.yul\":1478:1484   */\n      0x00\n        /* \"#utility.yul\":1486:1492   */\n      dup1\n        /* \"#utility.yul\":1535:1537   */\n      0x40\n        /* \"#utility.yul\":1523:1532   */\n      dup4\n        /* \"#utility.yul\":1514:1521   */\n      dup6\n        /* \"#utility.yul\":1510:1533   */\n      sub\n        /* \"#utility.yul\":1506:1538   */\n      slt\n        /* \"#utility.yul\":1503:1622   */\n      iszero\n      tag_181\n      jumpi\n        /* \"#utility.yul\":1541:1620   */\n      tag_182\n      tag_178\n      jump\t// in\n    tag_182:\n        /* \"#utility.yul\":1503:1622   */\n    tag_181:\n        /* \"#utility.yul\":1661:1662   */\n      0x00\n        /* \"#utility.yul\":1686:1739   */\n      tag_183\n        /* \"#utility.yul\":1731:1738   */\n      dup6\n        /* \"#utility.yul\":1722:1728   */\n      dup3\n        /* \"#utility.yul\":1711:1720   */\n      dup7\n        /* \"#utility.yul\":1707:1729   */\n      add\n        /* \"#utility.yul\":1686:1739   */\n      tag_161\n      jump\t// in\n    tag_183:\n        /* \"#utility.yul\":1676:1739   */\n      swap3\n      pop\n        /* \"#utility.yul\":1632:1749   */\n      pop\n        /* \"#utility.yul\":1788:1790   */\n      0x20\n        /* \"#utility.yul\":1814:1867   */\n      tag_184\n        /* \"#utility.yul\":1859:1866   */\n      dup6\n        /* \"#utility.yul\":1850:1856   */\n      dup3\n        /* \"#utility.yul\":1839:1848   */\n      dup7\n        /* \"#utility.yul\":1835:1857   */\n      add\n        /* \"#utility.yul\":1814:1867   */\n      tag_171\n      jump\t// in\n    tag_184:\n        /* \"#utility.yul\":1804:1867   */\n      swap2\n      pop\n        /* \"#utility.yul\":1759:1877   */\n      pop\n        /* \"#utility.yul\":1410:1884   */\n      swap3\n      pop\n      swap3\n      swap1\n      pop\n      jump\t// out\n        /* \"#utility.yul\":1890:2724   */\n    tag_14:\n        /* \"#utility.yul\":1978:1984   */\n      0x00\n        /* \"#utility.yul\":1986:1992   */\n      dup1\n        /* \"#utility.yul\":2035:2037   */\n      0x40\n        /* \"#utility.yul\":2023:2032   */\n      dup4\n        /* \"#utility.yul\":2014:2021   */\n      dup6\n        /* \"#utility.yul\":2010:2033   */\n      sub\n        /* \"#utility.yul\":2006:2038   */\n      slt\n        /* \"#utility.yul\":2003:2122   */\n      iszero\n      tag_186\n      jumpi\n        /* \"#utility.yul\":2041:2120   */\n      tag_187\n      tag_178\n      jump\t// in\n    tag_187:\n        /* \"#utility.yul\":2003:2122   */\n    tag_186:\n        /* \"#utility.yul\":2189:2190   */\n      0x00\n        /* \"#utility.yul\":2178:2187   */\n      dup4\n        /* \"#utility.yul\":2174:2191   */\n      add\n        /* \"#utility.yul\":2161:2192   */\n      calldataload\n        /* \"#utility.yul\":2219:2237   */\n      0xffffffffffffffff\n        /* \"#utility.yul\":2211:2217   */\n      dup2\n        /* \"#utility.yul\":2208:2238   */\n      gt\n        /* \"#utility.yul\":2205:2322   */\n      iszero\n      tag_188\n      jumpi\n        /* \"#utility.yul\":2241:2320   */\n      tag_189\n      tag_190\n      jump\t// in\n    tag_189:\n        /* \"#utility.yul\":2205:2322   */\n    tag_188:\n        /* \"#utility.yul\":2346:2409   */\n      tag_191\n        /* \"#utility.yul\":2401:2408   */\n      dup6\n        /* \"#utility.yul\":2392:2398   */\n      dup3\n        /* \"#utility.yul\":2381:2390   */\n      dup7\n        /* \"#utility.yul\":2377:2399   */\n      add\n        /* \"#utility.yul\":2346:2409   */\n      tag_165\n      jump\t// in\n    tag_191:\n        /* \"#utility.yul\":2336:2409   */\n      swap3\n      pop\n        /* \"#utility.yul\":2132:2419   */\n      pop\n        /* \"#utility.yul\":2486:2488   */\n      0x20\n        /* \"#utility.yul\":2475:2484   */\n      dup4\n        /* \"#utility.yul\":2471:2489   */\n      add\n        /* \"#utility.yul\":2458:2490   */\n      calldataload\n        /* \"#utility.yul\":2517:2535   */\n      0xffffffffffffffff\n        /* \"#utility.yul\":2509:2515   */\n      dup2\n        /* \"#utility.yul\":2506:2536   */\n      gt\n        /* \"#utility.yul\":2503:2620   */\n      iszero\n      tag_192\n      jumpi\n        /* \"#utility.yul\":2539:2618   */\n      tag_193\n      tag_190\n      jump\t// in\n    tag_193:\n        /* \"#utility.yul\":2503:2620   */\n    tag_192:\n        /* \"#utility.yul\":2644:2707   */\n      tag_194\n        /* \"#utility.yul\":2699:2706   */\n      dup6\n        /* \"#utility.yul\":2690:2696   */\n      dup3\n        /* \"#utility.yul\":2679:2688   */\n      dup7\n        /* \"#utility.yul\":2675:2697   */\n      add\n        /* \"#utility.yul\":2644:2707   */\n      tag_165\n      jump\t// in\n    tag_194:\n        /* \"#utility.yul\":2634:2707   */\n      swap2\n      pop\n        /* \"#utility.yul\":2429:2717   */\n      pop\n        /* \"#utility.yul\":1890:2724   */\n      swap3\n      pop\n      swap3\n      swap1\n      pop\n      jump\t// out\n        /* \"#utility.yul\":2730:3059   */\n    tag_24:\n        /* \"#utility.yul\":2789:2795   */\n      0x00\n        /* \"#utility.yul\":2838:2840   */\n      0x20\n        /* \"#utility.yul\":2826:2835   */\n      dup3\n        /* \"#utility.yul\":2817:2824   */\n      dup5\n        /* \"#utility.yul\":2813:2836   */\n      sub\n        /* \"#utility.yul\":2809:2841   */\n      slt\n        /* \"#utility.yul\":2806:2925   */\n      iszero\n      tag_196\n      jumpi\n        /* \"#utility.yul\":2844:2923   */\n      tag_197\n      tag_178\n      jump\t// in\n    tag_197:\n        /* \"#utility.yul\":2806:2925   */\n    tag_196:\n        /* \"#utility.yul\":2964:2965   */\n      0x00\n        /* \"#utility.yul\":2989:3042   */\n      tag_198\n        /* \"#utility.yul\":3034:3041   */\n      dup5\n        /* \"#utility.yul\":3025:3031   */\n      dup3\n        /* \"#utility.yul\":3014:3023   */\n      dup6\n        /* \"#utility.yul\":3010:3032   */\n      add\n        /* \"#utility.yul\":2989:3042   */\n      tag_171\n      jump\t// in\n    tag_198:\n        /* \"#utility.yul\":2979:3042   */\n      swap2\n      pop\n        /* \"#utility.yul\":2935:3052   */\n      pop\n        /* \"#utility.yul\":2730:3059   */\n      swap3\n      swap2\n      pop\n      pop\n      jump\t// out\n        /* \"#utility.yul\":3065:3301   */\n    tag_199:\n        /* \"#utility.yul\":3174:3184   */\n      0x00\n        /* \"#utility.yul\":3209:3295   */\n      tag_201\n        /* \"#utility.yul\":3291:3294   */\n      dup4\n        /* \"#utility.yul\":3283:3289   */\n      dup4\n        /* \"#utility.yul\":3209:3295   */\n      tag_202\n      jump\t// in\n    tag_201:\n        /* \"#utility.yul\":3195:3295   */\n      swap1\n      pop\n        /* \"#utility.yul\":3065:3301   */\n      swap3\n      swap2\n      pop\n      pop\n      jump\t// out\n        /* \"#utility.yul\":3361:4432   */\n    tag_203:\n        /* \"#utility.yul\":3520:3523   */\n      0x00\n        /* \"#utility.yul\":3549:3623   */\n      tag_205\n        /* \"#utility.yul\":3617:3622   */\n      dup3\n        /* \"#utility.yul\":3549:3623   */\n      tag_206\n      jump\t// in\n    tag_205:\n        /* \"#utility.yul\":3639:3745   */\n      tag_207\n        /* \"#utility.yul\":3738:3744   */\n      dup2\n        /* \"#utility.yul\":3733:3736   */\n      dup6\n        /* \"#utility.yul\":3639:3745   */\n      tag_208\n      jump\t// in\n    tag_207:\n        /* \"#utility.yul\":3632:3745   */\n      swap4\n      pop\n        /* \"#utility.yul\":3771:3774   */\n      dup4\n        /* \"#utility.yul\":3816:3820   */\n      0x20\n        /* \"#utility.yul\":3808:3814   */\n      dup3\n        /* \"#utility.yul\":3804:3821   */\n      mul\n        /* \"#utility.yul\":3799:3802   */\n      dup6\n        /* \"#utility.yul\":3795:3822   */\n      add\n        /* \"#utility.yul\":3846:3922   */\n      tag_209\n        /* \"#utility.yul\":3916:3921   */\n      dup6\n        /* \"#utility.yul\":3846:3922   */\n      tag_210\n      jump\t// in\n    tag_209:\n        /* \"#utility.yul\":3945:3952   */\n      dup1\n        /* \"#utility.yul\":3976:3977   */\n      0x00\n        /* \"#utility.yul\":3961:4387   */\n    tag_211:\n        /* \"#utility.yul\":3986:3992   */\n      dup6\n        /* \"#utility.yul\":3983:3984   */\n      dup2\n        /* \"#utility.yul\":3980:3993   */\n      lt\n        /* \"#utility.yul\":3961:4387   */\n      iszero\n      tag_213\n      jumpi\n        /* \"#utility.yul\":4057:4066   */\n      dup5\n        /* \"#utility.yul\":4051:4055   */\n      dup5\n        /* \"#utility.yul\":4047:4067   */\n      sub\n        /* \"#utility.yul\":4042:4045   */\n      dup10\n        /* \"#utility.yul\":4035:4068   */\n      mstore\n        /* \"#utility.yul\":4108:4114   */\n      dup2\n        /* \"#utility.yul\":4102:4115   */\n      mload\n        /* \"#utility.yul\":4136:4240   */\n      tag_214\n        /* \"#utility.yul\":4235:4239   */\n      dup6\n        /* \"#utility.yul\":4220:4233   */\n      dup3\n        /* \"#utility.yul\":4136:4240   */\n      tag_199\n      jump\t// in\n    tag_214:\n        /* \"#utility.yul\":4128:4240   */\n      swap5\n      pop\n        /* \"#utility.yul\":4263:4343   */\n      tag_215\n        /* \"#utility.yul\":4336:4342   */\n      dup4\n        /* \"#utility.yul\":4263:4343   */\n      tag_216\n      jump\t// in\n    tag_215:\n        /* \"#utility.yul\":4253:4343   */\n      swap3\n      pop\n        /* \"#utility.yul\":4372:4376   */\n      0x20\n        /* \"#utility.yul\":4367:4370   */\n      dup11\n        /* \"#utility.yul\":4363:4377   */\n      add\n        /* \"#utility.yul\":4356:4377   */\n      swap10\n      pop\n        /* \"#utility.yul\":4021:4387   */\n      pop\n        /* \"#utility.yul\":4008:4009   */\n      0x01\n        /* \"#utility.yul\":4005:4006   */\n      dup2\n        /* \"#utility.yul\":4001:4010   */\n      add\n        /* \"#utility.yul\":3996:4010   */\n      swap1\n      pop\n        /* \"#utility.yul\":3961:4387   */\n      jump(tag_211)\n    tag_213:\n        /* \"#utility.yul\":3965:3979   */\n      pop\n        /* \"#utility.yul\":4403:4407   */\n      dup3\n        /* \"#utility.yul\":4396:4407   */\n      swap8\n      pop\n        /* \"#utility.yul\":4423:4426   */\n      dup8\n        /* \"#utility.yul\":4416:4426   */\n      swap6\n      pop\n        /* \"#utility.yul\":3525:4432   */\n      pop\n      pop\n      pop\n      pop\n      pop\n        /* \"#utility.yul\":3361:4432   */\n      swap3\n      swap2\n      pop\n      pop\n      jump\t// out\n        /* \"#utility.yul\":4438:4537   */\n    tag_217:\n        /* \"#utility.yul\":4509:4530   */\n      tag_219\n        /* \"#utility.yul\":4524:4529   */\n      dup2\n        /* \"#utility.yul\":4509:4530   */\n      tag_220\n      jump\t// in\n    tag_219:\n        /* \"#utility.yul\":4504:4507   */\n      dup3\n        /* \"#utility.yul\":4497:4531   */\n      mstore\n        /* \"#utility.yul\":4438:4537   */\n      pop\n      pop\n      jump\t// out\n        /* \"#utility.yul\":4543:4652   */\n    tag_221:\n        /* \"#utility.yul\":4624:4645   */\n      tag_223\n        /* \"#utility.yul\":4639:4644   */\n      dup2\n        /* \"#utility.yul\":4624:4645   */\n      tag_220\n      jump\t// in\n    tag_223:\n        /* \"#utility.yul\":4619:4622   */\n      dup3\n        /* \"#utility.yul\":4612:4646   */\n      mstore\n        /* \"#utility.yul\":4543:4652   */\n      pop\n      pop\n      jump\t// out\n        /* \"#utility.yul\":4658:5002   */\n    tag_224:\n        /* \"#utility.yul\":4736:4739   */\n      0x00\n        /* \"#utility.yul\":4764:4803   */\n      tag_226\n        /* \"#utility.yul\":4797:4802   */\n      dup3\n        /* \"#utility.yul\":4764:4803   */\n      tag_227\n      jump\t// in\n    tag_226:\n        /* \"#utility.yul\":4819:4880   */\n      tag_228\n        /* \"#utility.yul\":4873:4879   */\n      dup2\n        /* \"#utility.yul\":4868:4871   */\n      dup6\n        /* \"#utility.yul\":4819:4880   */\n      tag_229\n      jump\t// in\n    tag_228:\n        /* \"#utility.yul\":4812:4880   */\n      swap4\n      pop\n        /* \"#utility.yul\":4889:4941   */\n      tag_230\n        /* \"#utility.yul\":4934:4940   */\n      dup2\n        /* \"#utility.yul\":4929:4932   */\n      dup6\n        /* \"#utility.yul\":4922:4926   */\n      0x20\n        /* \"#utility.yul\":4915:4920   */\n      dup7\n        /* \"#utility.yul\":4911:4927   */\n      add\n        /* \"#utility.yul\":4889:4941   */\n      tag_231\n      jump\t// in\n    tag_230:\n        /* \"#utility.yul\":4966:4995   */\n      tag_232\n        /* \"#utility.yul\":4988:4994   */\n      dup2\n        /* \"#utility.yul\":4966:4995   */\n      tag_233\n      jump\t// in\n    tag_232:\n        /* \"#utility.yul\":4961:4964   */\n      dup5\n        /* \"#utility.yul\":4957:4996   */\n      add\n        /* \"#utility.yul\":4950:4996   */\n      swap2\n      pop\n        /* \"#utility.yul\":4740:5002   */\n      pop\n        /* \"#utility.yul\":4658:5002   */\n      swap3\n      swap2\n      pop\n      pop\n      jump\t// out\n        /* \"#utility.yul\":5008:5372   */\n    tag_234:\n        /* \"#utility.yul\":5096:5099   */\n      0x00\n        /* \"#utility.yul\":5124:5163   */\n      tag_236\n        /* \"#utility.yul\":5157:5162   */\n      dup3\n        /* \"#utility.yul\":5124:5163   */\n      tag_227\n      jump\t// in\n    tag_236:\n        /* \"#utility.yul\":5179:5250   */\n      tag_237\n        /* \"#utility.yul\":5243:5249   */\n      dup2\n        /* \"#utility.yul\":5238:5241   */\n      dup6\n        /* \"#utility.yul\":5179:5250   */\n      tag_238\n      jump\t// in\n    tag_237:\n        /* \"#utility.yul\":5172:5250   */\n      swap4\n      pop\n        /* \"#utility.yul\":5259:5311   */\n      tag_239\n        /* \"#utility.yul\":5304:5310   */\n      dup2\n        /* \"#utility.yul\":5299:5302   */\n      dup6\n        /* \"#utility.yul\":5292:5296   */\n      0x20\n        /* \"#utility.yul\":5285:5290   */\n      dup7\n        /* \"#utility.yul\":5281:5297   */\n      add\n        /* \"#utility.yul\":5259:5311   */\n      tag_231\n      jump\t// in\n    tag_239:\n        /* \"#utility.yul\":5336:5365   */\n      tag_240\n        /* \"#utility.yul\":5358:5364   */\n      dup2\n        /* \"#utility.yul\":5336:5365   */\n      tag_233\n      jump\t// in\n    tag_240:\n        /* \"#utility.yul\":5331:5334   */\n      dup5\n        /* \"#utility.yul\":5327:5366   */\n      add\n        /* \"#utility.yul\":5320:5366   */\n      swap2\n      pop\n        /* \"#utility.yul\":5100:5372   */\n      pop\n        /* \"#utility.yul\":5008:5372   */\n      swap3\n      swap2\n      pop\n      pop\n      jump\t// out\n        /* \"#utility.yul\":5378:5744   */\n    tag_241:\n        /* \"#utility.yul\":5520:5523   */\n      0x00\n        /* \"#utility.yul\":5541:5608   */\n      tag_243\n        /* \"#utility.yul\":5605:5607   */\n      0x1e\n        /* \"#utility.yul\":5600:5603   */\n      dup4\n        /* \"#utility.yul\":5541:5608   */\n      tag_238\n      jump\t// in\n    tag_243:\n        /* \"#utility.yul\":5534:5608   */\n      swap2\n      pop\n        /* \"#utility.yul\":5617:5710   */\n      tag_244\n        /* \"#utility.yul\":5706:5709   */\n      dup3\n        /* \"#utility.yul\":5617:5710   */\n      tag_245\n      jump\t// in\n    tag_244:\n        /* \"#utility.yul\":5735:5737   */\n      0x20\n        /* \"#utility.yul\":5730:5733   */\n      dup3\n        /* \"#utility.yul\":5726:5738   */\n      add\n        /* \"#utility.yul\":5719:5738   */\n      swap1\n      pop\n        /* \"#utility.yul\":5378:5744   */\n      swap2\n      swap1\n      pop\n      jump\t// out\n        /* \"#utility.yul\":5750:6116   */\n    tag_246:\n        /* \"#utility.yul\":5892:5895   */\n      0x00\n        /* \"#utility.yul\":5913:5980   */\n      tag_248\n        /* \"#utility.yul\":5977:5979   */\n      0x0f\n        /* \"#utility.yul\":5972:5975   */\n      dup4\n        /* \"#utility.yul\":5913:5980   */\n      tag_238\n      jump\t// in\n    tag_248:\n        /* \"#utility.yul\":5906:5980   */\n      swap2\n      pop\n        /* \"#utility.yul\":5989:6082   */\n      tag_249\n        /* \"#utility.yul\":6078:6081   */\n      dup3\n        /* \"#utility.yul\":5989:6082   */\n      tag_250\n      jump\t// in\n    tag_249:\n        /* \"#utility.yul\":6107:6109   */\n      0x20\n        /* \"#utility.yul\":6102:6105   */\n      dup3\n        /* \"#utility.yul\":6098:6110   */\n      add\n        /* \"#utility.yul\":6091:6110   */\n      swap1\n      pop\n        /* \"#utility.yul\":5750:6116   */\n      swap2\n      swap1\n      pop\n      jump\t// out\n        /* \"#utility.yul\":6172:7174   */\n    tag_202:\n        /* \"#utility.yul\":6271:6274   */\n      0x00\n        /* \"#utility.yul\":6307:6311   */\n      0x80\n        /* \"#utility.yul\":6302:6305   */\n      dup4\n        /* \"#utility.yul\":6298:6312   */\n      add\n        /* \"#utility.yul\":6392:6396   */\n      0x00\n        /* \"#utility.yul\":6385:6390   */\n      dup4\n        /* \"#utility.yul\":6381:6397   */\n      add\n        /* \"#utility.yul\":6375:6398   */\n      mload\n        /* \"#utility.yul\":6411:6474   */\n      tag_252\n        /* \"#utility.yul\":6468:6472   */\n      0x00\n        /* \"#utility.yul\":6463:6466   */\n      dup7\n        /* \"#utility.yul\":6459:6473   */\n      add\n        /* \"#utility.yul\":6445:6457   */\n      dup3\n        /* \"#utility.yul\":6411:6474   */\n      tag_253\n      jump\t// in\n    tag_252:\n        /* \"#utility.yul\":6322:6484   */\n      pop\n        /* \"#utility.yul\":6566:6570   */\n      0x20\n        /* \"#utility.yul\":6559:6564   */\n      dup4\n        /* \"#utility.yul\":6555:6571   */\n      add\n        /* \"#utility.yul\":6549:6572   */\n      mload\n        /* \"#utility.yul\":6619:6622   */\n      dup5\n        /* \"#utility.yul\":6613:6617   */\n      dup3\n        /* \"#utility.yul\":6609:6623   */\n      sub\n        /* \"#utility.yul\":6602:6606   */\n      0x20\n        /* \"#utility.yul\":6597:6600   */\n      dup7\n        /* \"#utility.yul\":6593:6607   */\n      add\n        /* \"#utility.yul\":6586:6624   */\n      mstore\n        /* \"#utility.yul\":6645:6718   */\n      tag_254\n        /* \"#utility.yul\":6713:6717   */\n      dup3\n        /* \"#utility.yul\":6699:6711   */\n      dup3\n        /* \"#utility.yul\":6645:6718   */\n      tag_224\n      jump\t// in\n    tag_254:\n        /* \"#utility.yul\":6637:6718   */\n      swap2\n      pop\n        /* \"#utility.yul\":6494:6729   */\n      pop\n        /* \"#utility.yul\":6814:6818   */\n      0x40\n        /* \"#utility.yul\":6807:6812   */\n      dup4\n        /* \"#utility.yul\":6803:6819   */\n      add\n        /* \"#utility.yul\":6797:6820   */\n      mload\n        /* \"#utility.yul\":6867:6870   */\n      dup5\n        /* \"#utility.yul\":6861:6865   */\n      dup3\n        /* \"#utility.yul\":6857:6871   */\n      sub\n        /* \"#utility.yul\":6850:6854   */\n      0x40\n        /* \"#utility.yul\":6845:6848   */\n      dup7\n        /* \"#utility.yul\":6841:6855   */\n      add\n        /* \"#utility.yul\":6834:6872   */\n      mstore\n        /* \"#utility.yul\":6893:6966   */\n      tag_255\n        /* \"#utility.yul\":6961:6965   */\n      dup3\n        /* \"#utility.yul\":6947:6959   */\n      dup3\n        /* \"#utility.yul\":6893:6966   */\n      tag_224\n      jump\t// in\n    tag_255:\n        /* \"#utility.yul\":6885:6966   */\n      swap2\n      pop\n        /* \"#utility.yul\":6739:6977   */\n      pop\n        /* \"#utility.yul\":7061:7065   */\n      0x60\n        /* \"#utility.yul\":7054:7059   */\n      dup4\n        /* \"#utility.yul\":7050:7066   */\n      add\n        /* \"#utility.yul\":7044:7067   */\n      mload\n        /* \"#utility.yul\":7080:7137   */\n      tag_256\n        /* \"#utility.yul\":7131:7135   */\n      0x60\n        /* \"#utility.yul\":7126:7129   */\n      dup7\n        /* \"#utility.yul\":7122:7136   */\n      add\n        /* \"#utility.yul\":7108:7120   */\n      dup3\n        /* \"#utility.yul\":7080:7137   */\n      tag_217\n      jump\t// in\n    tag_256:\n        /* \"#utility.yul\":6987:7147   */\n      pop\n        /* \"#utility.yul\":7164:7168   */\n      dup1\n        /* \"#utility.yul\":7157:7168   */\n      swap2\n      pop\n        /* \"#utility.yul\":6276:7174   */\n      pop\n        /* \"#utility.yul\":6172:7174   */\n      swap3\n      swap2\n      pop\n      pop\n      jump\t// out\n        /* \"#utility.yul\":7230:8242   */\n    tag_257:\n        /* \"#utility.yul\":7339:7342   */\n      0x00\n        /* \"#utility.yul\":7375:7379   */\n      0x80\n        /* \"#utility.yul\":7370:7373   */\n      dup4\n        /* \"#utility.yul\":7366:7380   */\n      add\n        /* \"#utility.yul\":7460:7464   */\n      0x00\n        /* \"#utility.yul\":7453:7458   */\n      dup4\n        /* \"#utility.yul\":7449:7465   */\n      add\n        /* \"#utility.yul\":7443:7466   */\n      mload\n        /* \"#utility.yul\":7479:7542   */\n      tag_259\n        /* \"#utility.yul\":7536:7540   */\n      0x00\n        /* \"#utility.yul\":7531:7534   */\n      dup7\n        /* \"#utility.yul\":7527:7541   */\n      add\n        /* \"#utility.yul\":7513:7525   */\n      dup3\n        /* \"#utility.yul\":7479:7542   */\n      tag_253\n      jump\t// in\n    tag_259:\n        /* \"#utility.yul\":7390:7552   */\n      pop\n        /* \"#utility.yul\":7634:7638   */\n      0x20\n        /* \"#utility.yul\":7627:7632   */\n      dup4\n        /* \"#utility.yul\":7623:7639   */\n      add\n        /* \"#utility.yul\":7617:7640   */\n      mload\n        /* \"#utility.yul\":7687:7690   */\n      dup5\n        /* \"#utility.yul\":7681:7685   */\n      dup3\n        /* \"#utility.yul\":7677:7691   */\n      sub\n        /* \"#utility.yul\":7670:7674   */\n      0x20\n        /* \"#utility.yul\":7665:7668   */\n      dup7\n        /* \"#utility.yul\":7661:7675   */\n      add\n        /* \"#utility.yul\":7654:7692   */\n      mstore\n        /* \"#utility.yul\":7713:7786   */\n      tag_260\n        /* \"#utility.yul\":7781:7785   */\n      dup3\n        /* \"#utility.yul\":7767:7779   */\n      dup3\n        /* \"#utility.yul\":7713:7786   */\n      tag_224\n      jump\t// in\n    tag_260:\n        /* \"#utility.yul\":7705:7786   */\n      swap2\n      pop\n        /* \"#utility.yul\":7562:7797   */\n      pop\n        /* \"#utility.yul\":7882:7886   */\n      0x40\n        /* \"#utility.yul\":7875:7880   */\n      dup4\n        /* \"#utility.yul\":7871:7887   */\n      add\n        /* \"#utility.yul\":7865:7888   */\n      mload\n        /* \"#utility.yul\":7935:7938   */\n      dup5\n        /* \"#utility.yul\":7929:7933   */\n      dup3\n        /* \"#utility.yul\":7925:7939   */\n      sub\n        /* \"#utility.yul\":7918:7922   */\n      0x40\n        /* \"#utility.yul\":7913:7916   */\n      dup7\n        /* \"#utility.yul\":7909:7923   */\n      add\n        /* \"#utility.yul\":7902:7940   */\n      mstore\n        /* \"#utility.yul\":7961:8034   */\n      tag_261\n        /* \"#utility.yul\":8029:8033   */\n      dup3\n        /* \"#utility.yul\":8015:8027   */\n      dup3\n        /* \"#utility.yul\":7961:8034   */\n      tag_224\n      jump\t// in\n    tag_261:\n        /* \"#utility.yul\":7953:8034   */\n      swap2\n      pop\n        /* \"#utility.yul\":7807:8045   */\n      pop\n        /* \"#utility.yul\":8129:8133   */\n      0x60\n        /* \"#utility.yul\":8122:8127   */\n      dup4\n        /* \"#utility.yul\":8118:8134   */\n      add\n        /* \"#utility.yul\":8112:8135   */\n      mload\n        /* \"#utility.yul\":8148:8205   */\n      tag_262\n        /* \"#utility.yul\":8199:8203   */\n      0x60\n        /* \"#utility.yul\":8194:8197   */\n      dup7\n        /* \"#utility.yul\":8190:8204   */\n      add\n        /* \"#utility.yul\":8176:8188   */\n      dup3\n        /* \"#utility.yul\":8148:8205   */\n      tag_217\n      jump\t// in\n    tag_262:\n        /* \"#utility.yul\":8055:8215   */\n      pop\n        /* \"#utility.yul\":8232:8236   */\n      dup1\n        /* \"#utility.yul\":8225:8236   */\n      swap2\n      pop\n        /* \"#utility.yul\":7344:8242   */\n      pop\n        /* \"#utility.yul\":7230:8242   */\n      swap3\n      swap2\n      pop\n      pop\n      jump\t// out\n        /* \"#utility.yul\":8248:8356   */\n    tag_253:\n        /* \"#utility.yul\":8325:8349   */\n      tag_264\n        /* \"#utility.yul\":8343:8348   */\n      dup2\n        /* \"#utility.yul\":8325:8349   */\n      tag_265\n      jump\t// in\n    tag_264:\n        /* \"#utility.yul\":8320:8323   */\n      dup3\n        /* \"#utility.yul\":8313:8350   */\n      mstore\n        /* \"#utility.yul\":8248:8356   */\n      pop\n      pop\n      jump\t// out\n        /* \"#utility.yul\":8362:8480   */\n    tag_266:\n        /* \"#utility.yul\":8449:8473   */\n      tag_268\n        /* \"#utility.yul\":8467:8472   */\n      dup2\n        /* \"#utility.yul\":8449:8473   */\n      tag_265\n      jump\t// in\n    tag_268:\n        /* \"#utility.yul\":8444:8447   */\n      dup3\n        /* \"#utility.yul\":8437:8474   */\n      mstore\n        /* \"#utility.yul\":8362:8480   */\n      pop\n      pop\n      jump\t// out\n        /* \"#utility.yul\":8486:8939   */\n    tag_35:\n        /* \"#utility.yul\":8669:8673   */\n      0x00\n        /* \"#utility.yul\":8707:8709   */\n      0x20\n        /* \"#utility.yul\":8696:8705   */\n      dup3\n        /* \"#utility.yul\":8692:8710   */\n      add\n        /* \"#utility.yul\":8684:8710   */\n      swap1\n      pop\n        /* \"#utility.yul\":8756:8765   */\n      dup2\n        /* \"#utility.yul\":8750:8754   */\n      dup2\n        /* \"#utility.yul\":8746:8766   */\n      sub\n        /* \"#utility.yul\":8742:8743   */\n      0x00\n        /* \"#utility.yul\":8731:8740   */\n      dup4\n        /* \"#utility.yul\":8727:8744   */\n      add\n        /* \"#utility.yul\":8720:8767   */\n      mstore\n        /* \"#utility.yul\":8784:8932   */\n      tag_270\n        /* \"#utility.yul\":8927:8931   */\n      dup2\n        /* \"#utility.yul\":8918:8924   */\n      dup5\n        /* \"#utility.yul\":8784:8932   */\n      tag_203\n      jump\t// in\n    tag_270:\n        /* \"#utility.yul\":8776:8932   */\n      swap1\n      pop\n        /* \"#utility.yul\":8486:8939   */\n      swap3\n      swap2\n      pop\n      pop\n      jump\t// out\n        /* \"#utility.yul\":8945:9364   */\n    tag_116:\n        /* \"#utility.yul\":9111:9115   */\n      0x00\n        /* \"#utility.yul\":9149:9151   */\n      0x20\n        /* \"#utility.yul\":9138:9147   */\n      dup3\n        /* \"#utility.yul\":9134:9152   */\n      add\n        /* \"#utility.yul\":9126:9152   */\n      swap1\n      pop\n        /* \"#utility.yul\":9198:9207   */\n      dup2\n        /* \"#utility.yul\":9192:9196   */\n      dup2\n        /* \"#utility.yul\":9188:9208   */\n      sub\n        /* \"#utility.yul\":9184:9185   */\n      0x00\n        /* \"#utility.yul\":9173:9182   */\n      dup4\n        /* \"#utility.yul\":9169:9186   */\n      add\n        /* \"#utility.yul\":9162:9209   */\n      mstore\n        /* \"#utility.yul\":9226:9357   */\n      tag_272\n        /* \"#utility.yul\":9352:9356   */\n      dup2\n        /* \"#utility.yul\":9226:9357   */\n      tag_241\n      jump\t// in\n    tag_272:\n        /* \"#utility.yul\":9218:9357   */\n      swap1\n      pop\n        /* \"#utility.yul\":8945:9364   */\n      swap2\n      swap1\n      pop\n      jump\t// out\n        /* \"#utility.yul\":9370:9789   */\n    tag_70:\n        /* \"#utility.yul\":9536:9540   */\n      0x00\n        /* \"#utility.yul\":9574:9576   */\n      0x20\n        /* \"#utility.yul\":9563:9572   */\n      dup3\n        /* \"#utility.yul\":9559:9577   */\n      add\n        /* \"#utility.yul\":9551:9577   */\n      swap1\n      pop\n        /* \"#utility.yul\":9623:9632   */\n      dup2\n        /* \"#utility.yul\":9617:9621   */\n      dup2\n        /* \"#utility.yul\":9613:9633   */\n      sub\n        /* \"#utility.yul\":9609:9610   */\n      0x00\n        /* \"#utility.yul\":9598:9607   */\n      dup4\n        /* \"#utility.yul\":9594:9611   */\n      add\n        /* \"#utility.yul\":9587:9634   */\n      mstore\n        /* \"#utility.yul\":9651:9782   */\n      tag_274\n        /* \"#utility.yul\":9777:9781   */\n      dup2\n        /* \"#utility.yul\":9651:9782   */\n      tag_246\n      jump\t// in\n    tag_274:\n        /* \"#utility.yul\":9643:9782   */\n      swap1\n      pop\n        /* \"#utility.yul\":9370:9789   */\n      swap2\n      swap1\n      pop\n      jump\t// out\n        /* \"#utility.yul\":9795:10148   */\n    tag_43:\n        /* \"#utility.yul\":9928:9932   */\n      0x00\n        /* \"#utility.yul\":9966:9968   */\n      0x20\n        /* \"#utility.yul\":9955:9964   */\n      dup3\n        /* \"#utility.yul\":9951:9969   */\n      add\n        /* \"#utility.yul\":9943:9969   */\n      swap1\n      pop\n        /* \"#utility.yul\":10015:10024   */\n      dup2\n        /* \"#utility.yul\":10009:10013   */\n      dup2\n        /* \"#utility.yul\":10005:10025   */\n      sub\n        /* \"#utility.yul\":10001:10002   */\n      0x00\n        /* \"#utility.yul\":9990:9999   */\n      dup4\n        /* \"#utility.yul\":9986:10003   */\n      add\n        /* \"#utility.yul\":9979:10026   */\n      mstore\n        /* \"#utility.yul\":10043:10141   */\n      tag_276\n        /* \"#utility.yul\":10136:10140   */\n      dup2\n        /* \"#utility.yul\":10127:10133   */\n      dup5\n        /* \"#utility.yul\":10043:10141   */\n      tag_257\n      jump\t// in\n    tag_276:\n        /* \"#utility.yul\":10035:10141   */\n      swap1\n      pop\n        /* \"#utility.yul\":9795:10148   */\n      swap3\n      swap2\n      pop\n      pop\n      jump\t// out\n        /* \"#utility.yul\":10154:10376   */\n    tag_31:\n        /* \"#utility.yul\":10247:10251   */\n      0x00\n        /* \"#utility.yul\":10285:10287   */\n      0x20\n        /* \"#utility.yul\":10274:10283   */\n      dup3\n        /* \"#utility.yul\":10270:10288   */\n      add\n        /* \"#utility.yul\":10262:10288   */\n      swap1\n      pop\n        /* \"#utility.yul\":10298:10369   */\n      tag_278\n        /* \"#utility.yul\":10366:10367   */\n      0x00\n        /* \"#utility.yul\":10355:10364   */\n      dup4\n        /* \"#utility.yul\":10351:10368   */\n      add\n        /* \"#utility.yul\":10342:10348   */\n      dup5\n        /* \"#utility.yul\":10298:10369   */\n      tag_266\n      jump\t// in\n    tag_278:\n        /* \"#utility.yul\":10154:10376   */\n      swap3\n      swap2\n      pop\n      pop\n      jump\t// out\n        /* \"#utility.yul\":10382:11105   */\n    tag_21:\n        /* \"#utility.yul\":10593:10597   */\n      0x00\n        /* \"#utility.yul\":10631:10634   */\n      0x80\n        /* \"#utility.yul\":10620:10629   */\n      dup3\n        /* \"#utility.yul\":10616:10635   */\n      add\n        /* \"#utility.yul\":10608:10635   */\n      swap1\n      pop\n        /* \"#utility.yul\":10645:10716   */\n      tag_280\n        /* \"#utility.yul\":10713:10714   */\n      0x00\n        /* \"#utility.yul\":10702:10711   */\n      dup4\n        /* \"#utility.yul\":10698:10715   */\n      add\n        /* \"#utility.yul\":10689:10695   */\n      dup8\n        /* \"#utility.yul\":10645:10716   */\n      tag_266\n      jump\t// in\n    tag_280:\n        /* \"#utility.yul\":10763:10772   */\n      dup2\n        /* \"#utility.yul\":10757:10761   */\n      dup2\n        /* \"#utility.yul\":10753:10773   */\n      sub\n        /* \"#utility.yul\":10748:10750   */\n      0x20\n        /* \"#utility.yul\":10737:10746   */\n      dup4\n        /* \"#utility.yul\":10733:10751   */\n      add\n        /* \"#utility.yul\":10726:10774   */\n      mstore\n        /* \"#utility.yul\":10791:10869   */\n      tag_281\n        /* \"#utility.yul\":10864:10868   */\n      dup2\n        /* \"#utility.yul\":10855:10861   */\n      dup7\n        /* \"#utility.yul\":10791:10869   */\n      tag_234\n      jump\t// in\n    tag_281:\n        /* \"#utility.yul\":10783:10869   */\n      swap1\n      pop\n        /* \"#utility.yul\":10916:10925   */\n      dup2\n        /* \"#utility.yul\":10910:10914   */\n      dup2\n        /* \"#utility.yul\":10906:10926   */\n      sub\n        /* \"#utility.yul\":10901:10903   */\n      0x40\n        /* \"#utility.yul\":10890:10899   */\n      dup4\n        /* \"#utility.yul\":10886:10904   */\n      add\n        /* \"#utility.yul\":10879:10927   */\n      mstore\n        /* \"#utility.yul\":10944:11022   */\n      tag_282\n        /* \"#utility.yul\":11017:11021   */\n      dup2\n        /* \"#utility.yul\":11008:11014   */\n      dup6\n        /* \"#utility.yul\":10944:11022   */\n      tag_234\n      jump\t// in\n    tag_282:\n        /* \"#utility.yul\":10936:11022   */\n      swap1\n      pop\n        /* \"#utility.yul\":11032:11098   */\n      tag_283\n        /* \"#utility.yul\":11094:11096   */\n      0x60\n        /* \"#utility.yul\":11083:11092   */\n      dup4\n        /* \"#utility.yul\":11079:11097   */\n      add\n        /* \"#utility.yul\":11070:11076   */\n      dup5\n        /* \"#utility.yul\":11032:11098   */\n      tag_221\n      jump\t// in\n    tag_283:\n        /* \"#utility.yul\":10382:11105   */\n      swap6\n      swap5\n      pop\n      pop\n      pop\n      pop\n      pop\n      jump\t// out\n        /* \"#utility.yul\":11111:11240   */\n    tag_155:\n        /* \"#utility.yul\":11145:11151   */\n      0x00\n        /* \"#utility.yul\":11172:11192   */\n      tag_285\n      tag_286\n      jump\t// in\n    tag_285:\n        /* \"#utility.yul\":11162:11192   */\n      swap1\n      pop\n        /* \"#utility.yul\":11201:11234   */\n      tag_287\n        /* \"#utility.yul\":11229:11233   */\n      dup3\n        /* \"#utility.yul\":11221:11227   */\n      dup3\n        /* \"#utility.yul\":11201:11234   */\n      tag_288\n      jump\t// in\n    tag_287:\n        /* \"#utility.yul\":11111:11240   */\n      swap2\n      swap1\n      pop\n      jump\t// out\n        /* \"#utility.yul\":11246:11321   */\n    tag_286:\n        /* \"#utility.yul\":11279:11285   */\n      0x00\n        /* \"#utility.yul\":11312:11314   */\n      0x40\n        /* \"#utility.yul\":11306:11315   */\n      mload\n        /* \"#utility.yul\":11296:11315   */\n      swap1\n      pop\n        /* \"#utility.yul\":11246:11321   */\n      swap1\n      jump\t// out\n        /* \"#utility.yul\":11327:11635   */\n    tag_154:\n        /* \"#utility.yul\":11389:11393   */\n      0x00\n        /* \"#utility.yul\":11479:11497   */\n      0xffffffffffffffff\n        /* \"#utility.yul\":11471:11477   */\n      dup3\n        /* \"#utility.yul\":11468:11498   */\n      gt\n        /* \"#utility.yul\":11465:11521   */\n      iszero\n      tag_291\n      jumpi\n        /* \"#utility.yul\":11501:11519   */\n      tag_292\n      tag_84\n      jump\t// in\n    tag_292:\n        /* \"#utility.yul\":11465:11521   */\n    tag_291:\n        /* \"#utility.yul\":11539:11568   */\n      tag_293\n        /* \"#utility.yul\":11561:11567   */\n      dup3\n        /* \"#utility.yul\":11539:11568   */\n      tag_233\n      jump\t// in\n    tag_293:\n        /* \"#utility.yul\":11531:11568   */\n      swap1\n      pop\n        /* \"#utility.yul\":11623:11627   */\n      0x20\n        /* \"#utility.yul\":11617:11621   */\n      dup2\n        /* \"#utility.yul\":11613:11628   */\n      add\n        /* \"#utility.yul\":11605:11628   */\n      swap1\n      pop\n        /* \"#utility.yul\":11327:11635   */\n      swap2\n      swap1\n      pop\n      jump\t// out\n        /* \"#utility.yul\":11641:11793   */\n    tag_210:\n        /* \"#utility.yul\":11728:11732   */\n      0x00\n        /* \"#utility.yul\":11751:11754   */\n      dup2\n        /* \"#utility.yul\":11743:11754   */\n      swap1\n      pop\n        /* \"#utility.yul\":11781:11785   */\n      0x20\n        /* \"#utility.yul\":11776:11779   */\n      dup3\n        /* \"#utility.yul\":11772:11786   */\n      add\n        /* \"#utility.yul\":11764:11786   */\n      swap1\n      pop\n        /* \"#utility.yul\":11641:11793   */\n      swap2\n      swap1\n      pop\n      jump\t// out\n        /* \"#utility.yul\":11799:11933   */\n    tag_206:\n        /* \"#utility.yul\":11886:11892   */\n      0x00\n        /* \"#utility.yul\":11920:11925   */\n      dup2\n        /* \"#utility.yul\":11914:11926   */\n      mload\n        /* \"#utility.yul\":11904:11926   */\n      swap1\n      pop\n        /* \"#utility.yul\":11799:11933   */\n      swap2\n      swap1\n      pop\n      jump\t// out\n        /* \"#utility.yul\":11939:12038   */\n    tag_227:\n        /* \"#utility.yul\":11991:11997   */\n      0x00\n        /* \"#utility.yul\":12025:12030   */\n      dup2\n        /* \"#utility.yul\":12019:12031   */\n      mload\n        /* \"#utility.yul\":12009:12031   */\n      swap1\n      pop\n        /* \"#utility.yul\":11939:12038   */\n      swap2\n      swap1\n      pop\n      jump\t// out\n        /* \"#utility.yul\":12044:12177   */\n    tag_216:\n        /* \"#utility.yul\":12134:12138   */\n      0x00\n        /* \"#utility.yul\":12166:12170   */\n      0x20\n        /* \"#utility.yul\":12161:12164   */\n      dup3\n        /* \"#utility.yul\":12157:12171   */\n      add\n        /* \"#utility.yul\":12149:12171   */\n      swap1\n      pop\n        /* \"#utility.yul\":12044:12177   */\n      swap2\n      swap1\n      pop\n      jump\t// out\n        /* \"#utility.yul\":12183:12387   */\n    tag_208:\n        /* \"#utility.yul\":12302:12313   */\n      0x00\n        /* \"#utility.yul\":12336:12342   */\n      dup3\n        /* \"#utility.yul\":12331:12334   */\n      dup3\n        /* \"#utility.yul\":12324:12343   */\n      mstore\n        /* \"#utility.yul\":12376:12380   */\n      0x20\n        /* \"#utility.yul\":12371:12374   */\n      dup3\n        /* \"#utility.yul\":12367:12381   */\n      add\n        /* \"#utility.yul\":12352:12381   */\n      swap1\n      pop\n        /* \"#utility.yul\":12183:12387   */\n      swap3\n      swap2\n      pop\n      pop\n      jump\t// out\n        /* \"#utility.yul\":12393:12552   */\n    tag_229:\n        /* \"#utility.yul\":12467:12478   */\n      0x00\n        /* \"#utility.yul\":12501:12507   */\n      dup3\n        /* \"#utility.yul\":12496:12499   */\n      dup3\n        /* \"#utility.yul\":12489:12508   */\n      mstore\n        /* \"#utility.yul\":12541:12545   */\n      0x20\n        /* \"#utility.yul\":12536:12539   */\n      dup3\n        /* \"#utility.yul\":12532:12546   */\n      add\n        /* \"#utility.yul\":12517:12546   */\n      swap1\n      pop\n        /* \"#utility.yul\":12393:12552   */\n      swap3\n      swap2\n      pop\n      pop\n      jump\t// out\n        /* \"#utility.yul\":12558:12727   */\n    tag_238:\n        /* \"#utility.yul\":12642:12653   */\n      0x00\n        /* \"#utility.yul\":12676:12682   */\n      dup3\n        /* \"#utility.yul\":12671:12674   */\n      dup3\n        /* \"#utility.yul\":12664:12683   */\n      mstore\n        /* \"#utility.yul\":12716:12720   */\n      0x20\n        /* \"#utility.yul\":12711:12714   */\n      dup3\n        /* \"#utility.yul\":12707:12721   */\n      add\n        /* \"#utility.yul\":12692:12721   */\n      swap1\n      pop\n        /* \"#utility.yul\":12558:12727   */\n      swap3\n      swap2\n      pop\n      pop\n      jump\t// out\n        /* \"#utility.yul\":12733:12924   */\n    tag_73:\n        /* \"#utility.yul\":12773:12777   */\n      0x00\n        /* \"#utility.yul\":12793:12813   */\n      tag_302\n        /* \"#utility.yul\":12811:12812   */\n      dup3\n        /* \"#utility.yul\":12793:12813   */\n      tag_265\n      jump\t// in\n    tag_302:\n        /* \"#utility.yul\":12788:12813   */\n      swap2\n      pop\n        /* \"#utility.yul\":12827:12847   */\n      tag_303\n        /* \"#utility.yul\":12845:12846   */\n      dup4\n        /* \"#utility.yul\":12827:12847   */\n      tag_265\n      jump\t// in\n    tag_303:\n        /* \"#utility.yul\":12822:12847   */\n      swap3\n      pop\n        /* \"#utility.yul\":12866:12867   */\n      dup3\n        /* \"#utility.yul\":12863:12864   */\n      dup3\n        /* \"#utility.yul\":12860:12868   */\n      lt\n        /* \"#utility.yul\":12857:12891   */\n      iszero\n      tag_304\n      jumpi\n        /* \"#utility.yul\":12871:12889   */\n      tag_305\n      tag_306\n      jump\t// in\n    tag_305:\n        /* \"#utility.yul\":12857:12891   */\n    tag_304:\n        /* \"#utility.yul\":12916:12917   */\n      dup3\n        /* \"#utility.yul\":12913:12914   */\n      dup3\n        /* \"#utility.yul\":12909:12918   */\n      sub\n        /* \"#utility.yul\":12901:12918   */\n      swap1\n      pop\n        /* \"#utility.yul\":12733:12924   */\n      swap3\n      swap2\n      pop\n      pop\n      jump\t// out\n        /* \"#utility.yul\":12930:13026   */\n    tag_307:\n        /* \"#utility.yul\":12967:12974   */\n      0x00\n        /* \"#utility.yul\":12996:13020   */\n      tag_309\n        /* \"#utility.yul\":13014:13019   */\n      dup3\n        /* \"#utility.yul\":12996:13020   */\n      tag_310\n      jump\t// in\n    tag_309:\n        /* \"#utility.yul\":12985:13020   */\n      swap1\n      pop\n        /* \"#utility.yul\":12930:13026   */\n      swap2\n      swap1\n      pop\n      jump\t// out\n        /* \"#utility.yul\":13032:13122   */\n    tag_220:\n        /* \"#utility.yul\":13066:13073   */\n      0x00\n        /* \"#utility.yul\":13109:13114   */\n      dup2\n        /* \"#utility.yul\":13102:13115   */\n      iszero\n        /* \"#utility.yul\":13095:13116   */\n      iszero\n        /* \"#utility.yul\":13084:13116   */\n      swap1\n      pop\n        /* \"#utility.yul\":13032:13122   */\n      swap2\n      swap1\n      pop\n      jump\t// out\n        /* \"#utility.yul\":13128:13254   */\n    tag_310:\n        /* \"#utility.yul\":13165:13172   */\n      0x00\n        /* \"#utility.yul\":13205:13247   */\n      0xffffffffffffffffffffffffffffffffffffffff\n        /* \"#utility.yul\":13198:13203   */\n      dup3\n        /* \"#utility.yul\":13194:13248   */\n      and\n        /* \"#utility.yul\":13183:13248   */\n      swap1\n      pop\n        /* \"#utility.yul\":13128:13254   */\n      swap2\n      swap1\n      pop\n      jump\t// out\n        /* \"#utility.yul\":13260:13337   */\n    tag_265:\n        /* \"#utility.yul\":13297:13304   */\n      0x00\n        /* \"#utility.yul\":13326:13331   */\n      dup2\n        /* \"#utility.yul\":13315:13331   */\n      swap1\n      pop\n        /* \"#utility.yul\":13260:13337   */\n      swap2\n      swap1\n      pop\n      jump\t// out\n        /* \"#utility.yul\":13343:13497   */\n    tag_160:\n        /* \"#utility.yul\":13427:13433   */\n      dup3\n        /* \"#utility.yul\":13422:13425   */\n      dup2\n        /* \"#utility.yul\":13417:13420   */\n      dup4\n        /* \"#utility.yul\":13404:13434   */\n      calldatacopy\n        /* \"#utility.yul\":13489:13490   */\n      0x00\n        /* \"#utility.yul\":13480:13486   */\n      dup4\n        /* \"#utility.yul\":13475:13478   */\n      dup4\n        /* \"#utility.yul\":13471:13487   */\n      add\n        /* \"#utility.yul\":13464:13491   */\n      mstore\n        /* \"#utility.yul\":13343:13497   */\n      pop\n      pop\n      pop\n      jump\t// out\n        /* \"#utility.yul\":13503:13810   */\n    tag_231:\n        /* \"#utility.yul\":13571:13572   */\n      0x00\n        /* \"#utility.yul\":13581:13694   */\n    tag_316:\n        /* \"#utility.yul\":13595:13601   */\n      dup4\n        /* \"#utility.yul\":13592:13593   */\n      dup2\n        /* \"#utility.yul\":13589:13602   */\n      lt\n        /* \"#utility.yul\":13581:13694   */\n      iszero\n      tag_318\n      jumpi\n        /* \"#utility.yul\":13680:13681   */\n      dup1\n        /* \"#utility.yul\":13675:13678   */\n      dup3\n        /* \"#utility.yul\":13671:13682   */\n      add\n        /* \"#utility.yul\":13665:13683   */\n      mload\n        /* \"#utility.yul\":13661:13662   */\n      dup2\n        /* \"#utility.yul\":13656:13659   */\n      dup5\n        /* \"#utility.yul\":13652:13663   */\n      add\n        /* \"#utility.yul\":13645:13684   */\n      mstore\n        /* \"#utility.yul\":13617:13619   */\n      0x20\n        /* \"#utility.yul\":13614:13615   */\n      dup2\n        /* \"#utility.yul\":13610:13620   */\n      add\n        /* \"#utility.yul\":13605:13620   */\n      swap1\n      pop\n        /* \"#utility.yul\":13581:13694   */\n      jump(tag_316)\n    tag_318:\n        /* \"#utility.yul\":13712:13718   */\n      dup4\n        /* \"#utility.yul\":13709:13710   */\n      dup2\n        /* \"#utility.yul\":13706:13719   */\n      gt\n        /* \"#utility.yul\":13703:13804   */\n      iszero\n      tag_319\n      jumpi\n        /* \"#utility.yul\":13792:13793   */\n      0x00\n        /* \"#utility.yul\":13783:13789   */\n      dup5\n        /* \"#utility.yul\":13778:13781   */\n      dup5\n        /* \"#utility.yul\":13774:13790   */\n      add\n        /* \"#utility.yul\":13767:13794   */\n      mstore\n        /* \"#utility.yul\":13703:13804   */\n    tag_319:\n        /* \"#utility.yul\":13552:13810   */\n      pop\n        /* \"#utility.yul\":13503:13810   */\n      pop\n      pop\n      pop\n      jump\t// out\n        /* \"#utility.yul\":13816:14136   */\n    tag_57:\n        /* \"#utility.yul\":13860:13866   */\n      0x00\n        /* \"#utility.yul\":13897:13898   */\n      0x02\n        /* \"#utility.yul\":13891:13895   */\n      dup3\n        /* \"#utility.yul\":13887:13899   */\n      div\n        /* \"#utility.yul\":13877:13899   */\n      swap1\n      pop\n        /* \"#utility.yul\":13944:13945   */\n      0x01\n        /* \"#utility.yul\":13938:13942   */\n      dup3\n        /* \"#utility.yul\":13934:13946   */\n      and\n        /* \"#utility.yul\":13965:13983   */\n      dup1\n        /* \"#utility.yul\":13955:14036   */\n      tag_321\n      jumpi\n        /* \"#utility.yul\":14021:14025   */\n      0x7f\n        /* \"#utility.yul\":14013:14019   */\n      dup3\n        /* \"#utility.yul\":14009:14026   */\n      and\n        /* \"#utility.yul\":13999:14026   */\n      swap2\n      pop\n        /* \"#utility.yul\":13955:14036   */\n    tag_321:\n        /* \"#utility.yul\":14083:14085   */\n      0x20\n        /* \"#utility.yul\":14075:14081   */\n      dup3\n        /* \"#utility.yul\":14072:14086   */\n      lt\n        /* \"#utility.yul\":14052:14070   */\n      dup2\n        /* \"#utility.yul\":14049:14087   */\n      eq\n        /* \"#utility.yul\":14046:14130   */\n      iszero\n      tag_322\n      jumpi\n        /* \"#utility.yul\":14102:14120   */\n      tag_323\n      tag_324\n      jump\t// in\n    tag_323:\n        /* \"#utility.yul\":14046:14130   */\n    tag_322:\n        /* \"#utility.yul\":13867:14136   */\n      pop\n        /* \"#utility.yul\":13816:14136   */\n      swap2\n      swap1\n      pop\n      jump\t// out\n        /* \"#utility.yul\":14142:14423   */\n    tag_288:\n        /* \"#utility.yul\":14225:14252   */\n      tag_326\n        /* \"#utility.yul\":14247:14251   */\n      dup3\n        /* \"#utility.yul\":14225:14252   */\n      tag_233\n      jump\t// in\n    tag_326:\n        /* \"#utility.yul\":14217:14223   */\n      dup2\n        /* \"#utility.yul\":14213:14253   */\n      add\n        /* \"#utility.yul\":14355:14361   */\n      dup2\n        /* \"#utility.yul\":14343:14353   */\n      dup2\n        /* \"#utility.yul\":14340:14362   */\n      lt\n        /* \"#utility.yul\":14319:14337   */\n      0xffffffffffffffff\n        /* \"#utility.yul\":14307:14317   */\n      dup3\n        /* \"#utility.yul\":14304:14338   */\n      gt\n        /* \"#utility.yul\":14301:14363   */\n      or\n        /* \"#utility.yul\":14298:14386   */\n      iszero\n      tag_327\n      jumpi\n        /* \"#utility.yul\":14366:14384   */\n      tag_328\n      tag_84\n      jump\t// in\n    tag_328:\n        /* \"#utility.yul\":14298:14386   */\n    tag_327:\n        /* \"#utility.yul\":14406:14416   */\n      dup1\n        /* \"#utility.yul\":14402:14404   */\n      0x40\n        /* \"#utility.yul\":14395:14417   */\n      mstore\n        /* \"#utility.yul\":14185:14423   */\n      pop\n        /* \"#utility.yul\":14142:14423   */\n      pop\n      pop\n      jump\t// out\n        /* \"#utility.yul\":14429:14662   */\n    tag_49:\n        /* \"#utility.yul\":14468:14471   */\n      0x00\n        /* \"#utility.yul\":14491:14515   */\n      tag_330\n        /* \"#utility.yul\":14509:14514   */\n      dup3\n        /* \"#utility.yul\":14491:14515   */\n      tag_265\n      jump\t// in\n    tag_330:\n        /* \"#utility.yul\":14482:14515   */\n      swap2\n      pop\n        /* \"#utility.yul\":14537:14603   */\n      0xffffffffffffffffffffffffffffffffffffffffffffffffffffffffffffffff\n        /* \"#utility.yul\":14530:14535   */\n      dup3\n        /* \"#utility.yul\":14527:14604   */\n      eq\n        /* \"#utility.yul\":14524:14627   */\n      iszero\n      tag_331\n      jumpi\n        /* \"#utility.yul\":14607:14625   */\n      tag_332\n      tag_306\n      jump\t// in\n    tag_332:\n        /* \"#utility.yul\":14524:14627   */\n    tag_331:\n        /* \"#utility.yul\":14654:14655   */\n      0x01\n        /* \"#utility.yul\":14647:14652   */\n      dup3\n        /* \"#utility.yul\":14643:14656   */\n      add\n        /* \"#utility.yul\":14636:14656   */\n      swap1\n      pop\n        /* \"#utility.yul\":14429:14662   */\n      swap2\n      swap1\n      pop\n      jump\t// out\n        /* \"#utility.yul\":14668:14848   */\n    tag_306:\n        /* \"#utility.yul\":14716:14793   */\n      0x4e487b7100000000000000000000000000000000000000000000000000000000\n        /* \"#utility.yul\":14713:14714   */\n      0x00\n        /* \"#utility.yul\":14706:14794   */\n      mstore\n        /* \"#utility.yul\":14813:14817   */\n      0x11\n        /* \"#utility.yul\":14810:14811   */\n      0x04\n        /* \"#utility.yul\":14803:14818   */\n      mstore\n        /* \"#utility.yul\":14837:14841   */\n      0x24\n        /* \"#utility.yul\":14834:14835   */\n      0x00\n        /* \"#utility.yul\":14827:14842   */\n      revert\n        /* \"#utility.yul\":14854:15034   */\n    tag_324:\n        /* \"#utility.yul\":14902:14979   */\n      0x4e487b7100000000000000000000000000000000000000000000000000000000\n        /* \"#utility.yul\":14899:14900   */\n      0x00\n        /* \"#utility.yul\":14892:14980   */\n      mstore\n        /* \"#utility.yul\":14999:15003   */\n      0x22\n        /* \"#utility.yul\":14996:14997   */\n      0x04\n        /* \"#utility.yul\":14989:15004   */\n      mstore\n        /* \"#utility.yul\":15023:15027   */\n      0x24\n        /* \"#utility.yul\":15020:15021   */\n      0x00\n        /* \"#utility.yul\":15013:15028   */\n      revert\n        /* \"#utility.yul\":15040:15220   */\n    tag_76:\n        /* \"#utility.yul\":15088:15165   */\n      0x4e487b7100000000000000000000000000000000000000000000000000000000\n        /* \"#utility.yul\":15085:15086   */\n      0x00\n        /* \"#utility.yul\":15078:15166   */\n      mstore\n        /* \"#utility.yul\":15185:15189   */\n      0x32\n        /* \"#utility.yul\":15182:15183   */\n      0x04\n        /* \"#utility.yul\":15175:15190   */\n      mstore\n        /* \"#utility.yul\":15209:15213   */\n      0x24\n        /* \"#utility.yul\":15206:15207   */\n      0x00\n        /* \"#utility.yul\":15199:15214   */\n      revert\n        /* \"#utility.yul\":15226:15406   */\n    tag_84:\n        /* \"#utility.yul\":15274:15351   */\n      0x4e487b7100000000000000000000000000000000000000000000000000000000\n        /* \"#utility.yul\":15271:15272   */\n      0x00\n        /* \"#utility.yul\":15264:15352   */\n      mstore\n        /* \"#utility.yul\":15371:15375   */\n      0x41\n        /* \"#utility.yul\":15368:15369   */\n      0x04\n        /* \"#utility.yul\":15361:15376   */\n      mstore\n        /* \"#utility.yul\":15395:15399   */\n      0x24\n        /* \"#utility.yul\":15392:15393   */\n      0x00\n        /* \"#utility.yul\":15385:15400   */\n      revert\n        /* \"#utility.yul\":15412:15529   */\n    tag_169:\n        /* \"#utility.yul\":15521:15522   */\n      0x00\n        /* \"#utility.yul\":15518:15519   */\n      dup1\n        /* \"#utility.yul\":15511:15523   */\n      revert\n        /* \"#utility.yul\":15535:15652   */\n    tag_158:\n        /* \"#utility.yul\":15644:15645   */\n      0x00\n        /* \"#utility.yul\":15641:15642   */\n      dup1\n        /* \"#utility.yul\":15634:15646   */\n      revert\n        /* \"#utility.yul\":15658:15775   */\n    tag_190:\n        /* \"#utility.yul\":15767:15768   */\n      0x00\n        /* \"#utility.yul\":15764:15765   */\n      dup1\n        /* \"#utility.yul\":15757:15769   */\n      revert\n        /* \"#utility.yul\":15781:15898   */\n    tag_178:\n        /* \"#utility.yul\":15890:15891   */\n      0x00\n        /* \"#utility.yul\":15887:15888   */\n      dup1\n        /* \"#utility.yul\":15880:15892   */\n      revert\n        /* \"#utility.yul\":15904:16006   */\n    tag_233:\n        /* \"#utility.yul\":15945:15951   */\n      0x00\n        /* \"#utility.yul\":15996:15998   */\n      0x1f\n        /* \"#utility.yul\":15992:15999   */\n      not\n        /* \"#utility.yul\":15987:15989   */\n      0x1f\n        /* \"#utility.yul\":15980:15985   */\n      dup4\n        /* \"#utility.yul\":15976:15990   */\n      add\n        /* \"#utility.yul\":15972:16000   */\n      and\n        /* \"#utility.yul\":15962:16000   */\n      swap1\n      pop\n        /* \"#utility.yul\":15904:16006   */\n      swap2\n      swap1\n      pop\n      jump\t// out\n        /* \"#utility.yul\":16012:16192   */\n    tag_245:\n        /* \"#utility.yul\":16152:16184   */\n      0x546f646f20776974682063757272656e74204944206e6f7420666f756e640000\n        /* \"#utility.yul\":16148:16149   */\n      0x00\n        /* \"#utility.yul\":16140:16146   */\n      dup3\n        /* \"#utility.yul\":16136:16150   */\n      add\n        /* \"#utility.yul\":16129:16185   */\n      mstore\n        /* \"#utility.yul\":16012:16192   */\n      pop\n      jump\t// out\n        /* \"#utility.yul\":16198:16363   */\n    tag_250:\n        /* \"#utility.yul\":16338:16355   */\n      0x4e6f20746f646f7320666f756e642e0000000000000000000000000000000000\n        /* \"#utility.yul\":16334:16335   */\n      0x00\n        /* \"#utility.yul\":16326:16332   */\n      dup3\n        /* \"#utility.yul\":16322:16336   */\n      add\n        /* \"#utility.yul\":16315:16356   */\n      mstore\n        /* \"#utility.yul\":16198:16363   */\n      pop\n      jump\t// out\n        /* \"#utility.yul\":16369:16491   */\n    tag_164:\n        /* \"#utility.yul\":16442:16466   */\n      tag_345\n        /* \"#utility.yul\":16460:16465   */\n      dup2\n        /* \"#utility.yul\":16442:16466   */\n      tag_307\n      jump\t// in\n    tag_345:\n        /* \"#utility.yul\":16435:16440   */\n      dup2\n        /* \"#utility.yul\":16432:16467   */\n      eq\n        /* \"#utility.yul\":16422:16485   */\n      tag_346\n      jumpi\n        /* \"#utility.yul\":16481:16482   */\n      0x00\n        /* \"#utility.yul\":16478:16479   */\n      dup1\n        /* \"#utility.yul\":16471:16483   */\n      revert\n        /* \"#utility.yul\":16422:16485   */\n    tag_346:\n        /* \"#utility.yul\":16369:16491   */\n      pop\n      jump\t// out\n        /* \"#utility.yul\":16497:16619   */\n    tag_174:\n        /* \"#utility.yul\":16570:16594   */\n      tag_348\n        /* \"#utility.yul\":16588:16593   */\n      dup2\n        /* \"#utility.yul\":16570:16594   */\n      tag_265\n      jump\t// in\n    tag_348:\n        /* \"#utility.yul\":16563:16568   */\n      dup2\n        /* \"#utility.yul\":16560:16595   */\n      eq\n        /* \"#utility.yul\":16550:16613   */\n      tag_349\n      jumpi\n        /* \"#utility.yul\":16609:16610   */\n      0x00\n        /* \"#utility.yul\":16606:16607   */\n      dup1\n        /* \"#utility.yul\":16599:16611   */\n      revert\n        /* \"#utility.yul\":16550:16613   */\n    tag_349:\n        /* \"#utility.yul\":16497:16619   */\n      pop\n      jump\t// out\n\n    auxdata: 0xa2646970667358221220491ea355965a2091a2d6b75e269a68820be8477401be5fb6250df6ba303352f764736f6c63430008070033\n}\n",
				"bytecode": {
					"linkReferences": {},
					"object": "608060405234801561001057600080fd5b506116b2806100206000396000f3fe608060405234801561001057600080fd5b50600436106100885760003560e01c8063ce2bd5d51161005b578063ce2bd5d514610128578063d321fe2914610146578063dd68afb614610164578063fc5049f11461019457610088565b80631b7fb2601461008d578063428c1889146100a957806362969ff7146100dc578063c12327b8146100f8575b600080fd5b6100a760048036038101906100a29190610f0d565b6101b0565b005b6100c360048036038101906100be9190610ecd565b610339565b6040516100d394939291906112a2565b60405180910390f35b6100f660048036038101906100f19190610f85565b6104a3565b005b610112600480360381019061010d9190610ea0565b6105ae565b60405161011f9190611287565b60405180910390f35b6101306105c6565b60405161013d9190611203565b60405180910390f35b61014e610916565b60405161015b9190611287565b60405180910390f35b61017e60048036038101906101799190610f85565b61095d565b60405161018b9190611265565b60405180910390f35b6101ae60048036038101906101a99190610f85565b610c2e565b005b600160003373ffffffffffffffffffffffffffffffffffffffff1673ffffffffffffffffffffffffffffffffffffffff1681526020019081526020016000206000815480929190610200906114d2565b91905055506000803373ffffffffffffffffffffffffffffffffffffffff1673ffffffffffffffffffffffffffffffffffffffff1681526020019081526020016000206040518060800160405280600160003373ffffffffffffffffffffffffffffffffffffffff1673ffffffffffffffffffffffffffffffffffffffff1681526020019081526020016000205481526020018481526020018381526020016000151581525090806001815401808255809150506001900390600052602060002090600402016000909190919091506000820151816000015560208201518160010190805190602001906102f5929190610d39565b506040820151816002019080519060200190610312929190610d39565b5060608201518160030160006101000a81548160ff02191690831515021790555050505050565b6000602052816000526040600020818154811061035557600080fd5b90600052602060002090600402016000915091505080600001549080600101805461037f9061146f565b80601f01602080910402602001604051908101604052809291908181526020018280546103ab9061146f565b80156103f85780601f106103cd576101008083540402835291602001916103f8565b820191906000526020600020905b8154815290600101906020018083116103db57829003601f168201915b50505050509080600201805461040d9061146f565b80601f01602080910402602001604051908101604052809291908181526020018280546104399061146f565b80156104865780601f1061045b57610100808354040283529160200191610486565b820191906000526020600020905b81548152906001019060200180831161046957829003601f168201915b5050505050908060030160009054906101000a900460ff16905084565b6000600160003373ffffffffffffffffffffffffffffffffffffffff1673ffffffffffffffffffffffffffffffffffffffff1681526020019081526020016000205411610525576040517f08c379a000000000000000000000000000000000000000000000000000000000815260040161051c90611245565b60405180910390fd5b60008060003373ffffffffffffffffffffffffffffffffffffffff1673ffffffffffffffffffffffffffffffffffffffff16815260200190815260200160002060018361057291906113b1565b8154811061058357610582611579565b5b906000526020600020906004020160030160006101000a81548160ff02191690831515021790555050565b60016020528060005260406000206000915090505481565b60606000600160003373ffffffffffffffffffffffffffffffffffffffff1673ffffffffffffffffffffffffffffffffffffffff168152602001908152602001600020541161064a576040517f08c379a000000000000000000000000000000000000000000000000000000000815260040161064190611245565b60405180910390fd5b6000600160003373ffffffffffffffffffffffffffffffffffffffff1673ffffffffffffffffffffffffffffffffffffffff1681526020019081526020016000205467ffffffffffffffff8111156106a5576106a46115a8565b5b6040519080825280602002602001820160405280156106de57816020015b6106cb610dbf565b8152602001906001900390816106c35790505b50905060005b600160003373ffffffffffffffffffffffffffffffffffffffff1673ffffffffffffffffffffffffffffffffffffffff1681526020019081526020016000205481101561090e576000803373ffffffffffffffffffffffffffffffffffffffff1673ffffffffffffffffffffffffffffffffffffffff168152602001908152602001600020818154811061077b5761077a611579565b5b9060005260206000209060040201604051806080016040529081600082015481526020016001820180546107ae9061146f565b80601f01602080910402602001604051908101604052809291908181526020018280546107da9061146f565b80156108275780601f106107fc57610100808354040283529160200191610827565b820191906000526020600020905b81548152906001019060200180831161080a57829003601f168201915b505050505081526020016002820180546108409061146f565b80601f016020809104026020016040519081016040528092919081815260200182805461086c9061146f565b80156108b95780601f1061088e576101008083540402835291602001916108b9565b820191906000526020600020905b81548152906001019060200180831161089c57829003601f168201915b505050505081526020016003820160009054906101000a900460ff1615151515815250508282815181106108f0576108ef611579565b5b60200260200101819052508080610906906114d2565b9150506106e4565b508091505090565b6000600160003373ffffffffffffffffffffffffffffffffffffffff1673ffffffffffffffffffffffffffffffffffffffff16815260200190815260200160002054905090565b610965610dbf565b6000600160003373ffffffffffffffffffffffffffffffffffffffff1673ffffffffffffffffffffffffffffffffffffffff16815260200190815260200160002054116109e7576040517f08c379a00000000000000000000000000000000000000000000000000000000081526004016109de90611245565b60405180910390fd5b600160003373ffffffffffffffffffffffffffffffffffffffff1673ffffffffffffffffffffffffffffffffffffffff16815260200190815260200160002054821115610a69576040517f08c379a0000000000000000000000000000000000000000000000000000000008152600401610a6090611225565b60405180910390fd5b6000803373ffffffffffffffffffffffffffffffffffffffff1673ffffffffffffffffffffffffffffffffffffffff168152602001908152602001600020600183610ab491906113b1565b81548110610ac557610ac4611579565b5b906000526020600020906004020160405180608001604052908160008201548152602001600182018054610af89061146f565b80601f0160208091040260200160405190810160405280929190818152602001828054610b249061146f565b8015610b715780601f10610b4657610100808354040283529160200191610b71565b820191906000526020600020905b815481529060010190602001808311610b5457829003601f168201915b50505050508152602001600282018054610b8a9061146f565b80601f0160208091040260200160405190810160405280929190818152602001828054610bb69061146f565b8015610c035780601f10610bd857610100808354040283529160200191610c03565b820191906000526020600020905b815481529060010190602001808311610be657829003601f168201915b505050505081526020016003820160009054906101000a900460ff1615151515815250509050919050565b6000600160003373ffffffffffffffffffffffffffffffffffffffff1673ffffffffffffffffffffffffffffffffffffffff1681526020019081526020016000205411610cb0576040517f08c379a0000000000000000000000000000000000000000000000000000000008152600401610ca790611245565b60405180910390fd5b60016000803373ffffffffffffffffffffffffffffffffffffffff1673ffffffffffffffffffffffffffffffffffffffff168152602001908152602001600020600183610cfd91906113b1565b81548110610d0e57610d0d611579565b5b906000526020600020906004020160030160006101000a81548160ff02191690831515021790555050565b828054610d459061146f565b90600052602060002090601f016020900481019282610d675760008555610dae565b82601f10610d8057805160ff1916838001178555610dae565b82800160010185558215610dae579182015b82811115610dad578251825591602001919060010190610d92565b5b509050610dbb9190610de9565b5090565b60405180608001604052806000815260200160608152602001606081526020016000151581525090565b5b80821115610e02576000816000905550600101610dea565b5090565b6000610e19610e148461131a565b6112f5565b905082815260208101848484011115610e3557610e346115dc565b5b610e4084828561142d565b509392505050565b600081359050610e578161164e565b92915050565b600082601f830112610e7257610e716115d7565b5b8135610e82848260208601610e06565b91505092915050565b600081359050610e9a81611665565b92915050565b600060208284031215610eb657610eb56115e6565b5b6000610ec484828501610e48565b91505092915050565b60008060408385031215610ee457610ee36115e6565b5b6000610ef285828601610e48565b9250506020610f0385828601610e8b565b9150509250929050565b60008060408385031215610f2457610f236115e6565b5b600083013567ffffffffffffffff811115610f4257610f416115e1565b5b610f4e85828601610e5d565b925050602083013567ffffffffffffffff811115610f6f57610f6e6115e1565b5b610f7b85828601610e5d565b9150509250929050565b600060208284031215610f9b57610f9a6115e6565b5b6000610fa984828501610e8b565b91505092915050565b6000610fbe8383611111565b905092915050565b6000610fd18261135b565b610fdb818561137e565b935083602082028501610fed8561134b565b8060005b85811015611029578484038952815161100a8582610fb2565b945061101583611371565b925060208a01995050600181019050610ff1565b50829750879550505050505092915050565b611044816113f7565b82525050565b611053816113f7565b82525050565b600061106482611366565b61106e818561138f565b935061107e81856020860161143c565b611087816115eb565b840191505092915050565b600061109d82611366565b6110a781856113a0565b93506110b781856020860161143c565b6110c0816115eb565b840191505092915050565b60006110d8601e836113a0565b91506110e3826115fc565b602082019050919050565b60006110fb600f836113a0565b915061110682611625565b602082019050919050565b600060808301600083015161112960008601826111e5565b50602083015184820360208601526111418282611059565b9150506040830151848203604086015261115b8282611059565b9150506060830151611170606086018261103b565b508091505092915050565b600060808301600083015161119360008601826111e5565b50602083015184820360208601526111ab8282611059565b915050604083015184820360408601526111c58282611059565b91505060608301516111da606086018261103b565b508091505092915050565b6111ee81611423565b82525050565b6111fd81611423565b82525050565b6000602082019050818103600083015261121d8184610fc6565b905092915050565b6000602082019050818103600083015261123e816110cb565b9050919050565b6000602082019050818103600083015261125e816110ee565b9050919050565b6000602082019050818103600083015261127f818461117b565b905092915050565b600060208201905061129c60008301846111f4565b92915050565b60006080820190506112b760008301876111f4565b81810360208301526112c98186611092565b905081810360408301526112dd8185611092565b90506112ec606083018461104a565b95945050505050565b60006112ff611310565b905061130b82826114a1565b919050565b6000604051905090565b600067ffffffffffffffff821115611335576113346115a8565b5b61133e826115eb565b9050602081019050919050565b6000819050602082019050919050565b600081519050919050565b600081519050919050565b6000602082019050919050565b600082825260208201905092915050565b600082825260208201905092915050565b600082825260208201905092915050565b60006113bc82611423565b91506113c783611423565b9250828210156113da576113d961151b565b5b828203905092915050565b60006113f082611403565b9050919050565b60008115159050919050565b600073ffffffffffffffffffffffffffffffffffffffff82169050919050565b6000819050919050565b82818337600083830152505050565b60005b8381101561145a57808201518184015260208101905061143f565b83811115611469576000848401525b50505050565b6000600282049050600182168061148757607f821691505b6020821081141561149b5761149a61154a565b5b50919050565b6114aa826115eb565b810181811067ffffffffffffffff821117156114c9576114c86115a8565b5b80604052505050565b60006114dd82611423565b91507fffffffffffffffffffffffffffffffffffffffffffffffffffffffffffffffff8214156115105761150f61151b565b5b600182019050919050565b7f4e487b7100000000000000000000000000000000000000000000000000000000600052601160045260246000fd5b7f4e487b7100000000000000000000000000000000000000000000000000000000600052602260045260246000fd5b7f4e487b7100000000000000000000000000000000000000000000000000000000600052603260045260246000fd5b7f4e487b7100000000000000000000000000000000000000000000000000000000600052604160045260246000fd5b600080fd5b600080fd5b600080fd5b600080fd5b6000601f19601f8301169050919050565b7f546f646f20776974682063757272656e74204944206e6f7420666f756e640000600082015250565b7f4e6f20746f646f7320666f756e642e0000000000000000000000000000000000600082015250565b611657816113e5565b811461166257600080fd5b50565b61166e81611423565b811461167957600080fd5b5056fea2646970667358221220491ea355965a2091a2d6b75e269a68820be8477401be5fb6250df6ba303352f764736f6c63430008070033",
					"opcodes": "PUSH1 0x80 PUSH1 0x40 MSTORE CALLVALUE DUP1 ISZERO PUSH2 0x10 JUMPI PUSH1 0x0 DUP1 REVERT JUMPDEST POP PUSH2 0x16B2 DUP1 PUSH2 0x20 PUSH1 0x0 CODECOPY PUSH1 0x0 RETURN INVALID PUSH1 0x80 PUSH1 0x40 MSTORE CALLVALUE DUP1 ISZERO PUSH2 0x10 JUMPI PUSH1 0x0 DUP1 REVERT JUMPDEST POP PUSH1 0x4 CALLDATASIZE LT PUSH2 0x88 JUMPI PUSH1 0x0 CALLDATALOAD PUSH1 0xE0 SHR DUP1 PUSH4 0xCE2BD5D5 GT PUSH2 0x5B JUMPI DUP1 PUSH4 0xCE2BD5D5 EQ PUSH2 0x128 JUMPI DUP1 PUSH4 0xD321FE29 EQ PUSH2 0x146 JUMPI DUP1 PUSH4 0xDD68AFB6 EQ PUSH2 0x164 JUMPI DUP1 PUSH4 0xFC5049F1 EQ PUSH2 0x194 JUMPI PUSH2 0x88 JUMP JUMPDEST DUP1 PUSH4 0x1B7FB260 EQ PUSH2 0x8D JUMPI DUP1 PUSH4 0x428C1889 EQ PUSH2 0xA9 JUMPI DUP1 PUSH4 0x62969FF7 EQ PUSH2 0xDC JUMPI DUP1 PUSH4 0xC12327B8 EQ PUSH2 0xF8 JUMPI JUMPDEST PUSH1 0x0 DUP1 REVERT JUMPDEST PUSH2 0xA7 PUSH1 0x4 DUP1 CALLDATASIZE SUB DUP2 ADD SWAP1 PUSH2 0xA2 SWAP2 SWAP1 PUSH2 0xF0D JUMP JUMPDEST PUSH2 0x1B0 JUMP JUMPDEST STOP JUMPDEST PUSH2 0xC3 PUSH1 0x4 DUP1 CALLDATASIZE SUB DUP2 ADD SWAP1 PUSH2 0xBE SWAP2 SWAP1 PUSH2 0xECD JUMP JUMPDEST PUSH2 0x339 JUMP JUMPDEST PUSH1 0x40 MLOAD PUSH2 0xD3 SWAP5 SWAP4 SWAP3 SWAP2 SWAP1 PUSH2 0x12A2 JUMP JUMPDEST PUSH1 0x40 MLOAD DUP1 SWAP2 SUB SWAP1 RETURN JUMPDEST PUSH2 0xF6 PUSH1 0x4 DUP1 CALLDATASIZE SUB DUP2 ADD SWAP1 PUSH2 0xF1 SWAP2 SWAP1 PUSH2 0xF85 JUMP JUMPDEST PUSH2 0x4A3 JUMP JUMPDEST STOP JUMPDEST PUSH2 0x112 PUSH1 0x4 DUP1 CALLDATASIZE SUB DUP2 ADD SWAP1 PUSH2 0x10D SWAP2 SWAP1 PUSH2 0xEA0 JUMP JUMPDEST PUSH2 0x5AE JUMP JUMPDEST PUSH1 0x40 MLOAD PUSH2 0x11F SWAP2 SWAP1 PUSH2 0x1287 JUMP JUMPDEST PUSH1 0x40 MLOAD DUP1 SWAP2 SUB SWAP1 RETURN JUMPDEST PUSH2 0x130 PUSH2 0x5C6 JUMP JUMPDEST PUSH1 0x40 MLOAD PUSH2 0x13D SWAP2 SWAP1 PUSH2 0x1203 JUMP JUMPDEST PUSH1 0x40 MLOAD DUP1 SWAP2 SUB SWAP1 RETURN JUMPDEST PUSH2 0x14E PUSH2 0x916 JUMP JUMPDEST PUSH1 0x40 MLOAD PUSH2 0x15B SWAP2 SWAP1 PUSH2 0x1287 JUMP JUMPDEST PUSH1 0x40 MLOAD DUP1 SWAP2 SUB SWAP1 RETURN JUMPDEST PUSH2 0x17E PUSH1 0x4 DUP1 CALLDATASIZE SUB DUP2 ADD SWAP1 PUSH2 0x179 SWAP2 SWAP1 PUSH2 0xF85 JUMP JUMPDEST PUSH2 0x95D JUMP JUMPDEST PUSH1 0x40 MLOAD PUSH2 0x18B SWAP2 SWAP1 PUSH2 0x1265 JUMP JUMPDEST PUSH1 0x40 MLOAD DUP1 SWAP2 SUB SWAP1 RETURN JUMPDEST PUSH2 0x1AE PUSH1 0x4 DUP1 CALLDATASIZE SUB DUP2 ADD SWAP1 PUSH2 0x1A9 SWAP2 SWAP1 PUSH2 0xF85 JUMP JUMPDEST PUSH2 0xC2E JUMP JUMPDEST STOP JUMPDEST PUSH1 0x1 PUSH1 0x0 CALLER PUSH20 0xFFFFFFFFFFFFFFFFFFFFFFFFFFFFFFFFFFFFFFFF AND PUSH20 0xFFFFFFFFFFFFFFFFFFFFFFFFFFFFFFFFFFFFFFFF AND DUP2 MSTORE PUSH1 0x20 ADD SWAP1 DUP2 MSTORE PUSH1 0x20 ADD PUSH1 0x0 KECCAK256 PUSH1 0x0 DUP2 SLOAD DUP1 SWAP3 SWAP2 SWAP1 PUSH2 0x200 SWAP1 PUSH2 0x14D2 JUMP JUMPDEST SWAP2 SWAP1 POP SSTORE POP PUSH1 0x0 DUP1 CALLER PUSH20 0xFFFFFFFFFFFFFFFFFFFFFFFFFFFFFFFFFFFFFFFF AND PUSH20 0xFFFFFFFFFFFFFFFFFFFFFFFFFFFFFFFFFFFFFFFF AND DUP2 MSTORE PUSH1 0x20 ADD SWAP1 DUP2 MSTORE PUSH1 0x20 ADD PUSH1 0x0 KECCAK256 PUSH1 0x40 MLOAD DUP1 PUSH1 0x80 ADD PUSH1 0x40 MSTORE DUP1 PUSH1 0x1 PUSH1 0x0 CALLER PUSH20 0xFFFFFFFFFFFFFFFFFFFFFFFFFFFFFFFFFFFFFFFF AND PUSH20 0xFFFFFFFFFFFFFFFFFFFFFFFFFFFFFFFFFFFFFFFF AND DUP2 MSTORE PUSH1 0x20 ADD SWAP1 DUP2 MSTORE PUSH1 0x20 ADD PUSH1 0x0 KECCAK256 SLOAD DUP2 MSTORE PUSH1 0x20 ADD DUP5 DUP2 MSTORE PUSH1 0x20 ADD DUP4 DUP2 MSTORE PUSH1 0x20 ADD PUSH1 0x0 ISZERO ISZERO DUP2 MSTORE POP SWAP1 DUP1 PUSH1 0x1 DUP2 SLOAD ADD DUP1 DUP3 SSTORE DUP1 SWAP2 POP POP PUSH1 0x1 SWAP1 SUB SWAP1 PUSH1 0x0 MSTORE PUSH1 0x20 PUSH1 0x0 KECCAK256 SWAP1 PUSH1 0x4 MUL ADD PUSH1 0x0 SWAP1 SWAP2 SWAP1 SWAP2 SWAP1 SWAP2 POP PUSH1 0x0 DUP3 ADD MLOAD DUP2 PUSH1 0x0 ADD SSTORE PUSH1 0x20 DUP3 ADD MLOAD DUP2 PUSH1 0x1 ADD SWAP1 DUP1 MLOAD SWAP1 PUSH1 0x20 ADD SWAP1 PUSH2 0x2F5 SWAP3 SWAP2 SWAP1 PUSH2 0xD39 JUMP JUMPDEST POP PUSH1 0x40 DUP3 ADD MLOAD DUP2 PUSH1 0x2 ADD SWAP1 DUP1 MLOAD SWAP1 PUSH1 0x20 ADD SWAP1 PUSH2 0x312 SWAP3 SWAP2 SWAP1 PUSH2 0xD39 JUMP JUMPDEST POP PUSH1 0x60 DUP3 ADD MLOAD DUP2 PUSH1 0x3 ADD PUSH1 0x0 PUSH2 0x100 EXP DUP2 SLOAD DUP2 PUSH1 0xFF MUL NOT AND SWAP1 DUP4 ISZERO ISZERO MUL OR SWAP1 SSTORE POP POP POP POP POP JUMP JUMPDEST PUSH1 0x0 PUSH1 0x20 MSTORE DUP2 PUSH1 0x0 MSTORE PUSH1 0x40 PUSH1 0x0 KECCAK256 DUP2 DUP2 SLOAD DUP2 LT PUSH2 0x355 JUMPI PUSH1 0x0 DUP1 REVERT JUMPDEST SWAP1 PUSH1 0x0 MSTORE PUSH1 0x20 PUSH1 0x0 KECCAK256 SWAP1 PUSH1 0x4 MUL ADD PUSH1 0x0 SWAP2 POP SWAP2 POP POP DUP1 PUSH1 0x0 ADD SLOAD SWAP1 DUP1 PUSH1 0x1 ADD DUP1 SLOAD PUSH2 0x37F SWAP1 PUSH2 0x146F JUMP JUMPDEST DUP1 PUSH1 0x1F ADD PUSH1 0x20 DUP1 SWAP2 DIV MUL PUSH1 0x20 ADD PUSH1 0x40 MLOAD SWAP1 DUP2 ADD PUSH1 0x40 MSTORE DUP1 SWAP3 SWAP2 SWAP1 DUP2 DUP2 MSTORE PUSH1 0x20 ADD DUP3 DUP1 SLOAD PUSH2 0x3AB SWAP1 PUSH2 0x146F JUMP JUMPDEST DUP1 ISZERO PUSH2 0x3F8 JUMPI DUP1 PUSH1 0x1F LT PUSH2 0x3CD JUMPI PUSH2 0x100 DUP1 DUP4 SLOAD DIV MUL DUP4 MSTORE SWAP2 PUSH1 0x20 ADD SWAP2 PUSH2 0x3F8 JUMP JUMPDEST DUP3 ADD SWAP2 SWAP1 PUSH1 0x0 MSTORE PUSH1 0x20 PUSH1 0x0 KECCAK256 SWAP1 JUMPDEST DUP2 SLOAD DUP2 MSTORE SWAP1 PUSH1 0x1 ADD SWAP1 PUSH1 0x20 ADD DUP1 DUP4 GT PUSH2 0x3DB JUMPI DUP3 SWAP1 SUB PUSH1 0x1F AND DUP3 ADD SWAP2 JUMPDEST POP POP POP POP POP SWAP1 DUP1 PUSH1 0x2 ADD DUP1 SLOAD PUSH2 0x40D SWAP1 PUSH2 0x146F JUMP JUMPDEST DUP1 PUSH1 0x1F ADD PUSH1 0x20 DUP1 SWAP2 DIV MUL PUSH1 0x20 ADD PUSH1 0x40 MLOAD SWAP1 DUP2 ADD PUSH1 0x40 MSTORE DUP1 SWAP3 SWAP2 SWAP1 DUP2 DUP2 MSTORE PUSH1 0x20 ADD DUP3 DUP1 SLOAD PUSH2 0x439 SWAP1 PUSH2 0x146F JUMP JUMPDEST DUP1 ISZERO PUSH2 0x486 JUMPI DUP1 PUSH1 0x1F LT PUSH2 0x45B JUMPI PUSH2 0x100 DUP1 DUP4 SLOAD DIV MUL DUP4 MSTORE SWAP2 PUSH1 0x20 ADD SWAP2 PUSH2 0x486 JUMP JUMPDEST DUP3 ADD SWAP2 SWAP1 PUSH1 0x0 MSTORE PUSH1 0x20 PUSH1 0x0 KECCAK256 SWAP1 JUMPDEST DUP2 SLOAD DUP2 MSTORE SWAP1 PUSH1 0x1 ADD SWAP1 PUSH1 0x20 ADD DUP1 DUP4 GT PUSH2 0x469 JUMPI DUP3 SWAP1 SUB PUSH1 0x1F AND DUP3 ADD SWAP2 JUMPDEST POP POP POP POP POP SWAP1 DUP1 PUSH1 0x3 ADD PUSH1 0x0 SWAP1 SLOAD SWAP1 PUSH2 0x100 EXP SWAP1 DIV PUSH1 0xFF AND SWAP1 POP DUP5 JUMP JUMPDEST PUSH1 0x0 PUSH1 0x1 PUSH1 0x0 CALLER PUSH20 0xFFFFFFFFFFFFFFFFFFFFFFFFFFFFFFFFFFFFFFFF AND PUSH20 0xFFFFFFFFFFFFFFFFFFFFFFFFFFFFFFFFFFFFFFFF AND DUP2 MSTORE PUSH1 0x20 ADD SWAP1 DUP2 MSTORE PUSH1 0x20 ADD PUSH1 0x0 KECCAK256 SLOAD GT PUSH2 0x525 JUMPI PUSH1 0x40 MLOAD PUSH32 0x8C379A000000000000000000000000000000000000000000000000000000000 DUP2 MSTORE PUSH1 0x4 ADD PUSH2 0x51C SWAP1 PUSH2 0x1245 JUMP JUMPDEST PUSH1 0x40 MLOAD DUP1 SWAP2 SUB SWAP1 REVERT JUMPDEST PUSH1 0x0 DUP1 PUSH1 0x0 CALLER PUSH20 0xFFFFFFFFFFFFFFFFFFFFFFFFFFFFFFFFFFFFFFFF AND PUSH20 0xFFFFFFFFFFFFFFFFFFFFFFFFFFFFFFFFFFFFFFFF AND DUP2 MSTORE PUSH1 0x20 ADD SWAP1 DUP2 MSTORE PUSH1 0x20 ADD PUSH1 0x0 KECCAK256 PUSH1 0x1 DUP4 PUSH2 0x572 SWAP2 SWAP1 PUSH2 0x13B1 JUMP JUMPDEST DUP2 SLOAD DUP2 LT PUSH2 0x583 JUMPI PUSH2 0x582 PUSH2 0x1579 JUMP JUMPDEST JUMPDEST SWAP1 PUSH1 0x0 MSTORE PUSH1 0x20 PUSH1 0x0 KECCAK256 SWAP1 PUSH1 0x4 MUL ADD PUSH1 0x3 ADD PUSH1 0x0 PUSH2 0x100 EXP DUP2 SLOAD DUP2 PUSH1 0xFF MUL NOT AND SWAP1 DUP4 ISZERO ISZERO MUL OR SWAP1 SSTORE POP POP JUMP JUMPDEST PUSH1 0x1 PUSH1 0x20 MSTORE DUP1 PUSH1 0x0 MSTORE PUSH1 0x40 PUSH1 0x0 KECCAK256 PUSH1 0x0 SWAP2 POP SWAP1 POP SLOAD DUP2 JUMP JUMPDEST PUSH1 0x60 PUSH1 0x0 PUSH1 0x1 PUSH1 0x0 CALLER PUSH20 0xFFFFFFFFFFFFFFFFFFFFFFFFFFFFFFFFFFFFFFFF AND PUSH20 0xFFFFFFFFFFFFFFFFFFFFFFFFFFFFFFFFFFFFFFFF AND DUP2 MSTORE PUSH1 0x20 ADD SWAP1 DUP2 MSTORE PUSH1 0x20 ADD PUSH1 0x0 KECCAK256 SLOAD GT PUSH2 0x64A JUMPI PUSH1 0x40 MLOAD PUSH32 0x8C379A000000000000000000000000000000000000000000000000000000000 DUP2 MSTORE PUSH1 0x4 ADD PUSH2 0x641 SWAP1 PUSH2 0x1245 JUMP JUMPDEST PUSH1 0x40 MLOAD DUP1 SWAP2 SUB SWAP1 REVERT JUMPDEST PUSH1 0x0 PUSH1 0x1 PUSH1 0x0 CALLER PUSH20 0xFFFFFFFFFFFFFFFFFFFFFFFFFFFFFFFFFFFFFFFF AND PUSH20 0xFFFFFFFFFFFFFFFFFFFFFFFFFFFFFFFFFFFFFFFF AND DUP2 MSTORE PUSH1 0x20 ADD SWAP1 DUP2 MSTORE PUSH1 0x20 ADD PUSH1 0x0 KECCAK256 SLOAD PUSH8 0xFFFFFFFFFFFFFFFF DUP2 GT ISZERO PUSH2 0x6A5 JUMPI PUSH2 0x6A4 PUSH2 0x15A8 JUMP JUMPDEST JUMPDEST PUSH1 0x40 MLOAD SWAP1 DUP1 DUP3 MSTORE DUP1 PUSH1 0x20 MUL PUSH1 0x20 ADD DUP3 ADD PUSH1 0x40 MSTORE DUP1 ISZERO PUSH2 0x6DE JUMPI DUP2 PUSH1 0x20 ADD JUMPDEST PUSH2 0x6CB PUSH2 0xDBF JUMP JUMPDEST DUP2 MSTORE PUSH1 0x20 ADD SWAP1 PUSH1 0x1 SWAP1 SUB SWAP1 DUP2 PUSH2 0x6C3 JUMPI SWAP1 POP JUMPDEST POP SWAP1 POP PUSH1 0x0 JUMPDEST PUSH1 0x1 PUSH1 0x0 CALLER PUSH20 0xFFFFFFFFFFFFFFFFFFFFFFFFFFFFFFFFFFFFFFFF AND PUSH20 0xFFFFFFFFFFFFFFFFFFFFFFFFFFFFFFFFFFFFFFFF AND DUP2 MSTORE PUSH1 0x20 ADD SWAP1 DUP2 MSTORE PUSH1 0x20 ADD PUSH1 0x0 KECCAK256 SLOAD DUP2 LT ISZERO PUSH2 0x90E JUMPI PUSH1 0x0 DUP1 CALLER PUSH20 0xFFFFFFFFFFFFFFFFFFFFFFFFFFFFFFFFFFFFFFFF AND PUSH20 0xFFFFFFFFFFFFFFFFFFFFFFFFFFFFFFFFFFFFFFFF AND DUP2 MSTORE PUSH1 0x20 ADD SWAP1 DUP2 MSTORE PUSH1 0x20 ADD PUSH1 0x0 KECCAK256 DUP2 DUP2 SLOAD DUP2 LT PUSH2 0x77B JUMPI PUSH2 0x77A PUSH2 0x1579 JUMP JUMPDEST JUMPDEST SWAP1 PUSH1 0x0 MSTORE PUSH1 0x20 PUSH1 0x0 KECCAK256 SWAP1 PUSH1 0x4 MUL ADD PUSH1 0x40 MLOAD DUP1 PUSH1 0x80 ADD PUSH1 0x40 MSTORE SWAP1 DUP2 PUSH1 0x0 DUP3 ADD SLOAD DUP2 MSTORE PUSH1 0x20 ADD PUSH1 0x1 DUP3 ADD DUP1 SLOAD PUSH2 0x7AE SWAP1 PUSH2 0x146F JUMP JUMPDEST DUP1 PUSH1 0x1F ADD PUSH1 0x20 DUP1 SWAP2 DIV MUL PUSH1 0x20 ADD PUSH1 0x40 MLOAD SWAP1 DUP2 ADD PUSH1 0x40 MSTORE DUP1 SWAP3 SWAP2 SWAP1 DUP2 DUP2 MSTORE PUSH1 0x20 ADD DUP3 DUP1 SLOAD PUSH2 0x7DA SWAP1 PUSH2 0x146F JUMP JUMPDEST DUP1 ISZERO PUSH2 0x827 JUMPI DUP1 PUSH1 0x1F LT PUSH2 0x7FC JUMPI PUSH2 0x100 DUP1 DUP4 SLOAD DIV MUL DUP4 MSTORE SWAP2 PUSH1 0x20 ADD SWAP2 PUSH2 0x827 JUMP JUMPDEST DUP3 ADD SWAP2 SWAP1 PUSH1 0x0 MSTORE PUSH1 0x20 PUSH1 0x0 KECCAK256 SWAP1 JUMPDEST DUP2 SLOAD DUP2 MSTORE SWAP1 PUSH1 0x1 ADD SWAP1 PUSH1 0x20 ADD DUP1 DUP4 GT PUSH2 0x80A JUMPI DUP3 SWAP1 SUB PUSH1 0x1F AND DUP3 ADD SWAP2 JUMPDEST POP POP POP POP POP DUP2 MSTORE PUSH1 0x20 ADD PUSH1 0x2 DUP3 ADD DUP1 SLOAD PUSH2 0x840 SWAP1 PUSH2 0x146F JUMP JUMPDEST DUP1 PUSH1 0x1F ADD PUSH1 0x20 DUP1 SWAP2 DIV MUL PUSH1 0x20 ADD PUSH1 0x40 MLOAD SWAP1 DUP2 ADD PUSH1 0x40 MSTORE DUP1 SWAP3 SWAP2 SWAP1 DUP2 DUP2 MSTORE PUSH1 0x20 ADD DUP3 DUP1 SLOAD PUSH2 0x86C SWAP1 PUSH2 0x146F JUMP JUMPDEST DUP1 ISZERO PUSH2 0x8B9 JUMPI DUP1 PUSH1 0x1F LT PUSH2 0x88E JUMPI PUSH2 0x100 DUP1 DUP4 SLOAD DIV MUL DUP4 MSTORE SWAP2 PUSH1 0x20 ADD SWAP2 PUSH2 0x8B9 JUMP JUMPDEST DUP3 ADD SWAP2 SWAP1 PUSH1 0x0 MSTORE PUSH1 0x20 PUSH1 0x0 KECCAK256 SWAP1 JUMPDEST DUP2 SLOAD DUP2 MSTORE SWAP1 PUSH1 0x1 ADD SWAP1 PUSH1 0x20 ADD DUP1 DUP4 GT PUSH2 0x89C JUMPI DUP3 SWAP1 SUB PUSH1 0x1F AND DUP3 ADD SWAP2 JUMPDEST POP POP POP POP POP DUP2 MSTORE PUSH1 0x20 ADD PUSH1 0x3 DUP3 ADD PUSH1 0x0 SWAP1 SLOAD SWAP1 PUSH2 0x100 EXP SWAP1 DIV PUSH1 0xFF AND ISZERO ISZERO ISZERO ISZERO DUP2 MSTORE POP POP DUP3 DUP3 DUP2 MLOAD DUP2 LT PUSH2 0x8F0 JUMPI PUSH2 0x8EF PUSH2 0x1579 JUMP JUMPDEST JUMPDEST PUSH1 0x20 MUL PUSH1 0x20 ADD ADD DUP2 SWAP1 MSTORE POP DUP1 DUP1 PUSH2 0x906 SWAP1 PUSH2 0x14D2 JUMP JUMPDEST SWAP2 POP POP PUSH2 0x6E4 JUMP JUMPDEST POP DUP1 SWAP2 POP POP SWAP1 JUMP JUMPDEST PUSH1 0x0 PUSH1 0x1 PUSH1 0x0 CALLER PUSH20 0xFFFFFFFFFFFFFFFFFFFFFFFFFFFFFFFFFFFFFFFF AND PUSH20 0xFFFFFFFFFFFFFFFFFFFFFFFFFFFFFFFFFFFFFFFF AND DUP2 MSTORE PUSH1 0x20 ADD SWAP1 DUP2 MSTORE PUSH1 0x20 ADD PUSH1 0x0 KECCAK256 SLOAD SWAP1 POP SWAP1 JUMP JUMPDEST PUSH2 0x965 PUSH2 0xDBF JUMP JUMPDEST PUSH1 0x0 PUSH1 0x1 PUSH1 0x0 CALLER PUSH20 0xFFFFFFFFFFFFFFFFFFFFFFFFFFFFFFFFFFFFFFFF AND PUSH20 0xFFFFFFFFFFFFFFFFFFFFFFFFFFFFFFFFFFFFFFFF AND DUP2 MSTORE PUSH1 0x20 ADD SWAP1 DUP2 MSTORE PUSH1 0x20 ADD PUSH1 0x0 KECCAK256 SLOAD GT PUSH2 0x9E7 JUMPI PUSH1 0x40 MLOAD PUSH32 0x8C379A000000000000000000000000000000000000000000000000000000000 DUP2 MSTORE PUSH1 0x4 ADD PUSH2 0x9DE SWAP1 PUSH2 0x1245 JUMP JUMPDEST PUSH1 0x40 MLOAD DUP1 SWAP2 SUB SWAP1 REVERT JUMPDEST PUSH1 0x1 PUSH1 0x0 CALLER PUSH20 0xFFFFFFFFFFFFFFFFFFFFFFFFFFFFFFFFFFFFFFFF AND PUSH20 0xFFFFFFFFFFFFFFFFFFFFFFFFFFFFFFFFFFFFFFFF AND DUP2 MSTORE PUSH1 0x20 ADD SWAP1 DUP2 MSTORE PUSH1 0x20 ADD PUSH1 0x0 KECCAK256 SLOAD DUP3 GT ISZERO PUSH2 0xA69 JUMPI PUSH1 0x40 MLOAD PUSH32 0x8C379A000000000000000000000000000000000000000000000000000000000 DUP2 MSTORE PUSH1 0x4 ADD PUSH2 0xA60 SWAP1 PUSH2 0x1225 JUMP JUMPDEST PUSH1 0x40 MLOAD DUP1 SWAP2 SUB SWAP1 REVERT JUMPDEST PUSH1 0x0 DUP1 CALLER PUSH20 0xFFFFFFFFFFFFFFFFFFFFFFFFFFFFFFFFFFFFFFFF AND PUSH20 0xFFFFFFFFFFFFFFFFFFFFFFFFFFFFFFFFFFFFFFFF AND DUP2 MSTORE PUSH1 0x20 ADD SWAP1 DUP2 MSTORE PUSH1 0x20 ADD PUSH1 0x0 KECCAK256 PUSH1 0x1 DUP4 PUSH2 0xAB4 SWAP2 SWAP1 PUSH2 0x13B1 JUMP JUMPDEST DUP2 SLOAD DUP2 LT PUSH2 0xAC5 JUMPI PUSH2 0xAC4 PUSH2 0x1579 JUMP JUMPDEST JUMPDEST SWAP1 PUSH1 0x0 MSTORE PUSH1 0x20 PUSH1 0x0 KECCAK256 SWAP1 PUSH1 0x4 MUL ADD PUSH1 0x40 MLOAD DUP1 PUSH1 0x80 ADD PUSH1 0x40 MSTORE SWAP1 DUP2 PUSH1 0x0 DUP3 ADD SLOAD DUP2 MSTORE PUSH1 0x20 ADD PUSH1 0x1 DUP3 ADD DUP1 SLOAD PUSH2 0xAF8 SWAP1 PUSH2 0x146F JUMP JUMPDEST DUP1 PUSH1 0x1F ADD PUSH1 0x20 DUP1 SWAP2 DIV MUL PUSH1 0x20 ADD PUSH1 0x40 MLOAD SWAP1 DUP2 ADD PUSH1 0x40 MSTORE DUP1 SWAP3 SWAP2 SWAP1 DUP2 DUP2 MSTORE PUSH1 0x20 ADD DUP3 DUP1 SLOAD PUSH2 0xB24 SWAP1 PUSH2 0x146F JUMP JUMPDEST DUP1 ISZERO PUSH2 0xB71 JUMPI DUP1 PUSH1 0x1F LT PUSH2 0xB46 JUMPI PUSH2 0x100 DUP1 DUP4 SLOAD DIV MUL DUP4 MSTORE SWAP2 PUSH1 0x20 ADD SWAP2 PUSH2 0xB71 JUMP JUMPDEST DUP3 ADD SWAP2 SWAP1 PUSH1 0x0 MSTORE PUSH1 0x20 PUSH1 0x0 KECCAK256 SWAP1 JUMPDEST DUP2 SLOAD DUP2 MSTORE SWAP1 PUSH1 0x1 ADD SWAP1 PUSH1 0x20 ADD DUP1 DUP4 GT PUSH2 0xB54 JUMPI DUP3 SWAP1 SUB PUSH1 0x1F AND DUP3 ADD SWAP2 JUMPDEST POP POP POP POP POP DUP2 MSTORE PUSH1 0x20 ADD PUSH1 0x2 DUP3 ADD DUP1 SLOAD PUSH2 0xB8A SWAP1 PUSH2 0x146F JUMP JUMPDEST DUP1 PUSH1 0x1F ADD PUSH1 0x20 DUP1 SWAP2 DIV MUL PUSH1 0x20 ADD PUSH1 0x40 MLOAD SWAP1 DUP2 ADD PUSH1 0x40 MSTORE DUP1 SWAP3 SWAP2 SWAP1 DUP2 DUP2 MSTORE PUSH1 0x20 ADD DUP3 DUP1 SLOAD PUSH2 0xBB6 SWAP1 PUSH2 0x146F JUMP JUMPDEST DUP1 ISZERO PUSH2 0xC03 JUMPI DUP1 PUSH1 0x1F LT PUSH2 0xBD8 JUMPI PUSH2 0x100 DUP1 DUP4 SLOAD DIV MUL DUP4 MSTORE SWAP2 PUSH1 0x20 ADD SWAP2 PUSH2 0xC03 JUMP JUMPDEST DUP3 ADD SWAP2 SWAP1 PUSH1 0x0 MSTORE PUSH1 0x20 PUSH1 0x0 KECCAK256 SWAP1 JUMPDEST DUP2 SLOAD DUP2 MSTORE SWAP1 PUSH1 0x1 ADD SWAP1 PUSH1 0x20 ADD DUP1 DUP4 GT PUSH2 0xBE6 JUMPI DUP3 SWAP1 SUB PUSH1 0x1F AND DUP3 ADD SWAP2 JUMPDEST POP POP POP POP POP DUP2 MSTORE PUSH1 0x20 ADD PUSH1 0x3 DUP3 ADD PUSH1 0x0 SWAP1 SLOAD SWAP1 PUSH2 0x100 EXP SWAP1 DIV PUSH1 0xFF AND ISZERO ISZERO ISZERO ISZERO DUP2 MSTORE POP POP SWAP1 POP SWAP2 SWAP1 POP JUMP JUMPDEST PUSH1 0x0 PUSH1 0x1 PUSH1 0x0 CALLER PUSH20 0xFFFFFFFFFFFFFFFFFFFFFFFFFFFFFFFFFFFFFFFF AND PUSH20 0xFFFFFFFFFFFFFFFFFFFFFFFFFFFFFFFFFFFFFFFF AND DUP2 MSTORE PUSH1 0x20 ADD SWAP1 DUP2 MSTORE PUSH1 0x20 ADD PUSH1 0x0 KECCAK256 SLOAD GT PUSH2 0xCB0 JUMPI PUSH1 0x40 MLOAD PUSH32 0x8C379A000000000000000000000000000000000000000000000000000000000 DUP2 MSTORE PUSH1 0x4 ADD PUSH2 0xCA7 SWAP1 PUSH2 0x1245 JUMP JUMPDEST PUSH1 0x40 MLOAD DUP1 SWAP2 SUB SWAP1 REVERT JUMPDEST PUSH1 0x1 PUSH1 0x0 DUP1 CALLER PUSH20 0xFFFFFFFFFFFFFFFFFFFFFFFFFFFFFFFFFFFFFFFF AND PUSH20 0xFFFFFFFFFFFFFFFFFFFFFFFFFFFFFFFFFFFFFFFF AND DUP2 MSTORE PUSH1 0x20 ADD SWAP1 DUP2 MSTORE PUSH1 0x20 ADD PUSH1 0x0 KECCAK256 PUSH1 0x1 DUP4 PUSH2 0xCFD SWAP2 SWAP1 PUSH2 0x13B1 JUMP JUMPDEST DUP2 SLOAD DUP2 LT PUSH2 0xD0E JUMPI PUSH2 0xD0D PUSH2 0x1579 JUMP JUMPDEST JUMPDEST SWAP1 PUSH1 0x0 MSTORE PUSH1 0x20 PUSH1 0x0 KECCAK256 SWAP1 PUSH1 0x4 MUL ADD PUSH1 0x3 ADD PUSH1 0x0 PUSH2 0x100 EXP DUP2 SLOAD DUP2 PUSH1 0xFF MUL NOT AND SWAP1 DUP4 ISZERO ISZERO MUL OR SWAP1 SSTORE POP POP JUMP JUMPDEST DUP3 DUP1 SLOAD PUSH2 0xD45 SWAP1 PUSH2 0x146F JUMP JUMPDEST SWAP1 PUSH1 0x0 MSTORE PUSH1 0x20 PUSH1 0x0 KECCAK256 SWAP1 PUSH1 0x1F ADD PUSH1 0x20 SWAP1 DIV DUP2 ADD SWAP3 DUP3 PUSH2 0xD67 JUMPI PUSH1 0x0 DUP6 SSTORE PUSH2 0xDAE JUMP JUMPDEST DUP3 PUSH1 0x1F LT PUSH2 0xD80 JUMPI DUP1 MLOAD PUSH1 0xFF NOT AND DUP4 DUP1 ADD OR DUP6 SSTORE PUSH2 0xDAE JUMP JUMPDEST DUP3 DUP1 ADD PUSH1 0x1 ADD DUP6 SSTORE DUP3 ISZERO PUSH2 0xDAE JUMPI SWAP2 DUP3 ADD JUMPDEST DUP3 DUP2 GT ISZERO PUSH2 0xDAD JUMPI DUP3 MLOAD DUP3 SSTORE SWAP2 PUSH1 0x20 ADD SWAP2 SWAP1 PUSH1 0x1 ADD SWAP1 PUSH2 0xD92 JUMP JUMPDEST JUMPDEST POP SWAP1 POP PUSH2 0xDBB SWAP2 SWAP1 PUSH2 0xDE9 JUMP JUMPDEST POP SWAP1 JUMP JUMPDEST PUSH1 0x40 MLOAD DUP1 PUSH1 0x80 ADD PUSH1 0x40 MSTORE DUP1 PUSH1 0x0 DUP2 MSTORE PUSH1 0x20 ADD PUSH1 0x60 DUP2 MSTORE PUSH1 0x20 ADD PUSH1 0x60 DUP2 MSTORE PUSH1 0x20 ADD PUSH1 0x0 ISZERO ISZERO DUP2 MSTORE POP SWAP1 JUMP JUMPDEST JUMPDEST DUP1 DUP3 GT ISZERO PUSH2 0xE02 JUMPI PUSH1 0x0 DUP2 PUSH1 0x0 SWAP1 SSTORE POP PUSH1 0x1 ADD PUSH2 0xDEA JUMP JUMPDEST POP SWAP1 JUMP JUMPDEST PUSH1 0x0 PUSH2 0xE19 PUSH2 0xE14 DUP5 PUSH2 0x131A JUMP JUMPDEST PUSH2 0x12F5 JUMP JUMPDEST SWAP1 POP DUP3 DUP2 MSTORE PUSH1 0x20 DUP2 ADD DUP5 DUP5 DUP5 ADD GT ISZERO PUSH2 0xE35 JUMPI PUSH2 0xE34 PUSH2 0x15DC JUMP JUMPDEST JUMPDEST PUSH2 0xE40 DUP5 DUP3 DUP6 PUSH2 0x142D JUMP JUMPDEST POP SWAP4 SWAP3 POP POP POP JUMP JUMPDEST PUSH1 0x0 DUP2 CALLDATALOAD SWAP1 POP PUSH2 0xE57 DUP2 PUSH2 0x164E JUMP JUMPDEST SWAP3 SWAP2 POP POP JUMP JUMPDEST PUSH1 0x0 DUP3 PUSH1 0x1F DUP4 ADD SLT PUSH2 0xE72 JUMPI PUSH2 0xE71 PUSH2 0x15D7 JUMP JUMPDEST JUMPDEST DUP2 CALLDATALOAD PUSH2 0xE82 DUP5 DUP3 PUSH1 0x20 DUP7 ADD PUSH2 0xE06 JUMP JUMPDEST SWAP2 POP POP SWAP3 SWAP2 POP POP JUMP JUMPDEST PUSH1 0x0 DUP2 CALLDATALOAD SWAP1 POP PUSH2 0xE9A DUP2 PUSH2 0x1665 JUMP JUMPDEST SWAP3 SWAP2 POP POP JUMP JUMPDEST PUSH1 0x0 PUSH1 0x20 DUP3 DUP5 SUB SLT ISZERO PUSH2 0xEB6 JUMPI PUSH2 0xEB5 PUSH2 0x15E6 JUMP JUMPDEST JUMPDEST PUSH1 0x0 PUSH2 0xEC4 DUP5 DUP3 DUP6 ADD PUSH2 0xE48 JUMP JUMPDEST SWAP2 POP POP SWAP3 SWAP2 POP POP JUMP JUMPDEST PUSH1 0x0 DUP1 PUSH1 0x40 DUP4 DUP6 SUB SLT ISZERO PUSH2 0xEE4 JUMPI PUSH2 0xEE3 PUSH2 0x15E6 JUMP JUMPDEST JUMPDEST PUSH1 0x0 PUSH2 0xEF2 DUP6 DUP3 DUP7 ADD PUSH2 0xE48 JUMP JUMPDEST SWAP3 POP POP PUSH1 0x20 PUSH2 0xF03 DUP6 DUP3 DUP7 ADD PUSH2 0xE8B JUMP JUMPDEST SWAP2 POP POP SWAP3 POP SWAP3 SWAP1 POP JUMP JUMPDEST PUSH1 0x0 DUP1 PUSH1 0x40 DUP4 DUP6 SUB SLT ISZERO PUSH2 0xF24 JUMPI PUSH2 0xF23 PUSH2 0x15E6 JUMP JUMPDEST JUMPDEST PUSH1 0x0 DUP4 ADD CALLDATALOAD PUSH8 0xFFFFFFFFFFFFFFFF DUP2 GT ISZERO PUSH2 0xF42 JUMPI PUSH2 0xF41 PUSH2 0x15E1 JUMP JUMPDEST JUMPDEST PUSH2 0xF4E DUP6 DUP3 DUP7 ADD PUSH2 0xE5D JUMP JUMPDEST SWAP3 POP POP PUSH1 0x20 DUP4 ADD CALLDATALOAD PUSH8 0xFFFFFFFFFFFFFFFF DUP2 GT ISZERO PUSH2 0xF6F JUMPI PUSH2 0xF6E PUSH2 0x15E1 JUMP JUMPDEST JUMPDEST PUSH2 0xF7B DUP6 DUP3 DUP7 ADD PUSH2 0xE5D JUMP JUMPDEST SWAP2 POP POP SWAP3 POP SWAP3 SWAP1 POP JUMP JUMPDEST PUSH1 0x0 PUSH1 0x20 DUP3 DUP5 SUB SLT ISZERO PUSH2 0xF9B JUMPI PUSH2 0xF9A PUSH2 0x15E6 JUMP JUMPDEST JUMPDEST PUSH1 0x0 PUSH2 0xFA9 DUP5 DUP3 DUP6 ADD PUSH2 0xE8B JUMP JUMPDEST SWAP2 POP POP SWAP3 SWAP2 POP POP JUMP JUMPDEST PUSH1 0x0 PUSH2 0xFBE DUP4 DUP4 PUSH2 0x1111 JUMP JUMPDEST SWAP1 POP SWAP3 SWAP2 POP POP JUMP JUMPDEST PUSH1 0x0 PUSH2 0xFD1 DUP3 PUSH2 0x135B JUMP JUMPDEST PUSH2 0xFDB DUP2 DUP6 PUSH2 0x137E JUMP JUMPDEST SWAP4 POP DUP4 PUSH1 0x20 DUP3 MUL DUP6 ADD PUSH2 0xFED DUP6 PUSH2 0x134B JUMP JUMPDEST DUP1 PUSH1 0x0 JUMPDEST DUP6 DUP2 LT ISZERO PUSH2 0x1029 JUMPI DUP5 DUP5 SUB DUP10 MSTORE DUP2 MLOAD PUSH2 0x100A DUP6 DUP3 PUSH2 0xFB2 JUMP JUMPDEST SWAP5 POP PUSH2 0x1015 DUP4 PUSH2 0x1371 JUMP JUMPDEST SWAP3 POP PUSH1 0x20 DUP11 ADD SWAP10 POP POP PUSH1 0x1 DUP2 ADD SWAP1 POP PUSH2 0xFF1 JUMP JUMPDEST POP DUP3 SWAP8 POP DUP8 SWAP6 POP POP POP POP POP POP SWAP3 SWAP2 POP POP JUMP JUMPDEST PUSH2 0x1044 DUP2 PUSH2 0x13F7 JUMP JUMPDEST DUP3 MSTORE POP POP JUMP JUMPDEST PUSH2 0x1053 DUP2 PUSH2 0x13F7 JUMP JUMPDEST DUP3 MSTORE POP POP JUMP JUMPDEST PUSH1 0x0 PUSH2 0x1064 DUP3 PUSH2 0x1366 JUMP JUMPDEST PUSH2 0x106E DUP2 DUP6 PUSH2 0x138F JUMP JUMPDEST SWAP4 POP PUSH2 0x107E DUP2 DUP6 PUSH1 0x20 DUP7 ADD PUSH2 0x143C JUMP JUMPDEST PUSH2 0x1087 DUP2 PUSH2 0x15EB JUMP JUMPDEST DUP5 ADD SWAP2 POP POP SWAP3 SWAP2 POP POP JUMP JUMPDEST PUSH1 0x0 PUSH2 0x109D DUP3 PUSH2 0x1366 JUMP JUMPDEST PUSH2 0x10A7 DUP2 DUP6 PUSH2 0x13A0 JUMP JUMPDEST SWAP4 POP PUSH2 0x10B7 DUP2 DUP6 PUSH1 0x20 DUP7 ADD PUSH2 0x143C JUMP JUMPDEST PUSH2 0x10C0 DUP2 PUSH2 0x15EB JUMP JUMPDEST DUP5 ADD SWAP2 POP POP SWAP3 SWAP2 POP POP JUMP JUMPDEST PUSH1 0x0 PUSH2 0x10D8 PUSH1 0x1E DUP4 PUSH2 0x13A0 JUMP JUMPDEST SWAP2 POP PUSH2 0x10E3 DUP3 PUSH2 0x15FC JUMP JUMPDEST PUSH1 0x20 DUP3 ADD SWAP1 POP SWAP2 SWAP1 POP JUMP JUMPDEST PUSH1 0x0 PUSH2 0x10FB PUSH1 0xF DUP4 PUSH2 0x13A0 JUMP JUMPDEST SWAP2 POP PUSH2 0x1106 DUP3 PUSH2 0x1625 JUMP JUMPDEST PUSH1 0x20 DUP3 ADD SWAP1 POP SWAP2 SWAP1 POP JUMP JUMPDEST PUSH1 0x0 PUSH1 0x80 DUP4 ADD PUSH1 0x0 DUP4 ADD MLOAD PUSH2 0x1129 PUSH1 0x0 DUP7 ADD DUP3 PUSH2 0x11E5 JUMP JUMPDEST POP PUSH1 0x20 DUP4 ADD MLOAD DUP5 DUP3 SUB PUSH1 0x20 DUP7 ADD MSTORE PUSH2 0x1141 DUP3 DUP3 PUSH2 0x1059 JUMP JUMPDEST SWAP2 POP POP PUSH1 0x40 DUP4 ADD MLOAD DUP5 DUP3 SUB PUSH1 0x40 DUP7 ADD MSTORE PUSH2 0x115B DUP3 DUP3 PUSH2 0x1059 JUMP JUMPDEST SWAP2 POP POP PUSH1 0x60 DUP4 ADD MLOAD PUSH2 0x1170 PUSH1 0x60 DUP7 ADD DUP3 PUSH2 0x103B JUMP JUMPDEST POP DUP1 SWAP2 POP POP SWAP3 SWAP2 POP POP JUMP JUMPDEST PUSH1 0x0 PUSH1 0x80 DUP4 ADD PUSH1 0x0 DUP4 ADD MLOAD PUSH2 0x1193 PUSH1 0x0 DUP7 ADD DUP3 PUSH2 0x11E5 JUMP JUMPDEST POP PUSH1 0x20 DUP4 ADD MLOAD DUP5 DUP3 SUB PUSH1 0x20 DUP7 ADD MSTORE PUSH2 0x11AB DUP3 DUP3 PUSH2 0x1059 JUMP JUMPDEST SWAP2 POP POP PUSH1 0x40 DUP4 ADD MLOAD DUP5 DUP3 SUB PUSH1 0x40 DUP7 ADD MSTORE PUSH2 0x11C5 DUP3 DUP3 PUSH2 0x1059 JUMP JUMPDEST SWAP2 POP POP PUSH1 0x60 DUP4 ADD MLOAD PUSH2 0x11DA PUSH1 0x60 DUP7 ADD DUP3 PUSH2 0x103B JUMP JUMPDEST POP DUP1 SWAP2 POP POP SWAP3 SWAP2 POP POP JUMP JUMPDEST PUSH2 0x11EE DUP2 PUSH2 0x1423 JUMP JUMPDEST DUP3 MSTORE POP POP JUMP JUMPDEST PUSH2 0x11FD DUP2 PUSH2 0x1423 JUMP JUMPDEST DUP3 MSTORE POP POP JUMP JUMPDEST PUSH1 0x0 PUSH1 0x20 DUP3 ADD SWAP1 POP DUP2 DUP2 SUB PUSH1 0x0 DUP4 ADD MSTORE PUSH2 0x121D DUP2 DUP5 PUSH2 0xFC6 JUMP JUMPDEST SWAP1 POP SWAP3 SWAP2 POP POP JUMP JUMPDEST PUSH1 0x0 PUSH1 0x20 DUP3 ADD SWAP1 POP DUP2 DUP2 SUB PUSH1 0x0 DUP4 ADD MSTORE PUSH2 0x123E DUP2 PUSH2 0x10CB JUMP JUMPDEST SWAP1 POP SWAP2 SWAP1 POP JUMP JUMPDEST PUSH1 0x0 PUSH1 0x20 DUP3 ADD SWAP1 POP DUP2 DUP2 SUB PUSH1 0x0 DUP4 ADD MSTORE PUSH2 0x125E DUP2 PUSH2 0x10EE JUMP JUMPDEST SWAP1 POP SWAP2 SWAP1 POP JUMP JUMPDEST PUSH1 0x0 PUSH1 0x20 DUP3 ADD SWAP1 POP DUP2 DUP2 SUB PUSH1 0x0 DUP4 ADD MSTORE PUSH2 0x127F DUP2 DUP5 PUSH2 0x117B JUMP JUMPDEST SWAP1 POP SWAP3 SWAP2 POP POP JUMP JUMPDEST PUSH1 0x0 PUSH1 0x20 DUP3 ADD SWAP1 POP PUSH2 0x129C PUSH1 0x0 DUP4 ADD DUP5 PUSH2 0x11F4 JUMP JUMPDEST SWAP3 SWAP2 POP POP JUMP JUMPDEST PUSH1 0x0 PUSH1 0x80 DUP3 ADD SWAP1 POP PUSH2 0x12B7 PUSH1 0x0 DUP4 ADD DUP8 PUSH2 0x11F4 JUMP JUMPDEST DUP2 DUP2 SUB PUSH1 0x20 DUP4 ADD MSTORE PUSH2 0x12C9 DUP2 DUP7 PUSH2 0x1092 JUMP JUMPDEST SWAP1 POP DUP2 DUP2 SUB PUSH1 0x40 DUP4 ADD MSTORE PUSH2 0x12DD DUP2 DUP6 PUSH2 0x1092 JUMP JUMPDEST SWAP1 POP PUSH2 0x12EC PUSH1 0x60 DUP4 ADD DUP5 PUSH2 0x104A JUMP JUMPDEST SWAP6 SWAP5 POP POP POP POP POP JUMP JUMPDEST PUSH1 0x0 PUSH2 0x12FF PUSH2 0x1310 JUMP JUMPDEST SWAP1 POP PUSH2 0x130B DUP3 DUP3 PUSH2 0x14A1 JUMP JUMPDEST SWAP2 SWAP1 POP JUMP JUMPDEST PUSH1 0x0 PUSH1 0x40 MLOAD SWAP1 POP SWAP1 JUMP JUMPDEST PUSH1 0x0 PUSH8 0xFFFFFFFFFFFFFFFF DUP3 GT ISZERO PUSH2 0x1335 JUMPI PUSH2 0x1334 PUSH2 0x15A8 JUMP JUMPDEST JUMPDEST PUSH2 0x133E DUP3 PUSH2 0x15EB JUMP JUMPDEST SWAP1 POP PUSH1 0x20 DUP2 ADD SWAP1 POP SWAP2 SWAP1 POP JUMP JUMPDEST PUSH1 0x0 DUP2 SWAP1 POP PUSH1 0x20 DUP3 ADD SWAP1 POP SWAP2 SWAP1 POP JUMP JUMPDEST PUSH1 0x0 DUP2 MLOAD SWAP1 POP SWAP2 SWAP1 POP JUMP JUMPDEST PUSH1 0x0 DUP2 MLOAD SWAP1 POP SWAP2 SWAP1 POP JUMP JUMPDEST PUSH1 0x0 PUSH1 0x20 DUP3 ADD SWAP1 POP SWAP2 SWAP1 POP JUMP JUMPDEST PUSH1 0x0 DUP3 DUP3 MSTORE PUSH1 0x20 DUP3 ADD SWAP1 POP SWAP3 SWAP2 POP POP JUMP JUMPDEST PUSH1 0x0 DUP3 DUP3 MSTORE PUSH1 0x20 DUP3 ADD SWAP1 POP SWAP3 SWAP2 POP POP JUMP JUMPDEST PUSH1 0x0 DUP3 DUP3 MSTORE PUSH1 0x20 DUP3 ADD SWAP1 POP SWAP3 SWAP2 POP POP JUMP JUMPDEST PUSH1 0x0 PUSH2 0x13BC DUP3 PUSH2 0x1423 JUMP JUMPDEST SWAP2 POP PUSH2 0x13C7 DUP4 PUSH2 0x1423 JUMP JUMPDEST SWAP3 POP DUP3 DUP3 LT ISZERO PUSH2 0x13DA JUMPI PUSH2 0x13D9 PUSH2 0x151B JUMP JUMPDEST JUMPDEST DUP3 DUP3 SUB SWAP1 POP SWAP3 SWAP2 POP POP JUMP JUMPDEST PUSH1 0x0 PUSH2 0x13F0 DUP3 PUSH2 0x1403 JUMP JUMPDEST SWAP1 POP SWAP2 SWAP1 POP JUMP JUMPDEST PUSH1 0x0 DUP2 ISZERO ISZERO SWAP1 POP SWAP2 SWAP1 POP JUMP JUMPDEST PUSH1 0x0 PUSH20 0xFFFFFFFFFFFFFFFFFFFFFFFFFFFFFFFFFFFFFFFF DUP3 AND SWAP1 POP SWAP2 SWAP1 POP JUMP JUMPDEST PUSH1 0x0 DUP2 SWAP1 POP SWAP2 SWAP1 POP JUMP JUMPDEST DUP3 DUP2 DUP4 CALLDATACOPY PUSH1 0x0 DUP4 DUP4 ADD MSTORE POP POP POP JUMP JUMPDEST PUSH1 0x0 JUMPDEST DUP4 DUP2 LT ISZERO PUSH2 0x145A JUMPI DUP1 DUP3 ADD MLOAD DUP2 DUP5 ADD MSTORE PUSH1 0x20 DUP2 ADD SWAP1 POP PUSH2 0x143F JUMP JUMPDEST DUP4 DUP2 GT ISZERO PUSH2 0x1469 JUMPI PUSH1 0x0 DUP5 DUP5 ADD MSTORE JUMPDEST POP POP POP POP JUMP JUMPDEST PUSH1 0x0 PUSH1 0x2 DUP3 DIV SWAP1 POP PUSH1 0x1 DUP3 AND DUP1 PUSH2 0x1487 JUMPI PUSH1 0x7F DUP3 AND SWAP2 POP JUMPDEST PUSH1 0x20 DUP3 LT DUP2 EQ ISZERO PUSH2 0x149B JUMPI PUSH2 0x149A PUSH2 0x154A JUMP JUMPDEST JUMPDEST POP SWAP2 SWAP1 POP JUMP JUMPDEST PUSH2 0x14AA DUP3 PUSH2 0x15EB JUMP JUMPDEST DUP2 ADD DUP2 DUP2 LT PUSH8 0xFFFFFFFFFFFFFFFF DUP3 GT OR ISZERO PUSH2 0x14C9 JUMPI PUSH2 0x14C8 PUSH2 0x15A8 JUMP JUMPDEST JUMPDEST DUP1 PUSH1 0x40 MSTORE POP POP POP JUMP JUMPDEST PUSH1 0x0 PUSH2 0x14DD DUP3 PUSH2 0x1423 JUMP JUMPDEST SWAP2 POP PUSH32 0xFFFFFFFFFFFFFFFFFFFFFFFFFFFFFFFFFFFFFFFFFFFFFFFFFFFFFFFFFFFFFFFF DUP3 EQ ISZERO PUSH2 0x1510 JUMPI PUSH2 0x150F PUSH2 0x151B JUMP JUMPDEST JUMPDEST PUSH1 0x1 DUP3 ADD SWAP1 POP SWAP2 SWAP1 POP JUMP JUMPDEST PUSH32 0x4E487B7100000000000000000000000000000000000000000000000000000000 PUSH1 0x0 MSTORE PUSH1 0x11 PUSH1 0x4 MSTORE PUSH1 0x24 PUSH1 0x0 REVERT JUMPDEST PUSH32 0x4E487B7100000000000000000000000000000000000000000000000000000000 PUSH1 0x0 MSTORE PUSH1 0x22 PUSH1 0x4 MSTORE PUSH1 0x24 PUSH1 0x0 REVERT JUMPDEST PUSH32 0x4E487B7100000000000000000000000000000000000000000000000000000000 PUSH1 0x0 MSTORE PUSH1 0x32 PUSH1 0x4 MSTORE PUSH1 0x24 PUSH1 0x0 REVERT JUMPDEST PUSH32 0x4E487B7100000000000000000000000000000000000000000000000000000000 PUSH1 0x0 MSTORE PUSH1 0x41 PUSH1 0x4 MSTORE PUSH1 0x24 PUSH1 0x0 REVERT JUMPDEST PUSH1 0x0 DUP1 REVERT JUMPDEST PUSH1 0x0 DUP1 REVERT JUMPDEST PUSH1 0x0 DUP1 REVERT JUMPDEST PUSH1 0x0 DUP1 REVERT JUMPDEST PUSH1 0x0 PUSH1 0x1F NOT PUSH1 0x1F DUP4 ADD AND SWAP1 POP SWAP2 SWAP1 POP JUMP JUMPDEST PUSH32 0x546F646F20776974682063757272656E74204944206E6F7420666F756E640000 PUSH1 0x0 DUP3 ADD MSTORE POP JUMP JUMPDEST PUSH32 0x4E6F20746F646F7320666F756E642E0000000000000000000000000000000000 PUSH1 0x0 DUP3 ADD MSTORE POP JUMP JUMPDEST PUSH2 0x1657 DUP2 PUSH2 0x13E5 JUMP JUMPDEST DUP2 EQ PUSH2 0x1662 JUMPI PUSH1 0x0 DUP1 REVERT JUMPDEST POP JUMP JUMPDEST PUSH2 0x166E DUP2 PUSH2 0x1423 JUMP JUMPDEST DUP2 EQ PUSH2 0x1679 JUMPI PUSH1 0x0 DUP1 REVERT JUMPDEST POP JUMP INVALID LOG2 PUSH5 0x6970667358 0x22 SLT KECCAK256 0x49 0x1E LOG3 SSTORE SWAP7 GAS KECCAK256 SWAP2 LOG2 0xD6 0xB7 0x5E 0x26 SWAP11 PUSH9 0x820BE8477401BE5FB6 0x25 0xD 0xF6 0xBA ADDRESS CALLER MSTORE 0xF7 PUSH5 0x736F6C6343 STOP ADDMOD SMOD STOP CALLER "
				},
				"gasEstimates": {
					"creation": {
						"codeDepositCost": "1162000",
						"executionCost": "1207",
						"totalCost": "1163207"
					},
					"external": {
						"addTodo(string,string)": "infinite",
						"counter(address)": "2881",
						"getAllTodos()": "infinite",
						"getAmount()": "2548",
						"getTodo(uint256)": "infinite",
						"setAsDone(uint256)": "infinite",
						"setAsUndone(uint256)": "infinite",
						"todos(address,uint256)": "infinite"
					}
				},
				"methodIdentifiers": {
					"addTodo(string,string)": "1b7fb260",
					"counter(address)": "c12327b8",
					"getAllTodos()": "ce2bd5d5",
					"getAmount()": "d321fe29",
					"getTodo(uint256)": "dd68afb6",
					"setAsDone(uint256)": "fc5049f1",
					"setAsUndone(uint256)": "62969ff7",
					"todos(address,uint256)": "428c1889"
				}
			},
			"storageLayout": {
				"storage": [
					{
						"astId": 18,
						"contract": "ToDoApp.sol:ToDoApp",
						"label": "todos",
						"offset": 0,
						"slot": "0",
						"type": "t_mapping(t_address,t_array(t_struct(ToDo)11_storage)dyn_storage)"
					},
					{
						"astId": 22,
						"contract": "ToDoApp.sol:ToDoApp",
						"label": "counter",
						"offset": 0,
						"slot": "1",
						"type": "t_mapping(t_address,t_uint256)"
					}
				],
				"types": {
					"t_address": {
						"encoding": "inplace",
						"label": "address",
						"numberOfBytes": "20"
					},
					"t_array(t_struct(ToDo)11_storage)dyn_storage": {
						"base": "t_struct(ToDo)11_storage",
						"encoding": "dynamic_array",
						"label": "struct ToDoApp.ToDo[]",
						"numberOfBytes": "32"
					},
					"t_bool": {
						"encoding": "inplace",
						"label": "bool",
						"numberOfBytes": "1"
					},
					"t_mapping(t_address,t_array(t_struct(ToDo)11_storage)dyn_storage)": {
						"encoding": "mapping",
						"key": "t_address",
						"label": "mapping(address => struct ToDoApp.ToDo[])",
						"numberOfBytes": "32",
						"value": "t_array(t_struct(ToDo)11_storage)dyn_storage"
					},
					"t_mapping(t_address,t_uint256)": {
						"encoding": "mapping",
						"key": "t_address",
						"label": "mapping(address => uint256)",
						"numberOfBytes": "32",
						"value": "t_uint256"
					},
					"t_string_storage": {
						"encoding": "bytes",
						"label": "string",
						"numberOfBytes": "32"
					},
					"t_struct(ToDo)11_storage": {
						"encoding": "inplace",
						"label": "struct ToDoApp.ToDo",
						"members": [
							{
								"astId": 4,
								"contract": "ToDoApp.sol:ToDoApp",
								"label": "id",
								"offset": 0,
								"slot": "0",
								"type": "t_uint256"
							},
							{
								"astId": 6,
								"contract": "ToDoApp.sol:ToDoApp",
								"label": "name",
								"offset": 0,
								"slot": "1",
								"type": "t_string_storage"
							},
							{
								"astId": 8,
								"contract": "ToDoApp.sol:ToDoApp",
								"label": "content",
								"offset": 0,
								"slot": "2",
								"type": "t_string_storage"
							},
							{
								"astId": 10,
								"contract": "ToDoApp.sol:ToDoApp",
								"label": "status",
								"offset": 0,
								"slot": "3",
								"type": "t_bool"
							}
						],
						"numberOfBytes": "128"
					},
					"t_uint256": {
						"encoding": "inplace",
						"label": "uint256",
						"numberOfBytes": "32"
					}
				}
			},
			"userdoc": {
				"kind": "user",
				"methods": {
					"addTodo(string,string)": {
						"notice": "Add new todo to memory. ID defaults to counter index and status defaults to false"
					},
					"constructor": {
						"notice": "Constructor"
					},
					"getAllTodos()": {
						"notice": "Get all todos. If no todos are found send error."
					},
					"getAmount()": {
						"notice": "Get amount of todos"
					},
					"getTodo(uint256)": {
						"notice": "Get todo. Send error coder if id is not valid"
					},
					"setAsDone(uint256)": {
						"notice": "Set todo as done. If no todos are found send error. Takes the ID of the todo (starting from 1)."
					},
					"setAsUndone(uint256)": {
						"notice": "Set todo as undone. If no todos are found send error. Takes the ID of the todo (starting from 1)."
					},
					"todos(address,uint256)": {
						"notice": "Mappings"
					}
				},
				"notice": "A simple ToDo smart contract app",
				"version": 1
			}
		}
	}
}