{
	"ToDoApp.sol": {
		"ToDoApp": {
			"abi": [
				{
					"inputs": [],
					"stateMutability": "nonpayable",
					"type": "constructor"
				},
				{
					"inputs": [
						{
							"internalType": "string",
							"name": "name",
							"type": "string"
						},
						{
							"internalType": "string",
							"name": "content",
							"type": "string"
						}
					],
					"name": "addTodo",
					"outputs": [],
					"stateMutability": "nonpayable",
					"type": "function"
				},
				{
					"inputs": [
						{
							"internalType": "address",
							"name": "",
							"type": "address"
						}
					],
					"name": "counter",
					"outputs": [
						{
							"internalType": "uint256",
							"name": "",
							"type": "uint256"
						}
					],
					"stateMutability": "view",
					"type": "function"
				},
				{
					"inputs": [],
					"name": "getAllTodos",
					"outputs": [
						{
							"components": [
								{
									"internalType": "uint256",
									"name": "id",
									"type": "uint256"
								},
								{
									"internalType": "string",
									"name": "name",
									"type": "string"
								},
								{
									"internalType": "string",
									"name": "content",
									"type": "string"
								},
								{
									"internalType": "bool",
									"name": "status",
									"type": "bool"
								}
							],
							"internalType": "struct ToDoApp.ToDo[]",
							"name": "",
							"type": "tuple[]"
						}
					],
					"stateMutability": "view",
					"type": "function"
				},
				{
					"inputs": [],
					"name": "getAmount",
					"outputs": [
						{
							"internalType": "uint256",
							"name": "",
							"type": "uint256"
						}
					],
					"stateMutability": "view",
					"type": "function"
				},
				{
					"inputs": [
						{
							"internalType": "uint256",
							"name": "id",
							"type": "uint256"
						}
					],
					"name": "getTodo",
					"outputs": [
						{
							"components": [
								{
									"internalType": "uint256",
									"name": "id",
									"type": "uint256"
								},
								{
									"internalType": "string",
									"name": "name",
									"type": "string"
								},
								{
									"internalType": "string",
									"name": "content",
									"type": "string"
								},
								{
									"internalType": "bool",
									"name": "status",
									"type": "bool"
								}
							],
							"internalType": "struct ToDoApp.ToDo",
							"name": "",
							"type": "tuple"
						}
					],
					"stateMutability": "view",
					"type": "function"
				},
				{
					"inputs": [
						{
							"internalType": "uint256",
							"name": "id",
							"type": "uint256"
						}
					],
					"name": "setAsDone",
					"outputs": [],
					"stateMutability": "nonpayable",
					"type": "function"
				},
				{
					"inputs": [
						{
							"internalType": "uint256",
							"name": "id",
							"type": "uint256"
						}
					],
					"name": "setAsUndone",
					"outputs": [],
					"stateMutability": "nonpayable",
					"type": "function"
				},
				{
					"inputs": [
						{
							"internalType": "address",
							"name": "",
							"type": "address"
						},
						{
							"internalType": "uint256",
							"name": "",
							"type": "uint256"
						}
					],
					"name": "todos",
					"outputs": [
						{
							"internalType": "uint256",
							"name": "id",
							"type": "uint256"
						},
						{
							"internalType": "string",
							"name": "name",
							"type": "string"
						},
						{
							"internalType": "string",
							"name": "content",
							"type": "string"
						},
						{
							"internalType": "bool",
							"name": "status",
							"type": "bool"
						}
					],
					"stateMutability": "view",
					"type": "function"
				}
			],
			"devdoc": {
				"kind": "dev",
				"methods": {},
				"version": 1
			},
			"evm": {
				"assembly": "    /* \"ToDoApp.sol\":120:2003  contract ToDoApp {... */\n  mstore(0x40, 0x80)\n    /* \"ToDoApp.sol\":483:499  constructor() {} */\n  callvalue\n  dup1\n  iszero\n  tag_1\n  jumpi\n  0x00\n  dup1\n  revert\ntag_1:\n  pop\n    /* \"ToDoApp.sol\":120:2003  contract ToDoApp {... */\n  dataSize(sub_0)\n  dup1\n  dataOffset(sub_0)\n  0x00\n  codecopy\n  0x00\n  return\nstop\n\nsub_0: assembly {\n        /* \"ToDoApp.sol\":120:2003  contract ToDoApp {... */\n      mstore(0x40, 0x80)\n      callvalue\n      dup1\n      iszero\n      tag_1\n      jumpi\n      0x00\n      dup1\n      revert\n    tag_1:\n      pop\n      jumpi(tag_2, lt(calldatasize, 0x04))\n      shr(0xe0, calldataload(0x00))\n      dup1\n      0xce2bd5d5\n      gt\n      tag_11\n      jumpi\n      dup1\n      0xce2bd5d5\n      eq\n      tag_7\n      jumpi\n      dup1\n      0xd321fe29\n      eq\n      tag_8\n      jumpi\n      dup1\n      0xdd68afb6\n      eq\n      tag_9\n      jumpi\n      dup1\n      0xfc5049f1\n      eq\n      tag_10\n      jumpi\n      jump(tag_2)\n    tag_11:\n      dup1\n      0x1b7fb260\n      eq\n      tag_3\n      jumpi\n      dup1\n      0x428c1889\n      eq\n      tag_4\n      jumpi\n      dup1\n      0x62969ff7\n      eq\n      tag_5\n      jumpi\n      dup1\n      0xc12327b8\n      eq\n      tag_6\n      jumpi\n    tag_2:\n      0x00\n      dup1\n      revert\n        /* \"ToDoApp.sol\":610:897  function addTodo(string memory name, string memory content) public {... */\n    tag_3:\n      tag_12\n      0x04\n      dup1\n      calldatasize\n      sub\n      dup2\n      add\n      swap1\n      tag_13\n      swap2\n      swap1\n      tag_14\n      jump\t// in\n    tag_13:\n      tag_15\n      jump\t// in\n    tag_12:\n      stop\n        /* \"ToDoApp.sol\":353:392  mapping(address => ToDo[]) public todos */\n    tag_4:\n      tag_16\n      0x04\n      dup1\n      calldatasize\n      sub\n      dup2\n      add\n      swap1\n      tag_17\n      swap2\n      swap1\n      tag_18\n      jump\t// in\n    tag_17:\n      tag_19\n      jump\t// in\n    tag_16:\n      mload(0x40)\n      tag_20\n      swap5\n      swap4\n      swap3\n      swap2\n      swap1\n      tag_21\n      jump\t// in\n    tag_20:\n      mload(0x40)\n      dup1\n      swap2\n      sub\n      swap1\n      return\n        /* \"ToDoApp.sol\":1851:2001  function setAsUndone(uint id) public {... */\n    tag_5:\n      tag_22\n      0x04\n      dup1\n      calldatasize\n      sub\n      dup2\n      add\n      swap1\n      tag_23\n      swap2\n      swap1\n      tag_24\n      jump\t// in\n    tag_23:\n      tag_25\n      jump\t// in\n    tag_22:\n      stop\n        /* \"ToDoApp.sol\":398:440  mapping(address => uint256) public counter */\n    tag_6:\n      tag_26\n      0x04\n      dup1\n      calldatasize\n      sub\n      dup2\n      add\n      swap1\n      tag_27\n      swap2\n      swap1\n      tag_28\n      jump\t// in\n    tag_27:\n      tag_29\n      jump\t// in\n    tag_26:\n      mload(0x40)\n      tag_30\n      swap2\n      swap1\n      tag_31\n      jump\t// in\n    tag_30:\n      mload(0x40)\n      dup1\n      swap2\n      sub\n      swap1\n      return\n        /* \"ToDoApp.sol\":1242:1401  function getAllTodos() public view returns(ToDo[] memory) {... */\n    tag_7:\n      tag_32\n      tag_33\n      jump\t// in\n    tag_32:\n      mload(0x40)\n      tag_34\n      swap2\n      swap1\n      tag_35\n      jump\t// in\n    tag_34:\n      mload(0x40)\n      dup1\n      swap2\n      sub\n      swap1\n      return\n        /* \"ToDoApp.sol\":1451:1540  function getAmount() public view returns(uint){... */\n    tag_8:\n      tag_36\n      tag_37\n      jump\t// in\n    tag_36:\n      mload(0x40)\n      tag_38\n      swap2\n      swap1\n      tag_31\n      jump\t// in\n    tag_38:\n      mload(0x40)\n      dup1\n      swap2\n      sub\n      swap1\n      return\n        /* \"ToDoApp.sol\":972:1164  function getTodo(uint id) public view returns(ToDo memory) {... */\n    tag_9:\n      tag_39\n      0x04\n      dup1\n      calldatasize\n      sub\n      dup2\n      add\n      swap1\n      tag_40\n      swap2\n      swap1\n      tag_24\n      jump\t// in\n    tag_40:\n      tag_41\n      jump\t// in\n    tag_39:\n      mload(0x40)\n      tag_42\n      swap2\n      swap1\n      tag_43\n      jump\t// in\n    tag_42:\n      mload(0x40)\n      dup1\n      swap2\n      sub\n      swap1\n      return\n        /* \"ToDoApp.sol\":1621:1768  function setAsDone(uint id) public {... */\n    tag_10:\n      tag_44\n      0x04\n      dup1\n      calldatasize\n      sub\n      dup2\n      add\n      swap1\n      tag_45\n      swap2\n      swap1\n      tag_24\n      jump\t// in\n    tag_45:\n      tag_46\n      jump\t// in\n    tag_44:\n      stop\n        /* \"ToDoApp.sol\":610:897  function addTodo(string memory name, string memory content) public {... */\n    tag_15:\n        /* \"ToDoApp.sol\":723:730  counter */\n      0x01\n        /* \"ToDoApp.sol\":723:742  counter[msg.sender] */\n      0x00\n        /* \"ToDoApp.sol\":731:741  msg.sender */\n      caller\n        /* \"ToDoApp.sol\":723:742  counter[msg.sender] */\n      0xffffffffffffffffffffffffffffffffffffffff\n      and\n      0xffffffffffffffffffffffffffffffffffffffff\n      and\n      dup2\n      mstore\n      0x20\n      add\n      swap1\n      dup2\n      mstore\n      0x20\n      add\n      0x00\n      keccak256\n      0x00\n        /* \"ToDoApp.sol\":723:744  counter[msg.sender]++ */\n      dup2\n      sload\n      dup1\n      swap3\n      swap2\n      swap1\n      tag_48\n      swap1\n      tag_49\n      jump\t// in\n    tag_48:\n      swap2\n      swap1\n      pop\n      sstore\n      pop\n        /* \"ToDoApp.sol\":797:802  todos */\n      0x00\n        /* \"ToDoApp.sol\":797:814  todos[msg.sender] */\n      dup1\n        /* \"ToDoApp.sol\":803:813  msg.sender */\n      caller\n        /* \"ToDoApp.sol\":797:814  todos[msg.sender] */\n      0xffffffffffffffffffffffffffffffffffffffff\n      and\n      0xffffffffffffffffffffffffffffffffffffffff\n      and\n      dup2\n      mstore\n      0x20\n      add\n      swap1\n      dup2\n      mstore\n      0x20\n      add\n      0x00\n      keccak256\n        /* \"ToDoApp.sol\":833:880  ToDo(counter[msg.sender], name, content, false) */\n      mload(0x40)\n      dup1\n      0x80\n      add\n      0x40\n      mstore\n      dup1\n        /* \"ToDoApp.sol\":838:845  counter */\n      0x01\n        /* \"ToDoApp.sol\":838:857  counter[msg.sender] */\n      0x00\n        /* \"ToDoApp.sol\":846:856  msg.sender */\n      caller\n        /* \"ToDoApp.sol\":838:857  counter[msg.sender] */\n      0xffffffffffffffffffffffffffffffffffffffff\n      and\n      0xffffffffffffffffffffffffffffffffffffffff\n      and\n      dup2\n      mstore\n      0x20\n      add\n      swap1\n      dup2\n      mstore\n      0x20\n      add\n      0x00\n      keccak256\n      sload\n        /* \"ToDoApp.sol\":833:880  ToDo(counter[msg.sender], name, content, false) */\n      dup2\n      mstore\n      0x20\n      add\n        /* \"ToDoApp.sol\":859:863  name */\n      dup5\n        /* \"ToDoApp.sol\":833:880  ToDo(counter[msg.sender], name, content, false) */\n      dup2\n      mstore\n      0x20\n      add\n        /* \"ToDoApp.sol\":865:872  content */\n      dup4\n        /* \"ToDoApp.sol\":833:880  ToDo(counter[msg.sender], name, content, false) */\n      dup2\n      mstore\n      0x20\n      add\n        /* \"ToDoApp.sol\":874:879  false */\n      0x00\n        /* \"ToDoApp.sol\":833:880  ToDo(counter[msg.sender], name, content, false) */\n      iszero\n      iszero\n      dup2\n      mstore\n      pop\n        /* \"ToDoApp.sol\":797:890  todos[msg.sender].push(... */\n      swap1\n      dup1\n      0x01\n      dup2\n      sload\n      add\n      dup1\n      dup3\n      sstore\n      dup1\n      swap2\n      pop\n      pop\n      0x01\n      swap1\n      sub\n      swap1\n      0x00\n      mstore\n      keccak256(0x00, 0x20)\n      swap1\n      0x04\n      mul\n      add\n      0x00\n      swap1\n      swap2\n      swap1\n      swap2\n      swap1\n      swap2\n      pop\n      0x00\n      dup3\n      add\n      mload\n      dup2\n      0x00\n      add\n      sstore\n      0x20\n      dup3\n      add\n      mload\n      dup2\n      0x01\n      add\n      swap1\n      dup1\n      mload\n      swap1\n      0x20\n      add\n      swap1\n      tag_51\n      swap3\n      swap2\n      swap1\n      tag_52\n      jump\t// in\n    tag_51:\n      pop\n      0x40\n      dup3\n      add\n      mload\n      dup2\n      0x02\n      add\n      swap1\n      dup1\n      mload\n      swap1\n      0x20\n      add\n      swap1\n      tag_53\n      swap3\n      swap2\n      swap1\n      tag_52\n      jump\t// in\n    tag_53:\n      pop\n      0x60\n      dup3\n      add\n      mload\n      dup2\n      0x03\n      add\n      exp(0x0100, 0x00)\n      dup2\n      sload\n      dup2\n      0xff\n      mul\n      not\n      and\n      swap1\n      dup4\n      iszero\n      iszero\n      mul\n      or\n      swap1\n      sstore\n      pop\n      pop\n      pop\n        /* \"ToDoApp.sol\":610:897  function addTodo(string memory name, string memory content) public {... */\n      pop\n      pop\n      jump\t// out\n        /* \"ToDoApp.sol\":353:392  mapping(address => ToDo[]) public todos */\n    tag_19:\n      mstore(0x20, 0x00)\n      dup2\n      0x00\n      mstore\n      keccak256(0x00, 0x40)\n      dup2\n      dup2\n      sload\n      dup2\n      lt\n      tag_54\n      jumpi\n      0x00\n      dup1\n      revert\n    tag_54:\n      swap1\n      0x00\n      mstore\n      keccak256(0x00, 0x20)\n      swap1\n      0x04\n      mul\n      add\n      0x00\n      swap2\n      pop\n      swap2\n      pop\n      pop\n      dup1\n      0x00\n      add\n      sload\n      swap1\n      dup1\n      0x01\n      add\n      dup1\n      sload\n      tag_56\n      swap1\n      tag_57\n      jump\t// in\n    tag_56:\n      dup1\n      0x1f\n      add\n      0x20\n      dup1\n      swap2\n      div\n      mul\n      0x20\n      add\n      mload(0x40)\n      swap1\n      dup2\n      add\n      0x40\n      mstore\n      dup1\n      swap3\n      swap2\n      swap1\n      dup2\n      dup2\n      mstore\n      0x20\n      add\n      dup3\n      dup1\n      sload\n      tag_58\n      swap1\n      tag_57\n      jump\t// in\n    tag_58:\n      dup1\n      iszero\n      tag_59\n      jumpi\n      dup1\n      0x1f\n      lt\n      tag_60\n      jumpi\n      0x0100\n      dup1\n      dup4\n      sload\n      div\n      mul\n      dup4\n      mstore\n      swap2\n      0x20\n      add\n      swap2\n      jump(tag_59)\n    tag_60:\n      dup3\n      add\n      swap2\n      swap1\n      0x00\n      mstore\n      keccak256(0x00, 0x20)\n      swap1\n    tag_61:\n      dup2\n      sload\n      dup2\n      mstore\n      swap1\n      0x01\n      add\n      swap1\n      0x20\n      add\n      dup1\n      dup4\n      gt\n      tag_61\n      jumpi\n      dup3\n      swap1\n      sub\n      0x1f\n      and\n      dup3\n      add\n      swap2\n    tag_59:\n      pop\n      pop\n      pop\n      pop\n      pop\n      swap1\n      dup1\n      0x02\n      add\n      dup1\n      sload\n      tag_62\n      swap1\n      tag_57\n      jump\t// in\n    tag_62:\n      dup1\n      0x1f\n      add\n      0x20\n      dup1\n      swap2\n      div\n      mul\n      0x20\n      add\n      mload(0x40)\n      swap1\n      dup2\n      add\n      0x40\n      mstore\n      dup1\n      swap3\n      swap2\n      swap1\n      dup2\n      dup2\n      mstore\n      0x20\n      add\n      dup3\n      dup1\n      sload\n      tag_63\n      swap1\n      tag_57\n      jump\t// in\n    tag_63:\n      dup1\n      iszero\n      tag_64\n      jumpi\n      dup1\n      0x1f\n      lt\n      tag_65\n      jumpi\n      0x0100\n      dup1\n      dup4\n      sload\n      div\n      mul\n      dup4\n      mstore\n      swap2\n      0x20\n      add\n      swap2\n      jump(tag_64)\n    tag_65:\n      dup3\n      add\n      swap2\n      swap1\n      0x00\n      mstore\n      keccak256(0x00, 0x20)\n      swap1\n    tag_66:\n      dup2\n      sload\n      dup2\n      mstore\n      swap1\n      0x01\n      add\n      swap1\n      0x20\n      add\n      dup1\n      dup4\n      gt\n      tag_66\n      jumpi\n      dup3\n      swap1\n      sub\n      0x1f\n      and\n      dup3\n      add\n      swap2\n    tag_64:\n      pop\n      pop\n      pop\n      pop\n      pop\n      swap1\n      dup1\n      0x03\n      add\n      0x00\n      swap1\n      sload\n      swap1\n      0x0100\n      exp\n      swap1\n      div\n      0xff\n      and\n      swap1\n      pop\n      dup5\n      jump\t// out\n        /* \"ToDoApp.sol\":1851:2001  function setAsUndone(uint id) public {... */\n    tag_25:\n        /* \"ToDoApp.sol\":1928:1929  0 */\n      0x00\n        /* \"ToDoApp.sol\":1906:1913  counter */\n      0x01\n        /* \"ToDoApp.sol\":1906:1925  counter[msg.sender] */\n      0x00\n        /* \"ToDoApp.sol\":1914:1924  msg.sender */\n      caller\n        /* \"ToDoApp.sol\":1906:1925  counter[msg.sender] */\n      0xffffffffffffffffffffffffffffffffffffffff\n      and\n      0xffffffffffffffffffffffffffffffffffffffff\n      and\n      dup2\n      mstore\n      0x20\n      add\n      swap1\n      dup2\n      mstore\n      0x20\n      add\n      0x00\n      keccak256\n      sload\n        /* \"ToDoApp.sol\":1906:1929  counter[msg.sender] > 0 */\n      gt\n        /* \"ToDoApp.sol\":1898:1948  require(counter[msg.sender] > 0, \"No todos found\") */\n      tag_68\n      jumpi\n      mload(0x40)\n      0x08c379a000000000000000000000000000000000000000000000000000000000\n      dup2\n      mstore\n      0x04\n      add\n      tag_69\n      swap1\n      tag_70\n      jump\t// in\n    tag_69:\n      mload(0x40)\n      dup1\n      swap2\n      sub\n      swap1\n      revert\n    tag_68:\n        /* \"ToDoApp.sol\":1989:1994  false */\n      0x00\n        /* \"ToDoApp.sol\":1958:1963  todos */\n      dup1\n        /* \"ToDoApp.sol\":1958:1975  todos[msg.sender] */\n      0x00\n        /* \"ToDoApp.sol\":1964:1974  msg.sender */\n      caller\n        /* \"ToDoApp.sol\":1958:1975  todos[msg.sender] */\n      0xffffffffffffffffffffffffffffffffffffffff\n      and\n      0xffffffffffffffffffffffffffffffffffffffff\n      and\n      dup2\n      mstore\n      0x20\n      add\n      swap1\n      dup2\n      mstore\n      0x20\n      add\n      0x00\n      keccak256\n        /* \"ToDoApp.sol\":1976:1978  id */\n      dup3\n        /* \"ToDoApp.sol\":1958:1979  todos[msg.sender][id] */\n      dup2\n      sload\n      dup2\n      lt\n      tag_71\n      jumpi\n      tag_72\n      tag_73\n      jump\t// in\n    tag_72:\n    tag_71:\n      swap1\n      0x00\n      mstore\n      keccak256(0x00, 0x20)\n      swap1\n      0x04\n      mul\n      add\n        /* \"ToDoApp.sol\":1958:1986  todos[msg.sender][id].status */\n      0x03\n      add\n      0x00\n        /* \"ToDoApp.sol\":1958:1994  todos[msg.sender][id].status = false */\n      0x0100\n      exp\n      dup2\n      sload\n      dup2\n      0xff\n      mul\n      not\n      and\n      swap1\n      dup4\n      iszero\n      iszero\n      mul\n      or\n      swap1\n      sstore\n      pop\n        /* \"ToDoApp.sol\":1851:2001  function setAsUndone(uint id) public {... */\n      pop\n      jump\t// out\n        /* \"ToDoApp.sol\":398:440  mapping(address => uint256) public counter */\n    tag_29:\n      mstore(0x20, 0x01)\n      dup1\n      0x00\n      mstore\n      keccak256(0x00, 0x40)\n      0x00\n      swap2\n      pop\n      swap1\n      pop\n      sload\n      dup2\n      jump\t// out\n        /* \"ToDoApp.sol\":1242:1401  function getAllTodos() public view returns(ToDo[] memory) {... */\n    tag_33:\n        /* \"ToDoApp.sol\":1285:1298  ToDo[] memory */\n      0x60\n        /* \"ToDoApp.sol\":1340:1341  0 */\n      0x00\n        /* \"ToDoApp.sol\":1318:1325  counter */\n      0x01\n        /* \"ToDoApp.sol\":1318:1337  counter[msg.sender] */\n      0x00\n        /* \"ToDoApp.sol\":1326:1336  msg.sender */\n      caller\n        /* \"ToDoApp.sol\":1318:1337  counter[msg.sender] */\n      0xffffffffffffffffffffffffffffffffffffffff\n      and\n      0xffffffffffffffffffffffffffffffffffffffff\n      and\n      dup2\n      mstore\n      0x20\n      add\n      swap1\n      dup2\n      mstore\n      0x20\n      add\n      0x00\n      keccak256\n      sload\n        /* \"ToDoApp.sol\":1318:1341  counter[msg.sender] > 0 */\n      gt\n        /* \"ToDoApp.sol\":1310:1360  require(counter[msg.sender] > 0, \"No todos found\") */\n      tag_76\n      jumpi\n      mload(0x40)\n      0x08c379a000000000000000000000000000000000000000000000000000000000\n      dup2\n      mstore\n      0x04\n      add\n      tag_77\n      swap1\n      tag_70\n      jump\t// in\n    tag_77:\n      mload(0x40)\n      dup1\n      swap2\n      sub\n      swap1\n      revert\n    tag_76:\n        /* \"ToDoApp.sol\":1377:1382  todos */\n      0x00\n        /* \"ToDoApp.sol\":1377:1394  todos[msg.sender] */\n      dup1\n        /* \"ToDoApp.sol\":1383:1393  msg.sender */\n      caller\n        /* \"ToDoApp.sol\":1377:1394  todos[msg.sender] */\n      0xffffffffffffffffffffffffffffffffffffffff\n      and\n      0xffffffffffffffffffffffffffffffffffffffff\n      and\n      dup2\n      mstore\n      0x20\n      add\n      swap1\n      dup2\n      mstore\n      0x20\n      add\n      0x00\n      keccak256\n        /* \"ToDoApp.sol\":1370:1394  return todos[msg.sender] */\n      dup1\n      sload\n      dup1\n      0x20\n      mul\n      0x20\n      add\n      mload(0x40)\n      swap1\n      dup2\n      add\n      0x40\n      mstore\n      dup1\n      swap3\n      swap2\n      swap1\n      dup2\n      dup2\n      mstore\n      0x20\n      add\n      0x00\n      swap1\n    tag_78:\n      dup3\n      dup3\n      lt\n      iszero\n      tag_79\n      jumpi\n      dup4\n      dup3\n      swap1\n      0x00\n      mstore\n      keccak256(0x00, 0x20)\n      swap1\n      0x04\n      mul\n      add\n      mload(0x40)\n      dup1\n      0x80\n      add\n      0x40\n      mstore\n      swap1\n      dup2\n      0x00\n      dup3\n      add\n      sload\n      dup2\n      mstore\n      0x20\n      add\n      0x01\n      dup3\n      add\n      dup1\n      sload\n      tag_81\n      swap1\n      tag_57\n      jump\t// in\n    tag_81:\n      dup1\n      0x1f\n      add\n      0x20\n      dup1\n      swap2\n      div\n      mul\n      0x20\n      add\n      mload(0x40)\n      swap1\n      dup2\n      add\n      0x40\n      mstore\n      dup1\n      swap3\n      swap2\n      swap1\n      dup2\n      dup2\n      mstore\n      0x20\n      add\n      dup3\n      dup1\n      sload\n      tag_82\n      swap1\n      tag_57\n      jump\t// in\n    tag_82:\n      dup1\n      iszero\n      tag_83\n      jumpi\n      dup1\n      0x1f\n      lt\n      tag_84\n      jumpi\n      0x0100\n      dup1\n      dup4\n      sload\n      div\n      mul\n      dup4\n      mstore\n      swap2\n      0x20\n      add\n      swap2\n      jump(tag_83)\n    tag_84:\n      dup3\n      add\n      swap2\n      swap1\n      0x00\n      mstore\n      keccak256(0x00, 0x20)\n      swap1\n    tag_85:\n      dup2\n      sload\n      dup2\n      mstore\n      swap1\n      0x01\n      add\n      swap1\n      0x20\n      add\n      dup1\n      dup4\n      gt\n      tag_85\n      jumpi\n      dup3\n      swap1\n      sub\n      0x1f\n      and\n      dup3\n      add\n      swap2\n    tag_83:\n      pop\n      pop\n      pop\n      pop\n      pop\n      dup2\n      mstore\n      0x20\n      add\n      0x02\n      dup3\n      add\n      dup1\n      sload\n      tag_86\n      swap1\n      tag_57\n      jump\t// in\n    tag_86:\n      dup1\n      0x1f\n      add\n      0x20\n      dup1\n      swap2\n      div\n      mul\n      0x20\n      add\n      mload(0x40)\n      swap1\n      dup2\n      add\n      0x40\n      mstore\n      dup1\n      swap3\n      swap2\n      swap1\n      dup2\n      dup2\n      mstore\n      0x20\n      add\n      dup3\n      dup1\n      sload\n      tag_87\n      swap1\n      tag_57\n      jump\t// in\n    tag_87:\n      dup1\n      iszero\n      tag_88\n      jumpi\n      dup1\n      0x1f\n      lt\n      tag_89\n      jumpi\n      0x0100\n      dup1\n      dup4\n      sload\n      div\n      mul\n      dup4\n      mstore\n      swap2\n      0x20\n      add\n      swap2\n      jump(tag_88)\n    tag_89:\n      dup3\n      add\n      swap2\n      swap1\n      0x00\n      mstore\n      keccak256(0x00, 0x20)\n      swap1\n    tag_90:\n      dup2\n      sload\n      dup2\n      mstore\n      swap1\n      0x01\n      add\n      swap1\n      0x20\n      add\n      dup1\n      dup4\n      gt\n      tag_90\n      jumpi\n      dup3\n      swap1\n      sub\n      0x1f\n      and\n      dup3\n      add\n      swap2\n    tag_88:\n      pop\n      pop\n      pop\n      pop\n      pop\n      dup2\n      mstore\n      0x20\n      add\n      0x03\n      dup3\n      add\n      0x00\n      swap1\n      sload\n      swap1\n      0x0100\n      exp\n      swap1\n      div\n      0xff\n      and\n      iszero\n      iszero\n      iszero\n      iszero\n      dup2\n      mstore\n      pop\n      pop\n      dup2\n      mstore\n      0x20\n      add\n      swap1\n      0x01\n      add\n      swap1\n      jump(tag_78)\n    tag_79:\n      pop\n      pop\n      pop\n      pop\n      swap1\n      pop\n        /* \"ToDoApp.sol\":1242:1401  function getAllTodos() public view returns(ToDo[] memory) {... */\n      swap1\n      jump\t// out\n        /* \"ToDoApp.sol\":1451:1540  function getAmount() public view returns(uint){... */\n    tag_37:\n        /* \"ToDoApp.sol\":1492:1496  uint */\n      0x00\n        /* \"ToDoApp.sol\":1514:1521  counter */\n      0x01\n        /* \"ToDoApp.sol\":1514:1533  counter[msg.sender] */\n      0x00\n        /* \"ToDoApp.sol\":1522:1532  msg.sender */\n      caller\n        /* \"ToDoApp.sol\":1514:1533  counter[msg.sender] */\n      0xffffffffffffffffffffffffffffffffffffffff\n      and\n      0xffffffffffffffffffffffffffffffffffffffff\n      and\n      dup2\n      mstore\n      0x20\n      add\n      swap1\n      dup2\n      mstore\n      0x20\n      add\n      0x00\n      keccak256\n      sload\n        /* \"ToDoApp.sol\":1507:1533  return counter[msg.sender] */\n      swap1\n      pop\n        /* \"ToDoApp.sol\":1451:1540  function getAmount() public view returns(uint){... */\n      swap1\n      jump\t// out\n        /* \"ToDoApp.sol\":972:1164  function getTodo(uint id) public view returns(ToDo memory) {... */\n    tag_41:\n        /* \"ToDoApp.sol\":1018:1029  ToDo memory */\n      tag_92\n      tag_93\n      jump\t// in\n    tag_92:\n        /* \"ToDoApp.sol\":1054:1055  0 */\n      0x00\n        /* \"ToDoApp.sol\":1049:1051  id */\n      dup3\n        /* \"ToDoApp.sol\":1049:1055  id > 0 */\n      gt\n        /* \"ToDoApp.sol\":1049:1084  id > 0 && id <= counter[msg.sender] */\n      dup1\n      iszero\n      tag_95\n      jumpi\n      pop\n        /* \"ToDoApp.sol\":1065:1072  counter */\n      0x01\n        /* \"ToDoApp.sol\":1065:1084  counter[msg.sender] */\n      0x00\n        /* \"ToDoApp.sol\":1073:1083  msg.sender */\n      caller\n        /* \"ToDoApp.sol\":1065:1084  counter[msg.sender] */\n      0xffffffffffffffffffffffffffffffffffffffff\n      and\n      0xffffffffffffffffffffffffffffffffffffffff\n      and\n      dup2\n      mstore\n      0x20\n      add\n      swap1\n      dup2\n      mstore\n      0x20\n      add\n      0x00\n      keccak256\n      sload\n        /* \"ToDoApp.sol\":1059:1061  id */\n      dup3\n        /* \"ToDoApp.sol\":1059:1084  id <= counter[msg.sender] */\n      gt\n      iszero\n        /* \"ToDoApp.sol\":1049:1084  id > 0 && id <= counter[msg.sender] */\n    tag_95:\n        /* \"ToDoApp.sol\":1041:1119  require(id > 0 && id <= counter[msg.sender], \"Todo with current ID not found\") */\n      tag_96\n      jumpi\n      mload(0x40)\n      0x08c379a000000000000000000000000000000000000000000000000000000000\n      dup2\n      mstore\n      0x04\n      add\n      tag_97\n      swap1\n      tag_98\n      jump\t// in\n    tag_97:\n      mload(0x40)\n      dup1\n      swap2\n      sub\n      swap1\n      revert\n    tag_96:\n        /* \"ToDoApp.sol\":1136:1141  todos */\n      0x00\n        /* \"ToDoApp.sol\":1136:1153  todos[msg.sender] */\n      dup1\n        /* \"ToDoApp.sol\":1142:1152  msg.sender */\n      caller\n        /* \"ToDoApp.sol\":1136:1153  todos[msg.sender] */\n      0xffffffffffffffffffffffffffffffffffffffff\n      and\n      0xffffffffffffffffffffffffffffffffffffffff\n      and\n      dup2\n      mstore\n      0x20\n      add\n      swap1\n      dup2\n      mstore\n      0x20\n      add\n      0x00\n      keccak256\n        /* \"ToDoApp.sol\":1154:1156  id */\n      dup3\n        /* \"ToDoApp.sol\":1136:1157  todos[msg.sender][id] */\n      dup2\n      sload\n      dup2\n      lt\n      tag_99\n      jumpi\n      tag_100\n      tag_73\n      jump\t// in\n    tag_100:\n    tag_99:\n      swap1\n      0x00\n      mstore\n      keccak256(0x00, 0x20)\n      swap1\n      0x04\n      mul\n      add\n        /* \"ToDoApp.sol\":1129:1157  return todos[msg.sender][id] */\n      mload(0x40)\n      dup1\n      0x80\n      add\n      0x40\n      mstore\n      swap1\n      dup2\n      0x00\n      dup3\n      add\n      sload\n      dup2\n      mstore\n      0x20\n      add\n      0x01\n      dup3\n      add\n      dup1\n      sload\n      tag_102\n      swap1\n      tag_57\n      jump\t// in\n    tag_102:\n      dup1\n      0x1f\n      add\n      0x20\n      dup1\n      swap2\n      div\n      mul\n      0x20\n      add\n      mload(0x40)\n      swap1\n      dup2\n      add\n      0x40\n      mstore\n      dup1\n      swap3\n      swap2\n      swap1\n      dup2\n      dup2\n      mstore\n      0x20\n      add\n      dup3\n      dup1\n      sload\n      tag_103\n      swap1\n      tag_57\n      jump\t// in\n    tag_103:\n      dup1\n      iszero\n      tag_104\n      jumpi\n      dup1\n      0x1f\n      lt\n      tag_105\n      jumpi\n      0x0100\n      dup1\n      dup4\n      sload\n      div\n      mul\n      dup4\n      mstore\n      swap2\n      0x20\n      add\n      swap2\n      jump(tag_104)\n    tag_105:\n      dup3\n      add\n      swap2\n      swap1\n      0x00\n      mstore\n      keccak256(0x00, 0x20)\n      swap1\n    tag_106:\n      dup2\n      sload\n      dup2\n      mstore\n      swap1\n      0x01\n      add\n      swap1\n      0x20\n      add\n      dup1\n      dup4\n      gt\n      tag_106\n      jumpi\n      dup3\n      swap1\n      sub\n      0x1f\n      and\n      dup3\n      add\n      swap2\n    tag_104:\n      pop\n      pop\n      pop\n      pop\n      pop\n      dup2\n      mstore\n      0x20\n      add\n      0x02\n      dup3\n      add\n      dup1\n      sload\n      tag_107\n      swap1\n      tag_57\n      jump\t// in\n    tag_107:\n      dup1\n      0x1f\n      add\n      0x20\n      dup1\n      swap2\n      div\n      mul\n      0x20\n      add\n      mload(0x40)\n      swap1\n      dup2\n      add\n      0x40\n      mstore\n      dup1\n      swap3\n      swap2\n      swap1\n      dup2\n      dup2\n      mstore\n      0x20\n      add\n      dup3\n      dup1\n      sload\n      tag_108\n      swap1\n      tag_57\n      jump\t// in\n    tag_108:\n      dup1\n      iszero\n      tag_109\n      jumpi\n      dup1\n      0x1f\n      lt\n      tag_110\n      jumpi\n      0x0100\n      dup1\n      dup4\n      sload\n      div\n      mul\n      dup4\n      mstore\n      swap2\n      0x20\n      add\n      swap2\n      jump(tag_109)\n    tag_110:\n      dup3\n      add\n      swap2\n      swap1\n      0x00\n      mstore\n      keccak256(0x00, 0x20)\n      swap1\n    tag_111:\n      dup2\n      sload\n      dup2\n      mstore\n      swap1\n      0x01\n      add\n      swap1\n      0x20\n      add\n      dup1\n      dup4\n      gt\n      tag_111\n      jumpi\n      dup3\n      swap1\n      sub\n      0x1f\n      and\n      dup3\n      add\n      swap2\n    tag_109:\n      pop\n      pop\n      pop\n      pop\n      pop\n      dup2\n      mstore\n      0x20\n      add\n      0x03\n      dup3\n      add\n      0x00\n      swap1\n      sload\n      swap1\n      0x0100\n      exp\n      swap1\n      div\n      0xff\n      and\n      iszero\n      iszero\n      iszero\n      iszero\n      dup2\n      mstore\n      pop\n      pop\n      swap1\n      pop\n        /* \"ToDoApp.sol\":972:1164  function getTodo(uint id) public view returns(ToDo memory) {... */\n      swap2\n      swap1\n      pop\n      jump\t// out\n        /* \"ToDoApp.sol\":1621:1768  function setAsDone(uint id) public {... */\n    tag_46:\n        /* \"ToDoApp.sol\":1696:1697  0 */\n      0x00\n        /* \"ToDoApp.sol\":1674:1681  counter */\n      0x01\n        /* \"ToDoApp.sol\":1674:1693  counter[msg.sender] */\n      0x00\n        /* \"ToDoApp.sol\":1682:1692  msg.sender */\n      caller\n        /* \"ToDoApp.sol\":1674:1693  counter[msg.sender] */\n      0xffffffffffffffffffffffffffffffffffffffff\n      and\n      0xffffffffffffffffffffffffffffffffffffffff\n      and\n      dup2\n      mstore\n      0x20\n      add\n      swap1\n      dup2\n      mstore\n      0x20\n      add\n      0x00\n      keccak256\n      sload\n        /* \"ToDoApp.sol\":1674:1697  counter[msg.sender] > 0 */\n      gt\n        /* \"ToDoApp.sol\":1666:1716  require(counter[msg.sender] > 0, \"No todos found\") */\n      tag_113\n      jumpi\n      mload(0x40)\n      0x08c379a000000000000000000000000000000000000000000000000000000000\n      dup2\n      mstore\n      0x04\n      add\n      tag_114\n      swap1\n      tag_70\n      jump\t// in\n    tag_114:\n      mload(0x40)\n      dup1\n      swap2\n      sub\n      swap1\n      revert\n    tag_113:\n        /* \"ToDoApp.sol\":1757:1761  true */\n      0x01\n        /* \"ToDoApp.sol\":1726:1731  todos */\n      0x00\n        /* \"ToDoApp.sol\":1726:1743  todos[msg.sender] */\n      dup1\n        /* \"ToDoApp.sol\":1732:1742  msg.sender */\n      caller\n        /* \"ToDoApp.sol\":1726:1743  todos[msg.sender] */\n      0xffffffffffffffffffffffffffffffffffffffff\n      and\n      0xffffffffffffffffffffffffffffffffffffffff\n      and\n      dup2\n      mstore\n      0x20\n      add\n      swap1\n      dup2\n      mstore\n      0x20\n      add\n      0x00\n      keccak256\n        /* \"ToDoApp.sol\":1744:1746  id */\n      dup3\n        /* \"ToDoApp.sol\":1726:1747  todos[msg.sender][id] */\n      dup2\n      sload\n      dup2\n      lt\n      tag_115\n      jumpi\n      tag_116\n      tag_73\n      jump\t// in\n    tag_116:\n    tag_115:\n      swap1\n      0x00\n      mstore\n      keccak256(0x00, 0x20)\n      swap1\n      0x04\n      mul\n      add\n        /* \"ToDoApp.sol\":1726:1754  todos[msg.sender][id].status */\n      0x03\n      add\n      0x00\n        /* \"ToDoApp.sol\":1726:1761  todos[msg.sender][id].status = true */\n      0x0100\n      exp\n      dup2\n      sload\n      dup2\n      0xff\n      mul\n      not\n      and\n      swap1\n      dup4\n      iszero\n      iszero\n      mul\n      or\n      swap1\n      sstore\n      pop\n        /* \"ToDoApp.sol\":1621:1768  function setAsDone(uint id) public {... */\n      pop\n      jump\t// out\n    tag_52:\n      dup3\n      dup1\n      sload\n      tag_118\n      swap1\n      tag_57\n      jump\t// in\n    tag_118:\n      swap1\n      0x00\n      mstore\n      keccak256(0x00, 0x20)\n      swap1\n      0x1f\n      add\n      0x20\n      swap1\n      div\n      dup2\n      add\n      swap3\n      dup3\n      tag_120\n      jumpi\n      0x00\n      dup6\n      sstore\n      jump(tag_119)\n    tag_120:\n      dup3\n      0x1f\n      lt\n      tag_121\n      jumpi\n      dup1\n      mload\n      not(0xff)\n      and\n      dup4\n      dup1\n      add\n      or\n      dup6\n      sstore\n      jump(tag_119)\n    tag_121:\n      dup3\n      dup1\n      add\n      0x01\n      add\n      dup6\n      sstore\n      dup3\n      iszero\n      tag_119\n      jumpi\n      swap2\n      dup3\n      add\n    tag_122:\n      dup3\n      dup2\n      gt\n      iszero\n      tag_123\n      jumpi\n      dup3\n      mload\n      dup3\n      sstore\n      swap2\n      0x20\n      add\n      swap2\n      swap1\n      0x01\n      add\n      swap1\n      jump(tag_122)\n    tag_123:\n    tag_119:\n      pop\n      swap1\n      pop\n      tag_124\n      swap2\n      swap1\n      tag_125\n      jump\t// in\n    tag_124:\n      pop\n      swap1\n      jump\t// out\n    tag_93:\n      mload(0x40)\n      dup1\n      0x80\n      add\n      0x40\n      mstore\n      dup1\n      0x00\n      dup2\n      mstore\n      0x20\n      add\n      0x60\n      dup2\n      mstore\n      0x20\n      add\n      0x60\n      dup2\n      mstore\n      0x20\n      add\n      iszero(iszero(0x00))\n      dup2\n      mstore\n      pop\n      swap1\n      jump\t// out\n    tag_125:\n    tag_126:\n      dup1\n      dup3\n      gt\n      iszero\n      tag_127\n      jumpi\n      0x00\n      dup2\n      0x00\n      swap1\n      sstore\n      pop\n      0x01\n      add\n      jump(tag_126)\n    tag_127:\n      pop\n      swap1\n      jump\t// out\n        /* \"#utility.yul\":7:419   */\n    tag_129:\n        /* \"#utility.yul\":85:90   */\n      0x00\n        /* \"#utility.yul\":110:176   */\n      tag_131\n        /* \"#utility.yul\":126:175   */\n      tag_132\n        /* \"#utility.yul\":168:174   */\n      dup5\n        /* \"#utility.yul\":126:175   */\n      tag_133\n      jump\t// in\n    tag_132:\n        /* \"#utility.yul\":110:176   */\n      tag_134\n      jump\t// in\n    tag_131:\n        /* \"#utility.yul\":101:176   */\n      swap1\n      pop\n        /* \"#utility.yul\":199:205   */\n      dup3\n        /* \"#utility.yul\":192:197   */\n      dup2\n        /* \"#utility.yul\":185:206   */\n      mstore\n        /* \"#utility.yul\":237:241   */\n      0x20\n        /* \"#utility.yul\":230:235   */\n      dup2\n        /* \"#utility.yul\":226:242   */\n      add\n        /* \"#utility.yul\":275:278   */\n      dup5\n        /* \"#utility.yul\":266:272   */\n      dup5\n        /* \"#utility.yul\":261:264   */\n      dup5\n        /* \"#utility.yul\":257:273   */\n      add\n        /* \"#utility.yul\":254:279   */\n      gt\n        /* \"#utility.yul\":251:363   */\n      iszero\n      tag_135\n      jumpi\n        /* \"#utility.yul\":282:361   */\n      tag_136\n      tag_137\n      jump\t// in\n    tag_136:\n        /* \"#utility.yul\":251:363   */\n    tag_135:\n        /* \"#utility.yul\":372:413   */\n      tag_138\n        /* \"#utility.yul\":406:412   */\n      dup5\n        /* \"#utility.yul\":401:404   */\n      dup3\n        /* \"#utility.yul\":396:399   */\n      dup6\n        /* \"#utility.yul\":372:413   */\n      tag_139\n      jump\t// in\n    tag_138:\n        /* \"#utility.yul\":91:419   */\n      pop\n        /* \"#utility.yul\":7:419   */\n      swap4\n      swap3\n      pop\n      pop\n      pop\n      jump\t// out\n        /* \"#utility.yul\":425:564   */\n    tag_140:\n        /* \"#utility.yul\":471:476   */\n      0x00\n        /* \"#utility.yul\":509:515   */\n      dup2\n        /* \"#utility.yul\":496:516   */\n      calldataload\n        /* \"#utility.yul\":487:516   */\n      swap1\n      pop\n        /* \"#utility.yul\":525:558   */\n      tag_142\n        /* \"#utility.yul\":552:557   */\n      dup2\n        /* \"#utility.yul\":525:558   */\n      tag_143\n      jump\t// in\n    tag_142:\n        /* \"#utility.yul\":425:564   */\n      swap3\n      swap2\n      pop\n      pop\n      jump\t// out\n        /* \"#utility.yul\":584:924   */\n    tag_144:\n        /* \"#utility.yul\":640:645   */\n      0x00\n        /* \"#utility.yul\":689:692   */\n      dup3\n        /* \"#utility.yul\":682:686   */\n      0x1f\n        /* \"#utility.yul\":674:680   */\n      dup4\n        /* \"#utility.yul\":670:687   */\n      add\n        /* \"#utility.yul\":666:693   */\n      slt\n        /* \"#utility.yul\":656:778   */\n      tag_146\n      jumpi\n        /* \"#utility.yul\":697:776   */\n      tag_147\n      tag_148\n      jump\t// in\n    tag_147:\n        /* \"#utility.yul\":656:778   */\n    tag_146:\n        /* \"#utility.yul\":814:820   */\n      dup2\n        /* \"#utility.yul\":801:821   */\n      calldataload\n        /* \"#utility.yul\":839:918   */\n      tag_149\n        /* \"#utility.yul\":914:917   */\n      dup5\n        /* \"#utility.yul\":906:912   */\n      dup3\n        /* \"#utility.yul\":899:903   */\n      0x20\n        /* \"#utility.yul\":891:897   */\n      dup7\n        /* \"#utility.yul\":887:904   */\n      add\n        /* \"#utility.yul\":839:918   */\n      tag_129\n      jump\t// in\n    tag_149:\n        /* \"#utility.yul\":830:918   */\n      swap2\n      pop\n        /* \"#utility.yul\":646:924   */\n      pop\n        /* \"#utility.yul\":584:924   */\n      swap3\n      swap2\n      pop\n      pop\n      jump\t// out\n        /* \"#utility.yul\":930:1069   */\n    tag_150:\n        /* \"#utility.yul\":976:981   */\n      0x00\n        /* \"#utility.yul\":1014:1020   */\n      dup2\n        /* \"#utility.yul\":1001:1021   */\n      calldataload\n        /* \"#utility.yul\":992:1021   */\n      swap1\n      pop\n        /* \"#utility.yul\":1030:1063   */\n      tag_152\n        /* \"#utility.yul\":1057:1062   */\n      dup2\n        /* \"#utility.yul\":1030:1063   */\n      tag_153\n      jump\t// in\n    tag_152:\n        /* \"#utility.yul\":930:1069   */\n      swap3\n      swap2\n      pop\n      pop\n      jump\t// out\n        /* \"#utility.yul\":1075:1404   */\n    tag_28:\n        /* \"#utility.yul\":1134:1140   */\n      0x00\n        /* \"#utility.yul\":1183:1185   */\n      0x20\n        /* \"#utility.yul\":1171:1180   */\n      dup3\n        /* \"#utility.yul\":1162:1169   */\n      dup5\n        /* \"#utility.yul\":1158:1181   */\n      sub\n        /* \"#utility.yul\":1154:1186   */\n      slt\n        /* \"#utility.yul\":1151:1270   */\n      iszero\n      tag_155\n      jumpi\n        /* \"#utility.yul\":1189:1268   */\n      tag_156\n      tag_157\n      jump\t// in\n    tag_156:\n        /* \"#utility.yul\":1151:1270   */\n    tag_155:\n        /* \"#utility.yul\":1309:1310   */\n      0x00\n        /* \"#utility.yul\":1334:1387   */\n      tag_158\n        /* \"#utility.yul\":1379:1386   */\n      dup5\n        /* \"#utility.yul\":1370:1376   */\n      dup3\n        /* \"#utility.yul\":1359:1368   */\n      dup6\n        /* \"#utility.yul\":1355:1377   */\n      add\n        /* \"#utility.yul\":1334:1387   */\n      tag_140\n      jump\t// in\n    tag_158:\n        /* \"#utility.yul\":1324:1387   */\n      swap2\n      pop\n        /* \"#utility.yul\":1280:1397   */\n      pop\n        /* \"#utility.yul\":1075:1404   */\n      swap3\n      swap2\n      pop\n      pop\n      jump\t// out\n        /* \"#utility.yul\":1410:1884   */\n    tag_18:\n        /* \"#utility.yul\":1478:1484   */\n      0x00\n        /* \"#utility.yul\":1486:1492   */\n      dup1\n        /* \"#utility.yul\":1535:1537   */\n      0x40\n        /* \"#utility.yul\":1523:1532   */\n      dup4\n        /* \"#utility.yul\":1514:1521   */\n      dup6\n        /* \"#utility.yul\":1510:1533   */\n      sub\n        /* \"#utility.yul\":1506:1538   */\n      slt\n        /* \"#utility.yul\":1503:1622   */\n      iszero\n      tag_160\n      jumpi\n        /* \"#utility.yul\":1541:1620   */\n      tag_161\n      tag_157\n      jump\t// in\n    tag_161:\n        /* \"#utility.yul\":1503:1622   */\n    tag_160:\n        /* \"#utility.yul\":1661:1662   */\n      0x00\n        /* \"#utility.yul\":1686:1739   */\n      tag_162\n        /* \"#utility.yul\":1731:1738   */\n      dup6\n        /* \"#utility.yul\":1722:1728   */\n      dup3\n        /* \"#utility.yul\":1711:1720   */\n      dup7\n        /* \"#utility.yul\":1707:1729   */\n      add\n        /* \"#utility.yul\":1686:1739   */\n      tag_140\n      jump\t// in\n    tag_162:\n        /* \"#utility.yul\":1676:1739   */\n      swap3\n      pop\n        /* \"#utility.yul\":1632:1749   */\n      pop\n        /* \"#utility.yul\":1788:1790   */\n      0x20\n        /* \"#utility.yul\":1814:1867   */\n      tag_163\n        /* \"#utility.yul\":1859:1866   */\n      dup6\n        /* \"#utility.yul\":1850:1856   */\n      dup3\n        /* \"#utility.yul\":1839:1848   */\n      dup7\n        /* \"#utility.yul\":1835:1857   */\n      add\n        /* \"#utility.yul\":1814:1867   */\n      tag_150\n      jump\t// in\n    tag_163:\n        /* \"#utility.yul\":1804:1867   */\n      swap2\n      pop\n        /* \"#utility.yul\":1759:1877   */\n      pop\n        /* \"#utility.yul\":1410:1884   */\n      swap3\n      pop\n      swap3\n      swap1\n      pop\n      jump\t// out\n        /* \"#utility.yul\":1890:2724   */\n    tag_14:\n        /* \"#utility.yul\":1978:1984   */\n      0x00\n        /* \"#utility.yul\":1986:1992   */\n      dup1\n        /* \"#utility.yul\":2035:2037   */\n      0x40\n        /* \"#utility.yul\":2023:2032   */\n      dup4\n        /* \"#utility.yul\":2014:2021   */\n      dup6\n        /* \"#utility.yul\":2010:2033   */\n      sub\n        /* \"#utility.yul\":2006:2038   */\n      slt\n        /* \"#utility.yul\":2003:2122   */\n      iszero\n      tag_165\n      jumpi\n        /* \"#utility.yul\":2041:2120   */\n      tag_166\n      tag_157\n      jump\t// in\n    tag_166:\n        /* \"#utility.yul\":2003:2122   */\n    tag_165:\n        /* \"#utility.yul\":2189:2190   */\n      0x00\n        /* \"#utility.yul\":2178:2187   */\n      dup4\n        /* \"#utility.yul\":2174:2191   */\n      add\n        /* \"#utility.yul\":2161:2192   */\n      calldataload\n        /* \"#utility.yul\":2219:2237   */\n      0xffffffffffffffff\n        /* \"#utility.yul\":2211:2217   */\n      dup2\n        /* \"#utility.yul\":2208:2238   */\n      gt\n        /* \"#utility.yul\":2205:2322   */\n      iszero\n      tag_167\n      jumpi\n        /* \"#utility.yul\":2241:2320   */\n      tag_168\n      tag_169\n      jump\t// in\n    tag_168:\n        /* \"#utility.yul\":2205:2322   */\n    tag_167:\n        /* \"#utility.yul\":2346:2409   */\n      tag_170\n        /* \"#utility.yul\":2401:2408   */\n      dup6\n        /* \"#utility.yul\":2392:2398   */\n      dup3\n        /* \"#utility.yul\":2381:2390   */\n      dup7\n        /* \"#utility.yul\":2377:2399   */\n      add\n        /* \"#utility.yul\":2346:2409   */\n      tag_144\n      jump\t// in\n    tag_170:\n        /* \"#utility.yul\":2336:2409   */\n      swap3\n      pop\n        /* \"#utility.yul\":2132:2419   */\n      pop\n        /* \"#utility.yul\":2486:2488   */\n      0x20\n        /* \"#utility.yul\":2475:2484   */\n      dup4\n        /* \"#utility.yul\":2471:2489   */\n      add\n        /* \"#utility.yul\":2458:2490   */\n      calldataload\n        /* \"#utility.yul\":2517:2535   */\n      0xffffffffffffffff\n        /* \"#utility.yul\":2509:2515   */\n      dup2\n        /* \"#utility.yul\":2506:2536   */\n      gt\n        /* \"#utility.yul\":2503:2620   */\n      iszero\n      tag_171\n      jumpi\n        /* \"#utility.yul\":2539:2618   */\n      tag_172\n      tag_169\n      jump\t// in\n    tag_172:\n        /* \"#utility.yul\":2503:2620   */\n    tag_171:\n        /* \"#utility.yul\":2644:2707   */\n      tag_173\n        /* \"#utility.yul\":2699:2706   */\n      dup6\n        /* \"#utility.yul\":2690:2696   */\n      dup3\n        /* \"#utility.yul\":2679:2688   */\n      dup7\n        /* \"#utility.yul\":2675:2697   */\n      add\n        /* \"#utility.yul\":2644:2707   */\n      tag_144\n      jump\t// in\n    tag_173:\n        /* \"#utility.yul\":2634:2707   */\n      swap2\n      pop\n        /* \"#utility.yul\":2429:2717   */\n      pop\n        /* \"#utility.yul\":1890:2724   */\n      swap3\n      pop\n      swap3\n      swap1\n      pop\n      jump\t// out\n        /* \"#utility.yul\":2730:3059   */\n    tag_24:\n        /* \"#utility.yul\":2789:2795   */\n      0x00\n        /* \"#utility.yul\":2838:2840   */\n      0x20\n        /* \"#utility.yul\":2826:2835   */\n      dup3\n        /* \"#utility.yul\":2817:2824   */\n      dup5\n        /* \"#utility.yul\":2813:2836   */\n      sub\n        /* \"#utility.yul\":2809:2841   */\n      slt\n        /* \"#utility.yul\":2806:2925   */\n      iszero\n      tag_175\n      jumpi\n        /* \"#utility.yul\":2844:2923   */\n      tag_176\n      tag_157\n      jump\t// in\n    tag_176:\n        /* \"#utility.yul\":2806:2925   */\n    tag_175:\n        /* \"#utility.yul\":2964:2965   */\n      0x00\n        /* \"#utility.yul\":2989:3042   */\n      tag_177\n        /* \"#utility.yul\":3034:3041   */\n      dup5\n        /* \"#utility.yul\":3025:3031   */\n      dup3\n        /* \"#utility.yul\":3014:3023   */\n      dup6\n        /* \"#utility.yul\":3010:3032   */\n      add\n        /* \"#utility.yul\":2989:3042   */\n      tag_150\n      jump\t// in\n    tag_177:\n        /* \"#utility.yul\":2979:3042   */\n      swap2\n      pop\n        /* \"#utility.yul\":2935:3052   */\n      pop\n        /* \"#utility.yul\":2730:3059   */\n      swap3\n      swap2\n      pop\n      pop\n      jump\t// out\n        /* \"#utility.yul\":3065:3301   */\n    tag_178:\n        /* \"#utility.yul\":3174:3184   */\n      0x00\n        /* \"#utility.yul\":3209:3295   */\n      tag_180\n        /* \"#utility.yul\":3291:3294   */\n      dup4\n        /* \"#utility.yul\":3283:3289   */\n      dup4\n        /* \"#utility.yul\":3209:3295   */\n      tag_181\n      jump\t// in\n    tag_180:\n        /* \"#utility.yul\":3195:3295   */\n      swap1\n      pop\n        /* \"#utility.yul\":3065:3301   */\n      swap3\n      swap2\n      pop\n      pop\n      jump\t// out\n        /* \"#utility.yul\":3361:4432   */\n    tag_182:\n        /* \"#utility.yul\":3520:3523   */\n      0x00\n        /* \"#utility.yul\":3549:3623   */\n      tag_184\n        /* \"#utility.yul\":3617:3622   */\n      dup3\n        /* \"#utility.yul\":3549:3623   */\n      tag_185\n      jump\t// in\n    tag_184:\n        /* \"#utility.yul\":3639:3745   */\n      tag_186\n        /* \"#utility.yul\":3738:3744   */\n      dup2\n        /* \"#utility.yul\":3733:3736   */\n      dup6\n        /* \"#utility.yul\":3639:3745   */\n      tag_187\n      jump\t// in\n    tag_186:\n        /* \"#utility.yul\":3632:3745   */\n      swap4\n      pop\n        /* \"#utility.yul\":3771:3774   */\n      dup4\n        /* \"#utility.yul\":3816:3820   */\n      0x20\n        /* \"#utility.yul\":3808:3814   */\n      dup3\n        /* \"#utility.yul\":3804:3821   */\n      mul\n        /* \"#utility.yul\":3799:3802   */\n      dup6\n        /* \"#utility.yul\":3795:3822   */\n      add\n        /* \"#utility.yul\":3846:3922   */\n      tag_188\n        /* \"#utility.yul\":3916:3921   */\n      dup6\n        /* \"#utility.yul\":3846:3922   */\n      tag_189\n      jump\t// in\n    tag_188:\n        /* \"#utility.yul\":3945:3952   */\n      dup1\n        /* \"#utility.yul\":3976:3977   */\n      0x00\n        /* \"#utility.yul\":3961:4387   */\n    tag_190:\n        /* \"#utility.yul\":3986:3992   */\n      dup6\n        /* \"#utility.yul\":3983:3984   */\n      dup2\n        /* \"#utility.yul\":3980:3993   */\n      lt\n        /* \"#utility.yul\":3961:4387   */\n      iszero\n      tag_192\n      jumpi\n        /* \"#utility.yul\":4057:4066   */\n      dup5\n        /* \"#utility.yul\":4051:4055   */\n      dup5\n        /* \"#utility.yul\":4047:4067   */\n      sub\n        /* \"#utility.yul\":4042:4045   */\n      dup10\n        /* \"#utility.yul\":4035:4068   */\n      mstore\n        /* \"#utility.yul\":4108:4114   */\n      dup2\n        /* \"#utility.yul\":4102:4115   */\n      mload\n        /* \"#utility.yul\":4136:4240   */\n      tag_193\n        /* \"#utility.yul\":4235:4239   */\n      dup6\n        /* \"#utility.yul\":4220:4233   */\n      dup3\n        /* \"#utility.yul\":4136:4240   */\n      tag_178\n      jump\t// in\n    tag_193:\n        /* \"#utility.yul\":4128:4240   */\n      swap5\n      pop\n        /* \"#utility.yul\":4263:4343   */\n      tag_194\n        /* \"#utility.yul\":4336:4342   */\n      dup4\n        /* \"#utility.yul\":4263:4343   */\n      tag_195\n      jump\t// in\n    tag_194:\n        /* \"#utility.yul\":4253:4343   */\n      swap3\n      pop\n        /* \"#utility.yul\":4372:4376   */\n      0x20\n        /* \"#utility.yul\":4367:4370   */\n      dup11\n        /* \"#utility.yul\":4363:4377   */\n      add\n        /* \"#utility.yul\":4356:4377   */\n      swap10\n      pop\n        /* \"#utility.yul\":4021:4387   */\n      pop\n        /* \"#utility.yul\":4008:4009   */\n      0x01\n        /* \"#utility.yul\":4005:4006   */\n      dup2\n        /* \"#utility.yul\":4001:4010   */\n      add\n        /* \"#utility.yul\":3996:4010   */\n      swap1\n      pop\n        /* \"#utility.yul\":3961:4387   */\n      jump(tag_190)\n    tag_192:\n        /* \"#utility.yul\":3965:3979   */\n      pop\n        /* \"#utility.yul\":4403:4407   */\n      dup3\n        /* \"#utility.yul\":4396:4407   */\n      swap8\n      pop\n        /* \"#utility.yul\":4423:4426   */\n      dup8\n        /* \"#utility.yul\":4416:4426   */\n      swap6\n      pop\n        /* \"#utility.yul\":3525:4432   */\n      pop\n      pop\n      pop\n      pop\n      pop\n        /* \"#utility.yul\":3361:4432   */\n      swap3\n      swap2\n      pop\n      pop\n      jump\t// out\n        /* \"#utility.yul\":4438:4537   */\n    tag_196:\n        /* \"#utility.yul\":4509:4530   */\n      tag_198\n        /* \"#utility.yul\":4524:4529   */\n      dup2\n        /* \"#utility.yul\":4509:4530   */\n      tag_199\n      jump\t// in\n    tag_198:\n        /* \"#utility.yul\":4504:4507   */\n      dup3\n        /* \"#utility.yul\":4497:4531   */\n      mstore\n        /* \"#utility.yul\":4438:4537   */\n      pop\n      pop\n      jump\t// out\n        /* \"#utility.yul\":4543:4652   */\n    tag_200:\n        /* \"#utility.yul\":4624:4645   */\n      tag_202\n        /* \"#utility.yul\":4639:4644   */\n      dup2\n        /* \"#utility.yul\":4624:4645   */\n      tag_199\n      jump\t// in\n    tag_202:\n        /* \"#utility.yul\":4619:4622   */\n      dup3\n        /* \"#utility.yul\":4612:4646   */\n      mstore\n        /* \"#utility.yul\":4543:4652   */\n      pop\n      pop\n      jump\t// out\n        /* \"#utility.yul\":4658:5002   */\n    tag_203:\n        /* \"#utility.yul\":4736:4739   */\n      0x00\n        /* \"#utility.yul\":4764:4803   */\n      tag_205\n        /* \"#utility.yul\":4797:4802   */\n      dup3\n        /* \"#utility.yul\":4764:4803   */\n      tag_206\n      jump\t// in\n    tag_205:\n        /* \"#utility.yul\":4819:4880   */\n      tag_207\n        /* \"#utility.yul\":4873:4879   */\n      dup2\n        /* \"#utility.yul\":4868:4871   */\n      dup6\n        /* \"#utility.yul\":4819:4880   */\n      tag_208\n      jump\t// in\n    tag_207:\n        /* \"#utility.yul\":4812:4880   */\n      swap4\n      pop\n        /* \"#utility.yul\":4889:4941   */\n      tag_209\n        /* \"#utility.yul\":4934:4940   */\n      dup2\n        /* \"#utility.yul\":4929:4932   */\n      dup6\n        /* \"#utility.yul\":4922:4926   */\n      0x20\n        /* \"#utility.yul\":4915:4920   */\n      dup7\n        /* \"#utility.yul\":4911:4927   */\n      add\n        /* \"#utility.yul\":4889:4941   */\n      tag_210\n      jump\t// in\n    tag_209:\n        /* \"#utility.yul\":4966:4995   */\n      tag_211\n        /* \"#utility.yul\":4988:4994   */\n      dup2\n        /* \"#utility.yul\":4966:4995   */\n      tag_212\n      jump\t// in\n    tag_211:\n        /* \"#utility.yul\":4961:4964   */\n      dup5\n        /* \"#utility.yul\":4957:4996   */\n      add\n        /* \"#utility.yul\":4950:4996   */\n      swap2\n      pop\n        /* \"#utility.yul\":4740:5002   */\n      pop\n        /* \"#utility.yul\":4658:5002   */\n      swap3\n      swap2\n      pop\n      pop\n      jump\t// out\n        /* \"#utility.yul\":5008:5372   */\n    tag_213:\n        /* \"#utility.yul\":5096:5099   */\n      0x00\n        /* \"#utility.yul\":5124:5163   */\n      tag_215\n        /* \"#utility.yul\":5157:5162   */\n      dup3\n        /* \"#utility.yul\":5124:5163   */\n      tag_206\n      jump\t// in\n    tag_215:\n        /* \"#utility.yul\":5179:5250   */\n      tag_216\n        /* \"#utility.yul\":5243:5249   */\n      dup2\n        /* \"#utility.yul\":5238:5241   */\n      dup6\n        /* \"#utility.yul\":5179:5250   */\n      tag_217\n      jump\t// in\n    tag_216:\n        /* \"#utility.yul\":5172:5250   */\n      swap4\n      pop\n        /* \"#utility.yul\":5259:5311   */\n      tag_218\n        /* \"#utility.yul\":5304:5310   */\n      dup2\n        /* \"#utility.yul\":5299:5302   */\n      dup6\n        /* \"#utility.yul\":5292:5296   */\n      0x20\n        /* \"#utility.yul\":5285:5290   */\n      dup7\n        /* \"#utility.yul\":5281:5297   */\n      add\n        /* \"#utility.yul\":5259:5311   */\n      tag_210\n      jump\t// in\n    tag_218:\n        /* \"#utility.yul\":5336:5365   */\n      tag_219\n        /* \"#utility.yul\":5358:5364   */\n      dup2\n        /* \"#utility.yul\":5336:5365   */\n      tag_212\n      jump\t// in\n    tag_219:\n        /* \"#utility.yul\":5331:5334   */\n      dup5\n        /* \"#utility.yul\":5327:5366   */\n      add\n        /* \"#utility.yul\":5320:5366   */\n      swap2\n      pop\n        /* \"#utility.yul\":5100:5372   */\n      pop\n        /* \"#utility.yul\":5008:5372   */\n      swap3\n      swap2\n      pop\n      pop\n      jump\t// out\n        /* \"#utility.yul\":5378:5744   */\n    tag_220:\n        /* \"#utility.yul\":5520:5523   */\n      0x00\n        /* \"#utility.yul\":5541:5608   */\n      tag_222\n        /* \"#utility.yul\":5605:5607   */\n      0x0e\n        /* \"#utility.yul\":5600:5603   */\n      dup4\n        /* \"#utility.yul\":5541:5608   */\n      tag_217\n      jump\t// in\n    tag_222:\n        /* \"#utility.yul\":5534:5608   */\n      swap2\n      pop\n        /* \"#utility.yul\":5617:5710   */\n      tag_223\n        /* \"#utility.yul\":5706:5709   */\n      dup3\n        /* \"#utility.yul\":5617:5710   */\n      tag_224\n      jump\t// in\n    tag_223:\n        /* \"#utility.yul\":5735:5737   */\n      0x20\n        /* \"#utility.yul\":5730:5733   */\n      dup3\n        /* \"#utility.yul\":5726:5738   */\n      add\n        /* \"#utility.yul\":5719:5738   */\n      swap1\n      pop\n        /* \"#utility.yul\":5378:5744   */\n      swap2\n      swap1\n      pop\n      jump\t// out\n        /* \"#utility.yul\":5750:6116   */\n    tag_225:\n        /* \"#utility.yul\":5892:5895   */\n      0x00\n        /* \"#utility.yul\":5913:5980   */\n      tag_227\n        /* \"#utility.yul\":5977:5979   */\n      0x1e\n        /* \"#utility.yul\":5972:5975   */\n      dup4\n        /* \"#utility.yul\":5913:5980   */\n      tag_217\n      jump\t// in\n    tag_227:\n        /* \"#utility.yul\":5906:5980   */\n      swap2\n      pop\n        /* \"#utility.yul\":5989:6082   */\n      tag_228\n        /* \"#utility.yul\":6078:6081   */\n      dup3\n        /* \"#utility.yul\":5989:6082   */\n      tag_229\n      jump\t// in\n    tag_228:\n        /* \"#utility.yul\":6107:6109   */\n      0x20\n        /* \"#utility.yul\":6102:6105   */\n      dup3\n        /* \"#utility.yul\":6098:6110   */\n      add\n        /* \"#utility.yul\":6091:6110   */\n      swap1\n      pop\n        /* \"#utility.yul\":5750:6116   */\n      swap2\n      swap1\n      pop\n      jump\t// out\n        /* \"#utility.yul\":6172:7174   */\n    tag_181:\n        /* \"#utility.yul\":6271:6274   */\n      0x00\n        /* \"#utility.yul\":6307:6311   */\n      0x80\n        /* \"#utility.yul\":6302:6305   */\n      dup4\n        /* \"#utility.yul\":6298:6312   */\n      add\n        /* \"#utility.yul\":6392:6396   */\n      0x00\n        /* \"#utility.yul\":6385:6390   */\n      dup4\n        /* \"#utility.yul\":6381:6397   */\n      add\n        /* \"#utility.yul\":6375:6398   */\n      mload\n        /* \"#utility.yul\":6411:6474   */\n      tag_231\n        /* \"#utility.yul\":6468:6472   */\n      0x00\n        /* \"#utility.yul\":6463:6466   */\n      dup7\n        /* \"#utility.yul\":6459:6473   */\n      add\n        /* \"#utility.yul\":6445:6457   */\n      dup3\n        /* \"#utility.yul\":6411:6474   */\n      tag_232\n      jump\t// in\n    tag_231:\n        /* \"#utility.yul\":6322:6484   */\n      pop\n        /* \"#utility.yul\":6566:6570   */\n      0x20\n        /* \"#utility.yul\":6559:6564   */\n      dup4\n        /* \"#utility.yul\":6555:6571   */\n      add\n        /* \"#utility.yul\":6549:6572   */\n      mload\n        /* \"#utility.yul\":6619:6622   */\n      dup5\n        /* \"#utility.yul\":6613:6617   */\n      dup3\n        /* \"#utility.yul\":6609:6623   */\n      sub\n        /* \"#utility.yul\":6602:6606   */\n      0x20\n        /* \"#utility.yul\":6597:6600   */\n      dup7\n        /* \"#utility.yul\":6593:6607   */\n      add\n        /* \"#utility.yul\":6586:6624   */\n      mstore\n        /* \"#utility.yul\":6645:6718   */\n      tag_233\n        /* \"#utility.yul\":6713:6717   */\n      dup3\n        /* \"#utility.yul\":6699:6711   */\n      dup3\n        /* \"#utility.yul\":6645:6718   */\n      tag_203\n      jump\t// in\n    tag_233:\n        /* \"#utility.yul\":6637:6718   */\n      swap2\n      pop\n        /* \"#utility.yul\":6494:6729   */\n      pop\n        /* \"#utility.yul\":6814:6818   */\n      0x40\n        /* \"#utility.yul\":6807:6812   */\n      dup4\n        /* \"#utility.yul\":6803:6819   */\n      add\n        /* \"#utility.yul\":6797:6820   */\n      mload\n        /* \"#utility.yul\":6867:6870   */\n      dup5\n        /* \"#utility.yul\":6861:6865   */\n      dup3\n        /* \"#utility.yul\":6857:6871   */\n      sub\n        /* \"#utility.yul\":6850:6854   */\n      0x40\n        /* \"#utility.yul\":6845:6848   */\n      dup7\n        /* \"#utility.yul\":6841:6855   */\n      add\n        /* \"#utility.yul\":6834:6872   */\n      mstore\n        /* \"#utility.yul\":6893:6966   */\n      tag_234\n        /* \"#utility.yul\":6961:6965   */\n      dup3\n        /* \"#utility.yul\":6947:6959   */\n      dup3\n        /* \"#utility.yul\":6893:6966   */\n      tag_203\n      jump\t// in\n    tag_234:\n        /* \"#utility.yul\":6885:6966   */\n      swap2\n      pop\n        /* \"#utility.yul\":6739:6977   */\n      pop\n        /* \"#utility.yul\":7061:7065   */\n      0x60\n        /* \"#utility.yul\":7054:7059   */\n      dup4\n        /* \"#utility.yul\":7050:7066   */\n      add\n        /* \"#utility.yul\":7044:7067   */\n      mload\n        /* \"#utility.yul\":7080:7137   */\n      tag_235\n        /* \"#utility.yul\":7131:7135   */\n      0x60\n        /* \"#utility.yul\":7126:7129   */\n      dup7\n        /* \"#utility.yul\":7122:7136   */\n      add\n        /* \"#utility.yul\":7108:7120   */\n      dup3\n        /* \"#utility.yul\":7080:7137   */\n      tag_196\n      jump\t// in\n    tag_235:\n        /* \"#utility.yul\":6987:7147   */\n      pop\n        /* \"#utility.yul\":7164:7168   */\n      dup1\n        /* \"#utility.yul\":7157:7168   */\n      swap2\n      pop\n        /* \"#utility.yul\":6276:7174   */\n      pop\n        /* \"#utility.yul\":6172:7174   */\n      swap3\n      swap2\n      pop\n      pop\n      jump\t// out\n        /* \"#utility.yul\":7230:8242   */\n    tag_236:\n        /* \"#utility.yul\":7339:7342   */\n      0x00\n        /* \"#utility.yul\":7375:7379   */\n      0x80\n        /* \"#utility.yul\":7370:7373   */\n      dup4\n        /* \"#utility.yul\":7366:7380   */\n      add\n        /* \"#utility.yul\":7460:7464   */\n      0x00\n        /* \"#utility.yul\":7453:7458   */\n      dup4\n        /* \"#utility.yul\":7449:7465   */\n      add\n        /* \"#utility.yul\":7443:7466   */\n      mload\n        /* \"#utility.yul\":7479:7542   */\n      tag_238\n        /* \"#utility.yul\":7536:7540   */\n      0x00\n        /* \"#utility.yul\":7531:7534   */\n      dup7\n        /* \"#utility.yul\":7527:7541   */\n      add\n        /* \"#utility.yul\":7513:7525   */\n      dup3\n        /* \"#utility.yul\":7479:7542   */\n      tag_232\n      jump\t// in\n    tag_238:\n        /* \"#utility.yul\":7390:7552   */\n      pop\n        /* \"#utility.yul\":7634:7638   */\n      0x20\n        /* \"#utility.yul\":7627:7632   */\n      dup4\n        /* \"#utility.yul\":7623:7639   */\n      add\n        /* \"#utility.yul\":7617:7640   */\n      mload\n        /* \"#utility.yul\":7687:7690   */\n      dup5\n        /* \"#utility.yul\":7681:7685   */\n      dup3\n        /* \"#utility.yul\":7677:7691   */\n      sub\n        /* \"#utility.yul\":7670:7674   */\n      0x20\n        /* \"#utility.yul\":7665:7668   */\n      dup7\n        /* \"#utility.yul\":7661:7675   */\n      add\n        /* \"#utility.yul\":7654:7692   */\n      mstore\n        /* \"#utility.yul\":7713:7786   */\n      tag_239\n        /* \"#utility.yul\":7781:7785   */\n      dup3\n        /* \"#utility.yul\":7767:7779   */\n      dup3\n        /* \"#utility.yul\":7713:7786   */\n      tag_203\n      jump\t// in\n    tag_239:\n        /* \"#utility.yul\":7705:7786   */\n      swap2\n      pop\n        /* \"#utility.yul\":7562:7797   */\n      pop\n        /* \"#utility.yul\":7882:7886   */\n      0x40\n        /* \"#utility.yul\":7875:7880   */\n      dup4\n        /* \"#utility.yul\":7871:7887   */\n      add\n        /* \"#utility.yul\":7865:7888   */\n      mload\n        /* \"#utility.yul\":7935:7938   */\n      dup5\n        /* \"#utility.yul\":7929:7933   */\n      dup3\n        /* \"#utility.yul\":7925:7939   */\n      sub\n        /* \"#utility.yul\":7918:7922   */\n      0x40\n        /* \"#utility.yul\":7913:7916   */\n      dup7\n        /* \"#utility.yul\":7909:7923   */\n      add\n        /* \"#utility.yul\":7902:7940   */\n      mstore\n        /* \"#utility.yul\":7961:8034   */\n      tag_240\n        /* \"#utility.yul\":8029:8033   */\n      dup3\n        /* \"#utility.yul\":8015:8027   */\n      dup3\n        /* \"#utility.yul\":7961:8034   */\n      tag_203\n      jump\t// in\n    tag_240:\n        /* \"#utility.yul\":7953:8034   */\n      swap2\n      pop\n        /* \"#utility.yul\":7807:8045   */\n      pop\n        /* \"#utility.yul\":8129:8133   */\n      0x60\n        /* \"#utility.yul\":8122:8127   */\n      dup4\n        /* \"#utility.yul\":8118:8134   */\n      add\n        /* \"#utility.yul\":8112:8135   */\n      mload\n        /* \"#utility.yul\":8148:8205   */\n      tag_241\n        /* \"#utility.yul\":8199:8203   */\n      0x60\n        /* \"#utility.yul\":8194:8197   */\n      dup7\n        /* \"#utility.yul\":8190:8204   */\n      add\n        /* \"#utility.yul\":8176:8188   */\n      dup3\n        /* \"#utility.yul\":8148:8205   */\n      tag_196\n      jump\t// in\n    tag_241:\n        /* \"#utility.yul\":8055:8215   */\n      pop\n        /* \"#utility.yul\":8232:8236   */\n      dup1\n        /* \"#utility.yul\":8225:8236   */\n      swap2\n      pop\n        /* \"#utility.yul\":7344:8242   */\n      pop\n        /* \"#utility.yul\":7230:8242   */\n      swap3\n      swap2\n      pop\n      pop\n      jump\t// out\n        /* \"#utility.yul\":8248:8356   */\n    tag_232:\n        /* \"#utility.yul\":8325:8349   */\n      tag_243\n        /* \"#utility.yul\":8343:8348   */\n      dup2\n        /* \"#utility.yul\":8325:8349   */\n      tag_244\n      jump\t// in\n    tag_243:\n        /* \"#utility.yul\":8320:8323   */\n      dup3\n        /* \"#utility.yul\":8313:8350   */\n      mstore\n        /* \"#utility.yul\":8248:8356   */\n      pop\n      pop\n      jump\t// out\n        /* \"#utility.yul\":8362:8480   */\n    tag_245:\n        /* \"#utility.yul\":8449:8473   */\n      tag_247\n        /* \"#utility.yul\":8467:8472   */\n      dup2\n        /* \"#utility.yul\":8449:8473   */\n      tag_244\n      jump\t// in\n    tag_247:\n        /* \"#utility.yul\":8444:8447   */\n      dup3\n        /* \"#utility.yul\":8437:8474   */\n      mstore\n        /* \"#utility.yul\":8362:8480   */\n      pop\n      pop\n      jump\t// out\n        /* \"#utility.yul\":8486:8939   */\n    tag_35:\n        /* \"#utility.yul\":8669:8673   */\n      0x00\n        /* \"#utility.yul\":8707:8709   */\n      0x20\n        /* \"#utility.yul\":8696:8705   */\n      dup3\n        /* \"#utility.yul\":8692:8710   */\n      add\n        /* \"#utility.yul\":8684:8710   */\n      swap1\n      pop\n        /* \"#utility.yul\":8756:8765   */\n      dup2\n        /* \"#utility.yul\":8750:8754   */\n      dup2\n        /* \"#utility.yul\":8746:8766   */\n      sub\n        /* \"#utility.yul\":8742:8743   */\n      0x00\n        /* \"#utility.yul\":8731:8740   */\n      dup4\n        /* \"#utility.yul\":8727:8744   */\n      add\n        /* \"#utility.yul\":8720:8767   */\n      mstore\n        /* \"#utility.yul\":8784:8932   */\n      tag_249\n        /* \"#utility.yul\":8927:8931   */\n      dup2\n        /* \"#utility.yul\":8918:8924   */\n      dup5\n        /* \"#utility.yul\":8784:8932   */\n      tag_182\n      jump\t// in\n    tag_249:\n        /* \"#utility.yul\":8776:8932   */\n      swap1\n      pop\n        /* \"#utility.yul\":8486:8939   */\n      swap3\n      swap2\n      pop\n      pop\n      jump\t// out\n        /* \"#utility.yul\":8945:9364   */\n    tag_70:\n        /* \"#utility.yul\":9111:9115   */\n      0x00\n        /* \"#utility.yul\":9149:9151   */\n      0x20\n        /* \"#utility.yul\":9138:9147   */\n      dup3\n        /* \"#utility.yul\":9134:9152   */\n      add\n        /* \"#utility.yul\":9126:9152   */\n      swap1\n      pop\n        /* \"#utility.yul\":9198:9207   */\n      dup2\n        /* \"#utility.yul\":9192:9196   */\n      dup2\n        /* \"#utility.yul\":9188:9208   */\n      sub\n        /* \"#utility.yul\":9184:9185   */\n      0x00\n        /* \"#utility.yul\":9173:9182   */\n      dup4\n        /* \"#utility.yul\":9169:9186   */\n      add\n        /* \"#utility.yul\":9162:9209   */\n      mstore\n        /* \"#utility.yul\":9226:9357   */\n      tag_251\n        /* \"#utility.yul\":9352:9356   */\n      dup2\n        /* \"#utility.yul\":9226:9357   */\n      tag_220\n      jump\t// in\n    tag_251:\n        /* \"#utility.yul\":9218:9357   */\n      swap1\n      pop\n        /* \"#utility.yul\":8945:9364   */\n      swap2\n      swap1\n      pop\n      jump\t// out\n        /* \"#utility.yul\":9370:9789   */\n    tag_98:\n        /* \"#utility.yul\":9536:9540   */\n      0x00\n        /* \"#utility.yul\":9574:9576   */\n      0x20\n        /* \"#utility.yul\":9563:9572   */\n      dup3\n        /* \"#utility.yul\":9559:9577   */\n      add\n        /* \"#utility.yul\":9551:9577   */\n      swap1\n      pop\n        /* \"#utility.yul\":9623:9632   */\n      dup2\n        /* \"#utility.yul\":9617:9621   */\n      dup2\n        /* \"#utility.yul\":9613:9633   */\n      sub\n        /* \"#utility.yul\":9609:9610   */\n      0x00\n        /* \"#utility.yul\":9598:9607   */\n      dup4\n        /* \"#utility.yul\":9594:9611   */\n      add\n        /* \"#utility.yul\":9587:9634   */\n      mstore\n        /* \"#utility.yul\":9651:9782   */\n      tag_253\n        /* \"#utility.yul\":9777:9781   */\n      dup2\n        /* \"#utility.yul\":9651:9782   */\n      tag_225\n      jump\t// in\n    tag_253:\n        /* \"#utility.yul\":9643:9782   */\n      swap1\n      pop\n        /* \"#utility.yul\":9370:9789   */\n      swap2\n      swap1\n      pop\n      jump\t// out\n        /* \"#utility.yul\":9795:10148   */\n    tag_43:\n        /* \"#utility.yul\":9928:9932   */\n      0x00\n        /* \"#utility.yul\":9966:9968   */\n      0x20\n        /* \"#utility.yul\":9955:9964   */\n      dup3\n        /* \"#utility.yul\":9951:9969   */\n      add\n        /* \"#utility.yul\":9943:9969   */\n      swap1\n      pop\n        /* \"#utility.yul\":10015:10024   */\n      dup2\n        /* \"#utility.yul\":10009:10013   */\n      dup2\n        /* \"#utility.yul\":10005:10025   */\n      sub\n        /* \"#utility.yul\":10001:10002   */\n      0x00\n        /* \"#utility.yul\":9990:9999   */\n      dup4\n        /* \"#utility.yul\":9986:10003   */\n      add\n        /* \"#utility.yul\":9979:10026   */\n      mstore\n        /* \"#utility.yul\":10043:10141   */\n      tag_255\n        /* \"#utility.yul\":10136:10140   */\n      dup2\n        /* \"#utility.yul\":10127:10133   */\n      dup5\n        /* \"#utility.yul\":10043:10141   */\n      tag_236\n      jump\t// in\n    tag_255:\n        /* \"#utility.yul\":10035:10141   */\n      swap1\n      pop\n        /* \"#utility.yul\":9795:10148   */\n      swap3\n      swap2\n      pop\n      pop\n      jump\t// out\n        /* \"#utility.yul\":10154:10376   */\n    tag_31:\n        /* \"#utility.yul\":10247:10251   */\n      0x00\n        /* \"#utility.yul\":10285:10287   */\n      0x20\n        /* \"#utility.yul\":10274:10283   */\n      dup3\n        /* \"#utility.yul\":10270:10288   */\n      add\n        /* \"#utility.yul\":10262:10288   */\n      swap1\n      pop\n        /* \"#utility.yul\":10298:10369   */\n      tag_257\n        /* \"#utility.yul\":10366:10367   */\n      0x00\n        /* \"#utility.yul\":10355:10364   */\n      dup4\n        /* \"#utility.yul\":10351:10368   */\n      add\n        /* \"#utility.yul\":10342:10348   */\n      dup5\n        /* \"#utility.yul\":10298:10369   */\n      tag_245\n      jump\t// in\n    tag_257:\n        /* \"#utility.yul\":10154:10376   */\n      swap3\n      swap2\n      pop\n      pop\n      jump\t// out\n        /* \"#utility.yul\":10382:11105   */\n    tag_21:\n        /* \"#utility.yul\":10593:10597   */\n      0x00\n        /* \"#utility.yul\":10631:10634   */\n      0x80\n        /* \"#utility.yul\":10620:10629   */\n      dup3\n        /* \"#utility.yul\":10616:10635   */\n      add\n        /* \"#utility.yul\":10608:10635   */\n      swap1\n      pop\n        /* \"#utility.yul\":10645:10716   */\n      tag_259\n        /* \"#utility.yul\":10713:10714   */\n      0x00\n        /* \"#utility.yul\":10702:10711   */\n      dup4\n        /* \"#utility.yul\":10698:10715   */\n      add\n        /* \"#utility.yul\":10689:10695   */\n      dup8\n        /* \"#utility.yul\":10645:10716   */\n      tag_245\n      jump\t// in\n    tag_259:\n        /* \"#utility.yul\":10763:10772   */\n      dup2\n        /* \"#utility.yul\":10757:10761   */\n      dup2\n        /* \"#utility.yul\":10753:10773   */\n      sub\n        /* \"#utility.yul\":10748:10750   */\n      0x20\n        /* \"#utility.yul\":10737:10746   */\n      dup4\n        /* \"#utility.yul\":10733:10751   */\n      add\n        /* \"#utility.yul\":10726:10774   */\n      mstore\n        /* \"#utility.yul\":10791:10869   */\n      tag_260\n        /* \"#utility.yul\":10864:10868   */\n      dup2\n        /* \"#utility.yul\":10855:10861   */\n      dup7\n        /* \"#utility.yul\":10791:10869   */\n      tag_213\n      jump\t// in\n    tag_260:\n        /* \"#utility.yul\":10783:10869   */\n      swap1\n      pop\n        /* \"#utility.yul\":10916:10925   */\n      dup2\n        /* \"#utility.yul\":10910:10914   */\n      dup2\n        /* \"#utility.yul\":10906:10926   */\n      sub\n        /* \"#utility.yul\":10901:10903   */\n      0x40\n        /* \"#utility.yul\":10890:10899   */\n      dup4\n        /* \"#utility.yul\":10886:10904   */\n      add\n        /* \"#utility.yul\":10879:10927   */\n      mstore\n        /* \"#utility.yul\":10944:11022   */\n      tag_261\n        /* \"#utility.yul\":11017:11021   */\n      dup2\n        /* \"#utility.yul\":11008:11014   */\n      dup6\n        /* \"#utility.yul\":10944:11022   */\n      tag_213\n      jump\t// in\n    tag_261:\n        /* \"#utility.yul\":10936:11022   */\n      swap1\n      pop\n        /* \"#utility.yul\":11032:11098   */\n      tag_262\n        /* \"#utility.yul\":11094:11096   */\n      0x60\n        /* \"#utility.yul\":11083:11092   */\n      dup4\n        /* \"#utility.yul\":11079:11097   */\n      add\n        /* \"#utility.yul\":11070:11076   */\n      dup5\n        /* \"#utility.yul\":11032:11098   */\n      tag_200\n      jump\t// in\n    tag_262:\n        /* \"#utility.yul\":10382:11105   */\n      swap6\n      swap5\n      pop\n      pop\n      pop\n      pop\n      pop\n      jump\t// out\n        /* \"#utility.yul\":11111:11240   */\n    tag_134:\n        /* \"#utility.yul\":11145:11151   */\n      0x00\n        /* \"#utility.yul\":11172:11192   */\n      tag_264\n      tag_265\n      jump\t// in\n    tag_264:\n        /* \"#utility.yul\":11162:11192   */\n      swap1\n      pop\n        /* \"#utility.yul\":11201:11234   */\n      tag_266\n        /* \"#utility.yul\":11229:11233   */\n      dup3\n        /* \"#utility.yul\":11221:11227   */\n      dup3\n        /* \"#utility.yul\":11201:11234   */\n      tag_267\n      jump\t// in\n    tag_266:\n        /* \"#utility.yul\":11111:11240   */\n      swap2\n      swap1\n      pop\n      jump\t// out\n        /* \"#utility.yul\":11246:11321   */\n    tag_265:\n        /* \"#utility.yul\":11279:11285   */\n      0x00\n        /* \"#utility.yul\":11312:11314   */\n      0x40\n        /* \"#utility.yul\":11306:11315   */\n      mload\n        /* \"#utility.yul\":11296:11315   */\n      swap1\n      pop\n        /* \"#utility.yul\":11246:11321   */\n      swap1\n      jump\t// out\n        /* \"#utility.yul\":11327:11635   */\n    tag_133:\n        /* \"#utility.yul\":11389:11393   */\n      0x00\n        /* \"#utility.yul\":11479:11497   */\n      0xffffffffffffffff\n        /* \"#utility.yul\":11471:11477   */\n      dup3\n        /* \"#utility.yul\":11468:11498   */\n      gt\n        /* \"#utility.yul\":11465:11521   */\n      iszero\n      tag_270\n      jumpi\n        /* \"#utility.yul\":11501:11519   */\n      tag_271\n      tag_272\n      jump\t// in\n    tag_271:\n        /* \"#utility.yul\":11465:11521   */\n    tag_270:\n        /* \"#utility.yul\":11539:11568   */\n      tag_273\n        /* \"#utility.yul\":11561:11567   */\n      dup3\n        /* \"#utility.yul\":11539:11568   */\n      tag_212\n      jump\t// in\n    tag_273:\n        /* \"#utility.yul\":11531:11568   */\n      swap1\n      pop\n        /* \"#utility.yul\":11623:11627   */\n      0x20\n        /* \"#utility.yul\":11617:11621   */\n      dup2\n        /* \"#utility.yul\":11613:11628   */\n      add\n        /* \"#utility.yul\":11605:11628   */\n      swap1\n      pop\n        /* \"#utility.yul\":11327:11635   */\n      swap2\n      swap1\n      pop\n      jump\t// out\n        /* \"#utility.yul\":11641:11793   */\n    tag_189:\n        /* \"#utility.yul\":11728:11732   */\n      0x00\n        /* \"#utility.yul\":11751:11754   */\n      dup2\n        /* \"#utility.yul\":11743:11754   */\n      swap1\n      pop\n        /* \"#utility.yul\":11781:11785   */\n      0x20\n        /* \"#utility.yul\":11776:11779   */\n      dup3\n        /* \"#utility.yul\":11772:11786   */\n      add\n        /* \"#utility.yul\":11764:11786   */\n      swap1\n      pop\n        /* \"#utility.yul\":11641:11793   */\n      swap2\n      swap1\n      pop\n      jump\t// out\n        /* \"#utility.yul\":11799:11933   */\n    tag_185:\n        /* \"#utility.yul\":11886:11892   */\n      0x00\n        /* \"#utility.yul\":11920:11925   */\n      dup2\n        /* \"#utility.yul\":11914:11926   */\n      mload\n        /* \"#utility.yul\":11904:11926   */\n      swap1\n      pop\n        /* \"#utility.yul\":11799:11933   */\n      swap2\n      swap1\n      pop\n      jump\t// out\n        /* \"#utility.yul\":11939:12038   */\n    tag_206:\n        /* \"#utility.yul\":11991:11997   */\n      0x00\n        /* \"#utility.yul\":12025:12030   */\n      dup2\n        /* \"#utility.yul\":12019:12031   */\n      mload\n        /* \"#utility.yul\":12009:12031   */\n      swap1\n      pop\n        /* \"#utility.yul\":11939:12038   */\n      swap2\n      swap1\n      pop\n      jump\t// out\n        /* \"#utility.yul\":12044:12177   */\n    tag_195:\n        /* \"#utility.yul\":12134:12138   */\n      0x00\n        /* \"#utility.yul\":12166:12170   */\n      0x20\n        /* \"#utility.yul\":12161:12164   */\n      dup3\n        /* \"#utility.yul\":12157:12171   */\n      add\n        /* \"#utility.yul\":12149:12171   */\n      swap1\n      pop\n        /* \"#utility.yul\":12044:12177   */\n      swap2\n      swap1\n      pop\n      jump\t// out\n        /* \"#utility.yul\":12183:12387   */\n    tag_187:\n        /* \"#utility.yul\":12302:12313   */\n      0x00\n        /* \"#utility.yul\":12336:12342   */\n      dup3\n        /* \"#utility.yul\":12331:12334   */\n      dup3\n        /* \"#utility.yul\":12324:12343   */\n      mstore\n        /* \"#utility.yul\":12376:12380   */\n      0x20\n        /* \"#utility.yul\":12371:12374   */\n      dup3\n        /* \"#utility.yul\":12367:12381   */\n      add\n        /* \"#utility.yul\":12352:12381   */\n      swap1\n      pop\n        /* \"#utility.yul\":12183:12387   */\n      swap3\n      swap2\n      pop\n      pop\n      jump\t// out\n        /* \"#utility.yul\":12393:12552   */\n    tag_208:\n        /* \"#utility.yul\":12467:12478   */\n      0x00\n        /* \"#utility.yul\":12501:12507   */\n      dup3\n        /* \"#utility.yul\":12496:12499   */\n      dup3\n        /* \"#utility.yul\":12489:12508   */\n      mstore\n        /* \"#utility.yul\":12541:12545   */\n      0x20\n        /* \"#utility.yul\":12536:12539   */\n      dup3\n        /* \"#utility.yul\":12532:12546   */\n      add\n        /* \"#utility.yul\":12517:12546   */\n      swap1\n      pop\n        /* \"#utility.yul\":12393:12552   */\n      swap3\n      swap2\n      pop\n      pop\n      jump\t// out\n        /* \"#utility.yul\":12558:12727   */\n    tag_217:\n        /* \"#utility.yul\":12642:12653   */\n      0x00\n        /* \"#utility.yul\":12676:12682   */\n      dup3\n        /* \"#utility.yul\":12671:12674   */\n      dup3\n        /* \"#utility.yul\":12664:12683   */\n      mstore\n        /* \"#utility.yul\":12716:12720   */\n      0x20\n        /* \"#utility.yul\":12711:12714   */\n      dup3\n        /* \"#utility.yul\":12707:12721   */\n      add\n        /* \"#utility.yul\":12692:12721   */\n      swap1\n      pop\n        /* \"#utility.yul\":12558:12727   */\n      swap3\n      swap2\n      pop\n      pop\n      jump\t// out\n        /* \"#utility.yul\":12733:12829   */\n    tag_281:\n        /* \"#utility.yul\":12770:12777   */\n      0x00\n        /* \"#utility.yul\":12799:12823   */\n      tag_283\n        /* \"#utility.yul\":12817:12822   */\n      dup3\n        /* \"#utility.yul\":12799:12823   */\n      tag_284\n      jump\t// in\n    tag_283:\n        /* \"#utility.yul\":12788:12823   */\n      swap1\n      pop\n        /* \"#utility.yul\":12733:12829   */\n      swap2\n      swap1\n      pop\n      jump\t// out\n        /* \"#utility.yul\":12835:12925   */\n    tag_199:\n        /* \"#utility.yul\":12869:12876   */\n      0x00\n        /* \"#utility.yul\":12912:12917   */\n      dup2\n        /* \"#utility.yul\":12905:12918   */\n      iszero\n        /* \"#utility.yul\":12898:12919   */\n      iszero\n        /* \"#utility.yul\":12887:12919   */\n      swap1\n      pop\n        /* \"#utility.yul\":12835:12925   */\n      swap2\n      swap1\n      pop\n      jump\t// out\n        /* \"#utility.yul\":12931:13057   */\n    tag_284:\n        /* \"#utility.yul\":12968:12975   */\n      0x00\n        /* \"#utility.yul\":13008:13050   */\n      0xffffffffffffffffffffffffffffffffffffffff\n        /* \"#utility.yul\":13001:13006   */\n      dup3\n        /* \"#utility.yul\":12997:13051   */\n      and\n        /* \"#utility.yul\":12986:13051   */\n      swap1\n      pop\n        /* \"#utility.yul\":12931:13057   */\n      swap2\n      swap1\n      pop\n      jump\t// out\n        /* \"#utility.yul\":13063:13140   */\n    tag_244:\n        /* \"#utility.yul\":13100:13107   */\n      0x00\n        /* \"#utility.yul\":13129:13134   */\n      dup2\n        /* \"#utility.yul\":13118:13134   */\n      swap1\n      pop\n        /* \"#utility.yul\":13063:13140   */\n      swap2\n      swap1\n      pop\n      jump\t// out\n        /* \"#utility.yul\":13146:13300   */\n    tag_139:\n        /* \"#utility.yul\":13230:13236   */\n      dup3\n        /* \"#utility.yul\":13225:13228   */\n      dup2\n        /* \"#utility.yul\":13220:13223   */\n      dup4\n        /* \"#utility.yul\":13207:13237   */\n      calldatacopy\n        /* \"#utility.yul\":13292:13293   */\n      0x00\n        /* \"#utility.yul\":13283:13289   */\n      dup4\n        /* \"#utility.yul\":13278:13281   */\n      dup4\n        /* \"#utility.yul\":13274:13290   */\n      add\n        /* \"#utility.yul\":13267:13294   */\n      mstore\n        /* \"#utility.yul\":13146:13300   */\n      pop\n      pop\n      pop\n      jump\t// out\n        /* \"#utility.yul\":13306:13613   */\n    tag_210:\n        /* \"#utility.yul\":13374:13375   */\n      0x00\n        /* \"#utility.yul\":13384:13497   */\n    tag_290:\n        /* \"#utility.yul\":13398:13404   */\n      dup4\n        /* \"#utility.yul\":13395:13396   */\n      dup2\n        /* \"#utility.yul\":13392:13405   */\n      lt\n        /* \"#utility.yul\":13384:13497   */\n      iszero\n      tag_292\n      jumpi\n        /* \"#utility.yul\":13483:13484   */\n      dup1\n        /* \"#utility.yul\":13478:13481   */\n      dup3\n        /* \"#utility.yul\":13474:13485   */\n      add\n        /* \"#utility.yul\":13468:13486   */\n      mload\n        /* \"#utility.yul\":13464:13465   */\n      dup2\n        /* \"#utility.yul\":13459:13462   */\n      dup5\n        /* \"#utility.yul\":13455:13466   */\n      add\n        /* \"#utility.yul\":13448:13487   */\n      mstore\n        /* \"#utility.yul\":13420:13422   */\n      0x20\n        /* \"#utility.yul\":13417:13418   */\n      dup2\n        /* \"#utility.yul\":13413:13423   */\n      add\n        /* \"#utility.yul\":13408:13423   */\n      swap1\n      pop\n        /* \"#utility.yul\":13384:13497   */\n      jump(tag_290)\n    tag_292:\n        /* \"#utility.yul\":13515:13521   */\n      dup4\n        /* \"#utility.yul\":13512:13513   */\n      dup2\n        /* \"#utility.yul\":13509:13522   */\n      gt\n        /* \"#utility.yul\":13506:13607   */\n      iszero\n      tag_293\n      jumpi\n        /* \"#utility.yul\":13595:13596   */\n      0x00\n        /* \"#utility.yul\":13586:13592   */\n      dup5\n        /* \"#utility.yul\":13581:13584   */\n      dup5\n        /* \"#utility.yul\":13577:13593   */\n      add\n        /* \"#utility.yul\":13570:13597   */\n      mstore\n        /* \"#utility.yul\":13506:13607   */\n    tag_293:\n        /* \"#utility.yul\":13355:13613   */\n      pop\n        /* \"#utility.yul\":13306:13613   */\n      pop\n      pop\n      pop\n      jump\t// out\n        /* \"#utility.yul\":13619:13939   */\n    tag_57:\n        /* \"#utility.yul\":13663:13669   */\n      0x00\n        /* \"#utility.yul\":13700:13701   */\n      0x02\n        /* \"#utility.yul\":13694:13698   */\n      dup3\n        /* \"#utility.yul\":13690:13702   */\n      div\n        /* \"#utility.yul\":13680:13702   */\n      swap1\n      pop\n        /* \"#utility.yul\":13747:13748   */\n      0x01\n        /* \"#utility.yul\":13741:13745   */\n      dup3\n        /* \"#utility.yul\":13737:13749   */\n      and\n        /* \"#utility.yul\":13768:13786   */\n      dup1\n        /* \"#utility.yul\":13758:13839   */\n      tag_295\n      jumpi\n        /* \"#utility.yul\":13824:13828   */\n      0x7f\n        /* \"#utility.yul\":13816:13822   */\n      dup3\n        /* \"#utility.yul\":13812:13829   */\n      and\n        /* \"#utility.yul\":13802:13829   */\n      swap2\n      pop\n        /* \"#utility.yul\":13758:13839   */\n    tag_295:\n        /* \"#utility.yul\":13886:13888   */\n      0x20\n        /* \"#utility.yul\":13878:13884   */\n      dup3\n        /* \"#utility.yul\":13875:13889   */\n      lt\n        /* \"#utility.yul\":13855:13873   */\n      dup2\n        /* \"#utility.yul\":13852:13890   */\n      eq\n        /* \"#utility.yul\":13849:13933   */\n      iszero\n      tag_296\n      jumpi\n        /* \"#utility.yul\":13905:13923   */\n      tag_297\n      tag_298\n      jump\t// in\n    tag_297:\n        /* \"#utility.yul\":13849:13933   */\n    tag_296:\n        /* \"#utility.yul\":13670:13939   */\n      pop\n        /* \"#utility.yul\":13619:13939   */\n      swap2\n      swap1\n      pop\n      jump\t// out\n        /* \"#utility.yul\":13945:14226   */\n    tag_267:\n        /* \"#utility.yul\":14028:14055   */\n      tag_300\n        /* \"#utility.yul\":14050:14054   */\n      dup3\n        /* \"#utility.yul\":14028:14055   */\n      tag_212\n      jump\t// in\n    tag_300:\n        /* \"#utility.yul\":14020:14026   */\n      dup2\n        /* \"#utility.yul\":14016:14056   */\n      add\n        /* \"#utility.yul\":14158:14164   */\n      dup2\n        /* \"#utility.yul\":14146:14156   */\n      dup2\n        /* \"#utility.yul\":14143:14165   */\n      lt\n        /* \"#utility.yul\":14122:14140   */\n      0xffffffffffffffff\n        /* \"#utility.yul\":14110:14120   */\n      dup3\n        /* \"#utility.yul\":14107:14141   */\n      gt\n        /* \"#utility.yul\":14104:14166   */\n      or\n        /* \"#utility.yul\":14101:14189   */\n      iszero\n      tag_301\n      jumpi\n        /* \"#utility.yul\":14169:14187   */\n      tag_302\n      tag_272\n      jump\t// in\n    tag_302:\n        /* \"#utility.yul\":14101:14189   */\n    tag_301:\n        /* \"#utility.yul\":14209:14219   */\n      dup1\n        /* \"#utility.yul\":14205:14207   */\n      0x40\n        /* \"#utility.yul\":14198:14220   */\n      mstore\n        /* \"#utility.yul\":13988:14226   */\n      pop\n        /* \"#utility.yul\":13945:14226   */\n      pop\n      pop\n      jump\t// out\n        /* \"#utility.yul\":14232:14465   */\n    tag_49:\n        /* \"#utility.yul\":14271:14274   */\n      0x00\n        /* \"#utility.yul\":14294:14318   */\n      tag_304\n        /* \"#utility.yul\":14312:14317   */\n      dup3\n        /* \"#utility.yul\":14294:14318   */\n      tag_244\n      jump\t// in\n    tag_304:\n        /* \"#utility.yul\":14285:14318   */\n      swap2\n      pop\n        /* \"#utility.yul\":14340:14406   */\n      0xffffffffffffffffffffffffffffffffffffffffffffffffffffffffffffffff\n        /* \"#utility.yul\":14333:14338   */\n      dup3\n        /* \"#utility.yul\":14330:14407   */\n      eq\n        /* \"#utility.yul\":14327:14430   */\n      iszero\n      tag_305\n      jumpi\n        /* \"#utility.yul\":14410:14428   */\n      tag_306\n      tag_307\n      jump\t// in\n    tag_306:\n        /* \"#utility.yul\":14327:14430   */\n    tag_305:\n        /* \"#utility.yul\":14457:14458   */\n      0x01\n        /* \"#utility.yul\":14450:14455   */\n      dup3\n        /* \"#utility.yul\":14446:14459   */\n      add\n        /* \"#utility.yul\":14439:14459   */\n      swap1\n      pop\n        /* \"#utility.yul\":14232:14465   */\n      swap2\n      swap1\n      pop\n      jump\t// out\n        /* \"#utility.yul\":14471:14651   */\n    tag_307:\n        /* \"#utility.yul\":14519:14596   */\n      0x4e487b7100000000000000000000000000000000000000000000000000000000\n        /* \"#utility.yul\":14516:14517   */\n      0x00\n        /* \"#utility.yul\":14509:14597   */\n      mstore\n        /* \"#utility.yul\":14616:14620   */\n      0x11\n        /* \"#utility.yul\":14613:14614   */\n      0x04\n        /* \"#utility.yul\":14606:14621   */\n      mstore\n        /* \"#utility.yul\":14640:14644   */\n      0x24\n        /* \"#utility.yul\":14637:14638   */\n      0x00\n        /* \"#utility.yul\":14630:14645   */\n      revert\n        /* \"#utility.yul\":14657:14837   */\n    tag_298:\n        /* \"#utility.yul\":14705:14782   */\n      0x4e487b7100000000000000000000000000000000000000000000000000000000\n        /* \"#utility.yul\":14702:14703   */\n      0x00\n        /* \"#utility.yul\":14695:14783   */\n      mstore\n        /* \"#utility.yul\":14802:14806   */\n      0x22\n        /* \"#utility.yul\":14799:14800   */\n      0x04\n        /* \"#utility.yul\":14792:14807   */\n      mstore\n        /* \"#utility.yul\":14826:14830   */\n      0x24\n        /* \"#utility.yul\":14823:14824   */\n      0x00\n        /* \"#utility.yul\":14816:14831   */\n      revert\n        /* \"#utility.yul\":14843:15023   */\n    tag_73:\n        /* \"#utility.yul\":14891:14968   */\n      0x4e487b7100000000000000000000000000000000000000000000000000000000\n        /* \"#utility.yul\":14888:14889   */\n      0x00\n        /* \"#utility.yul\":14881:14969   */\n      mstore\n        /* \"#utility.yul\":14988:14992   */\n      0x32\n        /* \"#utility.yul\":14985:14986   */\n      0x04\n        /* \"#utility.yul\":14978:14993   */\n      mstore\n        /* \"#utility.yul\":15012:15016   */\n      0x24\n        /* \"#utility.yul\":15009:15010   */\n      0x00\n        /* \"#utility.yul\":15002:15017   */\n      revert\n        /* \"#utility.yul\":15029:15209   */\n    tag_272:\n        /* \"#utility.yul\":15077:15154   */\n      0x4e487b7100000000000000000000000000000000000000000000000000000000\n        /* \"#utility.yul\":15074:15075   */\n      0x00\n        /* \"#utility.yul\":15067:15155   */\n      mstore\n        /* \"#utility.yul\":15174:15178   */\n      0x41\n        /* \"#utility.yul\":15171:15172   */\n      0x04\n        /* \"#utility.yul\":15164:15179   */\n      mstore\n        /* \"#utility.yul\":15198:15202   */\n      0x24\n        /* \"#utility.yul\":15195:15196   */\n      0x00\n        /* \"#utility.yul\":15188:15203   */\n      revert\n        /* \"#utility.yul\":15215:15332   */\n    tag_148:\n        /* \"#utility.yul\":15324:15325   */\n      0x00\n        /* \"#utility.yul\":15321:15322   */\n      dup1\n        /* \"#utility.yul\":15314:15326   */\n      revert\n        /* \"#utility.yul\":15338:15455   */\n    tag_137:\n        /* \"#utility.yul\":15447:15448   */\n      0x00\n        /* \"#utility.yul\":15444:15445   */\n      dup1\n        /* \"#utility.yul\":15437:15449   */\n      revert\n        /* \"#utility.yul\":15461:15578   */\n    tag_169:\n        /* \"#utility.yul\":15570:15571   */\n      0x00\n        /* \"#utility.yul\":15567:15568   */\n      dup1\n        /* \"#utility.yul\":15560:15572   */\n      revert\n        /* \"#utility.yul\":15584:15701   */\n    tag_157:\n        /* \"#utility.yul\":15693:15694   */\n      0x00\n        /* \"#utility.yul\":15690:15691   */\n      dup1\n        /* \"#utility.yul\":15683:15695   */\n      revert\n        /* \"#utility.yul\":15707:15809   */\n    tag_212:\n        /* \"#utility.yul\":15748:15754   */\n      0x00\n        /* \"#utility.yul\":15799:15801   */\n      0x1f\n        /* \"#utility.yul\":15795:15802   */\n      not\n        /* \"#utility.yul\":15790:15792   */\n      0x1f\n        /* \"#utility.yul\":15783:15788   */\n      dup4\n        /* \"#utility.yul\":15779:15793   */\n      add\n        /* \"#utility.yul\":15775:15803   */\n      and\n        /* \"#utility.yul\":15765:15803   */\n      swap1\n      pop\n        /* \"#utility.yul\":15707:15809   */\n      swap2\n      swap1\n      pop\n      jump\t// out\n        /* \"#utility.yul\":15815:15979   */\n    tag_224:\n        /* \"#utility.yul\":15955:15971   */\n      0x4e6f20746f646f7320666f756e64000000000000000000000000000000000000\n        /* \"#utility.yul\":15951:15952   */\n      0x00\n        /* \"#utility.yul\":15943:15949   */\n      dup3\n        /* \"#utility.yul\":15939:15953   */\n      add\n        /* \"#utility.yul\":15932:15972   */\n      mstore\n        /* \"#utility.yul\":15815:15979   */\n      pop\n      jump\t// out\n        /* \"#utility.yul\":15985:16165   */\n    tag_229:\n        /* \"#utility.yul\":16125:16157   */\n      0x546f646f20776974682063757272656e74204944206e6f7420666f756e640000\n        /* \"#utility.yul\":16121:16122   */\n      0x00\n        /* \"#utility.yul\":16113:16119   */\n      dup3\n        /* \"#utility.yul\":16109:16123   */\n      add\n        /* \"#utility.yul\":16102:16158   */\n      mstore\n        /* \"#utility.yul\":15985:16165   */\n      pop\n      jump\t// out\n        /* \"#utility.yul\":16171:16293   */\n    tag_143:\n        /* \"#utility.yul\":16244:16268   */\n      tag_320\n        /* \"#utility.yul\":16262:16267   */\n      dup2\n        /* \"#utility.yul\":16244:16268   */\n      tag_281\n      jump\t// in\n    tag_320:\n        /* \"#utility.yul\":16237:16242   */\n      dup2\n        /* \"#utility.yul\":16234:16269   */\n      eq\n        /* \"#utility.yul\":16224:16287   */\n      tag_321\n      jumpi\n        /* \"#utility.yul\":16283:16284   */\n      0x00\n        /* \"#utility.yul\":16280:16281   */\n      dup1\n        /* \"#utility.yul\":16273:16285   */\n      revert\n        /* \"#utility.yul\":16224:16287   */\n    tag_321:\n        /* \"#utility.yul\":16171:16293   */\n      pop\n      jump\t// out\n        /* \"#utility.yul\":16299:16421   */\n    tag_153:\n        /* \"#utility.yul\":16372:16396   */\n      tag_323\n        /* \"#utility.yul\":16390:16395   */\n      dup2\n        /* \"#utility.yul\":16372:16396   */\n      tag_244\n      jump\t// in\n    tag_323:\n        /* \"#utility.yul\":16365:16370   */\n      dup2\n        /* \"#utility.yul\":16362:16397   */\n      eq\n        /* \"#utility.yul\":16352:16415   */\n      tag_324\n      jumpi\n        /* \"#utility.yul\":16411:16412   */\n      0x00\n        /* \"#utility.yul\":16408:16409   */\n      dup1\n        /* \"#utility.yul\":16401:16413   */\n      revert\n        /* \"#utility.yul\":16352:16415   */\n    tag_324:\n        /* \"#utility.yul\":16299:16421   */\n      pop\n      jump\t// out\n\n    auxdata: 0xa264697066735822122052c2f8ce06acdc0b48b1383f3f07b0fba6131e18054daf27aec6a2a6b147de3e64736f6c63430008070033\n}\n",
				"bytecode": {
					"linkReferences": {},
					"object": "608060405234801561001057600080fd5b506114fa806100206000396000f3fe608060405234801561001057600080fd5b50600436106100885760003560e01c8063ce2bd5d51161005b578063ce2bd5d514610128578063d321fe2914610146578063dd68afb614610164578063fc5049f11461019457610088565b80631b7fb2601461008d578063428c1889146100a957806362969ff7146100dc578063c12327b8146100f8575b600080fd5b6100a760048036038101906100a29190610d89565b6101b0565b005b6100c360048036038101906100be9190610d49565b610339565b6040516100d3949392919061111e565b60405180910390f35b6100f660048036038101906100f19190610e01565b6104a3565b005b610112600480360381019061010d9190610d1c565b6105a2565b60405161011f9190611103565b60405180910390f35b6101306105ba565b60405161013d919061107f565b60405180910390f35b61014e610820565b60405161015b9190611103565b60405180910390f35b61017e60048036038101906101799190610e01565b610867565b60405161018b91906110e1565b60405180910390f35b6101ae60048036038101906101a99190610e01565b610ab6565b005b600160003373ffffffffffffffffffffffffffffffffffffffff1673ffffffffffffffffffffffffffffffffffffffff16815260200190815260200160002060008154809291906102009061131a565b91905055506000803373ffffffffffffffffffffffffffffffffffffffff1673ffffffffffffffffffffffffffffffffffffffff1681526020019081526020016000206040518060800160405280600160003373ffffffffffffffffffffffffffffffffffffffff1673ffffffffffffffffffffffffffffffffffffffff1681526020019081526020016000205481526020018481526020018381526020016000151581525090806001815401808255809150506001900390600052602060002090600402016000909190919091506000820151816000015560208201518160010190805190602001906102f5929190610bb5565b506040820151816002019080519060200190610312929190610bb5565b5060608201518160030160006101000a81548160ff02191690831515021790555050505050565b6000602052816000526040600020818154811061035557600080fd5b90600052602060002090600402016000915091505080600001549080600101805461037f906112b7565b80601f01602080910402602001604051908101604052809291908181526020018280546103ab906112b7565b80156103f85780601f106103cd576101008083540402835291602001916103f8565b820191906000526020600020905b8154815290600101906020018083116103db57829003601f168201915b50505050509080600201805461040d906112b7565b80601f0160208091040260200160405190810160405280929190818152602001828054610439906112b7565b80156104865780601f1061045b57610100808354040283529160200191610486565b820191906000526020600020905b81548152906001019060200180831161046957829003601f168201915b5050505050908060030160009054906101000a900460ff16905084565b6000600160003373ffffffffffffffffffffffffffffffffffffffff1673ffffffffffffffffffffffffffffffffffffffff1681526020019081526020016000205411610525576040517f08c379a000000000000000000000000000000000000000000000000000000000815260040161051c906110a1565b60405180910390fd5b60008060003373ffffffffffffffffffffffffffffffffffffffff1673ffffffffffffffffffffffffffffffffffffffff1681526020019081526020016000208281548110610577576105766113c1565b5b906000526020600020906004020160030160006101000a81548160ff02191690831515021790555050565b60016020528060005260406000206000915090505481565b60606000600160003373ffffffffffffffffffffffffffffffffffffffff1673ffffffffffffffffffffffffffffffffffffffff168152602001908152602001600020541161063e576040517f08c379a0000000000000000000000000000000000000000000000000000000008152600401610635906110a1565b60405180910390fd5b6000803373ffffffffffffffffffffffffffffffffffffffff1673ffffffffffffffffffffffffffffffffffffffff168152602001908152602001600020805480602002602001604051908101604052809291908181526020016000905b828210156108175783829060005260206000209060040201604051806080016040529081600082015481526020016001820180546106d9906112b7565b80601f0160208091040260200160405190810160405280929190818152602001828054610705906112b7565b80156107525780601f1061072757610100808354040283529160200191610752565b820191906000526020600020905b81548152906001019060200180831161073557829003601f168201915b5050505050815260200160028201805461076b906112b7565b80601f0160208091040260200160405190810160405280929190818152602001828054610797906112b7565b80156107e45780601f106107b9576101008083540402835291602001916107e4565b820191906000526020600020905b8154815290600101906020018083116107c757829003601f168201915b505050505081526020016003820160009054906101000a900460ff1615151515815250508152602001906001019061069c565b50505050905090565b6000600160003373ffffffffffffffffffffffffffffffffffffffff1673ffffffffffffffffffffffffffffffffffffffff16815260200190815260200160002054905090565b61086f610c3b565b6000821180156108be5750600160003373ffffffffffffffffffffffffffffffffffffffff1673ffffffffffffffffffffffffffffffffffffffff168152602001908152602001600020548211155b6108fd576040517f08c379a00000000000000000000000000000000000000000000000000000000081526004016108f4906110c1565b60405180910390fd5b6000803373ffffffffffffffffffffffffffffffffffffffff1673ffffffffffffffffffffffffffffffffffffffff168152602001908152602001600020828154811061094d5761094c6113c1565b5b906000526020600020906004020160405180608001604052908160008201548152602001600182018054610980906112b7565b80601f01602080910402602001604051908101604052809291908181526020018280546109ac906112b7565b80156109f95780601f106109ce576101008083540402835291602001916109f9565b820191906000526020600020905b8154815290600101906020018083116109dc57829003601f168201915b50505050508152602001600282018054610a12906112b7565b80601f0160208091040260200160405190810160405280929190818152602001828054610a3e906112b7565b8015610a8b5780601f10610a6057610100808354040283529160200191610a8b565b820191906000526020600020905b815481529060010190602001808311610a6e57829003601f168201915b505050505081526020016003820160009054906101000a900460ff1615151515815250509050919050565b6000600160003373ffffffffffffffffffffffffffffffffffffffff1673ffffffffffffffffffffffffffffffffffffffff1681526020019081526020016000205411610b38576040517f08c379a0000000000000000000000000000000000000000000000000000000008152600401610b2f906110a1565b60405180910390fd5b60016000803373ffffffffffffffffffffffffffffffffffffffff1673ffffffffffffffffffffffffffffffffffffffff1681526020019081526020016000208281548110610b8a57610b896113c1565b5b906000526020600020906004020160030160006101000a81548160ff02191690831515021790555050565b828054610bc1906112b7565b90600052602060002090601f016020900481019282610be35760008555610c2a565b82601f10610bfc57805160ff1916838001178555610c2a565b82800160010185558215610c2a579182015b82811115610c29578251825591602001919060010190610c0e565b5b509050610c379190610c65565b5090565b60405180608001604052806000815260200160608152602001606081526020016000151581525090565b5b80821115610c7e576000816000905550600101610c66565b5090565b6000610c95610c9084611196565b611171565b905082815260208101848484011115610cb157610cb0611424565b5b610cbc848285611275565b509392505050565b600081359050610cd381611496565b92915050565b600082601f830112610cee57610ced61141f565b5b8135610cfe848260208601610c82565b91505092915050565b600081359050610d16816114ad565b92915050565b600060208284031215610d3257610d3161142e565b5b6000610d4084828501610cc4565b91505092915050565b60008060408385031215610d6057610d5f61142e565b5b6000610d6e85828601610cc4565b9250506020610d7f85828601610d07565b9150509250929050565b60008060408385031215610da057610d9f61142e565b5b600083013567ffffffffffffffff811115610dbe57610dbd611429565b5b610dca85828601610cd9565b925050602083013567ffffffffffffffff811115610deb57610dea611429565b5b610df785828601610cd9565b9150509250929050565b600060208284031215610e1757610e1661142e565b5b6000610e2584828501610d07565b91505092915050565b6000610e3a8383610f8d565b905092915050565b6000610e4d826111d7565b610e5781856111fa565b935083602082028501610e69856111c7565b8060005b85811015610ea55784840389528151610e868582610e2e565b9450610e91836111ed565b925060208a01995050600181019050610e6d565b50829750879550505050505092915050565b610ec08161123f565b82525050565b610ecf8161123f565b82525050565b6000610ee0826111e2565b610eea818561120b565b9350610efa818560208601611284565b610f0381611433565b840191505092915050565b6000610f19826111e2565b610f23818561121c565b9350610f33818560208601611284565b610f3c81611433565b840191505092915050565b6000610f54600e8361121c565b9150610f5f82611444565b602082019050919050565b6000610f77601e8361121c565b9150610f828261146d565b602082019050919050565b6000608083016000830151610fa56000860182611061565b5060208301518482036020860152610fbd8282610ed5565b91505060408301518482036040860152610fd78282610ed5565b9150506060830151610fec6060860182610eb7565b508091505092915050565b600060808301600083015161100f6000860182611061565b50602083015184820360208601526110278282610ed5565b915050604083015184820360408601526110418282610ed5565b91505060608301516110566060860182610eb7565b508091505092915050565b61106a8161126b565b82525050565b6110798161126b565b82525050565b600060208201905081810360008301526110998184610e42565b905092915050565b600060208201905081810360008301526110ba81610f47565b9050919050565b600060208201905081810360008301526110da81610f6a565b9050919050565b600060208201905081810360008301526110fb8184610ff7565b905092915050565b60006020820190506111186000830184611070565b92915050565b60006080820190506111336000830187611070565b81810360208301526111458186610f0e565b905081810360408301526111598185610f0e565b90506111686060830184610ec6565b95945050505050565b600061117b61118c565b905061118782826112e9565b919050565b6000604051905090565b600067ffffffffffffffff8211156111b1576111b06113f0565b5b6111ba82611433565b9050602081019050919050565b6000819050602082019050919050565b600081519050919050565b600081519050919050565b6000602082019050919050565b600082825260208201905092915050565b600082825260208201905092915050565b600082825260208201905092915050565b60006112388261124b565b9050919050565b60008115159050919050565b600073ffffffffffffffffffffffffffffffffffffffff82169050919050565b6000819050919050565b82818337600083830152505050565b60005b838110156112a2578082015181840152602081019050611287565b838111156112b1576000848401525b50505050565b600060028204905060018216806112cf57607f821691505b602082108114156112e3576112e2611392565b5b50919050565b6112f282611433565b810181811067ffffffffffffffff82111715611311576113106113f0565b5b80604052505050565b60006113258261126b565b91507fffffffffffffffffffffffffffffffffffffffffffffffffffffffffffffffff82141561135857611357611363565b5b600182019050919050565b7f4e487b7100000000000000000000000000000000000000000000000000000000600052601160045260246000fd5b7f4e487b7100000000000000000000000000000000000000000000000000000000600052602260045260246000fd5b7f4e487b7100000000000000000000000000000000000000000000000000000000600052603260045260246000fd5b7f4e487b7100000000000000000000000000000000000000000000000000000000600052604160045260246000fd5b600080fd5b600080fd5b600080fd5b600080fd5b6000601f19601f8301169050919050565b7f4e6f20746f646f7320666f756e64000000000000000000000000000000000000600082015250565b7f546f646f20776974682063757272656e74204944206e6f7420666f756e640000600082015250565b61149f8161122d565b81146114aa57600080fd5b50565b6114b68161126b565b81146114c157600080fd5b5056fea264697066735822122052c2f8ce06acdc0b48b1383f3f07b0fba6131e18054daf27aec6a2a6b147de3e64736f6c63430008070033",
					"opcodes": "PUSH1 0x80 PUSH1 0x40 MSTORE CALLVALUE DUP1 ISZERO PUSH2 0x10 JUMPI PUSH1 0x0 DUP1 REVERT JUMPDEST POP PUSH2 0x14FA DUP1 PUSH2 0x20 PUSH1 0x0 CODECOPY PUSH1 0x0 RETURN INVALID PUSH1 0x80 PUSH1 0x40 MSTORE CALLVALUE DUP1 ISZERO PUSH2 0x10 JUMPI PUSH1 0x0 DUP1 REVERT JUMPDEST POP PUSH1 0x4 CALLDATASIZE LT PUSH2 0x88 JUMPI PUSH1 0x0 CALLDATALOAD PUSH1 0xE0 SHR DUP1 PUSH4 0xCE2BD5D5 GT PUSH2 0x5B JUMPI DUP1 PUSH4 0xCE2BD5D5 EQ PUSH2 0x128 JUMPI DUP1 PUSH4 0xD321FE29 EQ PUSH2 0x146 JUMPI DUP1 PUSH4 0xDD68AFB6 EQ PUSH2 0x164 JUMPI DUP1 PUSH4 0xFC5049F1 EQ PUSH2 0x194 JUMPI PUSH2 0x88 JUMP JUMPDEST DUP1 PUSH4 0x1B7FB260 EQ PUSH2 0x8D JUMPI DUP1 PUSH4 0x428C1889 EQ PUSH2 0xA9 JUMPI DUP1 PUSH4 0x62969FF7 EQ PUSH2 0xDC JUMPI DUP1 PUSH4 0xC12327B8 EQ PUSH2 0xF8 JUMPI JUMPDEST PUSH1 0x0 DUP1 REVERT JUMPDEST PUSH2 0xA7 PUSH1 0x4 DUP1 CALLDATASIZE SUB DUP2 ADD SWAP1 PUSH2 0xA2 SWAP2 SWAP1 PUSH2 0xD89 JUMP JUMPDEST PUSH2 0x1B0 JUMP JUMPDEST STOP JUMPDEST PUSH2 0xC3 PUSH1 0x4 DUP1 CALLDATASIZE SUB DUP2 ADD SWAP1 PUSH2 0xBE SWAP2 SWAP1 PUSH2 0xD49 JUMP JUMPDEST PUSH2 0x339 JUMP JUMPDEST PUSH1 0x40 MLOAD PUSH2 0xD3 SWAP5 SWAP4 SWAP3 SWAP2 SWAP1 PUSH2 0x111E JUMP JUMPDEST PUSH1 0x40 MLOAD DUP1 SWAP2 SUB SWAP1 RETURN JUMPDEST PUSH2 0xF6 PUSH1 0x4 DUP1 CALLDATASIZE SUB DUP2 ADD SWAP1 PUSH2 0xF1 SWAP2 SWAP1 PUSH2 0xE01 JUMP JUMPDEST PUSH2 0x4A3 JUMP JUMPDEST STOP JUMPDEST PUSH2 0x112 PUSH1 0x4 DUP1 CALLDATASIZE SUB DUP2 ADD SWAP1 PUSH2 0x10D SWAP2 SWAP1 PUSH2 0xD1C JUMP JUMPDEST PUSH2 0x5A2 JUMP JUMPDEST PUSH1 0x40 MLOAD PUSH2 0x11F SWAP2 SWAP1 PUSH2 0x1103 JUMP JUMPDEST PUSH1 0x40 MLOAD DUP1 SWAP2 SUB SWAP1 RETURN JUMPDEST PUSH2 0x130 PUSH2 0x5BA JUMP JUMPDEST PUSH1 0x40 MLOAD PUSH2 0x13D SWAP2 SWAP1 PUSH2 0x107F JUMP JUMPDEST PUSH1 0x40 MLOAD DUP1 SWAP2 SUB SWAP1 RETURN JUMPDEST PUSH2 0x14E PUSH2 0x820 JUMP JUMPDEST PUSH1 0x40 MLOAD PUSH2 0x15B SWAP2 SWAP1 PUSH2 0x1103 JUMP JUMPDEST PUSH1 0x40 MLOAD DUP1 SWAP2 SUB SWAP1 RETURN JUMPDEST PUSH2 0x17E PUSH1 0x4 DUP1 CALLDATASIZE SUB DUP2 ADD SWAP1 PUSH2 0x179 SWAP2 SWAP1 PUSH2 0xE01 JUMP JUMPDEST PUSH2 0x867 JUMP JUMPDEST PUSH1 0x40 MLOAD PUSH2 0x18B SWAP2 SWAP1 PUSH2 0x10E1 JUMP JUMPDEST PUSH1 0x40 MLOAD DUP1 SWAP2 SUB SWAP1 RETURN JUMPDEST PUSH2 0x1AE PUSH1 0x4 DUP1 CALLDATASIZE SUB DUP2 ADD SWAP1 PUSH2 0x1A9 SWAP2 SWAP1 PUSH2 0xE01 JUMP JUMPDEST PUSH2 0xAB6 JUMP JUMPDEST STOP JUMPDEST PUSH1 0x1 PUSH1 0x0 CALLER PUSH20 0xFFFFFFFFFFFFFFFFFFFFFFFFFFFFFFFFFFFFFFFF AND PUSH20 0xFFFFFFFFFFFFFFFFFFFFFFFFFFFFFFFFFFFFFFFF AND DUP2 MSTORE PUSH1 0x20 ADD SWAP1 DUP2 MSTORE PUSH1 0x20 ADD PUSH1 0x0 KECCAK256 PUSH1 0x0 DUP2 SLOAD DUP1 SWAP3 SWAP2 SWAP1 PUSH2 0x200 SWAP1 PUSH2 0x131A JUMP JUMPDEST SWAP2 SWAP1 POP SSTORE POP PUSH1 0x0 DUP1 CALLER PUSH20 0xFFFFFFFFFFFFFFFFFFFFFFFFFFFFFFFFFFFFFFFF AND PUSH20 0xFFFFFFFFFFFFFFFFFFFFFFFFFFFFFFFFFFFFFFFF AND DUP2 MSTORE PUSH1 0x20 ADD SWAP1 DUP2 MSTORE PUSH1 0x20 ADD PUSH1 0x0 KECCAK256 PUSH1 0x40 MLOAD DUP1 PUSH1 0x80 ADD PUSH1 0x40 MSTORE DUP1 PUSH1 0x1 PUSH1 0x0 CALLER PUSH20 0xFFFFFFFFFFFFFFFFFFFFFFFFFFFFFFFFFFFFFFFF AND PUSH20 0xFFFFFFFFFFFFFFFFFFFFFFFFFFFFFFFFFFFFFFFF AND DUP2 MSTORE PUSH1 0x20 ADD SWAP1 DUP2 MSTORE PUSH1 0x20 ADD PUSH1 0x0 KECCAK256 SLOAD DUP2 MSTORE PUSH1 0x20 ADD DUP5 DUP2 MSTORE PUSH1 0x20 ADD DUP4 DUP2 MSTORE PUSH1 0x20 ADD PUSH1 0x0 ISZERO ISZERO DUP2 MSTORE POP SWAP1 DUP1 PUSH1 0x1 DUP2 SLOAD ADD DUP1 DUP3 SSTORE DUP1 SWAP2 POP POP PUSH1 0x1 SWAP1 SUB SWAP1 PUSH1 0x0 MSTORE PUSH1 0x20 PUSH1 0x0 KECCAK256 SWAP1 PUSH1 0x4 MUL ADD PUSH1 0x0 SWAP1 SWAP2 SWAP1 SWAP2 SWAP1 SWAP2 POP PUSH1 0x0 DUP3 ADD MLOAD DUP2 PUSH1 0x0 ADD SSTORE PUSH1 0x20 DUP3 ADD MLOAD DUP2 PUSH1 0x1 ADD SWAP1 DUP1 MLOAD SWAP1 PUSH1 0x20 ADD SWAP1 PUSH2 0x2F5 SWAP3 SWAP2 SWAP1 PUSH2 0xBB5 JUMP JUMPDEST POP PUSH1 0x40 DUP3 ADD MLOAD DUP2 PUSH1 0x2 ADD SWAP1 DUP1 MLOAD SWAP1 PUSH1 0x20 ADD SWAP1 PUSH2 0x312 SWAP3 SWAP2 SWAP1 PUSH2 0xBB5 JUMP JUMPDEST POP PUSH1 0x60 DUP3 ADD MLOAD DUP2 PUSH1 0x3 ADD PUSH1 0x0 PUSH2 0x100 EXP DUP2 SLOAD DUP2 PUSH1 0xFF MUL NOT AND SWAP1 DUP4 ISZERO ISZERO MUL OR SWAP1 SSTORE POP POP POP POP POP JUMP JUMPDEST PUSH1 0x0 PUSH1 0x20 MSTORE DUP2 PUSH1 0x0 MSTORE PUSH1 0x40 PUSH1 0x0 KECCAK256 DUP2 DUP2 SLOAD DUP2 LT PUSH2 0x355 JUMPI PUSH1 0x0 DUP1 REVERT JUMPDEST SWAP1 PUSH1 0x0 MSTORE PUSH1 0x20 PUSH1 0x0 KECCAK256 SWAP1 PUSH1 0x4 MUL ADD PUSH1 0x0 SWAP2 POP SWAP2 POP POP DUP1 PUSH1 0x0 ADD SLOAD SWAP1 DUP1 PUSH1 0x1 ADD DUP1 SLOAD PUSH2 0x37F SWAP1 PUSH2 0x12B7 JUMP JUMPDEST DUP1 PUSH1 0x1F ADD PUSH1 0x20 DUP1 SWAP2 DIV MUL PUSH1 0x20 ADD PUSH1 0x40 MLOAD SWAP1 DUP2 ADD PUSH1 0x40 MSTORE DUP1 SWAP3 SWAP2 SWAP1 DUP2 DUP2 MSTORE PUSH1 0x20 ADD DUP3 DUP1 SLOAD PUSH2 0x3AB SWAP1 PUSH2 0x12B7 JUMP JUMPDEST DUP1 ISZERO PUSH2 0x3F8 JUMPI DUP1 PUSH1 0x1F LT PUSH2 0x3CD JUMPI PUSH2 0x100 DUP1 DUP4 SLOAD DIV MUL DUP4 MSTORE SWAP2 PUSH1 0x20 ADD SWAP2 PUSH2 0x3F8 JUMP JUMPDEST DUP3 ADD SWAP2 SWAP1 PUSH1 0x0 MSTORE PUSH1 0x20 PUSH1 0x0 KECCAK256 SWAP1 JUMPDEST DUP2 SLOAD DUP2 MSTORE SWAP1 PUSH1 0x1 ADD SWAP1 PUSH1 0x20 ADD DUP1 DUP4 GT PUSH2 0x3DB JUMPI DUP3 SWAP1 SUB PUSH1 0x1F AND DUP3 ADD SWAP2 JUMPDEST POP POP POP POP POP SWAP1 DUP1 PUSH1 0x2 ADD DUP1 SLOAD PUSH2 0x40D SWAP1 PUSH2 0x12B7 JUMP JUMPDEST DUP1 PUSH1 0x1F ADD PUSH1 0x20 DUP1 SWAP2 DIV MUL PUSH1 0x20 ADD PUSH1 0x40 MLOAD SWAP1 DUP2 ADD PUSH1 0x40 MSTORE DUP1 SWAP3 SWAP2 SWAP1 DUP2 DUP2 MSTORE PUSH1 0x20 ADD DUP3 DUP1 SLOAD PUSH2 0x439 SWAP1 PUSH2 0x12B7 JUMP JUMPDEST DUP1 ISZERO PUSH2 0x486 JUMPI DUP1 PUSH1 0x1F LT PUSH2 0x45B JUMPI PUSH2 0x100 DUP1 DUP4 SLOAD DIV MUL DUP4 MSTORE SWAP2 PUSH1 0x20 ADD SWAP2 PUSH2 0x486 JUMP JUMPDEST DUP3 ADD SWAP2 SWAP1 PUSH1 0x0 MSTORE PUSH1 0x20 PUSH1 0x0 KECCAK256 SWAP1 JUMPDEST DUP2 SLOAD DUP2 MSTORE SWAP1 PUSH1 0x1 ADD SWAP1 PUSH1 0x20 ADD DUP1 DUP4 GT PUSH2 0x469 JUMPI DUP3 SWAP1 SUB PUSH1 0x1F AND DUP3 ADD SWAP2 JUMPDEST POP POP POP POP POP SWAP1 DUP1 PUSH1 0x3 ADD PUSH1 0x0 SWAP1 SLOAD SWAP1 PUSH2 0x100 EXP SWAP1 DIV PUSH1 0xFF AND SWAP1 POP DUP5 JUMP JUMPDEST PUSH1 0x0 PUSH1 0x1 PUSH1 0x0 CALLER PUSH20 0xFFFFFFFFFFFFFFFFFFFFFFFFFFFFFFFFFFFFFFFF AND PUSH20 0xFFFFFFFFFFFFFFFFFFFFFFFFFFFFFFFFFFFFFFFF AND DUP2 MSTORE PUSH1 0x20 ADD SWAP1 DUP2 MSTORE PUSH1 0x20 ADD PUSH1 0x0 KECCAK256 SLOAD GT PUSH2 0x525 JUMPI PUSH1 0x40 MLOAD PUSH32 0x8C379A000000000000000000000000000000000000000000000000000000000 DUP2 MSTORE PUSH1 0x4 ADD PUSH2 0x51C SWAP1 PUSH2 0x10A1 JUMP JUMPDEST PUSH1 0x40 MLOAD DUP1 SWAP2 SUB SWAP1 REVERT JUMPDEST PUSH1 0x0 DUP1 PUSH1 0x0 CALLER PUSH20 0xFFFFFFFFFFFFFFFFFFFFFFFFFFFFFFFFFFFFFFFF AND PUSH20 0xFFFFFFFFFFFFFFFFFFFFFFFFFFFFFFFFFFFFFFFF AND DUP2 MSTORE PUSH1 0x20 ADD SWAP1 DUP2 MSTORE PUSH1 0x20 ADD PUSH1 0x0 KECCAK256 DUP3 DUP2 SLOAD DUP2 LT PUSH2 0x577 JUMPI PUSH2 0x576 PUSH2 0x13C1 JUMP JUMPDEST JUMPDEST SWAP1 PUSH1 0x0 MSTORE PUSH1 0x20 PUSH1 0x0 KECCAK256 SWAP1 PUSH1 0x4 MUL ADD PUSH1 0x3 ADD PUSH1 0x0 PUSH2 0x100 EXP DUP2 SLOAD DUP2 PUSH1 0xFF MUL NOT AND SWAP1 DUP4 ISZERO ISZERO MUL OR SWAP1 SSTORE POP POP JUMP JUMPDEST PUSH1 0x1 PUSH1 0x20 MSTORE DUP1 PUSH1 0x0 MSTORE PUSH1 0x40 PUSH1 0x0 KECCAK256 PUSH1 0x0 SWAP2 POP SWAP1 POP SLOAD DUP2 JUMP JUMPDEST PUSH1 0x60 PUSH1 0x0 PUSH1 0x1 PUSH1 0x0 CALLER PUSH20 0xFFFFFFFFFFFFFFFFFFFFFFFFFFFFFFFFFFFFFFFF AND PUSH20 0xFFFFFFFFFFFFFFFFFFFFFFFFFFFFFFFFFFFFFFFF AND DUP2 MSTORE PUSH1 0x20 ADD SWAP1 DUP2 MSTORE PUSH1 0x20 ADD PUSH1 0x0 KECCAK256 SLOAD GT PUSH2 0x63E JUMPI PUSH1 0x40 MLOAD PUSH32 0x8C379A000000000000000000000000000000000000000000000000000000000 DUP2 MSTORE PUSH1 0x4 ADD PUSH2 0x635 SWAP1 PUSH2 0x10A1 JUMP JUMPDEST PUSH1 0x40 MLOAD DUP1 SWAP2 SUB SWAP1 REVERT JUMPDEST PUSH1 0x0 DUP1 CALLER PUSH20 0xFFFFFFFFFFFFFFFFFFFFFFFFFFFFFFFFFFFFFFFF AND PUSH20 0xFFFFFFFFFFFFFFFFFFFFFFFFFFFFFFFFFFFFFFFF AND DUP2 MSTORE PUSH1 0x20 ADD SWAP1 DUP2 MSTORE PUSH1 0x20 ADD PUSH1 0x0 KECCAK256 DUP1 SLOAD DUP1 PUSH1 0x20 MUL PUSH1 0x20 ADD PUSH1 0x40 MLOAD SWAP1 DUP2 ADD PUSH1 0x40 MSTORE DUP1 SWAP3 SWAP2 SWAP1 DUP2 DUP2 MSTORE PUSH1 0x20 ADD PUSH1 0x0 SWAP1 JUMPDEST DUP3 DUP3 LT ISZERO PUSH2 0x817 JUMPI DUP4 DUP3 SWAP1 PUSH1 0x0 MSTORE PUSH1 0x20 PUSH1 0x0 KECCAK256 SWAP1 PUSH1 0x4 MUL ADD PUSH1 0x40 MLOAD DUP1 PUSH1 0x80 ADD PUSH1 0x40 MSTORE SWAP1 DUP2 PUSH1 0x0 DUP3 ADD SLOAD DUP2 MSTORE PUSH1 0x20 ADD PUSH1 0x1 DUP3 ADD DUP1 SLOAD PUSH2 0x6D9 SWAP1 PUSH2 0x12B7 JUMP JUMPDEST DUP1 PUSH1 0x1F ADD PUSH1 0x20 DUP1 SWAP2 DIV MUL PUSH1 0x20 ADD PUSH1 0x40 MLOAD SWAP1 DUP2 ADD PUSH1 0x40 MSTORE DUP1 SWAP3 SWAP2 SWAP1 DUP2 DUP2 MSTORE PUSH1 0x20 ADD DUP3 DUP1 SLOAD PUSH2 0x705 SWAP1 PUSH2 0x12B7 JUMP JUMPDEST DUP1 ISZERO PUSH2 0x752 JUMPI DUP1 PUSH1 0x1F LT PUSH2 0x727 JUMPI PUSH2 0x100 DUP1 DUP4 SLOAD DIV MUL DUP4 MSTORE SWAP2 PUSH1 0x20 ADD SWAP2 PUSH2 0x752 JUMP JUMPDEST DUP3 ADD SWAP2 SWAP1 PUSH1 0x0 MSTORE PUSH1 0x20 PUSH1 0x0 KECCAK256 SWAP1 JUMPDEST DUP2 SLOAD DUP2 MSTORE SWAP1 PUSH1 0x1 ADD SWAP1 PUSH1 0x20 ADD DUP1 DUP4 GT PUSH2 0x735 JUMPI DUP3 SWAP1 SUB PUSH1 0x1F AND DUP3 ADD SWAP2 JUMPDEST POP POP POP POP POP DUP2 MSTORE PUSH1 0x20 ADD PUSH1 0x2 DUP3 ADD DUP1 SLOAD PUSH2 0x76B SWAP1 PUSH2 0x12B7 JUMP JUMPDEST DUP1 PUSH1 0x1F ADD PUSH1 0x20 DUP1 SWAP2 DIV MUL PUSH1 0x20 ADD PUSH1 0x40 MLOAD SWAP1 DUP2 ADD PUSH1 0x40 MSTORE DUP1 SWAP3 SWAP2 SWAP1 DUP2 DUP2 MSTORE PUSH1 0x20 ADD DUP3 DUP1 SLOAD PUSH2 0x797 SWAP1 PUSH2 0x12B7 JUMP JUMPDEST DUP1 ISZERO PUSH2 0x7E4 JUMPI DUP1 PUSH1 0x1F LT PUSH2 0x7B9 JUMPI PUSH2 0x100 DUP1 DUP4 SLOAD DIV MUL DUP4 MSTORE SWAP2 PUSH1 0x20 ADD SWAP2 PUSH2 0x7E4 JUMP JUMPDEST DUP3 ADD SWAP2 SWAP1 PUSH1 0x0 MSTORE PUSH1 0x20 PUSH1 0x0 KECCAK256 SWAP1 JUMPDEST DUP2 SLOAD DUP2 MSTORE SWAP1 PUSH1 0x1 ADD SWAP1 PUSH1 0x20 ADD DUP1 DUP4 GT PUSH2 0x7C7 JUMPI DUP3 SWAP1 SUB PUSH1 0x1F AND DUP3 ADD SWAP2 JUMPDEST POP POP POP POP POP DUP2 MSTORE PUSH1 0x20 ADD PUSH1 0x3 DUP3 ADD PUSH1 0x0 SWAP1 SLOAD SWAP1 PUSH2 0x100 EXP SWAP1 DIV PUSH1 0xFF AND ISZERO ISZERO ISZERO ISZERO DUP2 MSTORE POP POP DUP2 MSTORE PUSH1 0x20 ADD SWAP1 PUSH1 0x1 ADD SWAP1 PUSH2 0x69C JUMP JUMPDEST POP POP POP POP SWAP1 POP SWAP1 JUMP JUMPDEST PUSH1 0x0 PUSH1 0x1 PUSH1 0x0 CALLER PUSH20 0xFFFFFFFFFFFFFFFFFFFFFFFFFFFFFFFFFFFFFFFF AND PUSH20 0xFFFFFFFFFFFFFFFFFFFFFFFFFFFFFFFFFFFFFFFF AND DUP2 MSTORE PUSH1 0x20 ADD SWAP1 DUP2 MSTORE PUSH1 0x20 ADD PUSH1 0x0 KECCAK256 SLOAD SWAP1 POP SWAP1 JUMP JUMPDEST PUSH2 0x86F PUSH2 0xC3B JUMP JUMPDEST PUSH1 0x0 DUP3 GT DUP1 ISZERO PUSH2 0x8BE JUMPI POP PUSH1 0x1 PUSH1 0x0 CALLER PUSH20 0xFFFFFFFFFFFFFFFFFFFFFFFFFFFFFFFFFFFFFFFF AND PUSH20 0xFFFFFFFFFFFFFFFFFFFFFFFFFFFFFFFFFFFFFFFF AND DUP2 MSTORE PUSH1 0x20 ADD SWAP1 DUP2 MSTORE PUSH1 0x20 ADD PUSH1 0x0 KECCAK256 SLOAD DUP3 GT ISZERO JUMPDEST PUSH2 0x8FD JUMPI PUSH1 0x40 MLOAD PUSH32 0x8C379A000000000000000000000000000000000000000000000000000000000 DUP2 MSTORE PUSH1 0x4 ADD PUSH2 0x8F4 SWAP1 PUSH2 0x10C1 JUMP JUMPDEST PUSH1 0x40 MLOAD DUP1 SWAP2 SUB SWAP1 REVERT JUMPDEST PUSH1 0x0 DUP1 CALLER PUSH20 0xFFFFFFFFFFFFFFFFFFFFFFFFFFFFFFFFFFFFFFFF AND PUSH20 0xFFFFFFFFFFFFFFFFFFFFFFFFFFFFFFFFFFFFFFFF AND DUP2 MSTORE PUSH1 0x20 ADD SWAP1 DUP2 MSTORE PUSH1 0x20 ADD PUSH1 0x0 KECCAK256 DUP3 DUP2 SLOAD DUP2 LT PUSH2 0x94D JUMPI PUSH2 0x94C PUSH2 0x13C1 JUMP JUMPDEST JUMPDEST SWAP1 PUSH1 0x0 MSTORE PUSH1 0x20 PUSH1 0x0 KECCAK256 SWAP1 PUSH1 0x4 MUL ADD PUSH1 0x40 MLOAD DUP1 PUSH1 0x80 ADD PUSH1 0x40 MSTORE SWAP1 DUP2 PUSH1 0x0 DUP3 ADD SLOAD DUP2 MSTORE PUSH1 0x20 ADD PUSH1 0x1 DUP3 ADD DUP1 SLOAD PUSH2 0x980 SWAP1 PUSH2 0x12B7 JUMP JUMPDEST DUP1 PUSH1 0x1F ADD PUSH1 0x20 DUP1 SWAP2 DIV MUL PUSH1 0x20 ADD PUSH1 0x40 MLOAD SWAP1 DUP2 ADD PUSH1 0x40 MSTORE DUP1 SWAP3 SWAP2 SWAP1 DUP2 DUP2 MSTORE PUSH1 0x20 ADD DUP3 DUP1 SLOAD PUSH2 0x9AC SWAP1 PUSH2 0x12B7 JUMP JUMPDEST DUP1 ISZERO PUSH2 0x9F9 JUMPI DUP1 PUSH1 0x1F LT PUSH2 0x9CE JUMPI PUSH2 0x100 DUP1 DUP4 SLOAD DIV MUL DUP4 MSTORE SWAP2 PUSH1 0x20 ADD SWAP2 PUSH2 0x9F9 JUMP JUMPDEST DUP3 ADD SWAP2 SWAP1 PUSH1 0x0 MSTORE PUSH1 0x20 PUSH1 0x0 KECCAK256 SWAP1 JUMPDEST DUP2 SLOAD DUP2 MSTORE SWAP1 PUSH1 0x1 ADD SWAP1 PUSH1 0x20 ADD DUP1 DUP4 GT PUSH2 0x9DC JUMPI DUP3 SWAP1 SUB PUSH1 0x1F AND DUP3 ADD SWAP2 JUMPDEST POP POP POP POP POP DUP2 MSTORE PUSH1 0x20 ADD PUSH1 0x2 DUP3 ADD DUP1 SLOAD PUSH2 0xA12 SWAP1 PUSH2 0x12B7 JUMP JUMPDEST DUP1 PUSH1 0x1F ADD PUSH1 0x20 DUP1 SWAP2 DIV MUL PUSH1 0x20 ADD PUSH1 0x40 MLOAD SWAP1 DUP2 ADD PUSH1 0x40 MSTORE DUP1 SWAP3 SWAP2 SWAP1 DUP2 DUP2 MSTORE PUSH1 0x20 ADD DUP3 DUP1 SLOAD PUSH2 0xA3E SWAP1 PUSH2 0x12B7 JUMP JUMPDEST DUP1 ISZERO PUSH2 0xA8B JUMPI DUP1 PUSH1 0x1F LT PUSH2 0xA60 JUMPI PUSH2 0x100 DUP1 DUP4 SLOAD DIV MUL DUP4 MSTORE SWAP2 PUSH1 0x20 ADD SWAP2 PUSH2 0xA8B JUMP JUMPDEST DUP3 ADD SWAP2 SWAP1 PUSH1 0x0 MSTORE PUSH1 0x20 PUSH1 0x0 KECCAK256 SWAP1 JUMPDEST DUP2 SLOAD DUP2 MSTORE SWAP1 PUSH1 0x1 ADD SWAP1 PUSH1 0x20 ADD DUP1 DUP4 GT PUSH2 0xA6E JUMPI DUP3 SWAP1 SUB PUSH1 0x1F AND DUP3 ADD SWAP2 JUMPDEST POP POP POP POP POP DUP2 MSTORE PUSH1 0x20 ADD PUSH1 0x3 DUP3 ADD PUSH1 0x0 SWAP1 SLOAD SWAP1 PUSH2 0x100 EXP SWAP1 DIV PUSH1 0xFF AND ISZERO ISZERO ISZERO ISZERO DUP2 MSTORE POP POP SWAP1 POP SWAP2 SWAP1 POP JUMP JUMPDEST PUSH1 0x0 PUSH1 0x1 PUSH1 0x0 CALLER PUSH20 0xFFFFFFFFFFFFFFFFFFFFFFFFFFFFFFFFFFFFFFFF AND PUSH20 0xFFFFFFFFFFFFFFFFFFFFFFFFFFFFFFFFFFFFFFFF AND DUP2 MSTORE PUSH1 0x20 ADD SWAP1 DUP2 MSTORE PUSH1 0x20 ADD PUSH1 0x0 KECCAK256 SLOAD GT PUSH2 0xB38 JUMPI PUSH1 0x40 MLOAD PUSH32 0x8C379A000000000000000000000000000000000000000000000000000000000 DUP2 MSTORE PUSH1 0x4 ADD PUSH2 0xB2F SWAP1 PUSH2 0x10A1 JUMP JUMPDEST PUSH1 0x40 MLOAD DUP1 SWAP2 SUB SWAP1 REVERT JUMPDEST PUSH1 0x1 PUSH1 0x0 DUP1 CALLER PUSH20 0xFFFFFFFFFFFFFFFFFFFFFFFFFFFFFFFFFFFFFFFF AND PUSH20 0xFFFFFFFFFFFFFFFFFFFFFFFFFFFFFFFFFFFFFFFF AND DUP2 MSTORE PUSH1 0x20 ADD SWAP1 DUP2 MSTORE PUSH1 0x20 ADD PUSH1 0x0 KECCAK256 DUP3 DUP2 SLOAD DUP2 LT PUSH2 0xB8A JUMPI PUSH2 0xB89 PUSH2 0x13C1 JUMP JUMPDEST JUMPDEST SWAP1 PUSH1 0x0 MSTORE PUSH1 0x20 PUSH1 0x0 KECCAK256 SWAP1 PUSH1 0x4 MUL ADD PUSH1 0x3 ADD PUSH1 0x0 PUSH2 0x100 EXP DUP2 SLOAD DUP2 PUSH1 0xFF MUL NOT AND SWAP1 DUP4 ISZERO ISZERO MUL OR SWAP1 SSTORE POP POP JUMP JUMPDEST DUP3 DUP1 SLOAD PUSH2 0xBC1 SWAP1 PUSH2 0x12B7 JUMP JUMPDEST SWAP1 PUSH1 0x0 MSTORE PUSH1 0x20 PUSH1 0x0 KECCAK256 SWAP1 PUSH1 0x1F ADD PUSH1 0x20 SWAP1 DIV DUP2 ADD SWAP3 DUP3 PUSH2 0xBE3 JUMPI PUSH1 0x0 DUP6 SSTORE PUSH2 0xC2A JUMP JUMPDEST DUP3 PUSH1 0x1F LT PUSH2 0xBFC JUMPI DUP1 MLOAD PUSH1 0xFF NOT AND DUP4 DUP1 ADD OR DUP6 SSTORE PUSH2 0xC2A JUMP JUMPDEST DUP3 DUP1 ADD PUSH1 0x1 ADD DUP6 SSTORE DUP3 ISZERO PUSH2 0xC2A JUMPI SWAP2 DUP3 ADD JUMPDEST DUP3 DUP2 GT ISZERO PUSH2 0xC29 JUMPI DUP3 MLOAD DUP3 SSTORE SWAP2 PUSH1 0x20 ADD SWAP2 SWAP1 PUSH1 0x1 ADD SWAP1 PUSH2 0xC0E JUMP JUMPDEST JUMPDEST POP SWAP1 POP PUSH2 0xC37 SWAP2 SWAP1 PUSH2 0xC65 JUMP JUMPDEST POP SWAP1 JUMP JUMPDEST PUSH1 0x40 MLOAD DUP1 PUSH1 0x80 ADD PUSH1 0x40 MSTORE DUP1 PUSH1 0x0 DUP2 MSTORE PUSH1 0x20 ADD PUSH1 0x60 DUP2 MSTORE PUSH1 0x20 ADD PUSH1 0x60 DUP2 MSTORE PUSH1 0x20 ADD PUSH1 0x0 ISZERO ISZERO DUP2 MSTORE POP SWAP1 JUMP JUMPDEST JUMPDEST DUP1 DUP3 GT ISZERO PUSH2 0xC7E JUMPI PUSH1 0x0 DUP2 PUSH1 0x0 SWAP1 SSTORE POP PUSH1 0x1 ADD PUSH2 0xC66 JUMP JUMPDEST POP SWAP1 JUMP JUMPDEST PUSH1 0x0 PUSH2 0xC95 PUSH2 0xC90 DUP5 PUSH2 0x1196 JUMP JUMPDEST PUSH2 0x1171 JUMP JUMPDEST SWAP1 POP DUP3 DUP2 MSTORE PUSH1 0x20 DUP2 ADD DUP5 DUP5 DUP5 ADD GT ISZERO PUSH2 0xCB1 JUMPI PUSH2 0xCB0 PUSH2 0x1424 JUMP JUMPDEST JUMPDEST PUSH2 0xCBC DUP5 DUP3 DUP6 PUSH2 0x1275 JUMP JUMPDEST POP SWAP4 SWAP3 POP POP POP JUMP JUMPDEST PUSH1 0x0 DUP2 CALLDATALOAD SWAP1 POP PUSH2 0xCD3 DUP2 PUSH2 0x1496 JUMP JUMPDEST SWAP3 SWAP2 POP POP JUMP JUMPDEST PUSH1 0x0 DUP3 PUSH1 0x1F DUP4 ADD SLT PUSH2 0xCEE JUMPI PUSH2 0xCED PUSH2 0x141F JUMP JUMPDEST JUMPDEST DUP2 CALLDATALOAD PUSH2 0xCFE DUP5 DUP3 PUSH1 0x20 DUP7 ADD PUSH2 0xC82 JUMP JUMPDEST SWAP2 POP POP SWAP3 SWAP2 POP POP JUMP JUMPDEST PUSH1 0x0 DUP2 CALLDATALOAD SWAP1 POP PUSH2 0xD16 DUP2 PUSH2 0x14AD JUMP JUMPDEST SWAP3 SWAP2 POP POP JUMP JUMPDEST PUSH1 0x0 PUSH1 0x20 DUP3 DUP5 SUB SLT ISZERO PUSH2 0xD32 JUMPI PUSH2 0xD31 PUSH2 0x142E JUMP JUMPDEST JUMPDEST PUSH1 0x0 PUSH2 0xD40 DUP5 DUP3 DUP6 ADD PUSH2 0xCC4 JUMP JUMPDEST SWAP2 POP POP SWAP3 SWAP2 POP POP JUMP JUMPDEST PUSH1 0x0 DUP1 PUSH1 0x40 DUP4 DUP6 SUB SLT ISZERO PUSH2 0xD60 JUMPI PUSH2 0xD5F PUSH2 0x142E JUMP JUMPDEST JUMPDEST PUSH1 0x0 PUSH2 0xD6E DUP6 DUP3 DUP7 ADD PUSH2 0xCC4 JUMP JUMPDEST SWAP3 POP POP PUSH1 0x20 PUSH2 0xD7F DUP6 DUP3 DUP7 ADD PUSH2 0xD07 JUMP JUMPDEST SWAP2 POP POP SWAP3 POP SWAP3 SWAP1 POP JUMP JUMPDEST PUSH1 0x0 DUP1 PUSH1 0x40 DUP4 DUP6 SUB SLT ISZERO PUSH2 0xDA0 JUMPI PUSH2 0xD9F PUSH2 0x142E JUMP JUMPDEST JUMPDEST PUSH1 0x0 DUP4 ADD CALLDATALOAD PUSH8 0xFFFFFFFFFFFFFFFF DUP2 GT ISZERO PUSH2 0xDBE JUMPI PUSH2 0xDBD PUSH2 0x1429 JUMP JUMPDEST JUMPDEST PUSH2 0xDCA DUP6 DUP3 DUP7 ADD PUSH2 0xCD9 JUMP JUMPDEST SWAP3 POP POP PUSH1 0x20 DUP4 ADD CALLDATALOAD PUSH8 0xFFFFFFFFFFFFFFFF DUP2 GT ISZERO PUSH2 0xDEB JUMPI PUSH2 0xDEA PUSH2 0x1429 JUMP JUMPDEST JUMPDEST PUSH2 0xDF7 DUP6 DUP3 DUP7 ADD PUSH2 0xCD9 JUMP JUMPDEST SWAP2 POP POP SWAP3 POP SWAP3 SWAP1 POP JUMP JUMPDEST PUSH1 0x0 PUSH1 0x20 DUP3 DUP5 SUB SLT ISZERO PUSH2 0xE17 JUMPI PUSH2 0xE16 PUSH2 0x142E JUMP JUMPDEST JUMPDEST PUSH1 0x0 PUSH2 0xE25 DUP5 DUP3 DUP6 ADD PUSH2 0xD07 JUMP JUMPDEST SWAP2 POP POP SWAP3 SWAP2 POP POP JUMP JUMPDEST PUSH1 0x0 PUSH2 0xE3A DUP4 DUP4 PUSH2 0xF8D JUMP JUMPDEST SWAP1 POP SWAP3 SWAP2 POP POP JUMP JUMPDEST PUSH1 0x0 PUSH2 0xE4D DUP3 PUSH2 0x11D7 JUMP JUMPDEST PUSH2 0xE57 DUP2 DUP6 PUSH2 0x11FA JUMP JUMPDEST SWAP4 POP DUP4 PUSH1 0x20 DUP3 MUL DUP6 ADD PUSH2 0xE69 DUP6 PUSH2 0x11C7 JUMP JUMPDEST DUP1 PUSH1 0x0 JUMPDEST DUP6 DUP2 LT ISZERO PUSH2 0xEA5 JUMPI DUP5 DUP5 SUB DUP10 MSTORE DUP2 MLOAD PUSH2 0xE86 DUP6 DUP3 PUSH2 0xE2E JUMP JUMPDEST SWAP5 POP PUSH2 0xE91 DUP4 PUSH2 0x11ED JUMP JUMPDEST SWAP3 POP PUSH1 0x20 DUP11 ADD SWAP10 POP POP PUSH1 0x1 DUP2 ADD SWAP1 POP PUSH2 0xE6D JUMP JUMPDEST POP DUP3 SWAP8 POP DUP8 SWAP6 POP POP POP POP POP POP SWAP3 SWAP2 POP POP JUMP JUMPDEST PUSH2 0xEC0 DUP2 PUSH2 0x123F JUMP JUMPDEST DUP3 MSTORE POP POP JUMP JUMPDEST PUSH2 0xECF DUP2 PUSH2 0x123F JUMP JUMPDEST DUP3 MSTORE POP POP JUMP JUMPDEST PUSH1 0x0 PUSH2 0xEE0 DUP3 PUSH2 0x11E2 JUMP JUMPDEST PUSH2 0xEEA DUP2 DUP6 PUSH2 0x120B JUMP JUMPDEST SWAP4 POP PUSH2 0xEFA DUP2 DUP6 PUSH1 0x20 DUP7 ADD PUSH2 0x1284 JUMP JUMPDEST PUSH2 0xF03 DUP2 PUSH2 0x1433 JUMP JUMPDEST DUP5 ADD SWAP2 POP POP SWAP3 SWAP2 POP POP JUMP JUMPDEST PUSH1 0x0 PUSH2 0xF19 DUP3 PUSH2 0x11E2 JUMP JUMPDEST PUSH2 0xF23 DUP2 DUP6 PUSH2 0x121C JUMP JUMPDEST SWAP4 POP PUSH2 0xF33 DUP2 DUP6 PUSH1 0x20 DUP7 ADD PUSH2 0x1284 JUMP JUMPDEST PUSH2 0xF3C DUP2 PUSH2 0x1433 JUMP JUMPDEST DUP5 ADD SWAP2 POP POP SWAP3 SWAP2 POP POP JUMP JUMPDEST PUSH1 0x0 PUSH2 0xF54 PUSH1 0xE DUP4 PUSH2 0x121C JUMP JUMPDEST SWAP2 POP PUSH2 0xF5F DUP3 PUSH2 0x1444 JUMP JUMPDEST PUSH1 0x20 DUP3 ADD SWAP1 POP SWAP2 SWAP1 POP JUMP JUMPDEST PUSH1 0x0 PUSH2 0xF77 PUSH1 0x1E DUP4 PUSH2 0x121C JUMP JUMPDEST SWAP2 POP PUSH2 0xF82 DUP3 PUSH2 0x146D JUMP JUMPDEST PUSH1 0x20 DUP3 ADD SWAP1 POP SWAP2 SWAP1 POP JUMP JUMPDEST PUSH1 0x0 PUSH1 0x80 DUP4 ADD PUSH1 0x0 DUP4 ADD MLOAD PUSH2 0xFA5 PUSH1 0x0 DUP7 ADD DUP3 PUSH2 0x1061 JUMP JUMPDEST POP PUSH1 0x20 DUP4 ADD MLOAD DUP5 DUP3 SUB PUSH1 0x20 DUP7 ADD MSTORE PUSH2 0xFBD DUP3 DUP3 PUSH2 0xED5 JUMP JUMPDEST SWAP2 POP POP PUSH1 0x40 DUP4 ADD MLOAD DUP5 DUP3 SUB PUSH1 0x40 DUP7 ADD MSTORE PUSH2 0xFD7 DUP3 DUP3 PUSH2 0xED5 JUMP JUMPDEST SWAP2 POP POP PUSH1 0x60 DUP4 ADD MLOAD PUSH2 0xFEC PUSH1 0x60 DUP7 ADD DUP3 PUSH2 0xEB7 JUMP JUMPDEST POP DUP1 SWAP2 POP POP SWAP3 SWAP2 POP POP JUMP JUMPDEST PUSH1 0x0 PUSH1 0x80 DUP4 ADD PUSH1 0x0 DUP4 ADD MLOAD PUSH2 0x100F PUSH1 0x0 DUP7 ADD DUP3 PUSH2 0x1061 JUMP JUMPDEST POP PUSH1 0x20 DUP4 ADD MLOAD DUP5 DUP3 SUB PUSH1 0x20 DUP7 ADD MSTORE PUSH2 0x1027 DUP3 DUP3 PUSH2 0xED5 JUMP JUMPDEST SWAP2 POP POP PUSH1 0x40 DUP4 ADD MLOAD DUP5 DUP3 SUB PUSH1 0x40 DUP7 ADD MSTORE PUSH2 0x1041 DUP3 DUP3 PUSH2 0xED5 JUMP JUMPDEST SWAP2 POP POP PUSH1 0x60 DUP4 ADD MLOAD PUSH2 0x1056 PUSH1 0x60 DUP7 ADD DUP3 PUSH2 0xEB7 JUMP JUMPDEST POP DUP1 SWAP2 POP POP SWAP3 SWAP2 POP POP JUMP JUMPDEST PUSH2 0x106A DUP2 PUSH2 0x126B JUMP JUMPDEST DUP3 MSTORE POP POP JUMP JUMPDEST PUSH2 0x1079 DUP2 PUSH2 0x126B JUMP JUMPDEST DUP3 MSTORE POP POP JUMP JUMPDEST PUSH1 0x0 PUSH1 0x20 DUP3 ADD SWAP1 POP DUP2 DUP2 SUB PUSH1 0x0 DUP4 ADD MSTORE PUSH2 0x1099 DUP2 DUP5 PUSH2 0xE42 JUMP JUMPDEST SWAP1 POP SWAP3 SWAP2 POP POP JUMP JUMPDEST PUSH1 0x0 PUSH1 0x20 DUP3 ADD SWAP1 POP DUP2 DUP2 SUB PUSH1 0x0 DUP4 ADD MSTORE PUSH2 0x10BA DUP2 PUSH2 0xF47 JUMP JUMPDEST SWAP1 POP SWAP2 SWAP1 POP JUMP JUMPDEST PUSH1 0x0 PUSH1 0x20 DUP3 ADD SWAP1 POP DUP2 DUP2 SUB PUSH1 0x0 DUP4 ADD MSTORE PUSH2 0x10DA DUP2 PUSH2 0xF6A JUMP JUMPDEST SWAP1 POP SWAP2 SWAP1 POP JUMP JUMPDEST PUSH1 0x0 PUSH1 0x20 DUP3 ADD SWAP1 POP DUP2 DUP2 SUB PUSH1 0x0 DUP4 ADD MSTORE PUSH2 0x10FB DUP2 DUP5 PUSH2 0xFF7 JUMP JUMPDEST SWAP1 POP SWAP3 SWAP2 POP POP JUMP JUMPDEST PUSH1 0x0 PUSH1 0x20 DUP3 ADD SWAP1 POP PUSH2 0x1118 PUSH1 0x0 DUP4 ADD DUP5 PUSH2 0x1070 JUMP JUMPDEST SWAP3 SWAP2 POP POP JUMP JUMPDEST PUSH1 0x0 PUSH1 0x80 DUP3 ADD SWAP1 POP PUSH2 0x1133 PUSH1 0x0 DUP4 ADD DUP8 PUSH2 0x1070 JUMP JUMPDEST DUP2 DUP2 SUB PUSH1 0x20 DUP4 ADD MSTORE PUSH2 0x1145 DUP2 DUP7 PUSH2 0xF0E JUMP JUMPDEST SWAP1 POP DUP2 DUP2 SUB PUSH1 0x40 DUP4 ADD MSTORE PUSH2 0x1159 DUP2 DUP6 PUSH2 0xF0E JUMP JUMPDEST SWAP1 POP PUSH2 0x1168 PUSH1 0x60 DUP4 ADD DUP5 PUSH2 0xEC6 JUMP JUMPDEST SWAP6 SWAP5 POP POP POP POP POP JUMP JUMPDEST PUSH1 0x0 PUSH2 0x117B PUSH2 0x118C JUMP JUMPDEST SWAP1 POP PUSH2 0x1187 DUP3 DUP3 PUSH2 0x12E9 JUMP JUMPDEST SWAP2 SWAP1 POP JUMP JUMPDEST PUSH1 0x0 PUSH1 0x40 MLOAD SWAP1 POP SWAP1 JUMP JUMPDEST PUSH1 0x0 PUSH8 0xFFFFFFFFFFFFFFFF DUP3 GT ISZERO PUSH2 0x11B1 JUMPI PUSH2 0x11B0 PUSH2 0x13F0 JUMP JUMPDEST JUMPDEST PUSH2 0x11BA DUP3 PUSH2 0x1433 JUMP JUMPDEST SWAP1 POP PUSH1 0x20 DUP2 ADD SWAP1 POP SWAP2 SWAP1 POP JUMP JUMPDEST PUSH1 0x0 DUP2 SWAP1 POP PUSH1 0x20 DUP3 ADD SWAP1 POP SWAP2 SWAP1 POP JUMP JUMPDEST PUSH1 0x0 DUP2 MLOAD SWAP1 POP SWAP2 SWAP1 POP JUMP JUMPDEST PUSH1 0x0 DUP2 MLOAD SWAP1 POP SWAP2 SWAP1 POP JUMP JUMPDEST PUSH1 0x0 PUSH1 0x20 DUP3 ADD SWAP1 POP SWAP2 SWAP1 POP JUMP JUMPDEST PUSH1 0x0 DUP3 DUP3 MSTORE PUSH1 0x20 DUP3 ADD SWAP1 POP SWAP3 SWAP2 POP POP JUMP JUMPDEST PUSH1 0x0 DUP3 DUP3 MSTORE PUSH1 0x20 DUP3 ADD SWAP1 POP SWAP3 SWAP2 POP POP JUMP JUMPDEST PUSH1 0x0 DUP3 DUP3 MSTORE PUSH1 0x20 DUP3 ADD SWAP1 POP SWAP3 SWAP2 POP POP JUMP JUMPDEST PUSH1 0x0 PUSH2 0x1238 DUP3 PUSH2 0x124B JUMP JUMPDEST SWAP1 POP SWAP2 SWAP1 POP JUMP JUMPDEST PUSH1 0x0 DUP2 ISZERO ISZERO SWAP1 POP SWAP2 SWAP1 POP JUMP JUMPDEST PUSH1 0x0 PUSH20 0xFFFFFFFFFFFFFFFFFFFFFFFFFFFFFFFFFFFFFFFF DUP3 AND SWAP1 POP SWAP2 SWAP1 POP JUMP JUMPDEST PUSH1 0x0 DUP2 SWAP1 POP SWAP2 SWAP1 POP JUMP JUMPDEST DUP3 DUP2 DUP4 CALLDATACOPY PUSH1 0x0 DUP4 DUP4 ADD MSTORE POP POP POP JUMP JUMPDEST PUSH1 0x0 JUMPDEST DUP4 DUP2 LT ISZERO PUSH2 0x12A2 JUMPI DUP1 DUP3 ADD MLOAD DUP2 DUP5 ADD MSTORE PUSH1 0x20 DUP2 ADD SWAP1 POP PUSH2 0x1287 JUMP JUMPDEST DUP4 DUP2 GT ISZERO PUSH2 0x12B1 JUMPI PUSH1 0x0 DUP5 DUP5 ADD MSTORE JUMPDEST POP POP POP POP JUMP JUMPDEST PUSH1 0x0 PUSH1 0x2 DUP3 DIV SWAP1 POP PUSH1 0x1 DUP3 AND DUP1 PUSH2 0x12CF JUMPI PUSH1 0x7F DUP3 AND SWAP2 POP JUMPDEST PUSH1 0x20 DUP3 LT DUP2 EQ ISZERO PUSH2 0x12E3 JUMPI PUSH2 0x12E2 PUSH2 0x1392 JUMP JUMPDEST JUMPDEST POP SWAP2 SWAP1 POP JUMP JUMPDEST PUSH2 0x12F2 DUP3 PUSH2 0x1433 JUMP JUMPDEST DUP2 ADD DUP2 DUP2 LT PUSH8 0xFFFFFFFFFFFFFFFF DUP3 GT OR ISZERO PUSH2 0x1311 JUMPI PUSH2 0x1310 PUSH2 0x13F0 JUMP JUMPDEST JUMPDEST DUP1 PUSH1 0x40 MSTORE POP POP POP JUMP JUMPDEST PUSH1 0x0 PUSH2 0x1325 DUP3 PUSH2 0x126B JUMP JUMPDEST SWAP2 POP PUSH32 0xFFFFFFFFFFFFFFFFFFFFFFFFFFFFFFFFFFFFFFFFFFFFFFFFFFFFFFFFFFFFFFFF DUP3 EQ ISZERO PUSH2 0x1358 JUMPI PUSH2 0x1357 PUSH2 0x1363 JUMP JUMPDEST JUMPDEST PUSH1 0x1 DUP3 ADD SWAP1 POP SWAP2 SWAP1 POP JUMP JUMPDEST PUSH32 0x4E487B7100000000000000000000000000000000000000000000000000000000 PUSH1 0x0 MSTORE PUSH1 0x11 PUSH1 0x4 MSTORE PUSH1 0x24 PUSH1 0x0 REVERT JUMPDEST PUSH32 0x4E487B7100000000000000000000000000000000000000000000000000000000 PUSH1 0x0 MSTORE PUSH1 0x22 PUSH1 0x4 MSTORE PUSH1 0x24 PUSH1 0x0 REVERT JUMPDEST PUSH32 0x4E487B7100000000000000000000000000000000000000000000000000000000 PUSH1 0x0 MSTORE PUSH1 0x32 PUSH1 0x4 MSTORE PUSH1 0x24 PUSH1 0x0 REVERT JUMPDEST PUSH32 0x4E487B7100000000000000000000000000000000000000000000000000000000 PUSH1 0x0 MSTORE PUSH1 0x41 PUSH1 0x4 MSTORE PUSH1 0x24 PUSH1 0x0 REVERT JUMPDEST PUSH1 0x0 DUP1 REVERT JUMPDEST PUSH1 0x0 DUP1 REVERT JUMPDEST PUSH1 0x0 DUP1 REVERT JUMPDEST PUSH1 0x0 DUP1 REVERT JUMPDEST PUSH1 0x0 PUSH1 0x1F NOT PUSH1 0x1F DUP4 ADD AND SWAP1 POP SWAP2 SWAP1 POP JUMP JUMPDEST PUSH32 0x4E6F20746F646F7320666F756E64000000000000000000000000000000000000 PUSH1 0x0 DUP3 ADD MSTORE POP JUMP JUMPDEST PUSH32 0x546F646F20776974682063757272656E74204944206E6F7420666F756E640000 PUSH1 0x0 DUP3 ADD MSTORE POP JUMP JUMPDEST PUSH2 0x149F DUP2 PUSH2 0x122D JUMP JUMPDEST DUP2 EQ PUSH2 0x14AA JUMPI PUSH1 0x0 DUP1 REVERT JUMPDEST POP JUMP JUMPDEST PUSH2 0x14B6 DUP2 PUSH2 0x126B JUMP JUMPDEST DUP2 EQ PUSH2 0x14C1 JUMPI PUSH1 0x0 DUP1 REVERT JUMPDEST POP JUMP INVALID LOG2 PUSH5 0x6970667358 0x22 SLT KECCAK256 MSTORE 0xC2 0xF8 0xCE MOD 0xAC 0xDC SIGNEXTEND BASEFEE 0xB1 CODESIZE EXTCODEHASH EXTCODEHASH SMOD 0xB0 0xFB 0xA6 SGT 0x1E XOR SDIV 0x4D 0xAF 0x27 0xAE 0xC6 LOG2 0xA6 0xB1 SELFBALANCE 0xDE RETURNDATACOPY PUSH5 0x736F6C6343 STOP ADDMOD SMOD STOP CALLER "
				},
				"gasEstimates": {
					"creation": {
						"codeDepositCost": "1074000",
						"executionCost": "1114",
						"totalCost": "1075114"
					},
					"external": {
						"addTodo(string,string)": "infinite",
						"counter(address)": "2881",
						"getAllTodos()": "infinite",
						"getAmount()": "2548",
						"getTodo(uint256)": "infinite",
						"setAsDone(uint256)": "29237",
						"setAsUndone(uint256)": "29216",
						"todos(address,uint256)": "infinite"
					}
				},
				"methodIdentifiers": {
					"addTodo(string,string)": "1b7fb260",
					"counter(address)": "c12327b8",
					"getAllTodos()": "ce2bd5d5",
					"getAmount()": "d321fe29",
					"getTodo(uint256)": "dd68afb6",
					"setAsDone(uint256)": "fc5049f1",
					"setAsUndone(uint256)": "62969ff7",
					"todos(address,uint256)": "428c1889"
				}
			},
			"storageLayout": {
				"storage": [
					{
						"astId": 18,
						"contract": "ToDoApp.sol:ToDoApp",
						"label": "todos",
						"offset": 0,
						"slot": "0",
						"type": "t_mapping(t_address,t_array(t_struct(ToDo)11_storage)dyn_storage)"
					},
					{
						"astId": 22,
						"contract": "ToDoApp.sol:ToDoApp",
						"label": "counter",
						"offset": 0,
						"slot": "1",
						"type": "t_mapping(t_address,t_uint256)"
					}
				],
				"types": {
					"t_address": {
						"encoding": "inplace",
						"label": "address",
						"numberOfBytes": "20"
					},
					"t_array(t_struct(ToDo)11_storage)dyn_storage": {
						"base": "t_struct(ToDo)11_storage",
						"encoding": "dynamic_array",
						"label": "struct ToDoApp.ToDo[]",
						"numberOfBytes": "32"
					},
					"t_bool": {
						"encoding": "inplace",
						"label": "bool",
						"numberOfBytes": "1"
					},
					"t_mapping(t_address,t_array(t_struct(ToDo)11_storage)dyn_storage)": {
						"encoding": "mapping",
						"key": "t_address",
						"label": "mapping(address => struct ToDoApp.ToDo[])",
						"numberOfBytes": "32",
						"value": "t_array(t_struct(ToDo)11_storage)dyn_storage"
					},
					"t_mapping(t_address,t_uint256)": {
						"encoding": "mapping",
						"key": "t_address",
						"label": "mapping(address => uint256)",
						"numberOfBytes": "32",
						"value": "t_uint256"
					},
					"t_string_storage": {
						"encoding": "bytes",
						"label": "string",
						"numberOfBytes": "32"
					},
					"t_struct(ToDo)11_storage": {
						"encoding": "inplace",
						"label": "struct ToDoApp.ToDo",
						"members": [
							{
								"astId": 4,
								"contract": "ToDoApp.sol:ToDoApp",
								"label": "id",
								"offset": 0,
								"slot": "0",
								"type": "t_uint256"
							},
							{
								"astId": 6,
								"contract": "ToDoApp.sol:ToDoApp",
								"label": "name",
								"offset": 0,
								"slot": "1",
								"type": "t_string_storage"
							},
							{
								"astId": 8,
								"contract": "ToDoApp.sol:ToDoApp",
								"label": "content",
								"offset": 0,
								"slot": "2",
								"type": "t_string_storage"
							},
							{
								"astId": 10,
								"contract": "ToDoApp.sol:ToDoApp",
								"label": "status",
								"offset": 0,
								"slot": "3",
								"type": "t_bool"
							}
						],
						"numberOfBytes": "128"
					},
					"t_uint256": {
						"encoding": "inplace",
						"label": "uint256",
						"numberOfBytes": "32"
					}
				}
			},
			"userdoc": {
				"kind": "user",
				"methods": {
					"addTodo(string,string)": {
						"notice": "Add new todo to memory. ID defaults to counter index and status defaults to false"
					},
					"constructor": {
						"notice": "Constructor"
					},
					"getAllTodos()": {
						"notice": "Get all todos. If no todos are found send error."
					},
					"getAmount()": {
						"notice": "Get amount of todos"
					},
					"getTodo(uint256)": {
						"notice": "Get todo. Send error coder if id is not valid"
					},
					"setAsDone(uint256)": {
						"notice": "Set todo as done. If no todos are found send error."
					},
					"setAsUndone(uint256)": {
						"notice": "Set todo as undone. If no todos are found send error."
					},
					"todos(address,uint256)": {
						"notice": "Mappings"
					}
				},
				"notice": "A simple ToDo smart contract app",
				"version": 1
			}
		}
	}
}