{
	"ToDoApp.sol": {
		"ToDoApp": {
			"abi": [
				{
					"inputs": [],
					"stateMutability": "nonpayable",
					"type": "constructor"
				},
				{
					"inputs": [
						{
							"internalType": "string",
							"name": "name",
							"type": "string"
						},
						{
							"internalType": "string",
							"name": "content",
							"type": "string"
						}
					],
					"name": "addTodo",
					"outputs": [],
					"stateMutability": "nonpayable",
					"type": "function"
				},
				{
					"inputs": [
						{
							"internalType": "address",
							"name": "",
							"type": "address"
						}
					],
					"name": "counter",
					"outputs": [
						{
							"internalType": "uint256",
							"name": "",
							"type": "uint256"
						}
					],
					"stateMutability": "view",
					"type": "function"
				},
				{
					"inputs": [],
					"name": "getAmount",
					"outputs": [
						{
							"internalType": "uint256",
							"name": "",
							"type": "uint256"
						}
					],
					"stateMutability": "view",
					"type": "function"
				},
				{
					"inputs": [
						{
							"internalType": "uint256",
							"name": "id",
							"type": "uint256"
						}
					],
					"name": "getTodo",
					"outputs": [
						{
							"components": [
								{
									"internalType": "uint256",
									"name": "id",
									"type": "uint256"
								},
								{
									"internalType": "string",
									"name": "name",
									"type": "string"
								},
								{
									"internalType": "string",
									"name": "content",
									"type": "string"
								},
								{
									"internalType": "bool",
									"name": "status",
									"type": "bool"
								}
							],
							"internalType": "struct ToDoApp.ToDo",
							"name": "",
							"type": "tuple"
						}
					],
					"stateMutability": "view",
					"type": "function"
				},
				{
					"inputs": [
						{
							"internalType": "uint256",
							"name": "id",
							"type": "uint256"
						}
					],
					"name": "setAsDone",
					"outputs": [],
					"stateMutability": "nonpayable",
					"type": "function"
				},
				{
					"inputs": [
						{
							"internalType": "uint256",
							"name": "id",
							"type": "uint256"
						}
					],
					"name": "setAsUndone",
					"outputs": [],
					"stateMutability": "nonpayable",
					"type": "function"
				},
				{
					"inputs": [
						{
							"internalType": "address",
							"name": "",
							"type": "address"
						},
						{
							"internalType": "uint256",
							"name": "",
							"type": "uint256"
						}
					],
					"name": "todos",
					"outputs": [
						{
							"internalType": "uint256",
							"name": "id",
							"type": "uint256"
						},
						{
							"internalType": "string",
							"name": "name",
							"type": "string"
						},
						{
							"internalType": "string",
							"name": "content",
							"type": "string"
						},
						{
							"internalType": "bool",
							"name": "status",
							"type": "bool"
						}
					],
					"stateMutability": "view",
					"type": "function"
				}
			],
			"devdoc": {
				"kind": "dev",
				"methods": {},
				"version": 1
			},
			"evm": {
				"assembly": "    /* \"ToDoApp.sol\":120:1577  contract ToDoApp {... */\n  mstore(0x40, 0x80)\n    /* \"ToDoApp.sol\":483:499  constructor() {} */\n  callvalue\n  dup1\n  iszero\n  tag_1\n  jumpi\n  0x00\n  dup1\n  revert\ntag_1:\n  pop\n    /* \"ToDoApp.sol\":120:1577  contract ToDoApp {... */\n  dataSize(sub_0)\n  dup1\n  dataOffset(sub_0)\n  0x00\n  codecopy\n  0x00\n  return\nstop\n\nsub_0: assembly {\n        /* \"ToDoApp.sol\":120:1577  contract ToDoApp {... */\n      mstore(0x40, 0x80)\n      callvalue\n      dup1\n      iszero\n      tag_1\n      jumpi\n      0x00\n      dup1\n      revert\n    tag_1:\n      pop\n      jumpi(tag_2, lt(calldatasize, 0x04))\n      shr(0xe0, calldataload(0x00))\n      dup1\n      0xc12327b8\n      gt\n      tag_10\n      jumpi\n      dup1\n      0xc12327b8\n      eq\n      tag_6\n      jumpi\n      dup1\n      0xd321fe29\n      eq\n      tag_7\n      jumpi\n      dup1\n      0xdd68afb6\n      eq\n      tag_8\n      jumpi\n      dup1\n      0xfc5049f1\n      eq\n      tag_9\n      jumpi\n      jump(tag_2)\n    tag_10:\n      dup1\n      0x1b7fb260\n      eq\n      tag_3\n      jumpi\n      dup1\n      0x428c1889\n      eq\n      tag_4\n      jumpi\n      dup1\n      0x62969ff7\n      eq\n      tag_5\n      jumpi\n    tag_2:\n      0x00\n      dup1\n      revert\n        /* \"ToDoApp.sol\":610:897  function addTodo(string memory name, string memory content) public {... */\n    tag_3:\n      tag_11\n      0x04\n      dup1\n      calldatasize\n      sub\n      dup2\n      add\n      swap1\n      tag_12\n      swap2\n      swap1\n      tag_13\n      jump\t// in\n    tag_12:\n      tag_14\n      jump\t// in\n    tag_11:\n      stop\n        /* \"ToDoApp.sol\":353:392  mapping(address => ToDo[]) public todos */\n    tag_4:\n      tag_15\n      0x04\n      dup1\n      calldatasize\n      sub\n      dup2\n      add\n      swap1\n      tag_16\n      swap2\n      swap1\n      tag_17\n      jump\t// in\n    tag_16:\n      tag_18\n      jump\t// in\n    tag_15:\n      mload(0x40)\n      tag_19\n      swap5\n      swap4\n      swap3\n      swap2\n      swap1\n      tag_20\n      jump\t// in\n    tag_19:\n      mload(0x40)\n      dup1\n      swap2\n      sub\n      swap1\n      return\n        /* \"ToDoApp.sol\":1485:1575  function setAsUndone(uint id) public {... */\n    tag_5:\n      tag_21\n      0x04\n      dup1\n      calldatasize\n      sub\n      dup2\n      add\n      swap1\n      tag_22\n      swap2\n      swap1\n      tag_23\n      jump\t// in\n    tag_22:\n      tag_24\n      jump\t// in\n    tag_21:\n      stop\n        /* \"ToDoApp.sol\":398:440  mapping(address => uint256) public counter */\n    tag_6:\n      tag_25\n      0x04\n      dup1\n      calldatasize\n      sub\n      dup2\n      add\n      swap1\n      tag_26\n      swap2\n      swap1\n      tag_27\n      jump\t// in\n    tag_26:\n      tag_28\n      jump\t// in\n    tag_25:\n      mload(0x40)\n      tag_29\n      swap2\n      swap1\n      tag_30\n      jump\t// in\n    tag_29:\n      mload(0x40)\n      dup1\n      swap2\n      sub\n      swap1\n      return\n        /* \"ToDoApp.sol\":1215:1304  function getAmount() public view returns(uint){... */\n    tag_7:\n      tag_31\n      tag_32\n      jump\t// in\n    tag_31:\n      mload(0x40)\n      tag_33\n      swap2\n      swap1\n      tag_30\n      jump\t// in\n    tag_33:\n      mload(0x40)\n      dup1\n      swap2\n      sub\n      swap1\n      return\n        /* \"ToDoApp.sol\":972:1165  function getTodo(uint id) public view returns(ToDo memory) {... */\n    tag_8:\n      tag_34\n      0x04\n      dup1\n      calldatasize\n      sub\n      dup2\n      add\n      swap1\n      tag_35\n      swap2\n      swap1\n      tag_23\n      jump\t// in\n    tag_35:\n      tag_36\n      jump\t// in\n    tag_34:\n      mload(0x40)\n      tag_37\n      swap2\n      swap1\n      tag_38\n      jump\t// in\n    tag_37:\n      mload(0x40)\n      dup1\n      swap2\n      sub\n      swap1\n      return\n        /* \"ToDoApp.sol\":1350:1437  function setAsDone(uint id) public {... */\n    tag_9:\n      tag_39\n      0x04\n      dup1\n      calldatasize\n      sub\n      dup2\n      add\n      swap1\n      tag_40\n      swap2\n      swap1\n      tag_23\n      jump\t// in\n    tag_40:\n      tag_41\n      jump\t// in\n    tag_39:\n      stop\n        /* \"ToDoApp.sol\":610:897  function addTodo(string memory name, string memory content) public {... */\n    tag_14:\n        /* \"ToDoApp.sol\":729:734  todos */\n      0x00\n        /* \"ToDoApp.sol\":729:746  todos[msg.sender] */\n      dup1\n        /* \"ToDoApp.sol\":735:745  msg.sender */\n      caller\n        /* \"ToDoApp.sol\":729:746  todos[msg.sender] */\n      0xffffffffffffffffffffffffffffffffffffffff\n      and\n      0xffffffffffffffffffffffffffffffffffffffff\n      and\n      dup2\n      mstore\n      0x20\n      add\n      swap1\n      dup2\n      mstore\n      0x20\n      add\n      0x00\n      keccak256\n        /* \"ToDoApp.sol\":765:812  ToDo(counter[msg.sender], name, content, false) */\n      mload(0x40)\n      dup1\n      0x80\n      add\n      0x40\n      mstore\n      dup1\n        /* \"ToDoApp.sol\":770:777  counter */\n      0x01\n        /* \"ToDoApp.sol\":770:789  counter[msg.sender] */\n      0x00\n        /* \"ToDoApp.sol\":778:788  msg.sender */\n      caller\n        /* \"ToDoApp.sol\":770:789  counter[msg.sender] */\n      0xffffffffffffffffffffffffffffffffffffffff\n      and\n      0xffffffffffffffffffffffffffffffffffffffff\n      and\n      dup2\n      mstore\n      0x20\n      add\n      swap1\n      dup2\n      mstore\n      0x20\n      add\n      0x00\n      keccak256\n      sload\n        /* \"ToDoApp.sol\":765:812  ToDo(counter[msg.sender], name, content, false) */\n      dup2\n      mstore\n      0x20\n      add\n        /* \"ToDoApp.sol\":791:795  name */\n      dup5\n        /* \"ToDoApp.sol\":765:812  ToDo(counter[msg.sender], name, content, false) */\n      dup2\n      mstore\n      0x20\n      add\n        /* \"ToDoApp.sol\":797:804  content */\n      dup4\n        /* \"ToDoApp.sol\":765:812  ToDo(counter[msg.sender], name, content, false) */\n      dup2\n      mstore\n      0x20\n      add\n        /* \"ToDoApp.sol\":806:811  false */\n      0x00\n        /* \"ToDoApp.sol\":765:812  ToDo(counter[msg.sender], name, content, false) */\n      iszero\n      iszero\n      dup2\n      mstore\n      pop\n        /* \"ToDoApp.sol\":729:822  todos[msg.sender].push(... */\n      swap1\n      dup1\n      0x01\n      dup2\n      sload\n      add\n      dup1\n      dup3\n      sstore\n      dup1\n      swap2\n      pop\n      pop\n      0x01\n      swap1\n      sub\n      swap1\n      0x00\n      mstore\n      keccak256(0x00, 0x20)\n      swap1\n      0x04\n      mul\n      add\n      0x00\n      swap1\n      swap2\n      swap1\n      swap2\n      swap1\n      swap2\n      pop\n      0x00\n      dup3\n      add\n      mload\n      dup2\n      0x00\n      add\n      sstore\n      0x20\n      dup3\n      add\n      mload\n      dup2\n      0x01\n      add\n      swap1\n      dup1\n      mload\n      swap1\n      0x20\n      add\n      swap1\n      tag_44\n      swap3\n      swap2\n      swap1\n      tag_45\n      jump\t// in\n    tag_44:\n      pop\n      0x40\n      dup3\n      add\n      mload\n      dup2\n      0x02\n      add\n      swap1\n      dup1\n      mload\n      swap1\n      0x20\n      add\n      swap1\n      tag_46\n      swap3\n      swap2\n      swap1\n      tag_45\n      jump\t// in\n    tag_46:\n      pop\n      0x60\n      dup3\n      add\n      mload\n      dup2\n      0x03\n      add\n      exp(0x0100, 0x00)\n      dup2\n      sload\n      dup2\n      0xff\n      mul\n      not\n      and\n      swap1\n      dup4\n      iszero\n      iszero\n      mul\n      or\n      swap1\n      sstore\n      pop\n      pop\n      pop\n        /* \"ToDoApp.sol\":869:876  counter */\n      0x01\n        /* \"ToDoApp.sol\":869:888  counter[msg.sender] */\n      0x00\n        /* \"ToDoApp.sol\":877:887  msg.sender */\n      caller\n        /* \"ToDoApp.sol\":869:888  counter[msg.sender] */\n      0xffffffffffffffffffffffffffffffffffffffff\n      and\n      0xffffffffffffffffffffffffffffffffffffffff\n      and\n      dup2\n      mstore\n      0x20\n      add\n      swap1\n      dup2\n      mstore\n      0x20\n      add\n      0x00\n      keccak256\n      0x00\n        /* \"ToDoApp.sol\":869:890  counter[msg.sender]++ */\n      dup2\n      sload\n      dup1\n      swap3\n      swap2\n      swap1\n      tag_47\n      swap1\n      tag_48\n      jump\t// in\n    tag_47:\n      swap2\n      swap1\n      pop\n      sstore\n      pop\n        /* \"ToDoApp.sol\":610:897  function addTodo(string memory name, string memory content) public {... */\n      pop\n      pop\n      jump\t// out\n        /* \"ToDoApp.sol\":353:392  mapping(address => ToDo[]) public todos */\n    tag_18:\n      mstore(0x20, 0x00)\n      dup2\n      0x00\n      mstore\n      keccak256(0x00, 0x40)\n      dup2\n      dup2\n      sload\n      dup2\n      lt\n      tag_49\n      jumpi\n      0x00\n      dup1\n      revert\n    tag_49:\n      swap1\n      0x00\n      mstore\n      keccak256(0x00, 0x20)\n      swap1\n      0x04\n      mul\n      add\n      0x00\n      swap2\n      pop\n      swap2\n      pop\n      pop\n      dup1\n      0x00\n      add\n      sload\n      swap1\n      dup1\n      0x01\n      add\n      dup1\n      sload\n      tag_51\n      swap1\n      tag_52\n      jump\t// in\n    tag_51:\n      dup1\n      0x1f\n      add\n      0x20\n      dup1\n      swap2\n      div\n      mul\n      0x20\n      add\n      mload(0x40)\n      swap1\n      dup2\n      add\n      0x40\n      mstore\n      dup1\n      swap3\n      swap2\n      swap1\n      dup2\n      dup2\n      mstore\n      0x20\n      add\n      dup3\n      dup1\n      sload\n      tag_53\n      swap1\n      tag_52\n      jump\t// in\n    tag_53:\n      dup1\n      iszero\n      tag_54\n      jumpi\n      dup1\n      0x1f\n      lt\n      tag_55\n      jumpi\n      0x0100\n      dup1\n      dup4\n      sload\n      div\n      mul\n      dup4\n      mstore\n      swap2\n      0x20\n      add\n      swap2\n      jump(tag_54)\n    tag_55:\n      dup3\n      add\n      swap2\n      swap1\n      0x00\n      mstore\n      keccak256(0x00, 0x20)\n      swap1\n    tag_56:\n      dup2\n      sload\n      dup2\n      mstore\n      swap1\n      0x01\n      add\n      swap1\n      0x20\n      add\n      dup1\n      dup4\n      gt\n      tag_56\n      jumpi\n      dup3\n      swap1\n      sub\n      0x1f\n      and\n      dup3\n      add\n      swap2\n    tag_54:\n      pop\n      pop\n      pop\n      pop\n      pop\n      swap1\n      dup1\n      0x02\n      add\n      dup1\n      sload\n      tag_57\n      swap1\n      tag_52\n      jump\t// in\n    tag_57:\n      dup1\n      0x1f\n      add\n      0x20\n      dup1\n      swap2\n      div\n      mul\n      0x20\n      add\n      mload(0x40)\n      swap1\n      dup2\n      add\n      0x40\n      mstore\n      dup1\n      swap3\n      swap2\n      swap1\n      dup2\n      dup2\n      mstore\n      0x20\n      add\n      dup3\n      dup1\n      sload\n      tag_58\n      swap1\n      tag_52\n      jump\t// in\n    tag_58:\n      dup1\n      iszero\n      tag_59\n      jumpi\n      dup1\n      0x1f\n      lt\n      tag_60\n      jumpi\n      0x0100\n      dup1\n      dup4\n      sload\n      div\n      mul\n      dup4\n      mstore\n      swap2\n      0x20\n      add\n      swap2\n      jump(tag_59)\n    tag_60:\n      dup3\n      add\n      swap2\n      swap1\n      0x00\n      mstore\n      keccak256(0x00, 0x20)\n      swap1\n    tag_61:\n      dup2\n      sload\n      dup2\n      mstore\n      swap1\n      0x01\n      add\n      swap1\n      0x20\n      add\n      dup1\n      dup4\n      gt\n      tag_61\n      jumpi\n      dup3\n      swap1\n      sub\n      0x1f\n      and\n      dup3\n      add\n      swap2\n    tag_59:\n      pop\n      pop\n      pop\n      pop\n      pop\n      swap1\n      dup1\n      0x03\n      add\n      0x00\n      swap1\n      sload\n      swap1\n      0x0100\n      exp\n      swap1\n      div\n      0xff\n      and\n      swap1\n      pop\n      dup5\n      jump\t// out\n        /* \"ToDoApp.sol\":1485:1575  function setAsUndone(uint id) public {... */\n    tag_24:\n        /* \"ToDoApp.sol\":1563:1568  false */\n      0x00\n        /* \"ToDoApp.sol\":1532:1537  todos */\n      dup1\n        /* \"ToDoApp.sol\":1532:1549  todos[msg.sender] */\n      0x00\n        /* \"ToDoApp.sol\":1538:1548  msg.sender */\n      caller\n        /* \"ToDoApp.sol\":1532:1549  todos[msg.sender] */\n      0xffffffffffffffffffffffffffffffffffffffff\n      and\n      0xffffffffffffffffffffffffffffffffffffffff\n      and\n      dup2\n      mstore\n      0x20\n      add\n      swap1\n      dup2\n      mstore\n      0x20\n      add\n      0x00\n      keccak256\n        /* \"ToDoApp.sol\":1550:1552  id */\n      dup3\n        /* \"ToDoApp.sol\":1532:1553  todos[msg.sender][id] */\n      dup2\n      sload\n      dup2\n      lt\n      tag_63\n      jumpi\n      tag_64\n      tag_65\n      jump\t// in\n    tag_64:\n    tag_63:\n      swap1\n      0x00\n      mstore\n      keccak256(0x00, 0x20)\n      swap1\n      0x04\n      mul\n      add\n        /* \"ToDoApp.sol\":1532:1560  todos[msg.sender][id].status */\n      0x03\n      add\n      0x00\n        /* \"ToDoApp.sol\":1532:1568  todos[msg.sender][id].status = false */\n      0x0100\n      exp\n      dup2\n      sload\n      dup2\n      0xff\n      mul\n      not\n      and\n      swap1\n      dup4\n      iszero\n      iszero\n      mul\n      or\n      swap1\n      sstore\n      pop\n        /* \"ToDoApp.sol\":1485:1575  function setAsUndone(uint id) public {... */\n      pop\n      jump\t// out\n        /* \"ToDoApp.sol\":398:440  mapping(address => uint256) public counter */\n    tag_28:\n      mstore(0x20, 0x01)\n      dup1\n      0x00\n      mstore\n      keccak256(0x00, 0x40)\n      0x00\n      swap2\n      pop\n      swap1\n      pop\n      sload\n      dup2\n      jump\t// out\n        /* \"ToDoApp.sol\":1215:1304  function getAmount() public view returns(uint){... */\n    tag_32:\n        /* \"ToDoApp.sol\":1256:1260  uint */\n      0x00\n        /* \"ToDoApp.sol\":1278:1285  counter */\n      0x01\n        /* \"ToDoApp.sol\":1278:1297  counter[msg.sender] */\n      0x00\n        /* \"ToDoApp.sol\":1286:1296  msg.sender */\n      caller\n        /* \"ToDoApp.sol\":1278:1297  counter[msg.sender] */\n      0xffffffffffffffffffffffffffffffffffffffff\n      and\n      0xffffffffffffffffffffffffffffffffffffffff\n      and\n      dup2\n      mstore\n      0x20\n      add\n      swap1\n      dup2\n      mstore\n      0x20\n      add\n      0x00\n      keccak256\n      sload\n        /* \"ToDoApp.sol\":1271:1297  return counter[msg.sender] */\n      swap1\n      pop\n        /* \"ToDoApp.sol\":1215:1304  function getAmount() public view returns(uint){... */\n      swap1\n      jump\t// out\n        /* \"ToDoApp.sol\":972:1165  function getTodo(uint id) public view returns(ToDo memory) {... */\n    tag_36:\n        /* \"ToDoApp.sol\":1018:1029  ToDo memory */\n      tag_68\n      tag_69\n      jump\t// in\n    tag_68:\n        /* \"ToDoApp.sol\":1055:1056  0 */\n      0x00\n        /* \"ToDoApp.sol\":1049:1051  id */\n      dup3\n        /* \"ToDoApp.sol\":1049:1056  id >= 0 */\n      lt\n      iszero\n        /* \"ToDoApp.sol\":1049:1085  id >= 0 && id <= counter[msg.sender] */\n      dup1\n      iszero\n      tag_71\n      jumpi\n      pop\n        /* \"ToDoApp.sol\":1066:1073  counter */\n      0x01\n        /* \"ToDoApp.sol\":1066:1085  counter[msg.sender] */\n      0x00\n        /* \"ToDoApp.sol\":1074:1084  msg.sender */\n      caller\n        /* \"ToDoApp.sol\":1066:1085  counter[msg.sender] */\n      0xffffffffffffffffffffffffffffffffffffffff\n      and\n      0xffffffffffffffffffffffffffffffffffffffff\n      and\n      dup2\n      mstore\n      0x20\n      add\n      swap1\n      dup2\n      mstore\n      0x20\n      add\n      0x00\n      keccak256\n      sload\n        /* \"ToDoApp.sol\":1060:1062  id */\n      dup3\n        /* \"ToDoApp.sol\":1060:1085  id <= counter[msg.sender] */\n      gt\n      iszero\n        /* \"ToDoApp.sol\":1049:1085  id >= 0 && id <= counter[msg.sender] */\n    tag_71:\n        /* \"ToDoApp.sol\":1041:1120  require(id >= 0 && id <= counter[msg.sender], \"Todo with current ID not found\") */\n      tag_72\n      jumpi\n      mload(0x40)\n      0x08c379a000000000000000000000000000000000000000000000000000000000\n      dup2\n      mstore\n      0x04\n      add\n      tag_73\n      swap1\n      tag_74\n      jump\t// in\n    tag_73:\n      mload(0x40)\n      dup1\n      swap2\n      sub\n      swap1\n      revert\n    tag_72:\n        /* \"ToDoApp.sol\":1137:1142  todos */\n      0x00\n        /* \"ToDoApp.sol\":1137:1154  todos[msg.sender] */\n      dup1\n        /* \"ToDoApp.sol\":1143:1153  msg.sender */\n      caller\n        /* \"ToDoApp.sol\":1137:1154  todos[msg.sender] */\n      0xffffffffffffffffffffffffffffffffffffffff\n      and\n      0xffffffffffffffffffffffffffffffffffffffff\n      and\n      dup2\n      mstore\n      0x20\n      add\n      swap1\n      dup2\n      mstore\n      0x20\n      add\n      0x00\n      keccak256\n        /* \"ToDoApp.sol\":1155:1157  id */\n      dup3\n        /* \"ToDoApp.sol\":1137:1158  todos[msg.sender][id] */\n      dup2\n      sload\n      dup2\n      lt\n      tag_75\n      jumpi\n      tag_76\n      tag_65\n      jump\t// in\n    tag_76:\n    tag_75:\n      swap1\n      0x00\n      mstore\n      keccak256(0x00, 0x20)\n      swap1\n      0x04\n      mul\n      add\n        /* \"ToDoApp.sol\":1130:1158  return todos[msg.sender][id] */\n      mload(0x40)\n      dup1\n      0x80\n      add\n      0x40\n      mstore\n      swap1\n      dup2\n      0x00\n      dup3\n      add\n      sload\n      dup2\n      mstore\n      0x20\n      add\n      0x01\n      dup3\n      add\n      dup1\n      sload\n      tag_78\n      swap1\n      tag_52\n      jump\t// in\n    tag_78:\n      dup1\n      0x1f\n      add\n      0x20\n      dup1\n      swap2\n      div\n      mul\n      0x20\n      add\n      mload(0x40)\n      swap1\n      dup2\n      add\n      0x40\n      mstore\n      dup1\n      swap3\n      swap2\n      swap1\n      dup2\n      dup2\n      mstore\n      0x20\n      add\n      dup3\n      dup1\n      sload\n      tag_79\n      swap1\n      tag_52\n      jump\t// in\n    tag_79:\n      dup1\n      iszero\n      tag_80\n      jumpi\n      dup1\n      0x1f\n      lt\n      tag_81\n      jumpi\n      0x0100\n      dup1\n      dup4\n      sload\n      div\n      mul\n      dup4\n      mstore\n      swap2\n      0x20\n      add\n      swap2\n      jump(tag_80)\n    tag_81:\n      dup3\n      add\n      swap2\n      swap1\n      0x00\n      mstore\n      keccak256(0x00, 0x20)\n      swap1\n    tag_82:\n      dup2\n      sload\n      dup2\n      mstore\n      swap1\n      0x01\n      add\n      swap1\n      0x20\n      add\n      dup1\n      dup4\n      gt\n      tag_82\n      jumpi\n      dup3\n      swap1\n      sub\n      0x1f\n      and\n      dup3\n      add\n      swap2\n    tag_80:\n      pop\n      pop\n      pop\n      pop\n      pop\n      dup2\n      mstore\n      0x20\n      add\n      0x02\n      dup3\n      add\n      dup1\n      sload\n      tag_83\n      swap1\n      tag_52\n      jump\t// in\n    tag_83:\n      dup1\n      0x1f\n      add\n      0x20\n      dup1\n      swap2\n      div\n      mul\n      0x20\n      add\n      mload(0x40)\n      swap1\n      dup2\n      add\n      0x40\n      mstore\n      dup1\n      swap3\n      swap2\n      swap1\n      dup2\n      dup2\n      mstore\n      0x20\n      add\n      dup3\n      dup1\n      sload\n      tag_84\n      swap1\n      tag_52\n      jump\t// in\n    tag_84:\n      dup1\n      iszero\n      tag_85\n      jumpi\n      dup1\n      0x1f\n      lt\n      tag_86\n      jumpi\n      0x0100\n      dup1\n      dup4\n      sload\n      div\n      mul\n      dup4\n      mstore\n      swap2\n      0x20\n      add\n      swap2\n      jump(tag_85)\n    tag_86:\n      dup3\n      add\n      swap2\n      swap1\n      0x00\n      mstore\n      keccak256(0x00, 0x20)\n      swap1\n    tag_87:\n      dup2\n      sload\n      dup2\n      mstore\n      swap1\n      0x01\n      add\n      swap1\n      0x20\n      add\n      dup1\n      dup4\n      gt\n      tag_87\n      jumpi\n      dup3\n      swap1\n      sub\n      0x1f\n      and\n      dup3\n      add\n      swap2\n    tag_85:\n      pop\n      pop\n      pop\n      pop\n      pop\n      dup2\n      mstore\n      0x20\n      add\n      0x03\n      dup3\n      add\n      0x00\n      swap1\n      sload\n      swap1\n      0x0100\n      exp\n      swap1\n      div\n      0xff\n      and\n      iszero\n      iszero\n      iszero\n      iszero\n      dup2\n      mstore\n      pop\n      pop\n      swap1\n      pop\n        /* \"ToDoApp.sol\":972:1165  function getTodo(uint id) public view returns(ToDo memory) {... */\n      swap2\n      swap1\n      pop\n      jump\t// out\n        /* \"ToDoApp.sol\":1350:1437  function setAsDone(uint id) public {... */\n    tag_41:\n        /* \"ToDoApp.sol\":1426:1430  true */\n      0x01\n        /* \"ToDoApp.sol\":1395:1400  todos */\n      0x00\n        /* \"ToDoApp.sol\":1395:1412  todos[msg.sender] */\n      dup1\n        /* \"ToDoApp.sol\":1401:1411  msg.sender */\n      caller\n        /* \"ToDoApp.sol\":1395:1412  todos[msg.sender] */\n      0xffffffffffffffffffffffffffffffffffffffff\n      and\n      0xffffffffffffffffffffffffffffffffffffffff\n      and\n      dup2\n      mstore\n      0x20\n      add\n      swap1\n      dup2\n      mstore\n      0x20\n      add\n      0x00\n      keccak256\n        /* \"ToDoApp.sol\":1413:1415  id */\n      dup3\n        /* \"ToDoApp.sol\":1395:1416  todos[msg.sender][id] */\n      dup2\n      sload\n      dup2\n      lt\n      tag_89\n      jumpi\n      tag_90\n      tag_65\n      jump\t// in\n    tag_90:\n    tag_89:\n      swap1\n      0x00\n      mstore\n      keccak256(0x00, 0x20)\n      swap1\n      0x04\n      mul\n      add\n        /* \"ToDoApp.sol\":1395:1423  todos[msg.sender][id].status */\n      0x03\n      add\n      0x00\n        /* \"ToDoApp.sol\":1395:1430  todos[msg.sender][id].status = true */\n      0x0100\n      exp\n      dup2\n      sload\n      dup2\n      0xff\n      mul\n      not\n      and\n      swap1\n      dup4\n      iszero\n      iszero\n      mul\n      or\n      swap1\n      sstore\n      pop\n        /* \"ToDoApp.sol\":1350:1437  function setAsDone(uint id) public {... */\n      pop\n      jump\t// out\n    tag_45:\n      dup3\n      dup1\n      sload\n      tag_92\n      swap1\n      tag_52\n      jump\t// in\n    tag_92:\n      swap1\n      0x00\n      mstore\n      keccak256(0x00, 0x20)\n      swap1\n      0x1f\n      add\n      0x20\n      swap1\n      div\n      dup2\n      add\n      swap3\n      dup3\n      tag_94\n      jumpi\n      0x00\n      dup6\n      sstore\n      jump(tag_93)\n    tag_94:\n      dup3\n      0x1f\n      lt\n      tag_95\n      jumpi\n      dup1\n      mload\n      not(0xff)\n      and\n      dup4\n      dup1\n      add\n      or\n      dup6\n      sstore\n      jump(tag_93)\n    tag_95:\n      dup3\n      dup1\n      add\n      0x01\n      add\n      dup6\n      sstore\n      dup3\n      iszero\n      tag_93\n      jumpi\n      swap2\n      dup3\n      add\n    tag_96:\n      dup3\n      dup2\n      gt\n      iszero\n      tag_97\n      jumpi\n      dup3\n      mload\n      dup3\n      sstore\n      swap2\n      0x20\n      add\n      swap2\n      swap1\n      0x01\n      add\n      swap1\n      jump(tag_96)\n    tag_97:\n    tag_93:\n      pop\n      swap1\n      pop\n      tag_98\n      swap2\n      swap1\n      tag_99\n      jump\t// in\n    tag_98:\n      pop\n      swap1\n      jump\t// out\n    tag_69:\n      mload(0x40)\n      dup1\n      0x80\n      add\n      0x40\n      mstore\n      dup1\n      0x00\n      dup2\n      mstore\n      0x20\n      add\n      0x60\n      dup2\n      mstore\n      0x20\n      add\n      0x60\n      dup2\n      mstore\n      0x20\n      add\n      iszero(iszero(0x00))\n      dup2\n      mstore\n      pop\n      swap1\n      jump\t// out\n    tag_99:\n    tag_100:\n      dup1\n      dup3\n      gt\n      iszero\n      tag_101\n      jumpi\n      0x00\n      dup2\n      0x00\n      swap1\n      sstore\n      pop\n      0x01\n      add\n      jump(tag_100)\n    tag_101:\n      pop\n      swap1\n      jump\t// out\n        /* \"#utility.yul\":7:419   */\n    tag_103:\n        /* \"#utility.yul\":85:90   */\n      0x00\n        /* \"#utility.yul\":110:176   */\n      tag_105\n        /* \"#utility.yul\":126:175   */\n      tag_106\n        /* \"#utility.yul\":168:174   */\n      dup5\n        /* \"#utility.yul\":126:175   */\n      tag_107\n      jump\t// in\n    tag_106:\n        /* \"#utility.yul\":110:176   */\n      tag_108\n      jump\t// in\n    tag_105:\n        /* \"#utility.yul\":101:176   */\n      swap1\n      pop\n        /* \"#utility.yul\":199:205   */\n      dup3\n        /* \"#utility.yul\":192:197   */\n      dup2\n        /* \"#utility.yul\":185:206   */\n      mstore\n        /* \"#utility.yul\":237:241   */\n      0x20\n        /* \"#utility.yul\":230:235   */\n      dup2\n        /* \"#utility.yul\":226:242   */\n      add\n        /* \"#utility.yul\":275:278   */\n      dup5\n        /* \"#utility.yul\":266:272   */\n      dup5\n        /* \"#utility.yul\":261:264   */\n      dup5\n        /* \"#utility.yul\":257:273   */\n      add\n        /* \"#utility.yul\":254:279   */\n      gt\n        /* \"#utility.yul\":251:363   */\n      iszero\n      tag_109\n      jumpi\n        /* \"#utility.yul\":282:361   */\n      tag_110\n      tag_111\n      jump\t// in\n    tag_110:\n        /* \"#utility.yul\":251:363   */\n    tag_109:\n        /* \"#utility.yul\":372:413   */\n      tag_112\n        /* \"#utility.yul\":406:412   */\n      dup5\n        /* \"#utility.yul\":401:404   */\n      dup3\n        /* \"#utility.yul\":396:399   */\n      dup6\n        /* \"#utility.yul\":372:413   */\n      tag_113\n      jump\t// in\n    tag_112:\n        /* \"#utility.yul\":91:419   */\n      pop\n        /* \"#utility.yul\":7:419   */\n      swap4\n      swap3\n      pop\n      pop\n      pop\n      jump\t// out\n        /* \"#utility.yul\":425:564   */\n    tag_114:\n        /* \"#utility.yul\":471:476   */\n      0x00\n        /* \"#utility.yul\":509:515   */\n      dup2\n        /* \"#utility.yul\":496:516   */\n      calldataload\n        /* \"#utility.yul\":487:516   */\n      swap1\n      pop\n        /* \"#utility.yul\":525:558   */\n      tag_116\n        /* \"#utility.yul\":552:557   */\n      dup2\n        /* \"#utility.yul\":525:558   */\n      tag_117\n      jump\t// in\n    tag_116:\n        /* \"#utility.yul\":425:564   */\n      swap3\n      swap2\n      pop\n      pop\n      jump\t// out\n        /* \"#utility.yul\":584:924   */\n    tag_118:\n        /* \"#utility.yul\":640:645   */\n      0x00\n        /* \"#utility.yul\":689:692   */\n      dup3\n        /* \"#utility.yul\":682:686   */\n      0x1f\n        /* \"#utility.yul\":674:680   */\n      dup4\n        /* \"#utility.yul\":670:687   */\n      add\n        /* \"#utility.yul\":666:693   */\n      slt\n        /* \"#utility.yul\":656:778   */\n      tag_120\n      jumpi\n        /* \"#utility.yul\":697:776   */\n      tag_121\n      tag_122\n      jump\t// in\n    tag_121:\n        /* \"#utility.yul\":656:778   */\n    tag_120:\n        /* \"#utility.yul\":814:820   */\n      dup2\n        /* \"#utility.yul\":801:821   */\n      calldataload\n        /* \"#utility.yul\":839:918   */\n      tag_123\n        /* \"#utility.yul\":914:917   */\n      dup5\n        /* \"#utility.yul\":906:912   */\n      dup3\n        /* \"#utility.yul\":899:903   */\n      0x20\n        /* \"#utility.yul\":891:897   */\n      dup7\n        /* \"#utility.yul\":887:904   */\n      add\n        /* \"#utility.yul\":839:918   */\n      tag_103\n      jump\t// in\n    tag_123:\n        /* \"#utility.yul\":830:918   */\n      swap2\n      pop\n        /* \"#utility.yul\":646:924   */\n      pop\n        /* \"#utility.yul\":584:924   */\n      swap3\n      swap2\n      pop\n      pop\n      jump\t// out\n        /* \"#utility.yul\":930:1069   */\n    tag_124:\n        /* \"#utility.yul\":976:981   */\n      0x00\n        /* \"#utility.yul\":1014:1020   */\n      dup2\n        /* \"#utility.yul\":1001:1021   */\n      calldataload\n        /* \"#utility.yul\":992:1021   */\n      swap1\n      pop\n        /* \"#utility.yul\":1030:1063   */\n      tag_126\n        /* \"#utility.yul\":1057:1062   */\n      dup2\n        /* \"#utility.yul\":1030:1063   */\n      tag_127\n      jump\t// in\n    tag_126:\n        /* \"#utility.yul\":930:1069   */\n      swap3\n      swap2\n      pop\n      pop\n      jump\t// out\n        /* \"#utility.yul\":1075:1404   */\n    tag_27:\n        /* \"#utility.yul\":1134:1140   */\n      0x00\n        /* \"#utility.yul\":1183:1185   */\n      0x20\n        /* \"#utility.yul\":1171:1180   */\n      dup3\n        /* \"#utility.yul\":1162:1169   */\n      dup5\n        /* \"#utility.yul\":1158:1181   */\n      sub\n        /* \"#utility.yul\":1154:1186   */\n      slt\n        /* \"#utility.yul\":1151:1270   */\n      iszero\n      tag_129\n      jumpi\n        /* \"#utility.yul\":1189:1268   */\n      tag_130\n      tag_131\n      jump\t// in\n    tag_130:\n        /* \"#utility.yul\":1151:1270   */\n    tag_129:\n        /* \"#utility.yul\":1309:1310   */\n      0x00\n        /* \"#utility.yul\":1334:1387   */\n      tag_132\n        /* \"#utility.yul\":1379:1386   */\n      dup5\n        /* \"#utility.yul\":1370:1376   */\n      dup3\n        /* \"#utility.yul\":1359:1368   */\n      dup6\n        /* \"#utility.yul\":1355:1377   */\n      add\n        /* \"#utility.yul\":1334:1387   */\n      tag_114\n      jump\t// in\n    tag_132:\n        /* \"#utility.yul\":1324:1387   */\n      swap2\n      pop\n        /* \"#utility.yul\":1280:1397   */\n      pop\n        /* \"#utility.yul\":1075:1404   */\n      swap3\n      swap2\n      pop\n      pop\n      jump\t// out\n        /* \"#utility.yul\":1410:1884   */\n    tag_17:\n        /* \"#utility.yul\":1478:1484   */\n      0x00\n        /* \"#utility.yul\":1486:1492   */\n      dup1\n        /* \"#utility.yul\":1535:1537   */\n      0x40\n        /* \"#utility.yul\":1523:1532   */\n      dup4\n        /* \"#utility.yul\":1514:1521   */\n      dup6\n        /* \"#utility.yul\":1510:1533   */\n      sub\n        /* \"#utility.yul\":1506:1538   */\n      slt\n        /* \"#utility.yul\":1503:1622   */\n      iszero\n      tag_134\n      jumpi\n        /* \"#utility.yul\":1541:1620   */\n      tag_135\n      tag_131\n      jump\t// in\n    tag_135:\n        /* \"#utility.yul\":1503:1622   */\n    tag_134:\n        /* \"#utility.yul\":1661:1662   */\n      0x00\n        /* \"#utility.yul\":1686:1739   */\n      tag_136\n        /* \"#utility.yul\":1731:1738   */\n      dup6\n        /* \"#utility.yul\":1722:1728   */\n      dup3\n        /* \"#utility.yul\":1711:1720   */\n      dup7\n        /* \"#utility.yul\":1707:1729   */\n      add\n        /* \"#utility.yul\":1686:1739   */\n      tag_114\n      jump\t// in\n    tag_136:\n        /* \"#utility.yul\":1676:1739   */\n      swap3\n      pop\n        /* \"#utility.yul\":1632:1749   */\n      pop\n        /* \"#utility.yul\":1788:1790   */\n      0x20\n        /* \"#utility.yul\":1814:1867   */\n      tag_137\n        /* \"#utility.yul\":1859:1866   */\n      dup6\n        /* \"#utility.yul\":1850:1856   */\n      dup3\n        /* \"#utility.yul\":1839:1848   */\n      dup7\n        /* \"#utility.yul\":1835:1857   */\n      add\n        /* \"#utility.yul\":1814:1867   */\n      tag_124\n      jump\t// in\n    tag_137:\n        /* \"#utility.yul\":1804:1867   */\n      swap2\n      pop\n        /* \"#utility.yul\":1759:1877   */\n      pop\n        /* \"#utility.yul\":1410:1884   */\n      swap3\n      pop\n      swap3\n      swap1\n      pop\n      jump\t// out\n        /* \"#utility.yul\":1890:2724   */\n    tag_13:\n        /* \"#utility.yul\":1978:1984   */\n      0x00\n        /* \"#utility.yul\":1986:1992   */\n      dup1\n        /* \"#utility.yul\":2035:2037   */\n      0x40\n        /* \"#utility.yul\":2023:2032   */\n      dup4\n        /* \"#utility.yul\":2014:2021   */\n      dup6\n        /* \"#utility.yul\":2010:2033   */\n      sub\n        /* \"#utility.yul\":2006:2038   */\n      slt\n        /* \"#utility.yul\":2003:2122   */\n      iszero\n      tag_139\n      jumpi\n        /* \"#utility.yul\":2041:2120   */\n      tag_140\n      tag_131\n      jump\t// in\n    tag_140:\n        /* \"#utility.yul\":2003:2122   */\n    tag_139:\n        /* \"#utility.yul\":2189:2190   */\n      0x00\n        /* \"#utility.yul\":2178:2187   */\n      dup4\n        /* \"#utility.yul\":2174:2191   */\n      add\n        /* \"#utility.yul\":2161:2192   */\n      calldataload\n        /* \"#utility.yul\":2219:2237   */\n      0xffffffffffffffff\n        /* \"#utility.yul\":2211:2217   */\n      dup2\n        /* \"#utility.yul\":2208:2238   */\n      gt\n        /* \"#utility.yul\":2205:2322   */\n      iszero\n      tag_141\n      jumpi\n        /* \"#utility.yul\":2241:2320   */\n      tag_142\n      tag_143\n      jump\t// in\n    tag_142:\n        /* \"#utility.yul\":2205:2322   */\n    tag_141:\n        /* \"#utility.yul\":2346:2409   */\n      tag_144\n        /* \"#utility.yul\":2401:2408   */\n      dup6\n        /* \"#utility.yul\":2392:2398   */\n      dup3\n        /* \"#utility.yul\":2381:2390   */\n      dup7\n        /* \"#utility.yul\":2377:2399   */\n      add\n        /* \"#utility.yul\":2346:2409   */\n      tag_118\n      jump\t// in\n    tag_144:\n        /* \"#utility.yul\":2336:2409   */\n      swap3\n      pop\n        /* \"#utility.yul\":2132:2419   */\n      pop\n        /* \"#utility.yul\":2486:2488   */\n      0x20\n        /* \"#utility.yul\":2475:2484   */\n      dup4\n        /* \"#utility.yul\":2471:2489   */\n      add\n        /* \"#utility.yul\":2458:2490   */\n      calldataload\n        /* \"#utility.yul\":2517:2535   */\n      0xffffffffffffffff\n        /* \"#utility.yul\":2509:2515   */\n      dup2\n        /* \"#utility.yul\":2506:2536   */\n      gt\n        /* \"#utility.yul\":2503:2620   */\n      iszero\n      tag_145\n      jumpi\n        /* \"#utility.yul\":2539:2618   */\n      tag_146\n      tag_143\n      jump\t// in\n    tag_146:\n        /* \"#utility.yul\":2503:2620   */\n    tag_145:\n        /* \"#utility.yul\":2644:2707   */\n      tag_147\n        /* \"#utility.yul\":2699:2706   */\n      dup6\n        /* \"#utility.yul\":2690:2696   */\n      dup3\n        /* \"#utility.yul\":2679:2688   */\n      dup7\n        /* \"#utility.yul\":2675:2697   */\n      add\n        /* \"#utility.yul\":2644:2707   */\n      tag_118\n      jump\t// in\n    tag_147:\n        /* \"#utility.yul\":2634:2707   */\n      swap2\n      pop\n        /* \"#utility.yul\":2429:2717   */\n      pop\n        /* \"#utility.yul\":1890:2724   */\n      swap3\n      pop\n      swap3\n      swap1\n      pop\n      jump\t// out\n        /* \"#utility.yul\":2730:3059   */\n    tag_23:\n        /* \"#utility.yul\":2789:2795   */\n      0x00\n        /* \"#utility.yul\":2838:2840   */\n      0x20\n        /* \"#utility.yul\":2826:2835   */\n      dup3\n        /* \"#utility.yul\":2817:2824   */\n      dup5\n        /* \"#utility.yul\":2813:2836   */\n      sub\n        /* \"#utility.yul\":2809:2841   */\n      slt\n        /* \"#utility.yul\":2806:2925   */\n      iszero\n      tag_149\n      jumpi\n        /* \"#utility.yul\":2844:2923   */\n      tag_150\n      tag_131\n      jump\t// in\n    tag_150:\n        /* \"#utility.yul\":2806:2925   */\n    tag_149:\n        /* \"#utility.yul\":2964:2965   */\n      0x00\n        /* \"#utility.yul\":2989:3042   */\n      tag_151\n        /* \"#utility.yul\":3034:3041   */\n      dup5\n        /* \"#utility.yul\":3025:3031   */\n      dup3\n        /* \"#utility.yul\":3014:3023   */\n      dup6\n        /* \"#utility.yul\":3010:3032   */\n      add\n        /* \"#utility.yul\":2989:3042   */\n      tag_124\n      jump\t// in\n    tag_151:\n        /* \"#utility.yul\":2979:3042   */\n      swap2\n      pop\n        /* \"#utility.yul\":2935:3052   */\n      pop\n        /* \"#utility.yul\":2730:3059   */\n      swap3\n      swap2\n      pop\n      pop\n      jump\t// out\n        /* \"#utility.yul\":3065:3164   */\n    tag_152:\n        /* \"#utility.yul\":3136:3157   */\n      tag_154\n        /* \"#utility.yul\":3151:3156   */\n      dup2\n        /* \"#utility.yul\":3136:3157   */\n      tag_155\n      jump\t// in\n    tag_154:\n        /* \"#utility.yul\":3131:3134   */\n      dup3\n        /* \"#utility.yul\":3124:3158   */\n      mstore\n        /* \"#utility.yul\":3065:3164   */\n      pop\n      pop\n      jump\t// out\n        /* \"#utility.yul\":3170:3279   */\n    tag_156:\n        /* \"#utility.yul\":3251:3272   */\n      tag_158\n        /* \"#utility.yul\":3266:3271   */\n      dup2\n        /* \"#utility.yul\":3251:3272   */\n      tag_155\n      jump\t// in\n    tag_158:\n        /* \"#utility.yul\":3246:3249   */\n      dup3\n        /* \"#utility.yul\":3239:3273   */\n      mstore\n        /* \"#utility.yul\":3170:3279   */\n      pop\n      pop\n      jump\t// out\n        /* \"#utility.yul\":3285:3629   */\n    tag_159:\n        /* \"#utility.yul\":3363:3366   */\n      0x00\n        /* \"#utility.yul\":3391:3430   */\n      tag_161\n        /* \"#utility.yul\":3424:3429   */\n      dup3\n        /* \"#utility.yul\":3391:3430   */\n      tag_162\n      jump\t// in\n    tag_161:\n        /* \"#utility.yul\":3446:3507   */\n      tag_163\n        /* \"#utility.yul\":3500:3506   */\n      dup2\n        /* \"#utility.yul\":3495:3498   */\n      dup6\n        /* \"#utility.yul\":3446:3507   */\n      tag_164\n      jump\t// in\n    tag_163:\n        /* \"#utility.yul\":3439:3507   */\n      swap4\n      pop\n        /* \"#utility.yul\":3516:3568   */\n      tag_165\n        /* \"#utility.yul\":3561:3567   */\n      dup2\n        /* \"#utility.yul\":3556:3559   */\n      dup6\n        /* \"#utility.yul\":3549:3553   */\n      0x20\n        /* \"#utility.yul\":3542:3547   */\n      dup7\n        /* \"#utility.yul\":3538:3554   */\n      add\n        /* \"#utility.yul\":3516:3568   */\n      tag_166\n      jump\t// in\n    tag_165:\n        /* \"#utility.yul\":3593:3622   */\n      tag_167\n        /* \"#utility.yul\":3615:3621   */\n      dup2\n        /* \"#utility.yul\":3593:3622   */\n      tag_168\n      jump\t// in\n    tag_167:\n        /* \"#utility.yul\":3588:3591   */\n      dup5\n        /* \"#utility.yul\":3584:3623   */\n      add\n        /* \"#utility.yul\":3577:3623   */\n      swap2\n      pop\n        /* \"#utility.yul\":3367:3629   */\n      pop\n        /* \"#utility.yul\":3285:3629   */\n      swap3\n      swap2\n      pop\n      pop\n      jump\t// out\n        /* \"#utility.yul\":3635:3999   */\n    tag_169:\n        /* \"#utility.yul\":3723:3726   */\n      0x00\n        /* \"#utility.yul\":3751:3790   */\n      tag_171\n        /* \"#utility.yul\":3784:3789   */\n      dup3\n        /* \"#utility.yul\":3751:3790   */\n      tag_162\n      jump\t// in\n    tag_171:\n        /* \"#utility.yul\":3806:3877   */\n      tag_172\n        /* \"#utility.yul\":3870:3876   */\n      dup2\n        /* \"#utility.yul\":3865:3868   */\n      dup6\n        /* \"#utility.yul\":3806:3877   */\n      tag_173\n      jump\t// in\n    tag_172:\n        /* \"#utility.yul\":3799:3877   */\n      swap4\n      pop\n        /* \"#utility.yul\":3886:3938   */\n      tag_174\n        /* \"#utility.yul\":3931:3937   */\n      dup2\n        /* \"#utility.yul\":3926:3929   */\n      dup6\n        /* \"#utility.yul\":3919:3923   */\n      0x20\n        /* \"#utility.yul\":3912:3917   */\n      dup7\n        /* \"#utility.yul\":3908:3924   */\n      add\n        /* \"#utility.yul\":3886:3938   */\n      tag_166\n      jump\t// in\n    tag_174:\n        /* \"#utility.yul\":3963:3992   */\n      tag_175\n        /* \"#utility.yul\":3985:3991   */\n      dup2\n        /* \"#utility.yul\":3963:3992   */\n      tag_168\n      jump\t// in\n    tag_175:\n        /* \"#utility.yul\":3958:3961   */\n      dup5\n        /* \"#utility.yul\":3954:3993   */\n      add\n        /* \"#utility.yul\":3947:3993   */\n      swap2\n      pop\n        /* \"#utility.yul\":3727:3999   */\n      pop\n        /* \"#utility.yul\":3635:3999   */\n      swap3\n      swap2\n      pop\n      pop\n      jump\t// out\n        /* \"#utility.yul\":4005:4371   */\n    tag_176:\n        /* \"#utility.yul\":4147:4150   */\n      0x00\n        /* \"#utility.yul\":4168:4235   */\n      tag_178\n        /* \"#utility.yul\":4232:4234   */\n      0x1e\n        /* \"#utility.yul\":4227:4230   */\n      dup4\n        /* \"#utility.yul\":4168:4235   */\n      tag_173\n      jump\t// in\n    tag_178:\n        /* \"#utility.yul\":4161:4235   */\n      swap2\n      pop\n        /* \"#utility.yul\":4244:4337   */\n      tag_179\n        /* \"#utility.yul\":4333:4336   */\n      dup3\n        /* \"#utility.yul\":4244:4337   */\n      tag_180\n      jump\t// in\n    tag_179:\n        /* \"#utility.yul\":4362:4364   */\n      0x20\n        /* \"#utility.yul\":4357:4360   */\n      dup3\n        /* \"#utility.yul\":4353:4365   */\n      add\n        /* \"#utility.yul\":4346:4365   */\n      swap1\n      pop\n        /* \"#utility.yul\":4005:4371   */\n      swap2\n      swap1\n      pop\n      jump\t// out\n        /* \"#utility.yul\":4427:5439   */\n    tag_181:\n        /* \"#utility.yul\":4536:4539   */\n      0x00\n        /* \"#utility.yul\":4572:4576   */\n      0x80\n        /* \"#utility.yul\":4567:4570   */\n      dup4\n        /* \"#utility.yul\":4563:4577   */\n      add\n        /* \"#utility.yul\":4657:4661   */\n      0x00\n        /* \"#utility.yul\":4650:4655   */\n      dup4\n        /* \"#utility.yul\":4646:4662   */\n      add\n        /* \"#utility.yul\":4640:4663   */\n      mload\n        /* \"#utility.yul\":4676:4739   */\n      tag_183\n        /* \"#utility.yul\":4733:4737   */\n      0x00\n        /* \"#utility.yul\":4728:4731   */\n      dup7\n        /* \"#utility.yul\":4724:4738   */\n      add\n        /* \"#utility.yul\":4710:4722   */\n      dup3\n        /* \"#utility.yul\":4676:4739   */\n      tag_184\n      jump\t// in\n    tag_183:\n        /* \"#utility.yul\":4587:4749   */\n      pop\n        /* \"#utility.yul\":4831:4835   */\n      0x20\n        /* \"#utility.yul\":4824:4829   */\n      dup4\n        /* \"#utility.yul\":4820:4836   */\n      add\n        /* \"#utility.yul\":4814:4837   */\n      mload\n        /* \"#utility.yul\":4884:4887   */\n      dup5\n        /* \"#utility.yul\":4878:4882   */\n      dup3\n        /* \"#utility.yul\":4874:4888   */\n      sub\n        /* \"#utility.yul\":4867:4871   */\n      0x20\n        /* \"#utility.yul\":4862:4865   */\n      dup7\n        /* \"#utility.yul\":4858:4872   */\n      add\n        /* \"#utility.yul\":4851:4889   */\n      mstore\n        /* \"#utility.yul\":4910:4983   */\n      tag_185\n        /* \"#utility.yul\":4978:4982   */\n      dup3\n        /* \"#utility.yul\":4964:4976   */\n      dup3\n        /* \"#utility.yul\":4910:4983   */\n      tag_159\n      jump\t// in\n    tag_185:\n        /* \"#utility.yul\":4902:4983   */\n      swap2\n      pop\n        /* \"#utility.yul\":4759:4994   */\n      pop\n        /* \"#utility.yul\":5079:5083   */\n      0x40\n        /* \"#utility.yul\":5072:5077   */\n      dup4\n        /* \"#utility.yul\":5068:5084   */\n      add\n        /* \"#utility.yul\":5062:5085   */\n      mload\n        /* \"#utility.yul\":5132:5135   */\n      dup5\n        /* \"#utility.yul\":5126:5130   */\n      dup3\n        /* \"#utility.yul\":5122:5136   */\n      sub\n        /* \"#utility.yul\":5115:5119   */\n      0x40\n        /* \"#utility.yul\":5110:5113   */\n      dup7\n        /* \"#utility.yul\":5106:5120   */\n      add\n        /* \"#utility.yul\":5099:5137   */\n      mstore\n        /* \"#utility.yul\":5158:5231   */\n      tag_186\n        /* \"#utility.yul\":5226:5230   */\n      dup3\n        /* \"#utility.yul\":5212:5224   */\n      dup3\n        /* \"#utility.yul\":5158:5231   */\n      tag_159\n      jump\t// in\n    tag_186:\n        /* \"#utility.yul\":5150:5231   */\n      swap2\n      pop\n        /* \"#utility.yul\":5004:5242   */\n      pop\n        /* \"#utility.yul\":5326:5330   */\n      0x60\n        /* \"#utility.yul\":5319:5324   */\n      dup4\n        /* \"#utility.yul\":5315:5331   */\n      add\n        /* \"#utility.yul\":5309:5332   */\n      mload\n        /* \"#utility.yul\":5345:5402   */\n      tag_187\n        /* \"#utility.yul\":5396:5400   */\n      0x60\n        /* \"#utility.yul\":5391:5394   */\n      dup7\n        /* \"#utility.yul\":5387:5401   */\n      add\n        /* \"#utility.yul\":5373:5385   */\n      dup3\n        /* \"#utility.yul\":5345:5402   */\n      tag_152\n      jump\t// in\n    tag_187:\n        /* \"#utility.yul\":5252:5412   */\n      pop\n        /* \"#utility.yul\":5429:5433   */\n      dup1\n        /* \"#utility.yul\":5422:5433   */\n      swap2\n      pop\n        /* \"#utility.yul\":4541:5439   */\n      pop\n        /* \"#utility.yul\":4427:5439   */\n      swap3\n      swap2\n      pop\n      pop\n      jump\t// out\n        /* \"#utility.yul\":5445:5553   */\n    tag_184:\n        /* \"#utility.yul\":5522:5546   */\n      tag_189\n        /* \"#utility.yul\":5540:5545   */\n      dup2\n        /* \"#utility.yul\":5522:5546   */\n      tag_190\n      jump\t// in\n    tag_189:\n        /* \"#utility.yul\":5517:5520   */\n      dup3\n        /* \"#utility.yul\":5510:5547   */\n      mstore\n        /* \"#utility.yul\":5445:5553   */\n      pop\n      pop\n      jump\t// out\n        /* \"#utility.yul\":5559:5677   */\n    tag_191:\n        /* \"#utility.yul\":5646:5670   */\n      tag_193\n        /* \"#utility.yul\":5664:5669   */\n      dup2\n        /* \"#utility.yul\":5646:5670   */\n      tag_190\n      jump\t// in\n    tag_193:\n        /* \"#utility.yul\":5641:5644   */\n      dup3\n        /* \"#utility.yul\":5634:5671   */\n      mstore\n        /* \"#utility.yul\":5559:5677   */\n      pop\n      pop\n      jump\t// out\n        /* \"#utility.yul\":5683:6102   */\n    tag_74:\n        /* \"#utility.yul\":5849:5853   */\n      0x00\n        /* \"#utility.yul\":5887:5889   */\n      0x20\n        /* \"#utility.yul\":5876:5885   */\n      dup3\n        /* \"#utility.yul\":5872:5890   */\n      add\n        /* \"#utility.yul\":5864:5890   */\n      swap1\n      pop\n        /* \"#utility.yul\":5936:5945   */\n      dup2\n        /* \"#utility.yul\":5930:5934   */\n      dup2\n        /* \"#utility.yul\":5926:5946   */\n      sub\n        /* \"#utility.yul\":5922:5923   */\n      0x00\n        /* \"#utility.yul\":5911:5920   */\n      dup4\n        /* \"#utility.yul\":5907:5924   */\n      add\n        /* \"#utility.yul\":5900:5947   */\n      mstore\n        /* \"#utility.yul\":5964:6095   */\n      tag_195\n        /* \"#utility.yul\":6090:6094   */\n      dup2\n        /* \"#utility.yul\":5964:6095   */\n      tag_176\n      jump\t// in\n    tag_195:\n        /* \"#utility.yul\":5956:6095   */\n      swap1\n      pop\n        /* \"#utility.yul\":5683:6102   */\n      swap2\n      swap1\n      pop\n      jump\t// out\n        /* \"#utility.yul\":6108:6461   */\n    tag_38:\n        /* \"#utility.yul\":6241:6245   */\n      0x00\n        /* \"#utility.yul\":6279:6281   */\n      0x20\n        /* \"#utility.yul\":6268:6277   */\n      dup3\n        /* \"#utility.yul\":6264:6282   */\n      add\n        /* \"#utility.yul\":6256:6282   */\n      swap1\n      pop\n        /* \"#utility.yul\":6328:6337   */\n      dup2\n        /* \"#utility.yul\":6322:6326   */\n      dup2\n        /* \"#utility.yul\":6318:6338   */\n      sub\n        /* \"#utility.yul\":6314:6315   */\n      0x00\n        /* \"#utility.yul\":6303:6312   */\n      dup4\n        /* \"#utility.yul\":6299:6316   */\n      add\n        /* \"#utility.yul\":6292:6339   */\n      mstore\n        /* \"#utility.yul\":6356:6454   */\n      tag_197\n        /* \"#utility.yul\":6449:6453   */\n      dup2\n        /* \"#utility.yul\":6440:6446   */\n      dup5\n        /* \"#utility.yul\":6356:6454   */\n      tag_181\n      jump\t// in\n    tag_197:\n        /* \"#utility.yul\":6348:6454   */\n      swap1\n      pop\n        /* \"#utility.yul\":6108:6461   */\n      swap3\n      swap2\n      pop\n      pop\n      jump\t// out\n        /* \"#utility.yul\":6467:6689   */\n    tag_30:\n        /* \"#utility.yul\":6560:6564   */\n      0x00\n        /* \"#utility.yul\":6598:6600   */\n      0x20\n        /* \"#utility.yul\":6587:6596   */\n      dup3\n        /* \"#utility.yul\":6583:6601   */\n      add\n        /* \"#utility.yul\":6575:6601   */\n      swap1\n      pop\n        /* \"#utility.yul\":6611:6682   */\n      tag_199\n        /* \"#utility.yul\":6679:6680   */\n      0x00\n        /* \"#utility.yul\":6668:6677   */\n      dup4\n        /* \"#utility.yul\":6664:6681   */\n      add\n        /* \"#utility.yul\":6655:6661   */\n      dup5\n        /* \"#utility.yul\":6611:6682   */\n      tag_191\n      jump\t// in\n    tag_199:\n        /* \"#utility.yul\":6467:6689   */\n      swap3\n      swap2\n      pop\n      pop\n      jump\t// out\n        /* \"#utility.yul\":6695:7418   */\n    tag_20:\n        /* \"#utility.yul\":6906:6910   */\n      0x00\n        /* \"#utility.yul\":6944:6947   */\n      0x80\n        /* \"#utility.yul\":6933:6942   */\n      dup3\n        /* \"#utility.yul\":6929:6948   */\n      add\n        /* \"#utility.yul\":6921:6948   */\n      swap1\n      pop\n        /* \"#utility.yul\":6958:7029   */\n      tag_201\n        /* \"#utility.yul\":7026:7027   */\n      0x00\n        /* \"#utility.yul\":7015:7024   */\n      dup4\n        /* \"#utility.yul\":7011:7028   */\n      add\n        /* \"#utility.yul\":7002:7008   */\n      dup8\n        /* \"#utility.yul\":6958:7029   */\n      tag_191\n      jump\t// in\n    tag_201:\n        /* \"#utility.yul\":7076:7085   */\n      dup2\n        /* \"#utility.yul\":7070:7074   */\n      dup2\n        /* \"#utility.yul\":7066:7086   */\n      sub\n        /* \"#utility.yul\":7061:7063   */\n      0x20\n        /* \"#utility.yul\":7050:7059   */\n      dup4\n        /* \"#utility.yul\":7046:7064   */\n      add\n        /* \"#utility.yul\":7039:7087   */\n      mstore\n        /* \"#utility.yul\":7104:7182   */\n      tag_202\n        /* \"#utility.yul\":7177:7181   */\n      dup2\n        /* \"#utility.yul\":7168:7174   */\n      dup7\n        /* \"#utility.yul\":7104:7182   */\n      tag_169\n      jump\t// in\n    tag_202:\n        /* \"#utility.yul\":7096:7182   */\n      swap1\n      pop\n        /* \"#utility.yul\":7229:7238   */\n      dup2\n        /* \"#utility.yul\":7223:7227   */\n      dup2\n        /* \"#utility.yul\":7219:7239   */\n      sub\n        /* \"#utility.yul\":7214:7216   */\n      0x40\n        /* \"#utility.yul\":7203:7212   */\n      dup4\n        /* \"#utility.yul\":7199:7217   */\n      add\n        /* \"#utility.yul\":7192:7240   */\n      mstore\n        /* \"#utility.yul\":7257:7335   */\n      tag_203\n        /* \"#utility.yul\":7330:7334   */\n      dup2\n        /* \"#utility.yul\":7321:7327   */\n      dup6\n        /* \"#utility.yul\":7257:7335   */\n      tag_169\n      jump\t// in\n    tag_203:\n        /* \"#utility.yul\":7249:7335   */\n      swap1\n      pop\n        /* \"#utility.yul\":7345:7411   */\n      tag_204\n        /* \"#utility.yul\":7407:7409   */\n      0x60\n        /* \"#utility.yul\":7396:7405   */\n      dup4\n        /* \"#utility.yul\":7392:7410   */\n      add\n        /* \"#utility.yul\":7383:7389   */\n      dup5\n        /* \"#utility.yul\":7345:7411   */\n      tag_156\n      jump\t// in\n    tag_204:\n        /* \"#utility.yul\":6695:7418   */\n      swap6\n      swap5\n      pop\n      pop\n      pop\n      pop\n      pop\n      jump\t// out\n        /* \"#utility.yul\":7424:7553   */\n    tag_108:\n        /* \"#utility.yul\":7458:7464   */\n      0x00\n        /* \"#utility.yul\":7485:7505   */\n      tag_206\n      tag_207\n      jump\t// in\n    tag_206:\n        /* \"#utility.yul\":7475:7505   */\n      swap1\n      pop\n        /* \"#utility.yul\":7514:7547   */\n      tag_208\n        /* \"#utility.yul\":7542:7546   */\n      dup3\n        /* \"#utility.yul\":7534:7540   */\n      dup3\n        /* \"#utility.yul\":7514:7547   */\n      tag_209\n      jump\t// in\n    tag_208:\n        /* \"#utility.yul\":7424:7553   */\n      swap2\n      swap1\n      pop\n      jump\t// out\n        /* \"#utility.yul\":7559:7634   */\n    tag_207:\n        /* \"#utility.yul\":7592:7598   */\n      0x00\n        /* \"#utility.yul\":7625:7627   */\n      0x40\n        /* \"#utility.yul\":7619:7628   */\n      mload\n        /* \"#utility.yul\":7609:7628   */\n      swap1\n      pop\n        /* \"#utility.yul\":7559:7634   */\n      swap1\n      jump\t// out\n        /* \"#utility.yul\":7640:7948   */\n    tag_107:\n        /* \"#utility.yul\":7702:7706   */\n      0x00\n        /* \"#utility.yul\":7792:7810   */\n      0xffffffffffffffff\n        /* \"#utility.yul\":7784:7790   */\n      dup3\n        /* \"#utility.yul\":7781:7811   */\n      gt\n        /* \"#utility.yul\":7778:7834   */\n      iszero\n      tag_212\n      jumpi\n        /* \"#utility.yul\":7814:7832   */\n      tag_213\n      tag_214\n      jump\t// in\n    tag_213:\n        /* \"#utility.yul\":7778:7834   */\n    tag_212:\n        /* \"#utility.yul\":7852:7881   */\n      tag_215\n        /* \"#utility.yul\":7874:7880   */\n      dup3\n        /* \"#utility.yul\":7852:7881   */\n      tag_168\n      jump\t// in\n    tag_215:\n        /* \"#utility.yul\":7844:7881   */\n      swap1\n      pop\n        /* \"#utility.yul\":7936:7940   */\n      0x20\n        /* \"#utility.yul\":7930:7934   */\n      dup2\n        /* \"#utility.yul\":7926:7941   */\n      add\n        /* \"#utility.yul\":7918:7941   */\n      swap1\n      pop\n        /* \"#utility.yul\":7640:7948   */\n      swap2\n      swap1\n      pop\n      jump\t// out\n        /* \"#utility.yul\":7954:8053   */\n    tag_162:\n        /* \"#utility.yul\":8006:8012   */\n      0x00\n        /* \"#utility.yul\":8040:8045   */\n      dup2\n        /* \"#utility.yul\":8034:8046   */\n      mload\n        /* \"#utility.yul\":8024:8046   */\n      swap1\n      pop\n        /* \"#utility.yul\":7954:8053   */\n      swap2\n      swap1\n      pop\n      jump\t// out\n        /* \"#utility.yul\":8059:8218   */\n    tag_164:\n        /* \"#utility.yul\":8133:8144   */\n      0x00\n        /* \"#utility.yul\":8167:8173   */\n      dup3\n        /* \"#utility.yul\":8162:8165   */\n      dup3\n        /* \"#utility.yul\":8155:8174   */\n      mstore\n        /* \"#utility.yul\":8207:8211   */\n      0x20\n        /* \"#utility.yul\":8202:8205   */\n      dup3\n        /* \"#utility.yul\":8198:8212   */\n      add\n        /* \"#utility.yul\":8183:8212   */\n      swap1\n      pop\n        /* \"#utility.yul\":8059:8218   */\n      swap3\n      swap2\n      pop\n      pop\n      jump\t// out\n        /* \"#utility.yul\":8224:8393   */\n    tag_173:\n        /* \"#utility.yul\":8308:8319   */\n      0x00\n        /* \"#utility.yul\":8342:8348   */\n      dup3\n        /* \"#utility.yul\":8337:8340   */\n      dup3\n        /* \"#utility.yul\":8330:8349   */\n      mstore\n        /* \"#utility.yul\":8382:8386   */\n      0x20\n        /* \"#utility.yul\":8377:8380   */\n      dup3\n        /* \"#utility.yul\":8373:8387   */\n      add\n        /* \"#utility.yul\":8358:8387   */\n      swap1\n      pop\n        /* \"#utility.yul\":8224:8393   */\n      swap3\n      swap2\n      pop\n      pop\n      jump\t// out\n        /* \"#utility.yul\":8399:8495   */\n    tag_219:\n        /* \"#utility.yul\":8436:8443   */\n      0x00\n        /* \"#utility.yul\":8465:8489   */\n      tag_221\n        /* \"#utility.yul\":8483:8488   */\n      dup3\n        /* \"#utility.yul\":8465:8489   */\n      tag_222\n      jump\t// in\n    tag_221:\n        /* \"#utility.yul\":8454:8489   */\n      swap1\n      pop\n        /* \"#utility.yul\":8399:8495   */\n      swap2\n      swap1\n      pop\n      jump\t// out\n        /* \"#utility.yul\":8501:8591   */\n    tag_155:\n        /* \"#utility.yul\":8535:8542   */\n      0x00\n        /* \"#utility.yul\":8578:8583   */\n      dup2\n        /* \"#utility.yul\":8571:8584   */\n      iszero\n        /* \"#utility.yul\":8564:8585   */\n      iszero\n        /* \"#utility.yul\":8553:8585   */\n      swap1\n      pop\n        /* \"#utility.yul\":8501:8591   */\n      swap2\n      swap1\n      pop\n      jump\t// out\n        /* \"#utility.yul\":8597:8723   */\n    tag_222:\n        /* \"#utility.yul\":8634:8641   */\n      0x00\n        /* \"#utility.yul\":8674:8716   */\n      0xffffffffffffffffffffffffffffffffffffffff\n        /* \"#utility.yul\":8667:8672   */\n      dup3\n        /* \"#utility.yul\":8663:8717   */\n      and\n        /* \"#utility.yul\":8652:8717   */\n      swap1\n      pop\n        /* \"#utility.yul\":8597:8723   */\n      swap2\n      swap1\n      pop\n      jump\t// out\n        /* \"#utility.yul\":8729:8806   */\n    tag_190:\n        /* \"#utility.yul\":8766:8773   */\n      0x00\n        /* \"#utility.yul\":8795:8800   */\n      dup2\n        /* \"#utility.yul\":8784:8800   */\n      swap1\n      pop\n        /* \"#utility.yul\":8729:8806   */\n      swap2\n      swap1\n      pop\n      jump\t// out\n        /* \"#utility.yul\":8812:8966   */\n    tag_113:\n        /* \"#utility.yul\":8896:8902   */\n      dup3\n        /* \"#utility.yul\":8891:8894   */\n      dup2\n        /* \"#utility.yul\":8886:8889   */\n      dup4\n        /* \"#utility.yul\":8873:8903   */\n      calldatacopy\n        /* \"#utility.yul\":8958:8959   */\n      0x00\n        /* \"#utility.yul\":8949:8955   */\n      dup4\n        /* \"#utility.yul\":8944:8947   */\n      dup4\n        /* \"#utility.yul\":8940:8956   */\n      add\n        /* \"#utility.yul\":8933:8960   */\n      mstore\n        /* \"#utility.yul\":8812:8966   */\n      pop\n      pop\n      pop\n      jump\t// out\n        /* \"#utility.yul\":8972:9279   */\n    tag_166:\n        /* \"#utility.yul\":9040:9041   */\n      0x00\n        /* \"#utility.yul\":9050:9163   */\n    tag_228:\n        /* \"#utility.yul\":9064:9070   */\n      dup4\n        /* \"#utility.yul\":9061:9062   */\n      dup2\n        /* \"#utility.yul\":9058:9071   */\n      lt\n        /* \"#utility.yul\":9050:9163   */\n      iszero\n      tag_230\n      jumpi\n        /* \"#utility.yul\":9149:9150   */\n      dup1\n        /* \"#utility.yul\":9144:9147   */\n      dup3\n        /* \"#utility.yul\":9140:9151   */\n      add\n        /* \"#utility.yul\":9134:9152   */\n      mload\n        /* \"#utility.yul\":9130:9131   */\n      dup2\n        /* \"#utility.yul\":9125:9128   */\n      dup5\n        /* \"#utility.yul\":9121:9132   */\n      add\n        /* \"#utility.yul\":9114:9153   */\n      mstore\n        /* \"#utility.yul\":9086:9088   */\n      0x20\n        /* \"#utility.yul\":9083:9084   */\n      dup2\n        /* \"#utility.yul\":9079:9089   */\n      add\n        /* \"#utility.yul\":9074:9089   */\n      swap1\n      pop\n        /* \"#utility.yul\":9050:9163   */\n      jump(tag_228)\n    tag_230:\n        /* \"#utility.yul\":9181:9187   */\n      dup4\n        /* \"#utility.yul\":9178:9179   */\n      dup2\n        /* \"#utility.yul\":9175:9188   */\n      gt\n        /* \"#utility.yul\":9172:9273   */\n      iszero\n      tag_231\n      jumpi\n        /* \"#utility.yul\":9261:9262   */\n      0x00\n        /* \"#utility.yul\":9252:9258   */\n      dup5\n        /* \"#utility.yul\":9247:9250   */\n      dup5\n        /* \"#utility.yul\":9243:9259   */\n      add\n        /* \"#utility.yul\":9236:9263   */\n      mstore\n        /* \"#utility.yul\":9172:9273   */\n    tag_231:\n        /* \"#utility.yul\":9021:9279   */\n      pop\n        /* \"#utility.yul\":8972:9279   */\n      pop\n      pop\n      pop\n      jump\t// out\n        /* \"#utility.yul\":9285:9605   */\n    tag_52:\n        /* \"#utility.yul\":9329:9335   */\n      0x00\n        /* \"#utility.yul\":9366:9367   */\n      0x02\n        /* \"#utility.yul\":9360:9364   */\n      dup3\n        /* \"#utility.yul\":9356:9368   */\n      div\n        /* \"#utility.yul\":9346:9368   */\n      swap1\n      pop\n        /* \"#utility.yul\":9413:9414   */\n      0x01\n        /* \"#utility.yul\":9407:9411   */\n      dup3\n        /* \"#utility.yul\":9403:9415   */\n      and\n        /* \"#utility.yul\":9434:9452   */\n      dup1\n        /* \"#utility.yul\":9424:9505   */\n      tag_233\n      jumpi\n        /* \"#utility.yul\":9490:9494   */\n      0x7f\n        /* \"#utility.yul\":9482:9488   */\n      dup3\n        /* \"#utility.yul\":9478:9495   */\n      and\n        /* \"#utility.yul\":9468:9495   */\n      swap2\n      pop\n        /* \"#utility.yul\":9424:9505   */\n    tag_233:\n        /* \"#utility.yul\":9552:9554   */\n      0x20\n        /* \"#utility.yul\":9544:9550   */\n      dup3\n        /* \"#utility.yul\":9541:9555   */\n      lt\n        /* \"#utility.yul\":9521:9539   */\n      dup2\n        /* \"#utility.yul\":9518:9556   */\n      eq\n        /* \"#utility.yul\":9515:9599   */\n      iszero\n      tag_234\n      jumpi\n        /* \"#utility.yul\":9571:9589   */\n      tag_235\n      tag_236\n      jump\t// in\n    tag_235:\n        /* \"#utility.yul\":9515:9599   */\n    tag_234:\n        /* \"#utility.yul\":9336:9605   */\n      pop\n        /* \"#utility.yul\":9285:9605   */\n      swap2\n      swap1\n      pop\n      jump\t// out\n        /* \"#utility.yul\":9611:9892   */\n    tag_209:\n        /* \"#utility.yul\":9694:9721   */\n      tag_238\n        /* \"#utility.yul\":9716:9720   */\n      dup3\n        /* \"#utility.yul\":9694:9721   */\n      tag_168\n      jump\t// in\n    tag_238:\n        /* \"#utility.yul\":9686:9692   */\n      dup2\n        /* \"#utility.yul\":9682:9722   */\n      add\n        /* \"#utility.yul\":9824:9830   */\n      dup2\n        /* \"#utility.yul\":9812:9822   */\n      dup2\n        /* \"#utility.yul\":9809:9831   */\n      lt\n        /* \"#utility.yul\":9788:9806   */\n      0xffffffffffffffff\n        /* \"#utility.yul\":9776:9786   */\n      dup3\n        /* \"#utility.yul\":9773:9807   */\n      gt\n        /* \"#utility.yul\":9770:9832   */\n      or\n        /* \"#utility.yul\":9767:9855   */\n      iszero\n      tag_239\n      jumpi\n        /* \"#utility.yul\":9835:9853   */\n      tag_240\n      tag_214\n      jump\t// in\n    tag_240:\n        /* \"#utility.yul\":9767:9855   */\n    tag_239:\n        /* \"#utility.yul\":9875:9885   */\n      dup1\n        /* \"#utility.yul\":9871:9873   */\n      0x40\n        /* \"#utility.yul\":9864:9886   */\n      mstore\n        /* \"#utility.yul\":9654:9892   */\n      pop\n        /* \"#utility.yul\":9611:9892   */\n      pop\n      pop\n      jump\t// out\n        /* \"#utility.yul\":9898:10131   */\n    tag_48:\n        /* \"#utility.yul\":9937:9940   */\n      0x00\n        /* \"#utility.yul\":9960:9984   */\n      tag_242\n        /* \"#utility.yul\":9978:9983   */\n      dup3\n        /* \"#utility.yul\":9960:9984   */\n      tag_190\n      jump\t// in\n    tag_242:\n        /* \"#utility.yul\":9951:9984   */\n      swap2\n      pop\n        /* \"#utility.yul\":10006:10072   */\n      0xffffffffffffffffffffffffffffffffffffffffffffffffffffffffffffffff\n        /* \"#utility.yul\":9999:10004   */\n      dup3\n        /* \"#utility.yul\":9996:10073   */\n      eq\n        /* \"#utility.yul\":9993:10096   */\n      iszero\n      tag_243\n      jumpi\n        /* \"#utility.yul\":10076:10094   */\n      tag_244\n      tag_245\n      jump\t// in\n    tag_244:\n        /* \"#utility.yul\":9993:10096   */\n    tag_243:\n        /* \"#utility.yul\":10123:10124   */\n      0x01\n        /* \"#utility.yul\":10116:10121   */\n      dup3\n        /* \"#utility.yul\":10112:10125   */\n      add\n        /* \"#utility.yul\":10105:10125   */\n      swap1\n      pop\n        /* \"#utility.yul\":9898:10131   */\n      swap2\n      swap1\n      pop\n      jump\t// out\n        /* \"#utility.yul\":10137:10317   */\n    tag_245:\n        /* \"#utility.yul\":10185:10262   */\n      0x4e487b7100000000000000000000000000000000000000000000000000000000\n        /* \"#utility.yul\":10182:10183   */\n      0x00\n        /* \"#utility.yul\":10175:10263   */\n      mstore\n        /* \"#utility.yul\":10282:10286   */\n      0x11\n        /* \"#utility.yul\":10279:10280   */\n      0x04\n        /* \"#utility.yul\":10272:10287   */\n      mstore\n        /* \"#utility.yul\":10306:10310   */\n      0x24\n        /* \"#utility.yul\":10303:10304   */\n      0x00\n        /* \"#utility.yul\":10296:10311   */\n      revert\n        /* \"#utility.yul\":10323:10503   */\n    tag_236:\n        /* \"#utility.yul\":10371:10448   */\n      0x4e487b7100000000000000000000000000000000000000000000000000000000\n        /* \"#utility.yul\":10368:10369   */\n      0x00\n        /* \"#utility.yul\":10361:10449   */\n      mstore\n        /* \"#utility.yul\":10468:10472   */\n      0x22\n        /* \"#utility.yul\":10465:10466   */\n      0x04\n        /* \"#utility.yul\":10458:10473   */\n      mstore\n        /* \"#utility.yul\":10492:10496   */\n      0x24\n        /* \"#utility.yul\":10489:10490   */\n      0x00\n        /* \"#utility.yul\":10482:10497   */\n      revert\n        /* \"#utility.yul\":10509:10689   */\n    tag_65:\n        /* \"#utility.yul\":10557:10634   */\n      0x4e487b7100000000000000000000000000000000000000000000000000000000\n        /* \"#utility.yul\":10554:10555   */\n      0x00\n        /* \"#utility.yul\":10547:10635   */\n      mstore\n        /* \"#utility.yul\":10654:10658   */\n      0x32\n        /* \"#utility.yul\":10651:10652   */\n      0x04\n        /* \"#utility.yul\":10644:10659   */\n      mstore\n        /* \"#utility.yul\":10678:10682   */\n      0x24\n        /* \"#utility.yul\":10675:10676   */\n      0x00\n        /* \"#utility.yul\":10668:10683   */\n      revert\n        /* \"#utility.yul\":10695:10875   */\n    tag_214:\n        /* \"#utility.yul\":10743:10820   */\n      0x4e487b7100000000000000000000000000000000000000000000000000000000\n        /* \"#utility.yul\":10740:10741   */\n      0x00\n        /* \"#utility.yul\":10733:10821   */\n      mstore\n        /* \"#utility.yul\":10840:10844   */\n      0x41\n        /* \"#utility.yul\":10837:10838   */\n      0x04\n        /* \"#utility.yul\":10830:10845   */\n      mstore\n        /* \"#utility.yul\":10864:10868   */\n      0x24\n        /* \"#utility.yul\":10861:10862   */\n      0x00\n        /* \"#utility.yul\":10854:10869   */\n      revert\n        /* \"#utility.yul\":10881:10998   */\n    tag_122:\n        /* \"#utility.yul\":10990:10991   */\n      0x00\n        /* \"#utility.yul\":10987:10988   */\n      dup1\n        /* \"#utility.yul\":10980:10992   */\n      revert\n        /* \"#utility.yul\":11004:11121   */\n    tag_111:\n        /* \"#utility.yul\":11113:11114   */\n      0x00\n        /* \"#utility.yul\":11110:11111   */\n      dup1\n        /* \"#utility.yul\":11103:11115   */\n      revert\n        /* \"#utility.yul\":11127:11244   */\n    tag_143:\n        /* \"#utility.yul\":11236:11237   */\n      0x00\n        /* \"#utility.yul\":11233:11234   */\n      dup1\n        /* \"#utility.yul\":11226:11238   */\n      revert\n        /* \"#utility.yul\":11250:11367   */\n    tag_131:\n        /* \"#utility.yul\":11359:11360   */\n      0x00\n        /* \"#utility.yul\":11356:11357   */\n      dup1\n        /* \"#utility.yul\":11349:11361   */\n      revert\n        /* \"#utility.yul\":11373:11475   */\n    tag_168:\n        /* \"#utility.yul\":11414:11420   */\n      0x00\n        /* \"#utility.yul\":11465:11467   */\n      0x1f\n        /* \"#utility.yul\":11461:11468   */\n      not\n        /* \"#utility.yul\":11456:11458   */\n      0x1f\n        /* \"#utility.yul\":11449:11454   */\n      dup4\n        /* \"#utility.yul\":11445:11459   */\n      add\n        /* \"#utility.yul\":11441:11469   */\n      and\n        /* \"#utility.yul\":11431:11469   */\n      swap1\n      pop\n        /* \"#utility.yul\":11373:11475   */\n      swap2\n      swap1\n      pop\n      jump\t// out\n        /* \"#utility.yul\":11481:11661   */\n    tag_180:\n        /* \"#utility.yul\":11621:11653   */\n      0x546f646f20776974682063757272656e74204944206e6f7420666f756e640000\n        /* \"#utility.yul\":11617:11618   */\n      0x00\n        /* \"#utility.yul\":11609:11615   */\n      dup3\n        /* \"#utility.yul\":11605:11619   */\n      add\n        /* \"#utility.yul\":11598:11654   */\n      mstore\n        /* \"#utility.yul\":11481:11661   */\n      pop\n      jump\t// out\n        /* \"#utility.yul\":11667:11789   */\n    tag_117:\n        /* \"#utility.yul\":11740:11764   */\n      tag_257\n        /* \"#utility.yul\":11758:11763   */\n      dup2\n        /* \"#utility.yul\":11740:11764   */\n      tag_219\n      jump\t// in\n    tag_257:\n        /* \"#utility.yul\":11733:11738   */\n      dup2\n        /* \"#utility.yul\":11730:11765   */\n      eq\n        /* \"#utility.yul\":11720:11783   */\n      tag_258\n      jumpi\n        /* \"#utility.yul\":11779:11780   */\n      0x00\n        /* \"#utility.yul\":11776:11777   */\n      dup1\n        /* \"#utility.yul\":11769:11781   */\n      revert\n        /* \"#utility.yul\":11720:11783   */\n    tag_258:\n        /* \"#utility.yul\":11667:11789   */\n      pop\n      jump\t// out\n        /* \"#utility.yul\":11795:11917   */\n    tag_127:\n        /* \"#utility.yul\":11868:11892   */\n      tag_260\n        /* \"#utility.yul\":11886:11891   */\n      dup2\n        /* \"#utility.yul\":11868:11892   */\n      tag_190\n      jump\t// in\n    tag_260:\n        /* \"#utility.yul\":11861:11866   */\n      dup2\n        /* \"#utility.yul\":11858:11893   */\n      eq\n        /* \"#utility.yul\":11848:11911   */\n      tag_261\n      jumpi\n        /* \"#utility.yul\":11907:11908   */\n      0x00\n        /* \"#utility.yul\":11904:11905   */\n      dup1\n        /* \"#utility.yul\":11897:11909   */\n      revert\n        /* \"#utility.yul\":11848:11911   */\n    tag_261:\n        /* \"#utility.yul\":11795:11917   */\n      pop\n      jump\t// out\n\n    auxdata: 0xa2646970667358221220cab05693e16a72b1204119d799282ac0dbff792c83b7739cd4eff5bc0b0005a864736f6c63430008070033\n}\n",
				"bytecode": {
					"linkReferences": {},
					"object": "608060405234801561001057600080fd5b50610fae806100206000396000f3fe608060405234801561001057600080fd5b506004361061007d5760003560e01c8063c12327b81161005b578063c12327b8146100ed578063d321fe291461011d578063dd68afb61461013b578063fc5049f11461016b5761007d565b80631b7fb26014610082578063428c18891461009e57806362969ff7146100d1575b600080fd5b61009c600480360381019061009791906109f7565b610187565b005b6100b860048036038101906100b391906109b7565b610310565b6040516100c89493929190610c34565b60405180910390f35b6100eb60048036038101906100e69190610a6f565b61047a565b005b6101076004803603810190610102919061098a565b6104f7565b6040516101149190610c19565b60405180910390f35b61012561050f565b6040516101329190610c19565b60405180910390f35b61015560048036038101906101509190610a6f565b610556565b6040516101629190610bf7565b60405180910390f35b61018560048036038101906101809190610a6f565b6107a6565b005b6000803373ffffffffffffffffffffffffffffffffffffffff1673ffffffffffffffffffffffffffffffffffffffff1681526020019081526020016000206040518060800160405280600160003373ffffffffffffffffffffffffffffffffffffffff1673ffffffffffffffffffffffffffffffffffffffff168152602001908152602001600020548152602001848152602001838152602001600015158152509080600181540180825580915050600190039060005260206000209060040201600090919091909150600082015181600001556020820151816001019080519060200190610277929190610823565b506040820151816002019080519060200190610294929190610823565b5060608201518160030160006101000a81548160ff0219169083151502179055505050600160003373ffffffffffffffffffffffffffffffffffffffff1673ffffffffffffffffffffffffffffffffffffffff168152602001908152602001600020600081548092919061030790610df7565b91905055505050565b6000602052816000526040600020818154811061032c57600080fd5b90600052602060002090600402016000915091505080600001549080600101805461035690610d94565b80601f016020809104026020016040519081016040528092919081815260200182805461038290610d94565b80156103cf5780601f106103a4576101008083540402835291602001916103cf565b820191906000526020600020905b8154815290600101906020018083116103b257829003601f168201915b5050505050908060020180546103e490610d94565b80601f016020809104026020016040519081016040528092919081815260200182805461041090610d94565b801561045d5780601f106104325761010080835404028352916020019161045d565b820191906000526020600020905b81548152906001019060200180831161044057829003601f168201915b5050505050908060030160009054906101000a900460ff16905084565b60008060003373ffffffffffffffffffffffffffffffffffffffff1673ffffffffffffffffffffffffffffffffffffffff16815260200190815260200160002082815481106104cc576104cb610e9e565b5b906000526020600020906004020160030160006101000a81548160ff02191690831515021790555050565b60016020528060005260406000206000915090505481565b6000600160003373ffffffffffffffffffffffffffffffffffffffff1673ffffffffffffffffffffffffffffffffffffffff16815260200190815260200160002054905090565b61055e6108a9565b600082101580156105ae5750600160003373ffffffffffffffffffffffffffffffffffffffff1673ffffffffffffffffffffffffffffffffffffffff168152602001908152602001600020548211155b6105ed576040517f08c379a00000000000000000000000000000000000000000000000000000000081526004016105e490610bd7565b60405180910390fd5b6000803373ffffffffffffffffffffffffffffffffffffffff1673ffffffffffffffffffffffffffffffffffffffff168152602001908152602001600020828154811061063d5761063c610e9e565b5b90600052602060002090600402016040518060800160405290816000820154815260200160018201805461067090610d94565b80601f016020809104026020016040519081016040528092919081815260200182805461069c90610d94565b80156106e95780601f106106be576101008083540402835291602001916106e9565b820191906000526020600020905b8154815290600101906020018083116106cc57829003601f168201915b5050505050815260200160028201805461070290610d94565b80601f016020809104026020016040519081016040528092919081815260200182805461072e90610d94565b801561077b5780601f106107505761010080835404028352916020019161077b565b820191906000526020600020905b81548152906001019060200180831161075e57829003601f168201915b505050505081526020016003820160009054906101000a900460ff1615151515815250509050919050565b60016000803373ffffffffffffffffffffffffffffffffffffffff1673ffffffffffffffffffffffffffffffffffffffff16815260200190815260200160002082815481106107f8576107f7610e9e565b5b906000526020600020906004020160030160006101000a81548160ff02191690831515021790555050565b82805461082f90610d94565b90600052602060002090601f0160209004810192826108515760008555610898565b82601f1061086a57805160ff1916838001178555610898565b82800160010185558215610898579182015b8281111561089757825182559160200191906001019061087c565b5b5090506108a591906108d3565b5090565b60405180608001604052806000815260200160608152602001606081526020016000151581525090565b5b808211156108ec5760008160009055506001016108d4565b5090565b60006109036108fe84610cac565b610c87565b90508281526020810184848401111561091f5761091e610f01565b5b61092a848285610d52565b509392505050565b60008135905061094181610f4a565b92915050565b600082601f83011261095c5761095b610efc565b5b813561096c8482602086016108f0565b91505092915050565b60008135905061098481610f61565b92915050565b6000602082840312156109a05761099f610f0b565b5b60006109ae84828501610932565b91505092915050565b600080604083850312156109ce576109cd610f0b565b5b60006109dc85828601610932565b92505060206109ed85828601610975565b9150509250929050565b60008060408385031215610a0e57610a0d610f0b565b5b600083013567ffffffffffffffff811115610a2c57610a2b610f06565b5b610a3885828601610947565b925050602083013567ffffffffffffffff811115610a5957610a58610f06565b5b610a6585828601610947565b9150509250929050565b600060208284031215610a8557610a84610f0b565b5b6000610a9384828501610975565b91505092915050565b610aa581610d1c565b82525050565b610ab481610d1c565b82525050565b6000610ac582610cdd565b610acf8185610ce8565b9350610adf818560208601610d61565b610ae881610f10565b840191505092915050565b6000610afe82610cdd565b610b088185610cf9565b9350610b18818560208601610d61565b610b2181610f10565b840191505092915050565b6000610b39601e83610cf9565b9150610b4482610f21565b602082019050919050565b6000608083016000830151610b676000860182610bb9565b5060208301518482036020860152610b7f8282610aba565b91505060408301518482036040860152610b998282610aba565b9150506060830151610bae6060860182610a9c565b508091505092915050565b610bc281610d48565b82525050565b610bd181610d48565b82525050565b60006020820190508181036000830152610bf081610b2c565b9050919050565b60006020820190508181036000830152610c118184610b4f565b905092915050565b6000602082019050610c2e6000830184610bc8565b92915050565b6000608082019050610c496000830187610bc8565b8181036020830152610c5b8186610af3565b90508181036040830152610c6f8185610af3565b9050610c7e6060830184610aab565b95945050505050565b6000610c91610ca2565b9050610c9d8282610dc6565b919050565b6000604051905090565b600067ffffffffffffffff821115610cc757610cc6610ecd565b5b610cd082610f10565b9050602081019050919050565b600081519050919050565b600082825260208201905092915050565b600082825260208201905092915050565b6000610d1582610d28565b9050919050565b60008115159050919050565b600073ffffffffffffffffffffffffffffffffffffffff82169050919050565b6000819050919050565b82818337600083830152505050565b60005b83811015610d7f578082015181840152602081019050610d64565b83811115610d8e576000848401525b50505050565b60006002820490506001821680610dac57607f821691505b60208210811415610dc057610dbf610e6f565b5b50919050565b610dcf82610f10565b810181811067ffffffffffffffff82111715610dee57610ded610ecd565b5b80604052505050565b6000610e0282610d48565b91507fffffffffffffffffffffffffffffffffffffffffffffffffffffffffffffffff821415610e3557610e34610e40565b5b600182019050919050565b7f4e487b7100000000000000000000000000000000000000000000000000000000600052601160045260246000fd5b7f4e487b7100000000000000000000000000000000000000000000000000000000600052602260045260246000fd5b7f4e487b7100000000000000000000000000000000000000000000000000000000600052603260045260246000fd5b7f4e487b7100000000000000000000000000000000000000000000000000000000600052604160045260246000fd5b600080fd5b600080fd5b600080fd5b600080fd5b6000601f19601f8301169050919050565b7f546f646f20776974682063757272656e74204944206e6f7420666f756e640000600082015250565b610f5381610d0a565b8114610f5e57600080fd5b50565b610f6a81610d48565b8114610f7557600080fd5b5056fea2646970667358221220cab05693e16a72b1204119d799282ac0dbff792c83b7739cd4eff5bc0b0005a864736f6c63430008070033",
					"opcodes": "PUSH1 0x80 PUSH1 0x40 MSTORE CALLVALUE DUP1 ISZERO PUSH2 0x10 JUMPI PUSH1 0x0 DUP1 REVERT JUMPDEST POP PUSH2 0xFAE DUP1 PUSH2 0x20 PUSH1 0x0 CODECOPY PUSH1 0x0 RETURN INVALID PUSH1 0x80 PUSH1 0x40 MSTORE CALLVALUE DUP1 ISZERO PUSH2 0x10 JUMPI PUSH1 0x0 DUP1 REVERT JUMPDEST POP PUSH1 0x4 CALLDATASIZE LT PUSH2 0x7D JUMPI PUSH1 0x0 CALLDATALOAD PUSH1 0xE0 SHR DUP1 PUSH4 0xC12327B8 GT PUSH2 0x5B JUMPI DUP1 PUSH4 0xC12327B8 EQ PUSH2 0xED JUMPI DUP1 PUSH4 0xD321FE29 EQ PUSH2 0x11D JUMPI DUP1 PUSH4 0xDD68AFB6 EQ PUSH2 0x13B JUMPI DUP1 PUSH4 0xFC5049F1 EQ PUSH2 0x16B JUMPI PUSH2 0x7D JUMP JUMPDEST DUP1 PUSH4 0x1B7FB260 EQ PUSH2 0x82 JUMPI DUP1 PUSH4 0x428C1889 EQ PUSH2 0x9E JUMPI DUP1 PUSH4 0x62969FF7 EQ PUSH2 0xD1 JUMPI JUMPDEST PUSH1 0x0 DUP1 REVERT JUMPDEST PUSH2 0x9C PUSH1 0x4 DUP1 CALLDATASIZE SUB DUP2 ADD SWAP1 PUSH2 0x97 SWAP2 SWAP1 PUSH2 0x9F7 JUMP JUMPDEST PUSH2 0x187 JUMP JUMPDEST STOP JUMPDEST PUSH2 0xB8 PUSH1 0x4 DUP1 CALLDATASIZE SUB DUP2 ADD SWAP1 PUSH2 0xB3 SWAP2 SWAP1 PUSH2 0x9B7 JUMP JUMPDEST PUSH2 0x310 JUMP JUMPDEST PUSH1 0x40 MLOAD PUSH2 0xC8 SWAP5 SWAP4 SWAP3 SWAP2 SWAP1 PUSH2 0xC34 JUMP JUMPDEST PUSH1 0x40 MLOAD DUP1 SWAP2 SUB SWAP1 RETURN JUMPDEST PUSH2 0xEB PUSH1 0x4 DUP1 CALLDATASIZE SUB DUP2 ADD SWAP1 PUSH2 0xE6 SWAP2 SWAP1 PUSH2 0xA6F JUMP JUMPDEST PUSH2 0x47A JUMP JUMPDEST STOP JUMPDEST PUSH2 0x107 PUSH1 0x4 DUP1 CALLDATASIZE SUB DUP2 ADD SWAP1 PUSH2 0x102 SWAP2 SWAP1 PUSH2 0x98A JUMP JUMPDEST PUSH2 0x4F7 JUMP JUMPDEST PUSH1 0x40 MLOAD PUSH2 0x114 SWAP2 SWAP1 PUSH2 0xC19 JUMP JUMPDEST PUSH1 0x40 MLOAD DUP1 SWAP2 SUB SWAP1 RETURN JUMPDEST PUSH2 0x125 PUSH2 0x50F JUMP JUMPDEST PUSH1 0x40 MLOAD PUSH2 0x132 SWAP2 SWAP1 PUSH2 0xC19 JUMP JUMPDEST PUSH1 0x40 MLOAD DUP1 SWAP2 SUB SWAP1 RETURN JUMPDEST PUSH2 0x155 PUSH1 0x4 DUP1 CALLDATASIZE SUB DUP2 ADD SWAP1 PUSH2 0x150 SWAP2 SWAP1 PUSH2 0xA6F JUMP JUMPDEST PUSH2 0x556 JUMP JUMPDEST PUSH1 0x40 MLOAD PUSH2 0x162 SWAP2 SWAP1 PUSH2 0xBF7 JUMP JUMPDEST PUSH1 0x40 MLOAD DUP1 SWAP2 SUB SWAP1 RETURN JUMPDEST PUSH2 0x185 PUSH1 0x4 DUP1 CALLDATASIZE SUB DUP2 ADD SWAP1 PUSH2 0x180 SWAP2 SWAP1 PUSH2 0xA6F JUMP JUMPDEST PUSH2 0x7A6 JUMP JUMPDEST STOP JUMPDEST PUSH1 0x0 DUP1 CALLER PUSH20 0xFFFFFFFFFFFFFFFFFFFFFFFFFFFFFFFFFFFFFFFF AND PUSH20 0xFFFFFFFFFFFFFFFFFFFFFFFFFFFFFFFFFFFFFFFF AND DUP2 MSTORE PUSH1 0x20 ADD SWAP1 DUP2 MSTORE PUSH1 0x20 ADD PUSH1 0x0 KECCAK256 PUSH1 0x40 MLOAD DUP1 PUSH1 0x80 ADD PUSH1 0x40 MSTORE DUP1 PUSH1 0x1 PUSH1 0x0 CALLER PUSH20 0xFFFFFFFFFFFFFFFFFFFFFFFFFFFFFFFFFFFFFFFF AND PUSH20 0xFFFFFFFFFFFFFFFFFFFFFFFFFFFFFFFFFFFFFFFF AND DUP2 MSTORE PUSH1 0x20 ADD SWAP1 DUP2 MSTORE PUSH1 0x20 ADD PUSH1 0x0 KECCAK256 SLOAD DUP2 MSTORE PUSH1 0x20 ADD DUP5 DUP2 MSTORE PUSH1 0x20 ADD DUP4 DUP2 MSTORE PUSH1 0x20 ADD PUSH1 0x0 ISZERO ISZERO DUP2 MSTORE POP SWAP1 DUP1 PUSH1 0x1 DUP2 SLOAD ADD DUP1 DUP3 SSTORE DUP1 SWAP2 POP POP PUSH1 0x1 SWAP1 SUB SWAP1 PUSH1 0x0 MSTORE PUSH1 0x20 PUSH1 0x0 KECCAK256 SWAP1 PUSH1 0x4 MUL ADD PUSH1 0x0 SWAP1 SWAP2 SWAP1 SWAP2 SWAP1 SWAP2 POP PUSH1 0x0 DUP3 ADD MLOAD DUP2 PUSH1 0x0 ADD SSTORE PUSH1 0x20 DUP3 ADD MLOAD DUP2 PUSH1 0x1 ADD SWAP1 DUP1 MLOAD SWAP1 PUSH1 0x20 ADD SWAP1 PUSH2 0x277 SWAP3 SWAP2 SWAP1 PUSH2 0x823 JUMP JUMPDEST POP PUSH1 0x40 DUP3 ADD MLOAD DUP2 PUSH1 0x2 ADD SWAP1 DUP1 MLOAD SWAP1 PUSH1 0x20 ADD SWAP1 PUSH2 0x294 SWAP3 SWAP2 SWAP1 PUSH2 0x823 JUMP JUMPDEST POP PUSH1 0x60 DUP3 ADD MLOAD DUP2 PUSH1 0x3 ADD PUSH1 0x0 PUSH2 0x100 EXP DUP2 SLOAD DUP2 PUSH1 0xFF MUL NOT AND SWAP1 DUP4 ISZERO ISZERO MUL OR SWAP1 SSTORE POP POP POP PUSH1 0x1 PUSH1 0x0 CALLER PUSH20 0xFFFFFFFFFFFFFFFFFFFFFFFFFFFFFFFFFFFFFFFF AND PUSH20 0xFFFFFFFFFFFFFFFFFFFFFFFFFFFFFFFFFFFFFFFF AND DUP2 MSTORE PUSH1 0x20 ADD SWAP1 DUP2 MSTORE PUSH1 0x20 ADD PUSH1 0x0 KECCAK256 PUSH1 0x0 DUP2 SLOAD DUP1 SWAP3 SWAP2 SWAP1 PUSH2 0x307 SWAP1 PUSH2 0xDF7 JUMP JUMPDEST SWAP2 SWAP1 POP SSTORE POP POP POP JUMP JUMPDEST PUSH1 0x0 PUSH1 0x20 MSTORE DUP2 PUSH1 0x0 MSTORE PUSH1 0x40 PUSH1 0x0 KECCAK256 DUP2 DUP2 SLOAD DUP2 LT PUSH2 0x32C JUMPI PUSH1 0x0 DUP1 REVERT JUMPDEST SWAP1 PUSH1 0x0 MSTORE PUSH1 0x20 PUSH1 0x0 KECCAK256 SWAP1 PUSH1 0x4 MUL ADD PUSH1 0x0 SWAP2 POP SWAP2 POP POP DUP1 PUSH1 0x0 ADD SLOAD SWAP1 DUP1 PUSH1 0x1 ADD DUP1 SLOAD PUSH2 0x356 SWAP1 PUSH2 0xD94 JUMP JUMPDEST DUP1 PUSH1 0x1F ADD PUSH1 0x20 DUP1 SWAP2 DIV MUL PUSH1 0x20 ADD PUSH1 0x40 MLOAD SWAP1 DUP2 ADD PUSH1 0x40 MSTORE DUP1 SWAP3 SWAP2 SWAP1 DUP2 DUP2 MSTORE PUSH1 0x20 ADD DUP3 DUP1 SLOAD PUSH2 0x382 SWAP1 PUSH2 0xD94 JUMP JUMPDEST DUP1 ISZERO PUSH2 0x3CF JUMPI DUP1 PUSH1 0x1F LT PUSH2 0x3A4 JUMPI PUSH2 0x100 DUP1 DUP4 SLOAD DIV MUL DUP4 MSTORE SWAP2 PUSH1 0x20 ADD SWAP2 PUSH2 0x3CF JUMP JUMPDEST DUP3 ADD SWAP2 SWAP1 PUSH1 0x0 MSTORE PUSH1 0x20 PUSH1 0x0 KECCAK256 SWAP1 JUMPDEST DUP2 SLOAD DUP2 MSTORE SWAP1 PUSH1 0x1 ADD SWAP1 PUSH1 0x20 ADD DUP1 DUP4 GT PUSH2 0x3B2 JUMPI DUP3 SWAP1 SUB PUSH1 0x1F AND DUP3 ADD SWAP2 JUMPDEST POP POP POP POP POP SWAP1 DUP1 PUSH1 0x2 ADD DUP1 SLOAD PUSH2 0x3E4 SWAP1 PUSH2 0xD94 JUMP JUMPDEST DUP1 PUSH1 0x1F ADD PUSH1 0x20 DUP1 SWAP2 DIV MUL PUSH1 0x20 ADD PUSH1 0x40 MLOAD SWAP1 DUP2 ADD PUSH1 0x40 MSTORE DUP1 SWAP3 SWAP2 SWAP1 DUP2 DUP2 MSTORE PUSH1 0x20 ADD DUP3 DUP1 SLOAD PUSH2 0x410 SWAP1 PUSH2 0xD94 JUMP JUMPDEST DUP1 ISZERO PUSH2 0x45D JUMPI DUP1 PUSH1 0x1F LT PUSH2 0x432 JUMPI PUSH2 0x100 DUP1 DUP4 SLOAD DIV MUL DUP4 MSTORE SWAP2 PUSH1 0x20 ADD SWAP2 PUSH2 0x45D JUMP JUMPDEST DUP3 ADD SWAP2 SWAP1 PUSH1 0x0 MSTORE PUSH1 0x20 PUSH1 0x0 KECCAK256 SWAP1 JUMPDEST DUP2 SLOAD DUP2 MSTORE SWAP1 PUSH1 0x1 ADD SWAP1 PUSH1 0x20 ADD DUP1 DUP4 GT PUSH2 0x440 JUMPI DUP3 SWAP1 SUB PUSH1 0x1F AND DUP3 ADD SWAP2 JUMPDEST POP POP POP POP POP SWAP1 DUP1 PUSH1 0x3 ADD PUSH1 0x0 SWAP1 SLOAD SWAP1 PUSH2 0x100 EXP SWAP1 DIV PUSH1 0xFF AND SWAP1 POP DUP5 JUMP JUMPDEST PUSH1 0x0 DUP1 PUSH1 0x0 CALLER PUSH20 0xFFFFFFFFFFFFFFFFFFFFFFFFFFFFFFFFFFFFFFFF AND PUSH20 0xFFFFFFFFFFFFFFFFFFFFFFFFFFFFFFFFFFFFFFFF AND DUP2 MSTORE PUSH1 0x20 ADD SWAP1 DUP2 MSTORE PUSH1 0x20 ADD PUSH1 0x0 KECCAK256 DUP3 DUP2 SLOAD DUP2 LT PUSH2 0x4CC JUMPI PUSH2 0x4CB PUSH2 0xE9E JUMP JUMPDEST JUMPDEST SWAP1 PUSH1 0x0 MSTORE PUSH1 0x20 PUSH1 0x0 KECCAK256 SWAP1 PUSH1 0x4 MUL ADD PUSH1 0x3 ADD PUSH1 0x0 PUSH2 0x100 EXP DUP2 SLOAD DUP2 PUSH1 0xFF MUL NOT AND SWAP1 DUP4 ISZERO ISZERO MUL OR SWAP1 SSTORE POP POP JUMP JUMPDEST PUSH1 0x1 PUSH1 0x20 MSTORE DUP1 PUSH1 0x0 MSTORE PUSH1 0x40 PUSH1 0x0 KECCAK256 PUSH1 0x0 SWAP2 POP SWAP1 POP SLOAD DUP2 JUMP JUMPDEST PUSH1 0x0 PUSH1 0x1 PUSH1 0x0 CALLER PUSH20 0xFFFFFFFFFFFFFFFFFFFFFFFFFFFFFFFFFFFFFFFF AND PUSH20 0xFFFFFFFFFFFFFFFFFFFFFFFFFFFFFFFFFFFFFFFF AND DUP2 MSTORE PUSH1 0x20 ADD SWAP1 DUP2 MSTORE PUSH1 0x20 ADD PUSH1 0x0 KECCAK256 SLOAD SWAP1 POP SWAP1 JUMP JUMPDEST PUSH2 0x55E PUSH2 0x8A9 JUMP JUMPDEST PUSH1 0x0 DUP3 LT ISZERO DUP1 ISZERO PUSH2 0x5AE JUMPI POP PUSH1 0x1 PUSH1 0x0 CALLER PUSH20 0xFFFFFFFFFFFFFFFFFFFFFFFFFFFFFFFFFFFFFFFF AND PUSH20 0xFFFFFFFFFFFFFFFFFFFFFFFFFFFFFFFFFFFFFFFF AND DUP2 MSTORE PUSH1 0x20 ADD SWAP1 DUP2 MSTORE PUSH1 0x20 ADD PUSH1 0x0 KECCAK256 SLOAD DUP3 GT ISZERO JUMPDEST PUSH2 0x5ED JUMPI PUSH1 0x40 MLOAD PUSH32 0x8C379A000000000000000000000000000000000000000000000000000000000 DUP2 MSTORE PUSH1 0x4 ADD PUSH2 0x5E4 SWAP1 PUSH2 0xBD7 JUMP JUMPDEST PUSH1 0x40 MLOAD DUP1 SWAP2 SUB SWAP1 REVERT JUMPDEST PUSH1 0x0 DUP1 CALLER PUSH20 0xFFFFFFFFFFFFFFFFFFFFFFFFFFFFFFFFFFFFFFFF AND PUSH20 0xFFFFFFFFFFFFFFFFFFFFFFFFFFFFFFFFFFFFFFFF AND DUP2 MSTORE PUSH1 0x20 ADD SWAP1 DUP2 MSTORE PUSH1 0x20 ADD PUSH1 0x0 KECCAK256 DUP3 DUP2 SLOAD DUP2 LT PUSH2 0x63D JUMPI PUSH2 0x63C PUSH2 0xE9E JUMP JUMPDEST JUMPDEST SWAP1 PUSH1 0x0 MSTORE PUSH1 0x20 PUSH1 0x0 KECCAK256 SWAP1 PUSH1 0x4 MUL ADD PUSH1 0x40 MLOAD DUP1 PUSH1 0x80 ADD PUSH1 0x40 MSTORE SWAP1 DUP2 PUSH1 0x0 DUP3 ADD SLOAD DUP2 MSTORE PUSH1 0x20 ADD PUSH1 0x1 DUP3 ADD DUP1 SLOAD PUSH2 0x670 SWAP1 PUSH2 0xD94 JUMP JUMPDEST DUP1 PUSH1 0x1F ADD PUSH1 0x20 DUP1 SWAP2 DIV MUL PUSH1 0x20 ADD PUSH1 0x40 MLOAD SWAP1 DUP2 ADD PUSH1 0x40 MSTORE DUP1 SWAP3 SWAP2 SWAP1 DUP2 DUP2 MSTORE PUSH1 0x20 ADD DUP3 DUP1 SLOAD PUSH2 0x69C SWAP1 PUSH2 0xD94 JUMP JUMPDEST DUP1 ISZERO PUSH2 0x6E9 JUMPI DUP1 PUSH1 0x1F LT PUSH2 0x6BE JUMPI PUSH2 0x100 DUP1 DUP4 SLOAD DIV MUL DUP4 MSTORE SWAP2 PUSH1 0x20 ADD SWAP2 PUSH2 0x6E9 JUMP JUMPDEST DUP3 ADD SWAP2 SWAP1 PUSH1 0x0 MSTORE PUSH1 0x20 PUSH1 0x0 KECCAK256 SWAP1 JUMPDEST DUP2 SLOAD DUP2 MSTORE SWAP1 PUSH1 0x1 ADD SWAP1 PUSH1 0x20 ADD DUP1 DUP4 GT PUSH2 0x6CC JUMPI DUP3 SWAP1 SUB PUSH1 0x1F AND DUP3 ADD SWAP2 JUMPDEST POP POP POP POP POP DUP2 MSTORE PUSH1 0x20 ADD PUSH1 0x2 DUP3 ADD DUP1 SLOAD PUSH2 0x702 SWAP1 PUSH2 0xD94 JUMP JUMPDEST DUP1 PUSH1 0x1F ADD PUSH1 0x20 DUP1 SWAP2 DIV MUL PUSH1 0x20 ADD PUSH1 0x40 MLOAD SWAP1 DUP2 ADD PUSH1 0x40 MSTORE DUP1 SWAP3 SWAP2 SWAP1 DUP2 DUP2 MSTORE PUSH1 0x20 ADD DUP3 DUP1 SLOAD PUSH2 0x72E SWAP1 PUSH2 0xD94 JUMP JUMPDEST DUP1 ISZERO PUSH2 0x77B JUMPI DUP1 PUSH1 0x1F LT PUSH2 0x750 JUMPI PUSH2 0x100 DUP1 DUP4 SLOAD DIV MUL DUP4 MSTORE SWAP2 PUSH1 0x20 ADD SWAP2 PUSH2 0x77B JUMP JUMPDEST DUP3 ADD SWAP2 SWAP1 PUSH1 0x0 MSTORE PUSH1 0x20 PUSH1 0x0 KECCAK256 SWAP1 JUMPDEST DUP2 SLOAD DUP2 MSTORE SWAP1 PUSH1 0x1 ADD SWAP1 PUSH1 0x20 ADD DUP1 DUP4 GT PUSH2 0x75E JUMPI DUP3 SWAP1 SUB PUSH1 0x1F AND DUP3 ADD SWAP2 JUMPDEST POP POP POP POP POP DUP2 MSTORE PUSH1 0x20 ADD PUSH1 0x3 DUP3 ADD PUSH1 0x0 SWAP1 SLOAD SWAP1 PUSH2 0x100 EXP SWAP1 DIV PUSH1 0xFF AND ISZERO ISZERO ISZERO ISZERO DUP2 MSTORE POP POP SWAP1 POP SWAP2 SWAP1 POP JUMP JUMPDEST PUSH1 0x1 PUSH1 0x0 DUP1 CALLER PUSH20 0xFFFFFFFFFFFFFFFFFFFFFFFFFFFFFFFFFFFFFFFF AND PUSH20 0xFFFFFFFFFFFFFFFFFFFFFFFFFFFFFFFFFFFFFFFF AND DUP2 MSTORE PUSH1 0x20 ADD SWAP1 DUP2 MSTORE PUSH1 0x20 ADD PUSH1 0x0 KECCAK256 DUP3 DUP2 SLOAD DUP2 LT PUSH2 0x7F8 JUMPI PUSH2 0x7F7 PUSH2 0xE9E JUMP JUMPDEST JUMPDEST SWAP1 PUSH1 0x0 MSTORE PUSH1 0x20 PUSH1 0x0 KECCAK256 SWAP1 PUSH1 0x4 MUL ADD PUSH1 0x3 ADD PUSH1 0x0 PUSH2 0x100 EXP DUP2 SLOAD DUP2 PUSH1 0xFF MUL NOT AND SWAP1 DUP4 ISZERO ISZERO MUL OR SWAP1 SSTORE POP POP JUMP JUMPDEST DUP3 DUP1 SLOAD PUSH2 0x82F SWAP1 PUSH2 0xD94 JUMP JUMPDEST SWAP1 PUSH1 0x0 MSTORE PUSH1 0x20 PUSH1 0x0 KECCAK256 SWAP1 PUSH1 0x1F ADD PUSH1 0x20 SWAP1 DIV DUP2 ADD SWAP3 DUP3 PUSH2 0x851 JUMPI PUSH1 0x0 DUP6 SSTORE PUSH2 0x898 JUMP JUMPDEST DUP3 PUSH1 0x1F LT PUSH2 0x86A JUMPI DUP1 MLOAD PUSH1 0xFF NOT AND DUP4 DUP1 ADD OR DUP6 SSTORE PUSH2 0x898 JUMP JUMPDEST DUP3 DUP1 ADD PUSH1 0x1 ADD DUP6 SSTORE DUP3 ISZERO PUSH2 0x898 JUMPI SWAP2 DUP3 ADD JUMPDEST DUP3 DUP2 GT ISZERO PUSH2 0x897 JUMPI DUP3 MLOAD DUP3 SSTORE SWAP2 PUSH1 0x20 ADD SWAP2 SWAP1 PUSH1 0x1 ADD SWAP1 PUSH2 0x87C JUMP JUMPDEST JUMPDEST POP SWAP1 POP PUSH2 0x8A5 SWAP2 SWAP1 PUSH2 0x8D3 JUMP JUMPDEST POP SWAP1 JUMP JUMPDEST PUSH1 0x40 MLOAD DUP1 PUSH1 0x80 ADD PUSH1 0x40 MSTORE DUP1 PUSH1 0x0 DUP2 MSTORE PUSH1 0x20 ADD PUSH1 0x60 DUP2 MSTORE PUSH1 0x20 ADD PUSH1 0x60 DUP2 MSTORE PUSH1 0x20 ADD PUSH1 0x0 ISZERO ISZERO DUP2 MSTORE POP SWAP1 JUMP JUMPDEST JUMPDEST DUP1 DUP3 GT ISZERO PUSH2 0x8EC JUMPI PUSH1 0x0 DUP2 PUSH1 0x0 SWAP1 SSTORE POP PUSH1 0x1 ADD PUSH2 0x8D4 JUMP JUMPDEST POP SWAP1 JUMP JUMPDEST PUSH1 0x0 PUSH2 0x903 PUSH2 0x8FE DUP5 PUSH2 0xCAC JUMP JUMPDEST PUSH2 0xC87 JUMP JUMPDEST SWAP1 POP DUP3 DUP2 MSTORE PUSH1 0x20 DUP2 ADD DUP5 DUP5 DUP5 ADD GT ISZERO PUSH2 0x91F JUMPI PUSH2 0x91E PUSH2 0xF01 JUMP JUMPDEST JUMPDEST PUSH2 0x92A DUP5 DUP3 DUP6 PUSH2 0xD52 JUMP JUMPDEST POP SWAP4 SWAP3 POP POP POP JUMP JUMPDEST PUSH1 0x0 DUP2 CALLDATALOAD SWAP1 POP PUSH2 0x941 DUP2 PUSH2 0xF4A JUMP JUMPDEST SWAP3 SWAP2 POP POP JUMP JUMPDEST PUSH1 0x0 DUP3 PUSH1 0x1F DUP4 ADD SLT PUSH2 0x95C JUMPI PUSH2 0x95B PUSH2 0xEFC JUMP JUMPDEST JUMPDEST DUP2 CALLDATALOAD PUSH2 0x96C DUP5 DUP3 PUSH1 0x20 DUP7 ADD PUSH2 0x8F0 JUMP JUMPDEST SWAP2 POP POP SWAP3 SWAP2 POP POP JUMP JUMPDEST PUSH1 0x0 DUP2 CALLDATALOAD SWAP1 POP PUSH2 0x984 DUP2 PUSH2 0xF61 JUMP JUMPDEST SWAP3 SWAP2 POP POP JUMP JUMPDEST PUSH1 0x0 PUSH1 0x20 DUP3 DUP5 SUB SLT ISZERO PUSH2 0x9A0 JUMPI PUSH2 0x99F PUSH2 0xF0B JUMP JUMPDEST JUMPDEST PUSH1 0x0 PUSH2 0x9AE DUP5 DUP3 DUP6 ADD PUSH2 0x932 JUMP JUMPDEST SWAP2 POP POP SWAP3 SWAP2 POP POP JUMP JUMPDEST PUSH1 0x0 DUP1 PUSH1 0x40 DUP4 DUP6 SUB SLT ISZERO PUSH2 0x9CE JUMPI PUSH2 0x9CD PUSH2 0xF0B JUMP JUMPDEST JUMPDEST PUSH1 0x0 PUSH2 0x9DC DUP6 DUP3 DUP7 ADD PUSH2 0x932 JUMP JUMPDEST SWAP3 POP POP PUSH1 0x20 PUSH2 0x9ED DUP6 DUP3 DUP7 ADD PUSH2 0x975 JUMP JUMPDEST SWAP2 POP POP SWAP3 POP SWAP3 SWAP1 POP JUMP JUMPDEST PUSH1 0x0 DUP1 PUSH1 0x40 DUP4 DUP6 SUB SLT ISZERO PUSH2 0xA0E JUMPI PUSH2 0xA0D PUSH2 0xF0B JUMP JUMPDEST JUMPDEST PUSH1 0x0 DUP4 ADD CALLDATALOAD PUSH8 0xFFFFFFFFFFFFFFFF DUP2 GT ISZERO PUSH2 0xA2C JUMPI PUSH2 0xA2B PUSH2 0xF06 JUMP JUMPDEST JUMPDEST PUSH2 0xA38 DUP6 DUP3 DUP7 ADD PUSH2 0x947 JUMP JUMPDEST SWAP3 POP POP PUSH1 0x20 DUP4 ADD CALLDATALOAD PUSH8 0xFFFFFFFFFFFFFFFF DUP2 GT ISZERO PUSH2 0xA59 JUMPI PUSH2 0xA58 PUSH2 0xF06 JUMP JUMPDEST JUMPDEST PUSH2 0xA65 DUP6 DUP3 DUP7 ADD PUSH2 0x947 JUMP JUMPDEST SWAP2 POP POP SWAP3 POP SWAP3 SWAP1 POP JUMP JUMPDEST PUSH1 0x0 PUSH1 0x20 DUP3 DUP5 SUB SLT ISZERO PUSH2 0xA85 JUMPI PUSH2 0xA84 PUSH2 0xF0B JUMP JUMPDEST JUMPDEST PUSH1 0x0 PUSH2 0xA93 DUP5 DUP3 DUP6 ADD PUSH2 0x975 JUMP JUMPDEST SWAP2 POP POP SWAP3 SWAP2 POP POP JUMP JUMPDEST PUSH2 0xAA5 DUP2 PUSH2 0xD1C JUMP JUMPDEST DUP3 MSTORE POP POP JUMP JUMPDEST PUSH2 0xAB4 DUP2 PUSH2 0xD1C JUMP JUMPDEST DUP3 MSTORE POP POP JUMP JUMPDEST PUSH1 0x0 PUSH2 0xAC5 DUP3 PUSH2 0xCDD JUMP JUMPDEST PUSH2 0xACF DUP2 DUP6 PUSH2 0xCE8 JUMP JUMPDEST SWAP4 POP PUSH2 0xADF DUP2 DUP6 PUSH1 0x20 DUP7 ADD PUSH2 0xD61 JUMP JUMPDEST PUSH2 0xAE8 DUP2 PUSH2 0xF10 JUMP JUMPDEST DUP5 ADD SWAP2 POP POP SWAP3 SWAP2 POP POP JUMP JUMPDEST PUSH1 0x0 PUSH2 0xAFE DUP3 PUSH2 0xCDD JUMP JUMPDEST PUSH2 0xB08 DUP2 DUP6 PUSH2 0xCF9 JUMP JUMPDEST SWAP4 POP PUSH2 0xB18 DUP2 DUP6 PUSH1 0x20 DUP7 ADD PUSH2 0xD61 JUMP JUMPDEST PUSH2 0xB21 DUP2 PUSH2 0xF10 JUMP JUMPDEST DUP5 ADD SWAP2 POP POP SWAP3 SWAP2 POP POP JUMP JUMPDEST PUSH1 0x0 PUSH2 0xB39 PUSH1 0x1E DUP4 PUSH2 0xCF9 JUMP JUMPDEST SWAP2 POP PUSH2 0xB44 DUP3 PUSH2 0xF21 JUMP JUMPDEST PUSH1 0x20 DUP3 ADD SWAP1 POP SWAP2 SWAP1 POP JUMP JUMPDEST PUSH1 0x0 PUSH1 0x80 DUP4 ADD PUSH1 0x0 DUP4 ADD MLOAD PUSH2 0xB67 PUSH1 0x0 DUP7 ADD DUP3 PUSH2 0xBB9 JUMP JUMPDEST POP PUSH1 0x20 DUP4 ADD MLOAD DUP5 DUP3 SUB PUSH1 0x20 DUP7 ADD MSTORE PUSH2 0xB7F DUP3 DUP3 PUSH2 0xABA JUMP JUMPDEST SWAP2 POP POP PUSH1 0x40 DUP4 ADD MLOAD DUP5 DUP3 SUB PUSH1 0x40 DUP7 ADD MSTORE PUSH2 0xB99 DUP3 DUP3 PUSH2 0xABA JUMP JUMPDEST SWAP2 POP POP PUSH1 0x60 DUP4 ADD MLOAD PUSH2 0xBAE PUSH1 0x60 DUP7 ADD DUP3 PUSH2 0xA9C JUMP JUMPDEST POP DUP1 SWAP2 POP POP SWAP3 SWAP2 POP POP JUMP JUMPDEST PUSH2 0xBC2 DUP2 PUSH2 0xD48 JUMP JUMPDEST DUP3 MSTORE POP POP JUMP JUMPDEST PUSH2 0xBD1 DUP2 PUSH2 0xD48 JUMP JUMPDEST DUP3 MSTORE POP POP JUMP JUMPDEST PUSH1 0x0 PUSH1 0x20 DUP3 ADD SWAP1 POP DUP2 DUP2 SUB PUSH1 0x0 DUP4 ADD MSTORE PUSH2 0xBF0 DUP2 PUSH2 0xB2C JUMP JUMPDEST SWAP1 POP SWAP2 SWAP1 POP JUMP JUMPDEST PUSH1 0x0 PUSH1 0x20 DUP3 ADD SWAP1 POP DUP2 DUP2 SUB PUSH1 0x0 DUP4 ADD MSTORE PUSH2 0xC11 DUP2 DUP5 PUSH2 0xB4F JUMP JUMPDEST SWAP1 POP SWAP3 SWAP2 POP POP JUMP JUMPDEST PUSH1 0x0 PUSH1 0x20 DUP3 ADD SWAP1 POP PUSH2 0xC2E PUSH1 0x0 DUP4 ADD DUP5 PUSH2 0xBC8 JUMP JUMPDEST SWAP3 SWAP2 POP POP JUMP JUMPDEST PUSH1 0x0 PUSH1 0x80 DUP3 ADD SWAP1 POP PUSH2 0xC49 PUSH1 0x0 DUP4 ADD DUP8 PUSH2 0xBC8 JUMP JUMPDEST DUP2 DUP2 SUB PUSH1 0x20 DUP4 ADD MSTORE PUSH2 0xC5B DUP2 DUP7 PUSH2 0xAF3 JUMP JUMPDEST SWAP1 POP DUP2 DUP2 SUB PUSH1 0x40 DUP4 ADD MSTORE PUSH2 0xC6F DUP2 DUP6 PUSH2 0xAF3 JUMP JUMPDEST SWAP1 POP PUSH2 0xC7E PUSH1 0x60 DUP4 ADD DUP5 PUSH2 0xAAB JUMP JUMPDEST SWAP6 SWAP5 POP POP POP POP POP JUMP JUMPDEST PUSH1 0x0 PUSH2 0xC91 PUSH2 0xCA2 JUMP JUMPDEST SWAP1 POP PUSH2 0xC9D DUP3 DUP3 PUSH2 0xDC6 JUMP JUMPDEST SWAP2 SWAP1 POP JUMP JUMPDEST PUSH1 0x0 PUSH1 0x40 MLOAD SWAP1 POP SWAP1 JUMP JUMPDEST PUSH1 0x0 PUSH8 0xFFFFFFFFFFFFFFFF DUP3 GT ISZERO PUSH2 0xCC7 JUMPI PUSH2 0xCC6 PUSH2 0xECD JUMP JUMPDEST JUMPDEST PUSH2 0xCD0 DUP3 PUSH2 0xF10 JUMP JUMPDEST SWAP1 POP PUSH1 0x20 DUP2 ADD SWAP1 POP SWAP2 SWAP1 POP JUMP JUMPDEST PUSH1 0x0 DUP2 MLOAD SWAP1 POP SWAP2 SWAP1 POP JUMP JUMPDEST PUSH1 0x0 DUP3 DUP3 MSTORE PUSH1 0x20 DUP3 ADD SWAP1 POP SWAP3 SWAP2 POP POP JUMP JUMPDEST PUSH1 0x0 DUP3 DUP3 MSTORE PUSH1 0x20 DUP3 ADD SWAP1 POP SWAP3 SWAP2 POP POP JUMP JUMPDEST PUSH1 0x0 PUSH2 0xD15 DUP3 PUSH2 0xD28 JUMP JUMPDEST SWAP1 POP SWAP2 SWAP1 POP JUMP JUMPDEST PUSH1 0x0 DUP2 ISZERO ISZERO SWAP1 POP SWAP2 SWAP1 POP JUMP JUMPDEST PUSH1 0x0 PUSH20 0xFFFFFFFFFFFFFFFFFFFFFFFFFFFFFFFFFFFFFFFF DUP3 AND SWAP1 POP SWAP2 SWAP1 POP JUMP JUMPDEST PUSH1 0x0 DUP2 SWAP1 POP SWAP2 SWAP1 POP JUMP JUMPDEST DUP3 DUP2 DUP4 CALLDATACOPY PUSH1 0x0 DUP4 DUP4 ADD MSTORE POP POP POP JUMP JUMPDEST PUSH1 0x0 JUMPDEST DUP4 DUP2 LT ISZERO PUSH2 0xD7F JUMPI DUP1 DUP3 ADD MLOAD DUP2 DUP5 ADD MSTORE PUSH1 0x20 DUP2 ADD SWAP1 POP PUSH2 0xD64 JUMP JUMPDEST DUP4 DUP2 GT ISZERO PUSH2 0xD8E JUMPI PUSH1 0x0 DUP5 DUP5 ADD MSTORE JUMPDEST POP POP POP POP JUMP JUMPDEST PUSH1 0x0 PUSH1 0x2 DUP3 DIV SWAP1 POP PUSH1 0x1 DUP3 AND DUP1 PUSH2 0xDAC JUMPI PUSH1 0x7F DUP3 AND SWAP2 POP JUMPDEST PUSH1 0x20 DUP3 LT DUP2 EQ ISZERO PUSH2 0xDC0 JUMPI PUSH2 0xDBF PUSH2 0xE6F JUMP JUMPDEST JUMPDEST POP SWAP2 SWAP1 POP JUMP JUMPDEST PUSH2 0xDCF DUP3 PUSH2 0xF10 JUMP JUMPDEST DUP2 ADD DUP2 DUP2 LT PUSH8 0xFFFFFFFFFFFFFFFF DUP3 GT OR ISZERO PUSH2 0xDEE JUMPI PUSH2 0xDED PUSH2 0xECD JUMP JUMPDEST JUMPDEST DUP1 PUSH1 0x40 MSTORE POP POP POP JUMP JUMPDEST PUSH1 0x0 PUSH2 0xE02 DUP3 PUSH2 0xD48 JUMP JUMPDEST SWAP2 POP PUSH32 0xFFFFFFFFFFFFFFFFFFFFFFFFFFFFFFFFFFFFFFFFFFFFFFFFFFFFFFFFFFFFFFFF DUP3 EQ ISZERO PUSH2 0xE35 JUMPI PUSH2 0xE34 PUSH2 0xE40 JUMP JUMPDEST JUMPDEST PUSH1 0x1 DUP3 ADD SWAP1 POP SWAP2 SWAP1 POP JUMP JUMPDEST PUSH32 0x4E487B7100000000000000000000000000000000000000000000000000000000 PUSH1 0x0 MSTORE PUSH1 0x11 PUSH1 0x4 MSTORE PUSH1 0x24 PUSH1 0x0 REVERT JUMPDEST PUSH32 0x4E487B7100000000000000000000000000000000000000000000000000000000 PUSH1 0x0 MSTORE PUSH1 0x22 PUSH1 0x4 MSTORE PUSH1 0x24 PUSH1 0x0 REVERT JUMPDEST PUSH32 0x4E487B7100000000000000000000000000000000000000000000000000000000 PUSH1 0x0 MSTORE PUSH1 0x32 PUSH1 0x4 MSTORE PUSH1 0x24 PUSH1 0x0 REVERT JUMPDEST PUSH32 0x4E487B7100000000000000000000000000000000000000000000000000000000 PUSH1 0x0 MSTORE PUSH1 0x41 PUSH1 0x4 MSTORE PUSH1 0x24 PUSH1 0x0 REVERT JUMPDEST PUSH1 0x0 DUP1 REVERT JUMPDEST PUSH1 0x0 DUP1 REVERT JUMPDEST PUSH1 0x0 DUP1 REVERT JUMPDEST PUSH1 0x0 DUP1 REVERT JUMPDEST PUSH1 0x0 PUSH1 0x1F NOT PUSH1 0x1F DUP4 ADD AND SWAP1 POP SWAP2 SWAP1 POP JUMP JUMPDEST PUSH32 0x546F646F20776974682063757272656E74204944206E6F7420666F756E640000 PUSH1 0x0 DUP3 ADD MSTORE POP JUMP JUMPDEST PUSH2 0xF53 DUP2 PUSH2 0xD0A JUMP JUMPDEST DUP2 EQ PUSH2 0xF5E JUMPI PUSH1 0x0 DUP1 REVERT JUMPDEST POP JUMP JUMPDEST PUSH2 0xF6A DUP2 PUSH2 0xD48 JUMP JUMPDEST DUP2 EQ PUSH2 0xF75 JUMPI PUSH1 0x0 DUP1 REVERT JUMPDEST POP JUMP INVALID LOG2 PUSH5 0x6970667358 0x22 SLT KECCAK256 0xCA 0xB0 JUMP SWAP4 0xE1 PUSH11 0x72B1204119D799282AC0DB SELFDESTRUCT PUSH26 0x2C83B7739CD4EFF5BC0B0005A864736F6C634300080700330000 "
				},
				"gasEstimates": {
					"creation": {
						"codeDepositCost": "802800",
						"executionCost": "838",
						"totalCost": "803638"
					},
					"external": {
						"addTodo(string,string)": "infinite",
						"counter(address)": "2814",
						"getAmount()": "2548",
						"getTodo(uint256)": "infinite",
						"setAsDone(uint256)": "27025",
						"setAsUndone(uint256)": "27004",
						"todos(address,uint256)": "infinite"
					}
				},
				"methodIdentifiers": {
					"addTodo(string,string)": "1b7fb260",
					"counter(address)": "c12327b8",
					"getAmount()": "d321fe29",
					"getTodo(uint256)": "dd68afb6",
					"setAsDone(uint256)": "fc5049f1",
					"setAsUndone(uint256)": "62969ff7",
					"todos(address,uint256)": "428c1889"
				}
			},
			"storageLayout": {
				"storage": [
					{
						"astId": 18,
						"contract": "ToDoApp.sol:ToDoApp",
						"label": "todos",
						"offset": 0,
						"slot": "0",
						"type": "t_mapping(t_address,t_array(t_struct(ToDo)11_storage)dyn_storage)"
					},
					{
						"astId": 22,
						"contract": "ToDoApp.sol:ToDoApp",
						"label": "counter",
						"offset": 0,
						"slot": "1",
						"type": "t_mapping(t_address,t_uint256)"
					}
				],
				"types": {
					"t_address": {
						"encoding": "inplace",
						"label": "address",
						"numberOfBytes": "20"
					},
					"t_array(t_struct(ToDo)11_storage)dyn_storage": {
						"base": "t_struct(ToDo)11_storage",
						"encoding": "dynamic_array",
						"label": "struct ToDoApp.ToDo[]",
						"numberOfBytes": "32"
					},
					"t_bool": {
						"encoding": "inplace",
						"label": "bool",
						"numberOfBytes": "1"
					},
					"t_mapping(t_address,t_array(t_struct(ToDo)11_storage)dyn_storage)": {
						"encoding": "mapping",
						"key": "t_address",
						"label": "mapping(address => struct ToDoApp.ToDo[])",
						"numberOfBytes": "32",
						"value": "t_array(t_struct(ToDo)11_storage)dyn_storage"
					},
					"t_mapping(t_address,t_uint256)": {
						"encoding": "mapping",
						"key": "t_address",
						"label": "mapping(address => uint256)",
						"numberOfBytes": "32",
						"value": "t_uint256"
					},
					"t_string_storage": {
						"encoding": "bytes",
						"label": "string",
						"numberOfBytes": "32"
					},
					"t_struct(ToDo)11_storage": {
						"encoding": "inplace",
						"label": "struct ToDoApp.ToDo",
						"members": [
							{
								"astId": 4,
								"contract": "ToDoApp.sol:ToDoApp",
								"label": "id",
								"offset": 0,
								"slot": "0",
								"type": "t_uint256"
							},
							{
								"astId": 6,
								"contract": "ToDoApp.sol:ToDoApp",
								"label": "name",
								"offset": 0,
								"slot": "1",
								"type": "t_string_storage"
							},
							{
								"astId": 8,
								"contract": "ToDoApp.sol:ToDoApp",
								"label": "content",
								"offset": 0,
								"slot": "2",
								"type": "t_string_storage"
							},
							{
								"astId": 10,
								"contract": "ToDoApp.sol:ToDoApp",
								"label": "status",
								"offset": 0,
								"slot": "3",
								"type": "t_bool"
							}
						],
						"numberOfBytes": "128"
					},
					"t_uint256": {
						"encoding": "inplace",
						"label": "uint256",
						"numberOfBytes": "32"
					}
				}
			},
			"userdoc": {
				"kind": "user",
				"methods": {
					"addTodo(string,string)": {
						"notice": "Add new todo to memory. ID defaults to counter index and status defaults to false"
					},
					"constructor": {
						"notice": "Constructor"
					},
					"getAmount()": {
						"notice": "Get amount of todos"
					},
					"getTodo(uint256)": {
						"notice": "Get todo. Send error coder if id is not valid"
					},
					"setAsDone(uint256)": {
						"notice": "Set todo as done"
					},
					"setAsUndone(uint256)": {
						"notice": "Set todo as undone"
					},
					"todos(address,uint256)": {
						"notice": "Mappings"
					}
				},
				"notice": "A simple ToDo smart contract app",
				"version": 1
			}
		}
	}
}